{
  "abi": [
    {
      "inputs": [
        {
          "internalType": "address",
          "name": "_messenger",
          "type": "address"
        }
      ],
      "stateMutability": "nonpayable",
      "type": "constructor"
    },
    {
      "anonymous": false,
      "inputs": [
        {
          "indexed": true,
          "internalType": "bytes32",
          "name": "requestId",
          "type": "bytes32"
        },
        {
          "indexed": true,
          "internalType": "bytes32",
          "name": "fillId",
          "type": "bytes32"
        }
      ],
      "name": "FillInvalidated",
      "type": "event"
    },
    {
      "anonymous": false,
      "inputs": [
        {
          "indexed": false,
          "internalType": "address",
          "name": "lp",
          "type": "address"
        }
      ],
      "name": "LpAdded",
      "type": "event"
    },
    {
      "anonymous": false,
      "inputs": [
        {
          "indexed": false,
          "internalType": "address",
          "name": "lp",
          "type": "address"
        }
      ],
      "name": "LpRemoved",
      "type": "event"
    },
    {
      "anonymous": false,
      "inputs": [
        {
          "indexed": true,
          "internalType": "address",
          "name": "previousOwner",
          "type": "address"
        },
        {
          "indexed": true,
          "internalType": "address",
          "name": "newOwner",
          "type": "address"
        }
      ],
      "name": "OwnershipTransferred",
      "type": "event"
    },
    {
      "anonymous": false,
      "inputs": [
        {
          "indexed": true,
          "internalType": "bytes32",
          "name": "requestId",
          "type": "bytes32"
        },
        {
          "indexed": false,
          "internalType": "bytes32",
          "name": "fillId",
          "type": "bytes32"
        },
        {
          "indexed": true,
          "internalType": "uint256",
          "name": "sourceChainId",
          "type": "uint256"
        },
        {
          "indexed": true,
          "internalType": "address",
          "name": "targetTokenAddress",
          "type": "address"
        },
        {
          "indexed": false,
          "internalType": "address",
          "name": "filler",
          "type": "address"
        },
        {
          "indexed": false,
          "internalType": "uint256",
          "name": "amount",
          "type": "uint256"
        }
      ],
      "name": "RequestFilled",
      "type": "event"
    },
    {
      "inputs": [
        {
          "internalType": "address",
          "name": "newLp",
          "type": "address"
        }
      ],
      "name": "addAllowedLp",
      "outputs": [],
      "stateMutability": "nonpayable",
      "type": "function"
    },
    {
      "inputs": [
        {
          "internalType": "address",
          "name": "",
          "type": "address"
        }
      ],
      "name": "allowedLps",
      "outputs": [
        {
          "internalType": "bool",
          "name": "",
          "type": "bool"
        }
      ],
      "stateMutability": "view",
      "type": "function"
    },
    {
      "inputs": [
        {
          "internalType": "uint256",
          "name": "sourceChainId",
          "type": "uint256"
        },
        {
          "internalType": "address",
          "name": "targetTokenAddress",
          "type": "address"
        },
        {
          "internalType": "address",
          "name": "targetReceiverAddress",
          "type": "address"
        },
        {
          "internalType": "uint256",
          "name": "amount",
          "type": "uint256"
        },
        {
          "internalType": "uint256",
          "name": "nonce",
          "type": "uint256"
        }
      ],
      "name": "fillRequest",
      "outputs": [
        {
          "internalType": "bytes32",
          "name": "",
          "type": "bytes32"
        }
      ],
      "stateMutability": "nonpayable",
      "type": "function"
    },
    {
      "inputs": [
        {
          "internalType": "bytes32",
          "name": "",
          "type": "bytes32"
        }
      ],
      "name": "fills",
      "outputs": [
        {
          "internalType": "bytes32",
          "name": "",
          "type": "bytes32"
        }
      ],
      "stateMutability": "view",
      "type": "function"
    },
    {
      "inputs": [
        {
          "internalType": "bytes32",
          "name": "requestId",
          "type": "bytes32"
        },
        {
          "internalType": "bytes32",
          "name": "fillId",
          "type": "bytes32"
        },
        {
          "internalType": "uint256",
          "name": "sourceChainId",
          "type": "uint256"
        }
      ],
      "name": "invalidateFill",
      "outputs": [],
      "stateMutability": "nonpayable",
      "type": "function"
    },
    {
      "inputs": [],
      "name": "l1Resolver",
      "outputs": [
        {
          "internalType": "address",
          "name": "",
          "type": "address"
        }
      ],
      "stateMutability": "view",
      "type": "function"
    },
    {
      "inputs": [],
      "name": "messenger",
      "outputs": [
        {
          "internalType": "contract IMessenger",
          "name": "",
          "type": "address"
        }
      ],
      "stateMutability": "view",
      "type": "function"
    },
    {
      "inputs": [],
      "name": "owner",
      "outputs": [
        {
          "internalType": "address",
          "name": "",
          "type": "address"
        }
      ],
      "stateMutability": "view",
      "type": "function"
    },
    {
      "inputs": [
        {
          "internalType": "address",
          "name": "oldLp",
          "type": "address"
        }
      ],
      "name": "removeAllowedLp",
      "outputs": [],
      "stateMutability": "nonpayable",
      "type": "function"
    },
    {
      "inputs": [],
      "name": "renounceOwnership",
      "outputs": [],
      "stateMutability": "nonpayable",
      "type": "function"
    },
    {
      "inputs": [
        {
          "internalType": "address",
          "name": "_l1Resolver",
          "type": "address"
        }
      ],
      "name": "setResolver",
      "outputs": [],
      "stateMutability": "nonpayable",
      "type": "function"
    },
    {
      "inputs": [
        {
          "internalType": "address",
          "name": "newOwner",
          "type": "address"
        }
      ],
      "name": "transferOwnership",
      "outputs": [],
      "stateMutability": "nonpayable",
      "type": "function"
    }
  ],
  "bytecode": "608060405234801561001057600080fd5b50604051610e30380380610e3083398101604081905261002f916100ad565b6100383361005d565b600280546001600160a01b0319166001600160a01b03929092169190911790556100dd565b600080546001600160a01b038381166001600160a01b0319831681178455604051919092169283917f8be0079c531659141344cd1fd0a4f28419497f9722a3daafe3b4186f6b6457e09190a35050565b6000602082840312156100bf57600080fd5b81516001600160a01b03811681146100d657600080fd5b9392505050565b610d44806100ec6000396000f3fe608060405234801561001057600080fd5b50600436106100b45760003560e01c80634e543b26116100715780634e543b2614610165578063715018a6146101785780638da5cb5b14610180578063935beb1a146101915780639e375226146101a4578063f2fde38b146101d757600080fd5b806303fc4c37146100b957806320158c44146100ce57806331e08f7a146101015780633993b6ed146101145780633cb747bf146101275780634749e08414610152575b600080fd5b6100cc6100c7366004610b52565b6101ea565b005b6100ee6100dc366004610b7e565b60046020526000908152604090205481565b6040519081526020015b60405180910390f35b6100cc61010f366004610bb3565b61037d565b6100cc610122366004610bb3565b6103e1565b60025461013a906001600160a01b031681565b6040516001600160a01b0390911681526020016100f8565b6100ee610160366004610bce565b61043a565b6100cc610173366004610bb3565b6106e7565b6100cc610761565b6000546001600160a01b031661013a565b60035461013a906001600160a01b031681565b6101c76101b2366004610bb3565b60016020526000908152604090205460ff1681565b60405190151581526020016100f8565b6100cc6101e5366004610bb3565b610775565b6003546001600160a01b03166102425760405162461bcd60e51b815260206004820152601860248201527714995cdbdb1d995c881859191c995cdcc81b9bdd081cd95d60421b60448201526064015b60405180910390fd5b60008381526004602052604090205482900361028d5760405162461bcd60e51b815260206004820152600a602482015269119a5b1b081d985b1a5960b21b6044820152606401610239565b600254600354604051602481018690526044810185905246606482015260848101849052600060a48201526001600160a01b039283169263bb5ddb0f92169060c40160408051601f198184030181529181526020820180516001600160e01b03166314adc78760e31b179052516001600160e01b031960e085901b168152610319929190600401610c74565b600060405180830381600087803b15801561033357600080fd5b505af1158015610347573d6000803e3d6000fd5b50506040518492508591507f931b401cf9baede43dc97f7d9dd4017d44f22bfa0a69668d527d9b5fff42b90a90600090a3505050565b6103856107ee565b6001600160a01b038116600081815260016020818152604092839020805460ff191690921790915590519182527f371fc559c30f70424413fed6bf7e57dc939651331abad5c970a8ea0921c80b2e91015b60405180910390a150565b6103e96107ee565b6001600160a01b038116600081815260016020908152604091829020805460ff1916905590519182527f4e774c97f73f4bea034579e4224498d7d9b3a4109eaa70ed3d85c97a5855f19891016103d6565b3360009081526001602052604081205460ff166104925760405162461bcd60e51b815260206004820152601660248201527514d95b99195c881b9bdd081dda1a5d195b1a5cdd195960521b6044820152606401610239565b6003546001600160a01b03166104e55760405162461bcd60e51b815260206004820152601860248201527714995cdbdb1d995c881859191c995cdcc81b9bdd081cd95d60421b6044820152606401610239565b60408051602080820189905246828401526bffffffffffffffffffffffff19606089811b82168185015288901b1660748301526088820186905260a88083018690528351808403909101815260c89092019092528051910120600090600081815260046020526040902054909150156105915760405162461bcd60e51b815260206004820152600e60248201526d105b1c9958591e48199a5b1b195960921b6044820152606401610239565b856105a76001600160a01b038216338888610848565b60006105b4600143610c98565b60025460035460405160248101879052924060448401819052466064850152608484018d90523360a485015293506001600160a01b039182169263bb5ddb0f929091169060c40160408051601f198184030181529181526020820180516001600160e01b03166314adc78760e31b179052516001600160e01b031960e085901b168152610645929190600401610c74565b600060405180830381600087803b15801561065f57600080fd5b505af1158015610673573d6000803e3d6000fd5b505050600084815260046020908152604091829020849055815184815233918101919091529081018890526001600160a01b038a1691508a9085907f2995401b199bc45ea8c8b79c27fb204b270cfb74444d546b1a100935e34438879060600160405180910390a498975050505050505050565b6106ef6107ee565b6003546001600160a01b03161561073f5760405162461bcd60e51b815260206004820152601460248201527314995cdbdb1d995c88185b1c9958591e481cd95d60621b6044820152606401610239565b600380546001600160a01b0319166001600160a01b0392909216919091179055565b6107696107ee565b61077360006108a8565b565b61077d6107ee565b6001600160a01b0381166107e25760405162461bcd60e51b815260206004820152602660248201527f4f776e61626c653a206e6577206f776e657220697320746865207a65726f206160448201526564647265737360d01b6064820152608401610239565b6107eb816108a8565b50565b6000546001600160a01b031633146107735760405162461bcd60e51b815260206004820181905260248201527f4f776e61626c653a2063616c6c6572206973206e6f7420746865206f776e65726044820152606401610239565b604080516001600160a01b0385811660248301528416604482015260648082018490528251808303909101815260849091019091526020810180516001600160e01b03166323b872dd60e01b1790526108a29085906108f8565b50505050565b600080546001600160a01b038381166001600160a01b0319831681178455604051919092169283917f8be0079c531659141344cd1fd0a4f28419497f9722a3daafe3b4186f6b6457e09190a35050565b600061094d826040518060400160405280602081526020017f5361666545524332303a206c6f772d6c6576656c2063616c6c206661696c6564815250856001600160a01b03166109cf9092919063ffffffff16565b8051909150156109ca578080602001905181019061096b9190610cbd565b6109ca5760405162461bcd60e51b815260206004820152602a60248201527f5361666545524332303a204552433230206f7065726174696f6e20646964206e6044820152691bdd081cdd58d8d9595960b21b6064820152608401610239565b505050565b60606109de84846000856109e8565b90505b9392505050565b606082471015610a495760405162461bcd60e51b815260206004820152602660248201527f416464726573733a20696e73756666696369656e742062616c616e636520666f6044820152651c8818d85b1b60d21b6064820152608401610239565b6001600160a01b0385163b610aa05760405162461bcd60e51b815260206004820152601d60248201527f416464726573733a2063616c6c20746f206e6f6e2d636f6e74726163740000006044820152606401610239565b600080866001600160a01b03168587604051610abc9190610cdf565b60006040518083038185875af1925050503d8060008114610af9576040519150601f19603f3d011682016040523d82523d6000602084013e610afe565b606091505b5091509150610b0e828286610b19565b979650505050505050565b60608315610b285750816109e1565b825115610b385782518084602001fd5b8160405162461bcd60e51b81526004016102399190610cfb565b600080600060608486031215610b6757600080fd5b505081359360208301359350604090920135919050565b600060208284031215610b9057600080fd5b5035919050565b80356001600160a01b0381168114610bae57600080fd5b919050565b600060208284031215610bc557600080fd5b6109e182610b97565b600080600080600060a08688031215610be657600080fd5b85359450610bf660208701610b97565b9350610c0460408701610b97565b94979396509394606081013594506080013592915050565b60005b83811015610c37578181015183820152602001610c1f565b838111156108a25750506000910152565b60008151808452610c60816020860160208601610c1c565b601f01601f19169290920160200192915050565b6001600160a01b03831681526040602082018190526000906109de90830184610c48565b600082821015610cb857634e487b7160e01b600052601160045260246000fd5b500390565b600060208284031215610ccf57600080fd5b815180151581146109e157600080fd5b60008251610cf1818460208701610c1c565b9190910192915050565b6020815260006109e16020830184610c4856fea26469706673582212204e44605b9dd5403870d99908024257f1acfd58fc67ff4665be469325f22a495464736f6c634300080d0033",
  "bytecodeSha1": "0b0a6d89993993ddd6b7e41d22e3c1889d96dcd8",
  "compiler": {
    "evm_version": "london",
    "optimizer": {
      "enabled": true,
      "runs": 200
    },
    "version": "0.8.13+commit.abaa5c0e"
  },
  "contractName": "FillManager",
  "language": "Solidity",
  "natspec": {
    "kind": "dev",
    "methods": {
      "addAllowedLp(address)": {
        "notice": "Add a liquidity provider to the set of allowed liquidity providers. .. note:: This function can only be called by the contract owner.",
        "params": {
          "newLp": "The liquidity provider."
        }
      },
      "allowedLps(address)": {
        "notice": "The set of liquidity providers that are added to the whitelist."
      },
      "constructor": {
        "notice": "Constructor.",
        "params": {
          "_messenger": "The messenger."
        }
      },
      "fillRequest(uint256,address,address,uint256,uint256)": {
        "notice": "Fill the specified request. The caller must have approved at least ``amount`` tokens for :sol:contract:`FillManager` with the ERC20 token contract at ``targetTokenAddress``. The tokens will be immediately sent to ``targetReceiverAddress`` and a fill proof will be generated, which can later be used to trigger L1 resolution, if needed.",
        "params": {
          "amount": "Amount of tokens to transfer. Does not include fees.",
          "nonce": "The nonce used to create the request ID.",
          "sourceChainId": "The source chain ID.",
          "targetReceiverAddress": "Recipient address on the target chain.",
          "targetTokenAddress": "Address of the token contract on the target chain."
        },
        "returns": {
          "_0": "The fill ID."
        }
      },
      "fills(bytes32)": {
        "notice": "Maps request IDs to fill IDs."
      },
      "invalidateFill(bytes32,bytes32,uint256)": {
        "notice": "Invalidate the specified fill. In cases that a claim has been made on the source chain, but without a corresponding fill actually happening on the target chain, anyone can call this function to mark the fill as invalid. This is typically followed by a challenge game on the source chain, which the dishonest claimer is guaranteed to lose as soon as the information about the invalid fill (so called \"non-fill proof\") is propagated to the source chain via L1 resolution.",
        "params": {
          "fillId": "The fill ID.",
          "requestId": "The request ID.",
          "sourceChainId": "The source chain ID."
        }
      },
      "l1Resolver()": {
        "notice": "The L1 :sol:contract:`Resolver` contract to be used for L1 resolution."
      },
      "owner()": {
        "details": "Returns the address of the current owner."
      },
      "removeAllowedLp(address)": {
        "notice": "Remove a liquidity provider from the set of allowed liquidity providers. .. note:: This function can only be called by the contract owner.",
        "params": {
          "oldLp": "The liquidity provider."
        }
      },
      "renounceOwnership()": {
        "details": "Leaves the contract without owner. It will not be possible to call `onlyOwner` functions anymore. Can only be called by the current owner. NOTE: Renouncing ownership will leave the contract without an owner, thereby removing any functionality that is only available to the owner."
      },
      "setResolver(address)": {
        "notice": "Set the resolver's address Can only ever be set once. Before it is set, no fills or invalidations are possible",
        "params": {
          "_l1Resolver": "The L1 resolver address"
        }
      },
      "transferOwnership(address)": {
        "details": "Transfers ownership of the contract to a new account (`newOwner`). Can only be called by the current owner."
      }
    },
    "notice": "The fill manager. This contract is responsible for keeping track of filled requests. In addition to allowing agents to (eventually) prove that they filled requests, it also allows anyone to invalidate a claim that a request was filled. It is the only contract that agents need to interact with on the target chain.",
    "version": 1
  },
  "opcodes": "PUSH1 0x80 PUSH1 0x40 MSTORE CALLVALUE DUP1 ISZERO PUSH2 0x10 JUMPI PUSH1 0x0 DUP1 REVERT JUMPDEST POP PUSH1 0x4 CALLDATASIZE LT PUSH2 0xB4 JUMPI PUSH1 0x0 CALLDATALOAD PUSH1 0xE0 SHR DUP1 PUSH4 0x4E543B26 GT PUSH2 0x71 JUMPI DUP1 PUSH4 0x4E543B26 EQ PUSH2 0x165 JUMPI DUP1 PUSH4 0x715018A6 EQ PUSH2 0x178 JUMPI DUP1 PUSH4 0x8DA5CB5B EQ PUSH2 0x180 JUMPI DUP1 PUSH4 0x935BEB1A EQ PUSH2 0x191 JUMPI DUP1 PUSH4 0x9E375226 EQ PUSH2 0x1A4 JUMPI DUP1 PUSH4 0xF2FDE38B EQ PUSH2 0x1D7 JUMPI PUSH1 0x0 DUP1 REVERT JUMPDEST DUP1 PUSH4 0x3FC4C37 EQ PUSH2 0xB9 JUMPI DUP1 PUSH4 0x20158C44 EQ PUSH2 0xCE JUMPI DUP1 PUSH4 0x31E08F7A EQ PUSH2 0x101 JUMPI DUP1 PUSH4 0x3993B6ED EQ PUSH2 0x114 JUMPI DUP1 PUSH4 0x3CB747BF EQ PUSH2 0x127 JUMPI DUP1 PUSH4 0x4749E084 EQ PUSH2 0x152 JUMPI JUMPDEST PUSH1 0x0 DUP1 REVERT JUMPDEST PUSH2 0xCC PUSH2 0xC7 CALLDATASIZE PUSH1 0x4 PUSH2 0xB52 JUMP JUMPDEST PUSH2 0x1EA JUMP JUMPDEST STOP JUMPDEST PUSH2 0xEE PUSH2 0xDC CALLDATASIZE PUSH1 0x4 PUSH2 0xB7E JUMP JUMPDEST PUSH1 0x4 PUSH1 0x20 MSTORE PUSH1 0x0 SWAP1 DUP2 MSTORE PUSH1 0x40 SWAP1 KECCAK256 SLOAD DUP2 JUMP JUMPDEST PUSH1 0x40 MLOAD SWAP1 DUP2 MSTORE PUSH1 0x20 ADD JUMPDEST PUSH1 0x40 MLOAD DUP1 SWAP2 SUB SWAP1 RETURN JUMPDEST PUSH2 0xCC PUSH2 0x10F CALLDATASIZE PUSH1 0x4 PUSH2 0xBB3 JUMP JUMPDEST PUSH2 0x37D JUMP JUMPDEST PUSH2 0xCC PUSH2 0x122 CALLDATASIZE PUSH1 0x4 PUSH2 0xBB3 JUMP JUMPDEST PUSH2 0x3E1 JUMP JUMPDEST PUSH1 0x2 SLOAD PUSH2 0x13A SWAP1 PUSH1 0x1 PUSH1 0x1 PUSH1 0xA0 SHL SUB AND DUP2 JUMP JUMPDEST PUSH1 0x40 MLOAD PUSH1 0x1 PUSH1 0x1 PUSH1 0xA0 SHL SUB SWAP1 SWAP2 AND DUP2 MSTORE PUSH1 0x20 ADD PUSH2 0xF8 JUMP JUMPDEST PUSH2 0xEE PUSH2 0x160 CALLDATASIZE PUSH1 0x4 PUSH2 0xBCE JUMP JUMPDEST PUSH2 0x43A JUMP JUMPDEST PUSH2 0xCC PUSH2 0x173 CALLDATASIZE PUSH1 0x4 PUSH2 0xBB3 JUMP JUMPDEST PUSH2 0x6E7 JUMP JUMPDEST PUSH2 0xCC PUSH2 0x761 JUMP JUMPDEST PUSH1 0x0 SLOAD PUSH1 0x1 PUSH1 0x1 PUSH1 0xA0 SHL SUB AND PUSH2 0x13A JUMP JUMPDEST PUSH1 0x3 SLOAD PUSH2 0x13A SWAP1 PUSH1 0x1 PUSH1 0x1 PUSH1 0xA0 SHL SUB AND DUP2 JUMP JUMPDEST PUSH2 0x1C7 PUSH2 0x1B2 CALLDATASIZE PUSH1 0x4 PUSH2 0xBB3 JUMP JUMPDEST PUSH1 0x1 PUSH1 0x20 MSTORE PUSH1 0x0 SWAP1 DUP2 MSTORE PUSH1 0x40 SWAP1 KECCAK256 SLOAD PUSH1 0xFF AND DUP2 JUMP JUMPDEST PUSH1 0x40 MLOAD SWAP1 ISZERO ISZERO DUP2 MSTORE PUSH1 0x20 ADD PUSH2 0xF8 JUMP JUMPDEST PUSH2 0xCC PUSH2 0x1E5 CALLDATASIZE PUSH1 0x4 PUSH2 0xBB3 JUMP JUMPDEST PUSH2 0x775 JUMP JUMPDEST PUSH1 0x3 SLOAD PUSH1 0x1 PUSH1 0x1 PUSH1 0xA0 SHL SUB AND PUSH2 0x242 JUMPI PUSH1 0x40 MLOAD PUSH3 0x461BCD PUSH1 0xE5 SHL DUP2 MSTORE PUSH1 0x20 PUSH1 0x4 DUP3 ADD MSTORE PUSH1 0x18 PUSH1 0x24 DUP3 ADD MSTORE PUSH24 0x14995CDBDB1D995C881859191C995CDCC81B9BDD081CD95D PUSH1 0x42 SHL PUSH1 0x44 DUP3 ADD MSTORE PUSH1 0x64 ADD JUMPDEST PUSH1 0x40 MLOAD DUP1 SWAP2 SUB SWAP1 REVERT JUMPDEST PUSH1 0x0 DUP4 DUP2 MSTORE PUSH1 0x4 PUSH1 0x20 MSTORE PUSH1 0x40 SWAP1 KECCAK256 SLOAD DUP3 SWAP1 SUB PUSH2 0x28D JUMPI PUSH1 0x40 MLOAD PUSH3 0x461BCD PUSH1 0xE5 SHL DUP2 MSTORE PUSH1 0x20 PUSH1 0x4 DUP3 ADD MSTORE PUSH1 0xA PUSH1 0x24 DUP3 ADD MSTORE PUSH10 0x119A5B1B081D985B1A59 PUSH1 0xB2 SHL PUSH1 0x44 DUP3 ADD MSTORE PUSH1 0x64 ADD PUSH2 0x239 JUMP JUMPDEST PUSH1 0x2 SLOAD PUSH1 0x3 SLOAD PUSH1 0x40 MLOAD PUSH1 0x24 DUP2 ADD DUP7 SWAP1 MSTORE PUSH1 0x44 DUP2 ADD DUP6 SWAP1 MSTORE CHAINID PUSH1 0x64 DUP3 ADD MSTORE PUSH1 0x84 DUP2 ADD DUP5 SWAP1 MSTORE PUSH1 0x0 PUSH1 0xA4 DUP3 ADD MSTORE PUSH1 0x1 PUSH1 0x1 PUSH1 0xA0 SHL SUB SWAP3 DUP4 AND SWAP3 PUSH4 0xBB5DDB0F SWAP3 AND SWAP1 PUSH1 0xC4 ADD PUSH1 0x40 DUP1 MLOAD PUSH1 0x1F NOT DUP2 DUP5 SUB ADD DUP2 MSTORE SWAP2 DUP2 MSTORE PUSH1 0x20 DUP3 ADD DUP1 MLOAD PUSH1 0x1 PUSH1 0x1 PUSH1 0xE0 SHL SUB AND PUSH4 0x14ADC787 PUSH1 0xE3 SHL OR SWAP1 MSTORE MLOAD PUSH1 0x1 PUSH1 0x1 PUSH1 0xE0 SHL SUB NOT PUSH1 0xE0 DUP6 SWAP1 SHL AND DUP2 MSTORE PUSH2 0x319 SWAP3 SWAP2 SWAP1 PUSH1 0x4 ADD PUSH2 0xC74 JUMP JUMPDEST PUSH1 0x0 PUSH1 0x40 MLOAD DUP1 DUP4 SUB DUP2 PUSH1 0x0 DUP8 DUP1 EXTCODESIZE ISZERO DUP1 ISZERO PUSH2 0x333 JUMPI PUSH1 0x0 DUP1 REVERT JUMPDEST POP GAS CALL ISZERO DUP1 ISZERO PUSH2 0x347 JUMPI RETURNDATASIZE PUSH1 0x0 DUP1 RETURNDATACOPY RETURNDATASIZE PUSH1 0x0 REVERT JUMPDEST POP POP PUSH1 0x40 MLOAD DUP5 SWAP3 POP DUP6 SWAP2 POP PUSH32 0x931B401CF9BAEDE43DC97F7D9DD4017D44F22BFA0A69668D527D9B5FFF42B90A SWAP1 PUSH1 0x0 SWAP1 LOG3 POP POP POP JUMP JUMPDEST PUSH2 0x385 PUSH2 0x7EE JUMP JUMPDEST PUSH1 0x1 PUSH1 0x1 PUSH1 0xA0 SHL SUB DUP2 AND PUSH1 0x0 DUP2 DUP2 MSTORE PUSH1 0x1 PUSH1 0x20 DUP2 DUP2 MSTORE PUSH1 0x40 SWAP3 DUP4 SWAP1 KECCAK256 DUP1 SLOAD PUSH1 0xFF NOT AND SWAP1 SWAP3 OR SWAP1 SWAP2 SSTORE SWAP1 MLOAD SWAP2 DUP3 MSTORE PUSH32 0x371FC559C30F70424413FED6BF7E57DC939651331ABAD5C970A8EA0921C80B2E SWAP2 ADD JUMPDEST PUSH1 0x40 MLOAD DUP1 SWAP2 SUB SWAP1 LOG1 POP JUMP JUMPDEST PUSH2 0x3E9 PUSH2 0x7EE JUMP JUMPDEST PUSH1 0x1 PUSH1 0x1 PUSH1 0xA0 SHL SUB DUP2 AND PUSH1 0x0 DUP2 DUP2 MSTORE PUSH1 0x1 PUSH1 0x20 SWAP1 DUP2 MSTORE PUSH1 0x40 SWAP2 DUP3 SWAP1 KECCAK256 DUP1 SLOAD PUSH1 0xFF NOT AND SWAP1 SSTORE SWAP1 MLOAD SWAP2 DUP3 MSTORE PUSH32 0x4E774C97F73F4BEA034579E4224498D7D9B3A4109EAA70ED3D85C97A5855F198 SWAP2 ADD PUSH2 0x3D6 JUMP JUMPDEST CALLER PUSH1 0x0 SWAP1 DUP2 MSTORE PUSH1 0x1 PUSH1 0x20 MSTORE PUSH1 0x40 DUP2 KECCAK256 SLOAD PUSH1 0xFF AND PUSH2 0x492 JUMPI PUSH1 0x40 MLOAD PUSH3 0x461BCD PUSH1 0xE5 SHL DUP2 MSTORE PUSH1 0x20 PUSH1 0x4 DUP3 ADD MSTORE PUSH1 0x16 PUSH1 0x24 DUP3 ADD MSTORE PUSH22 0x14D95B99195C881B9BDD081DDA1A5D195B1A5CDD1959 PUSH1 0x52 SHL PUSH1 0x44 DUP3 ADD MSTORE PUSH1 0x64 ADD PUSH2 0x239 JUMP JUMPDEST PUSH1 0x3 SLOAD PUSH1 0x1 PUSH1 0x1 PUSH1 0xA0 SHL SUB AND PUSH2 0x4E5 JUMPI PUSH1 0x40 MLOAD PUSH3 0x461BCD PUSH1 0xE5 SHL DUP2 MSTORE PUSH1 0x20 PUSH1 0x4 DUP3 ADD MSTORE PUSH1 0x18 PUSH1 0x24 DUP3 ADD MSTORE PUSH24 0x14995CDBDB1D995C881859191C995CDCC81B9BDD081CD95D PUSH1 0x42 SHL PUSH1 0x44 DUP3 ADD MSTORE PUSH1 0x64 ADD PUSH2 0x239 JUMP JUMPDEST PUSH1 0x40 DUP1 MLOAD PUSH1 0x20 DUP1 DUP3 ADD DUP10 SWAP1 MSTORE CHAINID DUP3 DUP5 ADD MSTORE PUSH12 0xFFFFFFFFFFFFFFFFFFFFFFFF NOT PUSH1 0x60 DUP10 DUP2 SHL DUP3 AND DUP2 DUP6 ADD MSTORE DUP9 SWAP1 SHL AND PUSH1 0x74 DUP4 ADD MSTORE PUSH1 0x88 DUP3 ADD DUP7 SWAP1 MSTORE PUSH1 0xA8 DUP1 DUP4 ADD DUP7 SWAP1 MSTORE DUP4 MLOAD DUP1 DUP5 SUB SWAP1 SWAP2 ADD DUP2 MSTORE PUSH1 0xC8 SWAP1 SWAP3 ADD SWAP1 SWAP3 MSTORE DUP1 MLOAD SWAP2 ADD KECCAK256 PUSH1 0x0 SWAP1 PUSH1 0x0 DUP2 DUP2 MSTORE PUSH1 0x4 PUSH1 0x20 MSTORE PUSH1 0x40 SWAP1 KECCAK256 SLOAD SWAP1 SWAP2 POP ISZERO PUSH2 0x591 JUMPI PUSH1 0x40 MLOAD PUSH3 0x461BCD PUSH1 0xE5 SHL DUP2 MSTORE PUSH1 0x20 PUSH1 0x4 DUP3 ADD MSTORE PUSH1 0xE PUSH1 0x24 DUP3 ADD MSTORE PUSH14 0x105B1C9958591E48199A5B1B1959 PUSH1 0x92 SHL PUSH1 0x44 DUP3 ADD MSTORE PUSH1 0x64 ADD PUSH2 0x239 JUMP JUMPDEST DUP6 PUSH2 0x5A7 PUSH1 0x1 PUSH1 0x1 PUSH1 0xA0 SHL SUB DUP3 AND CALLER DUP9 DUP9 PUSH2 0x848 JUMP JUMPDEST PUSH1 0x0 PUSH2 0x5B4 PUSH1 0x1 NUMBER PUSH2 0xC98 JUMP JUMPDEST PUSH1 0x2 SLOAD PUSH1 0x3 SLOAD PUSH1 0x40 MLOAD PUSH1 0x24 DUP2 ADD DUP8 SWAP1 MSTORE SWAP3 BLOCKHASH PUSH1 0x44 DUP5 ADD DUP2 SWAP1 MSTORE CHAINID PUSH1 0x64 DUP6 ADD MSTORE PUSH1 0x84 DUP5 ADD DUP14 SWAP1 MSTORE CALLER PUSH1 0xA4 DUP6 ADD MSTORE SWAP4 POP PUSH1 0x1 PUSH1 0x1 PUSH1 0xA0 SHL SUB SWAP2 DUP3 AND SWAP3 PUSH4 0xBB5DDB0F SWAP3 SWAP1 SWAP2 AND SWAP1 PUSH1 0xC4 ADD PUSH1 0x40 DUP1 MLOAD PUSH1 0x1F NOT DUP2 DUP5 SUB ADD DUP2 MSTORE SWAP2 DUP2 MSTORE PUSH1 0x20 DUP3 ADD DUP1 MLOAD PUSH1 0x1 PUSH1 0x1 PUSH1 0xE0 SHL SUB AND PUSH4 0x14ADC787 PUSH1 0xE3 SHL OR SWAP1 MSTORE MLOAD PUSH1 0x1 PUSH1 0x1 PUSH1 0xE0 SHL SUB NOT PUSH1 0xE0 DUP6 SWAP1 SHL AND DUP2 MSTORE PUSH2 0x645 SWAP3 SWAP2 SWAP1 PUSH1 0x4 ADD PUSH2 0xC74 JUMP JUMPDEST PUSH1 0x0 PUSH1 0x40 MLOAD DUP1 DUP4 SUB DUP2 PUSH1 0x0 DUP8 DUP1 EXTCODESIZE ISZERO DUP1 ISZERO PUSH2 0x65F JUMPI PUSH1 0x0 DUP1 REVERT JUMPDEST POP GAS CALL ISZERO DUP1 ISZERO PUSH2 0x673 JUMPI RETURNDATASIZE PUSH1 0x0 DUP1 RETURNDATACOPY RETURNDATASIZE PUSH1 0x0 REVERT JUMPDEST POP POP POP PUSH1 0x0 DUP5 DUP2 MSTORE PUSH1 0x4 PUSH1 0x20 SWAP1 DUP2 MSTORE PUSH1 0x40 SWAP2 DUP3 SWAP1 KECCAK256 DUP5 SWAP1 SSTORE DUP2 MLOAD DUP5 DUP2 MSTORE CALLER SWAP2 DUP2 ADD SWAP2 SWAP1 SWAP2 MSTORE SWAP1 DUP2 ADD DUP9 SWAP1 MSTORE PUSH1 0x1 PUSH1 0x1 PUSH1 0xA0 SHL SUB DUP11 AND SWAP2 POP DUP11 SWAP1 DUP6 SWAP1 PUSH32 0x2995401B199BC45EA8C8B79C27FB204B270CFB74444D546B1A100935E3443887 SWAP1 PUSH1 0x60 ADD PUSH1 0x40 MLOAD DUP1 SWAP2 SUB SWAP1 LOG4 SWAP9 SWAP8 POP POP POP POP POP POP POP POP JUMP JUMPDEST PUSH2 0x6EF PUSH2 0x7EE JUMP JUMPDEST PUSH1 0x3 SLOAD PUSH1 0x1 PUSH1 0x1 PUSH1 0xA0 SHL SUB AND ISZERO PUSH2 0x73F JUMPI PUSH1 0x40 MLOAD PUSH3 0x461BCD PUSH1 0xE5 SHL DUP2 MSTORE PUSH1 0x20 PUSH1 0x4 DUP3 ADD MSTORE PUSH1 0x14 PUSH1 0x24 DUP3 ADD MSTORE PUSH20 0x14995CDBDB1D995C88185B1C9958591E481CD95D PUSH1 0x62 SHL PUSH1 0x44 DUP3 ADD MSTORE PUSH1 0x64 ADD PUSH2 0x239 JUMP JUMPDEST PUSH1 0x3 DUP1 SLOAD PUSH1 0x1 PUSH1 0x1 PUSH1 0xA0 SHL SUB NOT AND PUSH1 0x1 PUSH1 0x1 PUSH1 0xA0 SHL SUB SWAP3 SWAP1 SWAP3 AND SWAP2 SWAP1 SWAP2 OR SWAP1 SSTORE JUMP JUMPDEST PUSH2 0x769 PUSH2 0x7EE JUMP JUMPDEST PUSH2 0x773 PUSH1 0x0 PUSH2 0x8A8 JUMP JUMPDEST JUMP JUMPDEST PUSH2 0x77D PUSH2 0x7EE JUMP JUMPDEST PUSH1 0x1 PUSH1 0x1 PUSH1 0xA0 SHL SUB DUP2 AND PUSH2 0x7E2 JUMPI PUSH1 0x40 MLOAD PUSH3 0x461BCD PUSH1 0xE5 SHL DUP2 MSTORE PUSH1 0x20 PUSH1 0x4 DUP3 ADD MSTORE PUSH1 0x26 PUSH1 0x24 DUP3 ADD MSTORE PUSH32 0x4F776E61626C653A206E6577206F776E657220697320746865207A65726F2061 PUSH1 0x44 DUP3 ADD MSTORE PUSH6 0x646472657373 PUSH1 0xD0 SHL PUSH1 0x64 DUP3 ADD MSTORE PUSH1 0x84 ADD PUSH2 0x239 JUMP JUMPDEST PUSH2 0x7EB DUP2 PUSH2 0x8A8 JUMP JUMPDEST POP JUMP JUMPDEST PUSH1 0x0 SLOAD PUSH1 0x1 PUSH1 0x1 PUSH1 0xA0 SHL SUB AND CALLER EQ PUSH2 0x773 JUMPI PUSH1 0x40 MLOAD PUSH3 0x461BCD PUSH1 0xE5 SHL DUP2 MSTORE PUSH1 0x20 PUSH1 0x4 DUP3 ADD DUP2 SWAP1 MSTORE PUSH1 0x24 DUP3 ADD MSTORE PUSH32 0x4F776E61626C653A2063616C6C6572206973206E6F7420746865206F776E6572 PUSH1 0x44 DUP3 ADD MSTORE PUSH1 0x64 ADD PUSH2 0x239 JUMP JUMPDEST PUSH1 0x40 DUP1 MLOAD PUSH1 0x1 PUSH1 0x1 PUSH1 0xA0 SHL SUB DUP6 DUP2 AND PUSH1 0x24 DUP4 ADD MSTORE DUP5 AND PUSH1 0x44 DUP3 ADD MSTORE PUSH1 0x64 DUP1 DUP3 ADD DUP5 SWAP1 MSTORE DUP3 MLOAD DUP1 DUP4 SUB SWAP1 SWAP2 ADD DUP2 MSTORE PUSH1 0x84 SWAP1 SWAP2 ADD SWAP1 SWAP2 MSTORE PUSH1 0x20 DUP2 ADD DUP1 MLOAD PUSH1 0x1 PUSH1 0x1 PUSH1 0xE0 SHL SUB AND PUSH4 0x23B872DD PUSH1 0xE0 SHL OR SWAP1 MSTORE PUSH2 0x8A2 SWAP1 DUP6 SWAP1 PUSH2 0x8F8 JUMP JUMPDEST POP POP POP POP JUMP JUMPDEST PUSH1 0x0 DUP1 SLOAD PUSH1 0x1 PUSH1 0x1 PUSH1 0xA0 SHL SUB DUP4 DUP2 AND PUSH1 0x1 PUSH1 0x1 PUSH1 0xA0 SHL SUB NOT DUP4 AND DUP2 OR DUP5 SSTORE PUSH1 0x40 MLOAD SWAP2 SWAP1 SWAP3 AND SWAP3 DUP4 SWAP2 PUSH32 0x8BE0079C531659141344CD1FD0A4F28419497F9722A3DAAFE3B4186F6B6457E0 SWAP2 SWAP1 LOG3 POP POP JUMP JUMPDEST PUSH1 0x0 PUSH2 0x94D DUP3 PUSH1 0x40 MLOAD DUP1 PUSH1 0x40 ADD PUSH1 0x40 MSTORE DUP1 PUSH1 0x20 DUP2 MSTORE PUSH1 0x20 ADD PUSH32 0x5361666545524332303A206C6F772D6C6576656C2063616C6C206661696C6564 DUP2 MSTORE POP DUP6 PUSH1 0x1 PUSH1 0x1 PUSH1 0xA0 SHL SUB AND PUSH2 0x9CF SWAP1 SWAP3 SWAP2 SWAP1 PUSH4 0xFFFFFFFF AND JUMP JUMPDEST DUP1 MLOAD SWAP1 SWAP2 POP ISZERO PUSH2 0x9CA JUMPI DUP1 DUP1 PUSH1 0x20 ADD SWAP1 MLOAD DUP2 ADD SWAP1 PUSH2 0x96B SWAP2 SWAP1 PUSH2 0xCBD JUMP JUMPDEST PUSH2 0x9CA JUMPI PUSH1 0x40 MLOAD PUSH3 0x461BCD PUSH1 0xE5 SHL DUP2 MSTORE PUSH1 0x20 PUSH1 0x4 DUP3 ADD MSTORE PUSH1 0x2A PUSH1 0x24 DUP3 ADD MSTORE PUSH32 0x5361666545524332303A204552433230206F7065726174696F6E20646964206E PUSH1 0x44 DUP3 ADD MSTORE PUSH10 0x1BDD081CDD58D8D95959 PUSH1 0xB2 SHL PUSH1 0x64 DUP3 ADD MSTORE PUSH1 0x84 ADD PUSH2 0x239 JUMP JUMPDEST POP POP POP JUMP JUMPDEST PUSH1 0x60 PUSH2 0x9DE DUP5 DUP5 PUSH1 0x0 DUP6 PUSH2 0x9E8 JUMP JUMPDEST SWAP1 POP JUMPDEST SWAP4 SWAP3 POP POP POP JUMP JUMPDEST PUSH1 0x60 DUP3 SELFBALANCE LT ISZERO PUSH2 0xA49 JUMPI PUSH1 0x40 MLOAD PUSH3 0x461BCD PUSH1 0xE5 SHL DUP2 MSTORE PUSH1 0x20 PUSH1 0x4 DUP3 ADD MSTORE PUSH1 0x26 PUSH1 0x24 DUP3 ADD MSTORE PUSH32 0x416464726573733A20696E73756666696369656E742062616C616E636520666F PUSH1 0x44 DUP3 ADD MSTORE PUSH6 0x1C8818D85B1B PUSH1 0xD2 SHL PUSH1 0x64 DUP3 ADD MSTORE PUSH1 0x84 ADD PUSH2 0x239 JUMP JUMPDEST PUSH1 0x1 PUSH1 0x1 PUSH1 0xA0 SHL SUB DUP6 AND EXTCODESIZE PUSH2 0xAA0 JUMPI PUSH1 0x40 MLOAD PUSH3 0x461BCD PUSH1 0xE5 SHL DUP2 MSTORE PUSH1 0x20 PUSH1 0x4 DUP3 ADD MSTORE PUSH1 0x1D PUSH1 0x24 DUP3 ADD MSTORE PUSH32 0x416464726573733A2063616C6C20746F206E6F6E2D636F6E7472616374000000 PUSH1 0x44 DUP3 ADD MSTORE PUSH1 0x64 ADD PUSH2 0x239 JUMP JUMPDEST PUSH1 0x0 DUP1 DUP7 PUSH1 0x1 PUSH1 0x1 PUSH1 0xA0 SHL SUB AND DUP6 DUP8 PUSH1 0x40 MLOAD PUSH2 0xABC SWAP2 SWAP1 PUSH2 0xCDF JUMP JUMPDEST PUSH1 0x0 PUSH1 0x40 MLOAD DUP1 DUP4 SUB DUP2 DUP6 DUP8 GAS CALL SWAP3 POP POP POP RETURNDATASIZE DUP1 PUSH1 0x0 DUP2 EQ PUSH2 0xAF9 JUMPI PUSH1 0x40 MLOAD SWAP2 POP PUSH1 0x1F NOT PUSH1 0x3F RETURNDATASIZE ADD AND DUP3 ADD PUSH1 0x40 MSTORE RETURNDATASIZE DUP3 MSTORE RETURNDATASIZE PUSH1 0x0 PUSH1 0x20 DUP5 ADD RETURNDATACOPY PUSH2 0xAFE JUMP JUMPDEST PUSH1 0x60 SWAP2 POP JUMPDEST POP SWAP2 POP SWAP2 POP PUSH2 0xB0E DUP3 DUP3 DUP7 PUSH2 0xB19 JUMP JUMPDEST SWAP8 SWAP7 POP POP POP POP POP POP POP JUMP JUMPDEST PUSH1 0x60 DUP4 ISZERO PUSH2 0xB28 JUMPI POP DUP2 PUSH2 0x9E1 JUMP JUMPDEST DUP3 MLOAD ISZERO PUSH2 0xB38 JUMPI DUP3 MLOAD DUP1 DUP5 PUSH1 0x20 ADD REVERT JUMPDEST DUP2 PUSH1 0x40 MLOAD PUSH3 0x461BCD PUSH1 0xE5 SHL DUP2 MSTORE PUSH1 0x4 ADD PUSH2 0x239 SWAP2 SWAP1 PUSH2 0xCFB JUMP JUMPDEST PUSH1 0x0 DUP1 PUSH1 0x0 PUSH1 0x60 DUP5 DUP7 SUB SLT ISZERO PUSH2 0xB67 JUMPI PUSH1 0x0 DUP1 REVERT JUMPDEST POP POP DUP2 CALLDATALOAD SWAP4 PUSH1 0x20 DUP4 ADD CALLDATALOAD SWAP4 POP PUSH1 0x40 SWAP1 SWAP3 ADD CALLDATALOAD SWAP2 SWAP1 POP JUMP JUMPDEST PUSH1 0x0 PUSH1 0x20 DUP3 DUP5 SUB SLT ISZERO PUSH2 0xB90 JUMPI PUSH1 0x0 DUP1 REVERT JUMPDEST POP CALLDATALOAD SWAP2 SWAP1 POP JUMP JUMPDEST DUP1 CALLDATALOAD PUSH1 0x1 PUSH1 0x1 PUSH1 0xA0 SHL SUB DUP2 AND DUP2 EQ PUSH2 0xBAE JUMPI PUSH1 0x0 DUP1 REVERT JUMPDEST SWAP2 SWAP1 POP JUMP JUMPDEST PUSH1 0x0 PUSH1 0x20 DUP3 DUP5 SUB SLT ISZERO PUSH2 0xBC5 JUMPI PUSH1 0x0 DUP1 REVERT JUMPDEST PUSH2 0x9E1 DUP3 PUSH2 0xB97 JUMP JUMPDEST PUSH1 0x0 DUP1 PUSH1 0x0 DUP1 PUSH1 0x0 PUSH1 0xA0 DUP7 DUP9 SUB SLT ISZERO PUSH2 0xBE6 JUMPI PUSH1 0x0 DUP1 REVERT JUMPDEST DUP6 CALLDATALOAD SWAP5 POP PUSH2 0xBF6 PUSH1 0x20 DUP8 ADD PUSH2 0xB97 JUMP JUMPDEST SWAP4 POP PUSH2 0xC04 PUSH1 0x40 DUP8 ADD PUSH2 0xB97 JUMP JUMPDEST SWAP5 SWAP8 SWAP4 SWAP7 POP SWAP4 SWAP5 PUSH1 0x60 DUP2 ADD CALLDATALOAD SWAP5 POP PUSH1 0x80 ADD CALLDATALOAD SWAP3 SWAP2 POP POP JUMP JUMPDEST PUSH1 0x0 JUMPDEST DUP4 DUP2 LT ISZERO PUSH2 0xC37 JUMPI DUP2 DUP2 ADD MLOAD DUP4 DUP3 ADD MSTORE PUSH1 0x20 ADD PUSH2 0xC1F JUMP JUMPDEST DUP4 DUP2 GT ISZERO PUSH2 0x8A2 JUMPI POP POP PUSH1 0x0 SWAP2 ADD MSTORE JUMP JUMPDEST PUSH1 0x0 DUP2 MLOAD DUP1 DUP5 MSTORE PUSH2 0xC60 DUP2 PUSH1 0x20 DUP7 ADD PUSH1 0x20 DUP7 ADD PUSH2 0xC1C JUMP JUMPDEST PUSH1 0x1F ADD PUSH1 0x1F NOT AND SWAP3 SWAP1 SWAP3 ADD PUSH1 0x20 ADD SWAP3 SWAP2 POP POP JUMP JUMPDEST PUSH1 0x1 PUSH1 0x1 PUSH1 0xA0 SHL SUB DUP4 AND DUP2 MSTORE PUSH1 0x40 PUSH1 0x20 DUP3 ADD DUP2 SWAP1 MSTORE PUSH1 0x0 SWAP1 PUSH2 0x9DE SWAP1 DUP4 ADD DUP5 PUSH2 0xC48 JUMP JUMPDEST PUSH1 0x0 DUP3 DUP3 LT ISZERO PUSH2 0xCB8 JUMPI PUSH4 0x4E487B71 PUSH1 0xE0 SHL PUSH1 0x0 MSTORE PUSH1 0x11 PUSH1 0x4 MSTORE PUSH1 0x24 PUSH1 0x0 REVERT JUMPDEST POP SUB SWAP1 JUMP JUMPDEST PUSH1 0x0 PUSH1 0x20 DUP3 DUP5 SUB SLT ISZERO PUSH2 0xCCF JUMPI PUSH1 0x0 DUP1 REVERT JUMPDEST DUP2 MLOAD DUP1 ISZERO ISZERO DUP2 EQ PUSH2 0x9E1 JUMPI PUSH1 0x0 DUP1 REVERT JUMPDEST PUSH1 0x0 DUP3 MLOAD PUSH2 0xCF1 DUP2 DUP5 PUSH1 0x20 DUP8 ADD PUSH2 0xC1C JUMP JUMPDEST SWAP2 SWAP1 SWAP2 ADD SWAP3 SWAP2 POP POP JUMP JUMPDEST PUSH1 0x20 DUP2 MSTORE PUSH1 0x0 PUSH2 0x9E1 PUSH1 0x20 DUP4 ADD DUP5 PUSH2 0xC48 JUMP INVALID LOG2 PUSH5 0x6970667358 0x22 SLT KECCAK256 0x4E DIFFICULTY PUSH1 0x5B SWAP14 0xD5 BLOCKHASH CODESIZE PUSH17 0xD99908024257F1ACFD58FC67FF4665BE46 SWAP4 0x25 CALLCODE 0x2A 0x49 SLOAD PUSH5 0x736F6C6343 STOP ADDMOD 0xD STOP CALLER ",
  "sha1": "f921bd345a692aa6bd78f4273889a63e44cd5d4a",
  "source": "// SPDX-License-Identifier: MIT\npragma solidity ^0.8.12;\n\nimport \"OpenZeppelin/openzeppelin-contracts@4.7.3/contracts/token/ERC20/IERC20.sol\";\nimport \"OpenZeppelin/openzeppelin-contracts@4.7.3/contracts/token/ERC20/utils/SafeERC20.sol\";\nimport \"OpenZeppelin/openzeppelin-contracts@4.7.3/contracts/access/Ownable.sol\";\nimport \"./LpWhitelist.sol\";\nimport \"../interfaces/IMessenger.sol\";\nimport \"./BeamerUtils.sol\";\nimport \"./Resolver.sol\";\n\n/// The fill manager.\n///\n/// This contract is responsible for keeping track of filled requests. In addition to allowing\n/// agents to (eventually) prove that they filled requests, it also allows anyone to invalidate\n/// a claim that a request was filled.\n///\n/// It is the only contract that agents need to interact with on the target chain.\ncontract FillManager is Ownable, LpWhitelist {\n    using SafeERC20 for IERC20;\n\n    /// Emitted when a request has been filled.\n    ///\n    /// .. seealso:: :sol:func:`fillRequest`\n    event RequestFilled(\n        bytes32 indexed requestId,\n        bytes32 fillId,\n        uint256 indexed sourceChainId,\n        address indexed targetTokenAddress,\n        address filler,\n        uint256 amount\n    );\n\n    /// Emitted when a fill has been invalidated.\n    ///\n    /// .. seealso:: :sol:func:`invalidateFill`\n    event FillInvalidated(bytes32 indexed requestId, bytes32 indexed fillId);\n\n    // The messenger to send messages to L1\n    //\n    // It is used to send proofs to L1. The specific implementation of the\n    // :sol:interface:`IMessenger` interface is chain-dependent.\n    IMessenger public messenger;\n\n    /// The L1 :sol:contract:`Resolver` contract to be used for L1 resolution.\n    address public l1Resolver;\n\n    /// Maps request IDs to fill IDs.\n    mapping(bytes32 => bytes32) public fills;\n\n    /// Constructor.\n    ///\n    /// @param _messenger The messenger.\n    constructor(address _messenger) {\n        messenger = IMessenger(_messenger);\n    }\n\n    /// Set the resolver's address\n    ///\n    /// Can only ever be set once. Before it is set, no fills or invalidations are possible\n    ///\n    /// @param _l1Resolver The L1 resolver address\n    function setResolver(address _l1Resolver) public onlyOwner {\n        require(l1Resolver == address(0), \"Resolver already set\");\n        l1Resolver = _l1Resolver;\n    }\n\n    /// Fill the specified request.\n    ///\n    /// The caller must have approved at least ``amount`` tokens for :sol:contract:`FillManager`\n    /// with the ERC20 token contract at ``targetTokenAddress``. The tokens will be immediately\n    /// sent to ``targetReceiverAddress`` and a fill proof will be generated, which can later\n    /// be used to trigger L1 resolution, if needed.\n    ///\n    /// @param sourceChainId The source chain ID.\n    /// @param targetTokenAddress Address of the token contract on the target chain.\n    /// @param targetReceiverAddress Recipient address on the target chain.\n    /// @param amount Amount of tokens to transfer. Does not include fees.\n    /// @param nonce The nonce used to create the request ID.\n    /// @return The fill ID.\n    function fillRequest(\n        uint256 sourceChainId,\n        address targetTokenAddress,\n        address targetReceiverAddress,\n        uint256 amount,\n        uint256 nonce\n    ) external onlyWhitelist returns (bytes32) {\n        require(l1Resolver != address(0), \"Resolver address not set\");\n        bytes32 requestId = BeamerUtils.createRequestId(\n            sourceChainId,\n            block.chainid,\n            targetTokenAddress,\n            targetReceiverAddress,\n            amount,\n            nonce\n        );\n\n        require(fills[requestId] == bytes32(0), \"Already filled\");\n\n        IERC20 token = IERC20(targetTokenAddress);\n        token.safeTransferFrom(msg.sender, targetReceiverAddress, amount);\n\n        bytes32 fillId = blockhash(block.number - 1);\n\n        messenger.sendMessage(\n            l1Resolver,\n            abi.encodeCall(\n                Resolver.resolve,\n                (requestId, fillId, block.chainid, sourceChainId, msg.sender)\n            )\n        );\n\n        fills[requestId] = fillId;\n\n        emit RequestFilled(\n            requestId,\n            fillId,\n            sourceChainId,\n            targetTokenAddress,\n            msg.sender,\n            amount\n        );\n\n        return fillId;\n    }\n\n    /// Invalidate the specified fill.\n    ///\n    /// In cases that a claim has been made on the source chain, but without a corresponding fill\n    /// actually happening on the target chain, anyone can call this function to mark the fill\n    /// as invalid. This is typically followed by a challenge game on the source chain, which\n    /// the dishonest claimer is guaranteed to lose as soon as the information about the invalid\n    /// fill (so called \"non-fill proof\") is propagated to the source chain via L1 resolution.\n    ///\n    /// @param requestId The request ID.\n    /// @param fillId The fill ID.\n    /// @param sourceChainId The source chain ID.\n    function invalidateFill(\n        bytes32 requestId,\n        bytes32 fillId,\n        uint256 sourceChainId\n    ) external {\n        require(l1Resolver != address(0), \"Resolver address not set\");\n        require(fills[requestId] != fillId, \"Fill valid\");\n        messenger.sendMessage(\n            l1Resolver,\n            abi.encodeCall(\n                Resolver.resolve,\n                (requestId, fillId, block.chainid, sourceChainId, address(0))\n            )\n        );\n        emit FillInvalidated(requestId, fillId);\n    }\n}\n",
  "sourcePath": "contracts/contracts/FillManager.sol",
  "type": "contract"
}