{
  "abi": [
    {
      "inputs": [
        {
          "internalType": "uint256",
          "name": "_claimStake",
          "type": "uint256"
        },
        {
          "internalType": "uint256",
          "name": "_claimPeriod",
          "type": "uint256"
        },
        {
          "internalType": "uint256",
          "name": "_challengePeriod",
          "type": "uint256"
        },
        {
          "internalType": "uint256",
          "name": "_challengePeriodExtension",
          "type": "uint256"
        },
        {
          "internalType": "uint256",
          "name": "_cancellationPeriod",
          "type": "uint256"
        }
      ],
      "stateMutability": "nonpayable",
      "type": "constructor"
    },
    {
      "anonymous": false,
      "inputs": [
        {
          "indexed": false,
          "internalType": "uint256",
          "name": "requestId",
          "type": "uint256"
        },
        {
          "indexed": false,
          "internalType": "uint256",
          "name": "claimId",
          "type": "uint256"
        },
        {
          "indexed": false,
          "internalType": "address",
          "name": "claimer",
          "type": "address"
        },
        {
          "indexed": false,
          "internalType": "uint256",
          "name": "claimerStake",
          "type": "uint256"
        },
        {
          "indexed": false,
          "internalType": "address",
          "name": "challenger",
          "type": "address"
        },
        {
          "indexed": false,
          "internalType": "uint256",
          "name": "challengerStake",
          "type": "uint256"
        },
        {
          "indexed": false,
          "internalType": "uint256",
          "name": "termination",
          "type": "uint256"
        }
      ],
      "name": "ClaimMade",
      "type": "event"
    },
    {
      "anonymous": false,
      "inputs": [
        {
          "indexed": false,
          "internalType": "uint256",
          "name": "claimId",
          "type": "uint256"
        },
        {
          "indexed": false,
          "internalType": "uint256",
          "name": "requestId",
          "type": "uint256"
        },
        {
          "indexed": false,
          "internalType": "address",
          "name": "claimReceiver",
          "type": "address"
        }
      ],
      "name": "ClaimWithdrawn",
      "type": "event"
    },
    {
      "anonymous": false,
      "inputs": [
        {
          "indexed": false,
          "internalType": "uint256",
          "name": "requestId",
          "type": "uint256"
        }
      ],
      "name": "DepositWithdrawn",
      "type": "event"
    },
    {
      "anonymous": false,
      "inputs": [
        {
          "indexed": true,
          "internalType": "address",
          "name": "previousOwner",
          "type": "address"
        },
        {
          "indexed": true,
          "internalType": "address",
          "name": "newOwner",
          "type": "address"
        }
      ],
      "name": "OwnershipTransferred",
      "type": "event"
    },
    {
      "anonymous": false,
      "inputs": [
        {
          "indexed": false,
          "internalType": "uint256",
          "name": "requestId",
          "type": "uint256"
        }
      ],
      "name": "RequestCancelled",
      "type": "event"
    },
    {
      "anonymous": false,
      "inputs": [
        {
          "indexed": false,
          "internalType": "uint256",
          "name": "requestId",
          "type": "uint256"
        },
        {
          "indexed": false,
          "internalType": "uint256",
          "name": "targetChainId",
          "type": "uint256"
        },
        {
          "indexed": false,
          "internalType": "address",
          "name": "sourceTokenAddress",
          "type": "address"
        },
        {
          "indexed": false,
          "internalType": "address",
          "name": "targetTokenAddress",
          "type": "address"
        },
        {
          "indexed": false,
          "internalType": "address",
          "name": "targetAddress",
          "type": "address"
        },
        {
          "indexed": false,
          "internalType": "uint256",
          "name": "amount",
          "type": "uint256"
        }
      ],
      "name": "RequestCreated",
      "type": "event"
    },
    {
      "inputs": [
        {
          "internalType": "uint256",
          "name": "requestId",
          "type": "uint256"
        }
      ],
      "name": "cancelRequest",
      "outputs": [],
      "stateMutability": "nonpayable",
      "type": "function"
    },
    {
      "inputs": [],
      "name": "cancellationPeriod",
      "outputs": [
        {
          "internalType": "uint256",
          "name": "",
          "type": "uint256"
        }
      ],
      "stateMutability": "view",
      "type": "function"
    },
    {
      "inputs": [
        {
          "internalType": "uint256",
          "name": "claimId",
          "type": "uint256"
        }
      ],
      "name": "challengeClaim",
      "outputs": [],
      "stateMutability": "payable",
      "type": "function"
    },
    {
      "inputs": [],
      "name": "challengePeriod",
      "outputs": [
        {
          "internalType": "uint256",
          "name": "",
          "type": "uint256"
        }
      ],
      "stateMutability": "view",
      "type": "function"
    },
    {
      "inputs": [],
      "name": "challengePeriodExtension",
      "outputs": [
        {
          "internalType": "uint256",
          "name": "",
          "type": "uint256"
        }
      ],
      "stateMutability": "view",
      "type": "function"
    },
    {
      "inputs": [],
      "name": "claimCounter",
      "outputs": [
        {
          "internalType": "uint256",
          "name": "",
          "type": "uint256"
        }
      ],
      "stateMutability": "view",
      "type": "function"
    },
    {
      "inputs": [],
      "name": "claimPeriod",
      "outputs": [
        {
          "internalType": "uint256",
          "name": "",
          "type": "uint256"
        }
      ],
      "stateMutability": "view",
      "type": "function"
    },
    {
      "inputs": [
        {
          "internalType": "uint256",
          "name": "requestId",
          "type": "uint256"
        }
      ],
      "name": "claimRequest",
      "outputs": [
        {
          "internalType": "uint256",
          "name": "",
          "type": "uint256"
        }
      ],
      "stateMutability": "payable",
      "type": "function"
    },
    {
      "inputs": [],
      "name": "claimStake",
      "outputs": [
        {
          "internalType": "uint256",
          "name": "",
          "type": "uint256"
        }
      ],
      "stateMutability": "view",
      "type": "function"
    },
    {
      "inputs": [
        {
          "internalType": "uint256",
          "name": "",
          "type": "uint256"
        }
      ],
      "name": "claims",
      "outputs": [
        {
          "internalType": "uint256",
          "name": "requestId",
          "type": "uint256"
        },
        {
          "internalType": "address",
          "name": "claimer",
          "type": "address"
        },
        {
          "internalType": "uint256",
          "name": "claimerStake",
          "type": "uint256"
        },
        {
          "internalType": "address",
          "name": "challenger",
          "type": "address"
        },
        {
          "internalType": "uint256",
          "name": "challengerStake",
          "type": "uint256"
        },
        {
          "internalType": "bool",
          "name": "withdrawn",
          "type": "bool"
        },
        {
          "internalType": "uint256",
          "name": "termination",
          "type": "uint256"
        }
      ],
      "stateMutability": "view",
      "type": "function"
    },
    {
      "inputs": [],
      "name": "collectedRaisyncFees",
      "outputs": [
        {
          "internalType": "uint256",
          "name": "",
          "type": "uint256"
        }
      ],
      "stateMutability": "view",
      "type": "function"
    },
    {
      "inputs": [
        {
          "internalType": "uint256",
          "name": "targetChainId",
          "type": "uint256"
        },
        {
          "internalType": "address",
          "name": "sourceTokenAddress",
          "type": "address"
        },
        {
          "internalType": "address",
          "name": "targetTokenAddress",
          "type": "address"
        },
        {
          "internalType": "address",
          "name": "targetAddress",
          "type": "address"
        },
        {
          "internalType": "uint256",
          "name": "amount",
          "type": "uint256"
        }
      ],
      "name": "createRequest",
      "outputs": [
        {
          "internalType": "uint256",
          "name": "",
          "type": "uint256"
        }
      ],
      "stateMutability": "payable",
      "type": "function"
    },
    {
      "inputs": [],
      "name": "gasPrice",
      "outputs": [
        {
          "internalType": "uint256",
          "name": "",
          "type": "uint256"
        }
      ],
      "stateMutability": "view",
      "type": "function"
    },
    {
      "inputs": [],
      "name": "gasReimbursementFee",
      "outputs": [
        {
          "internalType": "uint256",
          "name": "",
          "type": "uint256"
        }
      ],
      "stateMutability": "view",
      "type": "function"
    },
    {
      "inputs": [],
      "name": "lpServiceFee",
      "outputs": [
        {
          "internalType": "uint256",
          "name": "",
          "type": "uint256"
        }
      ],
      "stateMutability": "view",
      "type": "function"
    },
    {
      "inputs": [],
      "name": "owner",
      "outputs": [
        {
          "internalType": "address",
          "name": "",
          "type": "address"
        }
      ],
      "stateMutability": "view",
      "type": "function"
    },
    {
      "inputs": [],
      "name": "raisyncServiceFee",
      "outputs": [
        {
          "internalType": "uint256",
          "name": "",
          "type": "uint256"
        }
      ],
      "stateMutability": "view",
      "type": "function"
    },
    {
      "inputs": [],
      "name": "renounceOwnership",
      "outputs": [],
      "stateMutability": "nonpayable",
      "type": "function"
    },
    {
      "inputs": [],
      "name": "requestCounter",
      "outputs": [
        {
          "internalType": "uint256",
          "name": "",
          "type": "uint256"
        }
      ],
      "stateMutability": "view",
      "type": "function"
    },
    {
      "inputs": [
        {
          "internalType": "uint256",
          "name": "",
          "type": "uint256"
        }
      ],
      "name": "requests",
      "outputs": [
        {
          "internalType": "address",
          "name": "sender",
          "type": "address"
        },
        {
          "internalType": "address",
          "name": "sourceTokenAddress",
          "type": "address"
        },
        {
          "internalType": "uint256",
          "name": "targetChainId",
          "type": "uint256"
        },
        {
          "internalType": "address",
          "name": "targetTokenAddress",
          "type": "address"
        },
        {
          "internalType": "address",
          "name": "targetAddress",
          "type": "address"
        },
        {
          "internalType": "uint256",
          "name": "amount",
          "type": "uint256"
        },
        {
          "internalType": "bool",
          "name": "depositWithdrawn",
          "type": "bool"
        },
        {
          "internalType": "uint192",
          "name": "activeClaims",
          "type": "uint192"
        },
        {
          "internalType": "uint256",
          "name": "cancellationTermination",
          "type": "uint256"
        },
        {
          "internalType": "uint256",
          "name": "lpFee",
          "type": "uint256"
        },
        {
          "internalType": "uint256",
          "name": "raisyncFee",
          "type": "uint256"
        }
      ],
      "stateMutability": "view",
      "type": "function"
    },
    {
      "inputs": [],
      "name": "totalFee",
      "outputs": [
        {
          "internalType": "uint256",
          "name": "",
          "type": "uint256"
        }
      ],
      "stateMutability": "view",
      "type": "function"
    },
    {
      "inputs": [
        {
          "internalType": "address",
          "name": "newOwner",
          "type": "address"
        }
      ],
      "name": "transferOwnership",
      "outputs": [],
      "stateMutability": "nonpayable",
      "type": "function"
    },
    {
      "inputs": [
        {
          "internalType": "uint256",
          "name": "newGasPrice",
          "type": "uint256"
        },
        {
          "internalType": "uint256",
          "name": "newServiceFeePPM",
          "type": "uint256"
        }
      ],
      "name": "updateFeeData",
      "outputs": [],
      "stateMutability": "nonpayable",
      "type": "function"
    },
    {
      "inputs": [
        {
          "internalType": "uint256",
          "name": "claimId",
          "type": "uint256"
        }
      ],
      "name": "withdraw",
      "outputs": [
        {
          "internalType": "address",
          "name": "",
          "type": "address"
        }
      ],
      "stateMutability": "nonpayable",
      "type": "function"
    },
    {
      "inputs": [
        {
          "internalType": "uint256",
          "name": "requestId",
          "type": "uint256"
        }
      ],
      "name": "withdrawCancelledRequest",
      "outputs": [],
      "stateMutability": "nonpayable",
      "type": "function"
    },
    {
      "inputs": [],
      "name": "withdrawRaisyncFees",
      "outputs": [],
      "stateMutability": "nonpayable",
      "type": "function"
    }
  ],
  "bytecode": "608060405264012a05f200600a5561afc8600b556000600c5534801561002457600080fd5b50604051611bd2380380611bd2833981016040819052610043916100b6565b61004c33610066565b6001949094556002929092556003556004556005556100f6565b600080546001600160a01b038381166001600160a01b0319831681178455604051919092169283917f8be0079c531659141344cd1fd0a4f28419497f9722a3daafe3b4186f6b6457e09190a35050565b600080600080600060a086880312156100ce57600080fd5b5050835160208501516040860151606087015160809097015192989197509594509092509050565b611acd806101056000396000f3fe6080604052600436106101815760003560e01c80638da5cb5b116100d1578063a3d6299d1161008a578063f2fde38b11610064578063f2fde38b14610521578063f3f480d914610541578063fb7ae50e14610557578063fe173b971461056d57600080fd5b8063a3d6299d14610451578063a888c2cd14610464578063eb3211731461050b57600080fd5b80638da5cb5b146103d5578063905eed4f1461024957806392c824d8146103f35780639521978414610406578063973a814e146104265780639832785c1461043c57600080fd5b806354d4f8a01161013e5780637dc2cd98116101185780637dc2cd981461029357806381d12c58146102a957806385840422146103ac5780638ad65716146103bf57600080fd5b806354d4f8a014610249578063715018a61461025e5780637a6a813d1461027357600080fd5b80631a4b8787146101865780631d18adc51461019d5780631df4ccfc146101c65780632e1a7d4d146101db5780633015394c146102135780634efa8f1714610233575b600080fd5b34801561019257600080fd5b5061019b610583565b005b3480156101a957600080fd5b506101b360045481565b6040519081526020015b60405180910390f35b3480156101d257600080fd5b506101b361066f565b3480156101e757600080fd5b506101fb6101f63660046117aa565b6106a2565b6040516001600160a01b0390911681526020016101bd565b34801561021f57600080fd5b5061019b61022e3660046117aa565b61095d565b34801561023f57600080fd5b506101b360075481565b34801561025557600080fd5b506101b3610ab4565b34801561026a57600080fd5b5061019b610ad9565b34801561027f57600080fd5b5061019b61028e3660046117aa565b610b0f565b34801561029f57600080fd5b506101b360025481565b3480156102b557600080fd5b5061033b6102c43660046117aa565b600860208190526000918252604090912080546001820154600283015460038401546004850154600586015460068701546007880154988801546009909801546001600160a01b0397881699968816989597948516969490931694919360ff8216936101009092046001600160c01b03169290918b565b604080516001600160a01b039c8d1681529a8c1660208c01528a0198909852958916606089015297909316608087015260a0860191909152151560c08501526001600160c01b031660e0840152610100830193909352610120820192909252610140810191909152610160016101bd565b6101b36103ba3660046117df565b610ddb565b3480156103cb57600080fd5b506101b3600c5481565b3480156103e157600080fd5b506000546001600160a01b03166101fb565b61019b6104013660046117aa565b611014565b34801561041257600080fd5b5061019b610421366004611834565b6112cf565b34801561043257600080fd5b506101b360065481565b34801561044857600080fd5b506101b3611304565b6101b361045f3660046117aa565b61133f565b34801561047057600080fd5b506104cb61047f3660046117aa565b600960205260009081526040902080546001820154600283015460038401546004850154600586015460069096015494956001600160a01b0394851695939490921692909160ff169087565b604080519788526001600160a01b039687166020890152870194909452939091166060850152608084015290151560a083015260c082015260e0016101bd565b34801561051757600080fd5b506101b360015481565b34801561052d57600080fd5b5061019b61053c366004611856565b611529565b34801561054d57600080fd5b506101b360035481565b34801561056357600080fd5b506101b360055481565b34801561057957600080fd5b506101b3600a5481565b6000546001600160a01b031633146105b65760405162461bcd60e51b81526004016105ad90611871565b60405180910390fd5b6000600c54116105fe5760405162461bcd60e51b81526020600482015260136024820152725a65726f206665657320617661696c61626c6560681b60448201526064016105ad565b600c5460405160009133918381818185875af1925050503d8060008114610641576040519150601f19603f3d011682016040523d82523d6000602084013e610646565b606091505b50509050806106675760405162461bcd60e51b81526004016105ad906118a6565b506000600c55565b6000610679610ab4565b610681610ab4565b610689611304565b61069391906118ea565b61069d91906118ea565b905090565b60008160075481111580156106b75750600081115b6106f75760405162461bcd60e51b815260206004820152601160248201527018db185a5b5259081b9bdd081d985b1a59607a1b60448201526064016105ad565b6000838152600960209081526040808320805484526008909252909120600582015460ff16156107695760405162461bcd60e51b815260206004820152601760248201527f436c61696d20616c72656164792077697468647261776e00000000000000000060448201526064016105ad565b6006810154600383015460ff909116906001600160a01b031615158180610794575083600601544210155b6107e05760405162461bcd60e51b815260206004820152601960248201527f436c61696d20706572696f64206e6f742066696e69736865640000000000000060448201526064016105ad565b6000816107fb575060018401546001600160a01b031661082f565b846004015485600201541161081d5760038501546001600160a01b031661082c565b60018501546001600160a01b03165b90505b60058501805460ff1916600190811790915560068501805482906108639082906001600160c01b0361010090910416611902565b92506101000a8154816001600160c01b0302191690836001600160c01b03160217905550821580156108a4575060018501546001600160a01b038281169116145b156108c45760068401805460ff191660011790556108c4888587846115c4565b6000856004015486600201546108da91906118ea565b90506000826001600160a01b03168260405160006040518083038185875af1925050503d8060008114610929576040519150601f19603f3d011682016040523d82523d6000602084013e61092e565b606091505b505090508061094f5760405162461bcd60e51b81526004016105ad906118a6565b509098975050505050505050565b8060065481111580156109705750600081115b61098c5760405162461bcd60e51b81526004016105ad9061192a565b60008281526008602052604090206007810154156109ec5760405162461bcd60e51b815260206004820152601960248201527f5265717565737420616c72656164792063616e63656c6c65640000000000000060448201526064016105ad565b600681015460ff1615610a115760405162461bcd60e51b81526004016105ad90611957565b80546001600160a01b03163314610a6a5760405162461bcd60e51b815260206004820152601760248201527f53656e646572206973206e6f742072657175657374657200000000000000000060448201526064016105ad565b600554610a7790426118ea565b60078201556040518381527fee243f878b7fc2f54e934ca33783d4395d42bc07612e2bd4b8e0e178639f7a289060200160405180910390a1505050565b6000620f4240600b54610ac5611304565b610acf919061198e565b61069d91906119ad565b6000546001600160a01b03163314610b035760405162461bcd60e51b81526004016105ad90611871565b610b0d6000611741565b565b806006548111158015610b225750600081115b610b3e5760405162461bcd60e51b81526004016105ad9061192a565b6000828152600860205260409020600681015460ff1615610b715760405162461bcd60e51b81526004016105ad90611957565b6000816007015411610bbd5760405162461bcd60e51b815260206004820152601560248201527414995c5d595cdd081b9bdd0818d85b98d95b1b1959605a1b60448201526064016105ad565b8060070154421015610c115760405162461bcd60e51b815260206004820181905260248201527f43616e63656c6c6174696f6e20706572696f64206e6f74206f7665722079657460448201526064016105ad565b600681015461010090046001600160c01b031615610c695760405162461bcd60e51b815260206004820152601560248201527441637469766520636c61696d732072756e6e696e6760581b60448201526064016105ad565b60068101805460ff191660011790556040517f0788d719d36264cd922e6e2bb8f52f65b13571d1ea3ddaf8d27b1acfdd18c3d090610caa9085815260200190565b60405180910390a160018101548154600583015460405163a9059cbb60e01b81526001600160a01b0392831660048201526024810191909152911690819063a9059cbb906044016020604051808303816000875af1158015610d10573d6000803e3d6000fd5b505050506040513d601f19601f82011682018060405250810190610d3491906119cf565b610d505760405162461bcd60e51b81526004016105ad906119f1565b8154600983015460088401546000926001600160a01b031691610d72916118ea565b604051600081818185875af1925050503d8060008114610dae576040519150601f19603f3d011682016040523d82523d6000602084013e610db3565b606091505b5050905080610dd45760405162461bcd60e51b81526004016105ad906118a6565b5050505050565b600080610de6610ab4565b610dee611304565b610df891906118ea565b90506000610e04610ab4565b905034610e1182846118ea565b14610e5e5760405162461bcd60e51b815260206004820152601960248201527f57726f6e6720616d6f756e74206f6620666565732073656e740000000000000060448201526064016105ad565b600160066000828254610e7191906118ea565b90915550506006805460009081526008602081905260409182902080546001600160a01b0319908116331782556001820180546001600160a01b038e811691841691909117909155600283018e90556003830180548d8316908416179055600483018054918c169190921617905560058101889055808401805460ff1916905590810185905560098101849055915490517f79aa30e31996d325799b6f0fbfe55e365b572a6cd82924d616b560d3d9e57b3391610f66918c908c908c908c908c9095865260208601949094526001600160a01b039283166040860152908216606085015216608083015260a082015260c00190565b60405180910390a16040516323b872dd60e01b81523360048201523060248201526044810186905288906001600160a01b038216906323b872dd906064016020604051808303816000875af1158015610fc3573d6000803e3d6000fd5b505050506040513d601f19601f82011682018060405250810190610fe791906119cf565b6110035760405162461bcd60e51b81526004016105ad906119f1565b505060065498975050505050505050565b8060075481111580156110275750600081115b6110675760405162461bcd60e51b815260206004820152601160248201527018db185a5b5259081b9bdd081d985b1a59607a1b60448201526064016105ad565b6000828152600960205260409020600681015442106110b85760405162461bcd60e51b815260206004820152600d60248201526c10db185a5b48195e1c1a5c9959609a1b60448201526064016105ad565b600080600083600401548460020154111561112c5760038401546001600160a01b03166110fb5750600380840180546001600160a01b0319163317905554611100565b506004545b6003840154600485015460028601546001600160a01b03909216945061112591611a1a565b9150611154565b6001840154600285015460048601546001600160a01b03909216945061115191611a1a565b91505b336001600160a01b038416146111a55760405162461bcd60e51b8152602060048201526016602482015275139bdd08195b1a59da589b19481d1bc81bdd5d189a5960521b60448201526064016105ad565b8134116111f45760405162461bcd60e51b815260206004820152601960248201527f4e6f7420656e6f7567682066756e64732070726f76696465640000000000000060448201526064016105ad565b60018401546001600160a01b038481169116141561122b573484600201600082825461122091906118ea565b909155506112459050565b3484600401600082825461123f91906118ea565b90915550505b600684015461125d9061125883426118ea565b611791565b60068501819055845460018601546002870154600388015460048901546040517f0f187f80934201aaf3a7b5c29d41665c2220178257ec5b79ed6f1226d5136804966112bf96958e956001600160a01b03918216959094911692909190611a31565b60405180910390a1505050505050565b6000546001600160a01b031633146112f95760405162461bcd60e51b81526004016105ad90611871565b600a91909155600b55565b600a54600090620106219062025c0a9061fa51908161132384866118ea565b61132d91906118ea565b611337919061198e565b935050505090565b60008160065481111580156113545750600081115b6113705760405162461bcd60e51b81526004016105ad9061192a565b6000838152600860205260409020600681015460ff16156113a35760405162461bcd60e51b81526004016105ad90611957565b60015434146113eb5760405162461bcd60e51b8152602060048201526014602482015273125b9d985b1a59081cdd185ad948185b5bdd5b9d60621b60448201526064016105ad565b60018160060160018282829054906101000a90046001600160c01b03166114129190611a6c565b92506101000a8154816001600160c01b0302191690836001600160c01b0316021790555060016007600082825461144991906118ea565b90915550506007546000908152600960205260408120858155600180820180546001600160a01b031990811633179091559054600280840191909155600383018054909216909155600482019290925560058101805460ff1916905590546114b190426118ea565b6006820181905560075460018301546002840154600385015460048601546040517f0f187f80934201aaf3a7b5c29d41665c2220178257ec5b79ed6f1226d513680496611515968d9690956001600160a01b03918216959094911692909190611a31565b60405180910390a150506007549392505050565b6000546001600160a01b031633146115535760405162461bcd60e51b81526004016105ad90611871565b6001600160a01b0381166115b85760405162461bcd60e51b815260206004820152602660248201527f4f776e61626c653a206e6577206f776e657220697320746865207a65726f206160448201526564647265737360d01b60648201526084016105ad565b6115c181611741565b50565b8260090154600c60008282546115da91906118ea565b909155505081546040805186815260208101929092526001600160a01b03831682820152517fc494c0d9b07fae9d937a92117991d3017ad9408a7d344caa86c184c47f7bd1839181900360600190a16001830154600584015460405163a9059cbb60e01b81526001600160a01b0384811660048301526024820192909252911690819063a9059cbb906044016020604051808303816000875af1158015611685573d6000803e3d6000fd5b505050506040513d601f19601f820116820180604052508101906116a991906119cf565b6116c55760405162461bcd60e51b81526004016105ad906119f1565b60088401546040516000916001600160a01b038516918381818185875af1925050503d8060008114611713576040519150601f19603f3d011682016040523d82523d6000602084013e611718565b606091505b50509050806117395760405162461bcd60e51b81526004016105ad906118a6565b505050505050565b600080546001600160a01b038381166001600160a01b0319831681178455604051919092169283917f8be0079c531659141344cd1fd0a4f28419497f9722a3daafe3b4186f6b6457e09190a35050565b6000818310156117a157816117a3565b825b9392505050565b6000602082840312156117bc57600080fd5b5035919050565b80356001600160a01b03811681146117da57600080fd5b919050565b600080600080600060a086880312156117f757600080fd5b85359450611807602087016117c3565b9350611815604087016117c3565b9250611823606087016117c3565b949793965091946080013592915050565b6000806040838503121561184757600080fd5b50508035926020909101359150565b60006020828403121561186857600080fd5b6117a3826117c3565b6020808252818101527f4f776e61626c653a2063616c6c6572206973206e6f7420746865206f776e6572604082015260600190565b6020808252601490820152732330b4b632b2103a379039b2b7321022ba3432b960611b604082015260600190565b634e487b7160e01b600052601160045260246000fd5b600082198211156118fd576118fd6118d4565b500190565b60006001600160c01b0383811690831681811015611922576119226118d4565b039392505050565b6020808252601390820152721c995c5d595cdd1259081b9bdd081d985b1a59606a1b604082015260600190565b60208082526019908201527f4465706f73697420616c72656164792077697468647261776e00000000000000604082015260600190565b60008160001904831182151516156119a8576119a86118d4565b500290565b6000826119ca57634e487b7160e01b600052601260045260246000fd5b500490565b6000602082840312156119e157600080fd5b815180151581146117a357600080fd5b6020808252600f908201526e151c985b9cd9995c8819985a5b1959608a1b604082015260600190565b600082821015611a2c57611a2c6118d4565b500390565b96875260208701959095526001600160a01b0393841660408701526060860192909252909116608084015260a083015260c082015260e00190565b60006001600160c01b03828116848216808303821115611a8e57611a8e6118d4565b0194935050505056fea2646970667358221220b1a562260284e7f03df4301788b9d0d331a73802ceeb5d42c24c1076609e762264736f6c634300080b0033",
  "bytecodeSha1": "b89ca2f2284c65f20bd2d1f77c3077ce5ca8927c",
  "compiler": {
    "evm_version": "london",
    "optimizer": {
      "enabled": true,
      "runs": 200
    },
    "version": "0.8.11+commit.d7f03943"
  },
  "contractName": "RequestManager",
  "language": "Solidity",
  "natspec": {
    "kind": "dev",
    "methods": {
      "owner()": {
        "details": "Returns the address of the current owner."
      },
      "renounceOwnership()": {
        "details": "Leaves the contract without owner. It will not be possible to call `onlyOwner` functions anymore. Can only be called by the current owner. NOTE: Renouncing ownership will leave the contract without an owner, thereby removing any functionality that is only available to the owner."
      },
      "transferOwnership(address)": {
        "details": "Transfers ownership of the contract to a new account (`newOwner`). Can only be called by the current owner."
      }
    },
    "version": 1
  },
  "opcodes": "PUSH1 0x80 PUSH1 0x40 MSTORE PUSH1 0x4 CALLDATASIZE LT PUSH2 0x181 JUMPI PUSH1 0x0 CALLDATALOAD PUSH1 0xE0 SHR DUP1 PUSH4 0x8DA5CB5B GT PUSH2 0xD1 JUMPI DUP1 PUSH4 0xA3D6299D GT PUSH2 0x8A JUMPI DUP1 PUSH4 0xF2FDE38B GT PUSH2 0x64 JUMPI DUP1 PUSH4 0xF2FDE38B EQ PUSH2 0x521 JUMPI DUP1 PUSH4 0xF3F480D9 EQ PUSH2 0x541 JUMPI DUP1 PUSH4 0xFB7AE50E EQ PUSH2 0x557 JUMPI DUP1 PUSH4 0xFE173B97 EQ PUSH2 0x56D JUMPI PUSH1 0x0 DUP1 REVERT JUMPDEST DUP1 PUSH4 0xA3D6299D EQ PUSH2 0x451 JUMPI DUP1 PUSH4 0xA888C2CD EQ PUSH2 0x464 JUMPI DUP1 PUSH4 0xEB321173 EQ PUSH2 0x50B JUMPI PUSH1 0x0 DUP1 REVERT JUMPDEST DUP1 PUSH4 0x8DA5CB5B EQ PUSH2 0x3D5 JUMPI DUP1 PUSH4 0x905EED4F EQ PUSH2 0x249 JUMPI DUP1 PUSH4 0x92C824D8 EQ PUSH2 0x3F3 JUMPI DUP1 PUSH4 0x95219784 EQ PUSH2 0x406 JUMPI DUP1 PUSH4 0x973A814E EQ PUSH2 0x426 JUMPI DUP1 PUSH4 0x9832785C EQ PUSH2 0x43C JUMPI PUSH1 0x0 DUP1 REVERT JUMPDEST DUP1 PUSH4 0x54D4F8A0 GT PUSH2 0x13E JUMPI DUP1 PUSH4 0x7DC2CD98 GT PUSH2 0x118 JUMPI DUP1 PUSH4 0x7DC2CD98 EQ PUSH2 0x293 JUMPI DUP1 PUSH4 0x81D12C58 EQ PUSH2 0x2A9 JUMPI DUP1 PUSH4 0x85840422 EQ PUSH2 0x3AC JUMPI DUP1 PUSH4 0x8AD65716 EQ PUSH2 0x3BF JUMPI PUSH1 0x0 DUP1 REVERT JUMPDEST DUP1 PUSH4 0x54D4F8A0 EQ PUSH2 0x249 JUMPI DUP1 PUSH4 0x715018A6 EQ PUSH2 0x25E JUMPI DUP1 PUSH4 0x7A6A813D EQ PUSH2 0x273 JUMPI PUSH1 0x0 DUP1 REVERT JUMPDEST DUP1 PUSH4 0x1A4B8787 EQ PUSH2 0x186 JUMPI DUP1 PUSH4 0x1D18ADC5 EQ PUSH2 0x19D JUMPI DUP1 PUSH4 0x1DF4CCFC EQ PUSH2 0x1C6 JUMPI DUP1 PUSH4 0x2E1A7D4D EQ PUSH2 0x1DB JUMPI DUP1 PUSH4 0x3015394C EQ PUSH2 0x213 JUMPI DUP1 PUSH4 0x4EFA8F17 EQ PUSH2 0x233 JUMPI JUMPDEST PUSH1 0x0 DUP1 REVERT JUMPDEST CALLVALUE DUP1 ISZERO PUSH2 0x192 JUMPI PUSH1 0x0 DUP1 REVERT JUMPDEST POP PUSH2 0x19B PUSH2 0x583 JUMP JUMPDEST STOP JUMPDEST CALLVALUE DUP1 ISZERO PUSH2 0x1A9 JUMPI PUSH1 0x0 DUP1 REVERT JUMPDEST POP PUSH2 0x1B3 PUSH1 0x4 SLOAD DUP2 JUMP JUMPDEST PUSH1 0x40 MLOAD SWAP1 DUP2 MSTORE PUSH1 0x20 ADD JUMPDEST PUSH1 0x40 MLOAD DUP1 SWAP2 SUB SWAP1 RETURN JUMPDEST CALLVALUE DUP1 ISZERO PUSH2 0x1D2 JUMPI PUSH1 0x0 DUP1 REVERT JUMPDEST POP PUSH2 0x1B3 PUSH2 0x66F JUMP JUMPDEST CALLVALUE DUP1 ISZERO PUSH2 0x1E7 JUMPI PUSH1 0x0 DUP1 REVERT JUMPDEST POP PUSH2 0x1FB PUSH2 0x1F6 CALLDATASIZE PUSH1 0x4 PUSH2 0x17AA JUMP JUMPDEST PUSH2 0x6A2 JUMP JUMPDEST PUSH1 0x40 MLOAD PUSH1 0x1 PUSH1 0x1 PUSH1 0xA0 SHL SUB SWAP1 SWAP2 AND DUP2 MSTORE PUSH1 0x20 ADD PUSH2 0x1BD JUMP JUMPDEST CALLVALUE DUP1 ISZERO PUSH2 0x21F JUMPI PUSH1 0x0 DUP1 REVERT JUMPDEST POP PUSH2 0x19B PUSH2 0x22E CALLDATASIZE PUSH1 0x4 PUSH2 0x17AA JUMP JUMPDEST PUSH2 0x95D JUMP JUMPDEST CALLVALUE DUP1 ISZERO PUSH2 0x23F JUMPI PUSH1 0x0 DUP1 REVERT JUMPDEST POP PUSH2 0x1B3 PUSH1 0x7 SLOAD DUP2 JUMP JUMPDEST CALLVALUE DUP1 ISZERO PUSH2 0x255 JUMPI PUSH1 0x0 DUP1 REVERT JUMPDEST POP PUSH2 0x1B3 PUSH2 0xAB4 JUMP JUMPDEST CALLVALUE DUP1 ISZERO PUSH2 0x26A JUMPI PUSH1 0x0 DUP1 REVERT JUMPDEST POP PUSH2 0x19B PUSH2 0xAD9 JUMP JUMPDEST CALLVALUE DUP1 ISZERO PUSH2 0x27F JUMPI PUSH1 0x0 DUP1 REVERT JUMPDEST POP PUSH2 0x19B PUSH2 0x28E CALLDATASIZE PUSH1 0x4 PUSH2 0x17AA JUMP JUMPDEST PUSH2 0xB0F JUMP JUMPDEST CALLVALUE DUP1 ISZERO PUSH2 0x29F JUMPI PUSH1 0x0 DUP1 REVERT JUMPDEST POP PUSH2 0x1B3 PUSH1 0x2 SLOAD DUP2 JUMP JUMPDEST CALLVALUE DUP1 ISZERO PUSH2 0x2B5 JUMPI PUSH1 0x0 DUP1 REVERT JUMPDEST POP PUSH2 0x33B PUSH2 0x2C4 CALLDATASIZE PUSH1 0x4 PUSH2 0x17AA JUMP JUMPDEST PUSH1 0x8 PUSH1 0x20 DUP2 SWAP1 MSTORE PUSH1 0x0 SWAP2 DUP3 MSTORE PUSH1 0x40 SWAP1 SWAP2 KECCAK256 DUP1 SLOAD PUSH1 0x1 DUP3 ADD SLOAD PUSH1 0x2 DUP4 ADD SLOAD PUSH1 0x3 DUP5 ADD SLOAD PUSH1 0x4 DUP6 ADD SLOAD PUSH1 0x5 DUP7 ADD SLOAD PUSH1 0x6 DUP8 ADD SLOAD PUSH1 0x7 DUP9 ADD SLOAD SWAP9 DUP9 ADD SLOAD PUSH1 0x9 SWAP1 SWAP9 ADD SLOAD PUSH1 0x1 PUSH1 0x1 PUSH1 0xA0 SHL SUB SWAP8 DUP9 AND SWAP10 SWAP7 DUP9 AND SWAP9 SWAP6 SWAP8 SWAP5 DUP6 AND SWAP7 SWAP5 SWAP1 SWAP4 AND SWAP5 SWAP2 SWAP4 PUSH1 0xFF DUP3 AND SWAP4 PUSH2 0x100 SWAP1 SWAP3 DIV PUSH1 0x1 PUSH1 0x1 PUSH1 0xC0 SHL SUB AND SWAP3 SWAP1 SWAP2 DUP12 JUMP JUMPDEST PUSH1 0x40 DUP1 MLOAD PUSH1 0x1 PUSH1 0x1 PUSH1 0xA0 SHL SUB SWAP13 DUP14 AND DUP2 MSTORE SWAP11 DUP13 AND PUSH1 0x20 DUP13 ADD MSTORE DUP11 ADD SWAP9 SWAP1 SWAP9 MSTORE SWAP6 DUP10 AND PUSH1 0x60 DUP10 ADD MSTORE SWAP8 SWAP1 SWAP4 AND PUSH1 0x80 DUP8 ADD MSTORE PUSH1 0xA0 DUP7 ADD SWAP2 SWAP1 SWAP2 MSTORE ISZERO ISZERO PUSH1 0xC0 DUP6 ADD MSTORE PUSH1 0x1 PUSH1 0x1 PUSH1 0xC0 SHL SUB AND PUSH1 0xE0 DUP5 ADD MSTORE PUSH2 0x100 DUP4 ADD SWAP4 SWAP1 SWAP4 MSTORE PUSH2 0x120 DUP3 ADD SWAP3 SWAP1 SWAP3 MSTORE PUSH2 0x140 DUP2 ADD SWAP2 SWAP1 SWAP2 MSTORE PUSH2 0x160 ADD PUSH2 0x1BD JUMP JUMPDEST PUSH2 0x1B3 PUSH2 0x3BA CALLDATASIZE PUSH1 0x4 PUSH2 0x17DF JUMP JUMPDEST PUSH2 0xDDB JUMP JUMPDEST CALLVALUE DUP1 ISZERO PUSH2 0x3CB JUMPI PUSH1 0x0 DUP1 REVERT JUMPDEST POP PUSH2 0x1B3 PUSH1 0xC SLOAD DUP2 JUMP JUMPDEST CALLVALUE DUP1 ISZERO PUSH2 0x3E1 JUMPI PUSH1 0x0 DUP1 REVERT JUMPDEST POP PUSH1 0x0 SLOAD PUSH1 0x1 PUSH1 0x1 PUSH1 0xA0 SHL SUB AND PUSH2 0x1FB JUMP JUMPDEST PUSH2 0x19B PUSH2 0x401 CALLDATASIZE PUSH1 0x4 PUSH2 0x17AA JUMP JUMPDEST PUSH2 0x1014 JUMP JUMPDEST CALLVALUE DUP1 ISZERO PUSH2 0x412 JUMPI PUSH1 0x0 DUP1 REVERT JUMPDEST POP PUSH2 0x19B PUSH2 0x421 CALLDATASIZE PUSH1 0x4 PUSH2 0x1834 JUMP JUMPDEST PUSH2 0x12CF JUMP JUMPDEST CALLVALUE DUP1 ISZERO PUSH2 0x432 JUMPI PUSH1 0x0 DUP1 REVERT JUMPDEST POP PUSH2 0x1B3 PUSH1 0x6 SLOAD DUP2 JUMP JUMPDEST CALLVALUE DUP1 ISZERO PUSH2 0x448 JUMPI PUSH1 0x0 DUP1 REVERT JUMPDEST POP PUSH2 0x1B3 PUSH2 0x1304 JUMP JUMPDEST PUSH2 0x1B3 PUSH2 0x45F CALLDATASIZE PUSH1 0x4 PUSH2 0x17AA JUMP JUMPDEST PUSH2 0x133F JUMP JUMPDEST CALLVALUE DUP1 ISZERO PUSH2 0x470 JUMPI PUSH1 0x0 DUP1 REVERT JUMPDEST POP PUSH2 0x4CB PUSH2 0x47F CALLDATASIZE PUSH1 0x4 PUSH2 0x17AA JUMP JUMPDEST PUSH1 0x9 PUSH1 0x20 MSTORE PUSH1 0x0 SWAP1 DUP2 MSTORE PUSH1 0x40 SWAP1 KECCAK256 DUP1 SLOAD PUSH1 0x1 DUP3 ADD SLOAD PUSH1 0x2 DUP4 ADD SLOAD PUSH1 0x3 DUP5 ADD SLOAD PUSH1 0x4 DUP6 ADD SLOAD PUSH1 0x5 DUP7 ADD SLOAD PUSH1 0x6 SWAP1 SWAP7 ADD SLOAD SWAP5 SWAP6 PUSH1 0x1 PUSH1 0x1 PUSH1 0xA0 SHL SUB SWAP5 DUP6 AND SWAP6 SWAP4 SWAP5 SWAP1 SWAP3 AND SWAP3 SWAP1 SWAP2 PUSH1 0xFF AND SWAP1 DUP8 JUMP JUMPDEST PUSH1 0x40 DUP1 MLOAD SWAP8 DUP9 MSTORE PUSH1 0x1 PUSH1 0x1 PUSH1 0xA0 SHL SUB SWAP7 DUP8 AND PUSH1 0x20 DUP10 ADD MSTORE DUP8 ADD SWAP5 SWAP1 SWAP5 MSTORE SWAP4 SWAP1 SWAP2 AND PUSH1 0x60 DUP6 ADD MSTORE PUSH1 0x80 DUP5 ADD MSTORE SWAP1 ISZERO ISZERO PUSH1 0xA0 DUP4 ADD MSTORE PUSH1 0xC0 DUP3 ADD MSTORE PUSH1 0xE0 ADD PUSH2 0x1BD JUMP JUMPDEST CALLVALUE DUP1 ISZERO PUSH2 0x517 JUMPI PUSH1 0x0 DUP1 REVERT JUMPDEST POP PUSH2 0x1B3 PUSH1 0x1 SLOAD DUP2 JUMP JUMPDEST CALLVALUE DUP1 ISZERO PUSH2 0x52D JUMPI PUSH1 0x0 DUP1 REVERT JUMPDEST POP PUSH2 0x19B PUSH2 0x53C CALLDATASIZE PUSH1 0x4 PUSH2 0x1856 JUMP JUMPDEST PUSH2 0x1529 JUMP JUMPDEST CALLVALUE DUP1 ISZERO PUSH2 0x54D JUMPI PUSH1 0x0 DUP1 REVERT JUMPDEST POP PUSH2 0x1B3 PUSH1 0x3 SLOAD DUP2 JUMP JUMPDEST CALLVALUE DUP1 ISZERO PUSH2 0x563 JUMPI PUSH1 0x0 DUP1 REVERT JUMPDEST POP PUSH2 0x1B3 PUSH1 0x5 SLOAD DUP2 JUMP JUMPDEST CALLVALUE DUP1 ISZERO PUSH2 0x579 JUMPI PUSH1 0x0 DUP1 REVERT JUMPDEST POP PUSH2 0x1B3 PUSH1 0xA SLOAD DUP2 JUMP JUMPDEST PUSH1 0x0 SLOAD PUSH1 0x1 PUSH1 0x1 PUSH1 0xA0 SHL SUB AND CALLER EQ PUSH2 0x5B6 JUMPI PUSH1 0x40 MLOAD PUSH3 0x461BCD PUSH1 0xE5 SHL DUP2 MSTORE PUSH1 0x4 ADD PUSH2 0x5AD SWAP1 PUSH2 0x1871 JUMP JUMPDEST PUSH1 0x40 MLOAD DUP1 SWAP2 SUB SWAP1 REVERT JUMPDEST PUSH1 0x0 PUSH1 0xC SLOAD GT PUSH2 0x5FE JUMPI PUSH1 0x40 MLOAD PUSH3 0x461BCD PUSH1 0xE5 SHL DUP2 MSTORE PUSH1 0x20 PUSH1 0x4 DUP3 ADD MSTORE PUSH1 0x13 PUSH1 0x24 DUP3 ADD MSTORE PUSH19 0x5A65726F206665657320617661696C61626C65 PUSH1 0x68 SHL PUSH1 0x44 DUP3 ADD MSTORE PUSH1 0x64 ADD PUSH2 0x5AD JUMP JUMPDEST PUSH1 0xC SLOAD PUSH1 0x40 MLOAD PUSH1 0x0 SWAP2 CALLER SWAP2 DUP4 DUP2 DUP2 DUP2 DUP6 DUP8 GAS CALL SWAP3 POP POP POP RETURNDATASIZE DUP1 PUSH1 0x0 DUP2 EQ PUSH2 0x641 JUMPI PUSH1 0x40 MLOAD SWAP2 POP PUSH1 0x1F NOT PUSH1 0x3F RETURNDATASIZE ADD AND DUP3 ADD PUSH1 0x40 MSTORE RETURNDATASIZE DUP3 MSTORE RETURNDATASIZE PUSH1 0x0 PUSH1 0x20 DUP5 ADD RETURNDATACOPY PUSH2 0x646 JUMP JUMPDEST PUSH1 0x60 SWAP2 POP JUMPDEST POP POP SWAP1 POP DUP1 PUSH2 0x667 JUMPI PUSH1 0x40 MLOAD PUSH3 0x461BCD PUSH1 0xE5 SHL DUP2 MSTORE PUSH1 0x4 ADD PUSH2 0x5AD SWAP1 PUSH2 0x18A6 JUMP JUMPDEST POP PUSH1 0x0 PUSH1 0xC SSTORE JUMP JUMPDEST PUSH1 0x0 PUSH2 0x679 PUSH2 0xAB4 JUMP JUMPDEST PUSH2 0x681 PUSH2 0xAB4 JUMP JUMPDEST PUSH2 0x689 PUSH2 0x1304 JUMP JUMPDEST PUSH2 0x693 SWAP2 SWAP1 PUSH2 0x18EA JUMP JUMPDEST PUSH2 0x69D SWAP2 SWAP1 PUSH2 0x18EA JUMP JUMPDEST SWAP1 POP SWAP1 JUMP JUMPDEST PUSH1 0x0 DUP2 PUSH1 0x7 SLOAD DUP2 GT ISZERO DUP1 ISZERO PUSH2 0x6B7 JUMPI POP PUSH1 0x0 DUP2 GT JUMPDEST PUSH2 0x6F7 JUMPI PUSH1 0x40 MLOAD PUSH3 0x461BCD PUSH1 0xE5 SHL DUP2 MSTORE PUSH1 0x20 PUSH1 0x4 DUP3 ADD MSTORE PUSH1 0x11 PUSH1 0x24 DUP3 ADD MSTORE PUSH17 0x18DB185A5B5259081B9BDD081D985B1A59 PUSH1 0x7A SHL PUSH1 0x44 DUP3 ADD MSTORE PUSH1 0x64 ADD PUSH2 0x5AD JUMP JUMPDEST PUSH1 0x0 DUP4 DUP2 MSTORE PUSH1 0x9 PUSH1 0x20 SWAP1 DUP2 MSTORE PUSH1 0x40 DUP1 DUP4 KECCAK256 DUP1 SLOAD DUP5 MSTORE PUSH1 0x8 SWAP1 SWAP3 MSTORE SWAP1 SWAP2 KECCAK256 PUSH1 0x5 DUP3 ADD SLOAD PUSH1 0xFF AND ISZERO PUSH2 0x769 JUMPI PUSH1 0x40 MLOAD PUSH3 0x461BCD PUSH1 0xE5 SHL DUP2 MSTORE PUSH1 0x20 PUSH1 0x4 DUP3 ADD MSTORE PUSH1 0x17 PUSH1 0x24 DUP3 ADD MSTORE PUSH32 0x436C61696D20616C72656164792077697468647261776E000000000000000000 PUSH1 0x44 DUP3 ADD MSTORE PUSH1 0x64 ADD PUSH2 0x5AD JUMP JUMPDEST PUSH1 0x6 DUP2 ADD SLOAD PUSH1 0x3 DUP4 ADD SLOAD PUSH1 0xFF SWAP1 SWAP2 AND SWAP1 PUSH1 0x1 PUSH1 0x1 PUSH1 0xA0 SHL SUB AND ISZERO ISZERO DUP2 DUP1 PUSH2 0x794 JUMPI POP DUP4 PUSH1 0x6 ADD SLOAD TIMESTAMP LT ISZERO JUMPDEST PUSH2 0x7E0 JUMPI PUSH1 0x40 MLOAD PUSH3 0x461BCD PUSH1 0xE5 SHL DUP2 MSTORE PUSH1 0x20 PUSH1 0x4 DUP3 ADD MSTORE PUSH1 0x19 PUSH1 0x24 DUP3 ADD MSTORE PUSH32 0x436C61696D20706572696F64206E6F742066696E697368656400000000000000 PUSH1 0x44 DUP3 ADD MSTORE PUSH1 0x64 ADD PUSH2 0x5AD JUMP JUMPDEST PUSH1 0x0 DUP2 PUSH2 0x7FB JUMPI POP PUSH1 0x1 DUP5 ADD SLOAD PUSH1 0x1 PUSH1 0x1 PUSH1 0xA0 SHL SUB AND PUSH2 0x82F JUMP JUMPDEST DUP5 PUSH1 0x4 ADD SLOAD DUP6 PUSH1 0x2 ADD SLOAD GT PUSH2 0x81D JUMPI PUSH1 0x3 DUP6 ADD SLOAD PUSH1 0x1 PUSH1 0x1 PUSH1 0xA0 SHL SUB AND PUSH2 0x82C JUMP JUMPDEST PUSH1 0x1 DUP6 ADD SLOAD PUSH1 0x1 PUSH1 0x1 PUSH1 0xA0 SHL SUB AND JUMPDEST SWAP1 POP JUMPDEST PUSH1 0x5 DUP6 ADD DUP1 SLOAD PUSH1 0xFF NOT AND PUSH1 0x1 SWAP1 DUP2 OR SWAP1 SWAP2 SSTORE PUSH1 0x6 DUP6 ADD DUP1 SLOAD DUP3 SWAP1 PUSH2 0x863 SWAP1 DUP3 SWAP1 PUSH1 0x1 PUSH1 0x1 PUSH1 0xC0 SHL SUB PUSH2 0x100 SWAP1 SWAP2 DIV AND PUSH2 0x1902 JUMP JUMPDEST SWAP3 POP PUSH2 0x100 EXP DUP2 SLOAD DUP2 PUSH1 0x1 PUSH1 0x1 PUSH1 0xC0 SHL SUB MUL NOT AND SWAP1 DUP4 PUSH1 0x1 PUSH1 0x1 PUSH1 0xC0 SHL SUB AND MUL OR SWAP1 SSTORE POP DUP3 ISZERO DUP1 ISZERO PUSH2 0x8A4 JUMPI POP PUSH1 0x1 DUP6 ADD SLOAD PUSH1 0x1 PUSH1 0x1 PUSH1 0xA0 SHL SUB DUP3 DUP2 AND SWAP2 AND EQ JUMPDEST ISZERO PUSH2 0x8C4 JUMPI PUSH1 0x6 DUP5 ADD DUP1 SLOAD PUSH1 0xFF NOT AND PUSH1 0x1 OR SWAP1 SSTORE PUSH2 0x8C4 DUP9 DUP6 DUP8 DUP5 PUSH2 0x15C4 JUMP JUMPDEST PUSH1 0x0 DUP6 PUSH1 0x4 ADD SLOAD DUP7 PUSH1 0x2 ADD SLOAD PUSH2 0x8DA SWAP2 SWAP1 PUSH2 0x18EA JUMP JUMPDEST SWAP1 POP PUSH1 0x0 DUP3 PUSH1 0x1 PUSH1 0x1 PUSH1 0xA0 SHL SUB AND DUP3 PUSH1 0x40 MLOAD PUSH1 0x0 PUSH1 0x40 MLOAD DUP1 DUP4 SUB DUP2 DUP6 DUP8 GAS CALL SWAP3 POP POP POP RETURNDATASIZE DUP1 PUSH1 0x0 DUP2 EQ PUSH2 0x929 JUMPI PUSH1 0x40 MLOAD SWAP2 POP PUSH1 0x1F NOT PUSH1 0x3F RETURNDATASIZE ADD AND DUP3 ADD PUSH1 0x40 MSTORE RETURNDATASIZE DUP3 MSTORE RETURNDATASIZE PUSH1 0x0 PUSH1 0x20 DUP5 ADD RETURNDATACOPY PUSH2 0x92E JUMP JUMPDEST PUSH1 0x60 SWAP2 POP JUMPDEST POP POP SWAP1 POP DUP1 PUSH2 0x94F JUMPI PUSH1 0x40 MLOAD PUSH3 0x461BCD PUSH1 0xE5 SHL DUP2 MSTORE PUSH1 0x4 ADD PUSH2 0x5AD SWAP1 PUSH2 0x18A6 JUMP JUMPDEST POP SWAP1 SWAP9 SWAP8 POP POP POP POP POP POP POP POP JUMP JUMPDEST DUP1 PUSH1 0x6 SLOAD DUP2 GT ISZERO DUP1 ISZERO PUSH2 0x970 JUMPI POP PUSH1 0x0 DUP2 GT JUMPDEST PUSH2 0x98C JUMPI PUSH1 0x40 MLOAD PUSH3 0x461BCD PUSH1 0xE5 SHL DUP2 MSTORE PUSH1 0x4 ADD PUSH2 0x5AD SWAP1 PUSH2 0x192A JUMP JUMPDEST PUSH1 0x0 DUP3 DUP2 MSTORE PUSH1 0x8 PUSH1 0x20 MSTORE PUSH1 0x40 SWAP1 KECCAK256 PUSH1 0x7 DUP2 ADD SLOAD ISZERO PUSH2 0x9EC JUMPI PUSH1 0x40 MLOAD PUSH3 0x461BCD PUSH1 0xE5 SHL DUP2 MSTORE PUSH1 0x20 PUSH1 0x4 DUP3 ADD MSTORE PUSH1 0x19 PUSH1 0x24 DUP3 ADD MSTORE PUSH32 0x5265717565737420616C72656164792063616E63656C6C656400000000000000 PUSH1 0x44 DUP3 ADD MSTORE PUSH1 0x64 ADD PUSH2 0x5AD JUMP JUMPDEST PUSH1 0x6 DUP2 ADD SLOAD PUSH1 0xFF AND ISZERO PUSH2 0xA11 JUMPI PUSH1 0x40 MLOAD PUSH3 0x461BCD PUSH1 0xE5 SHL DUP2 MSTORE PUSH1 0x4 ADD PUSH2 0x5AD SWAP1 PUSH2 0x1957 JUMP JUMPDEST DUP1 SLOAD PUSH1 0x1 PUSH1 0x1 PUSH1 0xA0 SHL SUB AND CALLER EQ PUSH2 0xA6A JUMPI PUSH1 0x40 MLOAD PUSH3 0x461BCD PUSH1 0xE5 SHL DUP2 MSTORE PUSH1 0x20 PUSH1 0x4 DUP3 ADD MSTORE PUSH1 0x17 PUSH1 0x24 DUP3 ADD MSTORE PUSH32 0x53656E646572206973206E6F7420726571756573746572000000000000000000 PUSH1 0x44 DUP3 ADD MSTORE PUSH1 0x64 ADD PUSH2 0x5AD JUMP JUMPDEST PUSH1 0x5 SLOAD PUSH2 0xA77 SWAP1 TIMESTAMP PUSH2 0x18EA JUMP JUMPDEST PUSH1 0x7 DUP3 ADD SSTORE PUSH1 0x40 MLOAD DUP4 DUP2 MSTORE PUSH32 0xEE243F878B7FC2F54E934CA33783D4395D42BC07612E2BD4B8E0E178639F7A28 SWAP1 PUSH1 0x20 ADD PUSH1 0x40 MLOAD DUP1 SWAP2 SUB SWAP1 LOG1 POP POP POP JUMP JUMPDEST PUSH1 0x0 PUSH3 0xF4240 PUSH1 0xB SLOAD PUSH2 0xAC5 PUSH2 0x1304 JUMP JUMPDEST PUSH2 0xACF SWAP2 SWAP1 PUSH2 0x198E JUMP JUMPDEST PUSH2 0x69D SWAP2 SWAP1 PUSH2 0x19AD JUMP JUMPDEST PUSH1 0x0 SLOAD PUSH1 0x1 PUSH1 0x1 PUSH1 0xA0 SHL SUB AND CALLER EQ PUSH2 0xB03 JUMPI PUSH1 0x40 MLOAD PUSH3 0x461BCD PUSH1 0xE5 SHL DUP2 MSTORE PUSH1 0x4 ADD PUSH2 0x5AD SWAP1 PUSH2 0x1871 JUMP JUMPDEST PUSH2 0xB0D PUSH1 0x0 PUSH2 0x1741 JUMP JUMPDEST JUMP JUMPDEST DUP1 PUSH1 0x6 SLOAD DUP2 GT ISZERO DUP1 ISZERO PUSH2 0xB22 JUMPI POP PUSH1 0x0 DUP2 GT JUMPDEST PUSH2 0xB3E JUMPI PUSH1 0x40 MLOAD PUSH3 0x461BCD PUSH1 0xE5 SHL DUP2 MSTORE PUSH1 0x4 ADD PUSH2 0x5AD SWAP1 PUSH2 0x192A JUMP JUMPDEST PUSH1 0x0 DUP3 DUP2 MSTORE PUSH1 0x8 PUSH1 0x20 MSTORE PUSH1 0x40 SWAP1 KECCAK256 PUSH1 0x6 DUP2 ADD SLOAD PUSH1 0xFF AND ISZERO PUSH2 0xB71 JUMPI PUSH1 0x40 MLOAD PUSH3 0x461BCD PUSH1 0xE5 SHL DUP2 MSTORE PUSH1 0x4 ADD PUSH2 0x5AD SWAP1 PUSH2 0x1957 JUMP JUMPDEST PUSH1 0x0 DUP2 PUSH1 0x7 ADD SLOAD GT PUSH2 0xBBD JUMPI PUSH1 0x40 MLOAD PUSH3 0x461BCD PUSH1 0xE5 SHL DUP2 MSTORE PUSH1 0x20 PUSH1 0x4 DUP3 ADD MSTORE PUSH1 0x15 PUSH1 0x24 DUP3 ADD MSTORE PUSH21 0x14995C5D595CDD081B9BDD0818D85B98D95B1B1959 PUSH1 0x5A SHL PUSH1 0x44 DUP3 ADD MSTORE PUSH1 0x64 ADD PUSH2 0x5AD JUMP JUMPDEST DUP1 PUSH1 0x7 ADD SLOAD TIMESTAMP LT ISZERO PUSH2 0xC11 JUMPI PUSH1 0x40 MLOAD PUSH3 0x461BCD PUSH1 0xE5 SHL DUP2 MSTORE PUSH1 0x20 PUSH1 0x4 DUP3 ADD DUP2 SWAP1 MSTORE PUSH1 0x24 DUP3 ADD MSTORE PUSH32 0x43616E63656C6C6174696F6E20706572696F64206E6F74206F76657220796574 PUSH1 0x44 DUP3 ADD MSTORE PUSH1 0x64 ADD PUSH2 0x5AD JUMP JUMPDEST PUSH1 0x6 DUP2 ADD SLOAD PUSH2 0x100 SWAP1 DIV PUSH1 0x1 PUSH1 0x1 PUSH1 0xC0 SHL SUB AND ISZERO PUSH2 0xC69 JUMPI PUSH1 0x40 MLOAD PUSH3 0x461BCD PUSH1 0xE5 SHL DUP2 MSTORE PUSH1 0x20 PUSH1 0x4 DUP3 ADD MSTORE PUSH1 0x15 PUSH1 0x24 DUP3 ADD MSTORE PUSH21 0x41637469766520636C61696D732072756E6E696E67 PUSH1 0x58 SHL PUSH1 0x44 DUP3 ADD MSTORE PUSH1 0x64 ADD PUSH2 0x5AD JUMP JUMPDEST PUSH1 0x6 DUP2 ADD DUP1 SLOAD PUSH1 0xFF NOT AND PUSH1 0x1 OR SWAP1 SSTORE PUSH1 0x40 MLOAD PUSH32 0x788D719D36264CD922E6E2BB8F52F65B13571D1EA3DDAF8D27B1ACFDD18C3D0 SWAP1 PUSH2 0xCAA SWAP1 DUP6 DUP2 MSTORE PUSH1 0x20 ADD SWAP1 JUMP JUMPDEST PUSH1 0x40 MLOAD DUP1 SWAP2 SUB SWAP1 LOG1 PUSH1 0x1 DUP2 ADD SLOAD DUP2 SLOAD PUSH1 0x5 DUP4 ADD SLOAD PUSH1 0x40 MLOAD PUSH4 0xA9059CBB PUSH1 0xE0 SHL DUP2 MSTORE PUSH1 0x1 PUSH1 0x1 PUSH1 0xA0 SHL SUB SWAP3 DUP4 AND PUSH1 0x4 DUP3 ADD MSTORE PUSH1 0x24 DUP2 ADD SWAP2 SWAP1 SWAP2 MSTORE SWAP2 AND SWAP1 DUP2 SWAP1 PUSH4 0xA9059CBB SWAP1 PUSH1 0x44 ADD PUSH1 0x20 PUSH1 0x40 MLOAD DUP1 DUP4 SUB DUP2 PUSH1 0x0 DUP8 GAS CALL ISZERO DUP1 ISZERO PUSH2 0xD10 JUMPI RETURNDATASIZE PUSH1 0x0 DUP1 RETURNDATACOPY RETURNDATASIZE PUSH1 0x0 REVERT JUMPDEST POP POP POP POP PUSH1 0x40 MLOAD RETURNDATASIZE PUSH1 0x1F NOT PUSH1 0x1F DUP3 ADD AND DUP3 ADD DUP1 PUSH1 0x40 MSTORE POP DUP2 ADD SWAP1 PUSH2 0xD34 SWAP2 SWAP1 PUSH2 0x19CF JUMP JUMPDEST PUSH2 0xD50 JUMPI PUSH1 0x40 MLOAD PUSH3 0x461BCD PUSH1 0xE5 SHL DUP2 MSTORE PUSH1 0x4 ADD PUSH2 0x5AD SWAP1 PUSH2 0x19F1 JUMP JUMPDEST DUP2 SLOAD PUSH1 0x9 DUP4 ADD SLOAD PUSH1 0x8 DUP5 ADD SLOAD PUSH1 0x0 SWAP3 PUSH1 0x1 PUSH1 0x1 PUSH1 0xA0 SHL SUB AND SWAP2 PUSH2 0xD72 SWAP2 PUSH2 0x18EA JUMP JUMPDEST PUSH1 0x40 MLOAD PUSH1 0x0 DUP2 DUP2 DUP2 DUP6 DUP8 GAS CALL SWAP3 POP POP POP RETURNDATASIZE DUP1 PUSH1 0x0 DUP2 EQ PUSH2 0xDAE JUMPI PUSH1 0x40 MLOAD SWAP2 POP PUSH1 0x1F NOT PUSH1 0x3F RETURNDATASIZE ADD AND DUP3 ADD PUSH1 0x40 MSTORE RETURNDATASIZE DUP3 MSTORE RETURNDATASIZE PUSH1 0x0 PUSH1 0x20 DUP5 ADD RETURNDATACOPY PUSH2 0xDB3 JUMP JUMPDEST PUSH1 0x60 SWAP2 POP JUMPDEST POP POP SWAP1 POP DUP1 PUSH2 0xDD4 JUMPI PUSH1 0x40 MLOAD PUSH3 0x461BCD PUSH1 0xE5 SHL DUP2 MSTORE PUSH1 0x4 ADD PUSH2 0x5AD SWAP1 PUSH2 0x18A6 JUMP JUMPDEST POP POP POP POP POP JUMP JUMPDEST PUSH1 0x0 DUP1 PUSH2 0xDE6 PUSH2 0xAB4 JUMP JUMPDEST PUSH2 0xDEE PUSH2 0x1304 JUMP JUMPDEST PUSH2 0xDF8 SWAP2 SWAP1 PUSH2 0x18EA JUMP JUMPDEST SWAP1 POP PUSH1 0x0 PUSH2 0xE04 PUSH2 0xAB4 JUMP JUMPDEST SWAP1 POP CALLVALUE PUSH2 0xE11 DUP3 DUP5 PUSH2 0x18EA JUMP JUMPDEST EQ PUSH2 0xE5E JUMPI PUSH1 0x40 MLOAD PUSH3 0x461BCD PUSH1 0xE5 SHL DUP2 MSTORE PUSH1 0x20 PUSH1 0x4 DUP3 ADD MSTORE PUSH1 0x19 PUSH1 0x24 DUP3 ADD MSTORE PUSH32 0x57726F6E6720616D6F756E74206F6620666565732073656E7400000000000000 PUSH1 0x44 DUP3 ADD MSTORE PUSH1 0x64 ADD PUSH2 0x5AD JUMP JUMPDEST PUSH1 0x1 PUSH1 0x6 PUSH1 0x0 DUP3 DUP3 SLOAD PUSH2 0xE71 SWAP2 SWAP1 PUSH2 0x18EA JUMP JUMPDEST SWAP1 SWAP2 SSTORE POP POP PUSH1 0x6 DUP1 SLOAD PUSH1 0x0 SWAP1 DUP2 MSTORE PUSH1 0x8 PUSH1 0x20 DUP2 SWAP1 MSTORE PUSH1 0x40 SWAP2 DUP3 SWAP1 KECCAK256 DUP1 SLOAD PUSH1 0x1 PUSH1 0x1 PUSH1 0xA0 SHL SUB NOT SWAP1 DUP2 AND CALLER OR DUP3 SSTORE PUSH1 0x1 DUP3 ADD DUP1 SLOAD PUSH1 0x1 PUSH1 0x1 PUSH1 0xA0 SHL SUB DUP15 DUP2 AND SWAP2 DUP5 AND SWAP2 SWAP1 SWAP2 OR SWAP1 SWAP2 SSTORE PUSH1 0x2 DUP4 ADD DUP15 SWAP1 SSTORE PUSH1 0x3 DUP4 ADD DUP1 SLOAD DUP14 DUP4 AND SWAP1 DUP5 AND OR SWAP1 SSTORE PUSH1 0x4 DUP4 ADD DUP1 SLOAD SWAP2 DUP13 AND SWAP2 SWAP1 SWAP3 AND OR SWAP1 SSTORE PUSH1 0x5 DUP2 ADD DUP9 SWAP1 SSTORE DUP1 DUP5 ADD DUP1 SLOAD PUSH1 0xFF NOT AND SWAP1 SSTORE SWAP1 DUP2 ADD DUP6 SWAP1 SSTORE PUSH1 0x9 DUP2 ADD DUP5 SWAP1 SSTORE SWAP2 SLOAD SWAP1 MLOAD PUSH32 0x79AA30E31996D325799B6F0FBFE55E365B572A6CD82924D616B560D3D9E57B33 SWAP2 PUSH2 0xF66 SWAP2 DUP13 SWAP1 DUP13 SWAP1 DUP13 SWAP1 DUP13 SWAP1 DUP13 SWAP1 SWAP6 DUP7 MSTORE PUSH1 0x20 DUP7 ADD SWAP5 SWAP1 SWAP5 MSTORE PUSH1 0x1 PUSH1 0x1 PUSH1 0xA0 SHL SUB SWAP3 DUP4 AND PUSH1 0x40 DUP7 ADD MSTORE SWAP1 DUP3 AND PUSH1 0x60 DUP6 ADD MSTORE AND PUSH1 0x80 DUP4 ADD MSTORE PUSH1 0xA0 DUP3 ADD MSTORE PUSH1 0xC0 ADD SWAP1 JUMP JUMPDEST PUSH1 0x40 MLOAD DUP1 SWAP2 SUB SWAP1 LOG1 PUSH1 0x40 MLOAD PUSH4 0x23B872DD PUSH1 0xE0 SHL DUP2 MSTORE CALLER PUSH1 0x4 DUP3 ADD MSTORE ADDRESS PUSH1 0x24 DUP3 ADD MSTORE PUSH1 0x44 DUP2 ADD DUP7 SWAP1 MSTORE DUP9 SWAP1 PUSH1 0x1 PUSH1 0x1 PUSH1 0xA0 SHL SUB DUP3 AND SWAP1 PUSH4 0x23B872DD SWAP1 PUSH1 0x64 ADD PUSH1 0x20 PUSH1 0x40 MLOAD DUP1 DUP4 SUB DUP2 PUSH1 0x0 DUP8 GAS CALL ISZERO DUP1 ISZERO PUSH2 0xFC3 JUMPI RETURNDATASIZE PUSH1 0x0 DUP1 RETURNDATACOPY RETURNDATASIZE PUSH1 0x0 REVERT JUMPDEST POP POP POP POP PUSH1 0x40 MLOAD RETURNDATASIZE PUSH1 0x1F NOT PUSH1 0x1F DUP3 ADD AND DUP3 ADD DUP1 PUSH1 0x40 MSTORE POP DUP2 ADD SWAP1 PUSH2 0xFE7 SWAP2 SWAP1 PUSH2 0x19CF JUMP JUMPDEST PUSH2 0x1003 JUMPI PUSH1 0x40 MLOAD PUSH3 0x461BCD PUSH1 0xE5 SHL DUP2 MSTORE PUSH1 0x4 ADD PUSH2 0x5AD SWAP1 PUSH2 0x19F1 JUMP JUMPDEST POP POP PUSH1 0x6 SLOAD SWAP9 SWAP8 POP POP POP POP POP POP POP POP JUMP JUMPDEST DUP1 PUSH1 0x7 SLOAD DUP2 GT ISZERO DUP1 ISZERO PUSH2 0x1027 JUMPI POP PUSH1 0x0 DUP2 GT JUMPDEST PUSH2 0x1067 JUMPI PUSH1 0x40 MLOAD PUSH3 0x461BCD PUSH1 0xE5 SHL DUP2 MSTORE PUSH1 0x20 PUSH1 0x4 DUP3 ADD MSTORE PUSH1 0x11 PUSH1 0x24 DUP3 ADD MSTORE PUSH17 0x18DB185A5B5259081B9BDD081D985B1A59 PUSH1 0x7A SHL PUSH1 0x44 DUP3 ADD MSTORE PUSH1 0x64 ADD PUSH2 0x5AD JUMP JUMPDEST PUSH1 0x0 DUP3 DUP2 MSTORE PUSH1 0x9 PUSH1 0x20 MSTORE PUSH1 0x40 SWAP1 KECCAK256 PUSH1 0x6 DUP2 ADD SLOAD TIMESTAMP LT PUSH2 0x10B8 JUMPI PUSH1 0x40 MLOAD PUSH3 0x461BCD PUSH1 0xE5 SHL DUP2 MSTORE PUSH1 0x20 PUSH1 0x4 DUP3 ADD MSTORE PUSH1 0xD PUSH1 0x24 DUP3 ADD MSTORE PUSH13 0x10DB185A5B48195E1C1A5C9959 PUSH1 0x9A SHL PUSH1 0x44 DUP3 ADD MSTORE PUSH1 0x64 ADD PUSH2 0x5AD JUMP JUMPDEST PUSH1 0x0 DUP1 PUSH1 0x0 DUP4 PUSH1 0x4 ADD SLOAD DUP5 PUSH1 0x2 ADD SLOAD GT ISZERO PUSH2 0x112C JUMPI PUSH1 0x3 DUP5 ADD SLOAD PUSH1 0x1 PUSH1 0x1 PUSH1 0xA0 SHL SUB AND PUSH2 0x10FB JUMPI POP PUSH1 0x3 DUP1 DUP5 ADD DUP1 SLOAD PUSH1 0x1 PUSH1 0x1 PUSH1 0xA0 SHL SUB NOT AND CALLER OR SWAP1 SSTORE SLOAD PUSH2 0x1100 JUMP JUMPDEST POP PUSH1 0x4 SLOAD JUMPDEST PUSH1 0x3 DUP5 ADD SLOAD PUSH1 0x4 DUP6 ADD SLOAD PUSH1 0x2 DUP7 ADD SLOAD PUSH1 0x1 PUSH1 0x1 PUSH1 0xA0 SHL SUB SWAP1 SWAP3 AND SWAP5 POP PUSH2 0x1125 SWAP2 PUSH2 0x1A1A JUMP JUMPDEST SWAP2 POP PUSH2 0x1154 JUMP JUMPDEST PUSH1 0x1 DUP5 ADD SLOAD PUSH1 0x2 DUP6 ADD SLOAD PUSH1 0x4 DUP7 ADD SLOAD PUSH1 0x1 PUSH1 0x1 PUSH1 0xA0 SHL SUB SWAP1 SWAP3 AND SWAP5 POP PUSH2 0x1151 SWAP2 PUSH2 0x1A1A JUMP JUMPDEST SWAP2 POP JUMPDEST CALLER PUSH1 0x1 PUSH1 0x1 PUSH1 0xA0 SHL SUB DUP5 AND EQ PUSH2 0x11A5 JUMPI PUSH1 0x40 MLOAD PUSH3 0x461BCD PUSH1 0xE5 SHL DUP2 MSTORE PUSH1 0x20 PUSH1 0x4 DUP3 ADD MSTORE PUSH1 0x16 PUSH1 0x24 DUP3 ADD MSTORE PUSH22 0x139BDD08195B1A59DA589B19481D1BC81BDD5D189A59 PUSH1 0x52 SHL PUSH1 0x44 DUP3 ADD MSTORE PUSH1 0x64 ADD PUSH2 0x5AD JUMP JUMPDEST DUP2 CALLVALUE GT PUSH2 0x11F4 JUMPI PUSH1 0x40 MLOAD PUSH3 0x461BCD PUSH1 0xE5 SHL DUP2 MSTORE PUSH1 0x20 PUSH1 0x4 DUP3 ADD MSTORE PUSH1 0x19 PUSH1 0x24 DUP3 ADD MSTORE PUSH32 0x4E6F7420656E6F7567682066756E64732070726F766964656400000000000000 PUSH1 0x44 DUP3 ADD MSTORE PUSH1 0x64 ADD PUSH2 0x5AD JUMP JUMPDEST PUSH1 0x1 DUP5 ADD SLOAD PUSH1 0x1 PUSH1 0x1 PUSH1 0xA0 SHL SUB DUP5 DUP2 AND SWAP2 AND EQ ISZERO PUSH2 0x122B JUMPI CALLVALUE DUP5 PUSH1 0x2 ADD PUSH1 0x0 DUP3 DUP3 SLOAD PUSH2 0x1220 SWAP2 SWAP1 PUSH2 0x18EA JUMP JUMPDEST SWAP1 SWAP2 SSTORE POP PUSH2 0x1245 SWAP1 POP JUMP JUMPDEST CALLVALUE DUP5 PUSH1 0x4 ADD PUSH1 0x0 DUP3 DUP3 SLOAD PUSH2 0x123F SWAP2 SWAP1 PUSH2 0x18EA JUMP JUMPDEST SWAP1 SWAP2 SSTORE POP POP JUMPDEST PUSH1 0x6 DUP5 ADD SLOAD PUSH2 0x125D SWAP1 PUSH2 0x1258 DUP4 TIMESTAMP PUSH2 0x18EA JUMP JUMPDEST PUSH2 0x1791 JUMP JUMPDEST PUSH1 0x6 DUP6 ADD DUP2 SWAP1 SSTORE DUP5 SLOAD PUSH1 0x1 DUP7 ADD SLOAD PUSH1 0x2 DUP8 ADD SLOAD PUSH1 0x3 DUP9 ADD SLOAD PUSH1 0x4 DUP10 ADD SLOAD PUSH1 0x40 MLOAD PUSH32 0xF187F80934201AAF3A7B5C29D41665C2220178257EC5B79ED6F1226D5136804 SWAP7 PUSH2 0x12BF SWAP7 SWAP6 DUP15 SWAP6 PUSH1 0x1 PUSH1 0x1 PUSH1 0xA0 SHL SUB SWAP2 DUP3 AND SWAP6 SWAP1 SWAP5 SWAP2 AND SWAP3 SWAP1 SWAP2 SWAP1 PUSH2 0x1A31 JUMP JUMPDEST PUSH1 0x40 MLOAD DUP1 SWAP2 SUB SWAP1 LOG1 POP POP POP POP POP POP JUMP JUMPDEST PUSH1 0x0 SLOAD PUSH1 0x1 PUSH1 0x1 PUSH1 0xA0 SHL SUB AND CALLER EQ PUSH2 0x12F9 JUMPI PUSH1 0x40 MLOAD PUSH3 0x461BCD PUSH1 0xE5 SHL DUP2 MSTORE PUSH1 0x4 ADD PUSH2 0x5AD SWAP1 PUSH2 0x1871 JUMP JUMPDEST PUSH1 0xA SWAP2 SWAP1 SWAP2 SSTORE PUSH1 0xB SSTORE JUMP JUMPDEST PUSH1 0xA SLOAD PUSH1 0x0 SWAP1 PUSH3 0x10621 SWAP1 PUSH3 0x25C0A SWAP1 PUSH2 0xFA51 SWAP1 DUP2 PUSH2 0x1323 DUP5 DUP7 PUSH2 0x18EA JUMP JUMPDEST PUSH2 0x132D SWAP2 SWAP1 PUSH2 0x18EA JUMP JUMPDEST PUSH2 0x1337 SWAP2 SWAP1 PUSH2 0x198E JUMP JUMPDEST SWAP4 POP POP POP POP SWAP1 JUMP JUMPDEST PUSH1 0x0 DUP2 PUSH1 0x6 SLOAD DUP2 GT ISZERO DUP1 ISZERO PUSH2 0x1354 JUMPI POP PUSH1 0x0 DUP2 GT JUMPDEST PUSH2 0x1370 JUMPI PUSH1 0x40 MLOAD PUSH3 0x461BCD PUSH1 0xE5 SHL DUP2 MSTORE PUSH1 0x4 ADD PUSH2 0x5AD SWAP1 PUSH2 0x192A JUMP JUMPDEST PUSH1 0x0 DUP4 DUP2 MSTORE PUSH1 0x8 PUSH1 0x20 MSTORE PUSH1 0x40 SWAP1 KECCAK256 PUSH1 0x6 DUP2 ADD SLOAD PUSH1 0xFF AND ISZERO PUSH2 0x13A3 JUMPI PUSH1 0x40 MLOAD PUSH3 0x461BCD PUSH1 0xE5 SHL DUP2 MSTORE PUSH1 0x4 ADD PUSH2 0x5AD SWAP1 PUSH2 0x1957 JUMP JUMPDEST PUSH1 0x1 SLOAD CALLVALUE EQ PUSH2 0x13EB JUMPI PUSH1 0x40 MLOAD PUSH3 0x461BCD PUSH1 0xE5 SHL DUP2 MSTORE PUSH1 0x20 PUSH1 0x4 DUP3 ADD MSTORE PUSH1 0x14 PUSH1 0x24 DUP3 ADD MSTORE PUSH20 0x125B9D985B1A59081CDD185AD948185B5BDD5B9D PUSH1 0x62 SHL PUSH1 0x44 DUP3 ADD MSTORE PUSH1 0x64 ADD PUSH2 0x5AD JUMP JUMPDEST PUSH1 0x1 DUP2 PUSH1 0x6 ADD PUSH1 0x1 DUP3 DUP3 DUP3 SWAP1 SLOAD SWAP1 PUSH2 0x100 EXP SWAP1 DIV PUSH1 0x1 PUSH1 0x1 PUSH1 0xC0 SHL SUB AND PUSH2 0x1412 SWAP2 SWAP1 PUSH2 0x1A6C JUMP JUMPDEST SWAP3 POP PUSH2 0x100 EXP DUP2 SLOAD DUP2 PUSH1 0x1 PUSH1 0x1 PUSH1 0xC0 SHL SUB MUL NOT AND SWAP1 DUP4 PUSH1 0x1 PUSH1 0x1 PUSH1 0xC0 SHL SUB AND MUL OR SWAP1 SSTORE POP PUSH1 0x1 PUSH1 0x7 PUSH1 0x0 DUP3 DUP3 SLOAD PUSH2 0x1449 SWAP2 SWAP1 PUSH2 0x18EA JUMP JUMPDEST SWAP1 SWAP2 SSTORE POP POP PUSH1 0x7 SLOAD PUSH1 0x0 SWAP1 DUP2 MSTORE PUSH1 0x9 PUSH1 0x20 MSTORE PUSH1 0x40 DUP2 KECCAK256 DUP6 DUP2 SSTORE PUSH1 0x1 DUP1 DUP3 ADD DUP1 SLOAD PUSH1 0x1 PUSH1 0x1 PUSH1 0xA0 SHL SUB NOT SWAP1 DUP2 AND CALLER OR SWAP1 SWAP2 SSTORE SWAP1 SLOAD PUSH1 0x2 DUP1 DUP5 ADD SWAP2 SWAP1 SWAP2 SSTORE PUSH1 0x3 DUP4 ADD DUP1 SLOAD SWAP1 SWAP3 AND SWAP1 SWAP2 SSTORE PUSH1 0x4 DUP3 ADD SWAP3 SWAP1 SWAP3 SSTORE PUSH1 0x5 DUP2 ADD DUP1 SLOAD PUSH1 0xFF NOT AND SWAP1 SSTORE SWAP1 SLOAD PUSH2 0x14B1 SWAP1 TIMESTAMP PUSH2 0x18EA JUMP JUMPDEST PUSH1 0x6 DUP3 ADD DUP2 SWAP1 SSTORE PUSH1 0x7 SLOAD PUSH1 0x1 DUP4 ADD SLOAD PUSH1 0x2 DUP5 ADD SLOAD PUSH1 0x3 DUP6 ADD SLOAD PUSH1 0x4 DUP7 ADD SLOAD PUSH1 0x40 MLOAD PUSH32 0xF187F80934201AAF3A7B5C29D41665C2220178257EC5B79ED6F1226D5136804 SWAP7 PUSH2 0x1515 SWAP7 DUP14 SWAP7 SWAP1 SWAP6 PUSH1 0x1 PUSH1 0x1 PUSH1 0xA0 SHL SUB SWAP2 DUP3 AND SWAP6 SWAP1 SWAP5 SWAP2 AND SWAP3 SWAP1 SWAP2 SWAP1 PUSH2 0x1A31 JUMP JUMPDEST PUSH1 0x40 MLOAD DUP1 SWAP2 SUB SWAP1 LOG1 POP POP PUSH1 0x7 SLOAD SWAP4 SWAP3 POP POP POP JUMP JUMPDEST PUSH1 0x0 SLOAD PUSH1 0x1 PUSH1 0x1 PUSH1 0xA0 SHL SUB AND CALLER EQ PUSH2 0x1553 JUMPI PUSH1 0x40 MLOAD PUSH3 0x461BCD PUSH1 0xE5 SHL DUP2 MSTORE PUSH1 0x4 ADD PUSH2 0x5AD SWAP1 PUSH2 0x1871 JUMP JUMPDEST PUSH1 0x1 PUSH1 0x1 PUSH1 0xA0 SHL SUB DUP2 AND PUSH2 0x15B8 JUMPI PUSH1 0x40 MLOAD PUSH3 0x461BCD PUSH1 0xE5 SHL DUP2 MSTORE PUSH1 0x20 PUSH1 0x4 DUP3 ADD MSTORE PUSH1 0x26 PUSH1 0x24 DUP3 ADD MSTORE PUSH32 0x4F776E61626C653A206E6577206F776E657220697320746865207A65726F2061 PUSH1 0x44 DUP3 ADD MSTORE PUSH6 0x646472657373 PUSH1 0xD0 SHL PUSH1 0x64 DUP3 ADD MSTORE PUSH1 0x84 ADD PUSH2 0x5AD JUMP JUMPDEST PUSH2 0x15C1 DUP2 PUSH2 0x1741 JUMP JUMPDEST POP JUMP JUMPDEST DUP3 PUSH1 0x9 ADD SLOAD PUSH1 0xC PUSH1 0x0 DUP3 DUP3 SLOAD PUSH2 0x15DA SWAP2 SWAP1 PUSH2 0x18EA JUMP JUMPDEST SWAP1 SWAP2 SSTORE POP POP DUP2 SLOAD PUSH1 0x40 DUP1 MLOAD DUP7 DUP2 MSTORE PUSH1 0x20 DUP2 ADD SWAP3 SWAP1 SWAP3 MSTORE PUSH1 0x1 PUSH1 0x1 PUSH1 0xA0 SHL SUB DUP4 AND DUP3 DUP3 ADD MSTORE MLOAD PUSH32 0xC494C0D9B07FAE9D937A92117991D3017AD9408A7D344CAA86C184C47F7BD183 SWAP2 DUP2 SWAP1 SUB PUSH1 0x60 ADD SWAP1 LOG1 PUSH1 0x1 DUP4 ADD SLOAD PUSH1 0x5 DUP5 ADD SLOAD PUSH1 0x40 MLOAD PUSH4 0xA9059CBB PUSH1 0xE0 SHL DUP2 MSTORE PUSH1 0x1 PUSH1 0x1 PUSH1 0xA0 SHL SUB DUP5 DUP2 AND PUSH1 0x4 DUP4 ADD MSTORE PUSH1 0x24 DUP3 ADD SWAP3 SWAP1 SWAP3 MSTORE SWAP2 AND SWAP1 DUP2 SWAP1 PUSH4 0xA9059CBB SWAP1 PUSH1 0x44 ADD PUSH1 0x20 PUSH1 0x40 MLOAD DUP1 DUP4 SUB DUP2 PUSH1 0x0 DUP8 GAS CALL ISZERO DUP1 ISZERO PUSH2 0x1685 JUMPI RETURNDATASIZE PUSH1 0x0 DUP1 RETURNDATACOPY RETURNDATASIZE PUSH1 0x0 REVERT JUMPDEST POP POP POP POP PUSH1 0x40 MLOAD RETURNDATASIZE PUSH1 0x1F NOT PUSH1 0x1F DUP3 ADD AND DUP3 ADD DUP1 PUSH1 0x40 MSTORE POP DUP2 ADD SWAP1 PUSH2 0x16A9 SWAP2 SWAP1 PUSH2 0x19CF JUMP JUMPDEST PUSH2 0x16C5 JUMPI PUSH1 0x40 MLOAD PUSH3 0x461BCD PUSH1 0xE5 SHL DUP2 MSTORE PUSH1 0x4 ADD PUSH2 0x5AD SWAP1 PUSH2 0x19F1 JUMP JUMPDEST PUSH1 0x8 DUP5 ADD SLOAD PUSH1 0x40 MLOAD PUSH1 0x0 SWAP2 PUSH1 0x1 PUSH1 0x1 PUSH1 0xA0 SHL SUB DUP6 AND SWAP2 DUP4 DUP2 DUP2 DUP2 DUP6 DUP8 GAS CALL SWAP3 POP POP POP RETURNDATASIZE DUP1 PUSH1 0x0 DUP2 EQ PUSH2 0x1713 JUMPI PUSH1 0x40 MLOAD SWAP2 POP PUSH1 0x1F NOT PUSH1 0x3F RETURNDATASIZE ADD AND DUP3 ADD PUSH1 0x40 MSTORE RETURNDATASIZE DUP3 MSTORE RETURNDATASIZE PUSH1 0x0 PUSH1 0x20 DUP5 ADD RETURNDATACOPY PUSH2 0x1718 JUMP JUMPDEST PUSH1 0x60 SWAP2 POP JUMPDEST POP POP SWAP1 POP DUP1 PUSH2 0x1739 JUMPI PUSH1 0x40 MLOAD PUSH3 0x461BCD PUSH1 0xE5 SHL DUP2 MSTORE PUSH1 0x4 ADD PUSH2 0x5AD SWAP1 PUSH2 0x18A6 JUMP JUMPDEST POP POP POP POP POP POP JUMP JUMPDEST PUSH1 0x0 DUP1 SLOAD PUSH1 0x1 PUSH1 0x1 PUSH1 0xA0 SHL SUB DUP4 DUP2 AND PUSH1 0x1 PUSH1 0x1 PUSH1 0xA0 SHL SUB NOT DUP4 AND DUP2 OR DUP5 SSTORE PUSH1 0x40 MLOAD SWAP2 SWAP1 SWAP3 AND SWAP3 DUP4 SWAP2 PUSH32 0x8BE0079C531659141344CD1FD0A4F28419497F9722A3DAAFE3B4186F6B6457E0 SWAP2 SWAP1 LOG3 POP POP JUMP JUMPDEST PUSH1 0x0 DUP2 DUP4 LT ISZERO PUSH2 0x17A1 JUMPI DUP2 PUSH2 0x17A3 JUMP JUMPDEST DUP3 JUMPDEST SWAP4 SWAP3 POP POP POP JUMP JUMPDEST PUSH1 0x0 PUSH1 0x20 DUP3 DUP5 SUB SLT ISZERO PUSH2 0x17BC JUMPI PUSH1 0x0 DUP1 REVERT JUMPDEST POP CALLDATALOAD SWAP2 SWAP1 POP JUMP JUMPDEST DUP1 CALLDATALOAD PUSH1 0x1 PUSH1 0x1 PUSH1 0xA0 SHL SUB DUP2 AND DUP2 EQ PUSH2 0x17DA JUMPI PUSH1 0x0 DUP1 REVERT JUMPDEST SWAP2 SWAP1 POP JUMP JUMPDEST PUSH1 0x0 DUP1 PUSH1 0x0 DUP1 PUSH1 0x0 PUSH1 0xA0 DUP7 DUP9 SUB SLT ISZERO PUSH2 0x17F7 JUMPI PUSH1 0x0 DUP1 REVERT JUMPDEST DUP6 CALLDATALOAD SWAP5 POP PUSH2 0x1807 PUSH1 0x20 DUP8 ADD PUSH2 0x17C3 JUMP JUMPDEST SWAP4 POP PUSH2 0x1815 PUSH1 0x40 DUP8 ADD PUSH2 0x17C3 JUMP JUMPDEST SWAP3 POP PUSH2 0x1823 PUSH1 0x60 DUP8 ADD PUSH2 0x17C3 JUMP JUMPDEST SWAP5 SWAP8 SWAP4 SWAP7 POP SWAP2 SWAP5 PUSH1 0x80 ADD CALLDATALOAD SWAP3 SWAP2 POP POP JUMP JUMPDEST PUSH1 0x0 DUP1 PUSH1 0x40 DUP4 DUP6 SUB SLT ISZERO PUSH2 0x1847 JUMPI PUSH1 0x0 DUP1 REVERT JUMPDEST POP POP DUP1 CALLDATALOAD SWAP3 PUSH1 0x20 SWAP1 SWAP2 ADD CALLDATALOAD SWAP2 POP JUMP JUMPDEST PUSH1 0x0 PUSH1 0x20 DUP3 DUP5 SUB SLT ISZERO PUSH2 0x1868 JUMPI PUSH1 0x0 DUP1 REVERT JUMPDEST PUSH2 0x17A3 DUP3 PUSH2 0x17C3 JUMP JUMPDEST PUSH1 0x20 DUP1 DUP3 MSTORE DUP2 DUP2 ADD MSTORE PUSH32 0x4F776E61626C653A2063616C6C6572206973206E6F7420746865206F776E6572 PUSH1 0x40 DUP3 ADD MSTORE PUSH1 0x60 ADD SWAP1 JUMP JUMPDEST PUSH1 0x20 DUP1 DUP3 MSTORE PUSH1 0x14 SWAP1 DUP3 ADD MSTORE PUSH20 0x2330B4B632B2103A379039B2B7321022BA3432B9 PUSH1 0x61 SHL PUSH1 0x40 DUP3 ADD MSTORE PUSH1 0x60 ADD SWAP1 JUMP JUMPDEST PUSH4 0x4E487B71 PUSH1 0xE0 SHL PUSH1 0x0 MSTORE PUSH1 0x11 PUSH1 0x4 MSTORE PUSH1 0x24 PUSH1 0x0 REVERT JUMPDEST PUSH1 0x0 DUP3 NOT DUP3 GT ISZERO PUSH2 0x18FD JUMPI PUSH2 0x18FD PUSH2 0x18D4 JUMP JUMPDEST POP ADD SWAP1 JUMP JUMPDEST PUSH1 0x0 PUSH1 0x1 PUSH1 0x1 PUSH1 0xC0 SHL SUB DUP4 DUP2 AND SWAP1 DUP4 AND DUP2 DUP2 LT ISZERO PUSH2 0x1922 JUMPI PUSH2 0x1922 PUSH2 0x18D4 JUMP JUMPDEST SUB SWAP4 SWAP3 POP POP POP JUMP JUMPDEST PUSH1 0x20 DUP1 DUP3 MSTORE PUSH1 0x13 SWAP1 DUP3 ADD MSTORE PUSH19 0x1C995C5D595CDD1259081B9BDD081D985B1A59 PUSH1 0x6A SHL PUSH1 0x40 DUP3 ADD MSTORE PUSH1 0x60 ADD SWAP1 JUMP JUMPDEST PUSH1 0x20 DUP1 DUP3 MSTORE PUSH1 0x19 SWAP1 DUP3 ADD MSTORE PUSH32 0x4465706F73697420616C72656164792077697468647261776E00000000000000 PUSH1 0x40 DUP3 ADD MSTORE PUSH1 0x60 ADD SWAP1 JUMP JUMPDEST PUSH1 0x0 DUP2 PUSH1 0x0 NOT DIV DUP4 GT DUP3 ISZERO ISZERO AND ISZERO PUSH2 0x19A8 JUMPI PUSH2 0x19A8 PUSH2 0x18D4 JUMP JUMPDEST POP MUL SWAP1 JUMP JUMPDEST PUSH1 0x0 DUP3 PUSH2 0x19CA JUMPI PUSH4 0x4E487B71 PUSH1 0xE0 SHL PUSH1 0x0 MSTORE PUSH1 0x12 PUSH1 0x4 MSTORE PUSH1 0x24 PUSH1 0x0 REVERT JUMPDEST POP DIV SWAP1 JUMP JUMPDEST PUSH1 0x0 PUSH1 0x20 DUP3 DUP5 SUB SLT ISZERO PUSH2 0x19E1 JUMPI PUSH1 0x0 DUP1 REVERT JUMPDEST DUP2 MLOAD DUP1 ISZERO ISZERO DUP2 EQ PUSH2 0x17A3 JUMPI PUSH1 0x0 DUP1 REVERT JUMPDEST PUSH1 0x20 DUP1 DUP3 MSTORE PUSH1 0xF SWAP1 DUP3 ADD MSTORE PUSH15 0x151C985B9CD9995C8819985A5B1959 PUSH1 0x8A SHL PUSH1 0x40 DUP3 ADD MSTORE PUSH1 0x60 ADD SWAP1 JUMP JUMPDEST PUSH1 0x0 DUP3 DUP3 LT ISZERO PUSH2 0x1A2C JUMPI PUSH2 0x1A2C PUSH2 0x18D4 JUMP JUMPDEST POP SUB SWAP1 JUMP JUMPDEST SWAP7 DUP8 MSTORE PUSH1 0x20 DUP8 ADD SWAP6 SWAP1 SWAP6 MSTORE PUSH1 0x1 PUSH1 0x1 PUSH1 0xA0 SHL SUB SWAP4 DUP5 AND PUSH1 0x40 DUP8 ADD MSTORE PUSH1 0x60 DUP7 ADD SWAP3 SWAP1 SWAP3 MSTORE SWAP1 SWAP2 AND PUSH1 0x80 DUP5 ADD MSTORE PUSH1 0xA0 DUP4 ADD MSTORE PUSH1 0xC0 DUP3 ADD MSTORE PUSH1 0xE0 ADD SWAP1 JUMP JUMPDEST PUSH1 0x0 PUSH1 0x1 PUSH1 0x1 PUSH1 0xC0 SHL SUB DUP3 DUP2 AND DUP5 DUP3 AND DUP1 DUP4 SUB DUP3 GT ISZERO PUSH2 0x1A8E JUMPI PUSH2 0x1A8E PUSH2 0x18D4 JUMP JUMPDEST ADD SWAP5 SWAP4 POP POP POP POP JUMP INVALID LOG2 PUSH5 0x6970667358 0x22 SLT KECCAK256 0xB1 0xA5 PUSH3 0x260284 0xE7 CREATE RETURNDATASIZE DELEGATECALL ADDRESS OR DUP9 0xB9 0xD0 0xD3 BALANCE 0xA7 CODESIZE MUL 0xCE 0xEB 0x5D TIMESTAMP 0xC2 0x4C LT PUSH23 0x609E762264736F6C634300080B00330000000000000000 ",
  "sha1": "20e37c8939489b557819d7a1df7bd52cc8eecaa9",
  "source": "// SPDX-License-Identifier: MIT\npragma solidity ^0.8.7;\n\nimport \"OpenZeppelin/openzeppelin-contracts@4.4.2/contracts/token/ERC20/IERC20.sol\";\nimport \"OpenZeppelin/openzeppelin-contracts@4.4.2/contracts/utils/math/Math.sol\";\nimport \"OpenZeppelin/openzeppelin-contracts@4.4.2/contracts/access/Ownable.sol\";\n\ncontract RequestManager is Ownable {\n    using Math for uint256;\n\n    // Structs\n    // TODO: check if we can use a smaller type for `targetChainId`, so that the\n    // fileds can be packed into one storage slot\n    struct Request {\n        address sender;\n        address sourceTokenAddress;\n        uint256 targetChainId;\n        address targetTokenAddress;\n        address targetAddress;\n        uint256 amount;\n        bool depositWithdrawn;\n        uint192 activeClaims;\n        uint256 cancellationTermination;\n        uint256 lpFee;\n        uint256 raisyncFee;\n    }\n\n    struct Claim {\n        uint256 requestId;\n        address claimer;\n        uint256 claimerStake;\n        address challenger;\n        uint256 challengerStake;\n        bool withdrawn;\n        uint256 termination;\n    }\n\n    // Events\n    event RequestCreated(\n        uint256 requestId,\n        uint256 targetChainId,\n        address sourceTokenAddress,\n        address targetTokenAddress,\n        address targetAddress,\n        uint256 amount\n    );\n\n    event RequestCancelled(\n        uint256 requestId\n    );\n\n    event DepositWithdrawn(\n        uint256 requestId\n    );\n\n    event ClaimMade(\n        uint256 requestId,\n        uint256 claimId,\n        address claimer,\n        uint256 claimerStake,\n        address challenger,\n        uint256 challengerStake,\n        uint256 termination\n    );\n\n    event ClaimWithdrawn(\n        uint256 claimId,\n        uint256 requestId,\n        address claimReceiver\n    );\n\n\n    // Constants\n    uint256 public claimStake;\n    uint256 public claimPeriod;\n    uint256 public challengePeriod;\n    uint256 public challengePeriodExtension;\n    uint256 public cancellationPeriod;\n\n    // Variables\n    uint256 public requestCounter;\n    uint256 public claimCounter;\n\n    mapping (uint256 => Request) public requests;\n    mapping (uint256 => Claim) public claims;\n\n    uint256 public gasPrice = 5e9;\n    uint256 serviceFeePPM = 45_000;  //4.5%\n\n    // raisync fee tracking\n    uint256 public collectedRaisyncFees = 0;\n\n    // The optimizer should take care of eval'ing this\n    function gasReimbursementFee() public view returns (uint256) {\n        uint256 fillGas = 67105;\n        uint256 claimGas = 154634;\n        uint256 withdrawGas = 64081;\n\n        return (fillGas + claimGas + withdrawGas) * gasPrice;\n    }\n\n    function lpServiceFee() public view returns (uint256) {\n        return gasReimbursementFee() * serviceFeePPM / 1_000_000;\n    }\n\n    function raisyncServiceFee() public view returns (uint256) {\n        return gasReimbursementFee() * serviceFeePPM / 1_000_000;\n    }\n\n    function totalFee() public view returns (uint256) {\n        return gasReimbursementFee() + lpServiceFee() + raisyncServiceFee();\n    }\n\n\n    // Modifiers\n    modifier validRequestId(uint256 requestId) {\n        require(requestId <= requestCounter && requestId > 0, \"requestId not valid\");\n        _;\n    }\n\n    modifier validClaimId(uint256 claimId) {\n        require(claimId <= claimCounter && claimId > 0, \"claimId not valid\");\n        _;\n    }\n\n    constructor(\n        uint256 _claimStake,\n        uint256 _claimPeriod,\n        uint256 _challengePeriod,\n        uint256 _challengePeriodExtension,\n        uint256 _cancellationPeriod\n    ) {\n        claimStake = _claimStake;\n        claimPeriod = _claimPeriod;\n        challengePeriod = _challengePeriod;\n        challengePeriodExtension = _challengePeriodExtension;\n        cancellationPeriod = _cancellationPeriod;\n    }\n\n    function createRequest(\n        uint256 targetChainId,\n        address sourceTokenAddress,\n        address targetTokenAddress,\n        address targetAddress,\n        uint256 amount\n    )\n    external payable returns (uint256)\n    {\n        uint256 lpFee = gasReimbursementFee() + lpServiceFee();\n        uint256 raisyncFee = raisyncServiceFee();\n        require(lpFee + raisyncFee == msg.value, \"Wrong amount of fees sent\");\n\n        requestCounter += 1;\n        Request storage newRequest = requests[requestCounter];\n        newRequest.sender = msg.sender;\n        newRequest.sourceTokenAddress = sourceTokenAddress;\n        newRequest.targetChainId = targetChainId;\n        newRequest.targetTokenAddress = targetTokenAddress;\n        newRequest.targetAddress = targetAddress;\n        newRequest.amount = amount;\n        newRequest.depositWithdrawn = false;\n        newRequest.lpFee = lpFee;\n        newRequest.raisyncFee = raisyncFee;\n\n        emit RequestCreated(\n            requestCounter,\n            targetChainId,\n            sourceTokenAddress,\n            targetTokenAddress,\n            targetAddress,\n            amount\n        );\n\n        IERC20 token = IERC20(sourceTokenAddress);\n        require(token.transferFrom(msg.sender, address(this), amount), \"Transfer failed\");\n\n        return requestCounter;\n    }\n\n    function cancelRequest(uint256 requestId) external validRequestId(requestId) {\n        Request storage request = requests[requestId];\n\n        require(request.cancellationTermination == 0, \"Request already cancelled\");\n        require(!request.depositWithdrawn, \"Deposit already withdrawn\");\n        require(msg.sender == request.sender, \"Sender is not requester\");\n\n        request.cancellationTermination = block.timestamp + cancellationPeriod;\n\n        emit RequestCancelled(requestId);\n    }\n\n    function withdrawCancelledRequest(uint256 requestId) external validRequestId(requestId) {\n        Request storage request = requests[requestId];\n\n        require(!request.depositWithdrawn , \"Deposit already withdrawn\");\n        require(request.cancellationTermination > 0, \"Request not cancelled\");\n        require(block.timestamp >= request.cancellationTermination, \"Cancellation period not over yet\");\n        require(request.activeClaims == 0, \"Active claims running\");\n\n        request.depositWithdrawn = true;\n\n        emit DepositWithdrawn(requestId);\n\n        IERC20 token = IERC20(request.sourceTokenAddress);\n        require(token.transfer(request.sender, request.amount), \"Transfer failed\");\n\n        (bool sent,) = request.sender.call{value: request.lpFee + request.raisyncFee}(\"\");\n        require(sent, \"Failed to send Ether\");\n    }\n\n    function claimRequest(uint256 requestId) external validRequestId(requestId) payable returns (uint256) {\n        Request storage request = requests[requestId];\n\n        require(!request.depositWithdrawn, \"Deposit already withdrawn\");\n        require(msg.value == claimStake, \"Invalid stake amount\");\n\n        request.activeClaims += 1;\n        claimCounter += 1;\n\n        Claim storage claim = claims[claimCounter];\n        claim.requestId = requestId;\n        claim.claimer = msg.sender;\n        claim.claimerStake = claimStake;\n        claim.challenger = address(0);\n        claim.challengerStake = 0;\n        claim.withdrawn = false;\n        claim.termination = block.timestamp + claimPeriod;\n\n        emit ClaimMade(\n            requestId,\n            claimCounter,\n            claim.claimer,\n            claim.claimerStake,\n            claim.challenger,\n            claim.challengerStake,\n            claim.termination\n        );\n\n        return claimCounter;\n    }\n\n    function challengeClaim(uint256 claimId) external validClaimId(claimId) payable {\n        Claim storage claim = claims[claimId];\n        require(block.timestamp < claim.termination, \"Claim expired\");\n\n        address nextActor;\n        uint256 minValue;\n        uint256 periodExtension;\n\n        if (claim.claimerStake > claim.challengerStake) {\n            if (claim.challenger == address(0)) {\n                claim.challenger = msg.sender;\n                periodExtension = challengePeriod;\n            } else {\n                periodExtension = challengePeriodExtension;\n            }\n            nextActor = claim.challenger;\n            minValue = claim.claimerStake - claim.challengerStake;\n        } else {\n            nextActor = claim.claimer;\n            minValue = claim.challengerStake - claim.claimerStake;\n        }\n\n        require(msg.sender == nextActor, \"Not eligible to outbid\");\n        require(msg.value > minValue, \"Not enough funds provided\");\n\n        if (nextActor == claim.claimer) {\n            claim.claimerStake += msg.value;\n        } else {\n            claim.challengerStake += msg.value;\n        }\n\n        claim.termination = Math.max(claim.termination, block.timestamp + periodExtension);\n\n        emit ClaimMade(\n            claim.requestId,\n            claimId,\n            claim.claimer,\n            claim.claimerStake,\n            claim.challenger,\n            claim.challengerStake,\n            claim.termination\n        );\n    }\n\n    function withdraw(uint256 claimId) external validClaimId(claimId) returns (address) {\n        Claim storage claim = claims[claimId];\n        Request storage request = requests[claim.requestId];\n        require(!claim.withdrawn, \"Claim already withdrawn\");\n\n        bool depositWithdrawn = request.depositWithdrawn;\n        bool claimChallenged = claim.challenger != address(0);\n\n        require(depositWithdrawn || block.timestamp >= claim.termination, \"Claim period not finished\");\n\n        address claimReceiver;\n        if (!claimChallenged) {\n            claimReceiver = claim.claimer;\n        } else {\n            // check if l1 resolved\n            claimReceiver = claim.claimerStake > claim.challengerStake ? claim.claimer : claim.challenger;\n        }\n\n        claim.withdrawn = true;\n        request.activeClaims -= 1;\n\n        if (!depositWithdrawn && claimReceiver == claim.claimer) {\n            request.depositWithdrawn = true;\n            withdraw_deposit(claimId, request, claim, claimReceiver);\n        }\n        // The claim is set the `withdrawn` state above, so the following effects\n        // needs to happen afterwards to avoid reentrency problems\n        uint256 ethToTransfer = claim.claimerStake + claim.challengerStake;\n        (bool sent,) = claimReceiver.call{value: ethToTransfer}(\"\");\n        require(sent, \"Failed to send Ether\");\n\n        return claimReceiver;\n    }\n\n    function withdraw_deposit(\n        uint256 claimId,\n        Request storage request,\n        Claim storage claim,\n        address claimReceiver\n    ) private {\n        collectedRaisyncFees += request.raisyncFee;\n\n        emit ClaimWithdrawn(\n            claimId,\n            claim.requestId,\n            claimReceiver\n        );\n\n        IERC20 token = IERC20(request.sourceTokenAddress);\n        require(token.transfer(claimReceiver, request.amount), \"Transfer failed\");\n\n        (bool sent,) = claimReceiver.call{value: request.lpFee}(\"\");\n        require(sent, \"Failed to send Ether\");\n    }\n\n    function withdrawRaisyncFees() external onlyOwner {\n        require(collectedRaisyncFees > 0, \"Zero fees available\");\n\n        (bool sent,) = msg.sender.call{value: collectedRaisyncFees}(\"\");\n        require(sent, \"Failed to send Ether\");\n\n        // As this is transferring Eth, no reentrancy is possible here\n        collectedRaisyncFees = 0;\n    }\n\n    function updateFeeData(uint256 newGasPrice, uint256 newServiceFeePPM) external onlyOwner {\n        gasPrice = newGasPrice;\n        serviceFeePPM = newServiceFeePPM;\n    }\n}\n",
  "sourcePath": "contracts/RequestManager.sol",
  "type": "contract"
}