{
  "abi": [
    {
      "inputs": [
        {
          "internalType": "uint96",
          "name": "_claimStake",
          "type": "uint96"
        },
        {
          "internalType": "uint256",
          "name": "_claimRequestExtension",
          "type": "uint256"
        },
        {
          "internalType": "uint256",
          "name": "_claimPeriod",
          "type": "uint256"
        },
        {
          "internalType": "uint256",
          "name": "_challengePeriodExtension",
          "type": "uint256"
        }
      ],
      "stateMutability": "nonpayable",
      "type": "constructor"
    },
    {
      "anonymous": false,
      "inputs": [
        {
          "indexed": true,
          "internalType": "bytes32",
          "name": "requestId",
          "type": "bytes32"
        },
        {
          "indexed": false,
          "internalType": "uint96",
          "name": "claimId",
          "type": "uint96"
        },
        {
          "indexed": false,
          "internalType": "address",
          "name": "claimer",
          "type": "address"
        },
        {
          "indexed": false,
          "internalType": "uint96",
          "name": "claimerStake",
          "type": "uint96"
        },
        {
          "indexed": false,
          "internalType": "address",
          "name": "lastChallenger",
          "type": "address"
        },
        {
          "indexed": false,
          "internalType": "uint96",
          "name": "challengerStakeTotal",
          "type": "uint96"
        },
        {
          "indexed": false,
          "internalType": "uint256",
          "name": "termination",
          "type": "uint256"
        },
        {
          "indexed": false,
          "internalType": "bytes32",
          "name": "fillId",
          "type": "bytes32"
        }
      ],
      "name": "ClaimMade",
      "type": "event"
    },
    {
      "anonymous": false,
      "inputs": [
        {
          "indexed": false,
          "internalType": "uint96",
          "name": "claimId",
          "type": "uint96"
        },
        {
          "indexed": true,
          "internalType": "bytes32",
          "name": "requestId",
          "type": "bytes32"
        },
        {
          "indexed": false,
          "internalType": "address",
          "name": "stakeRecipient",
          "type": "address"
        }
      ],
      "name": "ClaimStakeWithdrawn",
      "type": "event"
    },
    {
      "anonymous": false,
      "inputs": [
        {
          "indexed": false,
          "internalType": "bytes32",
          "name": "requestId",
          "type": "bytes32"
        },
        {
          "indexed": false,
          "internalType": "address",
          "name": "receiver",
          "type": "address"
        }
      ],
      "name": "DepositWithdrawn",
      "type": "event"
    },
    {
      "anonymous": false,
      "inputs": [
        {
          "indexed": false,
          "internalType": "bytes32",
          "name": "requestId",
          "type": "bytes32"
        },
        {
          "indexed": false,
          "internalType": "bytes32",
          "name": "fillId",
          "type": "bytes32"
        }
      ],
      "name": "FillInvalidatedResolved",
      "type": "event"
    },
    {
      "anonymous": false,
      "inputs": [
        {
          "indexed": false,
          "internalType": "uint256",
          "name": "targetChainId",
          "type": "uint256"
        },
        {
          "indexed": false,
          "internalType": "uint256",
          "name": "finalityPeriod",
          "type": "uint256"
        }
      ],
      "name": "FinalityPeriodUpdated",
      "type": "event"
    },
    {
      "anonymous": false,
      "inputs": [
        {
          "indexed": false,
          "internalType": "address",
          "name": "lp",
          "type": "address"
        }
      ],
      "name": "LpAdded",
      "type": "event"
    },
    {
      "anonymous": false,
      "inputs": [
        {
          "indexed": false,
          "internalType": "address",
          "name": "lp",
          "type": "address"
        }
      ],
      "name": "LpRemoved",
      "type": "event"
    },
    {
      "anonymous": false,
      "inputs": [
        {
          "indexed": true,
          "internalType": "address",
          "name": "previousOwner",
          "type": "address"
        },
        {
          "indexed": true,
          "internalType": "address",
          "name": "newOwner",
          "type": "address"
        }
      ],
      "name": "OwnershipTransferred",
      "type": "event"
    },
    {
      "anonymous": false,
      "inputs": [
        {
          "indexed": false,
          "internalType": "address",
          "name": "account",
          "type": "address"
        }
      ],
      "name": "Paused",
      "type": "event"
    },
    {
      "anonymous": false,
      "inputs": [
        {
          "indexed": true,
          "internalType": "bytes32",
          "name": "requestId",
          "type": "bytes32"
        },
        {
          "indexed": false,
          "internalType": "uint256",
          "name": "targetChainId",
          "type": "uint256"
        },
        {
          "indexed": false,
          "internalType": "address",
          "name": "sourceTokenAddress",
          "type": "address"
        },
        {
          "indexed": false,
          "internalType": "address",
          "name": "targetTokenAddress",
          "type": "address"
        },
        {
          "indexed": true,
          "internalType": "address",
          "name": "sourceAddress",
          "type": "address"
        },
        {
          "indexed": false,
          "internalType": "address",
          "name": "targetAddress",
          "type": "address"
        },
        {
          "indexed": false,
          "internalType": "uint256",
          "name": "amount",
          "type": "uint256"
        },
        {
          "indexed": false,
          "internalType": "uint96",
          "name": "nonce",
          "type": "uint96"
        },
        {
          "indexed": false,
          "internalType": "uint32",
          "name": "validUntil",
          "type": "uint32"
        }
      ],
      "name": "RequestCreated",
      "type": "event"
    },
    {
      "anonymous": false,
      "inputs": [
        {
          "indexed": false,
          "internalType": "bytes32",
          "name": "requestId",
          "type": "bytes32"
        },
        {
          "indexed": false,
          "internalType": "address",
          "name": "filler",
          "type": "address"
        },
        {
          "indexed": false,
          "internalType": "bytes32",
          "name": "fillId",
          "type": "bytes32"
        }
      ],
      "name": "RequestResolved",
      "type": "event"
    },
    {
      "anonymous": false,
      "inputs": [
        {
          "indexed": false,
          "internalType": "address",
          "name": "tokenAddress",
          "type": "address"
        },
        {
          "indexed": false,
          "internalType": "uint256",
          "name": "transferLimit",
          "type": "uint256"
        },
        {
          "indexed": false,
          "internalType": "uint96",
          "name": "minLpFee",
          "type": "uint96"
        },
        {
          "indexed": false,
          "internalType": "uint32",
          "name": "lpFeePPM",
          "type": "uint32"
        },
        {
          "indexed": false,
          "internalType": "uint32",
          "name": "protocolFeePPM",
          "type": "uint32"
        }
      ],
      "name": "TokenUpdated",
      "type": "event"
    },
    {
      "anonymous": false,
      "inputs": [
        {
          "indexed": false,
          "internalType": "address",
          "name": "account",
          "type": "address"
        }
      ],
      "name": "Unpaused",
      "type": "event"
    },
    {
      "inputs": [],
      "name": "CLAIM_ID_WITHDRAWN_EXPIRED",
      "outputs": [
        {
          "internalType": "uint96",
          "name": "",
          "type": "uint96"
        }
      ],
      "stateMutability": "view",
      "type": "function"
    },
    {
      "inputs": [],
      "name": "MAX_VALIDITY_PERIOD",
      "outputs": [
        {
          "internalType": "uint256",
          "name": "",
          "type": "uint256"
        }
      ],
      "stateMutability": "view",
      "type": "function"
    },
    {
      "inputs": [],
      "name": "MIN_VALIDITY_PERIOD",
      "outputs": [
        {
          "internalType": "uint256",
          "name": "",
          "type": "uint256"
        }
      ],
      "stateMutability": "view",
      "type": "function"
    },
    {
      "inputs": [
        {
          "internalType": "address",
          "name": "newLp",
          "type": "address"
        }
      ],
      "name": "addAllowedLp",
      "outputs": [],
      "stateMutability": "nonpayable",
      "type": "function"
    },
    {
      "inputs": [
        {
          "internalType": "uint256",
          "name": "callerChainId",
          "type": "uint256"
        },
        {
          "internalType": "address",
          "name": "caller",
          "type": "address"
        },
        {
          "internalType": "address",
          "name": "messenger",
          "type": "address"
        }
      ],
      "name": "addCaller",
      "outputs": [],
      "stateMutability": "nonpayable",
      "type": "function"
    },
    {
      "inputs": [
        {
          "internalType": "address",
          "name": "caller",
          "type": "address"
        }
      ],
      "name": "addCaller",
      "outputs": [],
      "stateMutability": "nonpayable",
      "type": "function"
    },
    {
      "inputs": [
        {
          "internalType": "address",
          "name": "",
          "type": "address"
        }
      ],
      "name": "allowedLps",
      "outputs": [
        {
          "internalType": "bool",
          "name": "",
          "type": "bool"
        }
      ],
      "stateMutability": "view",
      "type": "function"
    },
    {
      "inputs": [
        {
          "internalType": "uint256",
          "name": "",
          "type": "uint256"
        },
        {
          "internalType": "uint256",
          "name": "",
          "type": "uint256"
        }
      ],
      "name": "callers",
      "outputs": [
        {
          "internalType": "address",
          "name": "",
          "type": "address"
        }
      ],
      "stateMutability": "view",
      "type": "function"
    },
    {
      "inputs": [
        {
          "internalType": "uint96",
          "name": "claimId",
          "type": "uint96"
        }
      ],
      "name": "challengeClaim",
      "outputs": [],
      "stateMutability": "payable",
      "type": "function"
    },
    {
      "inputs": [],
      "name": "challengePeriodExtension",
      "outputs": [
        {
          "internalType": "uint256",
          "name": "",
          "type": "uint256"
        }
      ],
      "stateMutability": "view",
      "type": "function"
    },
    {
      "inputs": [],
      "name": "claimPeriod",
      "outputs": [
        {
          "internalType": "uint256",
          "name": "",
          "type": "uint256"
        }
      ],
      "stateMutability": "view",
      "type": "function"
    },
    {
      "inputs": [
        {
          "internalType": "address",
          "name": "claimer",
          "type": "address"
        },
        {
          "internalType": "bytes32",
          "name": "requestId",
          "type": "bytes32"
        },
        {
          "internalType": "bytes32",
          "name": "fillId",
          "type": "bytes32"
        }
      ],
      "name": "claimRequest",
      "outputs": [
        {
          "internalType": "uint96",
          "name": "",
          "type": "uint96"
        }
      ],
      "stateMutability": "payable",
      "type": "function"
    },
    {
      "inputs": [
        {
          "internalType": "bytes32",
          "name": "requestId",
          "type": "bytes32"
        },
        {
          "internalType": "bytes32",
          "name": "fillId",
          "type": "bytes32"
        }
      ],
      "name": "claimRequest",
      "outputs": [
        {
          "internalType": "uint96",
          "name": "",
          "type": "uint96"
        }
      ],
      "stateMutability": "payable",
      "type": "function"
    },
    {
      "inputs": [],
      "name": "claimRequestExtension",
      "outputs": [
        {
          "internalType": "uint256",
          "name": "",
          "type": "uint256"
        }
      ],
      "stateMutability": "view",
      "type": "function"
    },
    {
      "inputs": [],
      "name": "claimStake",
      "outputs": [
        {
          "internalType": "uint96",
          "name": "",
          "type": "uint96"
        }
      ],
      "stateMutability": "view",
      "type": "function"
    },
    {
      "inputs": [
        {
          "internalType": "uint96",
          "name": "",
          "type": "uint96"
        }
      ],
      "name": "claims",
      "outputs": [
        {
          "internalType": "bytes32",
          "name": "requestId",
          "type": "bytes32"
        },
        {
          "internalType": "address",
          "name": "claimer",
          "type": "address"
        },
        {
          "internalType": "uint96",
          "name": "claimerStake",
          "type": "uint96"
        },
        {
          "internalType": "address",
          "name": "lastChallenger",
          "type": "address"
        },
        {
          "internalType": "uint96",
          "name": "challengerStakeTotal",
          "type": "uint96"
        },
        {
          "internalType": "uint256",
          "name": "withdrawnAmount",
          "type": "uint256"
        },
        {
          "internalType": "uint256",
          "name": "termination",
          "type": "uint256"
        },
        {
          "internalType": "bytes32",
          "name": "fillId",
          "type": "bytes32"
        }
      ],
      "stateMutability": "view",
      "type": "function"
    },
    {
      "inputs": [
        {
          "internalType": "uint256",
          "name": "targetChainId",
          "type": "uint256"
        },
        {
          "internalType": "address",
          "name": "sourceTokenAddress",
          "type": "address"
        },
        {
          "internalType": "address",
          "name": "targetTokenAddress",
          "type": "address"
        },
        {
          "internalType": "address",
          "name": "targetAddress",
          "type": "address"
        },
        {
          "internalType": "uint256",
          "name": "amount",
          "type": "uint256"
        },
        {
          "internalType": "uint256",
          "name": "validityPeriod",
          "type": "uint256"
        }
      ],
      "name": "createRequest",
      "outputs": [
        {
          "internalType": "bytes32",
          "name": "",
          "type": "bytes32"
        }
      ],
      "stateMutability": "nonpayable",
      "type": "function"
    },
    {
      "inputs": [],
      "name": "currentNonce",
      "outputs": [
        {
          "internalType": "uint96",
          "name": "",
          "type": "uint96"
        }
      ],
      "stateMutability": "view",
      "type": "function"
    },
    {
      "inputs": [
        {
          "internalType": "uint256",
          "name": "",
          "type": "uint256"
        }
      ],
      "name": "finalityPeriods",
      "outputs": [
        {
          "internalType": "uint256",
          "name": "",
          "type": "uint256"
        }
      ],
      "stateMutability": "view",
      "type": "function"
    },
    {
      "inputs": [
        {
          "internalType": "bytes32",
          "name": "requestId",
          "type": "bytes32"
        },
        {
          "internalType": "bytes32",
          "name": "fillId",
          "type": "bytes32"
        },
        {
          "internalType": "uint256",
          "name": "resolutionChainId",
          "type": "uint256"
        }
      ],
      "name": "invalidateFill",
      "outputs": [],
      "stateMutability": "nonpayable",
      "type": "function"
    },
    {
      "inputs": [
        {
          "internalType": "bytes32",
          "name": "requestId",
          "type": "bytes32"
        },
        {
          "internalType": "bytes32",
          "name": "fillId",
          "type": "bytes32"
        }
      ],
      "name": "isInvalidFill",
      "outputs": [
        {
          "internalType": "bool",
          "name": "",
          "type": "bool"
        }
      ],
      "stateMutability": "view",
      "type": "function"
    },
    {
      "inputs": [
        {
          "internalType": "bytes32",
          "name": "requestId",
          "type": "bytes32"
        }
      ],
      "name": "isWithdrawn",
      "outputs": [
        {
          "internalType": "bool",
          "name": "",
          "type": "bool"
        }
      ],
      "stateMutability": "view",
      "type": "function"
    },
    {
      "inputs": [
        {
          "internalType": "address",
          "name": "tokenAddress",
          "type": "address"
        },
        {
          "internalType": "uint256",
          "name": "amount",
          "type": "uint256"
        }
      ],
      "name": "lpFee",
      "outputs": [
        {
          "internalType": "uint256",
          "name": "",
          "type": "uint256"
        }
      ],
      "stateMutability": "view",
      "type": "function"
    },
    {
      "inputs": [],
      "name": "owner",
      "outputs": [
        {
          "internalType": "address",
          "name": "",
          "type": "address"
        }
      ],
      "stateMutability": "view",
      "type": "function"
    },
    {
      "inputs": [],
      "name": "pause",
      "outputs": [],
      "stateMutability": "nonpayable",
      "type": "function"
    },
    {
      "inputs": [],
      "name": "paused",
      "outputs": [
        {
          "internalType": "bool",
          "name": "",
          "type": "bool"
        }
      ],
      "stateMutability": "view",
      "type": "function"
    },
    {
      "inputs": [
        {
          "internalType": "address",
          "name": "tokenAddress",
          "type": "address"
        },
        {
          "internalType": "uint256",
          "name": "amount",
          "type": "uint256"
        }
      ],
      "name": "protocolFee",
      "outputs": [
        {
          "internalType": "uint256",
          "name": "",
          "type": "uint256"
        }
      ],
      "stateMutability": "view",
      "type": "function"
    },
    {
      "inputs": [
        {
          "internalType": "address",
          "name": "oldLp",
          "type": "address"
        }
      ],
      "name": "removeAllowedLp",
      "outputs": [],
      "stateMutability": "nonpayable",
      "type": "function"
    },
    {
      "inputs": [],
      "name": "renounceOwnership",
      "outputs": [],
      "stateMutability": "nonpayable",
      "type": "function"
    },
    {
      "inputs": [
        {
          "internalType": "bytes32",
          "name": "",
          "type": "bytes32"
        }
      ],
      "name": "requests",
      "outputs": [
        {
          "internalType": "address",
          "name": "sender",
          "type": "address"
        },
        {
          "internalType": "address",
          "name": "sourceTokenAddress",
          "type": "address"
        },
        {
          "internalType": "uint256",
          "name": "targetChainId",
          "type": "uint256"
        },
        {
          "internalType": "uint256",
          "name": "amount",
          "type": "uint256"
        },
        {
          "internalType": "uint32",
          "name": "validUntil",
          "type": "uint32"
        },
        {
          "internalType": "uint96",
          "name": "lpFee",
          "type": "uint96"
        },
        {
          "internalType": "uint96",
          "name": "protocolFee",
          "type": "uint96"
        },
        {
          "internalType": "uint32",
          "name": "activeClaims",
          "type": "uint32"
        },
        {
          "internalType": "uint96",
          "name": "withdrawClaimId",
          "type": "uint96"
        },
        {
          "internalType": "address",
          "name": "filler",
          "type": "address"
        },
        {
          "internalType": "bytes32",
          "name": "fillId",
          "type": "bytes32"
        }
      ],
      "stateMutability": "view",
      "type": "function"
    },
    {
      "inputs": [
        {
          "internalType": "bytes32",
          "name": "requestId",
          "type": "bytes32"
        },
        {
          "internalType": "bytes32",
          "name": "fillId",
          "type": "bytes32"
        },
        {
          "internalType": "uint256",
          "name": "resolutionChainId",
          "type": "uint256"
        },
        {
          "internalType": "address",
          "name": "filler",
          "type": "address"
        }
      ],
      "name": "resolveRequest",
      "outputs": [],
      "stateMutability": "nonpayable",
      "type": "function"
    },
    {
      "inputs": [
        {
          "internalType": "uint256",
          "name": "targetChainId",
          "type": "uint256"
        },
        {
          "internalType": "uint256",
          "name": "finalityPeriod",
          "type": "uint256"
        }
      ],
      "name": "setFinalityPeriod",
      "outputs": [],
      "stateMutability": "nonpayable",
      "type": "function"
    },
    {
      "inputs": [
        {
          "internalType": "address",
          "name": "",
          "type": "address"
        }
      ],
      "name": "tokens",
      "outputs": [
        {
          "internalType": "uint256",
          "name": "transferLimit",
          "type": "uint256"
        },
        {
          "internalType": "uint96",
          "name": "minLpFee",
          "type": "uint96"
        },
        {
          "internalType": "uint32",
          "name": "lpFeePPM",
          "type": "uint32"
        },
        {
          "internalType": "uint32",
          "name": "protocolFeePPM",
          "type": "uint32"
        },
        {
          "internalType": "uint96",
          "name": "collectedProtocolFees",
          "type": "uint96"
        }
      ],
      "stateMutability": "view",
      "type": "function"
    },
    {
      "inputs": [
        {
          "internalType": "address",
          "name": "tokenAddress",
          "type": "address"
        },
        {
          "internalType": "uint256",
          "name": "amount",
          "type": "uint256"
        }
      ],
      "name": "totalFee",
      "outputs": [
        {
          "internalType": "uint256",
          "name": "",
          "type": "uint256"
        }
      ],
      "stateMutability": "view",
      "type": "function"
    },
    {
      "inputs": [
        {
          "internalType": "address",
          "name": "newOwner",
          "type": "address"
        }
      ],
      "name": "transferOwnership",
      "outputs": [],
      "stateMutability": "nonpayable",
      "type": "function"
    },
    {
      "inputs": [],
      "name": "unpause",
      "outputs": [],
      "stateMutability": "nonpayable",
      "type": "function"
    },
    {
      "inputs": [
        {
          "internalType": "address",
          "name": "tokenAddress",
          "type": "address"
        },
        {
          "internalType": "uint256",
          "name": "transferLimit",
          "type": "uint256"
        },
        {
          "internalType": "uint96",
          "name": "minLpFee",
          "type": "uint96"
        },
        {
          "internalType": "uint32",
          "name": "lpFeePPM",
          "type": "uint32"
        },
        {
          "internalType": "uint32",
          "name": "protocolFeePPM",
          "type": "uint32"
        }
      ],
      "name": "updateToken",
      "outputs": [],
      "stateMutability": "nonpayable",
      "type": "function"
    },
    {
      "inputs": [
        {
          "internalType": "address",
          "name": "participant",
          "type": "address"
        },
        {
          "internalType": "uint96",
          "name": "claimId",
          "type": "uint96"
        }
      ],
      "name": "withdraw",
      "outputs": [
        {
          "internalType": "address",
          "name": "",
          "type": "address"
        }
      ],
      "stateMutability": "nonpayable",
      "type": "function"
    },
    {
      "inputs": [
        {
          "internalType": "uint96",
          "name": "claimId",
          "type": "uint96"
        }
      ],
      "name": "withdraw",
      "outputs": [
        {
          "internalType": "address",
          "name": "",
          "type": "address"
        }
      ],
      "stateMutability": "nonpayable",
      "type": "function"
    },
    {
      "inputs": [
        {
          "internalType": "bytes32",
          "name": "requestId",
          "type": "bytes32"
        }
      ],
      "name": "withdrawExpiredRequest",
      "outputs": [],
      "stateMutability": "nonpayable",
      "type": "function"
    },
    {
      "inputs": [
        {
          "internalType": "address",
          "name": "tokenAddress",
          "type": "address"
        },
        {
          "internalType": "address",
          "name": "recipient",
          "type": "address"
        }
      ],
      "name": "withdrawProtocolFees",
      "outputs": [],
      "stateMutability": "nonpayable",
      "type": "function"
    }
  ],
  "bytecode": "6101006040523480156200001257600080fd5b50604051620039ab380380620039ab8339810160408190526200003591620000ba565b62000040336200006a565b6003805460ff191690556001600160601b0390931660805260a09190915260c05260e05262000107565b600080546001600160a01b038381166001600160a01b0319831681178455604051919092169283917f8be0079c531659141344cd1fd0a4f28419497f9722a3daafe3b4186f6b6457e09190a35050565b60008060008060808587031215620000d157600080fd5b84516001600160601b0381168114620000e957600080fd5b60208601516040870151606090970151919890975090945092505050565b60805160a05160c05160e05161384762000164600039600081816103100152612214015260008181610619015261156f01526000818161064d01526113560152600081816109c30152818161143201526123b501526138476000f3fe6080604052600436106102465760003560e01c8063747293fb116101395780639d866985116100b6578063d137920b1161007a578063d137920b146108bc578063dee4dea0146108dc578063e4860339146108fc578063ea62889814610996578063eb321173146109b1578063f2fde38b146109e557600080fd5b80639d866985146107195780639e37522614610834578063adb610a314610864578063b4d1d27a14610889578063cf7b287f1461089c57600080fd5b80638c8c3c9d116100fd5780638c8c3c9d146106845780638da5cb5b146106a4578063909ef10c146106c257806396171d05146106e2578063962ddf89146106f957600080fd5b8063747293fb146105c757806379650559146105e75780637dc2cd981461060757806383d208c31461063b5780638456cb591461066f57600080fd5b806331e08f7a116101c75780635b3a6ef21161018b5780635b3a6ef2146105475780635c975abb14610567578063715018a61461057f5780637203ae3b14610594578063743c151a146105b457600080fd5b806331e08f7a146103fe5780633993b6ed1461041e5780633b046f091461043e5780633f4ba83a14610507578063599b08a21461051c57600080fd5b80632c9af6b71161020e5780632c9af6b7146103325780632f4212b8146103525780632f92f0091461037257806330a08cbc1461039f57806330b72906146103de57600080fd5b806303fc4c371461024b5780630e19a1c61461026d5780630e3a918c146102aa5780631489f8d2146102da5780631d18adc5146102fe575b600080fd5b34801561025757600080fd5b5061026b61026636600461323d565b610a05565b005b34801561027957600080fd5b5061028d610288366004613269565b610c56565b6040516001600160a01b0390911681526020015b60405180910390f35b3480156102b657600080fd5b506102ca6102c536600461328b565b610c84565b60405190151581526020016102a1565b3480156102e657600080fd5b506102f061070881565b6040519081526020016102a1565b34801561030a57600080fd5b506102f07f000000000000000000000000000000000000000000000000000000000000000081565b34801561033e57600080fd5b506102f061034d3660046132c0565b610cdd565b34801561035e57600080fd5b506102f061036d3660046132ea565b610d04565b34801561037e57600080fd5b506102f061038d36600461328b565b60046020526000908152604090205481565b3480156103ab57600080fd5b506102ca6103ba366004613269565b60009182526005602090815260408084209284526007909201905290205460ff1690565b3480156103ea57600080fd5b506102f06103f93660046132c0565b61119e565b34801561040a57600080fd5b5061026b610419366004613349565b6111e0565b34801561042a57600080fd5b5061026b610439366004613349565b611244565b34801561044a57600080fd5b506104b661045936600461337b565b600660208190526000918252604090912080546001820154600383015460048401546005850154949095015492946001600160a01b03808416956001600160601b03600160a01b9586900481169692851695909404909316929088565b604080519889526001600160a01b0397881660208a01526001600160601b03968716908901529590931660608701529216608085015260a084019190915260c083015260e0820152610100016102a1565b34801561051357600080fd5b5061026b61129d565b61052f61052a366004613396565b6112af565b6040516001600160601b0390911681526020016102a1565b34801561055357600080fd5b5061026b6105623660046133c9565b61167f565b34801561057357600080fd5b5060035460ff166102ca565b34801561058b57600080fd5b5061026b611830565b3480156105a057600080fd5b5061026b6105af366004613408565b611842565b61052f6105c2366004613269565b61185a565b3480156105d357600080fd5b5061026b6105e2366004613349565b6118f1565b3480156105f357600080fd5b5061026b61060236600461328b565b611908565b34801561061357600080fd5b506102f07f000000000000000000000000000000000000000000000000000000000000000081565b34801561064757600080fd5b506102f07f000000000000000000000000000000000000000000000000000000000000000081565b34801561067b57600080fd5b5061026b611b20565b34801561069057600080fd5b5061028d61069f366004613444565b611b30565b3480156106b057600080fd5b506000546001600160a01b031661028d565b3480156106ce57600080fd5b506102f06106dd3660046132c0565b611eb5565b3480156106ee57600080fd5b506102f06202a30081565b34801561070557600080fd5b5061026b61071436600461348b565b611f14565b34801561072557600080fd5b506107be61073436600461328b565b600560208190526000918252604090912080546001820154600283015460038401546004850154958501546006909501546001600160a01b0394851696938516959294919363ffffffff808216946001600160601b036401000000008404811695600160801b8504821695600160e01b9095049093169390821692600160601b909204909116908b565b604080516001600160a01b039c8d1681529a8c1660208c01528a0198909852606089019690965263ffffffff94851660808901526001600160601b0393841660a089015291831660c088015290921660e086015216610100840152909216610120820152610140810191909152610160016102a1565b34801561084057600080fd5b506102ca61084f366004613349565b60016020526000908152604090205460ff1681565b34801561087057600080fd5b5060035461052f9061010090046001600160601b031681565b61026b61089736600461337b565b61208b565b3480156108a857600080fd5b5061026b6108b73660046134e9565b61259c565b3480156108c857600080fd5b5061026b6108d7366004613269565b612645565b3480156108e857600080fd5b5061028d6108f736600461337b565b6126fb565b34801561090857600080fd5b5061095e610917366004613349565b600760205260009081526040902080546001909101546001600160601b038082169163ffffffff600160601b8204811692600160801b830490911691600160a01b90041685565b604080519586526001600160601b03948516602087015263ffffffff938416908601529116606084015216608082015260a0016102a1565b3480156109a257600080fd5b5061052f6001600160601b0381565b3480156109bd57600080fd5b5061052f7f000000000000000000000000000000000000000000000000000000000000000081565b3480156109f157600080fd5b5061026b610a00366004613349565b612748565b60008181526002602052604090205481906001600160a01b0316468203610a5c57336001600160a01b03821614610a575760405162461bcd60e51b8152600401610a4e90613513565b60405180910390fd5b610b22565b6000828152600260205260409020600101546001600160a01b031680610a945760405162461bcd60e51b8152600401610a4e90613548565b60405163845c544360e01b81526001600160a01b03838116600483015233602483015282169063845c544390604401602060405180830381865afa158015610ae0573d6000803e3d6000fd5b505050506040513d601f19601f82011682018060405250810190610b04919061358a565b610b205760405162461bcd60e51b8152600401610a4e90613513565b505b600085815260056020819052604090912090810154600160601b90046001600160a01b031615610b945760405162461bcd60e51b815260206004820181905260248201527f43616e6e6f7420696e76616c6964617465207265736f6c7665642066696c6c736044820152606401610a4e565b600085815260078201602052604090205460ff1615610bf05760405162461bcd60e51b8152602060048201526018602482015277119a5b1b08185b1c9958591e481a5b9d985b1a59185d195960421b6044820152606401610a4e565b600085815260078201602052604090819020805460ff19166001179055517f5571b83c623961fb42d39ce6d6d2092153ace66c008e2dc2472ec6d2e8fad04590610c469088908890918252602082015260400190565b60405180910390a1505050505050565b60026020528160005260406000208160028110610c7257600080fd5b01546001600160a01b03169150829050565b60008181526005602052604081205482906001600160a01b0316610cba5760405162461bcd60e51b8152600401610a4e906135ac565b5050600090815260056020819052604090912001546001600160601b0316151590565b6000610ce9838361119e565b610cf38484611eb5565b610cfd91906135ef565b9392505050565b6000610d0e6127be565b6000878152600460205260408120549003610d6b5760405162461bcd60e51b815260206004820152601b60248201527f54617267657420726f6c6c7570206e6f7420737570706f7274656400000000006044820152606401610a4e565b610708821015610dbd5760405162461bcd60e51b815260206004820152601960248201527f56616c696469747920706572696f6420746f6f2073686f7274000000000000006044820152606401610a4e565b6202a300821115610e105760405162461bcd60e51b815260206004820152601860248201527f56616c696469747920706572696f6420746f6f206c6f6e6700000000000000006044820152606401610a4e565b6001600160a01b038616600090815260076020526040902054831115610e785760405162461bcd60e51b815260206004820152601d60248201527f416d6f756e742065786365656473207472616e73666572206c696d69740000006044820152606401610a4e565b6000610e848785611eb5565b90506000610e92888661119e565b905080610e9f83876135ef565b610ea991906135ef565b604051636eb1769f60e11b81523360048201523060248201526001600160a01b038a169063dd62ed3e90604401602060405180830381865afa158015610ef3573d6000803e3d6000fd5b505050506040513d601f19601f82011682018060405250810190610f179190613607565b1015610f5e5760405162461bcd60e51b8152602060048201526016602482015275496e73756666696369656e7420616c6c6f77616e636560501b6044820152606401610a4e565b600354600090610f7d9061010090046001600160601b03166001613620565b600380546001600160601b038316610100026cffffffffffffffffffffffff001990911617905560408051466020808301919091528183018e90526001600160601b031960608d811b8216818501528c901b166074830152608882018a90526001600160a01b031960a085901b1660a88301528251808303609401815260b4909201909252805191012090915060009060008181526005602052604090208054336001600160a01b03199182161782556001820180549091166001600160a01b038e16179055600281018d90556003810189905590915061105e87426135ef565b8160040160006101000a81548163ffffffff021916908363ffffffff160217905550848160040160046101000a8154816001600160601b0302191690836001600160601b03160217905550838160040160106101000a8154816001600160601b0302191690836001600160601b03160217905550336001600160a01b0316827f869ab8728bdae6aae9b6d728da37437ccf3ddfd7a141903f22cb8324739683de8e8e8e8e8e8a8f4261111091906135ef565b604080519788526001600160a01b0396871660208901529486168786015292909416606086015260808501526001600160601b0390921660a084015263ffffffff90911660c0830152519081900360e00190a361118f333086611173898d6135ef565b61117d91906135ef565b6001600160a01b038f16929190612804565b509a9950505050505050505050565b6001600160a01b038216600090815260076020526040812060010154620f4240906111d690600160801b900463ffffffff168461364b565b610cfd919061366a565b6111e861286f565b6001600160a01b038116600081815260016020818152604092839020805460ff191690921790915590519182527f371fc559c30f70424413fed6bf7e57dc939651331abad5c970a8ea0921c80b2e91015b60405180910390a150565b61124c61286f565b6001600160a01b038116600081815260016020908152604091829020805460ff1916905590519182527f4e774c97f73f4bea034579e4224498d7d9b3a4109eaa70ed3d85c97a5855f1989101611239565b6112a561286f565b6112ad6128c9565b565b60008281526005602052604081205483906001600160a01b03166112e55760405162461bcd60e51b8152600401610a4e906135ac565b6001600160a01b038516600090815260016020526040902054859060ff1661133d5760405162461bcd60e51b815260206004820152600b60248201526a139bdd08185b1b1bddd95960aa1b6044820152606401610a4e565b60008581526005602052604090206004810154611381907f00000000000000000000000000000000000000000000000000000000000000009063ffffffff166135ef565b42106113d95760405162461bcd60e51b815260206004820152602160248201527f526571756573742063616e6e6f7420626520636c61696d656420616e796d6f726044820152606560f81b6064820152608401610a4e565b60058101546001600160601b0316156114305760405162461bcd60e51b81526020600482015260196024820152782232b837b9b4ba1030b63932b0b23c903bb4ba34323930bbb760391b6044820152606401610a4e565b7f00000000000000000000000000000000000000000000000000000000000000006001600160601b0316341461149f5760405162461bcd60e51b8152602060048201526014602482015273125b9d985b1a59081cdd185ad948185b5bdd5b9d60621b6044820152606401610a4e565b846114e55760405162461bcd60e51b8152602060048201526016602482015275046696c6c4964206d757374206e6f74206265203078360541b6044820152606401610a4e565b600181600401601c8282829054906101000a900463ffffffff16611509919061368c565b825463ffffffff91821661010093840a908102920219161790915560035460009250611541916001600160601b039104166001613620565b600380546cffffffffffffffffffffffff0019166101006001600160601b03841602179055905060006115947f0000000000000000000000000000000000000000000000000000000000000000426135ef565b9050600060066000846001600160601b03166001600160601b031681526020019081526020016000209050888160000181905550898160010160006101000a8154816001600160a01b0302191690836001600160a01b03160217905550348160010160146101000a8154816001600160601b0302191690836001600160601b03160217905550818160050181905550878160060181905550887ff0289b2c09d4e59035c29451cfbb75c07a50fdcc68db2eccef5a84db99285e44848c34600080888f60405161166997969594939291906136ab565b60405180910390a2509098975050505050505050565b60008281526002602052604090205482906001600160a01b03164682036116cd57336001600160a01b038216146116c85760405162461bcd60e51b8152600401610a4e90613513565b611793565b6000828152600260205260409020600101546001600160a01b0316806117055760405162461bcd60e51b8152600401610a4e90613548565b60405163845c544360e01b81526001600160a01b03838116600483015233602483015282169063845c544390604401602060405180830381865afa158015611751573d6000803e3d6000fd5b505050506040513d601f19601f82011682018060405250810190611775919061358a565b6117915760405162461bcd60e51b8152600401610a4e90613513565b505b600086815260056020818152604080842092830180546001600160601b0316600160601b6001600160a01b038a1690810291909117909155600684018a905589855260078401835293819020805460ff1916905580518a815291820193909352918201879052907fb32d3c8b5539b0cc3050d5b75e9dad8eca8744a0892259bda27fdb51b99567369060600160405180910390a150505050505050565b61183861286f565b6112ad600061291b565b61184a61286f565b61185583838361296b565b505050565b60008281526005602052604081205483906001600160a01b03166118905760405162461bcd60e51b8152600401610a4e906135ac565b3360008181526001602052604090205460ff166118dd5760405162461bcd60e51b815260206004820152600b60248201526a139bdd08185b1b1bddd95960aa1b6044820152606401610a4e565b6118e83386866112af565b95945050505050565b6118f961286f565b6119054682600061296b565b50565b60008181526005602052604090205481906001600160a01b031661193e5760405162461bcd60e51b8152600401610a4e906135ac565b6000828152600560208190526040909120908101546001600160601b0316156119a55760405162461bcd60e51b81526020600482015260196024820152782232b837b9b4ba1030b63932b0b23c903bb4ba34323930bbb760391b6044820152606401610a4e565b600481015463ffffffff164210156119ff5760405162461bcd60e51b815260206004820152601760248201527f52657175657374206e6f742065787069726564207965740000000000000000006044820152606401610a4e565b6004810154600160e01b900463ffffffff1615611a565760405162461bcd60e51b815260206004820152601560248201527441637469766520636c61696d732072756e6e696e6760581b6044820152606401610a4e565b6005810180546001600160601b0319166001600160601b031790558054604080518581526001600160a01b0390921660208301527fab63a14c4aaba38366fd39116091672bb44520328ee870be35a51e573296e565910160405180910390a160018101548154600483015460038401546001600160a01b0393841693611b1a9316916001600160601b03600160801b8204811692611aff926401000000009004909116906135ef565b611b0991906135ef565b6001600160a01b0384169190612a7d565b50505050565b611b2861286f565b6112ad612aad565b6001600160601b03811660009081526006602052604081206001015482906001600160a01b0316611b735760405162461bcd60e51b8152600401610a4e906136f7565b6001600160601b038316600090815260066020526040902060018101546001600160a01b03908116908616811480611bcd57506001600160a01b03861660009081526002830160205260409020546001600160601b031615155b611c295760405162461bcd60e51b815260206004820152602760248201527f4e6f7420616e20616374697665207061727469636970616e7420696e207468696044820152667320636c61696d60c81b6064820152608401610a4e565b815460008181526005602052604081209080611c458a8a612aea565b6001600160a01b038216600090815260028901602052604090205491935091506001600160601b031615611c9c576001600160a01b0382166000908152600287016020526040902080546001600160601b03191690555b60048601546000819003611ced57600184600401601c8282829054906101000a900463ffffffff16611cce9190613722565b92506101000a81548163ffffffff021916908363ffffffff1602179055505b611cf782826135ef565b6004880181905560038801546001890154919250611d2c916001600160601b03600160a01b9283900481169290910416613620565b6001600160601b0316811115611d845760405162461bcd60e51b815260206004820152601c60248201527f416d6f756e7420746f20776974686472617720746f6f206c61726765000000006044820152606401610a4e565b6000836001600160a01b03168360405160006040518083038185875af1925050503d8060008114611dd1576040519150601f19603f3d011682016040523d82523d6000602084013e611dd6565b606091505b5050905080611e1e5760405162461bcd60e51b81526020600482015260146024820152732330b4b632b2103a379039b2b7321022ba3432b960611b6044820152606401610a4e565b604080516001600160601b038d1681526001600160a01b038616602082015287917fc9e74e0700d0c6488af9c81d70fdd4158aea77687137ff85499509c41a10612b910160405180910390a260058501546001600160601b0316158015611e965750866001600160a01b0316846001600160a01b0316145b15611ea557611ea5858c612e4d565b50919a9950505050505050505050565b6001600160a01b03821660009081526007602052604081206001810154611f0c906001600160601b03811690620f424090611efd90600160601b900463ffffffff168761364b565b611f07919061366a565b612f7c565b949350505050565b611f1c61286f565b620f423f8263ffffffff161115611f755760405162461bcd60e51b815260206004820152601e60248201527f4d6178696d756d2050504d206f662039393939393920657863656564656400006044820152606401610a4e565b620f423f8163ffffffff161115611fce5760405162461bcd60e51b815260206004820152601e60248201527f4d6178696d756d2050504d206f662039393939393920657863656564656400006044820152606401610a4e565b6001600160a01b0385166000818152600760209081526040918290208781556001810180546001600160601b0389166fffffffffffffffffffffffffffffffff199091168117600160601b63ffffffff8a81169182029290921763ffffffff60801b1916600160801b928a169283021790935585519687529386018a90529385019390935260608401929092526080830152907fb226edffd2920f3fe08961dc98b19d4815bbe75af416f5e82ca7bf7be50350c49060a001610c46565b6001600160601b03811660009081526006602052604090206001015481906001600160a01b03166120ce5760405162461bcd60e51b8152600401610a4e906136f7565b6001600160601b03821660009081526006602052604090208054600582015442811161212c5760405162461bcd60e51b815260206004820152600d60248201526c10db185a5b48195e1c1a5c9959609a1b6044820152606401610a4e565b60008281526005602081905260409091200154600160601b90046001600160a01b03161561219c5760405162461bcd60e51b815260206004820152601860248201527f5265717565737420616c7265616479207265736f6c76656400000000000000006044820152606401610a4e565b60008281526005602090815260408083206006870154845260070190915290205460ff16156122085760405162461bcd60e51b8152602060048201526018602482015277119a5b1b08185b1c9958591e481a5b9d985b1a59185d195960421b6044820152606401610a4e565b600183015460038401547f0000000000000000000000000000000000000000000000000000000000000000916001600160a01b038116916001600160601b03600160a01b92839004811692909104168082111561236257806001600160601b031660000361229c576000868152600560209081526040808320600201548352600490915290205461229990856135ef565b93505b6001600160a01b03831633036122f45760405162461bcd60e51b815260206004820152601a60248201527f43616e6e6f74206368616c6c656e6765206f776e20636c61696d0000000000006044820152606401610a4e565b6122fe8183613747565b612309906001613620565b6001600160601b031634101561235d5760405162461bcd60e51b8152602060048201526019602482015278139bdd08195b9bdd59da081cdd185ad9481c1c9bdd9a591959603a1b6044820152606401610a4e565b61243c565b336001600160a01b038416146123b35760405162461bcd60e51b8152602060048201526016602482015275139bdd08195b1a59da589b19481d1bc81bdd5d189a5960521b6044820152606401610a4e565b7f00000000000000000000000000000000000000000000000000000000000000006123de8383613747565b6123e89190613620565b6001600160601b031634101561243c5760405162461bcd60e51b8152602060048201526019602482015278139bdd08195b9bdd59da081cdd185ad9481c1c9bdd9a591959603a1b6044820152606401610a4e565b6001600160a01b038316330361247f576124563483613620565b6001880180546001600160a01b0316600160a01b6001600160601b038416021790559150612514565b6003870180546001600160a01b031916339081179091556000908152600288016020526040812080543492906124bf9084906001600160601b0316613620565b92506101000a8154816001600160601b0302191690836001600160601b0316021790555034816124ef9190613620565b6003880180546001600160a01b0316600160a01b6001600160601b0384160217905590505b8461251f85426135ef565b11156125395761252f84426135ef565b6005880181905594505b6003870154600688015460405188927ff0289b2c09d4e59035c29451cfbb75c07a50fdcc68db2eccef5a84db99285e4492612589928e92899289926001600160a01b039092169189918e916136ab565b60405180910390a2505050505050505050565b6125a461286f565b6001600160a01b038216600090815260076020526040902060010154600160a01b90046001600160601b0316806126145760405162461bcd60e51b815260206004820152601460248201527350726f746f636f6c20666565206973207a65726f60601b6044820152606401610a4e565b6001600160a01b03808416600081815260076020526040902060010180549092169091558390611b1a908484612a7d565b61264d61286f565b600081116126ac5760405162461bcd60e51b815260206004820152602660248201527f46696e616c69747920706572696f64206d75737420626520677265617465722060448201526507468616e20360d41b6064820152608401610a4e565b60008281526004602090815260409182902083905581518481529081018390527faba57b48b9f1dfd5747a52ed348a6ab6aa7bafb0575363a5cb7b62659f727b65910160405180910390a15050565b6001600160601b03811660009081526006602052604081206001015482906001600160a01b031661273e5760405162461bcd60e51b8152600401610a4e906136f7565b610cfd3384611b30565b61275061286f565b6001600160a01b0381166127b55760405162461bcd60e51b815260206004820152602660248201527f4f776e61626c653a206e6577206f776e657220697320746865207a65726f206160448201526564647265737360d01b6064820152608401610a4e565b6119058161291b565b60035460ff16156112ad5760405162461bcd60e51b815260206004820152601060248201526f14185d5cd8589b194e881c185d5cd95960821b6044820152606401610a4e565b6040516001600160a01b0380851660248301528316604482015260648101829052611b1a9085906323b872dd60e01b906084015b60408051601f198184030181529190526020810180516001600160e01b03166001600160e01b031990931692909217909152612f92565b6000546001600160a01b031633146112ad5760405162461bcd60e51b815260206004820181905260248201527f4f776e61626c653a2063616c6c6572206973206e6f7420746865206f776e65726044820152606401610a4e565b6128d1613064565b6003805460ff191690557f5db9ee0a495bf2e6ff9c91a7834c1ba4fdd244a5e8aa4e537bd38aeae4b073aa335b6040516001600160a01b03909116815260200160405180910390a1565b600080546001600160a01b038381166001600160a01b0319831681178455604051919092169283917f8be0079c531659141344cd1fd0a4f28419497f9722a3daafe3b4186f6b6457e09190a35050565b6001600160a01b0382166129cd5760405162461bcd60e51b815260206004820152602360248201527f5265737472696374656443616c6c733a2063616c6c65722063616e6e6f74206260448201526206520360ec1b6064820152608401610a4e565b6000838152600260205260409020546001600160a01b031615612a415760405162461bcd60e51b815260206004820152602660248201527f5265737472696374656443616c6c733a2063616c6c657220616c72656164792060448201526565786973747360d01b6064820152608401610a4e565b6040805180820182526001600160a01b0380851682528316602080830191909152600086815260029182905292909220611b1a929091906131d0565b6040516001600160a01b03831660248201526044810182905261185590849063a9059cbb60e01b90606401612838565b612ab56127be565b6003805460ff191660011790557f62e78cea01bee320cd4e420270b5ea74000d11b0c9f74754ebdbfc544b05a2586128fe3390565b6001600160601b03808216600090815260066020908152604080832080548452600592839052908320918201546001820154600383015494958695939493928116926001600160a01b03831692600160a01b90819004831692910416612b508183613620565b6001600160601b0316866004015410612bab5760405162461bcd60e51b815260206004820152601760248201527f436c61696d20616c72656164792077697468647261776e0000000000000000006044820152606401610a4e565b60058501546006860154600091600160601b90046001600160a01b0316908115612bfa57856001600160a01b0316826001600160a01b0316148015612bf35750886006015481145b9250612cf2565b600081815260078901602052604090205460ff1615612c1c5760009250612cf2565b6001600160601b03871615612c86576001600160601b0387166000908152600660205260409020600101546001600160a01b038781169116148015612bf357506001600160601b0387166000908152600660208190526040909120810154908a0154149250612cf2565b8860050154421015612cda5760405162461bcd60e51b815260206004820152601960248201527f436c61696d20706572696f64206e6f742066696e6973686564000000000000006044820152606401610a4e565b836001600160601b0316856001600160601b03161192505b6000808415612d0e575086612d078688613620565b9150612dcc565b6001600160601b03861615612dbb57506001600160a01b038e1660009081526002808c016020526040909120548f91612d50916001600160601b031690613767565b91506000826001600160601b031611612db65760405162461bcd60e51b815260206004820152602260248201527f4368616c6c656e67657220686173206e6f7468696e6720746f20776974686472604482015261617760f01b6064820152608401610a4e565b612dcc565b505060005485906001600160a01b03165b60038b01546001600160a01b0390811690821603612e3057856001600160601b0316876001600160601b03161115612e1957612e088688613747565b612e129083613620565b9150612e30565b612e238787613747565b612e2d9083613747565b91505b9b506001600160601b031699505050505050505050509250929050565b6001600160601b0381166000908152600660209081526040918290206001810154815484519081526001600160a01b0390911692810183905290927fab63a14c4aaba38366fd39116091672bb44520328ee870be35a51e573296e565910160405180910390a16005840180546001600160601b0319166001600160601b038581169190911790915560048501546001808701546001600160a01b03166000908152600760205260409020018054600160801b9092048316929091601491612f1e918591600160a01b90910416613620565b82546101009290920a6001600160601b038181021990931691831602179091556001860154600487015460038801546001600160a01b039092169350612f75928592611b09926401000000009004909116906135ef565b5050505050565b6000818311612f8b5781610cfd565b5090919050565b6000612fe7826040518060400160405280602081526020017f5361666545524332303a206c6f772d6c6576656c2063616c6c206661696c6564815250856001600160a01b03166130ad9092919063ffffffff16565b8051909150156118555780806020019051810190613005919061358a565b6118555760405162461bcd60e51b815260206004820152602a60248201527f5361666545524332303a204552433230206f7065726174696f6e20646964206e6044820152691bdd081cdd58d8d9595960b21b6064820152608401610a4e565b60035460ff166112ad5760405162461bcd60e51b815260206004820152601460248201527314185d5cd8589b194e881b9bdd081c185d5cd95960621b6044820152606401610a4e565b6060611f0c848460008585600080866001600160a01b031685876040516130d491906137c2565b60006040518083038185875af1925050503d8060008114613111576040519150601f19603f3d011682016040523d82523d6000602084013e613116565b606091505b509150915061312787838387613132565b979650505050505050565b606083156131a157825160000361319a576001600160a01b0385163b61319a5760405162461bcd60e51b815260206004820152601d60248201527f416464726573733a2063616c6c20746f206e6f6e2d636f6e74726163740000006044820152606401610a4e565b5081611f0c565b611f0c83838151156131b65781518083602001fd5b8060405162461bcd60e51b8152600401610a4e91906137de565b8260028101928215613218579160200282015b8281111561321857825182546001600160a01b0319166001600160a01b039091161782556020909201916001909101906131e3565b50613224929150613228565b5090565b5b808211156132245760008155600101613229565b60008060006060848603121561325257600080fd5b505081359360208301359350604090920135919050565b6000806040838503121561327c57600080fd5b50508035926020909101359150565b60006020828403121561329d57600080fd5b5035919050565b80356001600160a01b03811681146132bb57600080fd5b919050565b600080604083850312156132d357600080fd5b6132dc836132a4565b946020939093013593505050565b60008060008060008060c0878903121561330357600080fd5b86359550613313602088016132a4565b9450613321604088016132a4565b935061332f606088016132a4565b92506080870135915060a087013590509295509295509295565b60006020828403121561335b57600080fd5b610cfd826132a4565b80356001600160601b03811681146132bb57600080fd5b60006020828403121561338d57600080fd5b610cfd82613364565b6000806000606084860312156133ab57600080fd5b6133b4846132a4565b95602085013595506040909401359392505050565b600080600080608085870312156133df57600080fd5b8435935060208501359250604085013591506133fd606086016132a4565b905092959194509250565b60008060006060848603121561341d57600080fd5b8335925061342d602085016132a4565b915061343b604085016132a4565b90509250925092565b6000806040838503121561345757600080fd5b613460836132a4565b915061346e60208401613364565b90509250929050565b803563ffffffff811681146132bb57600080fd5b600080600080600060a086880312156134a357600080fd5b6134ac866132a4565b9450602086013593506134c160408701613364565b92506134cf60608701613477565b91506134dd60808701613477565b90509295509295909350565b600080604083850312156134fc57600080fd5b613505836132a4565b915061346e602084016132a4565b6020808252818101527f5265737472696374656443616c6c733a2063616c6c20646973616c6c6f776564604082015260600190565b60208082526022908201527f5265737472696374656443616c6c733a206d657373656e676572206e6f742073604082015261195d60f21b606082015260800190565b60006020828403121561359c57600080fd5b81518015158114610cfd57600080fd5b6020808252601390820152721c995c5d595cdd1259081b9bdd081d985b1a59606a1b604082015260600190565b634e487b7160e01b600052601160045260246000fd5b60008219821115613602576136026135d9565b500190565b60006020828403121561361957600080fd5b5051919050565b60006001600160601b03808316818516808303821115613642576136426135d9565b01949350505050565b6000816000190483118215151615613665576136656135d9565b500290565b60008261368757634e487b7160e01b600052601260045260246000fd5b500490565b600063ffffffff808316818516808303821115613642576136426135d9565b6001600160601b0397881681526001600160a01b0396871660208201529487166040860152929094166060840152909316608082015260a081019190915260c081019190915260e00190565b60208082526011908201527018db185a5b5259081b9bdd081d985b1a59607a1b604082015260600190565b600063ffffffff8381169083168181101561373f5761373f6135d9565b039392505050565b60006001600160601b038381169083168181101561373f5761373f6135d9565b60006001600160601b038083168185168183048111821515161561378d5761378d6135d9565b02949350505050565b60005b838110156137b1578181015183820152602001613799565b83811115611b1a5750506000910152565b600082516137d4818460208701613796565b9190910192915050565b60208152600082518060208401526137fd816040850160208701613796565b601f01601f1916919091016040019291505056fea26469706673582212208a6471dcaf5e5887c64048fd3336d74f9e85b8a7067884527687c09915fb92c464736f6c634300080d0033",
  "bytecodeSha1": "502d6a496d6e37375d711ab896891b447ed2ba7c",
  "compiler": {
    "evm_version": "london",
    "optimizer": {
      "enabled": true,
      "runs": 200
    },
    "version": "0.8.13+commit.abaa5c0e"
  },
  "contractName": "RequestManager",
  "language": "Solidity",
  "natspec": {
    "kind": "dev",
    "methods": {
      "CLAIM_ID_WITHDRAWN_EXPIRED()": {
        "notice": "withdrawClaimId is set to this value when an expired request gets withdrawn by the sender"
      },
      "MAX_VALIDITY_PERIOD()": {
        "notice": "The maximum validity period of a request."
      },
      "MIN_VALIDITY_PERIOD()": {
        "notice": "The minimum validity period of a request."
      },
      "addAllowedLp(address)": {
        "notice": "Add a liquidity provider to the set of allowed liquidity providers. .. note:: This function can only be called by the contract owner.",
        "params": {
          "newLp": "The liquidity provider."
        }
      },
      "addCaller(address)": {
        "notice": "Allow calls from an address on the same chain.",
        "params": {
          "caller": "The caller."
        }
      },
      "addCaller(uint256,address,address)": {
        "notice": "Allow calls from an address on another chain.",
        "params": {
          "caller": "The caller.",
          "callerChainId": "The caller's chain ID.",
          "messenger": "The messenger."
        }
      },
      "allowedLps(address)": {
        "notice": "The mapping indicating whether liquidity providers have allowance or not"
      },
      "callers(uint256,uint256)": {
        "notice": "Maps caller chain IDs to tuples [caller, messenger]. For same-chain calls, the messenger address is 0x0."
      },
      "challengeClaim(uint96)": {
        "notice": "Challenge an existing claim. The claim must still be valid at call time. This function implements one round of the challenge game. The original claimer is allowed to call this function only after someone else made a challenge, i.e. every second round. However, once the original claimer counter-challenges, anyone can join the game and make another challenge. The caller must provide enough native tokens as their stake. For the original claimer, the minimum stake is ``challengerStakeTotal - claimerStake + claimStake``. For challengers, the minimum stake is ``claimerStake - challengerStakeTotal + 1``. An example (time flows downwards, claimStake = 10)::   claimRequest() by Max [stakes 10]   challengeClaim() by Alice [stakes 11]   challengeClaim() by Max [stakes 11]   challengeClaim() by Bob [stakes 16] In this example, if Max didn't want to lose the challenge game to Alice and Bob, he would have to challenge with a stake of at least 16.",
        "params": {
          "claimId": "The claim ID."
        }
      },
      "challengePeriodExtension()": {
        "notice": "The period by which the termination time of a claim is extended after each round of the challenge game. This period should allow enough time for the other parties to counter-challenge. .. note::    The claim's termination time is extended only if it is less than the    extension time. Note that in the first challenge round, i.e. the round initiated by the first challenger, the termination time is extended additionally by the finality period of the target chain. This is done to allow for L1 resolution."
      },
      "claimPeriod()": {
        "notice": "The period for which the claim is valid."
      },
      "claimRequest(address,bytes32,bytes32)": {
        "notice": "Claim that a request was filled. The request must still be valid at call time. The caller must provide the ``claimStake`` amount of source rollup's native token. Only the claimer may get the stake back later.",
        "params": {
          "claimer": "Address of the claimer.",
          "fillId": "The fill ID.",
          "requestId": "ID of the request."
        },
        "returns": {
          "_0": "The claim ID."
        }
      },
      "claimRequest(bytes32,bytes32)": {
        "notice": "Claim that a request was filled by the caller. The request must still be valid at call time. The caller must provide the ``claimStake`` amount of source rollup's native token.",
        "params": {
          "fillId": "The fill ID.",
          "requestId": "ID of the request."
        },
        "returns": {
          "_0": "The claim ID."
        }
      },
      "claimRequestExtension()": {
        "notice": "The additional time given to claim a request. This value is added to the validity period of a request."
      },
      "claimStake()": {
        "notice": "The minimum amount of source chain's native token that the claimer needs to provide when making a claim, as well in each round of the challenge game."
      },
      "claims(uint96)": {
        "notice": "Maps claim IDs to claims."
      },
      "constructor": {
        "notice": "Constructor.",
        "params": {
          "_challengePeriodExtension": "Challenge period extension, in seconds.",
          "_claimPeriod": "Claim period, in seconds.",
          "_claimRequestExtension": "Extension to claim a request after validity period ends.",
          "_claimStake": "Claim stake amount."
        }
      },
      "createRequest(uint256,address,address,address,uint256,uint256)": {
        "notice": "Create a new transfer request.",
        "params": {
          "amount": "Amount of tokens to transfer. Does not include fees.",
          "sourceTokenAddress": "Address of the token contract on the source chain.",
          "targetAddress": "Recipient address on the target chain.",
          "targetChainId": "ID of the target chain.",
          "targetTokenAddress": "Address of the token contract on the target chain.",
          "validityPeriod": "The number of seconds the request is to be considered valid.                       Once its validity period has elapsed, the request cannot be claimed                       anymore and will eventually expire, allowing the request submitter                       to withdraw the deposited tokens if there are no active claims."
        },
        "returns": {
          "_0": "ID of the newly created request."
        }
      },
      "currentNonce()": {
        "notice": "A counter used to generate request and claim IDs. The variable holds the most recently used nonce and must be incremented to get the next nonce"
      },
      "finalityPeriods(uint256)": {
        "notice": "Maps target rollup chain IDs to finality periods. Finality periods are in seconds."
      },
      "invalidateFill(bytes32,bytes32,uint256)": {
        "notice": "Mark the fill identified by ``requestId`` and ``fillId`` as invalid. .. note::     This function is a restricted call function. Only callable by the added caller.",
        "params": {
          "fillId": "The fill ID.",
          "requestId": "The request ID.",
          "resolutionChainId": "The resolution (L1) chain ID."
        }
      },
      "isInvalidFill(bytes32,bytes32)": {
        "notice": "Returns whether a fill is invalidated or not Calling invalidateFill() will set this boolean to true, marking that the ``fillId`` for the corresponding ``requestId`` was invalidated. Calling resolveRequest will validate it again, setting request.invalidatedFills[fillId] to false. .. seealso:: :sol:func:`invalidateFill` .. seealso:: :sol:func:`resolveRequest`",
        "params": {
          "fillId": "The fill ID",
          "requestId": "The request ID"
        },
        "returns": {
          "_0": "Whether the fill ID is invalid for the given request ID"
        }
      },
      "isWithdrawn(bytes32)": {
        "notice": "Returns whether a request's deposit was withdrawn or not This can be true in two cases: 1. The deposit was withdrawn after the request was claimed and filled. 2. The submitter withdrew the deposit after the request's expiry. .. seealso:: :sol:func:`withdraw` .. seealso:: :sol:func:`withdrawExpiredRequest`",
        "params": {
          "requestId": "The request ID"
        },
        "returns": {
          "_0": "Whether the deposit corresponding to the given request ID was withdrawn"
        }
      },
      "lpFee(address,uint256)": {
        "notice": "Compute the liquidity provider fee that needs to be paid for a given transfer amount."
      },
      "owner()": {
        "details": "Returns the address of the current owner."
      },
      "pause()": {
        "notice": "Pauses the contract. Once the contract is paused, it cannot be used to create new requests anymore. Withdrawing deposited funds and claim stakes still works, though. .. note:: This function can only be called when the contract is not paused. .. note:: This function can only be called by the contract owner."
      },
      "paused()": {
        "details": "Returns true if the contract is paused, and false otherwise."
      },
      "protocolFee(address,uint256)": {
        "notice": "Compute the protocol fee that needs to be paid for a given transfer amount."
      },
      "removeAllowedLp(address)": {
        "notice": "Remove a liquidity provider from the set of allowed liquidity providers. .. note:: This function can only be called by the contract owner.",
        "params": {
          "oldLp": "The liquidity provider."
        }
      },
      "renounceOwnership()": {
        "details": "Leaves the contract without owner. It will not be possible to call `onlyOwner` functions anymore. Can only be called by the current owner. NOTE: Renouncing ownership will leave the contract without an owner, thereby removing any functionality that is only available to the owner."
      },
      "requests(bytes32)": {
        "notice": "Maps request IDs to requests."
      },
      "resolveRequest(bytes32,bytes32,uint256,address)": {
        "notice": "Mark the request identified by ``requestId`` as filled by ``filler``. .. note::     This function is a restricted call function. Only callable by the added caller.",
        "params": {
          "fillId": "The fill ID.",
          "filler": "The address that filled the request.",
          "requestId": "The request ID.",
          "resolutionChainId": "The resolution (L1) chain ID."
        }
      },
      "setFinalityPeriod(uint256,uint256)": {
        "notice": "Set the finality period for the given target chain. .. note:: This function can only be called by the contract owner.",
        "params": {
          "finalityPeriod": "Finality period in seconds.",
          "targetChainId": "The target chain ID."
        }
      },
      "tokens(address)": {
        "notice": "Maps ERC20 token address to tokens"
      },
      "totalFee(address,uint256)": {
        "notice": "Compute the total fee that needs to be paid for a given transfer amount. The total fee is the sum of the liquidity provider fee and the protocol fee."
      },
      "transferOwnership(address)": {
        "details": "Transfers ownership of the contract to a new account (`newOwner`). Can only be called by the current owner."
      },
      "unpause()": {
        "notice": "Unpauses the contract. Once the contract is unpaused, it can be used normally. .. note:: This function can only be called when the contract is paused. .. note:: This function can only be called by the contract owner."
      },
      "withdraw(address,uint96)": {
        "notice": "Withdraw the deposit that the request submitter left with the contract, as well as the staked native tokens associated with the claim. This function is called on behalf of a participant. Only a participant may receive the funds if he is the winner of the challenge or the claim is valid. In case the caller of this function is a challenger that won the game, they will only get their staked native tokens plus the reward in the form of full (sole challenger) or partial (multiple challengers) amount of native tokens staked by the dishonest claimer.",
        "params": {
          "claimId": "The claim ID.",
          "participant": "The participant."
        },
        "returns": {
          "_0": "The claim stakes receiver."
        }
      },
      "withdraw(uint96)": {
        "notice": "Withdraw the deposit that the request submitter left with the contract, as well as the staked native tokens associated with the claim. In case the caller of this function is a challenger that won the game, they will only get their staked native tokens plus the reward in the form of full (sole challenger) or partial (multiple challengers) amount of native tokens staked by the dishonest claimer.",
        "params": {
          "claimId": "The claim ID."
        },
        "returns": {
          "_0": "The claim stakes receiver."
        }
      },
      "withdrawExpiredRequest(bytes32)": {
        "notice": "Withdraw funds deposited with an expired request. No claims must be active for the request.",
        "params": {
          "requestId": "ID of the expired request."
        }
      },
      "withdrawProtocolFees(address,address)": {
        "notice": "Withdraw protocol fees collected by the contract. Protocol fees are paid in token transferred. .. note:: This function can only be called by the contract owner.",
        "params": {
          "recipient": "The address the fees should be sent to.",
          "tokenAddress": "The address of the token contract."
        }
      }
    },
    "notice": "The request manager. This contract is responsible for keeping track of transfer requests, implementing the rules of the challenge game and holding deposited tokens until they are withdrawn. The information passed by L1 resolution will be stored with the respective requests. It is the only contract that agents need to interact with on the source chain. .. note::   The functions resolveRequest and invalidateFill can only be called by   the :sol:contract:`Resolver` contract, via a chain-dependent messenger contract.",
    "version": 1
  },
  "opcodes": "PUSH1 0x80 PUSH1 0x40 MSTORE PUSH1 0x4 CALLDATASIZE LT PUSH2 0x246 JUMPI PUSH1 0x0 CALLDATALOAD PUSH1 0xE0 SHR DUP1 PUSH4 0x747293FB GT PUSH2 0x139 JUMPI DUP1 PUSH4 0x9D866985 GT PUSH2 0xB6 JUMPI DUP1 PUSH4 0xD137920B GT PUSH2 0x7A JUMPI DUP1 PUSH4 0xD137920B EQ PUSH2 0x8BC JUMPI DUP1 PUSH4 0xDEE4DEA0 EQ PUSH2 0x8DC JUMPI DUP1 PUSH4 0xE4860339 EQ PUSH2 0x8FC JUMPI DUP1 PUSH4 0xEA628898 EQ PUSH2 0x996 JUMPI DUP1 PUSH4 0xEB321173 EQ PUSH2 0x9B1 JUMPI DUP1 PUSH4 0xF2FDE38B EQ PUSH2 0x9E5 JUMPI PUSH1 0x0 DUP1 REVERT JUMPDEST DUP1 PUSH4 0x9D866985 EQ PUSH2 0x719 JUMPI DUP1 PUSH4 0x9E375226 EQ PUSH2 0x834 JUMPI DUP1 PUSH4 0xADB610A3 EQ PUSH2 0x864 JUMPI DUP1 PUSH4 0xB4D1D27A EQ PUSH2 0x889 JUMPI DUP1 PUSH4 0xCF7B287F EQ PUSH2 0x89C JUMPI PUSH1 0x0 DUP1 REVERT JUMPDEST DUP1 PUSH4 0x8C8C3C9D GT PUSH2 0xFD JUMPI DUP1 PUSH4 0x8C8C3C9D EQ PUSH2 0x684 JUMPI DUP1 PUSH4 0x8DA5CB5B EQ PUSH2 0x6A4 JUMPI DUP1 PUSH4 0x909EF10C EQ PUSH2 0x6C2 JUMPI DUP1 PUSH4 0x96171D05 EQ PUSH2 0x6E2 JUMPI DUP1 PUSH4 0x962DDF89 EQ PUSH2 0x6F9 JUMPI PUSH1 0x0 DUP1 REVERT JUMPDEST DUP1 PUSH4 0x747293FB EQ PUSH2 0x5C7 JUMPI DUP1 PUSH4 0x79650559 EQ PUSH2 0x5E7 JUMPI DUP1 PUSH4 0x7DC2CD98 EQ PUSH2 0x607 JUMPI DUP1 PUSH4 0x83D208C3 EQ PUSH2 0x63B JUMPI DUP1 PUSH4 0x8456CB59 EQ PUSH2 0x66F JUMPI PUSH1 0x0 DUP1 REVERT JUMPDEST DUP1 PUSH4 0x31E08F7A GT PUSH2 0x1C7 JUMPI DUP1 PUSH4 0x5B3A6EF2 GT PUSH2 0x18B JUMPI DUP1 PUSH4 0x5B3A6EF2 EQ PUSH2 0x547 JUMPI DUP1 PUSH4 0x5C975ABB EQ PUSH2 0x567 JUMPI DUP1 PUSH4 0x715018A6 EQ PUSH2 0x57F JUMPI DUP1 PUSH4 0x7203AE3B EQ PUSH2 0x594 JUMPI DUP1 PUSH4 0x743C151A EQ PUSH2 0x5B4 JUMPI PUSH1 0x0 DUP1 REVERT JUMPDEST DUP1 PUSH4 0x31E08F7A EQ PUSH2 0x3FE JUMPI DUP1 PUSH4 0x3993B6ED EQ PUSH2 0x41E JUMPI DUP1 PUSH4 0x3B046F09 EQ PUSH2 0x43E JUMPI DUP1 PUSH4 0x3F4BA83A EQ PUSH2 0x507 JUMPI DUP1 PUSH4 0x599B08A2 EQ PUSH2 0x51C JUMPI PUSH1 0x0 DUP1 REVERT JUMPDEST DUP1 PUSH4 0x2C9AF6B7 GT PUSH2 0x20E JUMPI DUP1 PUSH4 0x2C9AF6B7 EQ PUSH2 0x332 JUMPI DUP1 PUSH4 0x2F4212B8 EQ PUSH2 0x352 JUMPI DUP1 PUSH4 0x2F92F009 EQ PUSH2 0x372 JUMPI DUP1 PUSH4 0x30A08CBC EQ PUSH2 0x39F JUMPI DUP1 PUSH4 0x30B72906 EQ PUSH2 0x3DE JUMPI PUSH1 0x0 DUP1 REVERT JUMPDEST DUP1 PUSH4 0x3FC4C37 EQ PUSH2 0x24B JUMPI DUP1 PUSH4 0xE19A1C6 EQ PUSH2 0x26D JUMPI DUP1 PUSH4 0xE3A918C EQ PUSH2 0x2AA JUMPI DUP1 PUSH4 0x1489F8D2 EQ PUSH2 0x2DA JUMPI DUP1 PUSH4 0x1D18ADC5 EQ PUSH2 0x2FE JUMPI JUMPDEST PUSH1 0x0 DUP1 REVERT JUMPDEST CALLVALUE DUP1 ISZERO PUSH2 0x257 JUMPI PUSH1 0x0 DUP1 REVERT JUMPDEST POP PUSH2 0x26B PUSH2 0x266 CALLDATASIZE PUSH1 0x4 PUSH2 0x323D JUMP JUMPDEST PUSH2 0xA05 JUMP JUMPDEST STOP JUMPDEST CALLVALUE DUP1 ISZERO PUSH2 0x279 JUMPI PUSH1 0x0 DUP1 REVERT JUMPDEST POP PUSH2 0x28D PUSH2 0x288 CALLDATASIZE PUSH1 0x4 PUSH2 0x3269 JUMP JUMPDEST PUSH2 0xC56 JUMP JUMPDEST PUSH1 0x40 MLOAD PUSH1 0x1 PUSH1 0x1 PUSH1 0xA0 SHL SUB SWAP1 SWAP2 AND DUP2 MSTORE PUSH1 0x20 ADD JUMPDEST PUSH1 0x40 MLOAD DUP1 SWAP2 SUB SWAP1 RETURN JUMPDEST CALLVALUE DUP1 ISZERO PUSH2 0x2B6 JUMPI PUSH1 0x0 DUP1 REVERT JUMPDEST POP PUSH2 0x2CA PUSH2 0x2C5 CALLDATASIZE PUSH1 0x4 PUSH2 0x328B JUMP JUMPDEST PUSH2 0xC84 JUMP JUMPDEST PUSH1 0x40 MLOAD SWAP1 ISZERO ISZERO DUP2 MSTORE PUSH1 0x20 ADD PUSH2 0x2A1 JUMP JUMPDEST CALLVALUE DUP1 ISZERO PUSH2 0x2E6 JUMPI PUSH1 0x0 DUP1 REVERT JUMPDEST POP PUSH2 0x2F0 PUSH2 0x708 DUP2 JUMP JUMPDEST PUSH1 0x40 MLOAD SWAP1 DUP2 MSTORE PUSH1 0x20 ADD PUSH2 0x2A1 JUMP JUMPDEST CALLVALUE DUP1 ISZERO PUSH2 0x30A JUMPI PUSH1 0x0 DUP1 REVERT JUMPDEST POP PUSH2 0x2F0 PUSH32 0x0 DUP2 JUMP JUMPDEST CALLVALUE DUP1 ISZERO PUSH2 0x33E JUMPI PUSH1 0x0 DUP1 REVERT JUMPDEST POP PUSH2 0x2F0 PUSH2 0x34D CALLDATASIZE PUSH1 0x4 PUSH2 0x32C0 JUMP JUMPDEST PUSH2 0xCDD JUMP JUMPDEST CALLVALUE DUP1 ISZERO PUSH2 0x35E JUMPI PUSH1 0x0 DUP1 REVERT JUMPDEST POP PUSH2 0x2F0 PUSH2 0x36D CALLDATASIZE PUSH1 0x4 PUSH2 0x32EA JUMP JUMPDEST PUSH2 0xD04 JUMP JUMPDEST CALLVALUE DUP1 ISZERO PUSH2 0x37E JUMPI PUSH1 0x0 DUP1 REVERT JUMPDEST POP PUSH2 0x2F0 PUSH2 0x38D CALLDATASIZE PUSH1 0x4 PUSH2 0x328B JUMP JUMPDEST PUSH1 0x4 PUSH1 0x20 MSTORE PUSH1 0x0 SWAP1 DUP2 MSTORE PUSH1 0x40 SWAP1 KECCAK256 SLOAD DUP2 JUMP JUMPDEST CALLVALUE DUP1 ISZERO PUSH2 0x3AB JUMPI PUSH1 0x0 DUP1 REVERT JUMPDEST POP PUSH2 0x2CA PUSH2 0x3BA CALLDATASIZE PUSH1 0x4 PUSH2 0x3269 JUMP JUMPDEST PUSH1 0x0 SWAP2 DUP3 MSTORE PUSH1 0x5 PUSH1 0x20 SWAP1 DUP2 MSTORE PUSH1 0x40 DUP1 DUP5 KECCAK256 SWAP3 DUP5 MSTORE PUSH1 0x7 SWAP1 SWAP3 ADD SWAP1 MSTORE SWAP1 KECCAK256 SLOAD PUSH1 0xFF AND SWAP1 JUMP JUMPDEST CALLVALUE DUP1 ISZERO PUSH2 0x3EA JUMPI PUSH1 0x0 DUP1 REVERT JUMPDEST POP PUSH2 0x2F0 PUSH2 0x3F9 CALLDATASIZE PUSH1 0x4 PUSH2 0x32C0 JUMP JUMPDEST PUSH2 0x119E JUMP JUMPDEST CALLVALUE DUP1 ISZERO PUSH2 0x40A JUMPI PUSH1 0x0 DUP1 REVERT JUMPDEST POP PUSH2 0x26B PUSH2 0x419 CALLDATASIZE PUSH1 0x4 PUSH2 0x3349 JUMP JUMPDEST PUSH2 0x11E0 JUMP JUMPDEST CALLVALUE DUP1 ISZERO PUSH2 0x42A JUMPI PUSH1 0x0 DUP1 REVERT JUMPDEST POP PUSH2 0x26B PUSH2 0x439 CALLDATASIZE PUSH1 0x4 PUSH2 0x3349 JUMP JUMPDEST PUSH2 0x1244 JUMP JUMPDEST CALLVALUE DUP1 ISZERO PUSH2 0x44A JUMPI PUSH1 0x0 DUP1 REVERT JUMPDEST POP PUSH2 0x4B6 PUSH2 0x459 CALLDATASIZE PUSH1 0x4 PUSH2 0x337B JUMP JUMPDEST PUSH1 0x6 PUSH1 0x20 DUP2 SWAP1 MSTORE PUSH1 0x0 SWAP2 DUP3 MSTORE PUSH1 0x40 SWAP1 SWAP2 KECCAK256 DUP1 SLOAD PUSH1 0x1 DUP3 ADD SLOAD PUSH1 0x3 DUP4 ADD SLOAD PUSH1 0x4 DUP5 ADD SLOAD PUSH1 0x5 DUP6 ADD SLOAD SWAP5 SWAP1 SWAP6 ADD SLOAD SWAP3 SWAP5 PUSH1 0x1 PUSH1 0x1 PUSH1 0xA0 SHL SUB DUP1 DUP5 AND SWAP6 PUSH1 0x1 PUSH1 0x1 PUSH1 0x60 SHL SUB PUSH1 0x1 PUSH1 0xA0 SHL SWAP6 DUP7 SWAP1 DIV DUP2 AND SWAP7 SWAP3 DUP6 AND SWAP6 SWAP1 SWAP5 DIV SWAP1 SWAP4 AND SWAP3 SWAP1 DUP9 JUMP JUMPDEST PUSH1 0x40 DUP1 MLOAD SWAP9 DUP10 MSTORE PUSH1 0x1 PUSH1 0x1 PUSH1 0xA0 SHL SUB SWAP8 DUP9 AND PUSH1 0x20 DUP11 ADD MSTORE PUSH1 0x1 PUSH1 0x1 PUSH1 0x60 SHL SUB SWAP7 DUP8 AND SWAP1 DUP10 ADD MSTORE SWAP6 SWAP1 SWAP4 AND PUSH1 0x60 DUP8 ADD MSTORE SWAP3 AND PUSH1 0x80 DUP6 ADD MSTORE PUSH1 0xA0 DUP5 ADD SWAP2 SWAP1 SWAP2 MSTORE PUSH1 0xC0 DUP4 ADD MSTORE PUSH1 0xE0 DUP3 ADD MSTORE PUSH2 0x100 ADD PUSH2 0x2A1 JUMP JUMPDEST CALLVALUE DUP1 ISZERO PUSH2 0x513 JUMPI PUSH1 0x0 DUP1 REVERT JUMPDEST POP PUSH2 0x26B PUSH2 0x129D JUMP JUMPDEST PUSH2 0x52F PUSH2 0x52A CALLDATASIZE PUSH1 0x4 PUSH2 0x3396 JUMP JUMPDEST PUSH2 0x12AF JUMP JUMPDEST PUSH1 0x40 MLOAD PUSH1 0x1 PUSH1 0x1 PUSH1 0x60 SHL SUB SWAP1 SWAP2 AND DUP2 MSTORE PUSH1 0x20 ADD PUSH2 0x2A1 JUMP JUMPDEST CALLVALUE DUP1 ISZERO PUSH2 0x553 JUMPI PUSH1 0x0 DUP1 REVERT JUMPDEST POP PUSH2 0x26B PUSH2 0x562 CALLDATASIZE PUSH1 0x4 PUSH2 0x33C9 JUMP JUMPDEST PUSH2 0x167F JUMP JUMPDEST CALLVALUE DUP1 ISZERO PUSH2 0x573 JUMPI PUSH1 0x0 DUP1 REVERT JUMPDEST POP PUSH1 0x3 SLOAD PUSH1 0xFF AND PUSH2 0x2CA JUMP JUMPDEST CALLVALUE DUP1 ISZERO PUSH2 0x58B JUMPI PUSH1 0x0 DUP1 REVERT JUMPDEST POP PUSH2 0x26B PUSH2 0x1830 JUMP JUMPDEST CALLVALUE DUP1 ISZERO PUSH2 0x5A0 JUMPI PUSH1 0x0 DUP1 REVERT JUMPDEST POP PUSH2 0x26B PUSH2 0x5AF CALLDATASIZE PUSH1 0x4 PUSH2 0x3408 JUMP JUMPDEST PUSH2 0x1842 JUMP JUMPDEST PUSH2 0x52F PUSH2 0x5C2 CALLDATASIZE PUSH1 0x4 PUSH2 0x3269 JUMP JUMPDEST PUSH2 0x185A JUMP JUMPDEST CALLVALUE DUP1 ISZERO PUSH2 0x5D3 JUMPI PUSH1 0x0 DUP1 REVERT JUMPDEST POP PUSH2 0x26B PUSH2 0x5E2 CALLDATASIZE PUSH1 0x4 PUSH2 0x3349 JUMP JUMPDEST PUSH2 0x18F1 JUMP JUMPDEST CALLVALUE DUP1 ISZERO PUSH2 0x5F3 JUMPI PUSH1 0x0 DUP1 REVERT JUMPDEST POP PUSH2 0x26B PUSH2 0x602 CALLDATASIZE PUSH1 0x4 PUSH2 0x328B JUMP JUMPDEST PUSH2 0x1908 JUMP JUMPDEST CALLVALUE DUP1 ISZERO PUSH2 0x613 JUMPI PUSH1 0x0 DUP1 REVERT JUMPDEST POP PUSH2 0x2F0 PUSH32 0x0 DUP2 JUMP JUMPDEST CALLVALUE DUP1 ISZERO PUSH2 0x647 JUMPI PUSH1 0x0 DUP1 REVERT JUMPDEST POP PUSH2 0x2F0 PUSH32 0x0 DUP2 JUMP JUMPDEST CALLVALUE DUP1 ISZERO PUSH2 0x67B JUMPI PUSH1 0x0 DUP1 REVERT JUMPDEST POP PUSH2 0x26B PUSH2 0x1B20 JUMP JUMPDEST CALLVALUE DUP1 ISZERO PUSH2 0x690 JUMPI PUSH1 0x0 DUP1 REVERT JUMPDEST POP PUSH2 0x28D PUSH2 0x69F CALLDATASIZE PUSH1 0x4 PUSH2 0x3444 JUMP JUMPDEST PUSH2 0x1B30 JUMP JUMPDEST CALLVALUE DUP1 ISZERO PUSH2 0x6B0 JUMPI PUSH1 0x0 DUP1 REVERT JUMPDEST POP PUSH1 0x0 SLOAD PUSH1 0x1 PUSH1 0x1 PUSH1 0xA0 SHL SUB AND PUSH2 0x28D JUMP JUMPDEST CALLVALUE DUP1 ISZERO PUSH2 0x6CE JUMPI PUSH1 0x0 DUP1 REVERT JUMPDEST POP PUSH2 0x2F0 PUSH2 0x6DD CALLDATASIZE PUSH1 0x4 PUSH2 0x32C0 JUMP JUMPDEST PUSH2 0x1EB5 JUMP JUMPDEST CALLVALUE DUP1 ISZERO PUSH2 0x6EE JUMPI PUSH1 0x0 DUP1 REVERT JUMPDEST POP PUSH2 0x2F0 PUSH3 0x2A300 DUP2 JUMP JUMPDEST CALLVALUE DUP1 ISZERO PUSH2 0x705 JUMPI PUSH1 0x0 DUP1 REVERT JUMPDEST POP PUSH2 0x26B PUSH2 0x714 CALLDATASIZE PUSH1 0x4 PUSH2 0x348B JUMP JUMPDEST PUSH2 0x1F14 JUMP JUMPDEST CALLVALUE DUP1 ISZERO PUSH2 0x725 JUMPI PUSH1 0x0 DUP1 REVERT JUMPDEST POP PUSH2 0x7BE PUSH2 0x734 CALLDATASIZE PUSH1 0x4 PUSH2 0x328B JUMP JUMPDEST PUSH1 0x5 PUSH1 0x20 DUP2 SWAP1 MSTORE PUSH1 0x0 SWAP2 DUP3 MSTORE PUSH1 0x40 SWAP1 SWAP2 KECCAK256 DUP1 SLOAD PUSH1 0x1 DUP3 ADD SLOAD PUSH1 0x2 DUP4 ADD SLOAD PUSH1 0x3 DUP5 ADD SLOAD PUSH1 0x4 DUP6 ADD SLOAD SWAP6 DUP6 ADD SLOAD PUSH1 0x6 SWAP1 SWAP6 ADD SLOAD PUSH1 0x1 PUSH1 0x1 PUSH1 0xA0 SHL SUB SWAP5 DUP6 AND SWAP7 SWAP4 DUP6 AND SWAP6 SWAP3 SWAP5 SWAP2 SWAP4 PUSH4 0xFFFFFFFF DUP1 DUP3 AND SWAP5 PUSH1 0x1 PUSH1 0x1 PUSH1 0x60 SHL SUB PUSH5 0x100000000 DUP5 DIV DUP2 AND SWAP6 PUSH1 0x1 PUSH1 0x80 SHL DUP6 DIV DUP3 AND SWAP6 PUSH1 0x1 PUSH1 0xE0 SHL SWAP1 SWAP6 DIV SWAP1 SWAP4 AND SWAP4 SWAP1 DUP3 AND SWAP3 PUSH1 0x1 PUSH1 0x60 SHL SWAP1 SWAP3 DIV SWAP1 SWAP2 AND SWAP1 DUP12 JUMP JUMPDEST PUSH1 0x40 DUP1 MLOAD PUSH1 0x1 PUSH1 0x1 PUSH1 0xA0 SHL SUB SWAP13 DUP14 AND DUP2 MSTORE SWAP11 DUP13 AND PUSH1 0x20 DUP13 ADD MSTORE DUP11 ADD SWAP9 SWAP1 SWAP9 MSTORE PUSH1 0x60 DUP10 ADD SWAP7 SWAP1 SWAP7 MSTORE PUSH4 0xFFFFFFFF SWAP5 DUP6 AND PUSH1 0x80 DUP10 ADD MSTORE PUSH1 0x1 PUSH1 0x1 PUSH1 0x60 SHL SUB SWAP4 DUP5 AND PUSH1 0xA0 DUP10 ADD MSTORE SWAP2 DUP4 AND PUSH1 0xC0 DUP9 ADD MSTORE SWAP1 SWAP3 AND PUSH1 0xE0 DUP7 ADD MSTORE AND PUSH2 0x100 DUP5 ADD MSTORE SWAP1 SWAP3 AND PUSH2 0x120 DUP3 ADD MSTORE PUSH2 0x140 DUP2 ADD SWAP2 SWAP1 SWAP2 MSTORE PUSH2 0x160 ADD PUSH2 0x2A1 JUMP JUMPDEST CALLVALUE DUP1 ISZERO PUSH2 0x840 JUMPI PUSH1 0x0 DUP1 REVERT JUMPDEST POP PUSH2 0x2CA PUSH2 0x84F CALLDATASIZE PUSH1 0x4 PUSH2 0x3349 JUMP JUMPDEST PUSH1 0x1 PUSH1 0x20 MSTORE PUSH1 0x0 SWAP1 DUP2 MSTORE PUSH1 0x40 SWAP1 KECCAK256 SLOAD PUSH1 0xFF AND DUP2 JUMP JUMPDEST CALLVALUE DUP1 ISZERO PUSH2 0x870 JUMPI PUSH1 0x0 DUP1 REVERT JUMPDEST POP PUSH1 0x3 SLOAD PUSH2 0x52F SWAP1 PUSH2 0x100 SWAP1 DIV PUSH1 0x1 PUSH1 0x1 PUSH1 0x60 SHL SUB AND DUP2 JUMP JUMPDEST PUSH2 0x26B PUSH2 0x897 CALLDATASIZE PUSH1 0x4 PUSH2 0x337B JUMP JUMPDEST PUSH2 0x208B JUMP JUMPDEST CALLVALUE DUP1 ISZERO PUSH2 0x8A8 JUMPI PUSH1 0x0 DUP1 REVERT JUMPDEST POP PUSH2 0x26B PUSH2 0x8B7 CALLDATASIZE PUSH1 0x4 PUSH2 0x34E9 JUMP JUMPDEST PUSH2 0x259C JUMP JUMPDEST CALLVALUE DUP1 ISZERO PUSH2 0x8C8 JUMPI PUSH1 0x0 DUP1 REVERT JUMPDEST POP PUSH2 0x26B PUSH2 0x8D7 CALLDATASIZE PUSH1 0x4 PUSH2 0x3269 JUMP JUMPDEST PUSH2 0x2645 JUMP JUMPDEST CALLVALUE DUP1 ISZERO PUSH2 0x8E8 JUMPI PUSH1 0x0 DUP1 REVERT JUMPDEST POP PUSH2 0x28D PUSH2 0x8F7 CALLDATASIZE PUSH1 0x4 PUSH2 0x337B JUMP JUMPDEST PUSH2 0x26FB JUMP JUMPDEST CALLVALUE DUP1 ISZERO PUSH2 0x908 JUMPI PUSH1 0x0 DUP1 REVERT JUMPDEST POP PUSH2 0x95E PUSH2 0x917 CALLDATASIZE PUSH1 0x4 PUSH2 0x3349 JUMP JUMPDEST PUSH1 0x7 PUSH1 0x20 MSTORE PUSH1 0x0 SWAP1 DUP2 MSTORE PUSH1 0x40 SWAP1 KECCAK256 DUP1 SLOAD PUSH1 0x1 SWAP1 SWAP2 ADD SLOAD PUSH1 0x1 PUSH1 0x1 PUSH1 0x60 SHL SUB DUP1 DUP3 AND SWAP2 PUSH4 0xFFFFFFFF PUSH1 0x1 PUSH1 0x60 SHL DUP3 DIV DUP2 AND SWAP3 PUSH1 0x1 PUSH1 0x80 SHL DUP4 DIV SWAP1 SWAP2 AND SWAP2 PUSH1 0x1 PUSH1 0xA0 SHL SWAP1 DIV AND DUP6 JUMP JUMPDEST PUSH1 0x40 DUP1 MLOAD SWAP6 DUP7 MSTORE PUSH1 0x1 PUSH1 0x1 PUSH1 0x60 SHL SUB SWAP5 DUP6 AND PUSH1 0x20 DUP8 ADD MSTORE PUSH4 0xFFFFFFFF SWAP4 DUP5 AND SWAP1 DUP7 ADD MSTORE SWAP2 AND PUSH1 0x60 DUP5 ADD MSTORE AND PUSH1 0x80 DUP3 ADD MSTORE PUSH1 0xA0 ADD PUSH2 0x2A1 JUMP JUMPDEST CALLVALUE DUP1 ISZERO PUSH2 0x9A2 JUMPI PUSH1 0x0 DUP1 REVERT JUMPDEST POP PUSH2 0x52F PUSH1 0x1 PUSH1 0x1 PUSH1 0x60 SHL SUB DUP2 JUMP JUMPDEST CALLVALUE DUP1 ISZERO PUSH2 0x9BD JUMPI PUSH1 0x0 DUP1 REVERT JUMPDEST POP PUSH2 0x52F PUSH32 0x0 DUP2 JUMP JUMPDEST CALLVALUE DUP1 ISZERO PUSH2 0x9F1 JUMPI PUSH1 0x0 DUP1 REVERT JUMPDEST POP PUSH2 0x26B PUSH2 0xA00 CALLDATASIZE PUSH1 0x4 PUSH2 0x3349 JUMP JUMPDEST PUSH2 0x2748 JUMP JUMPDEST PUSH1 0x0 DUP2 DUP2 MSTORE PUSH1 0x2 PUSH1 0x20 MSTORE PUSH1 0x40 SWAP1 KECCAK256 SLOAD DUP2 SWAP1 PUSH1 0x1 PUSH1 0x1 PUSH1 0xA0 SHL SUB AND CHAINID DUP3 SUB PUSH2 0xA5C JUMPI CALLER PUSH1 0x1 PUSH1 0x1 PUSH1 0xA0 SHL SUB DUP3 AND EQ PUSH2 0xA57 JUMPI PUSH1 0x40 MLOAD PUSH3 0x461BCD PUSH1 0xE5 SHL DUP2 MSTORE PUSH1 0x4 ADD PUSH2 0xA4E SWAP1 PUSH2 0x3513 JUMP JUMPDEST PUSH1 0x40 MLOAD DUP1 SWAP2 SUB SWAP1 REVERT JUMPDEST PUSH2 0xB22 JUMP JUMPDEST PUSH1 0x0 DUP3 DUP2 MSTORE PUSH1 0x2 PUSH1 0x20 MSTORE PUSH1 0x40 SWAP1 KECCAK256 PUSH1 0x1 ADD SLOAD PUSH1 0x1 PUSH1 0x1 PUSH1 0xA0 SHL SUB AND DUP1 PUSH2 0xA94 JUMPI PUSH1 0x40 MLOAD PUSH3 0x461BCD PUSH1 0xE5 SHL DUP2 MSTORE PUSH1 0x4 ADD PUSH2 0xA4E SWAP1 PUSH2 0x3548 JUMP JUMPDEST PUSH1 0x40 MLOAD PUSH4 0x845C5443 PUSH1 0xE0 SHL DUP2 MSTORE PUSH1 0x1 PUSH1 0x1 PUSH1 0xA0 SHL SUB DUP4 DUP2 AND PUSH1 0x4 DUP4 ADD MSTORE CALLER PUSH1 0x24 DUP4 ADD MSTORE DUP3 AND SWAP1 PUSH4 0x845C5443 SWAP1 PUSH1 0x44 ADD PUSH1 0x20 PUSH1 0x40 MLOAD DUP1 DUP4 SUB DUP2 DUP7 GAS STATICCALL ISZERO DUP1 ISZERO PUSH2 0xAE0 JUMPI RETURNDATASIZE PUSH1 0x0 DUP1 RETURNDATACOPY RETURNDATASIZE PUSH1 0x0 REVERT JUMPDEST POP POP POP POP PUSH1 0x40 MLOAD RETURNDATASIZE PUSH1 0x1F NOT PUSH1 0x1F DUP3 ADD AND DUP3 ADD DUP1 PUSH1 0x40 MSTORE POP DUP2 ADD SWAP1 PUSH2 0xB04 SWAP2 SWAP1 PUSH2 0x358A JUMP JUMPDEST PUSH2 0xB20 JUMPI PUSH1 0x40 MLOAD PUSH3 0x461BCD PUSH1 0xE5 SHL DUP2 MSTORE PUSH1 0x4 ADD PUSH2 0xA4E SWAP1 PUSH2 0x3513 JUMP JUMPDEST POP JUMPDEST PUSH1 0x0 DUP6 DUP2 MSTORE PUSH1 0x5 PUSH1 0x20 DUP2 SWAP1 MSTORE PUSH1 0x40 SWAP1 SWAP2 KECCAK256 SWAP1 DUP2 ADD SLOAD PUSH1 0x1 PUSH1 0x60 SHL SWAP1 DIV PUSH1 0x1 PUSH1 0x1 PUSH1 0xA0 SHL SUB AND ISZERO PUSH2 0xB94 JUMPI PUSH1 0x40 MLOAD PUSH3 0x461BCD PUSH1 0xE5 SHL DUP2 MSTORE PUSH1 0x20 PUSH1 0x4 DUP3 ADD DUP2 SWAP1 MSTORE PUSH1 0x24 DUP3 ADD MSTORE PUSH32 0x43616E6E6F7420696E76616C6964617465207265736F6C7665642066696C6C73 PUSH1 0x44 DUP3 ADD MSTORE PUSH1 0x64 ADD PUSH2 0xA4E JUMP JUMPDEST PUSH1 0x0 DUP6 DUP2 MSTORE PUSH1 0x7 DUP3 ADD PUSH1 0x20 MSTORE PUSH1 0x40 SWAP1 KECCAK256 SLOAD PUSH1 0xFF AND ISZERO PUSH2 0xBF0 JUMPI PUSH1 0x40 MLOAD PUSH3 0x461BCD PUSH1 0xE5 SHL DUP2 MSTORE PUSH1 0x20 PUSH1 0x4 DUP3 ADD MSTORE PUSH1 0x18 PUSH1 0x24 DUP3 ADD MSTORE PUSH24 0x119A5B1B08185B1C9958591E481A5B9D985B1A59185D1959 PUSH1 0x42 SHL PUSH1 0x44 DUP3 ADD MSTORE PUSH1 0x64 ADD PUSH2 0xA4E JUMP JUMPDEST PUSH1 0x0 DUP6 DUP2 MSTORE PUSH1 0x7 DUP3 ADD PUSH1 0x20 MSTORE PUSH1 0x40 SWAP1 DUP2 SWAP1 KECCAK256 DUP1 SLOAD PUSH1 0xFF NOT AND PUSH1 0x1 OR SWAP1 SSTORE MLOAD PUSH32 0x5571B83C623961FB42D39CE6D6D2092153ACE66C008E2DC2472EC6D2E8FAD045 SWAP1 PUSH2 0xC46 SWAP1 DUP9 SWAP1 DUP9 SWAP1 SWAP2 DUP3 MSTORE PUSH1 0x20 DUP3 ADD MSTORE PUSH1 0x40 ADD SWAP1 JUMP JUMPDEST PUSH1 0x40 MLOAD DUP1 SWAP2 SUB SWAP1 LOG1 POP POP POP POP POP POP JUMP JUMPDEST PUSH1 0x2 PUSH1 0x20 MSTORE DUP2 PUSH1 0x0 MSTORE PUSH1 0x40 PUSH1 0x0 KECCAK256 DUP2 PUSH1 0x2 DUP2 LT PUSH2 0xC72 JUMPI PUSH1 0x0 DUP1 REVERT JUMPDEST ADD SLOAD PUSH1 0x1 PUSH1 0x1 PUSH1 0xA0 SHL SUB AND SWAP2 POP DUP3 SWAP1 POP JUMP JUMPDEST PUSH1 0x0 DUP2 DUP2 MSTORE PUSH1 0x5 PUSH1 0x20 MSTORE PUSH1 0x40 DUP2 KECCAK256 SLOAD DUP3 SWAP1 PUSH1 0x1 PUSH1 0x1 PUSH1 0xA0 SHL SUB AND PUSH2 0xCBA JUMPI PUSH1 0x40 MLOAD PUSH3 0x461BCD PUSH1 0xE5 SHL DUP2 MSTORE PUSH1 0x4 ADD PUSH2 0xA4E SWAP1 PUSH2 0x35AC JUMP JUMPDEST POP POP PUSH1 0x0 SWAP1 DUP2 MSTORE PUSH1 0x5 PUSH1 0x20 DUP2 SWAP1 MSTORE PUSH1 0x40 SWAP1 SWAP2 KECCAK256 ADD SLOAD PUSH1 0x1 PUSH1 0x1 PUSH1 0x60 SHL SUB AND ISZERO ISZERO SWAP1 JUMP JUMPDEST PUSH1 0x0 PUSH2 0xCE9 DUP4 DUP4 PUSH2 0x119E JUMP JUMPDEST PUSH2 0xCF3 DUP5 DUP5 PUSH2 0x1EB5 JUMP JUMPDEST PUSH2 0xCFD SWAP2 SWAP1 PUSH2 0x35EF JUMP JUMPDEST SWAP4 SWAP3 POP POP POP JUMP JUMPDEST PUSH1 0x0 PUSH2 0xD0E PUSH2 0x27BE JUMP JUMPDEST PUSH1 0x0 DUP8 DUP2 MSTORE PUSH1 0x4 PUSH1 0x20 MSTORE PUSH1 0x40 DUP2 KECCAK256 SLOAD SWAP1 SUB PUSH2 0xD6B JUMPI PUSH1 0x40 MLOAD PUSH3 0x461BCD PUSH1 0xE5 SHL DUP2 MSTORE PUSH1 0x20 PUSH1 0x4 DUP3 ADD MSTORE PUSH1 0x1B PUSH1 0x24 DUP3 ADD MSTORE PUSH32 0x54617267657420726F6C6C7570206E6F7420737570706F727465640000000000 PUSH1 0x44 DUP3 ADD MSTORE PUSH1 0x64 ADD PUSH2 0xA4E JUMP JUMPDEST PUSH2 0x708 DUP3 LT ISZERO PUSH2 0xDBD JUMPI PUSH1 0x40 MLOAD PUSH3 0x461BCD PUSH1 0xE5 SHL DUP2 MSTORE PUSH1 0x20 PUSH1 0x4 DUP3 ADD MSTORE PUSH1 0x19 PUSH1 0x24 DUP3 ADD MSTORE PUSH32 0x56616C696469747920706572696F6420746F6F2073686F727400000000000000 PUSH1 0x44 DUP3 ADD MSTORE PUSH1 0x64 ADD PUSH2 0xA4E JUMP JUMPDEST PUSH3 0x2A300 DUP3 GT ISZERO PUSH2 0xE10 JUMPI PUSH1 0x40 MLOAD PUSH3 0x461BCD PUSH1 0xE5 SHL DUP2 MSTORE PUSH1 0x20 PUSH1 0x4 DUP3 ADD MSTORE PUSH1 0x18 PUSH1 0x24 DUP3 ADD MSTORE PUSH32 0x56616C696469747920706572696F6420746F6F206C6F6E670000000000000000 PUSH1 0x44 DUP3 ADD MSTORE PUSH1 0x64 ADD PUSH2 0xA4E JUMP JUMPDEST PUSH1 0x1 PUSH1 0x1 PUSH1 0xA0 SHL SUB DUP7 AND PUSH1 0x0 SWAP1 DUP2 MSTORE PUSH1 0x7 PUSH1 0x20 MSTORE PUSH1 0x40 SWAP1 KECCAK256 SLOAD DUP4 GT ISZERO PUSH2 0xE78 JUMPI PUSH1 0x40 MLOAD PUSH3 0x461BCD PUSH1 0xE5 SHL DUP2 MSTORE PUSH1 0x20 PUSH1 0x4 DUP3 ADD MSTORE PUSH1 0x1D PUSH1 0x24 DUP3 ADD MSTORE PUSH32 0x416D6F756E742065786365656473207472616E73666572206C696D6974000000 PUSH1 0x44 DUP3 ADD MSTORE PUSH1 0x64 ADD PUSH2 0xA4E JUMP JUMPDEST PUSH1 0x0 PUSH2 0xE84 DUP8 DUP6 PUSH2 0x1EB5 JUMP JUMPDEST SWAP1 POP PUSH1 0x0 PUSH2 0xE92 DUP9 DUP7 PUSH2 0x119E JUMP JUMPDEST SWAP1 POP DUP1 PUSH2 0xE9F DUP4 DUP8 PUSH2 0x35EF JUMP JUMPDEST PUSH2 0xEA9 SWAP2 SWAP1 PUSH2 0x35EF JUMP JUMPDEST PUSH1 0x40 MLOAD PUSH4 0x6EB1769F PUSH1 0xE1 SHL DUP2 MSTORE CALLER PUSH1 0x4 DUP3 ADD MSTORE ADDRESS PUSH1 0x24 DUP3 ADD MSTORE PUSH1 0x1 PUSH1 0x1 PUSH1 0xA0 SHL SUB DUP11 AND SWAP1 PUSH4 0xDD62ED3E SWAP1 PUSH1 0x44 ADD PUSH1 0x20 PUSH1 0x40 MLOAD DUP1 DUP4 SUB DUP2 DUP7 GAS STATICCALL ISZERO DUP1 ISZERO PUSH2 0xEF3 JUMPI RETURNDATASIZE PUSH1 0x0 DUP1 RETURNDATACOPY RETURNDATASIZE PUSH1 0x0 REVERT JUMPDEST POP POP POP POP PUSH1 0x40 MLOAD RETURNDATASIZE PUSH1 0x1F NOT PUSH1 0x1F DUP3 ADD AND DUP3 ADD DUP1 PUSH1 0x40 MSTORE POP DUP2 ADD SWAP1 PUSH2 0xF17 SWAP2 SWAP1 PUSH2 0x3607 JUMP JUMPDEST LT ISZERO PUSH2 0xF5E JUMPI PUSH1 0x40 MLOAD PUSH3 0x461BCD PUSH1 0xE5 SHL DUP2 MSTORE PUSH1 0x20 PUSH1 0x4 DUP3 ADD MSTORE PUSH1 0x16 PUSH1 0x24 DUP3 ADD MSTORE PUSH22 0x496E73756666696369656E7420616C6C6F77616E6365 PUSH1 0x50 SHL PUSH1 0x44 DUP3 ADD MSTORE PUSH1 0x64 ADD PUSH2 0xA4E JUMP JUMPDEST PUSH1 0x3 SLOAD PUSH1 0x0 SWAP1 PUSH2 0xF7D SWAP1 PUSH2 0x100 SWAP1 DIV PUSH1 0x1 PUSH1 0x1 PUSH1 0x60 SHL SUB AND PUSH1 0x1 PUSH2 0x3620 JUMP JUMPDEST PUSH1 0x3 DUP1 SLOAD PUSH1 0x1 PUSH1 0x1 PUSH1 0x60 SHL SUB DUP4 AND PUSH2 0x100 MUL PUSH13 0xFFFFFFFFFFFFFFFFFFFFFFFF00 NOT SWAP1 SWAP2 AND OR SWAP1 SSTORE PUSH1 0x40 DUP1 MLOAD CHAINID PUSH1 0x20 DUP1 DUP4 ADD SWAP2 SWAP1 SWAP2 MSTORE DUP2 DUP4 ADD DUP15 SWAP1 MSTORE PUSH1 0x1 PUSH1 0x1 PUSH1 0x60 SHL SUB NOT PUSH1 0x60 DUP14 DUP2 SHL DUP3 AND DUP2 DUP6 ADD MSTORE DUP13 SWAP1 SHL AND PUSH1 0x74 DUP4 ADD MSTORE PUSH1 0x88 DUP3 ADD DUP11 SWAP1 MSTORE PUSH1 0x1 PUSH1 0x1 PUSH1 0xA0 SHL SUB NOT PUSH1 0xA0 DUP6 SWAP1 SHL AND PUSH1 0xA8 DUP4 ADD MSTORE DUP3 MLOAD DUP1 DUP4 SUB PUSH1 0x94 ADD DUP2 MSTORE PUSH1 0xB4 SWAP1 SWAP3 ADD SWAP1 SWAP3 MSTORE DUP1 MLOAD SWAP2 ADD KECCAK256 SWAP1 SWAP2 POP PUSH1 0x0 SWAP1 PUSH1 0x0 DUP2 DUP2 MSTORE PUSH1 0x5 PUSH1 0x20 MSTORE PUSH1 0x40 SWAP1 KECCAK256 DUP1 SLOAD CALLER PUSH1 0x1 PUSH1 0x1 PUSH1 0xA0 SHL SUB NOT SWAP2 DUP3 AND OR DUP3 SSTORE PUSH1 0x1 DUP3 ADD DUP1 SLOAD SWAP1 SWAP2 AND PUSH1 0x1 PUSH1 0x1 PUSH1 0xA0 SHL SUB DUP15 AND OR SWAP1 SSTORE PUSH1 0x2 DUP2 ADD DUP14 SWAP1 SSTORE PUSH1 0x3 DUP2 ADD DUP10 SWAP1 SSTORE SWAP1 SWAP2 POP PUSH2 0x105E DUP8 TIMESTAMP PUSH2 0x35EF JUMP JUMPDEST DUP2 PUSH1 0x4 ADD PUSH1 0x0 PUSH2 0x100 EXP DUP2 SLOAD DUP2 PUSH4 0xFFFFFFFF MUL NOT AND SWAP1 DUP4 PUSH4 0xFFFFFFFF AND MUL OR SWAP1 SSTORE POP DUP5 DUP2 PUSH1 0x4 ADD PUSH1 0x4 PUSH2 0x100 EXP DUP2 SLOAD DUP2 PUSH1 0x1 PUSH1 0x1 PUSH1 0x60 SHL SUB MUL NOT AND SWAP1 DUP4 PUSH1 0x1 PUSH1 0x1 PUSH1 0x60 SHL SUB AND MUL OR SWAP1 SSTORE POP DUP4 DUP2 PUSH1 0x4 ADD PUSH1 0x10 PUSH2 0x100 EXP DUP2 SLOAD DUP2 PUSH1 0x1 PUSH1 0x1 PUSH1 0x60 SHL SUB MUL NOT AND SWAP1 DUP4 PUSH1 0x1 PUSH1 0x1 PUSH1 0x60 SHL SUB AND MUL OR SWAP1 SSTORE POP CALLER PUSH1 0x1 PUSH1 0x1 PUSH1 0xA0 SHL SUB AND DUP3 PUSH32 0x869AB8728BDAE6AAE9B6D728DA37437CCF3DDFD7A141903F22CB8324739683DE DUP15 DUP15 DUP15 DUP15 DUP15 DUP11 DUP16 TIMESTAMP PUSH2 0x1110 SWAP2 SWAP1 PUSH2 0x35EF JUMP JUMPDEST PUSH1 0x40 DUP1 MLOAD SWAP8 DUP9 MSTORE PUSH1 0x1 PUSH1 0x1 PUSH1 0xA0 SHL SUB SWAP7 DUP8 AND PUSH1 0x20 DUP10 ADD MSTORE SWAP5 DUP7 AND DUP8 DUP7 ADD MSTORE SWAP3 SWAP1 SWAP5 AND PUSH1 0x60 DUP7 ADD MSTORE PUSH1 0x80 DUP6 ADD MSTORE PUSH1 0x1 PUSH1 0x1 PUSH1 0x60 SHL SUB SWAP1 SWAP3 AND PUSH1 0xA0 DUP5 ADD MSTORE PUSH4 0xFFFFFFFF SWAP1 SWAP2 AND PUSH1 0xC0 DUP4 ADD MSTORE MLOAD SWAP1 DUP2 SWAP1 SUB PUSH1 0xE0 ADD SWAP1 LOG3 PUSH2 0x118F CALLER ADDRESS DUP7 PUSH2 0x1173 DUP10 DUP14 PUSH2 0x35EF JUMP JUMPDEST PUSH2 0x117D SWAP2 SWAP1 PUSH2 0x35EF JUMP JUMPDEST PUSH1 0x1 PUSH1 0x1 PUSH1 0xA0 SHL SUB DUP16 AND SWAP3 SWAP2 SWAP1 PUSH2 0x2804 JUMP JUMPDEST POP SWAP11 SWAP10 POP POP POP POP POP POP POP POP POP POP JUMP JUMPDEST PUSH1 0x1 PUSH1 0x1 PUSH1 0xA0 SHL SUB DUP3 AND PUSH1 0x0 SWAP1 DUP2 MSTORE PUSH1 0x7 PUSH1 0x20 MSTORE PUSH1 0x40 DUP2 KECCAK256 PUSH1 0x1 ADD SLOAD PUSH3 0xF4240 SWAP1 PUSH2 0x11D6 SWAP1 PUSH1 0x1 PUSH1 0x80 SHL SWAP1 DIV PUSH4 0xFFFFFFFF AND DUP5 PUSH2 0x364B JUMP JUMPDEST PUSH2 0xCFD SWAP2 SWAP1 PUSH2 0x366A JUMP JUMPDEST PUSH2 0x11E8 PUSH2 0x286F JUMP JUMPDEST PUSH1 0x1 PUSH1 0x1 PUSH1 0xA0 SHL SUB DUP2 AND PUSH1 0x0 DUP2 DUP2 MSTORE PUSH1 0x1 PUSH1 0x20 DUP2 DUP2 MSTORE PUSH1 0x40 SWAP3 DUP4 SWAP1 KECCAK256 DUP1 SLOAD PUSH1 0xFF NOT AND SWAP1 SWAP3 OR SWAP1 SWAP2 SSTORE SWAP1 MLOAD SWAP2 DUP3 MSTORE PUSH32 0x371FC559C30F70424413FED6BF7E57DC939651331ABAD5C970A8EA0921C80B2E SWAP2 ADD JUMPDEST PUSH1 0x40 MLOAD DUP1 SWAP2 SUB SWAP1 LOG1 POP JUMP JUMPDEST PUSH2 0x124C PUSH2 0x286F JUMP JUMPDEST PUSH1 0x1 PUSH1 0x1 PUSH1 0xA0 SHL SUB DUP2 AND PUSH1 0x0 DUP2 DUP2 MSTORE PUSH1 0x1 PUSH1 0x20 SWAP1 DUP2 MSTORE PUSH1 0x40 SWAP2 DUP3 SWAP1 KECCAK256 DUP1 SLOAD PUSH1 0xFF NOT AND SWAP1 SSTORE SWAP1 MLOAD SWAP2 DUP3 MSTORE PUSH32 0x4E774C97F73F4BEA034579E4224498D7D9B3A4109EAA70ED3D85C97A5855F198 SWAP2 ADD PUSH2 0x1239 JUMP JUMPDEST PUSH2 0x12A5 PUSH2 0x286F JUMP JUMPDEST PUSH2 0x12AD PUSH2 0x28C9 JUMP JUMPDEST JUMP JUMPDEST PUSH1 0x0 DUP3 DUP2 MSTORE PUSH1 0x5 PUSH1 0x20 MSTORE PUSH1 0x40 DUP2 KECCAK256 SLOAD DUP4 SWAP1 PUSH1 0x1 PUSH1 0x1 PUSH1 0xA0 SHL SUB AND PUSH2 0x12E5 JUMPI PUSH1 0x40 MLOAD PUSH3 0x461BCD PUSH1 0xE5 SHL DUP2 MSTORE PUSH1 0x4 ADD PUSH2 0xA4E SWAP1 PUSH2 0x35AC JUMP JUMPDEST PUSH1 0x1 PUSH1 0x1 PUSH1 0xA0 SHL SUB DUP6 AND PUSH1 0x0 SWAP1 DUP2 MSTORE PUSH1 0x1 PUSH1 0x20 MSTORE PUSH1 0x40 SWAP1 KECCAK256 SLOAD DUP6 SWAP1 PUSH1 0xFF AND PUSH2 0x133D JUMPI PUSH1 0x40 MLOAD PUSH3 0x461BCD PUSH1 0xE5 SHL DUP2 MSTORE PUSH1 0x20 PUSH1 0x4 DUP3 ADD MSTORE PUSH1 0xB PUSH1 0x24 DUP3 ADD MSTORE PUSH11 0x139BDD08185B1B1BDDD959 PUSH1 0xAA SHL PUSH1 0x44 DUP3 ADD MSTORE PUSH1 0x64 ADD PUSH2 0xA4E JUMP JUMPDEST PUSH1 0x0 DUP6 DUP2 MSTORE PUSH1 0x5 PUSH1 0x20 MSTORE PUSH1 0x40 SWAP1 KECCAK256 PUSH1 0x4 DUP2 ADD SLOAD PUSH2 0x1381 SWAP1 PUSH32 0x0 SWAP1 PUSH4 0xFFFFFFFF AND PUSH2 0x35EF JUMP JUMPDEST TIMESTAMP LT PUSH2 0x13D9 JUMPI PUSH1 0x40 MLOAD PUSH3 0x461BCD PUSH1 0xE5 SHL DUP2 MSTORE PUSH1 0x20 PUSH1 0x4 DUP3 ADD MSTORE PUSH1 0x21 PUSH1 0x24 DUP3 ADD MSTORE PUSH32 0x526571756573742063616E6E6F7420626520636C61696D656420616E796D6F72 PUSH1 0x44 DUP3 ADD MSTORE PUSH1 0x65 PUSH1 0xF8 SHL PUSH1 0x64 DUP3 ADD MSTORE PUSH1 0x84 ADD PUSH2 0xA4E JUMP JUMPDEST PUSH1 0x5 DUP2 ADD SLOAD PUSH1 0x1 PUSH1 0x1 PUSH1 0x60 SHL SUB AND ISZERO PUSH2 0x1430 JUMPI PUSH1 0x40 MLOAD PUSH3 0x461BCD PUSH1 0xE5 SHL DUP2 MSTORE PUSH1 0x20 PUSH1 0x4 DUP3 ADD MSTORE PUSH1 0x19 PUSH1 0x24 DUP3 ADD MSTORE PUSH25 0x2232B837B9B4BA1030B63932B0B23C903BB4BA34323930BBB7 PUSH1 0x39 SHL PUSH1 0x44 DUP3 ADD MSTORE PUSH1 0x64 ADD PUSH2 0xA4E JUMP JUMPDEST PUSH32 0x0 PUSH1 0x1 PUSH1 0x1 PUSH1 0x60 SHL SUB AND CALLVALUE EQ PUSH2 0x149F JUMPI PUSH1 0x40 MLOAD PUSH3 0x461BCD PUSH1 0xE5 SHL DUP2 MSTORE PUSH1 0x20 PUSH1 0x4 DUP3 ADD MSTORE PUSH1 0x14 PUSH1 0x24 DUP3 ADD MSTORE PUSH20 0x125B9D985B1A59081CDD185AD948185B5BDD5B9D PUSH1 0x62 SHL PUSH1 0x44 DUP3 ADD MSTORE PUSH1 0x64 ADD PUSH2 0xA4E JUMP JUMPDEST DUP5 PUSH2 0x14E5 JUMPI PUSH1 0x40 MLOAD PUSH3 0x461BCD PUSH1 0xE5 SHL DUP2 MSTORE PUSH1 0x20 PUSH1 0x4 DUP3 ADD MSTORE PUSH1 0x16 PUSH1 0x24 DUP3 ADD MSTORE PUSH22 0x46696C6C4964206D757374206E6F742062652030783 PUSH1 0x54 SHL PUSH1 0x44 DUP3 ADD MSTORE PUSH1 0x64 ADD PUSH2 0xA4E JUMP JUMPDEST PUSH1 0x1 DUP2 PUSH1 0x4 ADD PUSH1 0x1C DUP3 DUP3 DUP3 SWAP1 SLOAD SWAP1 PUSH2 0x100 EXP SWAP1 DIV PUSH4 0xFFFFFFFF AND PUSH2 0x1509 SWAP2 SWAP1 PUSH2 0x368C JUMP JUMPDEST DUP3 SLOAD PUSH4 0xFFFFFFFF SWAP2 DUP3 AND PUSH2 0x100 SWAP4 DUP5 EXP SWAP1 DUP2 MUL SWAP3 MUL NOT AND OR SWAP1 SWAP2 SSTORE PUSH1 0x3 SLOAD PUSH1 0x0 SWAP3 POP PUSH2 0x1541 SWAP2 PUSH1 0x1 PUSH1 0x1 PUSH1 0x60 SHL SUB SWAP2 DIV AND PUSH1 0x1 PUSH2 0x3620 JUMP JUMPDEST PUSH1 0x3 DUP1 SLOAD PUSH13 0xFFFFFFFFFFFFFFFFFFFFFFFF00 NOT AND PUSH2 0x100 PUSH1 0x1 PUSH1 0x1 PUSH1 0x60 SHL SUB DUP5 AND MUL OR SWAP1 SSTORE SWAP1 POP PUSH1 0x0 PUSH2 0x1594 PUSH32 0x0 TIMESTAMP PUSH2 0x35EF JUMP JUMPDEST SWAP1 POP PUSH1 0x0 PUSH1 0x6 PUSH1 0x0 DUP5 PUSH1 0x1 PUSH1 0x1 PUSH1 0x60 SHL SUB AND PUSH1 0x1 PUSH1 0x1 PUSH1 0x60 SHL SUB AND DUP2 MSTORE PUSH1 0x20 ADD SWAP1 DUP2 MSTORE PUSH1 0x20 ADD PUSH1 0x0 KECCAK256 SWAP1 POP DUP9 DUP2 PUSH1 0x0 ADD DUP2 SWAP1 SSTORE POP DUP10 DUP2 PUSH1 0x1 ADD PUSH1 0x0 PUSH2 0x100 EXP DUP2 SLOAD DUP2 PUSH1 0x1 PUSH1 0x1 PUSH1 0xA0 SHL SUB MUL NOT AND SWAP1 DUP4 PUSH1 0x1 PUSH1 0x1 PUSH1 0xA0 SHL SUB AND MUL OR SWAP1 SSTORE POP CALLVALUE DUP2 PUSH1 0x1 ADD PUSH1 0x14 PUSH2 0x100 EXP DUP2 SLOAD DUP2 PUSH1 0x1 PUSH1 0x1 PUSH1 0x60 SHL SUB MUL NOT AND SWAP1 DUP4 PUSH1 0x1 PUSH1 0x1 PUSH1 0x60 SHL SUB AND MUL OR SWAP1 SSTORE POP DUP2 DUP2 PUSH1 0x5 ADD DUP2 SWAP1 SSTORE POP DUP8 DUP2 PUSH1 0x6 ADD DUP2 SWAP1 SSTORE POP DUP9 PUSH32 0xF0289B2C09D4E59035C29451CFBB75C07A50FDCC68DB2ECCEF5A84DB99285E44 DUP5 DUP13 CALLVALUE PUSH1 0x0 DUP1 DUP9 DUP16 PUSH1 0x40 MLOAD PUSH2 0x1669 SWAP8 SWAP7 SWAP6 SWAP5 SWAP4 SWAP3 SWAP2 SWAP1 PUSH2 0x36AB JUMP JUMPDEST PUSH1 0x40 MLOAD DUP1 SWAP2 SUB SWAP1 LOG2 POP SWAP1 SWAP9 SWAP8 POP POP POP POP POP POP POP POP JUMP JUMPDEST PUSH1 0x0 DUP3 DUP2 MSTORE PUSH1 0x2 PUSH1 0x20 MSTORE PUSH1 0x40 SWAP1 KECCAK256 SLOAD DUP3 SWAP1 PUSH1 0x1 PUSH1 0x1 PUSH1 0xA0 SHL SUB AND CHAINID DUP3 SUB PUSH2 0x16CD JUMPI CALLER PUSH1 0x1 PUSH1 0x1 PUSH1 0xA0 SHL SUB DUP3 AND EQ PUSH2 0x16C8 JUMPI PUSH1 0x40 MLOAD PUSH3 0x461BCD PUSH1 0xE5 SHL DUP2 MSTORE PUSH1 0x4 ADD PUSH2 0xA4E SWAP1 PUSH2 0x3513 JUMP JUMPDEST PUSH2 0x1793 JUMP JUMPDEST PUSH1 0x0 DUP3 DUP2 MSTORE PUSH1 0x2 PUSH1 0x20 MSTORE PUSH1 0x40 SWAP1 KECCAK256 PUSH1 0x1 ADD SLOAD PUSH1 0x1 PUSH1 0x1 PUSH1 0xA0 SHL SUB AND DUP1 PUSH2 0x1705 JUMPI PUSH1 0x40 MLOAD PUSH3 0x461BCD PUSH1 0xE5 SHL DUP2 MSTORE PUSH1 0x4 ADD PUSH2 0xA4E SWAP1 PUSH2 0x3548 JUMP JUMPDEST PUSH1 0x40 MLOAD PUSH4 0x845C5443 PUSH1 0xE0 SHL DUP2 MSTORE PUSH1 0x1 PUSH1 0x1 PUSH1 0xA0 SHL SUB DUP4 DUP2 AND PUSH1 0x4 DUP4 ADD MSTORE CALLER PUSH1 0x24 DUP4 ADD MSTORE DUP3 AND SWAP1 PUSH4 0x845C5443 SWAP1 PUSH1 0x44 ADD PUSH1 0x20 PUSH1 0x40 MLOAD DUP1 DUP4 SUB DUP2 DUP7 GAS STATICCALL ISZERO DUP1 ISZERO PUSH2 0x1751 JUMPI RETURNDATASIZE PUSH1 0x0 DUP1 RETURNDATACOPY RETURNDATASIZE PUSH1 0x0 REVERT JUMPDEST POP POP POP POP PUSH1 0x40 MLOAD RETURNDATASIZE PUSH1 0x1F NOT PUSH1 0x1F DUP3 ADD AND DUP3 ADD DUP1 PUSH1 0x40 MSTORE POP DUP2 ADD SWAP1 PUSH2 0x1775 SWAP2 SWAP1 PUSH2 0x358A JUMP JUMPDEST PUSH2 0x1791 JUMPI PUSH1 0x40 MLOAD PUSH3 0x461BCD PUSH1 0xE5 SHL DUP2 MSTORE PUSH1 0x4 ADD PUSH2 0xA4E SWAP1 PUSH2 0x3513 JUMP JUMPDEST POP JUMPDEST PUSH1 0x0 DUP7 DUP2 MSTORE PUSH1 0x5 PUSH1 0x20 DUP2 DUP2 MSTORE PUSH1 0x40 DUP1 DUP5 KECCAK256 SWAP3 DUP4 ADD DUP1 SLOAD PUSH1 0x1 PUSH1 0x1 PUSH1 0x60 SHL SUB AND PUSH1 0x1 PUSH1 0x60 SHL PUSH1 0x1 PUSH1 0x1 PUSH1 0xA0 SHL SUB DUP11 AND SWAP1 DUP2 MUL SWAP2 SWAP1 SWAP2 OR SWAP1 SWAP2 SSTORE PUSH1 0x6 DUP5 ADD DUP11 SWAP1 SSTORE DUP10 DUP6 MSTORE PUSH1 0x7 DUP5 ADD DUP4 MSTORE SWAP4 DUP2 SWAP1 KECCAK256 DUP1 SLOAD PUSH1 0xFF NOT AND SWAP1 SSTORE DUP1 MLOAD DUP11 DUP2 MSTORE SWAP2 DUP3 ADD SWAP4 SWAP1 SWAP4 MSTORE SWAP2 DUP3 ADD DUP8 SWAP1 MSTORE SWAP1 PUSH32 0xB32D3C8B5539B0CC3050D5B75E9DAD8ECA8744A0892259BDA27FDB51B9956736 SWAP1 PUSH1 0x60 ADD PUSH1 0x40 MLOAD DUP1 SWAP2 SUB SWAP1 LOG1 POP POP POP POP POP POP POP JUMP JUMPDEST PUSH2 0x1838 PUSH2 0x286F JUMP JUMPDEST PUSH2 0x12AD PUSH1 0x0 PUSH2 0x291B JUMP JUMPDEST PUSH2 0x184A PUSH2 0x286F JUMP JUMPDEST PUSH2 0x1855 DUP4 DUP4 DUP4 PUSH2 0x296B JUMP JUMPDEST POP POP POP JUMP JUMPDEST PUSH1 0x0 DUP3 DUP2 MSTORE PUSH1 0x5 PUSH1 0x20 MSTORE PUSH1 0x40 DUP2 KECCAK256 SLOAD DUP4 SWAP1 PUSH1 0x1 PUSH1 0x1 PUSH1 0xA0 SHL SUB AND PUSH2 0x1890 JUMPI PUSH1 0x40 MLOAD PUSH3 0x461BCD PUSH1 0xE5 SHL DUP2 MSTORE PUSH1 0x4 ADD PUSH2 0xA4E SWAP1 PUSH2 0x35AC JUMP JUMPDEST CALLER PUSH1 0x0 DUP2 DUP2 MSTORE PUSH1 0x1 PUSH1 0x20 MSTORE PUSH1 0x40 SWAP1 KECCAK256 SLOAD PUSH1 0xFF AND PUSH2 0x18DD JUMPI PUSH1 0x40 MLOAD PUSH3 0x461BCD PUSH1 0xE5 SHL DUP2 MSTORE PUSH1 0x20 PUSH1 0x4 DUP3 ADD MSTORE PUSH1 0xB PUSH1 0x24 DUP3 ADD MSTORE PUSH11 0x139BDD08185B1B1BDDD959 PUSH1 0xAA SHL PUSH1 0x44 DUP3 ADD MSTORE PUSH1 0x64 ADD PUSH2 0xA4E JUMP JUMPDEST PUSH2 0x18E8 CALLER DUP7 DUP7 PUSH2 0x12AF JUMP JUMPDEST SWAP6 SWAP5 POP POP POP POP POP JUMP JUMPDEST PUSH2 0x18F9 PUSH2 0x286F JUMP JUMPDEST PUSH2 0x1905 CHAINID DUP3 PUSH1 0x0 PUSH2 0x296B JUMP JUMPDEST POP JUMP JUMPDEST PUSH1 0x0 DUP2 DUP2 MSTORE PUSH1 0x5 PUSH1 0x20 MSTORE PUSH1 0x40 SWAP1 KECCAK256 SLOAD DUP2 SWAP1 PUSH1 0x1 PUSH1 0x1 PUSH1 0xA0 SHL SUB AND PUSH2 0x193E JUMPI PUSH1 0x40 MLOAD PUSH3 0x461BCD PUSH1 0xE5 SHL DUP2 MSTORE PUSH1 0x4 ADD PUSH2 0xA4E SWAP1 PUSH2 0x35AC JUMP JUMPDEST PUSH1 0x0 DUP3 DUP2 MSTORE PUSH1 0x5 PUSH1 0x20 DUP2 SWAP1 MSTORE PUSH1 0x40 SWAP1 SWAP2 KECCAK256 SWAP1 DUP2 ADD SLOAD PUSH1 0x1 PUSH1 0x1 PUSH1 0x60 SHL SUB AND ISZERO PUSH2 0x19A5 JUMPI PUSH1 0x40 MLOAD PUSH3 0x461BCD PUSH1 0xE5 SHL DUP2 MSTORE PUSH1 0x20 PUSH1 0x4 DUP3 ADD MSTORE PUSH1 0x19 PUSH1 0x24 DUP3 ADD MSTORE PUSH25 0x2232B837B9B4BA1030B63932B0B23C903BB4BA34323930BBB7 PUSH1 0x39 SHL PUSH1 0x44 DUP3 ADD MSTORE PUSH1 0x64 ADD PUSH2 0xA4E JUMP JUMPDEST PUSH1 0x4 DUP2 ADD SLOAD PUSH4 0xFFFFFFFF AND TIMESTAMP LT ISZERO PUSH2 0x19FF JUMPI PUSH1 0x40 MLOAD PUSH3 0x461BCD PUSH1 0xE5 SHL DUP2 MSTORE PUSH1 0x20 PUSH1 0x4 DUP3 ADD MSTORE PUSH1 0x17 PUSH1 0x24 DUP3 ADD MSTORE PUSH32 0x52657175657374206E6F74206578706972656420796574000000000000000000 PUSH1 0x44 DUP3 ADD MSTORE PUSH1 0x64 ADD PUSH2 0xA4E JUMP JUMPDEST PUSH1 0x4 DUP2 ADD SLOAD PUSH1 0x1 PUSH1 0xE0 SHL SWAP1 DIV PUSH4 0xFFFFFFFF AND ISZERO PUSH2 0x1A56 JUMPI PUSH1 0x40 MLOAD PUSH3 0x461BCD PUSH1 0xE5 SHL DUP2 MSTORE PUSH1 0x20 PUSH1 0x4 DUP3 ADD MSTORE PUSH1 0x15 PUSH1 0x24 DUP3 ADD MSTORE PUSH21 0x41637469766520636C61696D732072756E6E696E67 PUSH1 0x58 SHL PUSH1 0x44 DUP3 ADD MSTORE PUSH1 0x64 ADD PUSH2 0xA4E JUMP JUMPDEST PUSH1 0x5 DUP2 ADD DUP1 SLOAD PUSH1 0x1 PUSH1 0x1 PUSH1 0x60 SHL SUB NOT AND PUSH1 0x1 PUSH1 0x1 PUSH1 0x60 SHL SUB OR SWAP1 SSTORE DUP1 SLOAD PUSH1 0x40 DUP1 MLOAD DUP6 DUP2 MSTORE PUSH1 0x1 PUSH1 0x1 PUSH1 0xA0 SHL SUB SWAP1 SWAP3 AND PUSH1 0x20 DUP4 ADD MSTORE PUSH32 0xAB63A14C4AABA38366FD39116091672BB44520328EE870BE35A51E573296E565 SWAP2 ADD PUSH1 0x40 MLOAD DUP1 SWAP2 SUB SWAP1 LOG1 PUSH1 0x1 DUP2 ADD SLOAD DUP2 SLOAD PUSH1 0x4 DUP4 ADD SLOAD PUSH1 0x3 DUP5 ADD SLOAD PUSH1 0x1 PUSH1 0x1 PUSH1 0xA0 SHL SUB SWAP4 DUP5 AND SWAP4 PUSH2 0x1B1A SWAP4 AND SWAP2 PUSH1 0x1 PUSH1 0x1 PUSH1 0x60 SHL SUB PUSH1 0x1 PUSH1 0x80 SHL DUP3 DIV DUP2 AND SWAP3 PUSH2 0x1AFF SWAP3 PUSH5 0x100000000 SWAP1 DIV SWAP1 SWAP2 AND SWAP1 PUSH2 0x35EF JUMP JUMPDEST PUSH2 0x1B09 SWAP2 SWAP1 PUSH2 0x35EF JUMP JUMPDEST PUSH1 0x1 PUSH1 0x1 PUSH1 0xA0 SHL SUB DUP5 AND SWAP2 SWAP1 PUSH2 0x2A7D JUMP JUMPDEST POP POP POP POP JUMP JUMPDEST PUSH2 0x1B28 PUSH2 0x286F JUMP JUMPDEST PUSH2 0x12AD PUSH2 0x2AAD JUMP JUMPDEST PUSH1 0x1 PUSH1 0x1 PUSH1 0x60 SHL SUB DUP2 AND PUSH1 0x0 SWAP1 DUP2 MSTORE PUSH1 0x6 PUSH1 0x20 MSTORE PUSH1 0x40 DUP2 KECCAK256 PUSH1 0x1 ADD SLOAD DUP3 SWAP1 PUSH1 0x1 PUSH1 0x1 PUSH1 0xA0 SHL SUB AND PUSH2 0x1B73 JUMPI PUSH1 0x40 MLOAD PUSH3 0x461BCD PUSH1 0xE5 SHL DUP2 MSTORE PUSH1 0x4 ADD PUSH2 0xA4E SWAP1 PUSH2 0x36F7 JUMP JUMPDEST PUSH1 0x1 PUSH1 0x1 PUSH1 0x60 SHL SUB DUP4 AND PUSH1 0x0 SWAP1 DUP2 MSTORE PUSH1 0x6 PUSH1 0x20 MSTORE PUSH1 0x40 SWAP1 KECCAK256 PUSH1 0x1 DUP2 ADD SLOAD PUSH1 0x1 PUSH1 0x1 PUSH1 0xA0 SHL SUB SWAP1 DUP2 AND SWAP1 DUP7 AND DUP2 EQ DUP1 PUSH2 0x1BCD JUMPI POP PUSH1 0x1 PUSH1 0x1 PUSH1 0xA0 SHL SUB DUP7 AND PUSH1 0x0 SWAP1 DUP2 MSTORE PUSH1 0x2 DUP4 ADD PUSH1 0x20 MSTORE PUSH1 0x40 SWAP1 KECCAK256 SLOAD PUSH1 0x1 PUSH1 0x1 PUSH1 0x60 SHL SUB AND ISZERO ISZERO JUMPDEST PUSH2 0x1C29 JUMPI PUSH1 0x40 MLOAD PUSH3 0x461BCD PUSH1 0xE5 SHL DUP2 MSTORE PUSH1 0x20 PUSH1 0x4 DUP3 ADD MSTORE PUSH1 0x27 PUSH1 0x24 DUP3 ADD MSTORE PUSH32 0x4E6F7420616E20616374697665207061727469636970616E7420696E20746869 PUSH1 0x44 DUP3 ADD MSTORE PUSH7 0x7320636C61696D PUSH1 0xC8 SHL PUSH1 0x64 DUP3 ADD MSTORE PUSH1 0x84 ADD PUSH2 0xA4E JUMP JUMPDEST DUP2 SLOAD PUSH1 0x0 DUP2 DUP2 MSTORE PUSH1 0x5 PUSH1 0x20 MSTORE PUSH1 0x40 DUP2 KECCAK256 SWAP1 DUP1 PUSH2 0x1C45 DUP11 DUP11 PUSH2 0x2AEA JUMP JUMPDEST PUSH1 0x1 PUSH1 0x1 PUSH1 0xA0 SHL SUB DUP3 AND PUSH1 0x0 SWAP1 DUP2 MSTORE PUSH1 0x2 DUP10 ADD PUSH1 0x20 MSTORE PUSH1 0x40 SWAP1 KECCAK256 SLOAD SWAP2 SWAP4 POP SWAP2 POP PUSH1 0x1 PUSH1 0x1 PUSH1 0x60 SHL SUB AND ISZERO PUSH2 0x1C9C JUMPI PUSH1 0x1 PUSH1 0x1 PUSH1 0xA0 SHL SUB DUP3 AND PUSH1 0x0 SWAP1 DUP2 MSTORE PUSH1 0x2 DUP8 ADD PUSH1 0x20 MSTORE PUSH1 0x40 SWAP1 KECCAK256 DUP1 SLOAD PUSH1 0x1 PUSH1 0x1 PUSH1 0x60 SHL SUB NOT AND SWAP1 SSTORE JUMPDEST PUSH1 0x4 DUP7 ADD SLOAD PUSH1 0x0 DUP2 SWAP1 SUB PUSH2 0x1CED JUMPI PUSH1 0x1 DUP5 PUSH1 0x4 ADD PUSH1 0x1C DUP3 DUP3 DUP3 SWAP1 SLOAD SWAP1 PUSH2 0x100 EXP SWAP1 DIV PUSH4 0xFFFFFFFF AND PUSH2 0x1CCE SWAP2 SWAP1 PUSH2 0x3722 JUMP JUMPDEST SWAP3 POP PUSH2 0x100 EXP DUP2 SLOAD DUP2 PUSH4 0xFFFFFFFF MUL NOT AND SWAP1 DUP4 PUSH4 0xFFFFFFFF AND MUL OR SWAP1 SSTORE POP JUMPDEST PUSH2 0x1CF7 DUP3 DUP3 PUSH2 0x35EF JUMP JUMPDEST PUSH1 0x4 DUP9 ADD DUP2 SWAP1 SSTORE PUSH1 0x3 DUP9 ADD SLOAD PUSH1 0x1 DUP10 ADD SLOAD SWAP2 SWAP3 POP PUSH2 0x1D2C SWAP2 PUSH1 0x1 PUSH1 0x1 PUSH1 0x60 SHL SUB PUSH1 0x1 PUSH1 0xA0 SHL SWAP3 DUP4 SWAP1 DIV DUP2 AND SWAP3 SWAP1 SWAP2 DIV AND PUSH2 0x3620 JUMP JUMPDEST PUSH1 0x1 PUSH1 0x1 PUSH1 0x60 SHL SUB AND DUP2 GT ISZERO PUSH2 0x1D84 JUMPI PUSH1 0x40 MLOAD PUSH3 0x461BCD PUSH1 0xE5 SHL DUP2 MSTORE PUSH1 0x20 PUSH1 0x4 DUP3 ADD MSTORE PUSH1 0x1C PUSH1 0x24 DUP3 ADD MSTORE PUSH32 0x416D6F756E7420746F20776974686472617720746F6F206C6172676500000000 PUSH1 0x44 DUP3 ADD MSTORE PUSH1 0x64 ADD PUSH2 0xA4E JUMP JUMPDEST PUSH1 0x0 DUP4 PUSH1 0x1 PUSH1 0x1 PUSH1 0xA0 SHL SUB AND DUP4 PUSH1 0x40 MLOAD PUSH1 0x0 PUSH1 0x40 MLOAD DUP1 DUP4 SUB DUP2 DUP6 DUP8 GAS CALL SWAP3 POP POP POP RETURNDATASIZE DUP1 PUSH1 0x0 DUP2 EQ PUSH2 0x1DD1 JUMPI PUSH1 0x40 MLOAD SWAP2 POP PUSH1 0x1F NOT PUSH1 0x3F RETURNDATASIZE ADD AND DUP3 ADD PUSH1 0x40 MSTORE RETURNDATASIZE DUP3 MSTORE RETURNDATASIZE PUSH1 0x0 PUSH1 0x20 DUP5 ADD RETURNDATACOPY PUSH2 0x1DD6 JUMP JUMPDEST PUSH1 0x60 SWAP2 POP JUMPDEST POP POP SWAP1 POP DUP1 PUSH2 0x1E1E JUMPI PUSH1 0x40 MLOAD PUSH3 0x461BCD PUSH1 0xE5 SHL DUP2 MSTORE PUSH1 0x20 PUSH1 0x4 DUP3 ADD MSTORE PUSH1 0x14 PUSH1 0x24 DUP3 ADD MSTORE PUSH20 0x2330B4B632B2103A379039B2B7321022BA3432B9 PUSH1 0x61 SHL PUSH1 0x44 DUP3 ADD MSTORE PUSH1 0x64 ADD PUSH2 0xA4E JUMP JUMPDEST PUSH1 0x40 DUP1 MLOAD PUSH1 0x1 PUSH1 0x1 PUSH1 0x60 SHL SUB DUP14 AND DUP2 MSTORE PUSH1 0x1 PUSH1 0x1 PUSH1 0xA0 SHL SUB DUP7 AND PUSH1 0x20 DUP3 ADD MSTORE DUP8 SWAP2 PUSH32 0xC9E74E0700D0C6488AF9C81D70FDD4158AEA77687137FF85499509C41A10612B SWAP2 ADD PUSH1 0x40 MLOAD DUP1 SWAP2 SUB SWAP1 LOG2 PUSH1 0x5 DUP6 ADD SLOAD PUSH1 0x1 PUSH1 0x1 PUSH1 0x60 SHL SUB AND ISZERO DUP1 ISZERO PUSH2 0x1E96 JUMPI POP DUP7 PUSH1 0x1 PUSH1 0x1 PUSH1 0xA0 SHL SUB AND DUP5 PUSH1 0x1 PUSH1 0x1 PUSH1 0xA0 SHL SUB AND EQ JUMPDEST ISZERO PUSH2 0x1EA5 JUMPI PUSH2 0x1EA5 DUP6 DUP13 PUSH2 0x2E4D JUMP JUMPDEST POP SWAP2 SWAP11 SWAP10 POP POP POP POP POP POP POP POP POP POP JUMP JUMPDEST PUSH1 0x1 PUSH1 0x1 PUSH1 0xA0 SHL SUB DUP3 AND PUSH1 0x0 SWAP1 DUP2 MSTORE PUSH1 0x7 PUSH1 0x20 MSTORE PUSH1 0x40 DUP2 KECCAK256 PUSH1 0x1 DUP2 ADD SLOAD PUSH2 0x1F0C SWAP1 PUSH1 0x1 PUSH1 0x1 PUSH1 0x60 SHL SUB DUP2 AND SWAP1 PUSH3 0xF4240 SWAP1 PUSH2 0x1EFD SWAP1 PUSH1 0x1 PUSH1 0x60 SHL SWAP1 DIV PUSH4 0xFFFFFFFF AND DUP8 PUSH2 0x364B JUMP JUMPDEST PUSH2 0x1F07 SWAP2 SWAP1 PUSH2 0x366A JUMP JUMPDEST PUSH2 0x2F7C JUMP JUMPDEST SWAP5 SWAP4 POP POP POP POP JUMP JUMPDEST PUSH2 0x1F1C PUSH2 0x286F JUMP JUMPDEST PUSH3 0xF423F DUP3 PUSH4 0xFFFFFFFF AND GT ISZERO PUSH2 0x1F75 JUMPI PUSH1 0x40 MLOAD PUSH3 0x461BCD PUSH1 0xE5 SHL DUP2 MSTORE PUSH1 0x20 PUSH1 0x4 DUP3 ADD MSTORE PUSH1 0x1E PUSH1 0x24 DUP3 ADD MSTORE PUSH32 0x4D6178696D756D2050504D206F66203939393939392065786365656465640000 PUSH1 0x44 DUP3 ADD MSTORE PUSH1 0x64 ADD PUSH2 0xA4E JUMP JUMPDEST PUSH3 0xF423F DUP2 PUSH4 0xFFFFFFFF AND GT ISZERO PUSH2 0x1FCE JUMPI PUSH1 0x40 MLOAD PUSH3 0x461BCD PUSH1 0xE5 SHL DUP2 MSTORE PUSH1 0x20 PUSH1 0x4 DUP3 ADD MSTORE PUSH1 0x1E PUSH1 0x24 DUP3 ADD MSTORE PUSH32 0x4D6178696D756D2050504D206F66203939393939392065786365656465640000 PUSH1 0x44 DUP3 ADD MSTORE PUSH1 0x64 ADD PUSH2 0xA4E JUMP JUMPDEST PUSH1 0x1 PUSH1 0x1 PUSH1 0xA0 SHL SUB DUP6 AND PUSH1 0x0 DUP2 DUP2 MSTORE PUSH1 0x7 PUSH1 0x20 SWAP1 DUP2 MSTORE PUSH1 0x40 SWAP2 DUP3 SWAP1 KECCAK256 DUP8 DUP2 SSTORE PUSH1 0x1 DUP2 ADD DUP1 SLOAD PUSH1 0x1 PUSH1 0x1 PUSH1 0x60 SHL SUB DUP10 AND PUSH16 0xFFFFFFFFFFFFFFFFFFFFFFFFFFFFFFFF NOT SWAP1 SWAP2 AND DUP2 OR PUSH1 0x1 PUSH1 0x60 SHL PUSH4 0xFFFFFFFF DUP11 DUP2 AND SWAP2 DUP3 MUL SWAP3 SWAP1 SWAP3 OR PUSH4 0xFFFFFFFF PUSH1 0x80 SHL NOT AND PUSH1 0x1 PUSH1 0x80 SHL SWAP3 DUP11 AND SWAP3 DUP4 MUL OR SWAP1 SWAP4 SSTORE DUP6 MLOAD SWAP7 DUP8 MSTORE SWAP4 DUP7 ADD DUP11 SWAP1 MSTORE SWAP4 DUP6 ADD SWAP4 SWAP1 SWAP4 MSTORE PUSH1 0x60 DUP5 ADD SWAP3 SWAP1 SWAP3 MSTORE PUSH1 0x80 DUP4 ADD MSTORE SWAP1 PUSH32 0xB226EDFFD2920F3FE08961DC98B19D4815BBE75AF416F5E82CA7BF7BE50350C4 SWAP1 PUSH1 0xA0 ADD PUSH2 0xC46 JUMP JUMPDEST PUSH1 0x1 PUSH1 0x1 PUSH1 0x60 SHL SUB DUP2 AND PUSH1 0x0 SWAP1 DUP2 MSTORE PUSH1 0x6 PUSH1 0x20 MSTORE PUSH1 0x40 SWAP1 KECCAK256 PUSH1 0x1 ADD SLOAD DUP2 SWAP1 PUSH1 0x1 PUSH1 0x1 PUSH1 0xA0 SHL SUB AND PUSH2 0x20CE JUMPI PUSH1 0x40 MLOAD PUSH3 0x461BCD PUSH1 0xE5 SHL DUP2 MSTORE PUSH1 0x4 ADD PUSH2 0xA4E SWAP1 PUSH2 0x36F7 JUMP JUMPDEST PUSH1 0x1 PUSH1 0x1 PUSH1 0x60 SHL SUB DUP3 AND PUSH1 0x0 SWAP1 DUP2 MSTORE PUSH1 0x6 PUSH1 0x20 MSTORE PUSH1 0x40 SWAP1 KECCAK256 DUP1 SLOAD PUSH1 0x5 DUP3 ADD SLOAD TIMESTAMP DUP2 GT PUSH2 0x212C JUMPI PUSH1 0x40 MLOAD PUSH3 0x461BCD PUSH1 0xE5 SHL DUP2 MSTORE PUSH1 0x20 PUSH1 0x4 DUP3 ADD MSTORE PUSH1 0xD PUSH1 0x24 DUP3 ADD MSTORE PUSH13 0x10DB185A5B48195E1C1A5C9959 PUSH1 0x9A SHL PUSH1 0x44 DUP3 ADD MSTORE PUSH1 0x64 ADD PUSH2 0xA4E JUMP JUMPDEST PUSH1 0x0 DUP3 DUP2 MSTORE PUSH1 0x5 PUSH1 0x20 DUP2 SWAP1 MSTORE PUSH1 0x40 SWAP1 SWAP2 KECCAK256 ADD SLOAD PUSH1 0x1 PUSH1 0x60 SHL SWAP1 DIV PUSH1 0x1 PUSH1 0x1 PUSH1 0xA0 SHL SUB AND ISZERO PUSH2 0x219C JUMPI PUSH1 0x40 MLOAD PUSH3 0x461BCD PUSH1 0xE5 SHL DUP2 MSTORE PUSH1 0x20 PUSH1 0x4 DUP3 ADD MSTORE PUSH1 0x18 PUSH1 0x24 DUP3 ADD MSTORE PUSH32 0x5265717565737420616C7265616479207265736F6C7665640000000000000000 PUSH1 0x44 DUP3 ADD MSTORE PUSH1 0x64 ADD PUSH2 0xA4E JUMP JUMPDEST PUSH1 0x0 DUP3 DUP2 MSTORE PUSH1 0x5 PUSH1 0x20 SWAP1 DUP2 MSTORE PUSH1 0x40 DUP1 DUP4 KECCAK256 PUSH1 0x6 DUP8 ADD SLOAD DUP5 MSTORE PUSH1 0x7 ADD SWAP1 SWAP2 MSTORE SWAP1 KECCAK256 SLOAD PUSH1 0xFF AND ISZERO PUSH2 0x2208 JUMPI PUSH1 0x40 MLOAD PUSH3 0x461BCD PUSH1 0xE5 SHL DUP2 MSTORE PUSH1 0x20 PUSH1 0x4 DUP3 ADD MSTORE PUSH1 0x18 PUSH1 0x24 DUP3 ADD MSTORE PUSH24 0x119A5B1B08185B1C9958591E481A5B9D985B1A59185D1959 PUSH1 0x42 SHL PUSH1 0x44 DUP3 ADD MSTORE PUSH1 0x64 ADD PUSH2 0xA4E JUMP JUMPDEST PUSH1 0x1 DUP4 ADD SLOAD PUSH1 0x3 DUP5 ADD SLOAD PUSH32 0x0 SWAP2 PUSH1 0x1 PUSH1 0x1 PUSH1 0xA0 SHL SUB DUP2 AND SWAP2 PUSH1 0x1 PUSH1 0x1 PUSH1 0x60 SHL SUB PUSH1 0x1 PUSH1 0xA0 SHL SWAP3 DUP4 SWAP1 DIV DUP2 AND SWAP3 SWAP1 SWAP2 DIV AND DUP1 DUP3 GT ISZERO PUSH2 0x2362 JUMPI DUP1 PUSH1 0x1 PUSH1 0x1 PUSH1 0x60 SHL SUB AND PUSH1 0x0 SUB PUSH2 0x229C JUMPI PUSH1 0x0 DUP7 DUP2 MSTORE PUSH1 0x5 PUSH1 0x20 SWAP1 DUP2 MSTORE PUSH1 0x40 DUP1 DUP4 KECCAK256 PUSH1 0x2 ADD SLOAD DUP4 MSTORE PUSH1 0x4 SWAP1 SWAP2 MSTORE SWAP1 KECCAK256 SLOAD PUSH2 0x2299 SWAP1 DUP6 PUSH2 0x35EF JUMP JUMPDEST SWAP4 POP JUMPDEST PUSH1 0x1 PUSH1 0x1 PUSH1 0xA0 SHL SUB DUP4 AND CALLER SUB PUSH2 0x22F4 JUMPI PUSH1 0x40 MLOAD PUSH3 0x461BCD PUSH1 0xE5 SHL DUP2 MSTORE PUSH1 0x20 PUSH1 0x4 DUP3 ADD MSTORE PUSH1 0x1A PUSH1 0x24 DUP3 ADD MSTORE PUSH32 0x43616E6E6F74206368616C6C656E6765206F776E20636C61696D000000000000 PUSH1 0x44 DUP3 ADD MSTORE PUSH1 0x64 ADD PUSH2 0xA4E JUMP JUMPDEST PUSH2 0x22FE DUP2 DUP4 PUSH2 0x3747 JUMP JUMPDEST PUSH2 0x2309 SWAP1 PUSH1 0x1 PUSH2 0x3620 JUMP JUMPDEST PUSH1 0x1 PUSH1 0x1 PUSH1 0x60 SHL SUB AND CALLVALUE LT ISZERO PUSH2 0x235D JUMPI PUSH1 0x40 MLOAD PUSH3 0x461BCD PUSH1 0xE5 SHL DUP2 MSTORE PUSH1 0x20 PUSH1 0x4 DUP3 ADD MSTORE PUSH1 0x19 PUSH1 0x24 DUP3 ADD MSTORE PUSH25 0x139BDD08195B9BDD59DA081CDD185AD9481C1C9BDD9A591959 PUSH1 0x3A SHL PUSH1 0x44 DUP3 ADD MSTORE PUSH1 0x64 ADD PUSH2 0xA4E JUMP JUMPDEST PUSH2 0x243C JUMP JUMPDEST CALLER PUSH1 0x1 PUSH1 0x1 PUSH1 0xA0 SHL SUB DUP5 AND EQ PUSH2 0x23B3 JUMPI PUSH1 0x40 MLOAD PUSH3 0x461BCD PUSH1 0xE5 SHL DUP2 MSTORE PUSH1 0x20 PUSH1 0x4 DUP3 ADD MSTORE PUSH1 0x16 PUSH1 0x24 DUP3 ADD MSTORE PUSH22 0x139BDD08195B1A59DA589B19481D1BC81BDD5D189A59 PUSH1 0x52 SHL PUSH1 0x44 DUP3 ADD MSTORE PUSH1 0x64 ADD PUSH2 0xA4E JUMP JUMPDEST PUSH32 0x0 PUSH2 0x23DE DUP4 DUP4 PUSH2 0x3747 JUMP JUMPDEST PUSH2 0x23E8 SWAP2 SWAP1 PUSH2 0x3620 JUMP JUMPDEST PUSH1 0x1 PUSH1 0x1 PUSH1 0x60 SHL SUB AND CALLVALUE LT ISZERO PUSH2 0x243C JUMPI PUSH1 0x40 MLOAD PUSH3 0x461BCD PUSH1 0xE5 SHL DUP2 MSTORE PUSH1 0x20 PUSH1 0x4 DUP3 ADD MSTORE PUSH1 0x19 PUSH1 0x24 DUP3 ADD MSTORE PUSH25 0x139BDD08195B9BDD59DA081CDD185AD9481C1C9BDD9A591959 PUSH1 0x3A SHL PUSH1 0x44 DUP3 ADD MSTORE PUSH1 0x64 ADD PUSH2 0xA4E JUMP JUMPDEST PUSH1 0x1 PUSH1 0x1 PUSH1 0xA0 SHL SUB DUP4 AND CALLER SUB PUSH2 0x247F JUMPI PUSH2 0x2456 CALLVALUE DUP4 PUSH2 0x3620 JUMP JUMPDEST PUSH1 0x1 DUP9 ADD DUP1 SLOAD PUSH1 0x1 PUSH1 0x1 PUSH1 0xA0 SHL SUB AND PUSH1 0x1 PUSH1 0xA0 SHL PUSH1 0x1 PUSH1 0x1 PUSH1 0x60 SHL SUB DUP5 AND MUL OR SWAP1 SSTORE SWAP2 POP PUSH2 0x2514 JUMP JUMPDEST PUSH1 0x3 DUP8 ADD DUP1 SLOAD PUSH1 0x1 PUSH1 0x1 PUSH1 0xA0 SHL SUB NOT AND CALLER SWAP1 DUP2 OR SWAP1 SWAP2 SSTORE PUSH1 0x0 SWAP1 DUP2 MSTORE PUSH1 0x2 DUP9 ADD PUSH1 0x20 MSTORE PUSH1 0x40 DUP2 KECCAK256 DUP1 SLOAD CALLVALUE SWAP3 SWAP1 PUSH2 0x24BF SWAP1 DUP5 SWAP1 PUSH1 0x1 PUSH1 0x1 PUSH1 0x60 SHL SUB AND PUSH2 0x3620 JUMP JUMPDEST SWAP3 POP PUSH2 0x100 EXP DUP2 SLOAD DUP2 PUSH1 0x1 PUSH1 0x1 PUSH1 0x60 SHL SUB MUL NOT AND SWAP1 DUP4 PUSH1 0x1 PUSH1 0x1 PUSH1 0x60 SHL SUB AND MUL OR SWAP1 SSTORE POP CALLVALUE DUP2 PUSH2 0x24EF SWAP2 SWAP1 PUSH2 0x3620 JUMP JUMPDEST PUSH1 0x3 DUP9 ADD DUP1 SLOAD PUSH1 0x1 PUSH1 0x1 PUSH1 0xA0 SHL SUB AND PUSH1 0x1 PUSH1 0xA0 SHL PUSH1 0x1 PUSH1 0x1 PUSH1 0x60 SHL SUB DUP5 AND MUL OR SWAP1 SSTORE SWAP1 POP JUMPDEST DUP5 PUSH2 0x251F DUP6 TIMESTAMP PUSH2 0x35EF JUMP JUMPDEST GT ISZERO PUSH2 0x2539 JUMPI PUSH2 0x252F DUP5 TIMESTAMP PUSH2 0x35EF JUMP JUMPDEST PUSH1 0x5 DUP9 ADD DUP2 SWAP1 SSTORE SWAP5 POP JUMPDEST PUSH1 0x3 DUP8 ADD SLOAD PUSH1 0x6 DUP9 ADD SLOAD PUSH1 0x40 MLOAD DUP9 SWAP3 PUSH32 0xF0289B2C09D4E59035C29451CFBB75C07A50FDCC68DB2ECCEF5A84DB99285E44 SWAP3 PUSH2 0x2589 SWAP3 DUP15 SWAP3 DUP10 SWAP3 DUP10 SWAP3 PUSH1 0x1 PUSH1 0x1 PUSH1 0xA0 SHL SUB SWAP1 SWAP3 AND SWAP2 DUP10 SWAP2 DUP15 SWAP2 PUSH2 0x36AB JUMP JUMPDEST PUSH1 0x40 MLOAD DUP1 SWAP2 SUB SWAP1 LOG2 POP POP POP POP POP POP POP POP POP JUMP JUMPDEST PUSH2 0x25A4 PUSH2 0x286F JUMP JUMPDEST PUSH1 0x1 PUSH1 0x1 PUSH1 0xA0 SHL SUB DUP3 AND PUSH1 0x0 SWAP1 DUP2 MSTORE PUSH1 0x7 PUSH1 0x20 MSTORE PUSH1 0x40 SWAP1 KECCAK256 PUSH1 0x1 ADD SLOAD PUSH1 0x1 PUSH1 0xA0 SHL SWAP1 DIV PUSH1 0x1 PUSH1 0x1 PUSH1 0x60 SHL SUB AND DUP1 PUSH2 0x2614 JUMPI PUSH1 0x40 MLOAD PUSH3 0x461BCD PUSH1 0xE5 SHL DUP2 MSTORE PUSH1 0x20 PUSH1 0x4 DUP3 ADD MSTORE PUSH1 0x14 PUSH1 0x24 DUP3 ADD MSTORE PUSH20 0x50726F746F636F6C20666565206973207A65726F PUSH1 0x60 SHL PUSH1 0x44 DUP3 ADD MSTORE PUSH1 0x64 ADD PUSH2 0xA4E JUMP JUMPDEST PUSH1 0x1 PUSH1 0x1 PUSH1 0xA0 SHL SUB DUP1 DUP5 AND PUSH1 0x0 DUP2 DUP2 MSTORE PUSH1 0x7 PUSH1 0x20 MSTORE PUSH1 0x40 SWAP1 KECCAK256 PUSH1 0x1 ADD DUP1 SLOAD SWAP1 SWAP3 AND SWAP1 SWAP2 SSTORE DUP4 SWAP1 PUSH2 0x1B1A SWAP1 DUP5 DUP5 PUSH2 0x2A7D JUMP JUMPDEST PUSH2 0x264D PUSH2 0x286F JUMP JUMPDEST PUSH1 0x0 DUP2 GT PUSH2 0x26AC JUMPI PUSH1 0x40 MLOAD PUSH3 0x461BCD PUSH1 0xE5 SHL DUP2 MSTORE PUSH1 0x20 PUSH1 0x4 DUP3 ADD MSTORE PUSH1 0x26 PUSH1 0x24 DUP3 ADD MSTORE PUSH32 0x46696E616C69747920706572696F64206D757374206265206772656174657220 PUSH1 0x44 DUP3 ADD MSTORE PUSH6 0x7468616E203 PUSH1 0xD4 SHL PUSH1 0x64 DUP3 ADD MSTORE PUSH1 0x84 ADD PUSH2 0xA4E JUMP JUMPDEST PUSH1 0x0 DUP3 DUP2 MSTORE PUSH1 0x4 PUSH1 0x20 SWAP1 DUP2 MSTORE PUSH1 0x40 SWAP2 DUP3 SWAP1 KECCAK256 DUP4 SWAP1 SSTORE DUP2 MLOAD DUP5 DUP2 MSTORE SWAP1 DUP2 ADD DUP4 SWAP1 MSTORE PUSH32 0xABA57B48B9F1DFD5747A52ED348A6AB6AA7BAFB0575363A5CB7B62659F727B65 SWAP2 ADD PUSH1 0x40 MLOAD DUP1 SWAP2 SUB SWAP1 LOG1 POP POP JUMP JUMPDEST PUSH1 0x1 PUSH1 0x1 PUSH1 0x60 SHL SUB DUP2 AND PUSH1 0x0 SWAP1 DUP2 MSTORE PUSH1 0x6 PUSH1 0x20 MSTORE PUSH1 0x40 DUP2 KECCAK256 PUSH1 0x1 ADD SLOAD DUP3 SWAP1 PUSH1 0x1 PUSH1 0x1 PUSH1 0xA0 SHL SUB AND PUSH2 0x273E JUMPI PUSH1 0x40 MLOAD PUSH3 0x461BCD PUSH1 0xE5 SHL DUP2 MSTORE PUSH1 0x4 ADD PUSH2 0xA4E SWAP1 PUSH2 0x36F7 JUMP JUMPDEST PUSH2 0xCFD CALLER DUP5 PUSH2 0x1B30 JUMP JUMPDEST PUSH2 0x2750 PUSH2 0x286F JUMP JUMPDEST PUSH1 0x1 PUSH1 0x1 PUSH1 0xA0 SHL SUB DUP2 AND PUSH2 0x27B5 JUMPI PUSH1 0x40 MLOAD PUSH3 0x461BCD PUSH1 0xE5 SHL DUP2 MSTORE PUSH1 0x20 PUSH1 0x4 DUP3 ADD MSTORE PUSH1 0x26 PUSH1 0x24 DUP3 ADD MSTORE PUSH32 0x4F776E61626C653A206E6577206F776E657220697320746865207A65726F2061 PUSH1 0x44 DUP3 ADD MSTORE PUSH6 0x646472657373 PUSH1 0xD0 SHL PUSH1 0x64 DUP3 ADD MSTORE PUSH1 0x84 ADD PUSH2 0xA4E JUMP JUMPDEST PUSH2 0x1905 DUP2 PUSH2 0x291B JUMP JUMPDEST PUSH1 0x3 SLOAD PUSH1 0xFF AND ISZERO PUSH2 0x12AD JUMPI PUSH1 0x40 MLOAD PUSH3 0x461BCD PUSH1 0xE5 SHL DUP2 MSTORE PUSH1 0x20 PUSH1 0x4 DUP3 ADD MSTORE PUSH1 0x10 PUSH1 0x24 DUP3 ADD MSTORE PUSH16 0x14185D5CD8589B194E881C185D5CD959 PUSH1 0x82 SHL PUSH1 0x44 DUP3 ADD MSTORE PUSH1 0x64 ADD PUSH2 0xA4E JUMP JUMPDEST PUSH1 0x40 MLOAD PUSH1 0x1 PUSH1 0x1 PUSH1 0xA0 SHL SUB DUP1 DUP6 AND PUSH1 0x24 DUP4 ADD MSTORE DUP4 AND PUSH1 0x44 DUP3 ADD MSTORE PUSH1 0x64 DUP2 ADD DUP3 SWAP1 MSTORE PUSH2 0x1B1A SWAP1 DUP6 SWAP1 PUSH4 0x23B872DD PUSH1 0xE0 SHL SWAP1 PUSH1 0x84 ADD JUMPDEST PUSH1 0x40 DUP1 MLOAD PUSH1 0x1F NOT DUP2 DUP5 SUB ADD DUP2 MSTORE SWAP2 SWAP1 MSTORE PUSH1 0x20 DUP2 ADD DUP1 MLOAD PUSH1 0x1 PUSH1 0x1 PUSH1 0xE0 SHL SUB AND PUSH1 0x1 PUSH1 0x1 PUSH1 0xE0 SHL SUB NOT SWAP1 SWAP4 AND SWAP3 SWAP1 SWAP3 OR SWAP1 SWAP2 MSTORE PUSH2 0x2F92 JUMP JUMPDEST PUSH1 0x0 SLOAD PUSH1 0x1 PUSH1 0x1 PUSH1 0xA0 SHL SUB AND CALLER EQ PUSH2 0x12AD JUMPI PUSH1 0x40 MLOAD PUSH3 0x461BCD PUSH1 0xE5 SHL DUP2 MSTORE PUSH1 0x20 PUSH1 0x4 DUP3 ADD DUP2 SWAP1 MSTORE PUSH1 0x24 DUP3 ADD MSTORE PUSH32 0x4F776E61626C653A2063616C6C6572206973206E6F7420746865206F776E6572 PUSH1 0x44 DUP3 ADD MSTORE PUSH1 0x64 ADD PUSH2 0xA4E JUMP JUMPDEST PUSH2 0x28D1 PUSH2 0x3064 JUMP JUMPDEST PUSH1 0x3 DUP1 SLOAD PUSH1 0xFF NOT AND SWAP1 SSTORE PUSH32 0x5DB9EE0A495BF2E6FF9C91A7834C1BA4FDD244A5E8AA4E537BD38AEAE4B073AA CALLER JUMPDEST PUSH1 0x40 MLOAD PUSH1 0x1 PUSH1 0x1 PUSH1 0xA0 SHL SUB SWAP1 SWAP2 AND DUP2 MSTORE PUSH1 0x20 ADD PUSH1 0x40 MLOAD DUP1 SWAP2 SUB SWAP1 LOG1 JUMP JUMPDEST PUSH1 0x0 DUP1 SLOAD PUSH1 0x1 PUSH1 0x1 PUSH1 0xA0 SHL SUB DUP4 DUP2 AND PUSH1 0x1 PUSH1 0x1 PUSH1 0xA0 SHL SUB NOT DUP4 AND DUP2 OR DUP5 SSTORE PUSH1 0x40 MLOAD SWAP2 SWAP1 SWAP3 AND SWAP3 DUP4 SWAP2 PUSH32 0x8BE0079C531659141344CD1FD0A4F28419497F9722A3DAAFE3B4186F6B6457E0 SWAP2 SWAP1 LOG3 POP POP JUMP JUMPDEST PUSH1 0x1 PUSH1 0x1 PUSH1 0xA0 SHL SUB DUP3 AND PUSH2 0x29CD JUMPI PUSH1 0x40 MLOAD PUSH3 0x461BCD PUSH1 0xE5 SHL DUP2 MSTORE PUSH1 0x20 PUSH1 0x4 DUP3 ADD MSTORE PUSH1 0x23 PUSH1 0x24 DUP3 ADD MSTORE PUSH32 0x5265737472696374656443616C6C733A2063616C6C65722063616E6E6F742062 PUSH1 0x44 DUP3 ADD MSTORE PUSH3 0x65203 PUSH1 0xEC SHL PUSH1 0x64 DUP3 ADD MSTORE PUSH1 0x84 ADD PUSH2 0xA4E JUMP JUMPDEST PUSH1 0x0 DUP4 DUP2 MSTORE PUSH1 0x2 PUSH1 0x20 MSTORE PUSH1 0x40 SWAP1 KECCAK256 SLOAD PUSH1 0x1 PUSH1 0x1 PUSH1 0xA0 SHL SUB AND ISZERO PUSH2 0x2A41 JUMPI PUSH1 0x40 MLOAD PUSH3 0x461BCD PUSH1 0xE5 SHL DUP2 MSTORE PUSH1 0x20 PUSH1 0x4 DUP3 ADD MSTORE PUSH1 0x26 PUSH1 0x24 DUP3 ADD MSTORE PUSH32 0x5265737472696374656443616C6C733A2063616C6C657220616C726561647920 PUSH1 0x44 DUP3 ADD MSTORE PUSH6 0x657869737473 PUSH1 0xD0 SHL PUSH1 0x64 DUP3 ADD MSTORE PUSH1 0x84 ADD PUSH2 0xA4E JUMP JUMPDEST PUSH1 0x40 DUP1 MLOAD DUP1 DUP3 ADD DUP3 MSTORE PUSH1 0x1 PUSH1 0x1 PUSH1 0xA0 SHL SUB DUP1 DUP6 AND DUP3 MSTORE DUP4 AND PUSH1 0x20 DUP1 DUP4 ADD SWAP2 SWAP1 SWAP2 MSTORE PUSH1 0x0 DUP7 DUP2 MSTORE PUSH1 0x2 SWAP2 DUP3 SWAP1 MSTORE SWAP3 SWAP1 SWAP3 KECCAK256 PUSH2 0x1B1A SWAP3 SWAP1 SWAP2 SWAP1 PUSH2 0x31D0 JUMP JUMPDEST PUSH1 0x40 MLOAD PUSH1 0x1 PUSH1 0x1 PUSH1 0xA0 SHL SUB DUP4 AND PUSH1 0x24 DUP3 ADD MSTORE PUSH1 0x44 DUP2 ADD DUP3 SWAP1 MSTORE PUSH2 0x1855 SWAP1 DUP5 SWAP1 PUSH4 0xA9059CBB PUSH1 0xE0 SHL SWAP1 PUSH1 0x64 ADD PUSH2 0x2838 JUMP JUMPDEST PUSH2 0x2AB5 PUSH2 0x27BE JUMP JUMPDEST PUSH1 0x3 DUP1 SLOAD PUSH1 0xFF NOT AND PUSH1 0x1 OR SWAP1 SSTORE PUSH32 0x62E78CEA01BEE320CD4E420270B5EA74000D11B0C9F74754EBDBFC544B05A258 PUSH2 0x28FE CALLER SWAP1 JUMP JUMPDEST PUSH1 0x1 PUSH1 0x1 PUSH1 0x60 SHL SUB DUP1 DUP3 AND PUSH1 0x0 SWAP1 DUP2 MSTORE PUSH1 0x6 PUSH1 0x20 SWAP1 DUP2 MSTORE PUSH1 0x40 DUP1 DUP4 KECCAK256 DUP1 SLOAD DUP5 MSTORE PUSH1 0x5 SWAP3 DUP4 SWAP1 MSTORE SWAP1 DUP4 KECCAK256 SWAP2 DUP3 ADD SLOAD PUSH1 0x1 DUP3 ADD SLOAD PUSH1 0x3 DUP4 ADD SLOAD SWAP5 SWAP6 DUP7 SWAP6 SWAP4 SWAP5 SWAP4 SWAP3 DUP2 AND SWAP3 PUSH1 0x1 PUSH1 0x1 PUSH1 0xA0 SHL SUB DUP4 AND SWAP3 PUSH1 0x1 PUSH1 0xA0 SHL SWAP1 DUP2 SWAP1 DIV DUP4 AND SWAP3 SWAP2 DIV AND PUSH2 0x2B50 DUP2 DUP4 PUSH2 0x3620 JUMP JUMPDEST PUSH1 0x1 PUSH1 0x1 PUSH1 0x60 SHL SUB AND DUP7 PUSH1 0x4 ADD SLOAD LT PUSH2 0x2BAB JUMPI PUSH1 0x40 MLOAD PUSH3 0x461BCD PUSH1 0xE5 SHL DUP2 MSTORE PUSH1 0x20 PUSH1 0x4 DUP3 ADD MSTORE PUSH1 0x17 PUSH1 0x24 DUP3 ADD MSTORE PUSH32 0x436C61696D20616C72656164792077697468647261776E000000000000000000 PUSH1 0x44 DUP3 ADD MSTORE PUSH1 0x64 ADD PUSH2 0xA4E JUMP JUMPDEST PUSH1 0x5 DUP6 ADD SLOAD PUSH1 0x6 DUP7 ADD SLOAD PUSH1 0x0 SWAP2 PUSH1 0x1 PUSH1 0x60 SHL SWAP1 DIV PUSH1 0x1 PUSH1 0x1 PUSH1 0xA0 SHL SUB AND SWAP1 DUP2 ISZERO PUSH2 0x2BFA JUMPI DUP6 PUSH1 0x1 PUSH1 0x1 PUSH1 0xA0 SHL SUB AND DUP3 PUSH1 0x1 PUSH1 0x1 PUSH1 0xA0 SHL SUB AND EQ DUP1 ISZERO PUSH2 0x2BF3 JUMPI POP DUP9 PUSH1 0x6 ADD SLOAD DUP2 EQ JUMPDEST SWAP3 POP PUSH2 0x2CF2 JUMP JUMPDEST PUSH1 0x0 DUP2 DUP2 MSTORE PUSH1 0x7 DUP10 ADD PUSH1 0x20 MSTORE PUSH1 0x40 SWAP1 KECCAK256 SLOAD PUSH1 0xFF AND ISZERO PUSH2 0x2C1C JUMPI PUSH1 0x0 SWAP3 POP PUSH2 0x2CF2 JUMP JUMPDEST PUSH1 0x1 PUSH1 0x1 PUSH1 0x60 SHL SUB DUP8 AND ISZERO PUSH2 0x2C86 JUMPI PUSH1 0x1 PUSH1 0x1 PUSH1 0x60 SHL SUB DUP8 AND PUSH1 0x0 SWAP1 DUP2 MSTORE PUSH1 0x6 PUSH1 0x20 MSTORE PUSH1 0x40 SWAP1 KECCAK256 PUSH1 0x1 ADD SLOAD PUSH1 0x1 PUSH1 0x1 PUSH1 0xA0 SHL SUB DUP8 DUP2 AND SWAP2 AND EQ DUP1 ISZERO PUSH2 0x2BF3 JUMPI POP PUSH1 0x1 PUSH1 0x1 PUSH1 0x60 SHL SUB DUP8 AND PUSH1 0x0 SWAP1 DUP2 MSTORE PUSH1 0x6 PUSH1 0x20 DUP2 SWAP1 MSTORE PUSH1 0x40 SWAP1 SWAP2 KECCAK256 DUP2 ADD SLOAD SWAP1 DUP11 ADD SLOAD EQ SWAP3 POP PUSH2 0x2CF2 JUMP JUMPDEST DUP9 PUSH1 0x5 ADD SLOAD TIMESTAMP LT ISZERO PUSH2 0x2CDA JUMPI PUSH1 0x40 MLOAD PUSH3 0x461BCD PUSH1 0xE5 SHL DUP2 MSTORE PUSH1 0x20 PUSH1 0x4 DUP3 ADD MSTORE PUSH1 0x19 PUSH1 0x24 DUP3 ADD MSTORE PUSH32 0x436C61696D20706572696F64206E6F742066696E697368656400000000000000 PUSH1 0x44 DUP3 ADD MSTORE PUSH1 0x64 ADD PUSH2 0xA4E JUMP JUMPDEST DUP4 PUSH1 0x1 PUSH1 0x1 PUSH1 0x60 SHL SUB AND DUP6 PUSH1 0x1 PUSH1 0x1 PUSH1 0x60 SHL SUB AND GT SWAP3 POP JUMPDEST PUSH1 0x0 DUP1 DUP5 ISZERO PUSH2 0x2D0E JUMPI POP DUP7 PUSH2 0x2D07 DUP7 DUP9 PUSH2 0x3620 JUMP JUMPDEST SWAP2 POP PUSH2 0x2DCC JUMP JUMPDEST PUSH1 0x1 PUSH1 0x1 PUSH1 0x60 SHL SUB DUP7 AND ISZERO PUSH2 0x2DBB JUMPI POP PUSH1 0x1 PUSH1 0x1 PUSH1 0xA0 SHL SUB DUP15 AND PUSH1 0x0 SWAP1 DUP2 MSTORE PUSH1 0x2 DUP1 DUP13 ADD PUSH1 0x20 MSTORE PUSH1 0x40 SWAP1 SWAP2 KECCAK256 SLOAD DUP16 SWAP2 PUSH2 0x2D50 SWAP2 PUSH1 0x1 PUSH1 0x1 PUSH1 0x60 SHL SUB AND SWAP1 PUSH2 0x3767 JUMP JUMPDEST SWAP2 POP PUSH1 0x0 DUP3 PUSH1 0x1 PUSH1 0x1 PUSH1 0x60 SHL SUB AND GT PUSH2 0x2DB6 JUMPI PUSH1 0x40 MLOAD PUSH3 0x461BCD PUSH1 0xE5 SHL DUP2 MSTORE PUSH1 0x20 PUSH1 0x4 DUP3 ADD MSTORE PUSH1 0x22 PUSH1 0x24 DUP3 ADD MSTORE PUSH32 0x4368616C6C656E67657220686173206E6F7468696E6720746F20776974686472 PUSH1 0x44 DUP3 ADD MSTORE PUSH2 0x6177 PUSH1 0xF0 SHL PUSH1 0x64 DUP3 ADD MSTORE PUSH1 0x84 ADD PUSH2 0xA4E JUMP JUMPDEST PUSH2 0x2DCC JUMP JUMPDEST POP POP PUSH1 0x0 SLOAD DUP6 SWAP1 PUSH1 0x1 PUSH1 0x1 PUSH1 0xA0 SHL SUB AND JUMPDEST PUSH1 0x3 DUP12 ADD SLOAD PUSH1 0x1 PUSH1 0x1 PUSH1 0xA0 SHL SUB SWAP1 DUP2 AND SWAP1 DUP3 AND SUB PUSH2 0x2E30 JUMPI DUP6 PUSH1 0x1 PUSH1 0x1 PUSH1 0x60 SHL SUB AND DUP8 PUSH1 0x1 PUSH1 0x1 PUSH1 0x60 SHL SUB AND GT ISZERO PUSH2 0x2E19 JUMPI PUSH2 0x2E08 DUP7 DUP9 PUSH2 0x3747 JUMP JUMPDEST PUSH2 0x2E12 SWAP1 DUP4 PUSH2 0x3620 JUMP JUMPDEST SWAP2 POP PUSH2 0x2E30 JUMP JUMPDEST PUSH2 0x2E23 DUP8 DUP8 PUSH2 0x3747 JUMP JUMPDEST PUSH2 0x2E2D SWAP1 DUP4 PUSH2 0x3747 JUMP JUMPDEST SWAP2 POP JUMPDEST SWAP12 POP PUSH1 0x1 PUSH1 0x1 PUSH1 0x60 SHL SUB AND SWAP10 POP POP POP POP POP POP POP POP POP POP SWAP3 POP SWAP3 SWAP1 POP JUMP JUMPDEST PUSH1 0x1 PUSH1 0x1 PUSH1 0x60 SHL SUB DUP2 AND PUSH1 0x0 SWAP1 DUP2 MSTORE PUSH1 0x6 PUSH1 0x20 SWAP1 DUP2 MSTORE PUSH1 0x40 SWAP2 DUP3 SWAP1 KECCAK256 PUSH1 0x1 DUP2 ADD SLOAD DUP2 SLOAD DUP5 MLOAD SWAP1 DUP2 MSTORE PUSH1 0x1 PUSH1 0x1 PUSH1 0xA0 SHL SUB SWAP1 SWAP2 AND SWAP3 DUP2 ADD DUP4 SWAP1 MSTORE SWAP1 SWAP3 PUSH32 0xAB63A14C4AABA38366FD39116091672BB44520328EE870BE35A51E573296E565 SWAP2 ADD PUSH1 0x40 MLOAD DUP1 SWAP2 SUB SWAP1 LOG1 PUSH1 0x5 DUP5 ADD DUP1 SLOAD PUSH1 0x1 PUSH1 0x1 PUSH1 0x60 SHL SUB NOT AND PUSH1 0x1 PUSH1 0x1 PUSH1 0x60 SHL SUB DUP6 DUP2 AND SWAP2 SWAP1 SWAP2 OR SWAP1 SWAP2 SSTORE PUSH1 0x4 DUP6 ADD SLOAD PUSH1 0x1 DUP1 DUP8 ADD SLOAD PUSH1 0x1 PUSH1 0x1 PUSH1 0xA0 SHL SUB AND PUSH1 0x0 SWAP1 DUP2 MSTORE PUSH1 0x7 PUSH1 0x20 MSTORE PUSH1 0x40 SWAP1 KECCAK256 ADD DUP1 SLOAD PUSH1 0x1 PUSH1 0x80 SHL SWAP1 SWAP3 DIV DUP4 AND SWAP3 SWAP1 SWAP2 PUSH1 0x14 SWAP2 PUSH2 0x2F1E SWAP2 DUP6 SWAP2 PUSH1 0x1 PUSH1 0xA0 SHL SWAP1 SWAP2 DIV AND PUSH2 0x3620 JUMP JUMPDEST DUP3 SLOAD PUSH2 0x100 SWAP3 SWAP1 SWAP3 EXP PUSH1 0x1 PUSH1 0x1 PUSH1 0x60 SHL SUB DUP2 DUP2 MUL NOT SWAP1 SWAP4 AND SWAP2 DUP4 AND MUL OR SWAP1 SWAP2 SSTORE PUSH1 0x1 DUP7 ADD SLOAD PUSH1 0x4 DUP8 ADD SLOAD PUSH1 0x3 DUP9 ADD SLOAD PUSH1 0x1 PUSH1 0x1 PUSH1 0xA0 SHL SUB SWAP1 SWAP3 AND SWAP4 POP PUSH2 0x2F75 SWAP3 DUP6 SWAP3 PUSH2 0x1B09 SWAP3 PUSH5 0x100000000 SWAP1 DIV SWAP1 SWAP2 AND SWAP1 PUSH2 0x35EF JUMP JUMPDEST POP POP POP POP POP JUMP JUMPDEST PUSH1 0x0 DUP2 DUP4 GT PUSH2 0x2F8B JUMPI DUP2 PUSH2 0xCFD JUMP JUMPDEST POP SWAP1 SWAP2 SWAP1 POP JUMP JUMPDEST PUSH1 0x0 PUSH2 0x2FE7 DUP3 PUSH1 0x40 MLOAD DUP1 PUSH1 0x40 ADD PUSH1 0x40 MSTORE DUP1 PUSH1 0x20 DUP2 MSTORE PUSH1 0x20 ADD PUSH32 0x5361666545524332303A206C6F772D6C6576656C2063616C6C206661696C6564 DUP2 MSTORE POP DUP6 PUSH1 0x1 PUSH1 0x1 PUSH1 0xA0 SHL SUB AND PUSH2 0x30AD SWAP1 SWAP3 SWAP2 SWAP1 PUSH4 0xFFFFFFFF AND JUMP JUMPDEST DUP1 MLOAD SWAP1 SWAP2 POP ISZERO PUSH2 0x1855 JUMPI DUP1 DUP1 PUSH1 0x20 ADD SWAP1 MLOAD DUP2 ADD SWAP1 PUSH2 0x3005 SWAP2 SWAP1 PUSH2 0x358A JUMP JUMPDEST PUSH2 0x1855 JUMPI PUSH1 0x40 MLOAD PUSH3 0x461BCD PUSH1 0xE5 SHL DUP2 MSTORE PUSH1 0x20 PUSH1 0x4 DUP3 ADD MSTORE PUSH1 0x2A PUSH1 0x24 DUP3 ADD MSTORE PUSH32 0x5361666545524332303A204552433230206F7065726174696F6E20646964206E PUSH1 0x44 DUP3 ADD MSTORE PUSH10 0x1BDD081CDD58D8D95959 PUSH1 0xB2 SHL PUSH1 0x64 DUP3 ADD MSTORE PUSH1 0x84 ADD PUSH2 0xA4E JUMP JUMPDEST PUSH1 0x3 SLOAD PUSH1 0xFF AND PUSH2 0x12AD JUMPI PUSH1 0x40 MLOAD PUSH3 0x461BCD PUSH1 0xE5 SHL DUP2 MSTORE PUSH1 0x20 PUSH1 0x4 DUP3 ADD MSTORE PUSH1 0x14 PUSH1 0x24 DUP3 ADD MSTORE PUSH20 0x14185D5CD8589B194E881B9BDD081C185D5CD959 PUSH1 0x62 SHL PUSH1 0x44 DUP3 ADD MSTORE PUSH1 0x64 ADD PUSH2 0xA4E JUMP JUMPDEST PUSH1 0x60 PUSH2 0x1F0C DUP5 DUP5 PUSH1 0x0 DUP6 DUP6 PUSH1 0x0 DUP1 DUP7 PUSH1 0x1 PUSH1 0x1 PUSH1 0xA0 SHL SUB AND DUP6 DUP8 PUSH1 0x40 MLOAD PUSH2 0x30D4 SWAP2 SWAP1 PUSH2 0x37C2 JUMP JUMPDEST PUSH1 0x0 PUSH1 0x40 MLOAD DUP1 DUP4 SUB DUP2 DUP6 DUP8 GAS CALL SWAP3 POP POP POP RETURNDATASIZE DUP1 PUSH1 0x0 DUP2 EQ PUSH2 0x3111 JUMPI PUSH1 0x40 MLOAD SWAP2 POP PUSH1 0x1F NOT PUSH1 0x3F RETURNDATASIZE ADD AND DUP3 ADD PUSH1 0x40 MSTORE RETURNDATASIZE DUP3 MSTORE RETURNDATASIZE PUSH1 0x0 PUSH1 0x20 DUP5 ADD RETURNDATACOPY PUSH2 0x3116 JUMP JUMPDEST PUSH1 0x60 SWAP2 POP JUMPDEST POP SWAP2 POP SWAP2 POP PUSH2 0x3127 DUP8 DUP4 DUP4 DUP8 PUSH2 0x3132 JUMP JUMPDEST SWAP8 SWAP7 POP POP POP POP POP POP POP JUMP JUMPDEST PUSH1 0x60 DUP4 ISZERO PUSH2 0x31A1 JUMPI DUP3 MLOAD PUSH1 0x0 SUB PUSH2 0x319A JUMPI PUSH1 0x1 PUSH1 0x1 PUSH1 0xA0 SHL SUB DUP6 AND EXTCODESIZE PUSH2 0x319A JUMPI PUSH1 0x40 MLOAD PUSH3 0x461BCD PUSH1 0xE5 SHL DUP2 MSTORE PUSH1 0x20 PUSH1 0x4 DUP3 ADD MSTORE PUSH1 0x1D PUSH1 0x24 DUP3 ADD MSTORE PUSH32 0x416464726573733A2063616C6C20746F206E6F6E2D636F6E7472616374000000 PUSH1 0x44 DUP3 ADD MSTORE PUSH1 0x64 ADD PUSH2 0xA4E JUMP JUMPDEST POP DUP2 PUSH2 0x1F0C JUMP JUMPDEST PUSH2 0x1F0C DUP4 DUP4 DUP2 MLOAD ISZERO PUSH2 0x31B6 JUMPI DUP2 MLOAD DUP1 DUP4 PUSH1 0x20 ADD REVERT JUMPDEST DUP1 PUSH1 0x40 MLOAD PUSH3 0x461BCD PUSH1 0xE5 SHL DUP2 MSTORE PUSH1 0x4 ADD PUSH2 0xA4E SWAP2 SWAP1 PUSH2 0x37DE JUMP JUMPDEST DUP3 PUSH1 0x2 DUP2 ADD SWAP3 DUP3 ISZERO PUSH2 0x3218 JUMPI SWAP2 PUSH1 0x20 MUL DUP3 ADD JUMPDEST DUP3 DUP2 GT ISZERO PUSH2 0x3218 JUMPI DUP3 MLOAD DUP3 SLOAD PUSH1 0x1 PUSH1 0x1 PUSH1 0xA0 SHL SUB NOT AND PUSH1 0x1 PUSH1 0x1 PUSH1 0xA0 SHL SUB SWAP1 SWAP2 AND OR DUP3 SSTORE PUSH1 0x20 SWAP1 SWAP3 ADD SWAP2 PUSH1 0x1 SWAP1 SWAP2 ADD SWAP1 PUSH2 0x31E3 JUMP JUMPDEST POP PUSH2 0x3224 SWAP3 SWAP2 POP PUSH2 0x3228 JUMP JUMPDEST POP SWAP1 JUMP JUMPDEST JUMPDEST DUP1 DUP3 GT ISZERO PUSH2 0x3224 JUMPI PUSH1 0x0 DUP2 SSTORE PUSH1 0x1 ADD PUSH2 0x3229 JUMP JUMPDEST PUSH1 0x0 DUP1 PUSH1 0x0 PUSH1 0x60 DUP5 DUP7 SUB SLT ISZERO PUSH2 0x3252 JUMPI PUSH1 0x0 DUP1 REVERT JUMPDEST POP POP DUP2 CALLDATALOAD SWAP4 PUSH1 0x20 DUP4 ADD CALLDATALOAD SWAP4 POP PUSH1 0x40 SWAP1 SWAP3 ADD CALLDATALOAD SWAP2 SWAP1 POP JUMP JUMPDEST PUSH1 0x0 DUP1 PUSH1 0x40 DUP4 DUP6 SUB SLT ISZERO PUSH2 0x327C JUMPI PUSH1 0x0 DUP1 REVERT JUMPDEST POP POP DUP1 CALLDATALOAD SWAP3 PUSH1 0x20 SWAP1 SWAP2 ADD CALLDATALOAD SWAP2 POP JUMP JUMPDEST PUSH1 0x0 PUSH1 0x20 DUP3 DUP5 SUB SLT ISZERO PUSH2 0x329D JUMPI PUSH1 0x0 DUP1 REVERT JUMPDEST POP CALLDATALOAD SWAP2 SWAP1 POP JUMP JUMPDEST DUP1 CALLDATALOAD PUSH1 0x1 PUSH1 0x1 PUSH1 0xA0 SHL SUB DUP2 AND DUP2 EQ PUSH2 0x32BB JUMPI PUSH1 0x0 DUP1 REVERT JUMPDEST SWAP2 SWAP1 POP JUMP JUMPDEST PUSH1 0x0 DUP1 PUSH1 0x40 DUP4 DUP6 SUB SLT ISZERO PUSH2 0x32D3 JUMPI PUSH1 0x0 DUP1 REVERT JUMPDEST PUSH2 0x32DC DUP4 PUSH2 0x32A4 JUMP JUMPDEST SWAP5 PUSH1 0x20 SWAP4 SWAP1 SWAP4 ADD CALLDATALOAD SWAP4 POP POP POP JUMP JUMPDEST PUSH1 0x0 DUP1 PUSH1 0x0 DUP1 PUSH1 0x0 DUP1 PUSH1 0xC0 DUP8 DUP10 SUB SLT ISZERO PUSH2 0x3303 JUMPI PUSH1 0x0 DUP1 REVERT JUMPDEST DUP7 CALLDATALOAD SWAP6 POP PUSH2 0x3313 PUSH1 0x20 DUP9 ADD PUSH2 0x32A4 JUMP JUMPDEST SWAP5 POP PUSH2 0x3321 PUSH1 0x40 DUP9 ADD PUSH2 0x32A4 JUMP JUMPDEST SWAP4 POP PUSH2 0x332F PUSH1 0x60 DUP9 ADD PUSH2 0x32A4 JUMP JUMPDEST SWAP3 POP PUSH1 0x80 DUP8 ADD CALLDATALOAD SWAP2 POP PUSH1 0xA0 DUP8 ADD CALLDATALOAD SWAP1 POP SWAP3 SWAP6 POP SWAP3 SWAP6 POP SWAP3 SWAP6 JUMP JUMPDEST PUSH1 0x0 PUSH1 0x20 DUP3 DUP5 SUB SLT ISZERO PUSH2 0x335B JUMPI PUSH1 0x0 DUP1 REVERT JUMPDEST PUSH2 0xCFD DUP3 PUSH2 0x32A4 JUMP JUMPDEST DUP1 CALLDATALOAD PUSH1 0x1 PUSH1 0x1 PUSH1 0x60 SHL SUB DUP2 AND DUP2 EQ PUSH2 0x32BB JUMPI PUSH1 0x0 DUP1 REVERT JUMPDEST PUSH1 0x0 PUSH1 0x20 DUP3 DUP5 SUB SLT ISZERO PUSH2 0x338D JUMPI PUSH1 0x0 DUP1 REVERT JUMPDEST PUSH2 0xCFD DUP3 PUSH2 0x3364 JUMP JUMPDEST PUSH1 0x0 DUP1 PUSH1 0x0 PUSH1 0x60 DUP5 DUP7 SUB SLT ISZERO PUSH2 0x33AB JUMPI PUSH1 0x0 DUP1 REVERT JUMPDEST PUSH2 0x33B4 DUP5 PUSH2 0x32A4 JUMP JUMPDEST SWAP6 PUSH1 0x20 DUP6 ADD CALLDATALOAD SWAP6 POP PUSH1 0x40 SWAP1 SWAP5 ADD CALLDATALOAD SWAP4 SWAP3 POP POP POP JUMP JUMPDEST PUSH1 0x0 DUP1 PUSH1 0x0 DUP1 PUSH1 0x80 DUP6 DUP8 SUB SLT ISZERO PUSH2 0x33DF JUMPI PUSH1 0x0 DUP1 REVERT JUMPDEST DUP5 CALLDATALOAD SWAP4 POP PUSH1 0x20 DUP6 ADD CALLDATALOAD SWAP3 POP PUSH1 0x40 DUP6 ADD CALLDATALOAD SWAP2 POP PUSH2 0x33FD PUSH1 0x60 DUP7 ADD PUSH2 0x32A4 JUMP JUMPDEST SWAP1 POP SWAP3 SWAP6 SWAP2 SWAP5 POP SWAP3 POP JUMP JUMPDEST PUSH1 0x0 DUP1 PUSH1 0x0 PUSH1 0x60 DUP5 DUP7 SUB SLT ISZERO PUSH2 0x341D JUMPI PUSH1 0x0 DUP1 REVERT JUMPDEST DUP4 CALLDATALOAD SWAP3 POP PUSH2 0x342D PUSH1 0x20 DUP6 ADD PUSH2 0x32A4 JUMP JUMPDEST SWAP2 POP PUSH2 0x343B PUSH1 0x40 DUP6 ADD PUSH2 0x32A4 JUMP JUMPDEST SWAP1 POP SWAP3 POP SWAP3 POP SWAP3 JUMP JUMPDEST PUSH1 0x0 DUP1 PUSH1 0x40 DUP4 DUP6 SUB SLT ISZERO PUSH2 0x3457 JUMPI PUSH1 0x0 DUP1 REVERT JUMPDEST PUSH2 0x3460 DUP4 PUSH2 0x32A4 JUMP JUMPDEST SWAP2 POP PUSH2 0x346E PUSH1 0x20 DUP5 ADD PUSH2 0x3364 JUMP JUMPDEST SWAP1 POP SWAP3 POP SWAP3 SWAP1 POP JUMP JUMPDEST DUP1 CALLDATALOAD PUSH4 0xFFFFFFFF DUP2 AND DUP2 EQ PUSH2 0x32BB JUMPI PUSH1 0x0 DUP1 REVERT JUMPDEST PUSH1 0x0 DUP1 PUSH1 0x0 DUP1 PUSH1 0x0 PUSH1 0xA0 DUP7 DUP9 SUB SLT ISZERO PUSH2 0x34A3 JUMPI PUSH1 0x0 DUP1 REVERT JUMPDEST PUSH2 0x34AC DUP7 PUSH2 0x32A4 JUMP JUMPDEST SWAP5 POP PUSH1 0x20 DUP7 ADD CALLDATALOAD SWAP4 POP PUSH2 0x34C1 PUSH1 0x40 DUP8 ADD PUSH2 0x3364 JUMP JUMPDEST SWAP3 POP PUSH2 0x34CF PUSH1 0x60 DUP8 ADD PUSH2 0x3477 JUMP JUMPDEST SWAP2 POP PUSH2 0x34DD PUSH1 0x80 DUP8 ADD PUSH2 0x3477 JUMP JUMPDEST SWAP1 POP SWAP3 SWAP6 POP SWAP3 SWAP6 SWAP1 SWAP4 POP JUMP JUMPDEST PUSH1 0x0 DUP1 PUSH1 0x40 DUP4 DUP6 SUB SLT ISZERO PUSH2 0x34FC JUMPI PUSH1 0x0 DUP1 REVERT JUMPDEST PUSH2 0x3505 DUP4 PUSH2 0x32A4 JUMP JUMPDEST SWAP2 POP PUSH2 0x346E PUSH1 0x20 DUP5 ADD PUSH2 0x32A4 JUMP JUMPDEST PUSH1 0x20 DUP1 DUP3 MSTORE DUP2 DUP2 ADD MSTORE PUSH32 0x5265737472696374656443616C6C733A2063616C6C20646973616C6C6F776564 PUSH1 0x40 DUP3 ADD MSTORE PUSH1 0x60 ADD SWAP1 JUMP JUMPDEST PUSH1 0x20 DUP1 DUP3 MSTORE PUSH1 0x22 SWAP1 DUP3 ADD MSTORE PUSH32 0x5265737472696374656443616C6C733A206D657373656E676572206E6F742073 PUSH1 0x40 DUP3 ADD MSTORE PUSH2 0x195D PUSH1 0xF2 SHL PUSH1 0x60 DUP3 ADD MSTORE PUSH1 0x80 ADD SWAP1 JUMP JUMPDEST PUSH1 0x0 PUSH1 0x20 DUP3 DUP5 SUB SLT ISZERO PUSH2 0x359C JUMPI PUSH1 0x0 DUP1 REVERT JUMPDEST DUP2 MLOAD DUP1 ISZERO ISZERO DUP2 EQ PUSH2 0xCFD JUMPI PUSH1 0x0 DUP1 REVERT JUMPDEST PUSH1 0x20 DUP1 DUP3 MSTORE PUSH1 0x13 SWAP1 DUP3 ADD MSTORE PUSH19 0x1C995C5D595CDD1259081B9BDD081D985B1A59 PUSH1 0x6A SHL PUSH1 0x40 DUP3 ADD MSTORE PUSH1 0x60 ADD SWAP1 JUMP JUMPDEST PUSH4 0x4E487B71 PUSH1 0xE0 SHL PUSH1 0x0 MSTORE PUSH1 0x11 PUSH1 0x4 MSTORE PUSH1 0x24 PUSH1 0x0 REVERT JUMPDEST PUSH1 0x0 DUP3 NOT DUP3 GT ISZERO PUSH2 0x3602 JUMPI PUSH2 0x3602 PUSH2 0x35D9 JUMP JUMPDEST POP ADD SWAP1 JUMP JUMPDEST PUSH1 0x0 PUSH1 0x20 DUP3 DUP5 SUB SLT ISZERO PUSH2 0x3619 JUMPI PUSH1 0x0 DUP1 REVERT JUMPDEST POP MLOAD SWAP2 SWAP1 POP JUMP JUMPDEST PUSH1 0x0 PUSH1 0x1 PUSH1 0x1 PUSH1 0x60 SHL SUB DUP1 DUP4 AND DUP2 DUP6 AND DUP1 DUP4 SUB DUP3 GT ISZERO PUSH2 0x3642 JUMPI PUSH2 0x3642 PUSH2 0x35D9 JUMP JUMPDEST ADD SWAP5 SWAP4 POP POP POP POP JUMP JUMPDEST PUSH1 0x0 DUP2 PUSH1 0x0 NOT DIV DUP4 GT DUP3 ISZERO ISZERO AND ISZERO PUSH2 0x3665 JUMPI PUSH2 0x3665 PUSH2 0x35D9 JUMP JUMPDEST POP MUL SWAP1 JUMP JUMPDEST PUSH1 0x0 DUP3 PUSH2 0x3687 JUMPI PUSH4 0x4E487B71 PUSH1 0xE0 SHL PUSH1 0x0 MSTORE PUSH1 0x12 PUSH1 0x4 MSTORE PUSH1 0x24 PUSH1 0x0 REVERT JUMPDEST POP DIV SWAP1 JUMP JUMPDEST PUSH1 0x0 PUSH4 0xFFFFFFFF DUP1 DUP4 AND DUP2 DUP6 AND DUP1 DUP4 SUB DUP3 GT ISZERO PUSH2 0x3642 JUMPI PUSH2 0x3642 PUSH2 0x35D9 JUMP JUMPDEST PUSH1 0x1 PUSH1 0x1 PUSH1 0x60 SHL SUB SWAP8 DUP9 AND DUP2 MSTORE PUSH1 0x1 PUSH1 0x1 PUSH1 0xA0 SHL SUB SWAP7 DUP8 AND PUSH1 0x20 DUP3 ADD MSTORE SWAP5 DUP8 AND PUSH1 0x40 DUP7 ADD MSTORE SWAP3 SWAP1 SWAP5 AND PUSH1 0x60 DUP5 ADD MSTORE SWAP1 SWAP4 AND PUSH1 0x80 DUP3 ADD MSTORE PUSH1 0xA0 DUP2 ADD SWAP2 SWAP1 SWAP2 MSTORE PUSH1 0xC0 DUP2 ADD SWAP2 SWAP1 SWAP2 MSTORE PUSH1 0xE0 ADD SWAP1 JUMP JUMPDEST PUSH1 0x20 DUP1 DUP3 MSTORE PUSH1 0x11 SWAP1 DUP3 ADD MSTORE PUSH17 0x18DB185A5B5259081B9BDD081D985B1A59 PUSH1 0x7A SHL PUSH1 0x40 DUP3 ADD MSTORE PUSH1 0x60 ADD SWAP1 JUMP JUMPDEST PUSH1 0x0 PUSH4 0xFFFFFFFF DUP4 DUP2 AND SWAP1 DUP4 AND DUP2 DUP2 LT ISZERO PUSH2 0x373F JUMPI PUSH2 0x373F PUSH2 0x35D9 JUMP JUMPDEST SUB SWAP4 SWAP3 POP POP POP JUMP JUMPDEST PUSH1 0x0 PUSH1 0x1 PUSH1 0x1 PUSH1 0x60 SHL SUB DUP4 DUP2 AND SWAP1 DUP4 AND DUP2 DUP2 LT ISZERO PUSH2 0x373F JUMPI PUSH2 0x373F PUSH2 0x35D9 JUMP JUMPDEST PUSH1 0x0 PUSH1 0x1 PUSH1 0x1 PUSH1 0x60 SHL SUB DUP1 DUP4 AND DUP2 DUP6 AND DUP2 DUP4 DIV DUP2 GT DUP3 ISZERO ISZERO AND ISZERO PUSH2 0x378D JUMPI PUSH2 0x378D PUSH2 0x35D9 JUMP JUMPDEST MUL SWAP5 SWAP4 POP POP POP POP JUMP JUMPDEST PUSH1 0x0 JUMPDEST DUP4 DUP2 LT ISZERO PUSH2 0x37B1 JUMPI DUP2 DUP2 ADD MLOAD DUP4 DUP3 ADD MSTORE PUSH1 0x20 ADD PUSH2 0x3799 JUMP JUMPDEST DUP4 DUP2 GT ISZERO PUSH2 0x1B1A JUMPI POP POP PUSH1 0x0 SWAP2 ADD MSTORE JUMP JUMPDEST PUSH1 0x0 DUP3 MLOAD PUSH2 0x37D4 DUP2 DUP5 PUSH1 0x20 DUP8 ADD PUSH2 0x3796 JUMP JUMPDEST SWAP2 SWAP1 SWAP2 ADD SWAP3 SWAP2 POP POP JUMP JUMPDEST PUSH1 0x20 DUP2 MSTORE PUSH1 0x0 DUP3 MLOAD DUP1 PUSH1 0x20 DUP5 ADD MSTORE PUSH2 0x37FD DUP2 PUSH1 0x40 DUP6 ADD PUSH1 0x20 DUP8 ADD PUSH2 0x3796 JUMP JUMPDEST PUSH1 0x1F ADD PUSH1 0x1F NOT AND SWAP2 SWAP1 SWAP2 ADD PUSH1 0x40 ADD SWAP3 SWAP2 POP POP JUMP INVALID LOG2 PUSH5 0x6970667358 0x22 SLT KECCAK256 DUP11 PUSH5 0x71DCAF5E58 DUP8 0xC6 BLOCKHASH BASEFEE REVERT CALLER CALLDATASIZE 0xD7 0x4F SWAP15 DUP6 0xB8 0xA7 MOD PUSH25 0x84527687C09915FB92C464736F6C634300080D003300000000 ",
  "sha1": "1fa90f55748b90097db585aee96625ef5260ab55",
  "source": "// SPDX-License-Identifier: MIT\npragma solidity ^0.8.12;\n\nimport \"OpenZeppelin/openzeppelin-contracts@4.8.0/contracts/token/ERC20/IERC20.sol\";\nimport \"OpenZeppelin/openzeppelin-contracts@4.8.0/contracts/token/ERC20/utils/SafeERC20.sol\";\nimport \"OpenZeppelin/openzeppelin-contracts@4.8.0/contracts/utils/math/Math.sol\";\nimport \"OpenZeppelin/openzeppelin-contracts@4.8.0/contracts/access/Ownable.sol\";\nimport \"OpenZeppelin/openzeppelin-contracts@4.8.0/contracts/security/Pausable.sol\";\n\nimport \"./BeamerUtils.sol\";\nimport \"./RestrictedCalls.sol\";\nimport \"./LpWhitelist.sol\";\n\n/// The request manager.\n///\n/// This contract is responsible for keeping track of transfer requests,\n/// implementing the rules of the challenge game and holding deposited\n/// tokens until they are withdrawn.\n/// The information passed by L1 resolution will be stored with the respective requests.\n///\n/// It is the only contract that agents need to interact with on the source chain.\n/// .. note::\n///\n///   The functions resolveRequest and invalidateFill can only be called by\n///   the :sol:contract:`Resolver` contract, via a chain-dependent messenger contract.\ncontract RequestManager is Ownable, LpWhitelist, RestrictedCalls, Pausable {\n    using Math for uint256;\n    using SafeERC20 for IERC20;\n\n    // Structs\n    // TODO: check if we can use a smaller type for `targetChainId`, so that the\n    // fields can be packed into one storage slot\n    struct Request {\n        address sender;\n        address sourceTokenAddress;\n        uint256 targetChainId;\n        uint256 amount;\n        uint32 validUntil;\n        uint96 lpFee;\n        uint96 protocolFee;\n        uint32 activeClaims;\n        uint96 withdrawClaimId;\n        address filler;\n        bytes32 fillId;\n        mapping(bytes32 => bool) invalidFillIds;\n    }\n\n    struct Claim {\n        bytes32 requestId;\n        address claimer;\n        uint96 claimerStake;\n        mapping(address => uint96) challengersStakes;\n        address lastChallenger;\n        uint96 challengerStakeTotal;\n        uint256 withdrawnAmount;\n        uint256 termination;\n        bytes32 fillId;\n    }\n\n    struct Token {\n        uint256 transferLimit;\n        uint96 minLpFee;\n        uint32 lpFeePPM;\n        uint32 protocolFeePPM;\n        uint96 collectedProtocolFees;\n    }\n\n    // Events\n\n    /// Emitted when a new request has been created.\n    ///\n    /// .. seealso:: :sol:func:`createRequest`\n    event RequestCreated(\n        bytes32 indexed requestId,\n        uint256 targetChainId,\n        address sourceTokenAddress,\n        address targetTokenAddress,\n        address indexed sourceAddress,\n        address targetAddress,\n        uint256 amount,\n        uint96 nonce,\n        uint32 validUntil\n    );\n\n    /// Emitted when the token deposit for request ``requestId`` has been\n    /// transferred to the ``receiver``.\n    ///\n    /// This can happen in two cases:\n    ///\n    ///  * the request expired and the request submitter called :sol:func:`withdrawExpiredRequest`\n    ///  * a claim related to the request has been resolved successfully in favor of the claimer\n    ///\n    /// .. seealso:: :sol:func:`withdraw` :sol:func:`withdrawExpiredRequest`\n    event DepositWithdrawn(bytes32 requestId, address receiver);\n\n    /// Emitted when a claim or a counter-claim (challenge) has been made.\n    ///\n    /// .. seealso:: :sol:func:`claimRequest` :sol:func:`challengeClaim`\n    event ClaimMade(\n        bytes32 indexed requestId,\n        uint96 claimId,\n        address claimer,\n        uint96 claimerStake,\n        address lastChallenger,\n        uint96 challengerStakeTotal,\n        uint256 termination,\n        bytes32 fillId\n    );\n\n    /// Emitted when staked native tokens tied to a claim have been withdrawn.\n    ///\n    /// This can only happen when the claim has been resolved and the caller\n    /// of :sol:func:`withdraw` is allowed to withdraw their stake.\n    ///\n    /// .. seealso:: :sol:func:`withdraw`\n    event ClaimStakeWithdrawn(\n        uint96 claimId,\n        bytes32 indexed requestId,\n        address stakeRecipient\n    );\n\n    event FinalityPeriodUpdated(uint256 targetChainId, uint256 finalityPeriod);\n\n    /// Emitted when token object of a token address is updated.\n    ///\n    /// .. seealso:: :sol:func:`updateToken`\n    event TokenUpdated(\n        address tokenAddress,\n        uint256 transferLimit,\n        uint96 minLpFee,\n        uint32 lpFeePPM,\n        uint32 protocolFeePPM\n    );\n\n    /// Emitted when a request has been resolved via L1 resolution.\n    ///\n    /// .. seealso:: :sol:func:`resolveRequest`\n    event RequestResolved(bytes32 requestId, address filler, bytes32 fillId);\n\n    /// Emitted when an invalidated fill has been resolved.\n    ///\n    /// .. seealso:: :sol:func:`invalidateFill`\n    event FillInvalidatedResolved(bytes32 requestId, bytes32 fillId);\n\n    // Constants\n\n    /// The minimum amount of source chain's native token that the claimer needs to\n    /// provide when making a claim, as well in each round of the challenge game.\n    uint96 public immutable claimStake;\n\n    /// The additional time given to claim a request. This value is added to the\n    /// validity period of a request.\n    uint256 public immutable claimRequestExtension;\n\n    /// The period for which the claim is valid.\n    uint256 public immutable claimPeriod;\n\n    /// The period by which the termination time of a claim is extended after each\n    /// round of the challenge game. This period should allow enough time for the\n    /// other parties to counter-challenge.\n    ///\n    /// .. note::\n    ///\n    ///    The claim's termination time is extended only if it is less than the\n    ///    extension time.\n    ///\n    /// Note that in the first challenge round, i.e. the round initiated by the first\n    /// challenger, the termination time is extended additionally by the finality\n    /// period of the target chain. This is done to allow for L1 resolution.\n    uint256 public immutable challengePeriodExtension;\n\n    /// The minimum validity period of a request.\n    uint256 public constant MIN_VALIDITY_PERIOD = 30 minutes;\n\n    /// The maximum validity period of a request.\n    uint256 public constant MAX_VALIDITY_PERIOD = 48 hours;\n\n    /// withdrawClaimId is set to this value when an expired request gets withdrawn by the sender\n    uint96 public constant CLAIM_ID_WITHDRAWN_EXPIRED = type(uint96).max;\n\n    // Variables\n\n    /// A counter used to generate request and claim IDs.\n    /// The variable holds the most recently used nonce and must\n    /// be incremented to get the next nonce\n    uint96 public currentNonce;\n\n    /// Maps target rollup chain IDs to finality periods.\n    /// Finality periods are in seconds.\n    mapping(uint256 => uint256) public finalityPeriods;\n\n    /// Maps request IDs to requests.\n    mapping(bytes32 => Request) public requests;\n\n    /// Maps claim IDs to claims.\n    mapping(uint96 => Claim) public claims;\n\n    /// Maps ERC20 token address to tokens\n    mapping(address => Token) public tokens;\n\n    /// Compute the liquidity provider fee that needs to be paid for a given transfer amount.\n    function lpFee(address tokenAddress, uint256 amount)\n        public\n        view\n        returns (uint256)\n    {\n        Token storage token = tokens[tokenAddress];\n        return Math.max(token.minLpFee, (amount * token.lpFeePPM) / 1_000_000);\n    }\n\n    /// Compute the protocol fee that needs to be paid for a given transfer amount.\n    function protocolFee(address tokenAddress, uint256 amount)\n        public\n        view\n        returns (uint256)\n    {\n        return (amount * tokens[tokenAddress].protocolFeePPM) / 1_000_000;\n    }\n\n    /// Compute the total fee that needs to be paid for a given transfer amount.\n    /// The total fee is the sum of the liquidity provider fee and the protocol fee.\n    function totalFee(address tokenAddress, uint256 amount)\n        public\n        view\n        returns (uint256)\n    {\n        return lpFee(tokenAddress, amount) + protocolFee(tokenAddress, amount);\n    }\n\n    // Modifiers\n\n    /// Check whether a given request ID is valid.\n    modifier validRequestId(bytes32 requestId) {\n        require(\n            requests[requestId].sender != address(0),\n            \"requestId not valid\"\n        );\n        _;\n    }\n\n    /// Check whether a given claim ID is valid.\n    modifier validClaimId(uint96 claimId) {\n        require(claims[claimId].claimer != address(0), \"claimId not valid\");\n        _;\n    }\n\n    /// Constructor.\n    ///\n    /// @param _claimStake Claim stake amount.\n    /// @param _claimRequestExtension Extension to claim a request after validity period ends.\n    /// @param _claimPeriod Claim period, in seconds.\n    /// @param _challengePeriodExtension Challenge period extension, in seconds.\n    constructor(\n        uint96 _claimStake,\n        uint256 _claimRequestExtension,\n        uint256 _claimPeriod,\n        uint256 _challengePeriodExtension\n    ) {\n        claimStake = _claimStake;\n        claimRequestExtension = _claimRequestExtension;\n        claimPeriod = _claimPeriod;\n        challengePeriodExtension = _challengePeriodExtension;\n    }\n\n    /// Create a new transfer request.\n    ///\n    /// @param targetChainId ID of the target chain.\n    /// @param sourceTokenAddress Address of the token contract on the source chain.\n    /// @param targetTokenAddress Address of the token contract on the target chain.\n    /// @param targetAddress Recipient address on the target chain.\n    /// @param amount Amount of tokens to transfer. Does not include fees.\n    /// @param validityPeriod The number of seconds the request is to be considered valid.\n    ///                       Once its validity period has elapsed, the request cannot be claimed\n    ///                       anymore and will eventually expire, allowing the request submitter\n    ///                       to withdraw the deposited tokens if there are no active claims.\n    /// @return ID of the newly created request.\n    function createRequest(\n        uint256 targetChainId,\n        address sourceTokenAddress,\n        address targetTokenAddress,\n        address targetAddress,\n        uint256 amount,\n        uint256 validityPeriod\n    ) external whenNotPaused returns (bytes32) {\n        require(\n            finalityPeriods[targetChainId] != 0,\n            \"Target rollup not supported\"\n        );\n        require(\n            validityPeriod >= MIN_VALIDITY_PERIOD,\n            \"Validity period too short\"\n        );\n        require(\n            validityPeriod <= MAX_VALIDITY_PERIOD,\n            \"Validity period too long\"\n        );\n        require(\n            amount <= tokens[sourceTokenAddress].transferLimit,\n            \"Amount exceeds transfer limit\"\n        );\n\n        uint256 lpFeeTokenAmount = lpFee(sourceTokenAddress, amount);\n        uint256 protocolFeeTokenAmount = protocolFee(\n            sourceTokenAddress,\n            amount\n        );\n\n        require(\n            IERC20(sourceTokenAddress).allowance(msg.sender, address(this)) >=\n                amount + lpFeeTokenAmount + protocolFeeTokenAmount,\n            \"Insufficient allowance\"\n        );\n\n        uint96 nonce = currentNonce + 1;\n        currentNonce = nonce;\n\n        bytes32 requestId = BeamerUtils.createRequestId(\n            block.chainid,\n            targetChainId,\n            targetTokenAddress,\n            targetAddress,\n            amount,\n            nonce\n        );\n\n        Request storage newRequest = requests[requestId];\n        newRequest.sender = msg.sender;\n        newRequest.sourceTokenAddress = sourceTokenAddress;\n        newRequest.targetChainId = targetChainId;\n        newRequest.amount = amount;\n        newRequest.validUntil = uint32(block.timestamp + validityPeriod);\n        newRequest.lpFee = uint96(lpFeeTokenAmount);\n        newRequest.protocolFee = uint96(protocolFeeTokenAmount);\n\n        emit RequestCreated(\n            requestId,\n            targetChainId,\n            sourceTokenAddress,\n            targetTokenAddress,\n            msg.sender,\n            targetAddress,\n            amount,\n            nonce,\n            uint32(block.timestamp + validityPeriod)\n        );\n\n        IERC20(sourceTokenAddress).safeTransferFrom(\n            msg.sender,\n            address(this),\n            amount + lpFeeTokenAmount + protocolFeeTokenAmount\n        );\n\n        return requestId;\n    }\n\n    /// Withdraw funds deposited with an expired request.\n    ///\n    /// No claims must be active for the request.\n    ///\n    /// @param requestId ID of the expired request.\n    function withdrawExpiredRequest(bytes32 requestId)\n        external\n        validRequestId(requestId)\n    {\n        Request storage request = requests[requestId];\n\n        require(request.withdrawClaimId == 0, \"Deposit already withdrawn\");\n        require(\n            block.timestamp >= request.validUntil,\n            \"Request not expired yet\"\n        );\n        require(request.activeClaims == 0, \"Active claims running\");\n\n        request.withdrawClaimId = CLAIM_ID_WITHDRAWN_EXPIRED;\n\n        emit DepositWithdrawn(requestId, request.sender);\n\n        IERC20 token = IERC20(request.sourceTokenAddress);\n        token.safeTransfer(\n            request.sender,\n            request.amount + request.lpFee + request.protocolFee\n        );\n    }\n\n    /// Claim that a request was filled by the caller.\n    ///\n    /// The request must still be valid at call time.\n    /// The caller must provide the ``claimStake`` amount of source rollup's native\n    /// token.\n    ///\n    /// @param requestId ID of the request.\n    /// @param fillId The fill ID.\n    /// @return The claim ID.\n    function claimRequest(bytes32 requestId, bytes32 fillId)\n        external\n        payable\n        validRequestId(requestId)\n        onlyAllowed(msg.sender)\n        returns (uint96)\n    {\n        return claimRequest(msg.sender, requestId, fillId);\n    }\n\n    /// Claim that a request was filled.\n    ///\n    /// The request must still be valid at call time.\n    /// The caller must provide the ``claimStake`` amount of source rollup's native\n    /// token.\n    /// Only the claimer may get the stake back later.\n    ///\n    /// @param claimer Address of the claimer.\n    /// @param requestId ID of the request.\n    /// @param fillId The fill ID.\n    /// @return The claim ID.\n    function claimRequest(\n        address claimer,\n        bytes32 requestId,\n        bytes32 fillId\n    )\n        public\n        payable\n        validRequestId(requestId)\n        onlyAllowed(claimer)\n        returns (uint96)\n    {\n        Request storage request = requests[requestId];\n\n        require(\n            block.timestamp < request.validUntil + claimRequestExtension,\n            \"Request cannot be claimed anymore\"\n        );\n        require(request.withdrawClaimId == 0, \"Deposit already withdrawn\");\n        require(msg.value == claimStake, \"Invalid stake amount\");\n        require(fillId != bytes32(0), \"FillId must not be 0x0\");\n\n        request.activeClaims += 1;\n\n        uint96 nonce = currentNonce + 1;\n        currentNonce = nonce;\n        uint256 termination = block.timestamp + claimPeriod;\n\n        Claim storage claim = claims[nonce];\n        claim.requestId = requestId;\n        claim.claimer = claimer;\n        claim.claimerStake = uint96(msg.value);\n        claim.termination = termination;\n        claim.fillId = fillId;\n\n        emit ClaimMade(\n            requestId,\n            nonce,\n            claimer,\n            uint96(msg.value),\n            address(0),\n            0,\n            termination,\n            fillId\n        );\n\n        return nonce;\n    }\n\n    /// Challenge an existing claim.\n    ///\n    /// The claim must still be valid at call time.\n    /// This function implements one round of the challenge game.\n    /// The original claimer is allowed to call this function only\n    /// after someone else made a challenge, i.e. every second round.\n    /// However, once the original claimer counter-challenges, anyone\n    /// can join the game and make another challenge.\n    ///\n    /// The caller must provide enough native tokens as their stake.\n    /// For the original claimer, the minimum stake is\n    /// ``challengerStakeTotal - claimerStake + claimStake``.\n    ///\n    /// For challengers, the minimum stake is\n    /// ``claimerStake - challengerStakeTotal + 1``.\n    ///\n    /// An example (time flows downwards, claimStake = 10)::\n    ///\n    ///   claimRequest() by Max [stakes 10]\n    ///   challengeClaim() by Alice [stakes 11]\n    ///   challengeClaim() by Max [stakes 11]\n    ///   challengeClaim() by Bob [stakes 16]\n    ///\n    /// In this example, if Max didn't want to lose the challenge game to\n    /// Alice and Bob, he would have to challenge with a stake of at least 16.\n    ///\n    /// @param claimId The claim ID.\n    function challengeClaim(uint96 claimId)\n        external\n        payable\n        validClaimId(claimId)\n    {\n        Claim storage claim = claims[claimId];\n        bytes32 requestId = claim.requestId;\n        uint256 termination = claim.termination;\n        require(block.timestamp < termination, \"Claim expired\");\n        require(\n            requests[requestId].filler == address(0),\n            \"Request already resolved\"\n        );\n        require(\n            !requests[requestId].invalidFillIds[claim.fillId],\n            \"Fill already invalidated\"\n        );\n\n        uint256 periodExtension = challengePeriodExtension;\n        address claimer = claim.claimer;\n        uint96 claimerStake = claim.claimerStake;\n        uint96 challengerStakeTotal = claim.challengerStakeTotal;\n\n        if (claimerStake > challengerStakeTotal) {\n            if (challengerStakeTotal == 0) {\n                periodExtension += finalityPeriods[\n                    requests[requestId].targetChainId\n                ];\n            }\n            require(msg.sender != claimer, \"Cannot challenge own claim\");\n            require(\n                msg.value >= claimerStake - challengerStakeTotal + 1,\n                \"Not enough stake provided\"\n            );\n        } else {\n            require(msg.sender == claimer, \"Not eligible to outbid\");\n            require(\n                msg.value >= challengerStakeTotal - claimerStake + claimStake,\n                \"Not enough stake provided\"\n            );\n        }\n\n        if (msg.sender == claimer) {\n            claimerStake += uint96(msg.value);\n            claim.claimerStake = claimerStake;\n        } else {\n            claim.lastChallenger = msg.sender;\n            claim.challengersStakes[msg.sender] += uint96(msg.value);\n            challengerStakeTotal += uint96(msg.value);\n            claim.challengerStakeTotal = challengerStakeTotal;\n        }\n\n        if (block.timestamp + periodExtension > termination) {\n            termination = block.timestamp + periodExtension;\n            claim.termination = termination;\n        }\n\n        emit ClaimMade(\n            requestId,\n            claimId,\n            claimer,\n            claimerStake,\n            claim.lastChallenger,\n            challengerStakeTotal,\n            termination,\n            claim.fillId\n        );\n    }\n\n    /// Withdraw the deposit that the request submitter left with the contract,\n    /// as well as the staked native tokens associated with the claim.\n    ///\n    /// In case the caller of this function is a challenger that won the game,\n    /// they will only get their staked native tokens plus the reward in the form\n    /// of full (sole challenger) or partial (multiple challengers) amount\n    /// of native tokens staked by the dishonest claimer.\n    ///\n    /// @param claimId The claim ID.\n    /// @return The claim stakes receiver.\n    function withdraw(uint96 claimId)\n        external\n        validClaimId(claimId)\n        returns (address)\n    {\n        return withdraw(msg.sender, claimId);\n    }\n\n    /// Withdraw the deposit that the request submitter left with the contract,\n    /// as well as the staked native tokens associated with the claim.\n    ///\n    /// This function is called on behalf of a participant. Only a participant\n    /// may receive the funds if he is the winner of the challenge or the claim is valid.\n    ///\n    /// In case the caller of this function is a challenger that won the game,\n    /// they will only get their staked native tokens plus the reward in the form\n    /// of full (sole challenger) or partial (multiple challengers) amount\n    /// of native tokens staked by the dishonest claimer.\n    ///\n    /// @param claimId The claim ID.\n    /// @param participant The participant.\n    /// @return The claim stakes receiver.\n    function withdraw(address participant, uint96 claimId)\n        public\n        validClaimId(claimId)\n        returns (address)\n    {\n        Claim storage claim = claims[claimId];\n        address claimer = claim.claimer;\n        require(\n            participant == claimer || claim.challengersStakes[participant] > 0,\n            \"Not an active participant in this claim\"\n        );\n        bytes32 requestId = claim.requestId;\n        Request storage request = requests[requestId];\n\n        (address stakeRecipient, uint256 ethToTransfer) = resolveClaim(\n            participant,\n            claimId\n        );\n\n        if (claim.challengersStakes[stakeRecipient] > 0) {\n            //Re-entrancy protection\n            claim.challengersStakes[stakeRecipient] = 0;\n        }\n\n        uint256 withdrawnAmount = claim.withdrawnAmount;\n\n        // First time withdraw is called, remove it from active claims\n        if (withdrawnAmount == 0) {\n            request.activeClaims -= 1;\n        }\n        withdrawnAmount += ethToTransfer;\n        claim.withdrawnAmount = withdrawnAmount;\n\n        require(\n            withdrawnAmount <= claim.claimerStake + claim.challengerStakeTotal,\n            \"Amount to withdraw too large\"\n        );\n\n        (bool sent, ) = stakeRecipient.call{value: ethToTransfer}(\"\");\n        require(sent, \"Failed to send Ether\");\n\n        emit ClaimStakeWithdrawn(claimId, requestId, stakeRecipient);\n\n        if (request.withdrawClaimId == 0 && stakeRecipient == claimer) {\n            withdrawDeposit(request, claimId);\n        }\n\n        return stakeRecipient;\n    }\n\n    function resolveClaim(address participant, uint96 claimId)\n        private\n        view\n        returns (address, uint256)\n    {\n        Claim storage claim = claims[claimId];\n        Request storage request = requests[claim.requestId];\n        uint96 withdrawClaimId = request.withdrawClaimId;\n        address claimer = claim.claimer;\n        uint96 claimerStake = claim.claimerStake;\n        uint96 challengerStakeTotal = claim.challengerStakeTotal;\n        require(\n            claim.withdrawnAmount < claimerStake + challengerStakeTotal,\n            \"Claim already withdrawn\"\n        );\n\n        bool claimValid = false;\n\n        // The claim is resolved with the following priority:\n        // 1) The l1 resolved filler is the claimer and l1 resolved fillId matches, claim is valid\n        // 2) FillId is true in request's invalidFillIds, claim is invalid\n        // 3) The withdrawer's claim matches exactly this claim (same claimer address, same fillId)\n        // 4) Claim properties, claim terminated and claimer has the highest stake\n        address filler = request.filler;\n        bytes32 fillId = request.fillId;\n\n        if (filler != address(0)) {\n            // Claim resolution via 1)\n            claimValid = filler == claimer && fillId == claim.fillId;\n        } else if (request.invalidFillIds[fillId]) {\n            // Claim resolution via 2)\n            claimValid = false;\n        } else if (withdrawClaimId != 0) {\n            // Claim resolution via 3)\n            claimValid =\n                claimer == claims[withdrawClaimId].claimer &&\n                claim.fillId == claims[withdrawClaimId].fillId;\n        } else {\n            // Claim resolution via 4)\n            require(\n                block.timestamp >= claim.termination,\n                \"Claim period not finished\"\n            );\n            claimValid = claimerStake > challengerStakeTotal;\n        }\n\n        // Calculate withdraw scheme for claim stakes\n        uint96 ethToTransfer;\n        address stakeRecipient;\n\n        if (claimValid) {\n            // If claim is valid, all stakes go to the claimer\n            stakeRecipient = claimer;\n            ethToTransfer = claimerStake + challengerStakeTotal;\n        } else if (challengerStakeTotal > 0) {\n            // If claim is invalid, partial withdrawal by the participant\n            stakeRecipient = participant;\n            ethToTransfer = 2 * claim.challengersStakes[stakeRecipient];\n            require(ethToTransfer > 0, \"Challenger has nothing to withdraw\");\n        } else {\n            // The unlikely event is possible that a false claim has no challenger\n            // If it is known that the claim is false then the claimer stake goes to the platform\n            stakeRecipient = owner();\n            ethToTransfer = claimerStake;\n        }\n\n        // If the challenger wins and is the last challenger, he gets either\n        // twice his stake plus the excess stake (if the claimer was winning), or\n        // twice his stake minus the difference between the claimer and challenger stakes (if the claimer was losing)\n        if (stakeRecipient == claim.lastChallenger) {\n            if (claimerStake > challengerStakeTotal) {\n                ethToTransfer += (claimerStake - challengerStakeTotal);\n            } else {\n                ethToTransfer -= (challengerStakeTotal - claimerStake);\n            }\n        }\n\n        return (stakeRecipient, ethToTransfer);\n    }\n\n    function withdrawDeposit(Request storage request, uint96 claimId) private {\n        Claim storage claim = claims[claimId];\n        address claimer = claim.claimer;\n        emit DepositWithdrawn(claim.requestId, claimer);\n\n        request.withdrawClaimId = claimId;\n\n        tokens[request.sourceTokenAddress].collectedProtocolFees += request\n            .protocolFee;\n\n        IERC20 token = IERC20(request.sourceTokenAddress);\n        token.safeTransfer(claimer, request.amount + request.lpFee);\n    }\n\n    /// Returns whether a request's deposit was withdrawn or not\n    ///\n    /// This can be true in two cases:\n    /// 1. The deposit was withdrawn after the request was claimed and filled.\n    /// 2. The submitter withdrew the deposit after the request's expiry.\n    /// .. seealso:: :sol:func:`withdraw`\n    /// .. seealso:: :sol:func:`withdrawExpiredRequest`\n    ///\n    /// @param requestId The request ID\n    /// @return Whether the deposit corresponding to the given request ID was withdrawn\n    function isWithdrawn(bytes32 requestId)\n        public\n        view\n        validRequestId(requestId)\n        returns (bool)\n    {\n        return requests[requestId].withdrawClaimId != 0;\n    }\n\n    /// Withdraw protocol fees collected by the contract.\n    ///\n    /// Protocol fees are paid in token transferred.\n    ///\n    /// .. note:: This function can only be called by the contract owner.\n    ///\n    /// @param tokenAddress The address of the token contract.\n    /// @param recipient The address the fees should be sent to.\n    function withdrawProtocolFees(address tokenAddress, address recipient)\n        external\n        onlyOwner\n    {\n        uint256 amount = tokens[tokenAddress].collectedProtocolFees;\n        require(amount > 0, \"Protocol fee is zero\");\n        tokens[tokenAddress].collectedProtocolFees = 0;\n\n        IERC20 token = IERC20(tokenAddress);\n        token.safeTransfer(recipient, amount);\n    }\n\n    function updateToken(\n        address tokenAddress,\n        uint256 transferLimit,\n        uint96 minLpFee,\n        uint32 lpFeePPM,\n        uint32 protocolFeePPM\n    ) external onlyOwner {\n        require(lpFeePPM <= 999_999, \"Maximum PPM of 999999 exceeded\");\n        require(protocolFeePPM <= 999_999, \"Maximum PPM of 999999 exceeded\");\n\n        Token storage token = tokens[tokenAddress];\n        token.transferLimit = transferLimit;\n        token.minLpFee = minLpFee;\n        token.lpFeePPM = lpFeePPM;\n        token.protocolFeePPM = protocolFeePPM;\n\n        emit TokenUpdated(\n            tokenAddress,\n            transferLimit,\n            minLpFee,\n            lpFeePPM,\n            protocolFeePPM\n        );\n    }\n\n    /// Set the finality period for the given target chain.\n    ///\n    /// .. note:: This function can only be called by the contract owner.\n    ///\n    /// @param targetChainId The target chain ID.\n    /// @param finalityPeriod Finality period in seconds.\n    function setFinalityPeriod(uint256 targetChainId, uint256 finalityPeriod)\n        external\n        onlyOwner\n    {\n        require(finalityPeriod > 0, \"Finality period must be greater than 0\");\n        finalityPeriods[targetChainId] = finalityPeriod;\n\n        emit FinalityPeriodUpdated(targetChainId, finalityPeriod);\n    }\n\n    /// Returns whether a fill is invalidated or not\n    ///\n    /// Calling invalidateFill() will set this boolean to true,\n    /// marking that the ``fillId`` for the corresponding ``requestId`` was\n    /// invalidated.\n    /// Calling resolveRequest will validate it again, setting request.invalidatedFills[fillId]\n    /// to false.\n    /// .. seealso:: :sol:func:`invalidateFill`\n    /// .. seealso:: :sol:func:`resolveRequest`\n    ///\n    /// @param requestId The request ID\n    /// @param fillId The fill ID\n    /// @return Whether the fill ID is invalid for the given request ID\n    function isInvalidFill(bytes32 requestId, bytes32 fillId)\n        public\n        view\n        returns (bool)\n    {\n        return requests[requestId].invalidFillIds[fillId];\n    }\n\n    /// Mark the request identified by ``requestId`` as filled by ``filler``.\n    ///\n    /// .. note::\n    ///\n    ///     This function is a restricted call function. Only callable by the added caller.\n    ///\n    /// @param requestId The request ID.\n    /// @param fillId The fill ID.\n    /// @param resolutionChainId The resolution (L1) chain ID.\n    /// @param filler The address that filled the request.\n    function resolveRequest(\n        bytes32 requestId,\n        bytes32 fillId,\n        uint256 resolutionChainId,\n        address filler\n    ) external restricted(resolutionChainId) {\n        Request storage request = requests[requestId];\n        request.filler = filler;\n        request.fillId = fillId;\n\n        request.invalidFillIds[fillId] = false;\n\n        emit RequestResolved(requestId, filler, fillId);\n    }\n\n    /// Mark the fill identified by ``requestId`` and ``fillId`` as invalid.\n    ///\n    /// .. note::\n    ///\n    ///     This function is a restricted call function. Only callable by the added caller.\n    ///\n    /// @param requestId The request ID.\n    /// @param fillId The fill ID.\n    /// @param resolutionChainId The resolution (L1) chain ID.\n    function invalidateFill(\n        bytes32 requestId,\n        bytes32 fillId,\n        uint256 resolutionChainId\n    ) external restricted(resolutionChainId) {\n        Request storage request = requests[requestId];\n        require(\n            request.filler == address(0),\n            \"Cannot invalidate resolved fills\"\n        );\n        require(\n            request.invalidFillIds[fillId] == false,\n            \"Fill already invalidated\"\n        );\n\n        request.invalidFillIds[fillId] = true;\n\n        emit FillInvalidatedResolved(requestId, fillId);\n    }\n\n    /// Pauses the contract.\n    ///\n    /// Once the contract is paused, it cannot be used to create new\n    /// requests anymore. Withdrawing deposited funds and claim stakes\n    /// still works, though.\n    ///\n    /// .. note:: This function can only be called when the contract is not paused.\n    /// .. note:: This function can only be called by the contract owner.\n    function pause() external onlyOwner {\n        _pause();\n    }\n\n    /// Unpauses the contract.\n    ///\n    /// Once the contract is unpaused, it can be used normally.\n    ///\n    /// .. note:: This function can only be called when the contract is paused.\n    /// .. note:: This function can only be called by the contract owner.\n    function unpause() external onlyOwner {\n        _unpause();\n    }\n}\n",
  "sourcePath": "contracts/contracts/RequestManager.sol",
  "type": "contract"
}