{
  "abi": [
    {
      "inputs": [
        {
          "internalType": "uint256",
          "name": "_claimStake",
          "type": "uint256"
        },
        {
          "internalType": "uint256",
          "name": "_claimPeriod",
          "type": "uint256"
        },
        {
          "internalType": "uint256",
          "name": "_challengePeriodExtension",
          "type": "uint256"
        },
        {
          "internalType": "address",
          "name": "_resolutionRegistry",
          "type": "address"
        }
      ],
      "stateMutability": "nonpayable",
      "type": "constructor"
    },
    {
      "anonymous": false,
      "inputs": [
        {
          "indexed": true,
          "internalType": "uint256",
          "name": "requestId",
          "type": "uint256"
        },
        {
          "indexed": false,
          "internalType": "uint256",
          "name": "claimId",
          "type": "uint256"
        },
        {
          "indexed": false,
          "internalType": "address",
          "name": "claimer",
          "type": "address"
        },
        {
          "indexed": false,
          "internalType": "uint256",
          "name": "claimerStake",
          "type": "uint256"
        },
        {
          "indexed": false,
          "internalType": "address",
          "name": "lastChallenger",
          "type": "address"
        },
        {
          "indexed": false,
          "internalType": "uint256",
          "name": "challengerStakeTotal",
          "type": "uint256"
        },
        {
          "indexed": false,
          "internalType": "uint256",
          "name": "termination",
          "type": "uint256"
        },
        {
          "indexed": false,
          "internalType": "bytes32",
          "name": "fillId",
          "type": "bytes32"
        }
      ],
      "name": "ClaimMade",
      "type": "event"
    },
    {
      "anonymous": false,
      "inputs": [
        {
          "indexed": false,
          "internalType": "uint256",
          "name": "claimId",
          "type": "uint256"
        },
        {
          "indexed": true,
          "internalType": "uint256",
          "name": "requestId",
          "type": "uint256"
        },
        {
          "indexed": false,
          "internalType": "address",
          "name": "claimReceiver",
          "type": "address"
        }
      ],
      "name": "ClaimWithdrawn",
      "type": "event"
    },
    {
      "anonymous": false,
      "inputs": [
        {
          "indexed": false,
          "internalType": "uint256",
          "name": "requestId",
          "type": "uint256"
        },
        {
          "indexed": false,
          "internalType": "address",
          "name": "receiver",
          "type": "address"
        }
      ],
      "name": "DepositWithdrawn",
      "type": "event"
    },
    {
      "anonymous": false,
      "inputs": [
        {
          "indexed": true,
          "internalType": "address",
          "name": "previousOwner",
          "type": "address"
        },
        {
          "indexed": true,
          "internalType": "address",
          "name": "newOwner",
          "type": "address"
        }
      ],
      "name": "OwnershipTransferred",
      "type": "event"
    },
    {
      "anonymous": false,
      "inputs": [
        {
          "indexed": false,
          "internalType": "uint256",
          "name": "requestId",
          "type": "uint256"
        },
        {
          "indexed": false,
          "internalType": "uint256",
          "name": "targetChainId",
          "type": "uint256"
        },
        {
          "indexed": false,
          "internalType": "address",
          "name": "sourceTokenAddress",
          "type": "address"
        },
        {
          "indexed": false,
          "internalType": "address",
          "name": "targetTokenAddress",
          "type": "address"
        },
        {
          "indexed": false,
          "internalType": "address",
          "name": "targetAddress",
          "type": "address"
        },
        {
          "indexed": false,
          "internalType": "uint256",
          "name": "amount",
          "type": "uint256"
        },
        {
          "indexed": false,
          "internalType": "uint256",
          "name": "validUntil",
          "type": "uint256"
        }
      ],
      "name": "RequestCreated",
      "type": "event"
    },
    {
      "inputs": [],
      "name": "MAX_VALIDITY_PERIOD",
      "outputs": [
        {
          "internalType": "uint256",
          "name": "",
          "type": "uint256"
        }
      ],
      "stateMutability": "view",
      "type": "function"
    },
    {
      "inputs": [],
      "name": "MIN_VALIDITY_PERIOD",
      "outputs": [
        {
          "internalType": "uint256",
          "name": "",
          "type": "uint256"
        }
      ],
      "stateMutability": "view",
      "type": "function"
    },
    {
      "inputs": [
        {
          "internalType": "uint256",
          "name": "claimId",
          "type": "uint256"
        }
      ],
      "name": "challengeClaim",
      "outputs": [],
      "stateMutability": "payable",
      "type": "function"
    },
    {
      "inputs": [],
      "name": "challengePeriodExtension",
      "outputs": [
        {
          "internalType": "uint256",
          "name": "",
          "type": "uint256"
        }
      ],
      "stateMutability": "view",
      "type": "function"
    },
    {
      "inputs": [],
      "name": "claimCounter",
      "outputs": [
        {
          "internalType": "uint256",
          "name": "",
          "type": "uint256"
        }
      ],
      "stateMutability": "view",
      "type": "function"
    },
    {
      "inputs": [],
      "name": "claimPeriod",
      "outputs": [
        {
          "internalType": "uint256",
          "name": "",
          "type": "uint256"
        }
      ],
      "stateMutability": "view",
      "type": "function"
    },
    {
      "inputs": [
        {
          "internalType": "uint256",
          "name": "requestId",
          "type": "uint256"
        },
        {
          "internalType": "bytes32",
          "name": "fillId",
          "type": "bytes32"
        }
      ],
      "name": "claimRequest",
      "outputs": [
        {
          "internalType": "uint256",
          "name": "",
          "type": "uint256"
        }
      ],
      "stateMutability": "payable",
      "type": "function"
    },
    {
      "inputs": [],
      "name": "claimStake",
      "outputs": [
        {
          "internalType": "uint256",
          "name": "",
          "type": "uint256"
        }
      ],
      "stateMutability": "view",
      "type": "function"
    },
    {
      "inputs": [
        {
          "internalType": "uint256",
          "name": "",
          "type": "uint256"
        }
      ],
      "name": "claims",
      "outputs": [
        {
          "internalType": "uint256",
          "name": "requestId",
          "type": "uint256"
        },
        {
          "internalType": "address",
          "name": "claimer",
          "type": "address"
        },
        {
          "internalType": "uint256",
          "name": "claimerStake",
          "type": "uint256"
        },
        {
          "internalType": "address",
          "name": "lastChallenger",
          "type": "address"
        },
        {
          "internalType": "uint256",
          "name": "challengerStakeTotal",
          "type": "uint256"
        },
        {
          "internalType": "uint256",
          "name": "withdrawnAmount",
          "type": "uint256"
        },
        {
          "internalType": "uint256",
          "name": "termination",
          "type": "uint256"
        },
        {
          "internalType": "bytes32",
          "name": "fillId",
          "type": "bytes32"
        }
      ],
      "stateMutability": "view",
      "type": "function"
    },
    {
      "inputs": [
        {
          "internalType": "address",
          "name": "",
          "type": "address"
        }
      ],
      "name": "collectedProtocolFees",
      "outputs": [
        {
          "internalType": "uint256",
          "name": "",
          "type": "uint256"
        }
      ],
      "stateMutability": "view",
      "type": "function"
    },
    {
      "inputs": [
        {
          "internalType": "uint256",
          "name": "targetChainId",
          "type": "uint256"
        },
        {
          "internalType": "address",
          "name": "sourceTokenAddress",
          "type": "address"
        },
        {
          "internalType": "address",
          "name": "targetTokenAddress",
          "type": "address"
        },
        {
          "internalType": "address",
          "name": "targetAddress",
          "type": "address"
        },
        {
          "internalType": "uint256",
          "name": "amount",
          "type": "uint256"
        },
        {
          "internalType": "uint256",
          "name": "validityPeriod",
          "type": "uint256"
        }
      ],
      "name": "createRequest",
      "outputs": [
        {
          "internalType": "uint256",
          "name": "",
          "type": "uint256"
        }
      ],
      "stateMutability": "nonpayable",
      "type": "function"
    },
    {
      "inputs": [],
      "name": "deprecateContract",
      "outputs": [],
      "stateMutability": "nonpayable",
      "type": "function"
    },
    {
      "inputs": [],
      "name": "deprecated",
      "outputs": [
        {
          "internalType": "bool",
          "name": "",
          "type": "bool"
        }
      ],
      "stateMutability": "view",
      "type": "function"
    },
    {
      "inputs": [
        {
          "internalType": "uint256",
          "name": "",
          "type": "uint256"
        }
      ],
      "name": "finalizationTimes",
      "outputs": [
        {
          "internalType": "uint256",
          "name": "",
          "type": "uint256"
        }
      ],
      "stateMutability": "view",
      "type": "function"
    },
    {
      "inputs": [
        {
          "internalType": "uint256",
          "name": "amount",
          "type": "uint256"
        }
      ],
      "name": "lpFee",
      "outputs": [
        {
          "internalType": "uint256",
          "name": "",
          "type": "uint256"
        }
      ],
      "stateMutability": "view",
      "type": "function"
    },
    {
      "inputs": [],
      "name": "lpFeePPM",
      "outputs": [
        {
          "internalType": "uint256",
          "name": "",
          "type": "uint256"
        }
      ],
      "stateMutability": "view",
      "type": "function"
    },
    {
      "inputs": [],
      "name": "minLpFee",
      "outputs": [
        {
          "internalType": "uint256",
          "name": "",
          "type": "uint256"
        }
      ],
      "stateMutability": "view",
      "type": "function"
    },
    {
      "inputs": [],
      "name": "owner",
      "outputs": [
        {
          "internalType": "address",
          "name": "",
          "type": "address"
        }
      ],
      "stateMutability": "view",
      "type": "function"
    },
    {
      "inputs": [
        {
          "internalType": "uint256",
          "name": "amount",
          "type": "uint256"
        }
      ],
      "name": "protocolFee",
      "outputs": [
        {
          "internalType": "uint256",
          "name": "",
          "type": "uint256"
        }
      ],
      "stateMutability": "view",
      "type": "function"
    },
    {
      "inputs": [],
      "name": "protocolFeePPM",
      "outputs": [
        {
          "internalType": "uint256",
          "name": "",
          "type": "uint256"
        }
      ],
      "stateMutability": "view",
      "type": "function"
    },
    {
      "inputs": [],
      "name": "renounceOwnership",
      "outputs": [],
      "stateMutability": "nonpayable",
      "type": "function"
    },
    {
      "inputs": [],
      "name": "requestCounter",
      "outputs": [
        {
          "internalType": "uint256",
          "name": "",
          "type": "uint256"
        }
      ],
      "stateMutability": "view",
      "type": "function"
    },
    {
      "inputs": [
        {
          "internalType": "uint256",
          "name": "",
          "type": "uint256"
        }
      ],
      "name": "requests",
      "outputs": [
        {
          "internalType": "address",
          "name": "sender",
          "type": "address"
        },
        {
          "internalType": "address",
          "name": "sourceTokenAddress",
          "type": "address"
        },
        {
          "internalType": "uint256",
          "name": "targetChainId",
          "type": "uint256"
        },
        {
          "internalType": "address",
          "name": "targetTokenAddress",
          "type": "address"
        },
        {
          "internalType": "address",
          "name": "targetAddress",
          "type": "address"
        },
        {
          "internalType": "uint256",
          "name": "amount",
          "type": "uint256"
        },
        {
          "components": [
            {
              "internalType": "address",
              "name": "filler",
              "type": "address"
            },
            {
              "internalType": "bytes32",
              "name": "fillId",
              "type": "bytes32"
            }
          ],
          "internalType": "struct BeamerUtils.FillInfo",
          "name": "withdrawInfo",
          "type": "tuple"
        },
        {
          "internalType": "uint192",
          "name": "activeClaims",
          "type": "uint192"
        },
        {
          "internalType": "uint256",
          "name": "validUntil",
          "type": "uint256"
        },
        {
          "internalType": "uint256",
          "name": "lpFee",
          "type": "uint256"
        },
        {
          "internalType": "uint256",
          "name": "protocolFee",
          "type": "uint256"
        }
      ],
      "stateMutability": "view",
      "type": "function"
    },
    {
      "inputs": [],
      "name": "resolutionRegistry",
      "outputs": [
        {
          "internalType": "contract ResolutionRegistry",
          "name": "",
          "type": "address"
        }
      ],
      "stateMutability": "view",
      "type": "function"
    },
    {
      "inputs": [
        {
          "internalType": "uint256",
          "name": "targetChainId",
          "type": "uint256"
        },
        {
          "internalType": "uint256",
          "name": "finalizationTime",
          "type": "uint256"
        }
      ],
      "name": "setFinalizationTime",
      "outputs": [],
      "stateMutability": "nonpayable",
      "type": "function"
    },
    {
      "inputs": [
        {
          "internalType": "uint256",
          "name": "amount",
          "type": "uint256"
        }
      ],
      "name": "totalFee",
      "outputs": [
        {
          "internalType": "uint256",
          "name": "",
          "type": "uint256"
        }
      ],
      "stateMutability": "view",
      "type": "function"
    },
    {
      "inputs": [],
      "name": "transferLimit",
      "outputs": [
        {
          "internalType": "uint256",
          "name": "",
          "type": "uint256"
        }
      ],
      "stateMutability": "view",
      "type": "function"
    },
    {
      "inputs": [
        {
          "internalType": "address",
          "name": "newOwner",
          "type": "address"
        }
      ],
      "name": "transferOwnership",
      "outputs": [],
      "stateMutability": "nonpayable",
      "type": "function"
    },
    {
      "inputs": [
        {
          "internalType": "uint256",
          "name": "newProtocolFeePPM",
          "type": "uint256"
        },
        {
          "internalType": "uint256",
          "name": "newLpFeePPM",
          "type": "uint256"
        },
        {
          "internalType": "uint256",
          "name": "newMinLpFee",
          "type": "uint256"
        }
      ],
      "name": "updateFeeData",
      "outputs": [],
      "stateMutability": "nonpayable",
      "type": "function"
    },
    {
      "inputs": [
        {
          "internalType": "uint256",
          "name": "newTransferLimit",
          "type": "uint256"
        }
      ],
      "name": "updateTransferLimit",
      "outputs": [],
      "stateMutability": "nonpayable",
      "type": "function"
    },
    {
      "inputs": [
        {
          "internalType": "uint256",
          "name": "claimId",
          "type": "uint256"
        }
      ],
      "name": "withdraw",
      "outputs": [
        {
          "internalType": "address",
          "name": "",
          "type": "address"
        }
      ],
      "stateMutability": "nonpayable",
      "type": "function"
    },
    {
      "inputs": [
        {
          "internalType": "uint256",
          "name": "requestId",
          "type": "uint256"
        }
      ],
      "name": "withdrawExpiredRequest",
      "outputs": [],
      "stateMutability": "nonpayable",
      "type": "function"
    },
    {
      "inputs": [
        {
          "internalType": "address",
          "name": "tokenAddress",
          "type": "address"
        },
        {
          "internalType": "address",
          "name": "recipient",
          "type": "address"
        }
      ],
      "name": "withdrawProtocolFees",
      "outputs": [],
      "stateMutability": "nonpayable",
      "type": "function"
    }
  ],
  "bytecode": "6080604052674563918244f40000600b556103e8600c556000600d5569021e19e0c9bab2400000600e553480156200003657600080fd5b50604051620028a3380380620028a38339810160408190526200005991620000e8565b620000643362000098565b600193909355600291909155600355600780546001600160a01b0319166001600160a01b0390921691909117905562000139565b600080546001600160a01b038381166001600160a01b0319831681178455604051919092169283917f8be0079c531659141344cd1fd0a4f28419497f9722a3daafe3b4186f6b6457e09190a35050565b60008060008060808587031215620000ff57600080fd5b845160208601516040870151606088015192965090945092506001600160a01b03811681146200012e57600080fd5b939692955090935050565b61275a80620001496000396000f3fe6080604052600436106101ee5760003560e01c8063973a814e1161010d578063d3868348116100a0578063ea656f7d1161006f578063ea656f7d146106df578063eb321173146106f4578063f2fde38b1461070a578063f7d64cec1461072a578063f94325171461074a57600080fd5b8063d386834814610673578063d762a37b14610693578063e2653eeb146106b3578063e7aad5c4146106c957600080fd5b8063b1743c5b116100dc578063b1743c5b14610600578063b5ef829414610613578063cea74edf14610633578063cf7b287f1461065357600080fd5b8063973a814e146104fa578063a032b5f414610510578063a888c2cd14610530578063ab9634ee146105e057600080fd5b80636bc6c8d11161018557806381d12c581161015457806381d12c58146103875780638da5cb5b146104b157806392c824d8146104cf57806396171d05146104e257600080fd5b80636bc6c8d11461030d578063715018a61461033a57806378da194b146103515780637dc2cd981461037157600080fd5b80632e1a7d4d116101c15780632e1a7d4d146102895780632f4212b8146102c15780634efa8f17146102e15780635d5aa11b146102f757600080fd5b80630e136b19146101f35780631489f8d2146102225780631d18adc51461024657806323f0e7b91461025c575b600080fd5b3480156101ff57600080fd5b5060045461020d9060ff1681565b60405190151581526020015b60405180910390f35b34801561022e57600080fd5b5061023861012c81565b604051908152602001610219565b34801561025257600080fd5b5061023860035481565b34801561026857600080fd5b506102386102773660046123bc565b60086020526000908152604090205481565b34801561029557600080fd5b506102a96102a43660046123bc565b610760565b6040516001600160a01b039091168152602001610219565b3480156102cd57600080fd5b506102386102dc3660046123ea565b610a17565b3480156102ed57600080fd5b5061023860065481565b34801561030357600080fd5b50610238600b5481565b34801561031957600080fd5b5061023861032836600461244f565b600f6020526000908152604090205481565b34801561034657600080fd5b5061034f610ea3565b005b34801561035d57600080fd5b5061034f61036c36600461246c565b610ed9565b34801561037d57600080fd5b5061023860025481565b34801561039357600080fd5b5061042d6103a23660046123bc565b6009602081815260009283526040928390208054600182015460028301546003840154600485015460058601548951808b01909a5260068701546001600160a01b039081168b526007880154988b0198909852600887015498870154600a880154600b909801549689169a9589169994989384169793909216959094936001600160c01b031692908b565b604080516001600160a01b039c8d1681529a8c166020808d0191909152908b0199909952968a1660608a0152948916608089015260a0880193909352815190971660c08701529093015160e08501526001600160c01b0390941661010084015261012083019190915261014082019290925261016081019190915261018001610219565b3480156104bd57600080fd5b506000546001600160a01b03166102a9565b61034f6104dd3660046123bc565b610f11565b3480156104ee57600080fd5b506102386301dfe20081565b34801561050657600080fd5b5061023860055481565b34801561051c57600080fd5b5061023861052b3660046123bc565b611309565b34801561053c57600080fd5b5061059a61054b3660046123bc565b600a602052600090815260409020805460018201546002830154600484015460058501546006860154600787015460089097015495966001600160a01b03958616969495909316939192909188565b604080519889526001600160a01b0397881660208a0152880195909552949092166060860152608085015260a084015260c083019190915260e082015261010001610219565b3480156105ec57600080fd5b506007546102a9906001600160a01b031681565b61023861060e366004612498565b61132d565b34801561061f57600080fd5b5061034f61062e366004612498565b6115fb565b34801561063f57600080fd5b5061023861064e3660046123bc565b611698565b34801561065f57600080fd5b5061034f61066e3660046124ba565b6116b6565b34801561067f57600080fd5b5061034f61068e3660046123bc565b611769565b34801561069f57600080fd5b5061034f6106ae3660046123bc565b611973565b3480156106bf57600080fd5b50610238600c5481565b3480156106d557600080fd5b50610238600d5481565b3480156106eb57600080fd5b5061034f6119a2565b34801561070057600080fd5b5061023860015481565b34801561071657600080fd5b5061034f61072536600461244f565b611a2e565b34801561073657600080fd5b506102386107453660046123bc565b611ac9565b34801561075657600080fd5b50610238600e5481565b60008160065481111580156107755750600081115b6107ba5760405162461bcd60e51b815260206004820152601160248201527018db185a5b5259081b9bdd081d985b1a59607a1b60448201526064015b60405180910390fd5b6000838152600a6020908152604080832080548452600990925282209091806107e287611aed565b6001600160a01b0382166000908152600387016020526040902054919350915015610823576001600160a01b03821660009081526003850160205260408120555b836006015460000361087557600883018054600191906000906108509084906001600160c01b0316612509565b92506101000a8154816001600160c01b0302191690836001600160c01b031602179055505b808460060160008282546108899190612531565b9091555050600584015460028501546108a29190612531565b846006015411156108f55760405162461bcd60e51b815260206004820152601c60248201527f416d6f756e7420746f20776974686472617720746f6f206c617267650000000060448201526064016107b1565b6000826001600160a01b03168260405160006040518083038185875af1925050503d8060008114610942576040519150601f19603f3d011682016040523d82523d6000602084013e610947565b606091505b505090508061098f5760405162461bcd60e51b81526020600482015260146024820152732330b4b632b2103a379039b2b7321022ba3432b960611b60448201526064016107b1565b8454604080518a81526001600160a01b03861660208201527fc494c0d9b07fae9d937a92117991d3017ad9408a7d344caa86c184c47f7bd183910160405180910390a260068401546001600160a01b03161580156109fc575060018501546001600160a01b038481169116145b15610a0b57610a0b8486611ecd565b50909695505050505050565b60045460009060ff1615610a665760405162461bcd60e51b815260206004820152601660248201527510dbdb9d1c9858dd081a5cc819195c1c9958d85d195960521b60448201526064016107b1565b6000878152600860205260408120549003610ac35760405162461bcd60e51b815260206004820152601b60248201527f54617267657420726f6c6c7570206e6f7420737570706f72746564000000000060448201526064016107b1565b61012c821015610b155760405162461bcd60e51b815260206004820152601960248201527f56616c696469747920706572696f6420746f6f2073686f72740000000000000060448201526064016107b1565b6301dfe200821115610b695760405162461bcd60e51b815260206004820152601860248201527f56616c696469747920706572696f6420746f6f206c6f6e67000000000000000060448201526064016107b1565b600e54831115610bbb5760405162461bcd60e51b815260206004820152601d60248201527f416d6f756e742065786365656473207472616e73666572206c696d697400000060448201526064016107b1565b856000610bc785611ac9565b90506000610bd486611309565b9050600081610be38489612531565b610bed9190612531565b604051636eb1769f60e11b815233600482015230602482015290915081906001600160a01b0386169063dd62ed3e90604401602060405180830381865afa158015610c3c573d6000803e3d6000fd5b505050506040513d601f19601f82011682018060405250810190610c609190612549565b1015610ca75760405162461bcd60e51b8152602060048201526016602482015275496e73756666696369656e7420616c6c6f77616e636560501b60448201526064016107b1565b600160056000828254610cba9190612531565b9250508190555060006009600060055481526020019081526020016000209050338160000160006101000a8154816001600160a01b0302191690836001600160a01b031602179055508a8160010160006101000a8154816001600160a01b0302191690836001600160a01b031602179055508b8160020181905550898160030160006101000a8154816001600160a01b0302191690836001600160a01b03160217905550888160040160006101000a8154816001600160a01b0302191690836001600160a01b03160217905550878160050181905550604051806040016040528060006001600160a01b031681526020016000801b8152508160060160008201518160000160006101000a8154816001600160a01b0302191690836001600160a01b03160217905550602082015181600101559050508642610dfc9190612531565b60098201819055600a8201859055600b820184905560055460408051918252602082018f90526001600160a01b038e8116838301528d811660608401528c16608083015260a082018b905260c082019290925290517f18a412d0656b9a5c9263a134f66a34da33cad7c3690971601f9963ade588e7019181900360e00190a1610e906001600160a01b038616333085611fb2565b50506005549a9950505050505050505050565b6000546001600160a01b03163314610ecd5760405162461bcd60e51b81526004016107b190612562565b610ed7600061201d565b565b6000546001600160a01b03163314610f035760405162461bcd60e51b81526004016107b190612562565b600d92909255600c55600b55565b806006548111158015610f245750600081115b610f645760405162461bcd60e51b815260206004820152601160248201527018db185a5b5259081b9bdd081d985b1a59607a1b60448201526064016107b1565b6000828152600a6020908152604080832080548452600990925290912060078201544210610fc45760405162461bcd60e51b815260206004820152600d60248201526c10db185a5b48195e1c1a5c9959609a1b60448201526064016107b1565b60035460028301546005840154600092839290918082111561108657806000036110095760028601546000908152600860205260409020546110069084612531565b92505b6001870154336001600160a01b03909116036110675760405162461bcd60e51b815260206004820152601a60248201527f43616e6e6f74206368616c6c656e6765206f776e20636c61696d00000000000060448201526064016107b1565b3394506110748183612597565b61107f906001612531565b93506110b2565b60018088015490546001600160a01b0390911695506110a58383612597565b6110af9190612531565b93505b336001600160a01b038616146111035760405162461bcd60e51b8152602060048201526016602482015275139bdd08195b1a59da589b19481d1bc81bdd5d189a5960521b60448201526064016107b1565b833410156111535760405162461bcd60e51b815260206004820152601960248201527f4e6f7420656e6f756768207374616b652070726f76696465640000000000000060448201526064016107b1565b60018701546001600160a01b039081169086160361118a573487600201600082825461117f9190612531565b909155506111e29050565b6004870180546001600160a01b031916339081179091556000908152600388016020526040812080543492906111c1908490612531565b92505081905550348760050160008282546111dc9190612531565b90915550505b60078701546111fa906111f58542612531565b61206d565b600788015560035460009061120f9042612531565b905080886007015410156112775760405162461bcd60e51b815260206004820152602960248201527f436c61696d207465726d696e6174696f6e20646964206e6f7420696e637265616044820152680e6ca40cadcdeeaced60bb1b60648201526084016107b1565b87600001547f29fd2df293ba511e44ca47212c915137020231ed3ac0ee7bd02a7a655275ad378b8a60010160009054906101000a90046001600160a01b03168b600201548c60040160009054906101000a90046001600160a01b03168d600501548e600701548f600801546040516112f597969594939291906125ae565b60405180910390a250505050505050505050565b6000620f4240600d548361131d91906125ed565b611327919061260c565b92915050565b60008260055481111580156113425750600081115b6113845760405162461bcd60e51b81526020600482015260136024820152721c995c5d595cdd1259081b9bdd081d985b1a59606a1b60448201526064016107b1565b60008481526009602081905260409091209081015442106113d95760405162461bcd60e51b815260206004820152600f60248201526e14995c5d595cdd08195e1c1a5c9959608a1b60448201526064016107b1565b60068101546001600160a01b0316156114305760405162461bcd60e51b81526020600482015260196024820152782232b837b9b4ba1030b63932b0b23c903bb4ba34323930bbb760391b60448201526064016107b1565b60015434146114785760405162461bcd60e51b8152602060048201526014602482015273125b9d985b1a59081cdd185ad948185b5bdd5b9d60621b60448201526064016107b1565b836114be5760405162461bcd60e51b8152602060048201526016602482015275046696c6c4964206d757374206e6f74206265203078360541b60448201526064016107b1565b600881018054600191906000906114df9084906001600160c01b031661262e565b92506101000a8154816001600160c01b0302191690836001600160c01b031602179055506001600660008282546115169190612531565b9091555050600680546000908152600a60205260408120878155600180820180546001600160a01b031990811633179091559054600280840191909155600483018054909216909155600582018390559281019190915590546115799042612531565b600782018190556008820186905560065460018301546002840154600485015460058601546040518c967f29fd2df293ba511e44ca47212c915137020231ed3ac0ee7bd02a7a655275ad37966115e69690956001600160a01b039182169590949116929091908e906125ae565b60405180910390a25050600654949350505050565b6000546001600160a01b031633146116255760405162461bcd60e51b81526004016107b190612562565b600081116116865760405162461bcd60e51b815260206004820152602860248201527f46696e616c697a6174696f6e2074696d65206d75737420626520677265617465604482015267072207468616e20360c41b60648201526084016107b1565b60009182526008602052604090912055565b60006116a382611309565b6116ac83611ac9565b6113279190612531565b6000546001600160a01b031633146116e05760405162461bcd60e51b81526004016107b190612562565b6001600160a01b0382166000908152600f60205260409020548061173d5760405162461bcd60e51b815260206004820152601460248201527350726f746f636f6c20666565206973207a65726f60601b60448201526064016107b1565b6001600160a01b0383166000818152600f60205260408120558390611763908484612086565b50505050565b80600554811115801561177c5750600081115b6117be5760405162461bcd60e51b81526020600482015260136024820152721c995c5d595cdd1259081b9bdd081d985b1a59606a1b60448201526064016107b1565b600082815260096020526040902060068101546001600160a01b0316156118235760405162461bcd60e51b81526020600482015260196024820152782232b837b9b4ba1030b63932b0b23c903bb4ba34323930bbb760391b60448201526064016107b1565b80600901544210156118775760405162461bcd60e51b815260206004820152601760248201527f52657175657374206e6f7420657870697265642079657400000000000000000060448201526064016107b1565b60088101546001600160c01b0316156118ca5760405162461bcd60e51b815260206004820152601560248201527441637469766520636c61696d732072756e6e696e6760581b60448201526064016107b1565b80546006820180546001600160a01b0319166001600160a01b0390921691821790556040805185815260208101929092527fa7b86597910aae75f7d99feb2f37420cc80d457465ffba0f8136d722a9f7095a910160405180910390a160018101548154600b830154600a84015460058501546001600160a01b03948516946117639416929161195891612531565b6119629190612531565b6001600160a01b0384169190612086565b6000546001600160a01b0316331461199d5760405162461bcd60e51b81526004016107b190612562565b600e55565b6000546001600160a01b031633146119cc5760405162461bcd60e51b81526004016107b190612562565b60045460ff1615611a1f5760405162461bcd60e51b815260206004820152601b60248201527f436f6e747261637420616c72656164792064657072656361746564000000000060448201526064016107b1565b6004805460ff19166001179055565b6000546001600160a01b03163314611a585760405162461bcd60e51b81526004016107b190612562565b6001600160a01b038116611abd5760405162461bcd60e51b815260206004820152602660248201527f4f776e61626c653a206e6577206f776e657220697320746865207a65726f206160448201526564647265737360d01b60648201526084016107b1565b611ac68161201d565b50565b6000611327600b54620f4240600c5485611ae391906125ed565b6111f5919061260c565b6000818152600a602090815260408083208054845260099092528220600282015460058301548493929190611b228183612531565b846006015410611b745760405162461bcd60e51b815260206004820152601760248201527f436c61696d20616c72656164792077697468647261776e00000000000000000060448201526064016107b1565b83546002840154600385015460048601546005870154600094611bac949093469391926001600160a01b0391821692909116906120bb565b8554600286015460038701546004880154600589015460088b0154959650600095611bea9594469490936001600160a01b039182169391169161211e565b60408051808201825260068801546001600160a01b0390811682526007808a0154602084015254925163a64a227160e01b815260048101879052939450600093919284928392919091169063a64a2271906024016040805180830381865afa158015611c5a573d6000803e3d6000fd5b505050506040513d601f19601f82011682018060405250810190611c7e9190612659565b90925090506001600160a01b038216611c9b575050805160208201515b60075460405163a751732f60e01b8152600481018790526001600160a01b039091169063a751732f90602401602060405180830381865afa158015611ce4573d6000803e3d6000fd5b505050506040513d601f19601f82011682018060405250810190611d089190612687565b15611d165760009350611da8565b6001600160a01b03821615611d4e5760018a01546001600160a01b038381169116148015611d475750896008015481145b9350611da8565b8960070154421015611da25760405162461bcd60e51b815260206004820152601960248201527f436c61696d20706572696f64206e6f742066696e69736865640000000000000060448201526064016107b1565b86881193505b6000808515611dd357611dbb898b612531565b60018d01549092506001600160a01b03169050611e6c565b8815611e5b5733600090815260038d016020526040902054611df69060026125ed565b915033905060008211611e565760405162461bcd60e51b815260206004820152602260248201527f4368616c6c656e67657220686173206e6f7468696e6720746f20776974686472604482015261617760f01b60648201526084016107b1565b611e6c565b505060005488906001600160a01b03165b60048c01546001600160a01b03163303611eba57888a1115611ea357611e92898b612597565b611e9c9083612531565b9150611eba565b611ead8a8a612597565b611eb79083612597565b91505b9e909d509b505050505050505050505050565b60018101548154604080519182526001600160a01b0390921660208201819052917fa7b86597910aae75f7d99feb2f37420cc80d457465ffba0f8136d722a9f7095a910160405180910390a16040805180820182526001600160a01b03808416808352600886015460209384018190526006880180546001600160a01b0319169092179091556007870155600b86015460018701549091166000908152600f9092529181208054909190611f82908490612531565b90915550506001830154600a84015460058501546001600160a01b03909216916117639184916119629190612531565b6040516001600160a01b03808516602483015283166044820152606481018290526117639085906323b872dd60e01b906084015b60408051601f198184030181529190526020810180516001600160e01b03166001600160e01b031990931692909217909152612169565b600080546001600160a01b038381166001600160a01b0319831681178455604051919092169283917f8be0079c531659141344cd1fd0a4f28419497f9722a3daafe3b4186f6b6457e09190a35050565b60008183101561207d578161207f565b825b9392505050565b6040516001600160a01b0383166024820152604481018290526120b690849063a9059cbb60e01b90606401611fe6565b505050565b604080516020808201989098528082019690965260608087019590955292841b6bffffffffffffffffffffffff1990811660808701529190931b16609484015260a8808401929092528051808403909201825260c8909201909152805191012090565b600061215d6121318989898989896120bb565b604080516020808201939093528082018690528151808203830181526060909101909152805191012090565b98975050505050505050565b60006121be826040518060400160405280602081526020017f5361666545524332303a206c6f772d6c6576656c2063616c6c206661696c6564815250856001600160a01b031661223b9092919063ffffffff16565b8051909150156120b657808060200190518101906121dc9190612687565b6120b65760405162461bcd60e51b815260206004820152602a60248201527f5361666545524332303a204552433230206f7065726174696f6e20646964206e6044820152691bdd081cdd58d8d9595960b21b60648201526084016107b1565b606061224a8484600085612252565b949350505050565b6060824710156122b35760405162461bcd60e51b815260206004820152602660248201527f416464726573733a20696e73756666696369656e742062616c616e636520666f6044820152651c8818d85b1b60d21b60648201526084016107b1565b6001600160a01b0385163b61230a5760405162461bcd60e51b815260206004820152601d60248201527f416464726573733a2063616c6c20746f206e6f6e2d636f6e747261637400000060448201526064016107b1565b600080866001600160a01b0316858760405161232691906126d5565b60006040518083038185875af1925050503d8060008114612363576040519150601f19603f3d011682016040523d82523d6000602084013e612368565b606091505b5091509150612378828286612383565b979650505050505050565b6060831561239257508161207f565b8251156123a25782518084602001fd5b8160405162461bcd60e51b81526004016107b191906126f1565b6000602082840312156123ce57600080fd5b5035919050565b6001600160a01b0381168114611ac657600080fd5b60008060008060008060c0878903121561240357600080fd5b863595506020870135612415816123d5565b94506040870135612425816123d5565b93506060870135612435816123d5565b9598949750929560808101359460a0909101359350915050565b60006020828403121561246157600080fd5b813561207f816123d5565b60008060006060848603121561248157600080fd5b505081359360208301359350604090920135919050565b600080604083850312156124ab57600080fd5b50508035926020909101359150565b600080604083850312156124cd57600080fd5b82356124d8816123d5565b915060208301356124e8816123d5565b809150509250929050565b634e487b7160e01b600052601160045260246000fd5b60006001600160c01b0383811690831681811015612529576125296124f3565b039392505050565b60008219821115612544576125446124f3565b500190565b60006020828403121561255b57600080fd5b5051919050565b6020808252818101527f4f776e61626c653a2063616c6c6572206973206e6f7420746865206f776e6572604082015260600190565b6000828210156125a9576125a96124f3565b500390565b9687526001600160a01b0395861660208801526040870194909452919093166060850152608084019290925260a083019190915260c082015260e00190565b6000816000190483118215151615612607576126076124f3565b500290565b60008261262957634e487b7160e01b600052601260045260246000fd5b500490565b60006001600160c01b03828116848216808303821115612650576126506124f3565b01949350505050565b6000806040838503121561266c57600080fd5b8251612677816123d5565b6020939093015192949293505050565b60006020828403121561269957600080fd5b8151801515811461207f57600080fd5b60005b838110156126c45781810151838201526020016126ac565b838111156117635750506000910152565b600082516126e78184602087016126a9565b9190910192915050565b60208152600082518060208401526127108160408501602087016126a9565b601f01601f1916919091016040019291505056fea2646970667358221220e3196a09680b7657e6b28bce958115f1db9ec916841f66a17785f1ba074992e964736f6c634300080d0033",
  "bytecodeSha1": "a90f163e62f7c92bd81dab23a8c45a96b1bc1647",
  "compiler": {
    "evm_version": "london",
    "optimizer": {
      "enabled": true,
      "runs": 200
    },
    "version": "0.8.13+commit.abaa5c0e"
  },
  "contractName": "RequestManager",
  "language": "Solidity",
  "natspec": {
    "kind": "dev",
    "methods": {
      "owner()": {
        "details": "Returns the address of the current owner."
      },
      "renounceOwnership()": {
        "details": "Leaves the contract without owner. It will not be possible to call `onlyOwner` functions anymore. Can only be called by the current owner. NOTE: Renouncing ownership will leave the contract without an owner, thereby removing any functionality that is only available to the owner."
      },
      "transferOwnership(address)": {
        "details": "Transfers ownership of the contract to a new account (`newOwner`). Can only be called by the current owner."
      }
    },
    "version": 1
  },
  "opcodes": "PUSH1 0x80 PUSH1 0x40 MSTORE PUSH1 0x4 CALLDATASIZE LT PUSH2 0x1EE JUMPI PUSH1 0x0 CALLDATALOAD PUSH1 0xE0 SHR DUP1 PUSH4 0x973A814E GT PUSH2 0x10D JUMPI DUP1 PUSH4 0xD3868348 GT PUSH2 0xA0 JUMPI DUP1 PUSH4 0xEA656F7D GT PUSH2 0x6F JUMPI DUP1 PUSH4 0xEA656F7D EQ PUSH2 0x6DF JUMPI DUP1 PUSH4 0xEB321173 EQ PUSH2 0x6F4 JUMPI DUP1 PUSH4 0xF2FDE38B EQ PUSH2 0x70A JUMPI DUP1 PUSH4 0xF7D64CEC EQ PUSH2 0x72A JUMPI DUP1 PUSH4 0xF9432517 EQ PUSH2 0x74A JUMPI PUSH1 0x0 DUP1 REVERT JUMPDEST DUP1 PUSH4 0xD3868348 EQ PUSH2 0x673 JUMPI DUP1 PUSH4 0xD762A37B EQ PUSH2 0x693 JUMPI DUP1 PUSH4 0xE2653EEB EQ PUSH2 0x6B3 JUMPI DUP1 PUSH4 0xE7AAD5C4 EQ PUSH2 0x6C9 JUMPI PUSH1 0x0 DUP1 REVERT JUMPDEST DUP1 PUSH4 0xB1743C5B GT PUSH2 0xDC JUMPI DUP1 PUSH4 0xB1743C5B EQ PUSH2 0x600 JUMPI DUP1 PUSH4 0xB5EF8294 EQ PUSH2 0x613 JUMPI DUP1 PUSH4 0xCEA74EDF EQ PUSH2 0x633 JUMPI DUP1 PUSH4 0xCF7B287F EQ PUSH2 0x653 JUMPI PUSH1 0x0 DUP1 REVERT JUMPDEST DUP1 PUSH4 0x973A814E EQ PUSH2 0x4FA JUMPI DUP1 PUSH4 0xA032B5F4 EQ PUSH2 0x510 JUMPI DUP1 PUSH4 0xA888C2CD EQ PUSH2 0x530 JUMPI DUP1 PUSH4 0xAB9634EE EQ PUSH2 0x5E0 JUMPI PUSH1 0x0 DUP1 REVERT JUMPDEST DUP1 PUSH4 0x6BC6C8D1 GT PUSH2 0x185 JUMPI DUP1 PUSH4 0x81D12C58 GT PUSH2 0x154 JUMPI DUP1 PUSH4 0x81D12C58 EQ PUSH2 0x387 JUMPI DUP1 PUSH4 0x8DA5CB5B EQ PUSH2 0x4B1 JUMPI DUP1 PUSH4 0x92C824D8 EQ PUSH2 0x4CF JUMPI DUP1 PUSH4 0x96171D05 EQ PUSH2 0x4E2 JUMPI PUSH1 0x0 DUP1 REVERT JUMPDEST DUP1 PUSH4 0x6BC6C8D1 EQ PUSH2 0x30D JUMPI DUP1 PUSH4 0x715018A6 EQ PUSH2 0x33A JUMPI DUP1 PUSH4 0x78DA194B EQ PUSH2 0x351 JUMPI DUP1 PUSH4 0x7DC2CD98 EQ PUSH2 0x371 JUMPI PUSH1 0x0 DUP1 REVERT JUMPDEST DUP1 PUSH4 0x2E1A7D4D GT PUSH2 0x1C1 JUMPI DUP1 PUSH4 0x2E1A7D4D EQ PUSH2 0x289 JUMPI DUP1 PUSH4 0x2F4212B8 EQ PUSH2 0x2C1 JUMPI DUP1 PUSH4 0x4EFA8F17 EQ PUSH2 0x2E1 JUMPI DUP1 PUSH4 0x5D5AA11B EQ PUSH2 0x2F7 JUMPI PUSH1 0x0 DUP1 REVERT JUMPDEST DUP1 PUSH4 0xE136B19 EQ PUSH2 0x1F3 JUMPI DUP1 PUSH4 0x1489F8D2 EQ PUSH2 0x222 JUMPI DUP1 PUSH4 0x1D18ADC5 EQ PUSH2 0x246 JUMPI DUP1 PUSH4 0x23F0E7B9 EQ PUSH2 0x25C JUMPI JUMPDEST PUSH1 0x0 DUP1 REVERT JUMPDEST CALLVALUE DUP1 ISZERO PUSH2 0x1FF JUMPI PUSH1 0x0 DUP1 REVERT JUMPDEST POP PUSH1 0x4 SLOAD PUSH2 0x20D SWAP1 PUSH1 0xFF AND DUP2 JUMP JUMPDEST PUSH1 0x40 MLOAD SWAP1 ISZERO ISZERO DUP2 MSTORE PUSH1 0x20 ADD JUMPDEST PUSH1 0x40 MLOAD DUP1 SWAP2 SUB SWAP1 RETURN JUMPDEST CALLVALUE DUP1 ISZERO PUSH2 0x22E JUMPI PUSH1 0x0 DUP1 REVERT JUMPDEST POP PUSH2 0x238 PUSH2 0x12C DUP2 JUMP JUMPDEST PUSH1 0x40 MLOAD SWAP1 DUP2 MSTORE PUSH1 0x20 ADD PUSH2 0x219 JUMP JUMPDEST CALLVALUE DUP1 ISZERO PUSH2 0x252 JUMPI PUSH1 0x0 DUP1 REVERT JUMPDEST POP PUSH2 0x238 PUSH1 0x3 SLOAD DUP2 JUMP JUMPDEST CALLVALUE DUP1 ISZERO PUSH2 0x268 JUMPI PUSH1 0x0 DUP1 REVERT JUMPDEST POP PUSH2 0x238 PUSH2 0x277 CALLDATASIZE PUSH1 0x4 PUSH2 0x23BC JUMP JUMPDEST PUSH1 0x8 PUSH1 0x20 MSTORE PUSH1 0x0 SWAP1 DUP2 MSTORE PUSH1 0x40 SWAP1 KECCAK256 SLOAD DUP2 JUMP JUMPDEST CALLVALUE DUP1 ISZERO PUSH2 0x295 JUMPI PUSH1 0x0 DUP1 REVERT JUMPDEST POP PUSH2 0x2A9 PUSH2 0x2A4 CALLDATASIZE PUSH1 0x4 PUSH2 0x23BC JUMP JUMPDEST PUSH2 0x760 JUMP JUMPDEST PUSH1 0x40 MLOAD PUSH1 0x1 PUSH1 0x1 PUSH1 0xA0 SHL SUB SWAP1 SWAP2 AND DUP2 MSTORE PUSH1 0x20 ADD PUSH2 0x219 JUMP JUMPDEST CALLVALUE DUP1 ISZERO PUSH2 0x2CD JUMPI PUSH1 0x0 DUP1 REVERT JUMPDEST POP PUSH2 0x238 PUSH2 0x2DC CALLDATASIZE PUSH1 0x4 PUSH2 0x23EA JUMP JUMPDEST PUSH2 0xA17 JUMP JUMPDEST CALLVALUE DUP1 ISZERO PUSH2 0x2ED JUMPI PUSH1 0x0 DUP1 REVERT JUMPDEST POP PUSH2 0x238 PUSH1 0x6 SLOAD DUP2 JUMP JUMPDEST CALLVALUE DUP1 ISZERO PUSH2 0x303 JUMPI PUSH1 0x0 DUP1 REVERT JUMPDEST POP PUSH2 0x238 PUSH1 0xB SLOAD DUP2 JUMP JUMPDEST CALLVALUE DUP1 ISZERO PUSH2 0x319 JUMPI PUSH1 0x0 DUP1 REVERT JUMPDEST POP PUSH2 0x238 PUSH2 0x328 CALLDATASIZE PUSH1 0x4 PUSH2 0x244F JUMP JUMPDEST PUSH1 0xF PUSH1 0x20 MSTORE PUSH1 0x0 SWAP1 DUP2 MSTORE PUSH1 0x40 SWAP1 KECCAK256 SLOAD DUP2 JUMP JUMPDEST CALLVALUE DUP1 ISZERO PUSH2 0x346 JUMPI PUSH1 0x0 DUP1 REVERT JUMPDEST POP PUSH2 0x34F PUSH2 0xEA3 JUMP JUMPDEST STOP JUMPDEST CALLVALUE DUP1 ISZERO PUSH2 0x35D JUMPI PUSH1 0x0 DUP1 REVERT JUMPDEST POP PUSH2 0x34F PUSH2 0x36C CALLDATASIZE PUSH1 0x4 PUSH2 0x246C JUMP JUMPDEST PUSH2 0xED9 JUMP JUMPDEST CALLVALUE DUP1 ISZERO PUSH2 0x37D JUMPI PUSH1 0x0 DUP1 REVERT JUMPDEST POP PUSH2 0x238 PUSH1 0x2 SLOAD DUP2 JUMP JUMPDEST CALLVALUE DUP1 ISZERO PUSH2 0x393 JUMPI PUSH1 0x0 DUP1 REVERT JUMPDEST POP PUSH2 0x42D PUSH2 0x3A2 CALLDATASIZE PUSH1 0x4 PUSH2 0x23BC JUMP JUMPDEST PUSH1 0x9 PUSH1 0x20 DUP2 DUP2 MSTORE PUSH1 0x0 SWAP3 DUP4 MSTORE PUSH1 0x40 SWAP3 DUP4 SWAP1 KECCAK256 DUP1 SLOAD PUSH1 0x1 DUP3 ADD SLOAD PUSH1 0x2 DUP4 ADD SLOAD PUSH1 0x3 DUP5 ADD SLOAD PUSH1 0x4 DUP6 ADD SLOAD PUSH1 0x5 DUP7 ADD SLOAD DUP10 MLOAD DUP1 DUP12 ADD SWAP1 SWAP11 MSTORE PUSH1 0x6 DUP8 ADD SLOAD PUSH1 0x1 PUSH1 0x1 PUSH1 0xA0 SHL SUB SWAP1 DUP2 AND DUP12 MSTORE PUSH1 0x7 DUP9 ADD SLOAD SWAP9 DUP12 ADD SWAP9 SWAP1 SWAP9 MSTORE PUSH1 0x8 DUP8 ADD SLOAD SWAP9 DUP8 ADD SLOAD PUSH1 0xA DUP9 ADD SLOAD PUSH1 0xB SWAP1 SWAP9 ADD SLOAD SWAP7 DUP10 AND SWAP11 SWAP6 DUP10 AND SWAP10 SWAP5 SWAP9 SWAP4 DUP5 AND SWAP8 SWAP4 SWAP1 SWAP3 AND SWAP6 SWAP1 SWAP5 SWAP4 PUSH1 0x1 PUSH1 0x1 PUSH1 0xC0 SHL SUB AND SWAP3 SWAP1 DUP12 JUMP JUMPDEST PUSH1 0x40 DUP1 MLOAD PUSH1 0x1 PUSH1 0x1 PUSH1 0xA0 SHL SUB SWAP13 DUP14 AND DUP2 MSTORE SWAP11 DUP13 AND PUSH1 0x20 DUP1 DUP14 ADD SWAP2 SWAP1 SWAP2 MSTORE SWAP1 DUP12 ADD SWAP10 SWAP1 SWAP10 MSTORE SWAP7 DUP11 AND PUSH1 0x60 DUP11 ADD MSTORE SWAP5 DUP10 AND PUSH1 0x80 DUP10 ADD MSTORE PUSH1 0xA0 DUP9 ADD SWAP4 SWAP1 SWAP4 MSTORE DUP2 MLOAD SWAP1 SWAP8 AND PUSH1 0xC0 DUP8 ADD MSTORE SWAP1 SWAP4 ADD MLOAD PUSH1 0xE0 DUP6 ADD MSTORE PUSH1 0x1 PUSH1 0x1 PUSH1 0xC0 SHL SUB SWAP1 SWAP5 AND PUSH2 0x100 DUP5 ADD MSTORE PUSH2 0x120 DUP4 ADD SWAP2 SWAP1 SWAP2 MSTORE PUSH2 0x140 DUP3 ADD SWAP3 SWAP1 SWAP3 MSTORE PUSH2 0x160 DUP2 ADD SWAP2 SWAP1 SWAP2 MSTORE PUSH2 0x180 ADD PUSH2 0x219 JUMP JUMPDEST CALLVALUE DUP1 ISZERO PUSH2 0x4BD JUMPI PUSH1 0x0 DUP1 REVERT JUMPDEST POP PUSH1 0x0 SLOAD PUSH1 0x1 PUSH1 0x1 PUSH1 0xA0 SHL SUB AND PUSH2 0x2A9 JUMP JUMPDEST PUSH2 0x34F PUSH2 0x4DD CALLDATASIZE PUSH1 0x4 PUSH2 0x23BC JUMP JUMPDEST PUSH2 0xF11 JUMP JUMPDEST CALLVALUE DUP1 ISZERO PUSH2 0x4EE JUMPI PUSH1 0x0 DUP1 REVERT JUMPDEST POP PUSH2 0x238 PUSH4 0x1DFE200 DUP2 JUMP JUMPDEST CALLVALUE DUP1 ISZERO PUSH2 0x506 JUMPI PUSH1 0x0 DUP1 REVERT JUMPDEST POP PUSH2 0x238 PUSH1 0x5 SLOAD DUP2 JUMP JUMPDEST CALLVALUE DUP1 ISZERO PUSH2 0x51C JUMPI PUSH1 0x0 DUP1 REVERT JUMPDEST POP PUSH2 0x238 PUSH2 0x52B CALLDATASIZE PUSH1 0x4 PUSH2 0x23BC JUMP JUMPDEST PUSH2 0x1309 JUMP JUMPDEST CALLVALUE DUP1 ISZERO PUSH2 0x53C JUMPI PUSH1 0x0 DUP1 REVERT JUMPDEST POP PUSH2 0x59A PUSH2 0x54B CALLDATASIZE PUSH1 0x4 PUSH2 0x23BC JUMP JUMPDEST PUSH1 0xA PUSH1 0x20 MSTORE PUSH1 0x0 SWAP1 DUP2 MSTORE PUSH1 0x40 SWAP1 KECCAK256 DUP1 SLOAD PUSH1 0x1 DUP3 ADD SLOAD PUSH1 0x2 DUP4 ADD SLOAD PUSH1 0x4 DUP5 ADD SLOAD PUSH1 0x5 DUP6 ADD SLOAD PUSH1 0x6 DUP7 ADD SLOAD PUSH1 0x7 DUP8 ADD SLOAD PUSH1 0x8 SWAP1 SWAP8 ADD SLOAD SWAP6 SWAP7 PUSH1 0x1 PUSH1 0x1 PUSH1 0xA0 SHL SUB SWAP6 DUP7 AND SWAP7 SWAP5 SWAP6 SWAP1 SWAP4 AND SWAP4 SWAP2 SWAP3 SWAP1 SWAP2 DUP9 JUMP JUMPDEST PUSH1 0x40 DUP1 MLOAD SWAP9 DUP10 MSTORE PUSH1 0x1 PUSH1 0x1 PUSH1 0xA0 SHL SUB SWAP8 DUP9 AND PUSH1 0x20 DUP11 ADD MSTORE DUP9 ADD SWAP6 SWAP1 SWAP6 MSTORE SWAP5 SWAP1 SWAP3 AND PUSH1 0x60 DUP7 ADD MSTORE PUSH1 0x80 DUP6 ADD MSTORE PUSH1 0xA0 DUP5 ADD MSTORE PUSH1 0xC0 DUP4 ADD SWAP2 SWAP1 SWAP2 MSTORE PUSH1 0xE0 DUP3 ADD MSTORE PUSH2 0x100 ADD PUSH2 0x219 JUMP JUMPDEST CALLVALUE DUP1 ISZERO PUSH2 0x5EC JUMPI PUSH1 0x0 DUP1 REVERT JUMPDEST POP PUSH1 0x7 SLOAD PUSH2 0x2A9 SWAP1 PUSH1 0x1 PUSH1 0x1 PUSH1 0xA0 SHL SUB AND DUP2 JUMP JUMPDEST PUSH2 0x238 PUSH2 0x60E CALLDATASIZE PUSH1 0x4 PUSH2 0x2498 JUMP JUMPDEST PUSH2 0x132D JUMP JUMPDEST CALLVALUE DUP1 ISZERO PUSH2 0x61F JUMPI PUSH1 0x0 DUP1 REVERT JUMPDEST POP PUSH2 0x34F PUSH2 0x62E CALLDATASIZE PUSH1 0x4 PUSH2 0x2498 JUMP JUMPDEST PUSH2 0x15FB JUMP JUMPDEST CALLVALUE DUP1 ISZERO PUSH2 0x63F JUMPI PUSH1 0x0 DUP1 REVERT JUMPDEST POP PUSH2 0x238 PUSH2 0x64E CALLDATASIZE PUSH1 0x4 PUSH2 0x23BC JUMP JUMPDEST PUSH2 0x1698 JUMP JUMPDEST CALLVALUE DUP1 ISZERO PUSH2 0x65F JUMPI PUSH1 0x0 DUP1 REVERT JUMPDEST POP PUSH2 0x34F PUSH2 0x66E CALLDATASIZE PUSH1 0x4 PUSH2 0x24BA JUMP JUMPDEST PUSH2 0x16B6 JUMP JUMPDEST CALLVALUE DUP1 ISZERO PUSH2 0x67F JUMPI PUSH1 0x0 DUP1 REVERT JUMPDEST POP PUSH2 0x34F PUSH2 0x68E CALLDATASIZE PUSH1 0x4 PUSH2 0x23BC JUMP JUMPDEST PUSH2 0x1769 JUMP JUMPDEST CALLVALUE DUP1 ISZERO PUSH2 0x69F JUMPI PUSH1 0x0 DUP1 REVERT JUMPDEST POP PUSH2 0x34F PUSH2 0x6AE CALLDATASIZE PUSH1 0x4 PUSH2 0x23BC JUMP JUMPDEST PUSH2 0x1973 JUMP JUMPDEST CALLVALUE DUP1 ISZERO PUSH2 0x6BF JUMPI PUSH1 0x0 DUP1 REVERT JUMPDEST POP PUSH2 0x238 PUSH1 0xC SLOAD DUP2 JUMP JUMPDEST CALLVALUE DUP1 ISZERO PUSH2 0x6D5 JUMPI PUSH1 0x0 DUP1 REVERT JUMPDEST POP PUSH2 0x238 PUSH1 0xD SLOAD DUP2 JUMP JUMPDEST CALLVALUE DUP1 ISZERO PUSH2 0x6EB JUMPI PUSH1 0x0 DUP1 REVERT JUMPDEST POP PUSH2 0x34F PUSH2 0x19A2 JUMP JUMPDEST CALLVALUE DUP1 ISZERO PUSH2 0x700 JUMPI PUSH1 0x0 DUP1 REVERT JUMPDEST POP PUSH2 0x238 PUSH1 0x1 SLOAD DUP2 JUMP JUMPDEST CALLVALUE DUP1 ISZERO PUSH2 0x716 JUMPI PUSH1 0x0 DUP1 REVERT JUMPDEST POP PUSH2 0x34F PUSH2 0x725 CALLDATASIZE PUSH1 0x4 PUSH2 0x244F JUMP JUMPDEST PUSH2 0x1A2E JUMP JUMPDEST CALLVALUE DUP1 ISZERO PUSH2 0x736 JUMPI PUSH1 0x0 DUP1 REVERT JUMPDEST POP PUSH2 0x238 PUSH2 0x745 CALLDATASIZE PUSH1 0x4 PUSH2 0x23BC JUMP JUMPDEST PUSH2 0x1AC9 JUMP JUMPDEST CALLVALUE DUP1 ISZERO PUSH2 0x756 JUMPI PUSH1 0x0 DUP1 REVERT JUMPDEST POP PUSH2 0x238 PUSH1 0xE SLOAD DUP2 JUMP JUMPDEST PUSH1 0x0 DUP2 PUSH1 0x6 SLOAD DUP2 GT ISZERO DUP1 ISZERO PUSH2 0x775 JUMPI POP PUSH1 0x0 DUP2 GT JUMPDEST PUSH2 0x7BA JUMPI PUSH1 0x40 MLOAD PUSH3 0x461BCD PUSH1 0xE5 SHL DUP2 MSTORE PUSH1 0x20 PUSH1 0x4 DUP3 ADD MSTORE PUSH1 0x11 PUSH1 0x24 DUP3 ADD MSTORE PUSH17 0x18DB185A5B5259081B9BDD081D985B1A59 PUSH1 0x7A SHL PUSH1 0x44 DUP3 ADD MSTORE PUSH1 0x64 ADD JUMPDEST PUSH1 0x40 MLOAD DUP1 SWAP2 SUB SWAP1 REVERT JUMPDEST PUSH1 0x0 DUP4 DUP2 MSTORE PUSH1 0xA PUSH1 0x20 SWAP1 DUP2 MSTORE PUSH1 0x40 DUP1 DUP4 KECCAK256 DUP1 SLOAD DUP5 MSTORE PUSH1 0x9 SWAP1 SWAP3 MSTORE DUP3 KECCAK256 SWAP1 SWAP2 DUP1 PUSH2 0x7E2 DUP8 PUSH2 0x1AED JUMP JUMPDEST PUSH1 0x1 PUSH1 0x1 PUSH1 0xA0 SHL SUB DUP3 AND PUSH1 0x0 SWAP1 DUP2 MSTORE PUSH1 0x3 DUP8 ADD PUSH1 0x20 MSTORE PUSH1 0x40 SWAP1 KECCAK256 SLOAD SWAP2 SWAP4 POP SWAP2 POP ISZERO PUSH2 0x823 JUMPI PUSH1 0x1 PUSH1 0x1 PUSH1 0xA0 SHL SUB DUP3 AND PUSH1 0x0 SWAP1 DUP2 MSTORE PUSH1 0x3 DUP6 ADD PUSH1 0x20 MSTORE PUSH1 0x40 DUP2 KECCAK256 SSTORE JUMPDEST DUP4 PUSH1 0x6 ADD SLOAD PUSH1 0x0 SUB PUSH2 0x875 JUMPI PUSH1 0x8 DUP4 ADD DUP1 SLOAD PUSH1 0x1 SWAP2 SWAP1 PUSH1 0x0 SWAP1 PUSH2 0x850 SWAP1 DUP5 SWAP1 PUSH1 0x1 PUSH1 0x1 PUSH1 0xC0 SHL SUB AND PUSH2 0x2509 JUMP JUMPDEST SWAP3 POP PUSH2 0x100 EXP DUP2 SLOAD DUP2 PUSH1 0x1 PUSH1 0x1 PUSH1 0xC0 SHL SUB MUL NOT AND SWAP1 DUP4 PUSH1 0x1 PUSH1 0x1 PUSH1 0xC0 SHL SUB AND MUL OR SWAP1 SSTORE POP JUMPDEST DUP1 DUP5 PUSH1 0x6 ADD PUSH1 0x0 DUP3 DUP3 SLOAD PUSH2 0x889 SWAP2 SWAP1 PUSH2 0x2531 JUMP JUMPDEST SWAP1 SWAP2 SSTORE POP POP PUSH1 0x5 DUP5 ADD SLOAD PUSH1 0x2 DUP6 ADD SLOAD PUSH2 0x8A2 SWAP2 SWAP1 PUSH2 0x2531 JUMP JUMPDEST DUP5 PUSH1 0x6 ADD SLOAD GT ISZERO PUSH2 0x8F5 JUMPI PUSH1 0x40 MLOAD PUSH3 0x461BCD PUSH1 0xE5 SHL DUP2 MSTORE PUSH1 0x20 PUSH1 0x4 DUP3 ADD MSTORE PUSH1 0x1C PUSH1 0x24 DUP3 ADD MSTORE PUSH32 0x416D6F756E7420746F20776974686472617720746F6F206C6172676500000000 PUSH1 0x44 DUP3 ADD MSTORE PUSH1 0x64 ADD PUSH2 0x7B1 JUMP JUMPDEST PUSH1 0x0 DUP3 PUSH1 0x1 PUSH1 0x1 PUSH1 0xA0 SHL SUB AND DUP3 PUSH1 0x40 MLOAD PUSH1 0x0 PUSH1 0x40 MLOAD DUP1 DUP4 SUB DUP2 DUP6 DUP8 GAS CALL SWAP3 POP POP POP RETURNDATASIZE DUP1 PUSH1 0x0 DUP2 EQ PUSH2 0x942 JUMPI PUSH1 0x40 MLOAD SWAP2 POP PUSH1 0x1F NOT PUSH1 0x3F RETURNDATASIZE ADD AND DUP3 ADD PUSH1 0x40 MSTORE RETURNDATASIZE DUP3 MSTORE RETURNDATASIZE PUSH1 0x0 PUSH1 0x20 DUP5 ADD RETURNDATACOPY PUSH2 0x947 JUMP JUMPDEST PUSH1 0x60 SWAP2 POP JUMPDEST POP POP SWAP1 POP DUP1 PUSH2 0x98F JUMPI PUSH1 0x40 MLOAD PUSH3 0x461BCD PUSH1 0xE5 SHL DUP2 MSTORE PUSH1 0x20 PUSH1 0x4 DUP3 ADD MSTORE PUSH1 0x14 PUSH1 0x24 DUP3 ADD MSTORE PUSH20 0x2330B4B632B2103A379039B2B7321022BA3432B9 PUSH1 0x61 SHL PUSH1 0x44 DUP3 ADD MSTORE PUSH1 0x64 ADD PUSH2 0x7B1 JUMP JUMPDEST DUP5 SLOAD PUSH1 0x40 DUP1 MLOAD DUP11 DUP2 MSTORE PUSH1 0x1 PUSH1 0x1 PUSH1 0xA0 SHL SUB DUP7 AND PUSH1 0x20 DUP3 ADD MSTORE PUSH32 0xC494C0D9B07FAE9D937A92117991D3017AD9408A7D344CAA86C184C47F7BD183 SWAP2 ADD PUSH1 0x40 MLOAD DUP1 SWAP2 SUB SWAP1 LOG2 PUSH1 0x6 DUP5 ADD SLOAD PUSH1 0x1 PUSH1 0x1 PUSH1 0xA0 SHL SUB AND ISZERO DUP1 ISZERO PUSH2 0x9FC JUMPI POP PUSH1 0x1 DUP6 ADD SLOAD PUSH1 0x1 PUSH1 0x1 PUSH1 0xA0 SHL SUB DUP5 DUP2 AND SWAP2 AND EQ JUMPDEST ISZERO PUSH2 0xA0B JUMPI PUSH2 0xA0B DUP5 DUP7 PUSH2 0x1ECD JUMP JUMPDEST POP SWAP1 SWAP7 SWAP6 POP POP POP POP POP POP JUMP JUMPDEST PUSH1 0x4 SLOAD PUSH1 0x0 SWAP1 PUSH1 0xFF AND ISZERO PUSH2 0xA66 JUMPI PUSH1 0x40 MLOAD PUSH3 0x461BCD PUSH1 0xE5 SHL DUP2 MSTORE PUSH1 0x20 PUSH1 0x4 DUP3 ADD MSTORE PUSH1 0x16 PUSH1 0x24 DUP3 ADD MSTORE PUSH22 0x10DBDB9D1C9858DD081A5CC819195C1C9958D85D1959 PUSH1 0x52 SHL PUSH1 0x44 DUP3 ADD MSTORE PUSH1 0x64 ADD PUSH2 0x7B1 JUMP JUMPDEST PUSH1 0x0 DUP8 DUP2 MSTORE PUSH1 0x8 PUSH1 0x20 MSTORE PUSH1 0x40 DUP2 KECCAK256 SLOAD SWAP1 SUB PUSH2 0xAC3 JUMPI PUSH1 0x40 MLOAD PUSH3 0x461BCD PUSH1 0xE5 SHL DUP2 MSTORE PUSH1 0x20 PUSH1 0x4 DUP3 ADD MSTORE PUSH1 0x1B PUSH1 0x24 DUP3 ADD MSTORE PUSH32 0x54617267657420726F6C6C7570206E6F7420737570706F727465640000000000 PUSH1 0x44 DUP3 ADD MSTORE PUSH1 0x64 ADD PUSH2 0x7B1 JUMP JUMPDEST PUSH2 0x12C DUP3 LT ISZERO PUSH2 0xB15 JUMPI PUSH1 0x40 MLOAD PUSH3 0x461BCD PUSH1 0xE5 SHL DUP2 MSTORE PUSH1 0x20 PUSH1 0x4 DUP3 ADD MSTORE PUSH1 0x19 PUSH1 0x24 DUP3 ADD MSTORE PUSH32 0x56616C696469747920706572696F6420746F6F2073686F727400000000000000 PUSH1 0x44 DUP3 ADD MSTORE PUSH1 0x64 ADD PUSH2 0x7B1 JUMP JUMPDEST PUSH4 0x1DFE200 DUP3 GT ISZERO PUSH2 0xB69 JUMPI PUSH1 0x40 MLOAD PUSH3 0x461BCD PUSH1 0xE5 SHL DUP2 MSTORE PUSH1 0x20 PUSH1 0x4 DUP3 ADD MSTORE PUSH1 0x18 PUSH1 0x24 DUP3 ADD MSTORE PUSH32 0x56616C696469747920706572696F6420746F6F206C6F6E670000000000000000 PUSH1 0x44 DUP3 ADD MSTORE PUSH1 0x64 ADD PUSH2 0x7B1 JUMP JUMPDEST PUSH1 0xE SLOAD DUP4 GT ISZERO PUSH2 0xBBB JUMPI PUSH1 0x40 MLOAD PUSH3 0x461BCD PUSH1 0xE5 SHL DUP2 MSTORE PUSH1 0x20 PUSH1 0x4 DUP3 ADD MSTORE PUSH1 0x1D PUSH1 0x24 DUP3 ADD MSTORE PUSH32 0x416D6F756E742065786365656473207472616E73666572206C696D6974000000 PUSH1 0x44 DUP3 ADD MSTORE PUSH1 0x64 ADD PUSH2 0x7B1 JUMP JUMPDEST DUP6 PUSH1 0x0 PUSH2 0xBC7 DUP6 PUSH2 0x1AC9 JUMP JUMPDEST SWAP1 POP PUSH1 0x0 PUSH2 0xBD4 DUP7 PUSH2 0x1309 JUMP JUMPDEST SWAP1 POP PUSH1 0x0 DUP2 PUSH2 0xBE3 DUP5 DUP10 PUSH2 0x2531 JUMP JUMPDEST PUSH2 0xBED SWAP2 SWAP1 PUSH2 0x2531 JUMP JUMPDEST PUSH1 0x40 MLOAD PUSH4 0x6EB1769F PUSH1 0xE1 SHL DUP2 MSTORE CALLER PUSH1 0x4 DUP3 ADD MSTORE ADDRESS PUSH1 0x24 DUP3 ADD MSTORE SWAP1 SWAP2 POP DUP2 SWAP1 PUSH1 0x1 PUSH1 0x1 PUSH1 0xA0 SHL SUB DUP7 AND SWAP1 PUSH4 0xDD62ED3E SWAP1 PUSH1 0x44 ADD PUSH1 0x20 PUSH1 0x40 MLOAD DUP1 DUP4 SUB DUP2 DUP7 GAS STATICCALL ISZERO DUP1 ISZERO PUSH2 0xC3C JUMPI RETURNDATASIZE PUSH1 0x0 DUP1 RETURNDATACOPY RETURNDATASIZE PUSH1 0x0 REVERT JUMPDEST POP POP POP POP PUSH1 0x40 MLOAD RETURNDATASIZE PUSH1 0x1F NOT PUSH1 0x1F DUP3 ADD AND DUP3 ADD DUP1 PUSH1 0x40 MSTORE POP DUP2 ADD SWAP1 PUSH2 0xC60 SWAP2 SWAP1 PUSH2 0x2549 JUMP JUMPDEST LT ISZERO PUSH2 0xCA7 JUMPI PUSH1 0x40 MLOAD PUSH3 0x461BCD PUSH1 0xE5 SHL DUP2 MSTORE PUSH1 0x20 PUSH1 0x4 DUP3 ADD MSTORE PUSH1 0x16 PUSH1 0x24 DUP3 ADD MSTORE PUSH22 0x496E73756666696369656E7420616C6C6F77616E6365 PUSH1 0x50 SHL PUSH1 0x44 DUP3 ADD MSTORE PUSH1 0x64 ADD PUSH2 0x7B1 JUMP JUMPDEST PUSH1 0x1 PUSH1 0x5 PUSH1 0x0 DUP3 DUP3 SLOAD PUSH2 0xCBA SWAP2 SWAP1 PUSH2 0x2531 JUMP JUMPDEST SWAP3 POP POP DUP2 SWAP1 SSTORE POP PUSH1 0x0 PUSH1 0x9 PUSH1 0x0 PUSH1 0x5 SLOAD DUP2 MSTORE PUSH1 0x20 ADD SWAP1 DUP2 MSTORE PUSH1 0x20 ADD PUSH1 0x0 KECCAK256 SWAP1 POP CALLER DUP2 PUSH1 0x0 ADD PUSH1 0x0 PUSH2 0x100 EXP DUP2 SLOAD DUP2 PUSH1 0x1 PUSH1 0x1 PUSH1 0xA0 SHL SUB MUL NOT AND SWAP1 DUP4 PUSH1 0x1 PUSH1 0x1 PUSH1 0xA0 SHL SUB AND MUL OR SWAP1 SSTORE POP DUP11 DUP2 PUSH1 0x1 ADD PUSH1 0x0 PUSH2 0x100 EXP DUP2 SLOAD DUP2 PUSH1 0x1 PUSH1 0x1 PUSH1 0xA0 SHL SUB MUL NOT AND SWAP1 DUP4 PUSH1 0x1 PUSH1 0x1 PUSH1 0xA0 SHL SUB AND MUL OR SWAP1 SSTORE POP DUP12 DUP2 PUSH1 0x2 ADD DUP2 SWAP1 SSTORE POP DUP10 DUP2 PUSH1 0x3 ADD PUSH1 0x0 PUSH2 0x100 EXP DUP2 SLOAD DUP2 PUSH1 0x1 PUSH1 0x1 PUSH1 0xA0 SHL SUB MUL NOT AND SWAP1 DUP4 PUSH1 0x1 PUSH1 0x1 PUSH1 0xA0 SHL SUB AND MUL OR SWAP1 SSTORE POP DUP9 DUP2 PUSH1 0x4 ADD PUSH1 0x0 PUSH2 0x100 EXP DUP2 SLOAD DUP2 PUSH1 0x1 PUSH1 0x1 PUSH1 0xA0 SHL SUB MUL NOT AND SWAP1 DUP4 PUSH1 0x1 PUSH1 0x1 PUSH1 0xA0 SHL SUB AND MUL OR SWAP1 SSTORE POP DUP8 DUP2 PUSH1 0x5 ADD DUP2 SWAP1 SSTORE POP PUSH1 0x40 MLOAD DUP1 PUSH1 0x40 ADD PUSH1 0x40 MSTORE DUP1 PUSH1 0x0 PUSH1 0x1 PUSH1 0x1 PUSH1 0xA0 SHL SUB AND DUP2 MSTORE PUSH1 0x20 ADD PUSH1 0x0 DUP1 SHL DUP2 MSTORE POP DUP2 PUSH1 0x6 ADD PUSH1 0x0 DUP3 ADD MLOAD DUP2 PUSH1 0x0 ADD PUSH1 0x0 PUSH2 0x100 EXP DUP2 SLOAD DUP2 PUSH1 0x1 PUSH1 0x1 PUSH1 0xA0 SHL SUB MUL NOT AND SWAP1 DUP4 PUSH1 0x1 PUSH1 0x1 PUSH1 0xA0 SHL SUB AND MUL OR SWAP1 SSTORE POP PUSH1 0x20 DUP3 ADD MLOAD DUP2 PUSH1 0x1 ADD SSTORE SWAP1 POP POP DUP7 TIMESTAMP PUSH2 0xDFC SWAP2 SWAP1 PUSH2 0x2531 JUMP JUMPDEST PUSH1 0x9 DUP3 ADD DUP2 SWAP1 SSTORE PUSH1 0xA DUP3 ADD DUP6 SWAP1 SSTORE PUSH1 0xB DUP3 ADD DUP5 SWAP1 SSTORE PUSH1 0x5 SLOAD PUSH1 0x40 DUP1 MLOAD SWAP2 DUP3 MSTORE PUSH1 0x20 DUP3 ADD DUP16 SWAP1 MSTORE PUSH1 0x1 PUSH1 0x1 PUSH1 0xA0 SHL SUB DUP15 DUP2 AND DUP4 DUP4 ADD MSTORE DUP14 DUP2 AND PUSH1 0x60 DUP5 ADD MSTORE DUP13 AND PUSH1 0x80 DUP4 ADD MSTORE PUSH1 0xA0 DUP3 ADD DUP12 SWAP1 MSTORE PUSH1 0xC0 DUP3 ADD SWAP3 SWAP1 SWAP3 MSTORE SWAP1 MLOAD PUSH32 0x18A412D0656B9A5C9263A134F66A34DA33CAD7C3690971601F9963ADE588E701 SWAP2 DUP2 SWAP1 SUB PUSH1 0xE0 ADD SWAP1 LOG1 PUSH2 0xE90 PUSH1 0x1 PUSH1 0x1 PUSH1 0xA0 SHL SUB DUP7 AND CALLER ADDRESS DUP6 PUSH2 0x1FB2 JUMP JUMPDEST POP POP PUSH1 0x5 SLOAD SWAP11 SWAP10 POP POP POP POP POP POP POP POP POP POP JUMP JUMPDEST PUSH1 0x0 SLOAD PUSH1 0x1 PUSH1 0x1 PUSH1 0xA0 SHL SUB AND CALLER EQ PUSH2 0xECD JUMPI PUSH1 0x40 MLOAD PUSH3 0x461BCD PUSH1 0xE5 SHL DUP2 MSTORE PUSH1 0x4 ADD PUSH2 0x7B1 SWAP1 PUSH2 0x2562 JUMP JUMPDEST PUSH2 0xED7 PUSH1 0x0 PUSH2 0x201D JUMP JUMPDEST JUMP JUMPDEST PUSH1 0x0 SLOAD PUSH1 0x1 PUSH1 0x1 PUSH1 0xA0 SHL SUB AND CALLER EQ PUSH2 0xF03 JUMPI PUSH1 0x40 MLOAD PUSH3 0x461BCD PUSH1 0xE5 SHL DUP2 MSTORE PUSH1 0x4 ADD PUSH2 0x7B1 SWAP1 PUSH2 0x2562 JUMP JUMPDEST PUSH1 0xD SWAP3 SWAP1 SWAP3 SSTORE PUSH1 0xC SSTORE PUSH1 0xB SSTORE JUMP JUMPDEST DUP1 PUSH1 0x6 SLOAD DUP2 GT ISZERO DUP1 ISZERO PUSH2 0xF24 JUMPI POP PUSH1 0x0 DUP2 GT JUMPDEST PUSH2 0xF64 JUMPI PUSH1 0x40 MLOAD PUSH3 0x461BCD PUSH1 0xE5 SHL DUP2 MSTORE PUSH1 0x20 PUSH1 0x4 DUP3 ADD MSTORE PUSH1 0x11 PUSH1 0x24 DUP3 ADD MSTORE PUSH17 0x18DB185A5B5259081B9BDD081D985B1A59 PUSH1 0x7A SHL PUSH1 0x44 DUP3 ADD MSTORE PUSH1 0x64 ADD PUSH2 0x7B1 JUMP JUMPDEST PUSH1 0x0 DUP3 DUP2 MSTORE PUSH1 0xA PUSH1 0x20 SWAP1 DUP2 MSTORE PUSH1 0x40 DUP1 DUP4 KECCAK256 DUP1 SLOAD DUP5 MSTORE PUSH1 0x9 SWAP1 SWAP3 MSTORE SWAP1 SWAP2 KECCAK256 PUSH1 0x7 DUP3 ADD SLOAD TIMESTAMP LT PUSH2 0xFC4 JUMPI PUSH1 0x40 MLOAD PUSH3 0x461BCD PUSH1 0xE5 SHL DUP2 MSTORE PUSH1 0x20 PUSH1 0x4 DUP3 ADD MSTORE PUSH1 0xD PUSH1 0x24 DUP3 ADD MSTORE PUSH13 0x10DB185A5B48195E1C1A5C9959 PUSH1 0x9A SHL PUSH1 0x44 DUP3 ADD MSTORE PUSH1 0x64 ADD PUSH2 0x7B1 JUMP JUMPDEST PUSH1 0x3 SLOAD PUSH1 0x2 DUP4 ADD SLOAD PUSH1 0x5 DUP5 ADD SLOAD PUSH1 0x0 SWAP3 DUP4 SWAP3 SWAP1 SWAP2 DUP1 DUP3 GT ISZERO PUSH2 0x1086 JUMPI DUP1 PUSH1 0x0 SUB PUSH2 0x1009 JUMPI PUSH1 0x2 DUP7 ADD SLOAD PUSH1 0x0 SWAP1 DUP2 MSTORE PUSH1 0x8 PUSH1 0x20 MSTORE PUSH1 0x40 SWAP1 KECCAK256 SLOAD PUSH2 0x1006 SWAP1 DUP5 PUSH2 0x2531 JUMP JUMPDEST SWAP3 POP JUMPDEST PUSH1 0x1 DUP8 ADD SLOAD CALLER PUSH1 0x1 PUSH1 0x1 PUSH1 0xA0 SHL SUB SWAP1 SWAP2 AND SUB PUSH2 0x1067 JUMPI PUSH1 0x40 MLOAD PUSH3 0x461BCD PUSH1 0xE5 SHL DUP2 MSTORE PUSH1 0x20 PUSH1 0x4 DUP3 ADD MSTORE PUSH1 0x1A PUSH1 0x24 DUP3 ADD MSTORE PUSH32 0x43616E6E6F74206368616C6C656E6765206F776E20636C61696D000000000000 PUSH1 0x44 DUP3 ADD MSTORE PUSH1 0x64 ADD PUSH2 0x7B1 JUMP JUMPDEST CALLER SWAP5 POP PUSH2 0x1074 DUP2 DUP4 PUSH2 0x2597 JUMP JUMPDEST PUSH2 0x107F SWAP1 PUSH1 0x1 PUSH2 0x2531 JUMP JUMPDEST SWAP4 POP PUSH2 0x10B2 JUMP JUMPDEST PUSH1 0x1 DUP1 DUP9 ADD SLOAD SWAP1 SLOAD PUSH1 0x1 PUSH1 0x1 PUSH1 0xA0 SHL SUB SWAP1 SWAP2 AND SWAP6 POP PUSH2 0x10A5 DUP4 DUP4 PUSH2 0x2597 JUMP JUMPDEST PUSH2 0x10AF SWAP2 SWAP1 PUSH2 0x2531 JUMP JUMPDEST SWAP4 POP JUMPDEST CALLER PUSH1 0x1 PUSH1 0x1 PUSH1 0xA0 SHL SUB DUP7 AND EQ PUSH2 0x1103 JUMPI PUSH1 0x40 MLOAD PUSH3 0x461BCD PUSH1 0xE5 SHL DUP2 MSTORE PUSH1 0x20 PUSH1 0x4 DUP3 ADD MSTORE PUSH1 0x16 PUSH1 0x24 DUP3 ADD MSTORE PUSH22 0x139BDD08195B1A59DA589B19481D1BC81BDD5D189A59 PUSH1 0x52 SHL PUSH1 0x44 DUP3 ADD MSTORE PUSH1 0x64 ADD PUSH2 0x7B1 JUMP JUMPDEST DUP4 CALLVALUE LT ISZERO PUSH2 0x1153 JUMPI PUSH1 0x40 MLOAD PUSH3 0x461BCD PUSH1 0xE5 SHL DUP2 MSTORE PUSH1 0x20 PUSH1 0x4 DUP3 ADD MSTORE PUSH1 0x19 PUSH1 0x24 DUP3 ADD MSTORE PUSH32 0x4E6F7420656E6F756768207374616B652070726F766964656400000000000000 PUSH1 0x44 DUP3 ADD MSTORE PUSH1 0x64 ADD PUSH2 0x7B1 JUMP JUMPDEST PUSH1 0x1 DUP8 ADD SLOAD PUSH1 0x1 PUSH1 0x1 PUSH1 0xA0 SHL SUB SWAP1 DUP2 AND SWAP1 DUP7 AND SUB PUSH2 0x118A JUMPI CALLVALUE DUP8 PUSH1 0x2 ADD PUSH1 0x0 DUP3 DUP3 SLOAD PUSH2 0x117F SWAP2 SWAP1 PUSH2 0x2531 JUMP JUMPDEST SWAP1 SWAP2 SSTORE POP PUSH2 0x11E2 SWAP1 POP JUMP JUMPDEST PUSH1 0x4 DUP8 ADD DUP1 SLOAD PUSH1 0x1 PUSH1 0x1 PUSH1 0xA0 SHL SUB NOT AND CALLER SWAP1 DUP2 OR SWAP1 SWAP2 SSTORE PUSH1 0x0 SWAP1 DUP2 MSTORE PUSH1 0x3 DUP9 ADD PUSH1 0x20 MSTORE PUSH1 0x40 DUP2 KECCAK256 DUP1 SLOAD CALLVALUE SWAP3 SWAP1 PUSH2 0x11C1 SWAP1 DUP5 SWAP1 PUSH2 0x2531 JUMP JUMPDEST SWAP3 POP POP DUP2 SWAP1 SSTORE POP CALLVALUE DUP8 PUSH1 0x5 ADD PUSH1 0x0 DUP3 DUP3 SLOAD PUSH2 0x11DC SWAP2 SWAP1 PUSH2 0x2531 JUMP JUMPDEST SWAP1 SWAP2 SSTORE POP POP JUMPDEST PUSH1 0x7 DUP8 ADD SLOAD PUSH2 0x11FA SWAP1 PUSH2 0x11F5 DUP6 TIMESTAMP PUSH2 0x2531 JUMP JUMPDEST PUSH2 0x206D JUMP JUMPDEST PUSH1 0x7 DUP9 ADD SSTORE PUSH1 0x3 SLOAD PUSH1 0x0 SWAP1 PUSH2 0x120F SWAP1 TIMESTAMP PUSH2 0x2531 JUMP JUMPDEST SWAP1 POP DUP1 DUP9 PUSH1 0x7 ADD SLOAD LT ISZERO PUSH2 0x1277 JUMPI PUSH1 0x40 MLOAD PUSH3 0x461BCD PUSH1 0xE5 SHL DUP2 MSTORE PUSH1 0x20 PUSH1 0x4 DUP3 ADD MSTORE PUSH1 0x29 PUSH1 0x24 DUP3 ADD MSTORE PUSH32 0x436C61696D207465726D696E6174696F6E20646964206E6F7420696E63726561 PUSH1 0x44 DUP3 ADD MSTORE PUSH9 0xE6CA40CADCDEEACED PUSH1 0xBB SHL PUSH1 0x64 DUP3 ADD MSTORE PUSH1 0x84 ADD PUSH2 0x7B1 JUMP JUMPDEST DUP8 PUSH1 0x0 ADD SLOAD PUSH32 0x29FD2DF293BA511E44CA47212C915137020231ED3AC0EE7BD02A7A655275AD37 DUP12 DUP11 PUSH1 0x1 ADD PUSH1 0x0 SWAP1 SLOAD SWAP1 PUSH2 0x100 EXP SWAP1 DIV PUSH1 0x1 PUSH1 0x1 PUSH1 0xA0 SHL SUB AND DUP12 PUSH1 0x2 ADD SLOAD DUP13 PUSH1 0x4 ADD PUSH1 0x0 SWAP1 SLOAD SWAP1 PUSH2 0x100 EXP SWAP1 DIV PUSH1 0x1 PUSH1 0x1 PUSH1 0xA0 SHL SUB AND DUP14 PUSH1 0x5 ADD SLOAD DUP15 PUSH1 0x7 ADD SLOAD DUP16 PUSH1 0x8 ADD SLOAD PUSH1 0x40 MLOAD PUSH2 0x12F5 SWAP8 SWAP7 SWAP6 SWAP5 SWAP4 SWAP3 SWAP2 SWAP1 PUSH2 0x25AE JUMP JUMPDEST PUSH1 0x40 MLOAD DUP1 SWAP2 SUB SWAP1 LOG2 POP POP POP POP POP POP POP POP POP POP JUMP JUMPDEST PUSH1 0x0 PUSH3 0xF4240 PUSH1 0xD SLOAD DUP4 PUSH2 0x131D SWAP2 SWAP1 PUSH2 0x25ED JUMP JUMPDEST PUSH2 0x1327 SWAP2 SWAP1 PUSH2 0x260C JUMP JUMPDEST SWAP3 SWAP2 POP POP JUMP JUMPDEST PUSH1 0x0 DUP3 PUSH1 0x5 SLOAD DUP2 GT ISZERO DUP1 ISZERO PUSH2 0x1342 JUMPI POP PUSH1 0x0 DUP2 GT JUMPDEST PUSH2 0x1384 JUMPI PUSH1 0x40 MLOAD PUSH3 0x461BCD PUSH1 0xE5 SHL DUP2 MSTORE PUSH1 0x20 PUSH1 0x4 DUP3 ADD MSTORE PUSH1 0x13 PUSH1 0x24 DUP3 ADD MSTORE PUSH19 0x1C995C5D595CDD1259081B9BDD081D985B1A59 PUSH1 0x6A SHL PUSH1 0x44 DUP3 ADD MSTORE PUSH1 0x64 ADD PUSH2 0x7B1 JUMP JUMPDEST PUSH1 0x0 DUP5 DUP2 MSTORE PUSH1 0x9 PUSH1 0x20 DUP2 SWAP1 MSTORE PUSH1 0x40 SWAP1 SWAP2 KECCAK256 SWAP1 DUP2 ADD SLOAD TIMESTAMP LT PUSH2 0x13D9 JUMPI PUSH1 0x40 MLOAD PUSH3 0x461BCD PUSH1 0xE5 SHL DUP2 MSTORE PUSH1 0x20 PUSH1 0x4 DUP3 ADD MSTORE PUSH1 0xF PUSH1 0x24 DUP3 ADD MSTORE PUSH15 0x14995C5D595CDD08195E1C1A5C9959 PUSH1 0x8A SHL PUSH1 0x44 DUP3 ADD MSTORE PUSH1 0x64 ADD PUSH2 0x7B1 JUMP JUMPDEST PUSH1 0x6 DUP2 ADD SLOAD PUSH1 0x1 PUSH1 0x1 PUSH1 0xA0 SHL SUB AND ISZERO PUSH2 0x1430 JUMPI PUSH1 0x40 MLOAD PUSH3 0x461BCD PUSH1 0xE5 SHL DUP2 MSTORE PUSH1 0x20 PUSH1 0x4 DUP3 ADD MSTORE PUSH1 0x19 PUSH1 0x24 DUP3 ADD MSTORE PUSH25 0x2232B837B9B4BA1030B63932B0B23C903BB4BA34323930BBB7 PUSH1 0x39 SHL PUSH1 0x44 DUP3 ADD MSTORE PUSH1 0x64 ADD PUSH2 0x7B1 JUMP JUMPDEST PUSH1 0x1 SLOAD CALLVALUE EQ PUSH2 0x1478 JUMPI PUSH1 0x40 MLOAD PUSH3 0x461BCD PUSH1 0xE5 SHL DUP2 MSTORE PUSH1 0x20 PUSH1 0x4 DUP3 ADD MSTORE PUSH1 0x14 PUSH1 0x24 DUP3 ADD MSTORE PUSH20 0x125B9D985B1A59081CDD185AD948185B5BDD5B9D PUSH1 0x62 SHL PUSH1 0x44 DUP3 ADD MSTORE PUSH1 0x64 ADD PUSH2 0x7B1 JUMP JUMPDEST DUP4 PUSH2 0x14BE JUMPI PUSH1 0x40 MLOAD PUSH3 0x461BCD PUSH1 0xE5 SHL DUP2 MSTORE PUSH1 0x20 PUSH1 0x4 DUP3 ADD MSTORE PUSH1 0x16 PUSH1 0x24 DUP3 ADD MSTORE PUSH22 0x46696C6C4964206D757374206E6F742062652030783 PUSH1 0x54 SHL PUSH1 0x44 DUP3 ADD MSTORE PUSH1 0x64 ADD PUSH2 0x7B1 JUMP JUMPDEST PUSH1 0x8 DUP2 ADD DUP1 SLOAD PUSH1 0x1 SWAP2 SWAP1 PUSH1 0x0 SWAP1 PUSH2 0x14DF SWAP1 DUP5 SWAP1 PUSH1 0x1 PUSH1 0x1 PUSH1 0xC0 SHL SUB AND PUSH2 0x262E JUMP JUMPDEST SWAP3 POP PUSH2 0x100 EXP DUP2 SLOAD DUP2 PUSH1 0x1 PUSH1 0x1 PUSH1 0xC0 SHL SUB MUL NOT AND SWAP1 DUP4 PUSH1 0x1 PUSH1 0x1 PUSH1 0xC0 SHL SUB AND MUL OR SWAP1 SSTORE POP PUSH1 0x1 PUSH1 0x6 PUSH1 0x0 DUP3 DUP3 SLOAD PUSH2 0x1516 SWAP2 SWAP1 PUSH2 0x2531 JUMP JUMPDEST SWAP1 SWAP2 SSTORE POP POP PUSH1 0x6 DUP1 SLOAD PUSH1 0x0 SWAP1 DUP2 MSTORE PUSH1 0xA PUSH1 0x20 MSTORE PUSH1 0x40 DUP2 KECCAK256 DUP8 DUP2 SSTORE PUSH1 0x1 DUP1 DUP3 ADD DUP1 SLOAD PUSH1 0x1 PUSH1 0x1 PUSH1 0xA0 SHL SUB NOT SWAP1 DUP2 AND CALLER OR SWAP1 SWAP2 SSTORE SWAP1 SLOAD PUSH1 0x2 DUP1 DUP5 ADD SWAP2 SWAP1 SWAP2 SSTORE PUSH1 0x4 DUP4 ADD DUP1 SLOAD SWAP1 SWAP3 AND SWAP1 SWAP2 SSTORE PUSH1 0x5 DUP3 ADD DUP4 SWAP1 SSTORE SWAP3 DUP2 ADD SWAP2 SWAP1 SWAP2 SSTORE SWAP1 SLOAD PUSH2 0x1579 SWAP1 TIMESTAMP PUSH2 0x2531 JUMP JUMPDEST PUSH1 0x7 DUP3 ADD DUP2 SWAP1 SSTORE PUSH1 0x8 DUP3 ADD DUP7 SWAP1 SSTORE PUSH1 0x6 SLOAD PUSH1 0x1 DUP4 ADD SLOAD PUSH1 0x2 DUP5 ADD SLOAD PUSH1 0x4 DUP6 ADD SLOAD PUSH1 0x5 DUP7 ADD SLOAD PUSH1 0x40 MLOAD DUP13 SWAP7 PUSH32 0x29FD2DF293BA511E44CA47212C915137020231ED3AC0EE7BD02A7A655275AD37 SWAP7 PUSH2 0x15E6 SWAP7 SWAP1 SWAP6 PUSH1 0x1 PUSH1 0x1 PUSH1 0xA0 SHL SUB SWAP2 DUP3 AND SWAP6 SWAP1 SWAP5 SWAP2 AND SWAP3 SWAP1 SWAP2 SWAP1 DUP15 SWAP1 PUSH2 0x25AE JUMP JUMPDEST PUSH1 0x40 MLOAD DUP1 SWAP2 SUB SWAP1 LOG2 POP POP PUSH1 0x6 SLOAD SWAP5 SWAP4 POP POP POP POP JUMP JUMPDEST PUSH1 0x0 SLOAD PUSH1 0x1 PUSH1 0x1 PUSH1 0xA0 SHL SUB AND CALLER EQ PUSH2 0x1625 JUMPI PUSH1 0x40 MLOAD PUSH3 0x461BCD PUSH1 0xE5 SHL DUP2 MSTORE PUSH1 0x4 ADD PUSH2 0x7B1 SWAP1 PUSH2 0x2562 JUMP JUMPDEST PUSH1 0x0 DUP2 GT PUSH2 0x1686 JUMPI PUSH1 0x40 MLOAD PUSH3 0x461BCD PUSH1 0xE5 SHL DUP2 MSTORE PUSH1 0x20 PUSH1 0x4 DUP3 ADD MSTORE PUSH1 0x28 PUSH1 0x24 DUP3 ADD MSTORE PUSH32 0x46696E616C697A6174696F6E2074696D65206D75737420626520677265617465 PUSH1 0x44 DUP3 ADD MSTORE PUSH8 0x72207468616E203 PUSH1 0xC4 SHL PUSH1 0x64 DUP3 ADD MSTORE PUSH1 0x84 ADD PUSH2 0x7B1 JUMP JUMPDEST PUSH1 0x0 SWAP2 DUP3 MSTORE PUSH1 0x8 PUSH1 0x20 MSTORE PUSH1 0x40 SWAP1 SWAP2 KECCAK256 SSTORE JUMP JUMPDEST PUSH1 0x0 PUSH2 0x16A3 DUP3 PUSH2 0x1309 JUMP JUMPDEST PUSH2 0x16AC DUP4 PUSH2 0x1AC9 JUMP JUMPDEST PUSH2 0x1327 SWAP2 SWAP1 PUSH2 0x2531 JUMP JUMPDEST PUSH1 0x0 SLOAD PUSH1 0x1 PUSH1 0x1 PUSH1 0xA0 SHL SUB AND CALLER EQ PUSH2 0x16E0 JUMPI PUSH1 0x40 MLOAD PUSH3 0x461BCD PUSH1 0xE5 SHL DUP2 MSTORE PUSH1 0x4 ADD PUSH2 0x7B1 SWAP1 PUSH2 0x2562 JUMP JUMPDEST PUSH1 0x1 PUSH1 0x1 PUSH1 0xA0 SHL SUB DUP3 AND PUSH1 0x0 SWAP1 DUP2 MSTORE PUSH1 0xF PUSH1 0x20 MSTORE PUSH1 0x40 SWAP1 KECCAK256 SLOAD DUP1 PUSH2 0x173D JUMPI PUSH1 0x40 MLOAD PUSH3 0x461BCD PUSH1 0xE5 SHL DUP2 MSTORE PUSH1 0x20 PUSH1 0x4 DUP3 ADD MSTORE PUSH1 0x14 PUSH1 0x24 DUP3 ADD MSTORE PUSH20 0x50726F746F636F6C20666565206973207A65726F PUSH1 0x60 SHL PUSH1 0x44 DUP3 ADD MSTORE PUSH1 0x64 ADD PUSH2 0x7B1 JUMP JUMPDEST PUSH1 0x1 PUSH1 0x1 PUSH1 0xA0 SHL SUB DUP4 AND PUSH1 0x0 DUP2 DUP2 MSTORE PUSH1 0xF PUSH1 0x20 MSTORE PUSH1 0x40 DUP2 KECCAK256 SSTORE DUP4 SWAP1 PUSH2 0x1763 SWAP1 DUP5 DUP5 PUSH2 0x2086 JUMP JUMPDEST POP POP POP POP JUMP JUMPDEST DUP1 PUSH1 0x5 SLOAD DUP2 GT ISZERO DUP1 ISZERO PUSH2 0x177C JUMPI POP PUSH1 0x0 DUP2 GT JUMPDEST PUSH2 0x17BE JUMPI PUSH1 0x40 MLOAD PUSH3 0x461BCD PUSH1 0xE5 SHL DUP2 MSTORE PUSH1 0x20 PUSH1 0x4 DUP3 ADD MSTORE PUSH1 0x13 PUSH1 0x24 DUP3 ADD MSTORE PUSH19 0x1C995C5D595CDD1259081B9BDD081D985B1A59 PUSH1 0x6A SHL PUSH1 0x44 DUP3 ADD MSTORE PUSH1 0x64 ADD PUSH2 0x7B1 JUMP JUMPDEST PUSH1 0x0 DUP3 DUP2 MSTORE PUSH1 0x9 PUSH1 0x20 MSTORE PUSH1 0x40 SWAP1 KECCAK256 PUSH1 0x6 DUP2 ADD SLOAD PUSH1 0x1 PUSH1 0x1 PUSH1 0xA0 SHL SUB AND ISZERO PUSH2 0x1823 JUMPI PUSH1 0x40 MLOAD PUSH3 0x461BCD PUSH1 0xE5 SHL DUP2 MSTORE PUSH1 0x20 PUSH1 0x4 DUP3 ADD MSTORE PUSH1 0x19 PUSH1 0x24 DUP3 ADD MSTORE PUSH25 0x2232B837B9B4BA1030B63932B0B23C903BB4BA34323930BBB7 PUSH1 0x39 SHL PUSH1 0x44 DUP3 ADD MSTORE PUSH1 0x64 ADD PUSH2 0x7B1 JUMP JUMPDEST DUP1 PUSH1 0x9 ADD SLOAD TIMESTAMP LT ISZERO PUSH2 0x1877 JUMPI PUSH1 0x40 MLOAD PUSH3 0x461BCD PUSH1 0xE5 SHL DUP2 MSTORE PUSH1 0x20 PUSH1 0x4 DUP3 ADD MSTORE PUSH1 0x17 PUSH1 0x24 DUP3 ADD MSTORE PUSH32 0x52657175657374206E6F74206578706972656420796574000000000000000000 PUSH1 0x44 DUP3 ADD MSTORE PUSH1 0x64 ADD PUSH2 0x7B1 JUMP JUMPDEST PUSH1 0x8 DUP2 ADD SLOAD PUSH1 0x1 PUSH1 0x1 PUSH1 0xC0 SHL SUB AND ISZERO PUSH2 0x18CA JUMPI PUSH1 0x40 MLOAD PUSH3 0x461BCD PUSH1 0xE5 SHL DUP2 MSTORE PUSH1 0x20 PUSH1 0x4 DUP3 ADD MSTORE PUSH1 0x15 PUSH1 0x24 DUP3 ADD MSTORE PUSH21 0x41637469766520636C61696D732072756E6E696E67 PUSH1 0x58 SHL PUSH1 0x44 DUP3 ADD MSTORE PUSH1 0x64 ADD PUSH2 0x7B1 JUMP JUMPDEST DUP1 SLOAD PUSH1 0x6 DUP3 ADD DUP1 SLOAD PUSH1 0x1 PUSH1 0x1 PUSH1 0xA0 SHL SUB NOT AND PUSH1 0x1 PUSH1 0x1 PUSH1 0xA0 SHL SUB SWAP1 SWAP3 AND SWAP2 DUP3 OR SWAP1 SSTORE PUSH1 0x40 DUP1 MLOAD DUP6 DUP2 MSTORE PUSH1 0x20 DUP2 ADD SWAP3 SWAP1 SWAP3 MSTORE PUSH32 0xA7B86597910AAE75F7D99FEB2F37420CC80D457465FFBA0F8136D722A9F7095A SWAP2 ADD PUSH1 0x40 MLOAD DUP1 SWAP2 SUB SWAP1 LOG1 PUSH1 0x1 DUP2 ADD SLOAD DUP2 SLOAD PUSH1 0xB DUP4 ADD SLOAD PUSH1 0xA DUP5 ADD SLOAD PUSH1 0x5 DUP6 ADD SLOAD PUSH1 0x1 PUSH1 0x1 PUSH1 0xA0 SHL SUB SWAP5 DUP6 AND SWAP5 PUSH2 0x1763 SWAP5 AND SWAP3 SWAP2 PUSH2 0x1958 SWAP2 PUSH2 0x2531 JUMP JUMPDEST PUSH2 0x1962 SWAP2 SWAP1 PUSH2 0x2531 JUMP JUMPDEST PUSH1 0x1 PUSH1 0x1 PUSH1 0xA0 SHL SUB DUP5 AND SWAP2 SWAP1 PUSH2 0x2086 JUMP JUMPDEST PUSH1 0x0 SLOAD PUSH1 0x1 PUSH1 0x1 PUSH1 0xA0 SHL SUB AND CALLER EQ PUSH2 0x199D JUMPI PUSH1 0x40 MLOAD PUSH3 0x461BCD PUSH1 0xE5 SHL DUP2 MSTORE PUSH1 0x4 ADD PUSH2 0x7B1 SWAP1 PUSH2 0x2562 JUMP JUMPDEST PUSH1 0xE SSTORE JUMP JUMPDEST PUSH1 0x0 SLOAD PUSH1 0x1 PUSH1 0x1 PUSH1 0xA0 SHL SUB AND CALLER EQ PUSH2 0x19CC JUMPI PUSH1 0x40 MLOAD PUSH3 0x461BCD PUSH1 0xE5 SHL DUP2 MSTORE PUSH1 0x4 ADD PUSH2 0x7B1 SWAP1 PUSH2 0x2562 JUMP JUMPDEST PUSH1 0x4 SLOAD PUSH1 0xFF AND ISZERO PUSH2 0x1A1F JUMPI PUSH1 0x40 MLOAD PUSH3 0x461BCD PUSH1 0xE5 SHL DUP2 MSTORE PUSH1 0x20 PUSH1 0x4 DUP3 ADD MSTORE PUSH1 0x1B PUSH1 0x24 DUP3 ADD MSTORE PUSH32 0x436F6E747261637420616C726561647920646570726563617465640000000000 PUSH1 0x44 DUP3 ADD MSTORE PUSH1 0x64 ADD PUSH2 0x7B1 JUMP JUMPDEST PUSH1 0x4 DUP1 SLOAD PUSH1 0xFF NOT AND PUSH1 0x1 OR SWAP1 SSTORE JUMP JUMPDEST PUSH1 0x0 SLOAD PUSH1 0x1 PUSH1 0x1 PUSH1 0xA0 SHL SUB AND CALLER EQ PUSH2 0x1A58 JUMPI PUSH1 0x40 MLOAD PUSH3 0x461BCD PUSH1 0xE5 SHL DUP2 MSTORE PUSH1 0x4 ADD PUSH2 0x7B1 SWAP1 PUSH2 0x2562 JUMP JUMPDEST PUSH1 0x1 PUSH1 0x1 PUSH1 0xA0 SHL SUB DUP2 AND PUSH2 0x1ABD JUMPI PUSH1 0x40 MLOAD PUSH3 0x461BCD PUSH1 0xE5 SHL DUP2 MSTORE PUSH1 0x20 PUSH1 0x4 DUP3 ADD MSTORE PUSH1 0x26 PUSH1 0x24 DUP3 ADD MSTORE PUSH32 0x4F776E61626C653A206E6577206F776E657220697320746865207A65726F2061 PUSH1 0x44 DUP3 ADD MSTORE PUSH6 0x646472657373 PUSH1 0xD0 SHL PUSH1 0x64 DUP3 ADD MSTORE PUSH1 0x84 ADD PUSH2 0x7B1 JUMP JUMPDEST PUSH2 0x1AC6 DUP2 PUSH2 0x201D JUMP JUMPDEST POP JUMP JUMPDEST PUSH1 0x0 PUSH2 0x1327 PUSH1 0xB SLOAD PUSH3 0xF4240 PUSH1 0xC SLOAD DUP6 PUSH2 0x1AE3 SWAP2 SWAP1 PUSH2 0x25ED JUMP JUMPDEST PUSH2 0x11F5 SWAP2 SWAP1 PUSH2 0x260C JUMP JUMPDEST PUSH1 0x0 DUP2 DUP2 MSTORE PUSH1 0xA PUSH1 0x20 SWAP1 DUP2 MSTORE PUSH1 0x40 DUP1 DUP4 KECCAK256 DUP1 SLOAD DUP5 MSTORE PUSH1 0x9 SWAP1 SWAP3 MSTORE DUP3 KECCAK256 PUSH1 0x2 DUP3 ADD SLOAD PUSH1 0x5 DUP4 ADD SLOAD DUP5 SWAP4 SWAP3 SWAP2 SWAP1 PUSH2 0x1B22 DUP2 DUP4 PUSH2 0x2531 JUMP JUMPDEST DUP5 PUSH1 0x6 ADD SLOAD LT PUSH2 0x1B74 JUMPI PUSH1 0x40 MLOAD PUSH3 0x461BCD PUSH1 0xE5 SHL DUP2 MSTORE PUSH1 0x20 PUSH1 0x4 DUP3 ADD MSTORE PUSH1 0x17 PUSH1 0x24 DUP3 ADD MSTORE PUSH32 0x436C61696D20616C72656164792077697468647261776E000000000000000000 PUSH1 0x44 DUP3 ADD MSTORE PUSH1 0x64 ADD PUSH2 0x7B1 JUMP JUMPDEST DUP4 SLOAD PUSH1 0x2 DUP5 ADD SLOAD PUSH1 0x3 DUP6 ADD SLOAD PUSH1 0x4 DUP7 ADD SLOAD PUSH1 0x5 DUP8 ADD SLOAD PUSH1 0x0 SWAP5 PUSH2 0x1BAC SWAP5 SWAP1 SWAP4 CHAINID SWAP4 SWAP2 SWAP3 PUSH1 0x1 PUSH1 0x1 PUSH1 0xA0 SHL SUB SWAP2 DUP3 AND SWAP3 SWAP1 SWAP2 AND SWAP1 PUSH2 0x20BB JUMP JUMPDEST DUP6 SLOAD PUSH1 0x2 DUP7 ADD SLOAD PUSH1 0x3 DUP8 ADD SLOAD PUSH1 0x4 DUP9 ADD SLOAD PUSH1 0x5 DUP10 ADD SLOAD PUSH1 0x8 DUP12 ADD SLOAD SWAP6 SWAP7 POP PUSH1 0x0 SWAP6 PUSH2 0x1BEA SWAP6 SWAP5 CHAINID SWAP5 SWAP1 SWAP4 PUSH1 0x1 PUSH1 0x1 PUSH1 0xA0 SHL SUB SWAP2 DUP3 AND SWAP4 SWAP2 AND SWAP2 PUSH2 0x211E JUMP JUMPDEST PUSH1 0x40 DUP1 MLOAD DUP1 DUP3 ADD DUP3 MSTORE PUSH1 0x6 DUP9 ADD SLOAD PUSH1 0x1 PUSH1 0x1 PUSH1 0xA0 SHL SUB SWAP1 DUP2 AND DUP3 MSTORE PUSH1 0x7 DUP1 DUP11 ADD SLOAD PUSH1 0x20 DUP5 ADD MSTORE SLOAD SWAP3 MLOAD PUSH4 0xA64A2271 PUSH1 0xE0 SHL DUP2 MSTORE PUSH1 0x4 DUP2 ADD DUP8 SWAP1 MSTORE SWAP4 SWAP5 POP PUSH1 0x0 SWAP4 SWAP2 SWAP3 DUP5 SWAP3 DUP4 SWAP3 SWAP2 SWAP1 SWAP2 AND SWAP1 PUSH4 0xA64A2271 SWAP1 PUSH1 0x24 ADD PUSH1 0x40 DUP1 MLOAD DUP1 DUP4 SUB DUP2 DUP7 GAS STATICCALL ISZERO DUP1 ISZERO PUSH2 0x1C5A JUMPI RETURNDATASIZE PUSH1 0x0 DUP1 RETURNDATACOPY RETURNDATASIZE PUSH1 0x0 REVERT JUMPDEST POP POP POP POP PUSH1 0x40 MLOAD RETURNDATASIZE PUSH1 0x1F NOT PUSH1 0x1F DUP3 ADD AND DUP3 ADD DUP1 PUSH1 0x40 MSTORE POP DUP2 ADD SWAP1 PUSH2 0x1C7E SWAP2 SWAP1 PUSH2 0x2659 JUMP JUMPDEST SWAP1 SWAP3 POP SWAP1 POP PUSH1 0x1 PUSH1 0x1 PUSH1 0xA0 SHL SUB DUP3 AND PUSH2 0x1C9B JUMPI POP POP DUP1 MLOAD PUSH1 0x20 DUP3 ADD MLOAD JUMPDEST PUSH1 0x7 SLOAD PUSH1 0x40 MLOAD PUSH4 0xA751732F PUSH1 0xE0 SHL DUP2 MSTORE PUSH1 0x4 DUP2 ADD DUP8 SWAP1 MSTORE PUSH1 0x1 PUSH1 0x1 PUSH1 0xA0 SHL SUB SWAP1 SWAP2 AND SWAP1 PUSH4 0xA751732F SWAP1 PUSH1 0x24 ADD PUSH1 0x20 PUSH1 0x40 MLOAD DUP1 DUP4 SUB DUP2 DUP7 GAS STATICCALL ISZERO DUP1 ISZERO PUSH2 0x1CE4 JUMPI RETURNDATASIZE PUSH1 0x0 DUP1 RETURNDATACOPY RETURNDATASIZE PUSH1 0x0 REVERT JUMPDEST POP POP POP POP PUSH1 0x40 MLOAD RETURNDATASIZE PUSH1 0x1F NOT PUSH1 0x1F DUP3 ADD AND DUP3 ADD DUP1 PUSH1 0x40 MSTORE POP DUP2 ADD SWAP1 PUSH2 0x1D08 SWAP2 SWAP1 PUSH2 0x2687 JUMP JUMPDEST ISZERO PUSH2 0x1D16 JUMPI PUSH1 0x0 SWAP4 POP PUSH2 0x1DA8 JUMP JUMPDEST PUSH1 0x1 PUSH1 0x1 PUSH1 0xA0 SHL SUB DUP3 AND ISZERO PUSH2 0x1D4E JUMPI PUSH1 0x1 DUP11 ADD SLOAD PUSH1 0x1 PUSH1 0x1 PUSH1 0xA0 SHL SUB DUP4 DUP2 AND SWAP2 AND EQ DUP1 ISZERO PUSH2 0x1D47 JUMPI POP DUP10 PUSH1 0x8 ADD SLOAD DUP2 EQ JUMPDEST SWAP4 POP PUSH2 0x1DA8 JUMP JUMPDEST DUP10 PUSH1 0x7 ADD SLOAD TIMESTAMP LT ISZERO PUSH2 0x1DA2 JUMPI PUSH1 0x40 MLOAD PUSH3 0x461BCD PUSH1 0xE5 SHL DUP2 MSTORE PUSH1 0x20 PUSH1 0x4 DUP3 ADD MSTORE PUSH1 0x19 PUSH1 0x24 DUP3 ADD MSTORE PUSH32 0x436C61696D20706572696F64206E6F742066696E697368656400000000000000 PUSH1 0x44 DUP3 ADD MSTORE PUSH1 0x64 ADD PUSH2 0x7B1 JUMP JUMPDEST DUP7 DUP9 GT SWAP4 POP JUMPDEST PUSH1 0x0 DUP1 DUP6 ISZERO PUSH2 0x1DD3 JUMPI PUSH2 0x1DBB DUP10 DUP12 PUSH2 0x2531 JUMP JUMPDEST PUSH1 0x1 DUP14 ADD SLOAD SWAP1 SWAP3 POP PUSH1 0x1 PUSH1 0x1 PUSH1 0xA0 SHL SUB AND SWAP1 POP PUSH2 0x1E6C JUMP JUMPDEST DUP9 ISZERO PUSH2 0x1E5B JUMPI CALLER PUSH1 0x0 SWAP1 DUP2 MSTORE PUSH1 0x3 DUP14 ADD PUSH1 0x20 MSTORE PUSH1 0x40 SWAP1 KECCAK256 SLOAD PUSH2 0x1DF6 SWAP1 PUSH1 0x2 PUSH2 0x25ED JUMP JUMPDEST SWAP2 POP CALLER SWAP1 POP PUSH1 0x0 DUP3 GT PUSH2 0x1E56 JUMPI PUSH1 0x40 MLOAD PUSH3 0x461BCD PUSH1 0xE5 SHL DUP2 MSTORE PUSH1 0x20 PUSH1 0x4 DUP3 ADD MSTORE PUSH1 0x22 PUSH1 0x24 DUP3 ADD MSTORE PUSH32 0x4368616C6C656E67657220686173206E6F7468696E6720746F20776974686472 PUSH1 0x44 DUP3 ADD MSTORE PUSH2 0x6177 PUSH1 0xF0 SHL PUSH1 0x64 DUP3 ADD MSTORE PUSH1 0x84 ADD PUSH2 0x7B1 JUMP JUMPDEST PUSH2 0x1E6C JUMP JUMPDEST POP POP PUSH1 0x0 SLOAD DUP9 SWAP1 PUSH1 0x1 PUSH1 0x1 PUSH1 0xA0 SHL SUB AND JUMPDEST PUSH1 0x4 DUP13 ADD SLOAD PUSH1 0x1 PUSH1 0x1 PUSH1 0xA0 SHL SUB AND CALLER SUB PUSH2 0x1EBA JUMPI DUP9 DUP11 GT ISZERO PUSH2 0x1EA3 JUMPI PUSH2 0x1E92 DUP10 DUP12 PUSH2 0x2597 JUMP JUMPDEST PUSH2 0x1E9C SWAP1 DUP4 PUSH2 0x2531 JUMP JUMPDEST SWAP2 POP PUSH2 0x1EBA JUMP JUMPDEST PUSH2 0x1EAD DUP11 DUP11 PUSH2 0x2597 JUMP JUMPDEST PUSH2 0x1EB7 SWAP1 DUP4 PUSH2 0x2597 JUMP JUMPDEST SWAP2 POP JUMPDEST SWAP15 SWAP1 SWAP14 POP SWAP12 POP POP POP POP POP POP POP POP POP POP POP POP JUMP JUMPDEST PUSH1 0x1 DUP2 ADD SLOAD DUP2 SLOAD PUSH1 0x40 DUP1 MLOAD SWAP2 DUP3 MSTORE PUSH1 0x1 PUSH1 0x1 PUSH1 0xA0 SHL SUB SWAP1 SWAP3 AND PUSH1 0x20 DUP3 ADD DUP2 SWAP1 MSTORE SWAP2 PUSH32 0xA7B86597910AAE75F7D99FEB2F37420CC80D457465FFBA0F8136D722A9F7095A SWAP2 ADD PUSH1 0x40 MLOAD DUP1 SWAP2 SUB SWAP1 LOG1 PUSH1 0x40 DUP1 MLOAD DUP1 DUP3 ADD DUP3 MSTORE PUSH1 0x1 PUSH1 0x1 PUSH1 0xA0 SHL SUB DUP1 DUP5 AND DUP1 DUP4 MSTORE PUSH1 0x8 DUP7 ADD SLOAD PUSH1 0x20 SWAP4 DUP5 ADD DUP2 SWAP1 MSTORE PUSH1 0x6 DUP9 ADD DUP1 SLOAD PUSH1 0x1 PUSH1 0x1 PUSH1 0xA0 SHL SUB NOT AND SWAP1 SWAP3 OR SWAP1 SWAP2 SSTORE PUSH1 0x7 DUP8 ADD SSTORE PUSH1 0xB DUP7 ADD SLOAD PUSH1 0x1 DUP8 ADD SLOAD SWAP1 SWAP2 AND PUSH1 0x0 SWAP1 DUP2 MSTORE PUSH1 0xF SWAP1 SWAP3 MSTORE SWAP2 DUP2 KECCAK256 DUP1 SLOAD SWAP1 SWAP2 SWAP1 PUSH2 0x1F82 SWAP1 DUP5 SWAP1 PUSH2 0x2531 JUMP JUMPDEST SWAP1 SWAP2 SSTORE POP POP PUSH1 0x1 DUP4 ADD SLOAD PUSH1 0xA DUP5 ADD SLOAD PUSH1 0x5 DUP6 ADD SLOAD PUSH1 0x1 PUSH1 0x1 PUSH1 0xA0 SHL SUB SWAP1 SWAP3 AND SWAP2 PUSH2 0x1763 SWAP2 DUP5 SWAP2 PUSH2 0x1962 SWAP2 SWAP1 PUSH2 0x2531 JUMP JUMPDEST PUSH1 0x40 MLOAD PUSH1 0x1 PUSH1 0x1 PUSH1 0xA0 SHL SUB DUP1 DUP6 AND PUSH1 0x24 DUP4 ADD MSTORE DUP4 AND PUSH1 0x44 DUP3 ADD MSTORE PUSH1 0x64 DUP2 ADD DUP3 SWAP1 MSTORE PUSH2 0x1763 SWAP1 DUP6 SWAP1 PUSH4 0x23B872DD PUSH1 0xE0 SHL SWAP1 PUSH1 0x84 ADD JUMPDEST PUSH1 0x40 DUP1 MLOAD PUSH1 0x1F NOT DUP2 DUP5 SUB ADD DUP2 MSTORE SWAP2 SWAP1 MSTORE PUSH1 0x20 DUP2 ADD DUP1 MLOAD PUSH1 0x1 PUSH1 0x1 PUSH1 0xE0 SHL SUB AND PUSH1 0x1 PUSH1 0x1 PUSH1 0xE0 SHL SUB NOT SWAP1 SWAP4 AND SWAP3 SWAP1 SWAP3 OR SWAP1 SWAP2 MSTORE PUSH2 0x2169 JUMP JUMPDEST PUSH1 0x0 DUP1 SLOAD PUSH1 0x1 PUSH1 0x1 PUSH1 0xA0 SHL SUB DUP4 DUP2 AND PUSH1 0x1 PUSH1 0x1 PUSH1 0xA0 SHL SUB NOT DUP4 AND DUP2 OR DUP5 SSTORE PUSH1 0x40 MLOAD SWAP2 SWAP1 SWAP3 AND SWAP3 DUP4 SWAP2 PUSH32 0x8BE0079C531659141344CD1FD0A4F28419497F9722A3DAAFE3B4186F6B6457E0 SWAP2 SWAP1 LOG3 POP POP JUMP JUMPDEST PUSH1 0x0 DUP2 DUP4 LT ISZERO PUSH2 0x207D JUMPI DUP2 PUSH2 0x207F JUMP JUMPDEST DUP3 JUMPDEST SWAP4 SWAP3 POP POP POP JUMP JUMPDEST PUSH1 0x40 MLOAD PUSH1 0x1 PUSH1 0x1 PUSH1 0xA0 SHL SUB DUP4 AND PUSH1 0x24 DUP3 ADD MSTORE PUSH1 0x44 DUP2 ADD DUP3 SWAP1 MSTORE PUSH2 0x20B6 SWAP1 DUP5 SWAP1 PUSH4 0xA9059CBB PUSH1 0xE0 SHL SWAP1 PUSH1 0x64 ADD PUSH2 0x1FE6 JUMP JUMPDEST POP POP POP JUMP JUMPDEST PUSH1 0x40 DUP1 MLOAD PUSH1 0x20 DUP1 DUP3 ADD SWAP9 SWAP1 SWAP9 MSTORE DUP1 DUP3 ADD SWAP7 SWAP1 SWAP7 MSTORE PUSH1 0x60 DUP1 DUP8 ADD SWAP6 SWAP1 SWAP6 MSTORE SWAP3 DUP5 SHL PUSH12 0xFFFFFFFFFFFFFFFFFFFFFFFF NOT SWAP1 DUP2 AND PUSH1 0x80 DUP8 ADD MSTORE SWAP2 SWAP1 SWAP4 SHL AND PUSH1 0x94 DUP5 ADD MSTORE PUSH1 0xA8 DUP1 DUP5 ADD SWAP3 SWAP1 SWAP3 MSTORE DUP1 MLOAD DUP1 DUP5 SUB SWAP1 SWAP3 ADD DUP3 MSTORE PUSH1 0xC8 SWAP1 SWAP3 ADD SWAP1 SWAP2 MSTORE DUP1 MLOAD SWAP2 ADD KECCAK256 SWAP1 JUMP JUMPDEST PUSH1 0x0 PUSH2 0x215D PUSH2 0x2131 DUP10 DUP10 DUP10 DUP10 DUP10 DUP10 PUSH2 0x20BB JUMP JUMPDEST PUSH1 0x40 DUP1 MLOAD PUSH1 0x20 DUP1 DUP3 ADD SWAP4 SWAP1 SWAP4 MSTORE DUP1 DUP3 ADD DUP7 SWAP1 MSTORE DUP2 MLOAD DUP1 DUP3 SUB DUP4 ADD DUP2 MSTORE PUSH1 0x60 SWAP1 SWAP2 ADD SWAP1 SWAP2 MSTORE DUP1 MLOAD SWAP2 ADD KECCAK256 SWAP1 JUMP JUMPDEST SWAP9 SWAP8 POP POP POP POP POP POP POP POP JUMP JUMPDEST PUSH1 0x0 PUSH2 0x21BE DUP3 PUSH1 0x40 MLOAD DUP1 PUSH1 0x40 ADD PUSH1 0x40 MSTORE DUP1 PUSH1 0x20 DUP2 MSTORE PUSH1 0x20 ADD PUSH32 0x5361666545524332303A206C6F772D6C6576656C2063616C6C206661696C6564 DUP2 MSTORE POP DUP6 PUSH1 0x1 PUSH1 0x1 PUSH1 0xA0 SHL SUB AND PUSH2 0x223B SWAP1 SWAP3 SWAP2 SWAP1 PUSH4 0xFFFFFFFF AND JUMP JUMPDEST DUP1 MLOAD SWAP1 SWAP2 POP ISZERO PUSH2 0x20B6 JUMPI DUP1 DUP1 PUSH1 0x20 ADD SWAP1 MLOAD DUP2 ADD SWAP1 PUSH2 0x21DC SWAP2 SWAP1 PUSH2 0x2687 JUMP JUMPDEST PUSH2 0x20B6 JUMPI PUSH1 0x40 MLOAD PUSH3 0x461BCD PUSH1 0xE5 SHL DUP2 MSTORE PUSH1 0x20 PUSH1 0x4 DUP3 ADD MSTORE PUSH1 0x2A PUSH1 0x24 DUP3 ADD MSTORE PUSH32 0x5361666545524332303A204552433230206F7065726174696F6E20646964206E PUSH1 0x44 DUP3 ADD MSTORE PUSH10 0x1BDD081CDD58D8D95959 PUSH1 0xB2 SHL PUSH1 0x64 DUP3 ADD MSTORE PUSH1 0x84 ADD PUSH2 0x7B1 JUMP JUMPDEST PUSH1 0x60 PUSH2 0x224A DUP5 DUP5 PUSH1 0x0 DUP6 PUSH2 0x2252 JUMP JUMPDEST SWAP5 SWAP4 POP POP POP POP JUMP JUMPDEST PUSH1 0x60 DUP3 SELFBALANCE LT ISZERO PUSH2 0x22B3 JUMPI PUSH1 0x40 MLOAD PUSH3 0x461BCD PUSH1 0xE5 SHL DUP2 MSTORE PUSH1 0x20 PUSH1 0x4 DUP3 ADD MSTORE PUSH1 0x26 PUSH1 0x24 DUP3 ADD MSTORE PUSH32 0x416464726573733A20696E73756666696369656E742062616C616E636520666F PUSH1 0x44 DUP3 ADD MSTORE PUSH6 0x1C8818D85B1B PUSH1 0xD2 SHL PUSH1 0x64 DUP3 ADD MSTORE PUSH1 0x84 ADD PUSH2 0x7B1 JUMP JUMPDEST PUSH1 0x1 PUSH1 0x1 PUSH1 0xA0 SHL SUB DUP6 AND EXTCODESIZE PUSH2 0x230A JUMPI PUSH1 0x40 MLOAD PUSH3 0x461BCD PUSH1 0xE5 SHL DUP2 MSTORE PUSH1 0x20 PUSH1 0x4 DUP3 ADD MSTORE PUSH1 0x1D PUSH1 0x24 DUP3 ADD MSTORE PUSH32 0x416464726573733A2063616C6C20746F206E6F6E2D636F6E7472616374000000 PUSH1 0x44 DUP3 ADD MSTORE PUSH1 0x64 ADD PUSH2 0x7B1 JUMP JUMPDEST PUSH1 0x0 DUP1 DUP7 PUSH1 0x1 PUSH1 0x1 PUSH1 0xA0 SHL SUB AND DUP6 DUP8 PUSH1 0x40 MLOAD PUSH2 0x2326 SWAP2 SWAP1 PUSH2 0x26D5 JUMP JUMPDEST PUSH1 0x0 PUSH1 0x40 MLOAD DUP1 DUP4 SUB DUP2 DUP6 DUP8 GAS CALL SWAP3 POP POP POP RETURNDATASIZE DUP1 PUSH1 0x0 DUP2 EQ PUSH2 0x2363 JUMPI PUSH1 0x40 MLOAD SWAP2 POP PUSH1 0x1F NOT PUSH1 0x3F RETURNDATASIZE ADD AND DUP3 ADD PUSH1 0x40 MSTORE RETURNDATASIZE DUP3 MSTORE RETURNDATASIZE PUSH1 0x0 PUSH1 0x20 DUP5 ADD RETURNDATACOPY PUSH2 0x2368 JUMP JUMPDEST PUSH1 0x60 SWAP2 POP JUMPDEST POP SWAP2 POP SWAP2 POP PUSH2 0x2378 DUP3 DUP3 DUP7 PUSH2 0x2383 JUMP JUMPDEST SWAP8 SWAP7 POP POP POP POP POP POP POP JUMP JUMPDEST PUSH1 0x60 DUP4 ISZERO PUSH2 0x2392 JUMPI POP DUP2 PUSH2 0x207F JUMP JUMPDEST DUP3 MLOAD ISZERO PUSH2 0x23A2 JUMPI DUP3 MLOAD DUP1 DUP5 PUSH1 0x20 ADD REVERT JUMPDEST DUP2 PUSH1 0x40 MLOAD PUSH3 0x461BCD PUSH1 0xE5 SHL DUP2 MSTORE PUSH1 0x4 ADD PUSH2 0x7B1 SWAP2 SWAP1 PUSH2 0x26F1 JUMP JUMPDEST PUSH1 0x0 PUSH1 0x20 DUP3 DUP5 SUB SLT ISZERO PUSH2 0x23CE JUMPI PUSH1 0x0 DUP1 REVERT JUMPDEST POP CALLDATALOAD SWAP2 SWAP1 POP JUMP JUMPDEST PUSH1 0x1 PUSH1 0x1 PUSH1 0xA0 SHL SUB DUP2 AND DUP2 EQ PUSH2 0x1AC6 JUMPI PUSH1 0x0 DUP1 REVERT JUMPDEST PUSH1 0x0 DUP1 PUSH1 0x0 DUP1 PUSH1 0x0 DUP1 PUSH1 0xC0 DUP8 DUP10 SUB SLT ISZERO PUSH2 0x2403 JUMPI PUSH1 0x0 DUP1 REVERT JUMPDEST DUP7 CALLDATALOAD SWAP6 POP PUSH1 0x20 DUP8 ADD CALLDATALOAD PUSH2 0x2415 DUP2 PUSH2 0x23D5 JUMP JUMPDEST SWAP5 POP PUSH1 0x40 DUP8 ADD CALLDATALOAD PUSH2 0x2425 DUP2 PUSH2 0x23D5 JUMP JUMPDEST SWAP4 POP PUSH1 0x60 DUP8 ADD CALLDATALOAD PUSH2 0x2435 DUP2 PUSH2 0x23D5 JUMP JUMPDEST SWAP6 SWAP9 SWAP5 SWAP8 POP SWAP3 SWAP6 PUSH1 0x80 DUP2 ADD CALLDATALOAD SWAP5 PUSH1 0xA0 SWAP1 SWAP2 ADD CALLDATALOAD SWAP4 POP SWAP2 POP POP JUMP JUMPDEST PUSH1 0x0 PUSH1 0x20 DUP3 DUP5 SUB SLT ISZERO PUSH2 0x2461 JUMPI PUSH1 0x0 DUP1 REVERT JUMPDEST DUP2 CALLDATALOAD PUSH2 0x207F DUP2 PUSH2 0x23D5 JUMP JUMPDEST PUSH1 0x0 DUP1 PUSH1 0x0 PUSH1 0x60 DUP5 DUP7 SUB SLT ISZERO PUSH2 0x2481 JUMPI PUSH1 0x0 DUP1 REVERT JUMPDEST POP POP DUP2 CALLDATALOAD SWAP4 PUSH1 0x20 DUP4 ADD CALLDATALOAD SWAP4 POP PUSH1 0x40 SWAP1 SWAP3 ADD CALLDATALOAD SWAP2 SWAP1 POP JUMP JUMPDEST PUSH1 0x0 DUP1 PUSH1 0x40 DUP4 DUP6 SUB SLT ISZERO PUSH2 0x24AB JUMPI PUSH1 0x0 DUP1 REVERT JUMPDEST POP POP DUP1 CALLDATALOAD SWAP3 PUSH1 0x20 SWAP1 SWAP2 ADD CALLDATALOAD SWAP2 POP JUMP JUMPDEST PUSH1 0x0 DUP1 PUSH1 0x40 DUP4 DUP6 SUB SLT ISZERO PUSH2 0x24CD JUMPI PUSH1 0x0 DUP1 REVERT JUMPDEST DUP3 CALLDATALOAD PUSH2 0x24D8 DUP2 PUSH2 0x23D5 JUMP JUMPDEST SWAP2 POP PUSH1 0x20 DUP4 ADD CALLDATALOAD PUSH2 0x24E8 DUP2 PUSH2 0x23D5 JUMP JUMPDEST DUP1 SWAP2 POP POP SWAP3 POP SWAP3 SWAP1 POP JUMP JUMPDEST PUSH4 0x4E487B71 PUSH1 0xE0 SHL PUSH1 0x0 MSTORE PUSH1 0x11 PUSH1 0x4 MSTORE PUSH1 0x24 PUSH1 0x0 REVERT JUMPDEST PUSH1 0x0 PUSH1 0x1 PUSH1 0x1 PUSH1 0xC0 SHL SUB DUP4 DUP2 AND SWAP1 DUP4 AND DUP2 DUP2 LT ISZERO PUSH2 0x2529 JUMPI PUSH2 0x2529 PUSH2 0x24F3 JUMP JUMPDEST SUB SWAP4 SWAP3 POP POP POP JUMP JUMPDEST PUSH1 0x0 DUP3 NOT DUP3 GT ISZERO PUSH2 0x2544 JUMPI PUSH2 0x2544 PUSH2 0x24F3 JUMP JUMPDEST POP ADD SWAP1 JUMP JUMPDEST PUSH1 0x0 PUSH1 0x20 DUP3 DUP5 SUB SLT ISZERO PUSH2 0x255B JUMPI PUSH1 0x0 DUP1 REVERT JUMPDEST POP MLOAD SWAP2 SWAP1 POP JUMP JUMPDEST PUSH1 0x20 DUP1 DUP3 MSTORE DUP2 DUP2 ADD MSTORE PUSH32 0x4F776E61626C653A2063616C6C6572206973206E6F7420746865206F776E6572 PUSH1 0x40 DUP3 ADD MSTORE PUSH1 0x60 ADD SWAP1 JUMP JUMPDEST PUSH1 0x0 DUP3 DUP3 LT ISZERO PUSH2 0x25A9 JUMPI PUSH2 0x25A9 PUSH2 0x24F3 JUMP JUMPDEST POP SUB SWAP1 JUMP JUMPDEST SWAP7 DUP8 MSTORE PUSH1 0x1 PUSH1 0x1 PUSH1 0xA0 SHL SUB SWAP6 DUP7 AND PUSH1 0x20 DUP9 ADD MSTORE PUSH1 0x40 DUP8 ADD SWAP5 SWAP1 SWAP5 MSTORE SWAP2 SWAP1 SWAP4 AND PUSH1 0x60 DUP6 ADD MSTORE PUSH1 0x80 DUP5 ADD SWAP3 SWAP1 SWAP3 MSTORE PUSH1 0xA0 DUP4 ADD SWAP2 SWAP1 SWAP2 MSTORE PUSH1 0xC0 DUP3 ADD MSTORE PUSH1 0xE0 ADD SWAP1 JUMP JUMPDEST PUSH1 0x0 DUP2 PUSH1 0x0 NOT DIV DUP4 GT DUP3 ISZERO ISZERO AND ISZERO PUSH2 0x2607 JUMPI PUSH2 0x2607 PUSH2 0x24F3 JUMP JUMPDEST POP MUL SWAP1 JUMP JUMPDEST PUSH1 0x0 DUP3 PUSH2 0x2629 JUMPI PUSH4 0x4E487B71 PUSH1 0xE0 SHL PUSH1 0x0 MSTORE PUSH1 0x12 PUSH1 0x4 MSTORE PUSH1 0x24 PUSH1 0x0 REVERT JUMPDEST POP DIV SWAP1 JUMP JUMPDEST PUSH1 0x0 PUSH1 0x1 PUSH1 0x1 PUSH1 0xC0 SHL SUB DUP3 DUP2 AND DUP5 DUP3 AND DUP1 DUP4 SUB DUP3 GT ISZERO PUSH2 0x2650 JUMPI PUSH2 0x2650 PUSH2 0x24F3 JUMP JUMPDEST ADD SWAP5 SWAP4 POP POP POP POP JUMP JUMPDEST PUSH1 0x0 DUP1 PUSH1 0x40 DUP4 DUP6 SUB SLT ISZERO PUSH2 0x266C JUMPI PUSH1 0x0 DUP1 REVERT JUMPDEST DUP3 MLOAD PUSH2 0x2677 DUP2 PUSH2 0x23D5 JUMP JUMPDEST PUSH1 0x20 SWAP4 SWAP1 SWAP4 ADD MLOAD SWAP3 SWAP5 SWAP3 SWAP4 POP POP POP JUMP JUMPDEST PUSH1 0x0 PUSH1 0x20 DUP3 DUP5 SUB SLT ISZERO PUSH2 0x2699 JUMPI PUSH1 0x0 DUP1 REVERT JUMPDEST DUP2 MLOAD DUP1 ISZERO ISZERO DUP2 EQ PUSH2 0x207F JUMPI PUSH1 0x0 DUP1 REVERT JUMPDEST PUSH1 0x0 JUMPDEST DUP4 DUP2 LT ISZERO PUSH2 0x26C4 JUMPI DUP2 DUP2 ADD MLOAD DUP4 DUP3 ADD MSTORE PUSH1 0x20 ADD PUSH2 0x26AC JUMP JUMPDEST DUP4 DUP2 GT ISZERO PUSH2 0x1763 JUMPI POP POP PUSH1 0x0 SWAP2 ADD MSTORE JUMP JUMPDEST PUSH1 0x0 DUP3 MLOAD PUSH2 0x26E7 DUP2 DUP5 PUSH1 0x20 DUP8 ADD PUSH2 0x26A9 JUMP JUMPDEST SWAP2 SWAP1 SWAP2 ADD SWAP3 SWAP2 POP POP JUMP JUMPDEST PUSH1 0x20 DUP2 MSTORE PUSH1 0x0 DUP3 MLOAD DUP1 PUSH1 0x20 DUP5 ADD MSTORE PUSH2 0x2710 DUP2 PUSH1 0x40 DUP6 ADD PUSH1 0x20 DUP8 ADD PUSH2 0x26A9 JUMP JUMPDEST PUSH1 0x1F ADD PUSH1 0x1F NOT AND SWAP2 SWAP1 SWAP2 ADD PUSH1 0x40 ADD SWAP3 SWAP2 POP POP JUMP INVALID LOG2 PUSH5 0x6970667358 0x22 SLT KECCAK256 0xE3 NOT PUSH11 0x9680B7657E6B28BCE9581 ISZERO CALL 0xDB SWAP15 0xC9 AND DUP5 0x1F PUSH7 0xA17785F1BA0749 SWAP3 0xE9 PUSH5 0x736F6C6343 STOP ADDMOD 0xD STOP CALLER ",
  "sha1": "d811a84531dfeb0d86c64860bc77e4594ee743b2",
  "source": "// SPDX-License-Identifier: MIT\npragma solidity ^0.8.12;\n\nimport \"OpenZeppelin/openzeppelin-contracts@4.5.0/contracts/token/ERC20/IERC20.sol\";\nimport \"OpenZeppelin/openzeppelin-contracts@4.5.0/contracts/token/ERC20/utils/SafeERC20.sol\";\nimport \"OpenZeppelin/openzeppelin-contracts@4.5.0/contracts/utils/math/Math.sol\";\nimport \"OpenZeppelin/openzeppelin-contracts@4.5.0/contracts/access/Ownable.sol\";\n\nimport \"./BeamerUtils.sol\";\nimport \"./ResolutionRegistry.sol\";\n\ncontract RequestManager is Ownable {\n    using Math for uint256;\n    using SafeERC20 for IERC20;\n\n    // Structs\n    // TODO: check if we can use a smaller type for `targetChainId`, so that the\n    // fields can be packed into one storage slot\n    struct Request {\n        address sender;\n        address sourceTokenAddress;\n        uint256 targetChainId;\n        address targetTokenAddress;\n        address targetAddress;\n        uint256 amount;\n        BeamerUtils.FillInfo withdrawInfo;\n        uint192 activeClaims;\n        uint256 validUntil;\n        uint256 lpFee;\n        uint256 protocolFee;\n    }\n\n    struct Claim {\n        uint256 requestId;\n        address claimer;\n        uint256 claimerStake;\n        mapping(address => uint256) challengersStakes;\n        address lastChallenger;\n        uint256 challengerStakeTotal;\n        uint256 withdrawnAmount;\n        uint256 termination;\n        bytes32 fillId;\n    }\n\n    // Events\n    event RequestCreated(\n        uint256 requestId,\n        uint256 targetChainId,\n        address sourceTokenAddress,\n        address targetTokenAddress,\n        address targetAddress,\n        uint256 amount,\n        uint256 validUntil\n    );\n\n    event DepositWithdrawn(uint256 requestId, address receiver);\n\n    event ClaimMade(\n        uint256 indexed requestId,\n        uint256 claimId,\n        address claimer,\n        uint256 claimerStake,\n        address lastChallenger,\n        uint256 challengerStakeTotal,\n        uint256 termination,\n        bytes32 fillId\n    );\n\n    event ClaimWithdrawn(\n        uint256 claimId,\n        uint256 indexed requestId,\n        address claimReceiver\n    );\n\n    // Constants\n    uint256 public claimStake;\n    uint256 public claimPeriod;\n    uint256 public challengePeriodExtension;\n\n    uint256 public constant MIN_VALIDITY_PERIOD = 5 minutes;\n    uint256 public constant MAX_VALIDITY_PERIOD = 52 weeks;\n\n    // Variables\n    bool public deprecated;\n    uint256 public requestCounter;\n    uint256 public claimCounter;\n    ResolutionRegistry public resolutionRegistry;\n\n    mapping(uint256 => uint256) public finalizationTimes; // target rollup chain id => finalization time\n\n    mapping(uint256 => Request) public requests;\n    mapping(uint256 => Claim) public claims;\n\n    uint256 public minLpFee = 5 ether; // 5e18\n    uint256 public lpFeePPM = 1_000; // 0.1% of the token amount being transferred\n    uint256 public protocolFeePPM = 0; // 0% of the token amount being transferred\n\n    uint256 public transferLimit = 10000 ether; // 10000e18\n\n    // Protocol fee tracking: ERC20 token address => amount\n    mapping(address => uint256) public collectedProtocolFees;\n\n    function lpFee(uint256 amount) public view returns (uint256) {\n        return Math.max(minLpFee, (amount * lpFeePPM) / 1_000_000);\n    }\n\n    function protocolFee(uint256 amount) public view returns (uint256) {\n        return (amount * protocolFeePPM) / 1_000_000;\n    }\n\n    function totalFee(uint256 amount) public view returns (uint256) {\n        return lpFee(amount) + protocolFee(amount);\n    }\n\n    // Modifiers\n    modifier validRequestId(uint256 requestId) {\n        require(\n            requestId <= requestCounter && requestId > 0,\n            \"requestId not valid\"\n        );\n        _;\n    }\n\n    modifier validClaimId(uint256 claimId) {\n        require(claimId <= claimCounter && claimId > 0, \"claimId not valid\");\n        _;\n    }\n\n    constructor(\n        uint256 _claimStake,\n        uint256 _claimPeriod,\n        uint256 _challengePeriodExtension,\n        address _resolutionRegistry\n    ) {\n        claimStake = _claimStake;\n        claimPeriod = _claimPeriod;\n        challengePeriodExtension = _challengePeriodExtension;\n        resolutionRegistry = ResolutionRegistry(_resolutionRegistry);\n    }\n\n    function createRequest(\n        uint256 targetChainId,\n        address sourceTokenAddress,\n        address targetTokenAddress,\n        address targetAddress,\n        uint256 amount,\n        uint256 validityPeriod\n    ) external returns (uint256) {\n        require(deprecated == false, \"Contract is deprecated\");\n        require(\n            finalizationTimes[targetChainId] != 0,\n            \"Target rollup not supported\"\n        );\n        require(\n            validityPeriod >= MIN_VALIDITY_PERIOD,\n            \"Validity period too short\"\n        );\n        require(\n            validityPeriod <= MAX_VALIDITY_PERIOD,\n            \"Validity period too long\"\n        );\n        require(amount <= transferLimit, \"Amount exceeds transfer limit\");\n\n        IERC20 token = IERC20(sourceTokenAddress);\n\n        uint256 lpFee = lpFee(amount);\n        uint256 protocolFee = protocolFee(amount);\n        uint256 totalTokenAmount = amount + lpFee + protocolFee;\n\n        require(\n            token.allowance(msg.sender, address(this)) >= totalTokenAmount,\n            \"Insufficient allowance\"\n        );\n\n        requestCounter += 1;\n        Request storage newRequest = requests[requestCounter];\n        newRequest.sender = msg.sender;\n        newRequest.sourceTokenAddress = sourceTokenAddress;\n        newRequest.targetChainId = targetChainId;\n        newRequest.targetTokenAddress = targetTokenAddress;\n        newRequest.targetAddress = targetAddress;\n        newRequest.amount = amount;\n        newRequest.withdrawInfo = BeamerUtils.FillInfo(address(0), bytes32(0));\n        newRequest.validUntil = block.timestamp + validityPeriod;\n        newRequest.lpFee = lpFee;\n        newRequest.protocolFee = protocolFee;\n\n        emit RequestCreated(\n            requestCounter,\n            targetChainId,\n            sourceTokenAddress,\n            targetTokenAddress,\n            targetAddress,\n            amount,\n            newRequest.validUntil\n        );\n\n        token.safeTransferFrom(msg.sender, address(this), totalTokenAmount);\n\n        return requestCounter;\n    }\n\n    function withdrawExpiredRequest(uint256 requestId)\n        external\n        validRequestId(requestId)\n    {\n        Request storage request = requests[requestId];\n\n        require(\n            request.withdrawInfo.filler == address(0),\n            \"Deposit already withdrawn\"\n        );\n        require(\n            block.timestamp >= request.validUntil,\n            \"Request not expired yet\"\n        );\n        require(request.activeClaims == 0, \"Active claims running\");\n\n        request.withdrawInfo.filler = request.sender;\n\n        emit DepositWithdrawn(requestId, request.sender);\n\n        IERC20 token = IERC20(request.sourceTokenAddress);\n        token.safeTransfer(\n            request.sender,\n            request.amount + request.lpFee + request.protocolFee\n        );\n    }\n\n    function claimRequest(uint256 requestId, bytes32 fillId)\n        external\n        payable\n        validRequestId(requestId)\n        returns (uint256)\n    {\n        Request storage request = requests[requestId];\n\n        require(block.timestamp < request.validUntil, \"Request expired\");\n        require(\n            request.withdrawInfo.filler == address(0),\n            \"Deposit already withdrawn\"\n        );\n        require(msg.value == claimStake, \"Invalid stake amount\");\n        require(fillId != bytes32(0), \"FillId must not be 0x0\");\n\n        request.activeClaims += 1;\n        claimCounter += 1;\n\n        Claim storage claim = claims[claimCounter];\n        claim.requestId = requestId;\n        claim.claimer = msg.sender;\n        claim.claimerStake = claimStake;\n        claim.lastChallenger = address(0);\n        claim.challengerStakeTotal = 0;\n        claim.withdrawnAmount = 0;\n        claim.termination = block.timestamp + claimPeriod;\n        claim.fillId = fillId;\n\n        emit ClaimMade(\n            requestId,\n            claimCounter,\n            claim.claimer,\n            claim.claimerStake,\n            claim.lastChallenger,\n            claim.challengerStakeTotal,\n            claim.termination,\n            fillId\n        );\n\n        return claimCounter;\n    }\n\n    function challengeClaim(uint256 claimId)\n        external\n        payable\n        validClaimId(claimId)\n    {\n        Claim storage claim = claims[claimId];\n        Request storage request = requests[claim.requestId];\n        require(block.timestamp < claim.termination, \"Claim expired\");\n\n        address nextActor;\n        uint256 minValue;\n        uint256 periodExtension = challengePeriodExtension;\n        uint256 claimerStake = claim.claimerStake;\n        uint256 challengerStakeTotal = claim.challengerStakeTotal;\n\n        if (claimerStake > challengerStakeTotal) {\n            if (challengerStakeTotal == 0) {\n                periodExtension += finalizationTimes[request.targetChainId];\n            }\n            require(claim.claimer != msg.sender, \"Cannot challenge own claim\");\n            nextActor = msg.sender;\n            minValue = claimerStake - challengerStakeTotal + 1;\n        } else {\n            nextActor = claim.claimer;\n            minValue = challengerStakeTotal - claimerStake + claimStake;\n        }\n\n        require(msg.sender == nextActor, \"Not eligible to outbid\");\n        require(msg.value >= minValue, \"Not enough stake provided\");\n\n        if (nextActor == claim.claimer) {\n            claim.claimerStake += msg.value;\n        } else {\n            claim.lastChallenger = msg.sender;\n            claim.challengersStakes[msg.sender] += msg.value;\n            claim.challengerStakeTotal += msg.value;\n        }\n\n        claim.termination = Math.max(\n            claim.termination,\n            block.timestamp + periodExtension\n        );\n        uint256 minimumTermination = block.timestamp + challengePeriodExtension;\n        require(\n            claim.termination >= minimumTermination,\n            \"Claim termination did not increase enough\"\n        );\n\n        emit ClaimMade(\n            claim.requestId,\n            claimId,\n            claim.claimer,\n            claim.claimerStake,\n            claim.lastChallenger,\n            claim.challengerStakeTotal,\n            claim.termination,\n            claim.fillId\n        );\n    }\n\n    function withdraw(uint256 claimId)\n        external\n        validClaimId(claimId)\n        returns (address)\n    {\n        Claim storage claim = claims[claimId];\n        Request storage request = requests[claim.requestId];\n\n        (address claimReceiver, uint256 ethToTransfer) = resolveClaim(claimId);\n\n        if (claim.challengersStakes[claimReceiver] > 0) {\n            //Re-entrancy protection\n            claim.challengersStakes[claimReceiver] = 0;\n        }\n\n        // First time withdraw is called, remove it from active claims\n        if (claim.withdrawnAmount == 0) {\n            request.activeClaims -= 1;\n        }\n        claim.withdrawnAmount += ethToTransfer;\n        require(\n            claim.withdrawnAmount <=\n                claim.claimerStake + claim.challengerStakeTotal,\n            \"Amount to withdraw too large\"\n        );\n\n        (bool sent, ) = claimReceiver.call{value: ethToTransfer}(\"\");\n        require(sent, \"Failed to send Ether\");\n\n        emit ClaimWithdrawn(claimId, claim.requestId, claimReceiver);\n\n        if (\n            request.withdrawInfo.filler == address(0) &&\n            claimReceiver == claim.claimer\n        ) {\n            withdrawDeposit(request, claim);\n        }\n\n        return claimReceiver;\n    }\n\n    function resolveClaim(uint256 claimId)\n        private\n        view\n        returns (address, uint256)\n    {\n        Claim storage claim = claims[claimId];\n        Request storage request = requests[claim.requestId];\n        uint256 claimerStake = claim.claimerStake;\n        uint256 challengerStakeTotal = claim.challengerStakeTotal;\n        require(\n            claim.withdrawnAmount < claimerStake + challengerStakeTotal,\n            \"Claim already withdrawn\"\n        );\n\n        bytes32 requestHash = BeamerUtils.createRequestHash(\n            claim.requestId,\n            block.chainid,\n            request.targetChainId,\n            request.targetTokenAddress,\n            request.targetAddress,\n            request.amount\n        );\n\n        bytes32 fillHash = BeamerUtils.createFillHash(\n            claim.requestId,\n            block.chainid,\n            request.targetChainId,\n            request.targetTokenAddress,\n            request.targetAddress,\n            request.amount,\n            claim.fillId\n        );\n\n        bool claimValid = false;\n        BeamerUtils.FillInfo memory withdrawInfo = request.withdrawInfo;\n\n        // Priority list for validity check of claim\n        // Claim is valid if either\n        // 1) ResolutionRegistry entry in fillers, claimer is the filler\n        // 2) ResolutionRegistry entry in invalidFillHashes, claim is invalid\n        // 3) Request.withdrawInfo, the claimer withdrew with an identical claim (same fill id)\n        // 4) Claim properties, claim terminated and claimer has the highest stake\n        (address filler, bytes32 fillId) = resolutionRegistry.fillers(\n            requestHash\n        );\n\n        if (filler == address(0)) {\n            (filler, fillId) = (withdrawInfo.filler, withdrawInfo.fillId);\n        }\n\n        if (resolutionRegistry.invalidFillHashes(fillHash)) {\n            // Claim resolution via 2)\n            claimValid = false;\n        } else if (filler != address(0)) {\n            // Claim resolution via 1) or 3)\n            claimValid = filler == claim.claimer && fillId == claim.fillId;\n        } else {\n            // Claim resolution via 4)\n            require(\n                block.timestamp >= claim.termination,\n                \"Claim period not finished\"\n            );\n            claimValid = claimerStake > challengerStakeTotal;\n        }\n\n        // Calculate withdraw scheme for claim stakes\n        uint256 ethToTransfer;\n        address claimReceiver;\n\n        if (claimValid) {\n            // If claim is valid, all stakes go to the claimer\n            ethToTransfer = claimerStake + challengerStakeTotal;\n            claimReceiver = claim.claimer;\n        } else if (challengerStakeTotal > 0) {\n            // If claim is invalid, partial withdrawal by the sender\n            ethToTransfer = 2 * claim.challengersStakes[msg.sender];\n            claimReceiver = msg.sender;\n\n            require(ethToTransfer > 0, \"Challenger has nothing to withdraw\");\n        } else {\n            // The unlikely event is possible that a false claim has no challenger\n            // If it is known that the claim is false then the claim stake goes to the platform\n            ethToTransfer = claimerStake;\n            claimReceiver = owner();\n        }\n\n        // If the challenger wins and is the last challenger, he gets either\n        // twice his stake plus the excess stake (if the claimer was winning), or\n        // twice his stake minus the difference between the claimer and challenger stakes (if the claimer was losing)\n        if (msg.sender == claim.lastChallenger) {\n            if (claimerStake > challengerStakeTotal) {\n                ethToTransfer += (claimerStake - challengerStakeTotal);\n            } else {\n                ethToTransfer -= (challengerStakeTotal - claimerStake);\n            }\n        }\n\n        return (claimReceiver, ethToTransfer);\n    }\n\n    function withdrawDeposit(Request storage request, Claim storage claim)\n        private\n    {\n        address claimer = claim.claimer;\n        emit DepositWithdrawn(claim.requestId, claimer);\n\n        request.withdrawInfo = BeamerUtils.FillInfo(claimer, claim.fillId);\n\n        collectedProtocolFees[request.sourceTokenAddress] += request\n            .protocolFee;\n\n        IERC20 token = IERC20(request.sourceTokenAddress);\n        token.safeTransfer(claimer, request.amount + request.lpFee);\n    }\n\n    function withdrawProtocolFees(address tokenAddress, address recipient)\n        external\n        onlyOwner\n    {\n        uint256 amount = collectedProtocolFees[tokenAddress];\n        require(amount > 0, \"Protocol fee is zero\");\n        collectedProtocolFees[tokenAddress] = 0;\n\n        IERC20 token = IERC20(tokenAddress);\n        token.safeTransfer(recipient, amount);\n    }\n\n    function updateFeeData(\n        uint256 newProtocolFeePPM,\n        uint256 newLpFeePPM,\n        uint256 newMinLpFee\n    ) external onlyOwner {\n        protocolFeePPM = newProtocolFeePPM;\n        lpFeePPM = newLpFeePPM;\n        minLpFee = newMinLpFee;\n    }\n\n    function updateTransferLimit(uint256 newTransferLimit) external onlyOwner {\n        transferLimit = newTransferLimit;\n    }\n\n    function setFinalizationTime(\n        uint256 targetChainId,\n        uint256 finalizationTime\n    ) external onlyOwner {\n        require(\n            finalizationTime > 0,\n            \"Finalization time must be greater than 0\"\n        );\n        finalizationTimes[targetChainId] = finalizationTime;\n    }\n\n    function deprecateContract() external onlyOwner {\n        require(deprecated == false, \"Contract already deprecated\");\n        deprecated = true;\n    }\n}\n",
  "sourcePath": "contracts/contracts/RequestManager.sol",
  "type": "contract"
}