{
  "abi": [
    {
      "inputs": [
        {
          "internalType": "uint256",
          "name": "_claimStake",
          "type": "uint256"
        },
        {
          "internalType": "uint256",
          "name": "_claimPeriod",
          "type": "uint256"
        },
        {
          "internalType": "uint256",
          "name": "_challengePeriod",
          "type": "uint256"
        },
        {
          "internalType": "uint256",
          "name": "_challengePeriodExtension",
          "type": "uint256"
        },
        {
          "internalType": "address",
          "name": "_resolutionRegistry",
          "type": "address"
        }
      ],
      "stateMutability": "nonpayable",
      "type": "constructor"
    },
    {
      "anonymous": false,
      "inputs": [
        {
          "indexed": false,
          "internalType": "uint256",
          "name": "requestId",
          "type": "uint256"
        },
        {
          "indexed": false,
          "internalType": "uint256",
          "name": "claimId",
          "type": "uint256"
        },
        {
          "indexed": false,
          "internalType": "address",
          "name": "claimer",
          "type": "address"
        },
        {
          "indexed": false,
          "internalType": "uint256",
          "name": "claimerStake",
          "type": "uint256"
        },
        {
          "indexed": false,
          "internalType": "address",
          "name": "challenger",
          "type": "address"
        },
        {
          "indexed": false,
          "internalType": "uint256",
          "name": "challengerStake",
          "type": "uint256"
        },
        {
          "indexed": false,
          "internalType": "uint256",
          "name": "termination",
          "type": "uint256"
        },
        {
          "indexed": false,
          "internalType": "bytes32",
          "name": "fillId",
          "type": "bytes32"
        }
      ],
      "name": "ClaimMade",
      "type": "event"
    },
    {
      "anonymous": false,
      "inputs": [
        {
          "indexed": false,
          "internalType": "uint256",
          "name": "claimId",
          "type": "uint256"
        },
        {
          "indexed": false,
          "internalType": "uint256",
          "name": "requestId",
          "type": "uint256"
        },
        {
          "indexed": false,
          "internalType": "address",
          "name": "claimReceiver",
          "type": "address"
        }
      ],
      "name": "ClaimWithdrawn",
      "type": "event"
    },
    {
      "anonymous": false,
      "inputs": [
        {
          "indexed": false,
          "internalType": "uint256",
          "name": "requestId",
          "type": "uint256"
        },
        {
          "indexed": false,
          "internalType": "address",
          "name": "receiver",
          "type": "address"
        }
      ],
      "name": "DepositWithdrawn",
      "type": "event"
    },
    {
      "anonymous": false,
      "inputs": [
        {
          "indexed": true,
          "internalType": "address",
          "name": "previousOwner",
          "type": "address"
        },
        {
          "indexed": true,
          "internalType": "address",
          "name": "newOwner",
          "type": "address"
        }
      ],
      "name": "OwnershipTransferred",
      "type": "event"
    },
    {
      "anonymous": false,
      "inputs": [
        {
          "indexed": false,
          "internalType": "uint256",
          "name": "requestId",
          "type": "uint256"
        },
        {
          "indexed": false,
          "internalType": "uint256",
          "name": "targetChainId",
          "type": "uint256"
        },
        {
          "indexed": false,
          "internalType": "address",
          "name": "sourceTokenAddress",
          "type": "address"
        },
        {
          "indexed": false,
          "internalType": "address",
          "name": "targetTokenAddress",
          "type": "address"
        },
        {
          "indexed": false,
          "internalType": "address",
          "name": "targetAddress",
          "type": "address"
        },
        {
          "indexed": false,
          "internalType": "uint256",
          "name": "amount",
          "type": "uint256"
        }
      ],
      "name": "RequestCreated",
      "type": "event"
    },
    {
      "inputs": [],
      "name": "MAX_VALIDITY_PERIOD",
      "outputs": [
        {
          "internalType": "uint256",
          "name": "",
          "type": "uint256"
        }
      ],
      "stateMutability": "view",
      "type": "function"
    },
    {
      "inputs": [],
      "name": "MIN_VALIDITY_PERIOD",
      "outputs": [
        {
          "internalType": "uint256",
          "name": "",
          "type": "uint256"
        }
      ],
      "stateMutability": "view",
      "type": "function"
    },
    {
      "inputs": [],
      "name": "beamerServiceFee",
      "outputs": [
        {
          "internalType": "uint256",
          "name": "",
          "type": "uint256"
        }
      ],
      "stateMutability": "view",
      "type": "function"
    },
    {
      "inputs": [
        {
          "internalType": "uint256",
          "name": "claimId",
          "type": "uint256"
        }
      ],
      "name": "challengeClaim",
      "outputs": [],
      "stateMutability": "payable",
      "type": "function"
    },
    {
      "inputs": [],
      "name": "challengePeriod",
      "outputs": [
        {
          "internalType": "uint256",
          "name": "",
          "type": "uint256"
        }
      ],
      "stateMutability": "view",
      "type": "function"
    },
    {
      "inputs": [],
      "name": "challengePeriodExtension",
      "outputs": [
        {
          "internalType": "uint256",
          "name": "",
          "type": "uint256"
        }
      ],
      "stateMutability": "view",
      "type": "function"
    },
    {
      "inputs": [],
      "name": "claimCounter",
      "outputs": [
        {
          "internalType": "uint256",
          "name": "",
          "type": "uint256"
        }
      ],
      "stateMutability": "view",
      "type": "function"
    },
    {
      "inputs": [],
      "name": "claimPeriod",
      "outputs": [
        {
          "internalType": "uint256",
          "name": "",
          "type": "uint256"
        }
      ],
      "stateMutability": "view",
      "type": "function"
    },
    {
      "inputs": [
        {
          "internalType": "uint256",
          "name": "requestId",
          "type": "uint256"
        },
        {
          "internalType": "bytes32",
          "name": "fillId",
          "type": "bytes32"
        }
      ],
      "name": "claimRequest",
      "outputs": [
        {
          "internalType": "uint256",
          "name": "",
          "type": "uint256"
        }
      ],
      "stateMutability": "payable",
      "type": "function"
    },
    {
      "inputs": [],
      "name": "claimStake",
      "outputs": [
        {
          "internalType": "uint256",
          "name": "",
          "type": "uint256"
        }
      ],
      "stateMutability": "view",
      "type": "function"
    },
    {
      "inputs": [
        {
          "internalType": "uint256",
          "name": "",
          "type": "uint256"
        }
      ],
      "name": "claims",
      "outputs": [
        {
          "internalType": "uint256",
          "name": "requestId",
          "type": "uint256"
        },
        {
          "internalType": "address",
          "name": "claimer",
          "type": "address"
        },
        {
          "internalType": "uint256",
          "name": "claimerStake",
          "type": "uint256"
        },
        {
          "internalType": "address",
          "name": "challenger",
          "type": "address"
        },
        {
          "internalType": "uint256",
          "name": "challengerStake",
          "type": "uint256"
        },
        {
          "internalType": "bool",
          "name": "withdrawn",
          "type": "bool"
        },
        {
          "internalType": "uint256",
          "name": "termination",
          "type": "uint256"
        },
        {
          "internalType": "bytes32",
          "name": "fillId",
          "type": "bytes32"
        }
      ],
      "stateMutability": "view",
      "type": "function"
    },
    {
      "inputs": [],
      "name": "collectedBeamerFees",
      "outputs": [
        {
          "internalType": "uint256",
          "name": "",
          "type": "uint256"
        }
      ],
      "stateMutability": "view",
      "type": "function"
    },
    {
      "inputs": [
        {
          "internalType": "uint256",
          "name": "targetChainId",
          "type": "uint256"
        },
        {
          "internalType": "address",
          "name": "sourceTokenAddress",
          "type": "address"
        },
        {
          "internalType": "address",
          "name": "targetTokenAddress",
          "type": "address"
        },
        {
          "internalType": "address",
          "name": "targetAddress",
          "type": "address"
        },
        {
          "internalType": "uint256",
          "name": "amount",
          "type": "uint256"
        },
        {
          "internalType": "uint256",
          "name": "validityPeriod",
          "type": "uint256"
        }
      ],
      "name": "createRequest",
      "outputs": [
        {
          "internalType": "uint256",
          "name": "",
          "type": "uint256"
        }
      ],
      "stateMutability": "payable",
      "type": "function"
    },
    {
      "inputs": [],
      "name": "gasPrice",
      "outputs": [
        {
          "internalType": "uint256",
          "name": "",
          "type": "uint256"
        }
      ],
      "stateMutability": "view",
      "type": "function"
    },
    {
      "inputs": [],
      "name": "gasReimbursementFee",
      "outputs": [
        {
          "internalType": "uint256",
          "name": "",
          "type": "uint256"
        }
      ],
      "stateMutability": "view",
      "type": "function"
    },
    {
      "inputs": [],
      "name": "lpServiceFee",
      "outputs": [
        {
          "internalType": "uint256",
          "name": "",
          "type": "uint256"
        }
      ],
      "stateMutability": "view",
      "type": "function"
    },
    {
      "inputs": [],
      "name": "owner",
      "outputs": [
        {
          "internalType": "address",
          "name": "",
          "type": "address"
        }
      ],
      "stateMutability": "view",
      "type": "function"
    },
    {
      "inputs": [],
      "name": "renounceOwnership",
      "outputs": [],
      "stateMutability": "nonpayable",
      "type": "function"
    },
    {
      "inputs": [],
      "name": "requestCounter",
      "outputs": [
        {
          "internalType": "uint256",
          "name": "",
          "type": "uint256"
        }
      ],
      "stateMutability": "view",
      "type": "function"
    },
    {
      "inputs": [
        {
          "internalType": "uint256",
          "name": "",
          "type": "uint256"
        }
      ],
      "name": "requests",
      "outputs": [
        {
          "internalType": "address",
          "name": "sender",
          "type": "address"
        },
        {
          "internalType": "address",
          "name": "sourceTokenAddress",
          "type": "address"
        },
        {
          "internalType": "uint256",
          "name": "targetChainId",
          "type": "uint256"
        },
        {
          "internalType": "address",
          "name": "targetTokenAddress",
          "type": "address"
        },
        {
          "internalType": "address",
          "name": "targetAddress",
          "type": "address"
        },
        {
          "internalType": "uint256",
          "name": "amount",
          "type": "uint256"
        },
        {
          "internalType": "address",
          "name": "depositReceiver",
          "type": "address"
        },
        {
          "internalType": "uint192",
          "name": "activeClaims",
          "type": "uint192"
        },
        {
          "internalType": "uint256",
          "name": "validUntil",
          "type": "uint256"
        },
        {
          "internalType": "uint256",
          "name": "lpFee",
          "type": "uint256"
        },
        {
          "internalType": "uint256",
          "name": "beamerFee",
          "type": "uint256"
        }
      ],
      "stateMutability": "view",
      "type": "function"
    },
    {
      "inputs": [],
      "name": "resolutionRegistry",
      "outputs": [
        {
          "internalType": "contract ResolutionRegistry",
          "name": "",
          "type": "address"
        }
      ],
      "stateMutability": "view",
      "type": "function"
    },
    {
      "inputs": [],
      "name": "totalFee",
      "outputs": [
        {
          "internalType": "uint256",
          "name": "",
          "type": "uint256"
        }
      ],
      "stateMutability": "view",
      "type": "function"
    },
    {
      "inputs": [
        {
          "internalType": "address",
          "name": "newOwner",
          "type": "address"
        }
      ],
      "name": "transferOwnership",
      "outputs": [],
      "stateMutability": "nonpayable",
      "type": "function"
    },
    {
      "inputs": [
        {
          "internalType": "uint256",
          "name": "newGasPrice",
          "type": "uint256"
        },
        {
          "internalType": "uint256",
          "name": "newServiceFeePPM",
          "type": "uint256"
        }
      ],
      "name": "updateFeeData",
      "outputs": [],
      "stateMutability": "nonpayable",
      "type": "function"
    },
    {
      "inputs": [
        {
          "internalType": "uint256",
          "name": "claimId",
          "type": "uint256"
        }
      ],
      "name": "withdraw",
      "outputs": [
        {
          "internalType": "address",
          "name": "",
          "type": "address"
        }
      ],
      "stateMutability": "nonpayable",
      "type": "function"
    },
    {
      "inputs": [
        {
          "internalType": "uint256",
          "name": "requestId",
          "type": "uint256"
        }
      ],
      "name": "withdrawExpiredRequest",
      "outputs": [],
      "stateMutability": "nonpayable",
      "type": "function"
    },
    {
      "inputs": [],
      "name": "withdrawbeamerFees",
      "outputs": [],
      "stateMutability": "nonpayable",
      "type": "function"
    }
  ],
  "bytecode": "608060405264012a05f200600a5561afc8600b556000600c553480156200002557600080fd5b5060405162001fd438038062001fd48339810160408190526200004891620000da565b62000053336200008a565b600194909455600292909255600355600455600780546001600160a01b0319166001600160a01b0390921691909117905562000137565b600080546001600160a01b038381166001600160a01b0319831681178455604051919092169283917f8be0079c531659141344cd1fd0a4f28419497f9722a3daafe3b4186f6b6457e09190a35050565b600080600080600060a08688031215620000f357600080fd5b855160208701516040880151606089015160808a0151939850919650945092506001600160a01b03811681146200012957600080fd5b809150509295509295909350565b611e8d80620001476000396000f3fe60806040526004361061019c5760003560e01c806392c824d8116100ec578063b1743c5b1161008a578063f2bb190811610064578063f2bb190814610563578063f2fde38b14610578578063f3f480d914610598578063fe173b97146105ae57600080fd5b8063b1743c5b1461051a578063d38683481461052d578063eb3211731461054d57600080fd5b8063973a814e116100c6578063973a814e146104195780639832785c1461042f578063a888c2cd14610444578063ab9634ee146104fa57600080fd5b806392c824d8146103ce57806395219784146103e157806396171d051461040157600080fd5b80634efa8f17116101595780637dc2cd98116101335780637dc2cd981461029857806381d12c58146102ae5780638da5cb5b146103b0578063905eed4f146101a157600080fd5b80634efa8f17146102555780636f5bd18c1461026b578063715018a61461028157600080fd5b80630a7f7b36146101a15780631489f8d2146101c95780631d18adc5146101df5780631df4ccfc146101f55780632e1a7d4d1461020a5780632f4212b814610242575b600080fd5b3480156101ad57600080fd5b506101b66105c4565b6040519081526020015b60405180910390f35b3480156101d557600080fd5b506101b661012c81565b3480156101eb57600080fd5b506101b660045481565b34801561020157600080fd5b506101b66105ee565b34801561021657600080fd5b5061022a610225366004611b4c565b61061c565b6040516001600160a01b0390911681526020016101c0565b6101b6610250366004611b7a565b610a96565b34801561026157600080fd5b506101b660065481565b34801561027757600080fd5b506101b6600c5481565b34801561028d57600080fd5b50610296610cf3565b005b3480156102a457600080fd5b506101b660025481565b3480156102ba57600080fd5b5061033d6102c9366004611b4c565b600860208190526000918252604090912080546001820154600283015460038401546004850154600586015460068701546007880154988801546009890154600a909901546001600160a01b039889169a97891699969895861697948616969395909216936001600160c01b03169290918b565b604080516001600160a01b039c8d1681529a8c1660208c01528a01989098529589166060890152938816608088015260a087019290925290951660c08501526001600160c01b0390941660e0840152610100830193909352610120820192909252610140810191909152610160016101c0565b3480156103bc57600080fd5b506000546001600160a01b031661022a565b6102966103dc366004611b4c565b610d29565b3480156103ed57600080fd5b506102966103fc366004611bdf565b611045565b34801561040d57600080fd5b506101b66301dfe20081565b34801561042557600080fd5b506101b660055481565b34801561043b57600080fd5b506101b661107a565b34801561045057600080fd5b506104b261045f366004611b4c565b6009602052600090815260409020805460018201546002830154600384015460048501546005860154600687015460079097015495966001600160a01b0395861696949590931693919260ff9091169188565b604080519889526001600160a01b0397881660208a01528801959095529490921660608601526080850152151560a084015260c083019190915260e0820152610100016101c0565b34801561050657600080fd5b5060075461022a906001600160a01b031681565b6101b6610528366004611bdf565b6110b5565b34801561053957600080fd5b50610296610548366004611b4c565b611341565b34801561055957600080fd5b506101b660015481565b34801561056f57600080fd5b506102966115b4565b34801561058457600080fd5b50610296610593366004611c01565b61169c565b3480156105a457600080fd5b506101b660035481565b3480156105ba57600080fd5b506101b6600a5481565b6000620f4240600b546105d561107a565b6105df9190611c34565b6105e99190611c53565b905090565b60006105f86105c4565b6106006105c4565b61060861107a565b6106129190611c75565b6105e99190611c75565b60008160065481111580156106315750600081115b6106765760405162461bcd60e51b815260206004820152601160248201527018db185a5b5259081b9bdd081d985b1a59607a1b60448201526064015b60405180910390fd5b6000838152600960209081526040808320805484526008909252909120600582015460ff16156106e85760405162461bcd60e51b815260206004820152601760248201527f436c61696d20616c72656164792077697468647261776e000000000000000000604482015260640161066d565b8154600282015460038301546004840154600585015460078701546040805160208082019890985246818301526060808201979097526bffffffffffffffffffffffff1995871b861660808201529390951b909316609483015260a8808301919091528351808303909101815260c88201845280519085012060e88201526101088082019290925282518082039092018252610128019091528051910120600090600683015460075460405163a64a227160e01b8152600481018490529293506000926001600160a01b03928316928492169063a64a227190602401602060405180830381865afa1580156107e1573d6000803e3d6000fd5b505050506040513d601f19601f820116820180604052508101906108059190611c8d565b90506001600160a01b0381166108185750805b6001600160a01b0381166108b257856006015442101561087a5760405162461bcd60e51b815260206004820152601960248201527f436c61696d20706572696f64206e6f742066696e697368656400000000000000604482015260640161066d565b856004015486600201541161089c5760038601546001600160a01b03166108ab565b60018601546001600160a01b03165b92506108ef565b60018601546001600160a01b038281169116146108de5760038601546001600160a01b031692506108ef565b60018601546001600160a01b031692505b60058601805460ff1916600190811790915560078601805460009061091e9084906001600160c01b0316611caa565b92506101000a8154816001600160c01b0302191690836001600160c01b0316021790555060006001600160a01b0316826001600160a01b0316148015610973575060018601546001600160a01b038481169116145b1561098357610983858785611737565b6000866004015487600201546109999190611c75565b90506001600160a01b03841615610a23576000846001600160a01b03168260405160006040518083038185875af1925050503d80600081146109f7576040519150601f19603f3d011682016040523d82523d6000602084013e6109fc565b606091505b5050905080610a1d5760405162461bcd60e51b815260040161066d90611cd2565b50610a3e565b80600c6000828254610a359190611c75565b90915550309450505b8654604080518c815260208101929092526001600160a01b03861682820152517fc494c0d9b07fae9d937a92117991d3017ad9408a7d344caa86c184c47f7bd1839181900360600190a1509198975050505050505050565b600080610aa16105c4565b610aa961107a565b610ab39190611c75565b90506000610abf6105c4565b905034610acc8284611c75565b14610b195760405162461bcd60e51b815260206004820152601960248201527f57726f6e6720616d6f756e74206f6620666565732073656e7400000000000000604482015260640161066d565b61012c841015610b6b5760405162461bcd60e51b815260206004820152601960248201527f56616c696469747920706572696f6420746f6f2073686f727400000000000000604482015260640161066d565b6301dfe200841115610bbf5760405162461bcd60e51b815260206004820152601860248201527f56616c696469747920706572696f6420746f6f206c6f6e670000000000000000604482015260640161066d565b600160056000828254610bd29190611c75565b90915550506005805460009081526008602052604090208054336001600160a01b031991821617825560018201805482166001600160a01b038d811691909117909155600283018d905560038301805483168c83161790556004830180548316918b16919091179055918101879055600681018054909216909155610c578542611c75565b600882015560098101839055600a810182905560055460408051918252602082018c90526001600160a01b038b8116838301528a811660608401528916608083015260a08201889052517f79aa30e31996d325799b6f0fbfe55e365b572a6cd82924d616b560d3d9e57b339181900360c00190a188610ce16001600160a01b03821633308a6117ea565b50506005549998505050505050505050565b6000546001600160a01b03163314610d1d5760405162461bcd60e51b815260040161066d90611d00565b610d27600061185b565b565b806006548111158015610d3c5750600081115b610d7c5760405162461bcd60e51b815260206004820152601160248201527018db185a5b5259081b9bdd081d985b1a59607a1b604482015260640161066d565b600082815260096020526040902060068101544210610dcd5760405162461bcd60e51b815260206004820152600d60248201526c10db185a5b48195e1c1a5c9959609a1b604482015260640161066d565b6000806000836004015484600201541115610e9e5760038401546001600160a01b0316610e6d5760018401546001600160a01b0316331415610e515760405162461bcd60e51b815260206004820152601a60248201527f43616e6e6f74206368616c6c656e6765206f776e20636c61696d000000000000604482015260640161066d565b50600380840180546001600160a01b0319163317905554610e72565b506004545b6003840154600485015460028601546001600160a01b039092169450610e9791611d35565b9150610ec6565b6001840154600285015460048601546001600160a01b039092169450610ec391611d35565b91505b336001600160a01b03841614610f175760405162461bcd60e51b8152602060048201526016602482015275139bdd08195b1a59da589b19481d1bc81bdd5d189a5960521b604482015260640161066d565b813411610f665760405162461bcd60e51b815260206004820152601960248201527f4e6f7420656e6f756768207374616b652070726f766964656400000000000000604482015260640161066d565b60018401546001600160a01b0384811691161415610f9d5734846002016000828254610f929190611c75565b90915550610fb79050565b34846004016000828254610fb19190611c75565b90915550505b6006840154610fcf90610fca8342611c75565b6118ab565b600685018190558454600186015460028701546003880154600489015460078a01546040517f29fd2df293ba511e44ca47212c915137020231ed3ac0ee7bd02a7a655275ad379761103597968f966001600160a01b039182169690959116939092611d4c565b60405180910390a1505050505050565b6000546001600160a01b0316331461106f5760405162461bcd60e51b815260040161066d90611d00565b600a91909155600b55565b600a54600090620106219062025c0a9061fa5190816110998486611c75565b6110a39190611c75565b6110ad9190611c34565b935050505090565b60008260055481111580156110ca5750600081115b61110c5760405162461bcd60e51b81526020600482015260136024820152721c995c5d595cdd1259081b9bdd081d985b1a59606a1b604482015260640161066d565b60008481526008602081905260409091209081015442106111615760405162461bcd60e51b815260206004820152600f60248201526e14995c5d595cdd08195e1c1a5c9959608a1b604482015260640161066d565b60068101546001600160a01b0316156111b85760405162461bcd60e51b81526020600482015260196024820152782232b837b9b4ba1030b63932b0b23c903bb4ba34323930bbb760391b604482015260640161066d565b60015434146112005760405162461bcd60e51b8152602060048201526014602482015273125b9d985b1a59081cdd185ad948185b5bdd5b9d60621b604482015260640161066d565b600781018054600191906000906112219084906001600160c01b0316611d8f565b92506101000a8154816001600160c01b0302191690836001600160c01b031602179055506001600660008282546112589190611c75565b90915550506006546000908152600960205260408120868155600180820180546001600160a01b031990811633179091559054600280840191909155600383018054909216909155600482019290925560058101805460ff1916905590546112c09042611c75565b6006808301829055600783018790555460018301546002840154600385015460048601546040517f29fd2df293ba511e44ca47212c915137020231ed3ac0ee7bd02a7a655275ad379661132c968e9690956001600160a01b039182169590949116929091908e90611d4c565b60405180910390a15050600654949350505050565b8060055481111580156113545750600081115b6113965760405162461bcd60e51b81526020600482015260136024820152721c995c5d595cdd1259081b9bdd081d985b1a59606a1b604482015260640161066d565b600082815260086020526040902060068101546001600160a01b0316156113fb5760405162461bcd60e51b81526020600482015260196024820152782232b837b9b4ba1030b63932b0b23c903bb4ba34323930bbb760391b604482015260640161066d565b806008015442101561144f5760405162461bcd60e51b815260206004820152601760248201527f52657175657374206e6f74206578706972656420796574000000000000000000604482015260640161066d565b60078101546001600160c01b0316156114a25760405162461bcd60e51b815260206004820152601560248201527441637469766520636c61696d732072756e6e696e6760581b604482015260640161066d565b80546006820180546001600160a01b0319166001600160a01b0390921691821790556040805185815260208101929092527fa7b86597910aae75f7d99feb2f37420cc80d457465ffba0f8136d722a9f7095a910160405180910390a16001810154815460058301546001600160a01b03928316926115249284929116906118c4565b8154600a83015460098401546000926001600160a01b03169161154691611c75565b6040515b60006040518083038185875af1925050503d8060008114611587576040519150601f19603f3d011682016040523d82523d6000602084013e61158c565b606091505b50509050806115ad5760405162461bcd60e51b815260040161066d90611cd2565b5050505050565b6000546001600160a01b031633146115de5760405162461bcd60e51b815260040161066d90611d00565b6000600c54116116265760405162461bcd60e51b81526020600482015260136024820152725a65726f206665657320617661696c61626c6560681b604482015260640161066d565b600c8054600091829055604051909190339083908381818185875af1925050503d8060008114611672576040519150601f19603f3d011682016040523d82523d6000602084013e611677565b606091505b50509050806116985760405162461bcd60e51b815260040161066d90611cd2565b5050565b6000546001600160a01b031633146116c65760405162461bcd60e51b815260040161066d90611d00565b6001600160a01b03811661172b5760405162461bcd60e51b815260206004820152602660248201527f4f776e61626c653a206e6577206f776e657220697320746865207a65726f206160448201526564647265737360d01b606482015260840161066d565b6117348161185b565b50565b82600a0154600c600082825461174d9190611c75565b90915550508154604080519182526001600160a01b03831660208301527fa7b86597910aae75f7d99feb2f37420cc80d457465ffba0f8136d722a9f7095a910160405180910390a1600183015460058401546001600160a01b03909116906117b890829084906118c4565b6006840180546001600160a01b0319166001600160a01b0384169081179091556009850154604051600092919061154a565b6040516001600160a01b03808516602483015283166044820152606481018290526118559085906323b872dd60e01b906084015b60408051601f198184030181529190526020810180516001600160e01b03166001600160e01b0319909316929092179091526118f9565b50505050565b600080546001600160a01b038381166001600160a01b0319831681178455604051919092169283917f8be0079c531659141344cd1fd0a4f28419497f9722a3daafe3b4186f6b6457e09190a35050565b6000818310156118bb57816118bd565b825b9392505050565b6040516001600160a01b0383166024820152604481018290526118f490849063a9059cbb60e01b9060640161181e565b505050565b600061194e826040518060400160405280602081526020017f5361666545524332303a206c6f772d6c6576656c2063616c6c206661696c6564815250856001600160a01b03166119cb9092919063ffffffff16565b8051909150156118f4578080602001905181019061196c9190611dba565b6118f45760405162461bcd60e51b815260206004820152602a60248201527f5361666545524332303a204552433230206f7065726174696f6e20646964206e6044820152691bdd081cdd58d8d9595960b21b606482015260840161066d565b60606119da84846000856119e2565b949350505050565b606082471015611a435760405162461bcd60e51b815260206004820152602660248201527f416464726573733a20696e73756666696369656e742062616c616e636520666f6044820152651c8818d85b1b60d21b606482015260840161066d565b6001600160a01b0385163b611a9a5760405162461bcd60e51b815260206004820152601d60248201527f416464726573733a2063616c6c20746f206e6f6e2d636f6e7472616374000000604482015260640161066d565b600080866001600160a01b03168587604051611ab69190611e08565b60006040518083038185875af1925050503d8060008114611af3576040519150601f19603f3d011682016040523d82523d6000602084013e611af8565b606091505b5091509150611b08828286611b13565b979650505050505050565b60608315611b225750816118bd565b825115611b325782518084602001fd5b8160405162461bcd60e51b815260040161066d9190611e24565b600060208284031215611b5e57600080fd5b5035919050565b6001600160a01b038116811461173457600080fd5b60008060008060008060c08789031215611b9357600080fd5b863595506020870135611ba581611b65565b94506040870135611bb581611b65565b93506060870135611bc581611b65565b9598949750929560808101359460a0909101359350915050565b60008060408385031215611bf257600080fd5b50508035926020909101359150565b600060208284031215611c1357600080fd5b81356118bd81611b65565b634e487b7160e01b600052601160045260246000fd5b6000816000190483118215151615611c4e57611c4e611c1e565b500290565b600082611c7057634e487b7160e01b600052601260045260246000fd5b500490565b60008219821115611c8857611c88611c1e565b500190565b600060208284031215611c9f57600080fd5b81516118bd81611b65565b60006001600160c01b0383811690831681811015611cca57611cca611c1e565b039392505050565b6020808252601490820152732330b4b632b2103a379039b2b7321022ba3432b960611b604082015260600190565b6020808252818101527f4f776e61626c653a2063616c6c6572206973206e6f7420746865206f776e6572604082015260600190565b600082821015611d4757611d47611c1e565b500390565b97885260208801969096526001600160a01b03948516604088015260608701939093529216608085015260a084019190915260c083015260e08201526101000190565b60006001600160c01b03828116848216808303821115611db157611db1611c1e565b01949350505050565b600060208284031215611dcc57600080fd5b815180151581146118bd57600080fd5b60005b83811015611df7578181015183820152602001611ddf565b838111156118555750506000910152565b60008251611e1a818460208701611ddc565b9190910192915050565b6020815260008251806020840152611e43816040850160208701611ddc565b601f01601f1916919091016040019291505056fea264697066735822122026c5885b7c038c8c3a9274c0fde75c7c14f0546fca6e8cd9f49d19c8f5220f0664736f6c634300080c0033",
  "bytecodeSha1": "7cfce2526dc9e7758e9e0fc6cf69d6c4c721ac81",
  "compiler": {
    "evm_version": "london",
    "optimizer": {
      "enabled": true,
      "runs": 200
    },
    "version": "0.8.12+commit.f00d7308"
  },
  "contractName": "RequestManager",
  "language": "Solidity",
  "natspec": {
    "kind": "dev",
    "methods": {
      "owner()": {
        "details": "Returns the address of the current owner."
      },
      "renounceOwnership()": {
        "details": "Leaves the contract without owner. It will not be possible to call `onlyOwner` functions anymore. Can only be called by the current owner. NOTE: Renouncing ownership will leave the contract without an owner, thereby removing any functionality that is only available to the owner."
      },
      "transferOwnership(address)": {
        "details": "Transfers ownership of the contract to a new account (`newOwner`). Can only be called by the current owner."
      }
    },
    "version": 1
  },
  "opcodes": "PUSH1 0x80 PUSH1 0x40 MSTORE PUSH1 0x4 CALLDATASIZE LT PUSH2 0x19C JUMPI PUSH1 0x0 CALLDATALOAD PUSH1 0xE0 SHR DUP1 PUSH4 0x92C824D8 GT PUSH2 0xEC JUMPI DUP1 PUSH4 0xB1743C5B GT PUSH2 0x8A JUMPI DUP1 PUSH4 0xF2BB1908 GT PUSH2 0x64 JUMPI DUP1 PUSH4 0xF2BB1908 EQ PUSH2 0x563 JUMPI DUP1 PUSH4 0xF2FDE38B EQ PUSH2 0x578 JUMPI DUP1 PUSH4 0xF3F480D9 EQ PUSH2 0x598 JUMPI DUP1 PUSH4 0xFE173B97 EQ PUSH2 0x5AE JUMPI PUSH1 0x0 DUP1 REVERT JUMPDEST DUP1 PUSH4 0xB1743C5B EQ PUSH2 0x51A JUMPI DUP1 PUSH4 0xD3868348 EQ PUSH2 0x52D JUMPI DUP1 PUSH4 0xEB321173 EQ PUSH2 0x54D JUMPI PUSH1 0x0 DUP1 REVERT JUMPDEST DUP1 PUSH4 0x973A814E GT PUSH2 0xC6 JUMPI DUP1 PUSH4 0x973A814E EQ PUSH2 0x419 JUMPI DUP1 PUSH4 0x9832785C EQ PUSH2 0x42F JUMPI DUP1 PUSH4 0xA888C2CD EQ PUSH2 0x444 JUMPI DUP1 PUSH4 0xAB9634EE EQ PUSH2 0x4FA JUMPI PUSH1 0x0 DUP1 REVERT JUMPDEST DUP1 PUSH4 0x92C824D8 EQ PUSH2 0x3CE JUMPI DUP1 PUSH4 0x95219784 EQ PUSH2 0x3E1 JUMPI DUP1 PUSH4 0x96171D05 EQ PUSH2 0x401 JUMPI PUSH1 0x0 DUP1 REVERT JUMPDEST DUP1 PUSH4 0x4EFA8F17 GT PUSH2 0x159 JUMPI DUP1 PUSH4 0x7DC2CD98 GT PUSH2 0x133 JUMPI DUP1 PUSH4 0x7DC2CD98 EQ PUSH2 0x298 JUMPI DUP1 PUSH4 0x81D12C58 EQ PUSH2 0x2AE JUMPI DUP1 PUSH4 0x8DA5CB5B EQ PUSH2 0x3B0 JUMPI DUP1 PUSH4 0x905EED4F EQ PUSH2 0x1A1 JUMPI PUSH1 0x0 DUP1 REVERT JUMPDEST DUP1 PUSH4 0x4EFA8F17 EQ PUSH2 0x255 JUMPI DUP1 PUSH4 0x6F5BD18C EQ PUSH2 0x26B JUMPI DUP1 PUSH4 0x715018A6 EQ PUSH2 0x281 JUMPI PUSH1 0x0 DUP1 REVERT JUMPDEST DUP1 PUSH4 0xA7F7B36 EQ PUSH2 0x1A1 JUMPI DUP1 PUSH4 0x1489F8D2 EQ PUSH2 0x1C9 JUMPI DUP1 PUSH4 0x1D18ADC5 EQ PUSH2 0x1DF JUMPI DUP1 PUSH4 0x1DF4CCFC EQ PUSH2 0x1F5 JUMPI DUP1 PUSH4 0x2E1A7D4D EQ PUSH2 0x20A JUMPI DUP1 PUSH4 0x2F4212B8 EQ PUSH2 0x242 JUMPI JUMPDEST PUSH1 0x0 DUP1 REVERT JUMPDEST CALLVALUE DUP1 ISZERO PUSH2 0x1AD JUMPI PUSH1 0x0 DUP1 REVERT JUMPDEST POP PUSH2 0x1B6 PUSH2 0x5C4 JUMP JUMPDEST PUSH1 0x40 MLOAD SWAP1 DUP2 MSTORE PUSH1 0x20 ADD JUMPDEST PUSH1 0x40 MLOAD DUP1 SWAP2 SUB SWAP1 RETURN JUMPDEST CALLVALUE DUP1 ISZERO PUSH2 0x1D5 JUMPI PUSH1 0x0 DUP1 REVERT JUMPDEST POP PUSH2 0x1B6 PUSH2 0x12C DUP2 JUMP JUMPDEST CALLVALUE DUP1 ISZERO PUSH2 0x1EB JUMPI PUSH1 0x0 DUP1 REVERT JUMPDEST POP PUSH2 0x1B6 PUSH1 0x4 SLOAD DUP2 JUMP JUMPDEST CALLVALUE DUP1 ISZERO PUSH2 0x201 JUMPI PUSH1 0x0 DUP1 REVERT JUMPDEST POP PUSH2 0x1B6 PUSH2 0x5EE JUMP JUMPDEST CALLVALUE DUP1 ISZERO PUSH2 0x216 JUMPI PUSH1 0x0 DUP1 REVERT JUMPDEST POP PUSH2 0x22A PUSH2 0x225 CALLDATASIZE PUSH1 0x4 PUSH2 0x1B4C JUMP JUMPDEST PUSH2 0x61C JUMP JUMPDEST PUSH1 0x40 MLOAD PUSH1 0x1 PUSH1 0x1 PUSH1 0xA0 SHL SUB SWAP1 SWAP2 AND DUP2 MSTORE PUSH1 0x20 ADD PUSH2 0x1C0 JUMP JUMPDEST PUSH2 0x1B6 PUSH2 0x250 CALLDATASIZE PUSH1 0x4 PUSH2 0x1B7A JUMP JUMPDEST PUSH2 0xA96 JUMP JUMPDEST CALLVALUE DUP1 ISZERO PUSH2 0x261 JUMPI PUSH1 0x0 DUP1 REVERT JUMPDEST POP PUSH2 0x1B6 PUSH1 0x6 SLOAD DUP2 JUMP JUMPDEST CALLVALUE DUP1 ISZERO PUSH2 0x277 JUMPI PUSH1 0x0 DUP1 REVERT JUMPDEST POP PUSH2 0x1B6 PUSH1 0xC SLOAD DUP2 JUMP JUMPDEST CALLVALUE DUP1 ISZERO PUSH2 0x28D JUMPI PUSH1 0x0 DUP1 REVERT JUMPDEST POP PUSH2 0x296 PUSH2 0xCF3 JUMP JUMPDEST STOP JUMPDEST CALLVALUE DUP1 ISZERO PUSH2 0x2A4 JUMPI PUSH1 0x0 DUP1 REVERT JUMPDEST POP PUSH2 0x1B6 PUSH1 0x2 SLOAD DUP2 JUMP JUMPDEST CALLVALUE DUP1 ISZERO PUSH2 0x2BA JUMPI PUSH1 0x0 DUP1 REVERT JUMPDEST POP PUSH2 0x33D PUSH2 0x2C9 CALLDATASIZE PUSH1 0x4 PUSH2 0x1B4C JUMP JUMPDEST PUSH1 0x8 PUSH1 0x20 DUP2 SWAP1 MSTORE PUSH1 0x0 SWAP2 DUP3 MSTORE PUSH1 0x40 SWAP1 SWAP2 KECCAK256 DUP1 SLOAD PUSH1 0x1 DUP3 ADD SLOAD PUSH1 0x2 DUP4 ADD SLOAD PUSH1 0x3 DUP5 ADD SLOAD PUSH1 0x4 DUP6 ADD SLOAD PUSH1 0x5 DUP7 ADD SLOAD PUSH1 0x6 DUP8 ADD SLOAD PUSH1 0x7 DUP9 ADD SLOAD SWAP9 DUP9 ADD SLOAD PUSH1 0x9 DUP10 ADD SLOAD PUSH1 0xA SWAP1 SWAP10 ADD SLOAD PUSH1 0x1 PUSH1 0x1 PUSH1 0xA0 SHL SUB SWAP9 DUP10 AND SWAP11 SWAP8 DUP10 AND SWAP10 SWAP7 SWAP9 SWAP6 DUP7 AND SWAP8 SWAP5 DUP7 AND SWAP7 SWAP4 SWAP6 SWAP1 SWAP3 AND SWAP4 PUSH1 0x1 PUSH1 0x1 PUSH1 0xC0 SHL SUB AND SWAP3 SWAP1 SWAP2 DUP12 JUMP JUMPDEST PUSH1 0x40 DUP1 MLOAD PUSH1 0x1 PUSH1 0x1 PUSH1 0xA0 SHL SUB SWAP13 DUP14 AND DUP2 MSTORE SWAP11 DUP13 AND PUSH1 0x20 DUP13 ADD MSTORE DUP11 ADD SWAP9 SWAP1 SWAP9 MSTORE SWAP6 DUP10 AND PUSH1 0x60 DUP10 ADD MSTORE SWAP4 DUP9 AND PUSH1 0x80 DUP9 ADD MSTORE PUSH1 0xA0 DUP8 ADD SWAP3 SWAP1 SWAP3 MSTORE SWAP1 SWAP6 AND PUSH1 0xC0 DUP6 ADD MSTORE PUSH1 0x1 PUSH1 0x1 PUSH1 0xC0 SHL SUB SWAP1 SWAP5 AND PUSH1 0xE0 DUP5 ADD MSTORE PUSH2 0x100 DUP4 ADD SWAP4 SWAP1 SWAP4 MSTORE PUSH2 0x120 DUP3 ADD SWAP3 SWAP1 SWAP3 MSTORE PUSH2 0x140 DUP2 ADD SWAP2 SWAP1 SWAP2 MSTORE PUSH2 0x160 ADD PUSH2 0x1C0 JUMP JUMPDEST CALLVALUE DUP1 ISZERO PUSH2 0x3BC JUMPI PUSH1 0x0 DUP1 REVERT JUMPDEST POP PUSH1 0x0 SLOAD PUSH1 0x1 PUSH1 0x1 PUSH1 0xA0 SHL SUB AND PUSH2 0x22A JUMP JUMPDEST PUSH2 0x296 PUSH2 0x3DC CALLDATASIZE PUSH1 0x4 PUSH2 0x1B4C JUMP JUMPDEST PUSH2 0xD29 JUMP JUMPDEST CALLVALUE DUP1 ISZERO PUSH2 0x3ED JUMPI PUSH1 0x0 DUP1 REVERT JUMPDEST POP PUSH2 0x296 PUSH2 0x3FC CALLDATASIZE PUSH1 0x4 PUSH2 0x1BDF JUMP JUMPDEST PUSH2 0x1045 JUMP JUMPDEST CALLVALUE DUP1 ISZERO PUSH2 0x40D JUMPI PUSH1 0x0 DUP1 REVERT JUMPDEST POP PUSH2 0x1B6 PUSH4 0x1DFE200 DUP2 JUMP JUMPDEST CALLVALUE DUP1 ISZERO PUSH2 0x425 JUMPI PUSH1 0x0 DUP1 REVERT JUMPDEST POP PUSH2 0x1B6 PUSH1 0x5 SLOAD DUP2 JUMP JUMPDEST CALLVALUE DUP1 ISZERO PUSH2 0x43B JUMPI PUSH1 0x0 DUP1 REVERT JUMPDEST POP PUSH2 0x1B6 PUSH2 0x107A JUMP JUMPDEST CALLVALUE DUP1 ISZERO PUSH2 0x450 JUMPI PUSH1 0x0 DUP1 REVERT JUMPDEST POP PUSH2 0x4B2 PUSH2 0x45F CALLDATASIZE PUSH1 0x4 PUSH2 0x1B4C JUMP JUMPDEST PUSH1 0x9 PUSH1 0x20 MSTORE PUSH1 0x0 SWAP1 DUP2 MSTORE PUSH1 0x40 SWAP1 KECCAK256 DUP1 SLOAD PUSH1 0x1 DUP3 ADD SLOAD PUSH1 0x2 DUP4 ADD SLOAD PUSH1 0x3 DUP5 ADD SLOAD PUSH1 0x4 DUP6 ADD SLOAD PUSH1 0x5 DUP7 ADD SLOAD PUSH1 0x6 DUP8 ADD SLOAD PUSH1 0x7 SWAP1 SWAP8 ADD SLOAD SWAP6 SWAP7 PUSH1 0x1 PUSH1 0x1 PUSH1 0xA0 SHL SUB SWAP6 DUP7 AND SWAP7 SWAP5 SWAP6 SWAP1 SWAP4 AND SWAP4 SWAP2 SWAP3 PUSH1 0xFF SWAP1 SWAP2 AND SWAP2 DUP9 JUMP JUMPDEST PUSH1 0x40 DUP1 MLOAD SWAP9 DUP10 MSTORE PUSH1 0x1 PUSH1 0x1 PUSH1 0xA0 SHL SUB SWAP8 DUP9 AND PUSH1 0x20 DUP11 ADD MSTORE DUP9 ADD SWAP6 SWAP1 SWAP6 MSTORE SWAP5 SWAP1 SWAP3 AND PUSH1 0x60 DUP7 ADD MSTORE PUSH1 0x80 DUP6 ADD MSTORE ISZERO ISZERO PUSH1 0xA0 DUP5 ADD MSTORE PUSH1 0xC0 DUP4 ADD SWAP2 SWAP1 SWAP2 MSTORE PUSH1 0xE0 DUP3 ADD MSTORE PUSH2 0x100 ADD PUSH2 0x1C0 JUMP JUMPDEST CALLVALUE DUP1 ISZERO PUSH2 0x506 JUMPI PUSH1 0x0 DUP1 REVERT JUMPDEST POP PUSH1 0x7 SLOAD PUSH2 0x22A SWAP1 PUSH1 0x1 PUSH1 0x1 PUSH1 0xA0 SHL SUB AND DUP2 JUMP JUMPDEST PUSH2 0x1B6 PUSH2 0x528 CALLDATASIZE PUSH1 0x4 PUSH2 0x1BDF JUMP JUMPDEST PUSH2 0x10B5 JUMP JUMPDEST CALLVALUE DUP1 ISZERO PUSH2 0x539 JUMPI PUSH1 0x0 DUP1 REVERT JUMPDEST POP PUSH2 0x296 PUSH2 0x548 CALLDATASIZE PUSH1 0x4 PUSH2 0x1B4C JUMP JUMPDEST PUSH2 0x1341 JUMP JUMPDEST CALLVALUE DUP1 ISZERO PUSH2 0x559 JUMPI PUSH1 0x0 DUP1 REVERT JUMPDEST POP PUSH2 0x1B6 PUSH1 0x1 SLOAD DUP2 JUMP JUMPDEST CALLVALUE DUP1 ISZERO PUSH2 0x56F JUMPI PUSH1 0x0 DUP1 REVERT JUMPDEST POP PUSH2 0x296 PUSH2 0x15B4 JUMP JUMPDEST CALLVALUE DUP1 ISZERO PUSH2 0x584 JUMPI PUSH1 0x0 DUP1 REVERT JUMPDEST POP PUSH2 0x296 PUSH2 0x593 CALLDATASIZE PUSH1 0x4 PUSH2 0x1C01 JUMP JUMPDEST PUSH2 0x169C JUMP JUMPDEST CALLVALUE DUP1 ISZERO PUSH2 0x5A4 JUMPI PUSH1 0x0 DUP1 REVERT JUMPDEST POP PUSH2 0x1B6 PUSH1 0x3 SLOAD DUP2 JUMP JUMPDEST CALLVALUE DUP1 ISZERO PUSH2 0x5BA JUMPI PUSH1 0x0 DUP1 REVERT JUMPDEST POP PUSH2 0x1B6 PUSH1 0xA SLOAD DUP2 JUMP JUMPDEST PUSH1 0x0 PUSH3 0xF4240 PUSH1 0xB SLOAD PUSH2 0x5D5 PUSH2 0x107A JUMP JUMPDEST PUSH2 0x5DF SWAP2 SWAP1 PUSH2 0x1C34 JUMP JUMPDEST PUSH2 0x5E9 SWAP2 SWAP1 PUSH2 0x1C53 JUMP JUMPDEST SWAP1 POP SWAP1 JUMP JUMPDEST PUSH1 0x0 PUSH2 0x5F8 PUSH2 0x5C4 JUMP JUMPDEST PUSH2 0x600 PUSH2 0x5C4 JUMP JUMPDEST PUSH2 0x608 PUSH2 0x107A JUMP JUMPDEST PUSH2 0x612 SWAP2 SWAP1 PUSH2 0x1C75 JUMP JUMPDEST PUSH2 0x5E9 SWAP2 SWAP1 PUSH2 0x1C75 JUMP JUMPDEST PUSH1 0x0 DUP2 PUSH1 0x6 SLOAD DUP2 GT ISZERO DUP1 ISZERO PUSH2 0x631 JUMPI POP PUSH1 0x0 DUP2 GT JUMPDEST PUSH2 0x676 JUMPI PUSH1 0x40 MLOAD PUSH3 0x461BCD PUSH1 0xE5 SHL DUP2 MSTORE PUSH1 0x20 PUSH1 0x4 DUP3 ADD MSTORE PUSH1 0x11 PUSH1 0x24 DUP3 ADD MSTORE PUSH17 0x18DB185A5B5259081B9BDD081D985B1A59 PUSH1 0x7A SHL PUSH1 0x44 DUP3 ADD MSTORE PUSH1 0x64 ADD JUMPDEST PUSH1 0x40 MLOAD DUP1 SWAP2 SUB SWAP1 REVERT JUMPDEST PUSH1 0x0 DUP4 DUP2 MSTORE PUSH1 0x9 PUSH1 0x20 SWAP1 DUP2 MSTORE PUSH1 0x40 DUP1 DUP4 KECCAK256 DUP1 SLOAD DUP5 MSTORE PUSH1 0x8 SWAP1 SWAP3 MSTORE SWAP1 SWAP2 KECCAK256 PUSH1 0x5 DUP3 ADD SLOAD PUSH1 0xFF AND ISZERO PUSH2 0x6E8 JUMPI PUSH1 0x40 MLOAD PUSH3 0x461BCD PUSH1 0xE5 SHL DUP2 MSTORE PUSH1 0x20 PUSH1 0x4 DUP3 ADD MSTORE PUSH1 0x17 PUSH1 0x24 DUP3 ADD MSTORE PUSH32 0x436C61696D20616C72656164792077697468647261776E000000000000000000 PUSH1 0x44 DUP3 ADD MSTORE PUSH1 0x64 ADD PUSH2 0x66D JUMP JUMPDEST DUP2 SLOAD PUSH1 0x2 DUP3 ADD SLOAD PUSH1 0x3 DUP4 ADD SLOAD PUSH1 0x4 DUP5 ADD SLOAD PUSH1 0x5 DUP6 ADD SLOAD PUSH1 0x7 DUP8 ADD SLOAD PUSH1 0x40 DUP1 MLOAD PUSH1 0x20 DUP1 DUP3 ADD SWAP9 SWAP1 SWAP9 MSTORE CHAINID DUP2 DUP4 ADD MSTORE PUSH1 0x60 DUP1 DUP3 ADD SWAP8 SWAP1 SWAP8 MSTORE PUSH12 0xFFFFFFFFFFFFFFFFFFFFFFFF NOT SWAP6 DUP8 SHL DUP7 AND PUSH1 0x80 DUP3 ADD MSTORE SWAP4 SWAP1 SWAP6 SHL SWAP1 SWAP4 AND PUSH1 0x94 DUP4 ADD MSTORE PUSH1 0xA8 DUP1 DUP4 ADD SWAP2 SWAP1 SWAP2 MSTORE DUP4 MLOAD DUP1 DUP4 SUB SWAP1 SWAP2 ADD DUP2 MSTORE PUSH1 0xC8 DUP3 ADD DUP5 MSTORE DUP1 MLOAD SWAP1 DUP6 ADD KECCAK256 PUSH1 0xE8 DUP3 ADD MSTORE PUSH2 0x108 DUP1 DUP3 ADD SWAP3 SWAP1 SWAP3 MSTORE DUP3 MLOAD DUP1 DUP3 SUB SWAP1 SWAP3 ADD DUP3 MSTORE PUSH2 0x128 ADD SWAP1 SWAP2 MSTORE DUP1 MLOAD SWAP2 ADD KECCAK256 PUSH1 0x0 SWAP1 PUSH1 0x6 DUP4 ADD SLOAD PUSH1 0x7 SLOAD PUSH1 0x40 MLOAD PUSH4 0xA64A2271 PUSH1 0xE0 SHL DUP2 MSTORE PUSH1 0x4 DUP2 ADD DUP5 SWAP1 MSTORE SWAP3 SWAP4 POP PUSH1 0x0 SWAP3 PUSH1 0x1 PUSH1 0x1 PUSH1 0xA0 SHL SUB SWAP3 DUP4 AND SWAP3 DUP5 SWAP3 AND SWAP1 PUSH4 0xA64A2271 SWAP1 PUSH1 0x24 ADD PUSH1 0x20 PUSH1 0x40 MLOAD DUP1 DUP4 SUB DUP2 DUP7 GAS STATICCALL ISZERO DUP1 ISZERO PUSH2 0x7E1 JUMPI RETURNDATASIZE PUSH1 0x0 DUP1 RETURNDATACOPY RETURNDATASIZE PUSH1 0x0 REVERT JUMPDEST POP POP POP POP PUSH1 0x40 MLOAD RETURNDATASIZE PUSH1 0x1F NOT PUSH1 0x1F DUP3 ADD AND DUP3 ADD DUP1 PUSH1 0x40 MSTORE POP DUP2 ADD SWAP1 PUSH2 0x805 SWAP2 SWAP1 PUSH2 0x1C8D JUMP JUMPDEST SWAP1 POP PUSH1 0x1 PUSH1 0x1 PUSH1 0xA0 SHL SUB DUP2 AND PUSH2 0x818 JUMPI POP DUP1 JUMPDEST PUSH1 0x1 PUSH1 0x1 PUSH1 0xA0 SHL SUB DUP2 AND PUSH2 0x8B2 JUMPI DUP6 PUSH1 0x6 ADD SLOAD TIMESTAMP LT ISZERO PUSH2 0x87A JUMPI PUSH1 0x40 MLOAD PUSH3 0x461BCD PUSH1 0xE5 SHL DUP2 MSTORE PUSH1 0x20 PUSH1 0x4 DUP3 ADD MSTORE PUSH1 0x19 PUSH1 0x24 DUP3 ADD MSTORE PUSH32 0x436C61696D20706572696F64206E6F742066696E697368656400000000000000 PUSH1 0x44 DUP3 ADD MSTORE PUSH1 0x64 ADD PUSH2 0x66D JUMP JUMPDEST DUP6 PUSH1 0x4 ADD SLOAD DUP7 PUSH1 0x2 ADD SLOAD GT PUSH2 0x89C JUMPI PUSH1 0x3 DUP7 ADD SLOAD PUSH1 0x1 PUSH1 0x1 PUSH1 0xA0 SHL SUB AND PUSH2 0x8AB JUMP JUMPDEST PUSH1 0x1 DUP7 ADD SLOAD PUSH1 0x1 PUSH1 0x1 PUSH1 0xA0 SHL SUB AND JUMPDEST SWAP3 POP PUSH2 0x8EF JUMP JUMPDEST PUSH1 0x1 DUP7 ADD SLOAD PUSH1 0x1 PUSH1 0x1 PUSH1 0xA0 SHL SUB DUP3 DUP2 AND SWAP2 AND EQ PUSH2 0x8DE JUMPI PUSH1 0x3 DUP7 ADD SLOAD PUSH1 0x1 PUSH1 0x1 PUSH1 0xA0 SHL SUB AND SWAP3 POP PUSH2 0x8EF JUMP JUMPDEST PUSH1 0x1 DUP7 ADD SLOAD PUSH1 0x1 PUSH1 0x1 PUSH1 0xA0 SHL SUB AND SWAP3 POP JUMPDEST PUSH1 0x5 DUP7 ADD DUP1 SLOAD PUSH1 0xFF NOT AND PUSH1 0x1 SWAP1 DUP2 OR SWAP1 SWAP2 SSTORE PUSH1 0x7 DUP7 ADD DUP1 SLOAD PUSH1 0x0 SWAP1 PUSH2 0x91E SWAP1 DUP5 SWAP1 PUSH1 0x1 PUSH1 0x1 PUSH1 0xC0 SHL SUB AND PUSH2 0x1CAA JUMP JUMPDEST SWAP3 POP PUSH2 0x100 EXP DUP2 SLOAD DUP2 PUSH1 0x1 PUSH1 0x1 PUSH1 0xC0 SHL SUB MUL NOT AND SWAP1 DUP4 PUSH1 0x1 PUSH1 0x1 PUSH1 0xC0 SHL SUB AND MUL OR SWAP1 SSTORE POP PUSH1 0x0 PUSH1 0x1 PUSH1 0x1 PUSH1 0xA0 SHL SUB AND DUP3 PUSH1 0x1 PUSH1 0x1 PUSH1 0xA0 SHL SUB AND EQ DUP1 ISZERO PUSH2 0x973 JUMPI POP PUSH1 0x1 DUP7 ADD SLOAD PUSH1 0x1 PUSH1 0x1 PUSH1 0xA0 SHL SUB DUP5 DUP2 AND SWAP2 AND EQ JUMPDEST ISZERO PUSH2 0x983 JUMPI PUSH2 0x983 DUP6 DUP8 DUP6 PUSH2 0x1737 JUMP JUMPDEST PUSH1 0x0 DUP7 PUSH1 0x4 ADD SLOAD DUP8 PUSH1 0x2 ADD SLOAD PUSH2 0x999 SWAP2 SWAP1 PUSH2 0x1C75 JUMP JUMPDEST SWAP1 POP PUSH1 0x1 PUSH1 0x1 PUSH1 0xA0 SHL SUB DUP5 AND ISZERO PUSH2 0xA23 JUMPI PUSH1 0x0 DUP5 PUSH1 0x1 PUSH1 0x1 PUSH1 0xA0 SHL SUB AND DUP3 PUSH1 0x40 MLOAD PUSH1 0x0 PUSH1 0x40 MLOAD DUP1 DUP4 SUB DUP2 DUP6 DUP8 GAS CALL SWAP3 POP POP POP RETURNDATASIZE DUP1 PUSH1 0x0 DUP2 EQ PUSH2 0x9F7 JUMPI PUSH1 0x40 MLOAD SWAP2 POP PUSH1 0x1F NOT PUSH1 0x3F RETURNDATASIZE ADD AND DUP3 ADD PUSH1 0x40 MSTORE RETURNDATASIZE DUP3 MSTORE RETURNDATASIZE PUSH1 0x0 PUSH1 0x20 DUP5 ADD RETURNDATACOPY PUSH2 0x9FC JUMP JUMPDEST PUSH1 0x60 SWAP2 POP JUMPDEST POP POP SWAP1 POP DUP1 PUSH2 0xA1D JUMPI PUSH1 0x40 MLOAD PUSH3 0x461BCD PUSH1 0xE5 SHL DUP2 MSTORE PUSH1 0x4 ADD PUSH2 0x66D SWAP1 PUSH2 0x1CD2 JUMP JUMPDEST POP PUSH2 0xA3E JUMP JUMPDEST DUP1 PUSH1 0xC PUSH1 0x0 DUP3 DUP3 SLOAD PUSH2 0xA35 SWAP2 SWAP1 PUSH2 0x1C75 JUMP JUMPDEST SWAP1 SWAP2 SSTORE POP ADDRESS SWAP5 POP POP JUMPDEST DUP7 SLOAD PUSH1 0x40 DUP1 MLOAD DUP13 DUP2 MSTORE PUSH1 0x20 DUP2 ADD SWAP3 SWAP1 SWAP3 MSTORE PUSH1 0x1 PUSH1 0x1 PUSH1 0xA0 SHL SUB DUP7 AND DUP3 DUP3 ADD MSTORE MLOAD PUSH32 0xC494C0D9B07FAE9D937A92117991D3017AD9408A7D344CAA86C184C47F7BD183 SWAP2 DUP2 SWAP1 SUB PUSH1 0x60 ADD SWAP1 LOG1 POP SWAP2 SWAP9 SWAP8 POP POP POP POP POP POP POP POP JUMP JUMPDEST PUSH1 0x0 DUP1 PUSH2 0xAA1 PUSH2 0x5C4 JUMP JUMPDEST PUSH2 0xAA9 PUSH2 0x107A JUMP JUMPDEST PUSH2 0xAB3 SWAP2 SWAP1 PUSH2 0x1C75 JUMP JUMPDEST SWAP1 POP PUSH1 0x0 PUSH2 0xABF PUSH2 0x5C4 JUMP JUMPDEST SWAP1 POP CALLVALUE PUSH2 0xACC DUP3 DUP5 PUSH2 0x1C75 JUMP JUMPDEST EQ PUSH2 0xB19 JUMPI PUSH1 0x40 MLOAD PUSH3 0x461BCD PUSH1 0xE5 SHL DUP2 MSTORE PUSH1 0x20 PUSH1 0x4 DUP3 ADD MSTORE PUSH1 0x19 PUSH1 0x24 DUP3 ADD MSTORE PUSH32 0x57726F6E6720616D6F756E74206F6620666565732073656E7400000000000000 PUSH1 0x44 DUP3 ADD MSTORE PUSH1 0x64 ADD PUSH2 0x66D JUMP JUMPDEST PUSH2 0x12C DUP5 LT ISZERO PUSH2 0xB6B JUMPI PUSH1 0x40 MLOAD PUSH3 0x461BCD PUSH1 0xE5 SHL DUP2 MSTORE PUSH1 0x20 PUSH1 0x4 DUP3 ADD MSTORE PUSH1 0x19 PUSH1 0x24 DUP3 ADD MSTORE PUSH32 0x56616C696469747920706572696F6420746F6F2073686F727400000000000000 PUSH1 0x44 DUP3 ADD MSTORE PUSH1 0x64 ADD PUSH2 0x66D JUMP JUMPDEST PUSH4 0x1DFE200 DUP5 GT ISZERO PUSH2 0xBBF JUMPI PUSH1 0x40 MLOAD PUSH3 0x461BCD PUSH1 0xE5 SHL DUP2 MSTORE PUSH1 0x20 PUSH1 0x4 DUP3 ADD MSTORE PUSH1 0x18 PUSH1 0x24 DUP3 ADD MSTORE PUSH32 0x56616C696469747920706572696F6420746F6F206C6F6E670000000000000000 PUSH1 0x44 DUP3 ADD MSTORE PUSH1 0x64 ADD PUSH2 0x66D JUMP JUMPDEST PUSH1 0x1 PUSH1 0x5 PUSH1 0x0 DUP3 DUP3 SLOAD PUSH2 0xBD2 SWAP2 SWAP1 PUSH2 0x1C75 JUMP JUMPDEST SWAP1 SWAP2 SSTORE POP POP PUSH1 0x5 DUP1 SLOAD PUSH1 0x0 SWAP1 DUP2 MSTORE PUSH1 0x8 PUSH1 0x20 MSTORE PUSH1 0x40 SWAP1 KECCAK256 DUP1 SLOAD CALLER PUSH1 0x1 PUSH1 0x1 PUSH1 0xA0 SHL SUB NOT SWAP2 DUP3 AND OR DUP3 SSTORE PUSH1 0x1 DUP3 ADD DUP1 SLOAD DUP3 AND PUSH1 0x1 PUSH1 0x1 PUSH1 0xA0 SHL SUB DUP14 DUP2 AND SWAP2 SWAP1 SWAP2 OR SWAP1 SWAP2 SSTORE PUSH1 0x2 DUP4 ADD DUP14 SWAP1 SSTORE PUSH1 0x3 DUP4 ADD DUP1 SLOAD DUP4 AND DUP13 DUP4 AND OR SWAP1 SSTORE PUSH1 0x4 DUP4 ADD DUP1 SLOAD DUP4 AND SWAP2 DUP12 AND SWAP2 SWAP1 SWAP2 OR SWAP1 SSTORE SWAP2 DUP2 ADD DUP8 SWAP1 SSTORE PUSH1 0x6 DUP2 ADD DUP1 SLOAD SWAP1 SWAP3 AND SWAP1 SWAP2 SSTORE PUSH2 0xC57 DUP6 TIMESTAMP PUSH2 0x1C75 JUMP JUMPDEST PUSH1 0x8 DUP3 ADD SSTORE PUSH1 0x9 DUP2 ADD DUP4 SWAP1 SSTORE PUSH1 0xA DUP2 ADD DUP3 SWAP1 SSTORE PUSH1 0x5 SLOAD PUSH1 0x40 DUP1 MLOAD SWAP2 DUP3 MSTORE PUSH1 0x20 DUP3 ADD DUP13 SWAP1 MSTORE PUSH1 0x1 PUSH1 0x1 PUSH1 0xA0 SHL SUB DUP12 DUP2 AND DUP4 DUP4 ADD MSTORE DUP11 DUP2 AND PUSH1 0x60 DUP5 ADD MSTORE DUP10 AND PUSH1 0x80 DUP4 ADD MSTORE PUSH1 0xA0 DUP3 ADD DUP9 SWAP1 MSTORE MLOAD PUSH32 0x79AA30E31996D325799B6F0FBFE55E365B572A6CD82924D616B560D3D9E57B33 SWAP2 DUP2 SWAP1 SUB PUSH1 0xC0 ADD SWAP1 LOG1 DUP9 PUSH2 0xCE1 PUSH1 0x1 PUSH1 0x1 PUSH1 0xA0 SHL SUB DUP3 AND CALLER ADDRESS DUP11 PUSH2 0x17EA JUMP JUMPDEST POP POP PUSH1 0x5 SLOAD SWAP10 SWAP9 POP POP POP POP POP POP POP POP POP JUMP JUMPDEST PUSH1 0x0 SLOAD PUSH1 0x1 PUSH1 0x1 PUSH1 0xA0 SHL SUB AND CALLER EQ PUSH2 0xD1D JUMPI PUSH1 0x40 MLOAD PUSH3 0x461BCD PUSH1 0xE5 SHL DUP2 MSTORE PUSH1 0x4 ADD PUSH2 0x66D SWAP1 PUSH2 0x1D00 JUMP JUMPDEST PUSH2 0xD27 PUSH1 0x0 PUSH2 0x185B JUMP JUMPDEST JUMP JUMPDEST DUP1 PUSH1 0x6 SLOAD DUP2 GT ISZERO DUP1 ISZERO PUSH2 0xD3C JUMPI POP PUSH1 0x0 DUP2 GT JUMPDEST PUSH2 0xD7C JUMPI PUSH1 0x40 MLOAD PUSH3 0x461BCD PUSH1 0xE5 SHL DUP2 MSTORE PUSH1 0x20 PUSH1 0x4 DUP3 ADD MSTORE PUSH1 0x11 PUSH1 0x24 DUP3 ADD MSTORE PUSH17 0x18DB185A5B5259081B9BDD081D985B1A59 PUSH1 0x7A SHL PUSH1 0x44 DUP3 ADD MSTORE PUSH1 0x64 ADD PUSH2 0x66D JUMP JUMPDEST PUSH1 0x0 DUP3 DUP2 MSTORE PUSH1 0x9 PUSH1 0x20 MSTORE PUSH1 0x40 SWAP1 KECCAK256 PUSH1 0x6 DUP2 ADD SLOAD TIMESTAMP LT PUSH2 0xDCD JUMPI PUSH1 0x40 MLOAD PUSH3 0x461BCD PUSH1 0xE5 SHL DUP2 MSTORE PUSH1 0x20 PUSH1 0x4 DUP3 ADD MSTORE PUSH1 0xD PUSH1 0x24 DUP3 ADD MSTORE PUSH13 0x10DB185A5B48195E1C1A5C9959 PUSH1 0x9A SHL PUSH1 0x44 DUP3 ADD MSTORE PUSH1 0x64 ADD PUSH2 0x66D JUMP JUMPDEST PUSH1 0x0 DUP1 PUSH1 0x0 DUP4 PUSH1 0x4 ADD SLOAD DUP5 PUSH1 0x2 ADD SLOAD GT ISZERO PUSH2 0xE9E JUMPI PUSH1 0x3 DUP5 ADD SLOAD PUSH1 0x1 PUSH1 0x1 PUSH1 0xA0 SHL SUB AND PUSH2 0xE6D JUMPI PUSH1 0x1 DUP5 ADD SLOAD PUSH1 0x1 PUSH1 0x1 PUSH1 0xA0 SHL SUB AND CALLER EQ ISZERO PUSH2 0xE51 JUMPI PUSH1 0x40 MLOAD PUSH3 0x461BCD PUSH1 0xE5 SHL DUP2 MSTORE PUSH1 0x20 PUSH1 0x4 DUP3 ADD MSTORE PUSH1 0x1A PUSH1 0x24 DUP3 ADD MSTORE PUSH32 0x43616E6E6F74206368616C6C656E6765206F776E20636C61696D000000000000 PUSH1 0x44 DUP3 ADD MSTORE PUSH1 0x64 ADD PUSH2 0x66D JUMP JUMPDEST POP PUSH1 0x3 DUP1 DUP5 ADD DUP1 SLOAD PUSH1 0x1 PUSH1 0x1 PUSH1 0xA0 SHL SUB NOT AND CALLER OR SWAP1 SSTORE SLOAD PUSH2 0xE72 JUMP JUMPDEST POP PUSH1 0x4 SLOAD JUMPDEST PUSH1 0x3 DUP5 ADD SLOAD PUSH1 0x4 DUP6 ADD SLOAD PUSH1 0x2 DUP7 ADD SLOAD PUSH1 0x1 PUSH1 0x1 PUSH1 0xA0 SHL SUB SWAP1 SWAP3 AND SWAP5 POP PUSH2 0xE97 SWAP2 PUSH2 0x1D35 JUMP JUMPDEST SWAP2 POP PUSH2 0xEC6 JUMP JUMPDEST PUSH1 0x1 DUP5 ADD SLOAD PUSH1 0x2 DUP6 ADD SLOAD PUSH1 0x4 DUP7 ADD SLOAD PUSH1 0x1 PUSH1 0x1 PUSH1 0xA0 SHL SUB SWAP1 SWAP3 AND SWAP5 POP PUSH2 0xEC3 SWAP2 PUSH2 0x1D35 JUMP JUMPDEST SWAP2 POP JUMPDEST CALLER PUSH1 0x1 PUSH1 0x1 PUSH1 0xA0 SHL SUB DUP5 AND EQ PUSH2 0xF17 JUMPI PUSH1 0x40 MLOAD PUSH3 0x461BCD PUSH1 0xE5 SHL DUP2 MSTORE PUSH1 0x20 PUSH1 0x4 DUP3 ADD MSTORE PUSH1 0x16 PUSH1 0x24 DUP3 ADD MSTORE PUSH22 0x139BDD08195B1A59DA589B19481D1BC81BDD5D189A59 PUSH1 0x52 SHL PUSH1 0x44 DUP3 ADD MSTORE PUSH1 0x64 ADD PUSH2 0x66D JUMP JUMPDEST DUP2 CALLVALUE GT PUSH2 0xF66 JUMPI PUSH1 0x40 MLOAD PUSH3 0x461BCD PUSH1 0xE5 SHL DUP2 MSTORE PUSH1 0x20 PUSH1 0x4 DUP3 ADD MSTORE PUSH1 0x19 PUSH1 0x24 DUP3 ADD MSTORE PUSH32 0x4E6F7420656E6F756768207374616B652070726F766964656400000000000000 PUSH1 0x44 DUP3 ADD MSTORE PUSH1 0x64 ADD PUSH2 0x66D JUMP JUMPDEST PUSH1 0x1 DUP5 ADD SLOAD PUSH1 0x1 PUSH1 0x1 PUSH1 0xA0 SHL SUB DUP5 DUP2 AND SWAP2 AND EQ ISZERO PUSH2 0xF9D JUMPI CALLVALUE DUP5 PUSH1 0x2 ADD PUSH1 0x0 DUP3 DUP3 SLOAD PUSH2 0xF92 SWAP2 SWAP1 PUSH2 0x1C75 JUMP JUMPDEST SWAP1 SWAP2 SSTORE POP PUSH2 0xFB7 SWAP1 POP JUMP JUMPDEST CALLVALUE DUP5 PUSH1 0x4 ADD PUSH1 0x0 DUP3 DUP3 SLOAD PUSH2 0xFB1 SWAP2 SWAP1 PUSH2 0x1C75 JUMP JUMPDEST SWAP1 SWAP2 SSTORE POP POP JUMPDEST PUSH1 0x6 DUP5 ADD SLOAD PUSH2 0xFCF SWAP1 PUSH2 0xFCA DUP4 TIMESTAMP PUSH2 0x1C75 JUMP JUMPDEST PUSH2 0x18AB JUMP JUMPDEST PUSH1 0x6 DUP6 ADD DUP2 SWAP1 SSTORE DUP5 SLOAD PUSH1 0x1 DUP7 ADD SLOAD PUSH1 0x2 DUP8 ADD SLOAD PUSH1 0x3 DUP9 ADD SLOAD PUSH1 0x4 DUP10 ADD SLOAD PUSH1 0x7 DUP11 ADD SLOAD PUSH1 0x40 MLOAD PUSH32 0x29FD2DF293BA511E44CA47212C915137020231ED3AC0EE7BD02A7A655275AD37 SWAP8 PUSH2 0x1035 SWAP8 SWAP7 DUP16 SWAP7 PUSH1 0x1 PUSH1 0x1 PUSH1 0xA0 SHL SUB SWAP2 DUP3 AND SWAP7 SWAP1 SWAP6 SWAP2 AND SWAP4 SWAP1 SWAP3 PUSH2 0x1D4C JUMP JUMPDEST PUSH1 0x40 MLOAD DUP1 SWAP2 SUB SWAP1 LOG1 POP POP POP POP POP POP JUMP JUMPDEST PUSH1 0x0 SLOAD PUSH1 0x1 PUSH1 0x1 PUSH1 0xA0 SHL SUB AND CALLER EQ PUSH2 0x106F JUMPI PUSH1 0x40 MLOAD PUSH3 0x461BCD PUSH1 0xE5 SHL DUP2 MSTORE PUSH1 0x4 ADD PUSH2 0x66D SWAP1 PUSH2 0x1D00 JUMP JUMPDEST PUSH1 0xA SWAP2 SWAP1 SWAP2 SSTORE PUSH1 0xB SSTORE JUMP JUMPDEST PUSH1 0xA SLOAD PUSH1 0x0 SWAP1 PUSH3 0x10621 SWAP1 PUSH3 0x25C0A SWAP1 PUSH2 0xFA51 SWAP1 DUP2 PUSH2 0x1099 DUP5 DUP7 PUSH2 0x1C75 JUMP JUMPDEST PUSH2 0x10A3 SWAP2 SWAP1 PUSH2 0x1C75 JUMP JUMPDEST PUSH2 0x10AD SWAP2 SWAP1 PUSH2 0x1C34 JUMP JUMPDEST SWAP4 POP POP POP POP SWAP1 JUMP JUMPDEST PUSH1 0x0 DUP3 PUSH1 0x5 SLOAD DUP2 GT ISZERO DUP1 ISZERO PUSH2 0x10CA JUMPI POP PUSH1 0x0 DUP2 GT JUMPDEST PUSH2 0x110C JUMPI PUSH1 0x40 MLOAD PUSH3 0x461BCD PUSH1 0xE5 SHL DUP2 MSTORE PUSH1 0x20 PUSH1 0x4 DUP3 ADD MSTORE PUSH1 0x13 PUSH1 0x24 DUP3 ADD MSTORE PUSH19 0x1C995C5D595CDD1259081B9BDD081D985B1A59 PUSH1 0x6A SHL PUSH1 0x44 DUP3 ADD MSTORE PUSH1 0x64 ADD PUSH2 0x66D JUMP JUMPDEST PUSH1 0x0 DUP5 DUP2 MSTORE PUSH1 0x8 PUSH1 0x20 DUP2 SWAP1 MSTORE PUSH1 0x40 SWAP1 SWAP2 KECCAK256 SWAP1 DUP2 ADD SLOAD TIMESTAMP LT PUSH2 0x1161 JUMPI PUSH1 0x40 MLOAD PUSH3 0x461BCD PUSH1 0xE5 SHL DUP2 MSTORE PUSH1 0x20 PUSH1 0x4 DUP3 ADD MSTORE PUSH1 0xF PUSH1 0x24 DUP3 ADD MSTORE PUSH15 0x14995C5D595CDD08195E1C1A5C9959 PUSH1 0x8A SHL PUSH1 0x44 DUP3 ADD MSTORE PUSH1 0x64 ADD PUSH2 0x66D JUMP JUMPDEST PUSH1 0x6 DUP2 ADD SLOAD PUSH1 0x1 PUSH1 0x1 PUSH1 0xA0 SHL SUB AND ISZERO PUSH2 0x11B8 JUMPI PUSH1 0x40 MLOAD PUSH3 0x461BCD PUSH1 0xE5 SHL DUP2 MSTORE PUSH1 0x20 PUSH1 0x4 DUP3 ADD MSTORE PUSH1 0x19 PUSH1 0x24 DUP3 ADD MSTORE PUSH25 0x2232B837B9B4BA1030B63932B0B23C903BB4BA34323930BBB7 PUSH1 0x39 SHL PUSH1 0x44 DUP3 ADD MSTORE PUSH1 0x64 ADD PUSH2 0x66D JUMP JUMPDEST PUSH1 0x1 SLOAD CALLVALUE EQ PUSH2 0x1200 JUMPI PUSH1 0x40 MLOAD PUSH3 0x461BCD PUSH1 0xE5 SHL DUP2 MSTORE PUSH1 0x20 PUSH1 0x4 DUP3 ADD MSTORE PUSH1 0x14 PUSH1 0x24 DUP3 ADD MSTORE PUSH20 0x125B9D985B1A59081CDD185AD948185B5BDD5B9D PUSH1 0x62 SHL PUSH1 0x44 DUP3 ADD MSTORE PUSH1 0x64 ADD PUSH2 0x66D JUMP JUMPDEST PUSH1 0x7 DUP2 ADD DUP1 SLOAD PUSH1 0x1 SWAP2 SWAP1 PUSH1 0x0 SWAP1 PUSH2 0x1221 SWAP1 DUP5 SWAP1 PUSH1 0x1 PUSH1 0x1 PUSH1 0xC0 SHL SUB AND PUSH2 0x1D8F JUMP JUMPDEST SWAP3 POP PUSH2 0x100 EXP DUP2 SLOAD DUP2 PUSH1 0x1 PUSH1 0x1 PUSH1 0xC0 SHL SUB MUL NOT AND SWAP1 DUP4 PUSH1 0x1 PUSH1 0x1 PUSH1 0xC0 SHL SUB AND MUL OR SWAP1 SSTORE POP PUSH1 0x1 PUSH1 0x6 PUSH1 0x0 DUP3 DUP3 SLOAD PUSH2 0x1258 SWAP2 SWAP1 PUSH2 0x1C75 JUMP JUMPDEST SWAP1 SWAP2 SSTORE POP POP PUSH1 0x6 SLOAD PUSH1 0x0 SWAP1 DUP2 MSTORE PUSH1 0x9 PUSH1 0x20 MSTORE PUSH1 0x40 DUP2 KECCAK256 DUP7 DUP2 SSTORE PUSH1 0x1 DUP1 DUP3 ADD DUP1 SLOAD PUSH1 0x1 PUSH1 0x1 PUSH1 0xA0 SHL SUB NOT SWAP1 DUP2 AND CALLER OR SWAP1 SWAP2 SSTORE SWAP1 SLOAD PUSH1 0x2 DUP1 DUP5 ADD SWAP2 SWAP1 SWAP2 SSTORE PUSH1 0x3 DUP4 ADD DUP1 SLOAD SWAP1 SWAP3 AND SWAP1 SWAP2 SSTORE PUSH1 0x4 DUP3 ADD SWAP3 SWAP1 SWAP3 SSTORE PUSH1 0x5 DUP2 ADD DUP1 SLOAD PUSH1 0xFF NOT AND SWAP1 SSTORE SWAP1 SLOAD PUSH2 0x12C0 SWAP1 TIMESTAMP PUSH2 0x1C75 JUMP JUMPDEST PUSH1 0x6 DUP1 DUP4 ADD DUP3 SWAP1 SSTORE PUSH1 0x7 DUP4 ADD DUP8 SWAP1 SSTORE SLOAD PUSH1 0x1 DUP4 ADD SLOAD PUSH1 0x2 DUP5 ADD SLOAD PUSH1 0x3 DUP6 ADD SLOAD PUSH1 0x4 DUP7 ADD SLOAD PUSH1 0x40 MLOAD PUSH32 0x29FD2DF293BA511E44CA47212C915137020231ED3AC0EE7BD02A7A655275AD37 SWAP7 PUSH2 0x132C SWAP7 DUP15 SWAP7 SWAP1 SWAP6 PUSH1 0x1 PUSH1 0x1 PUSH1 0xA0 SHL SUB SWAP2 DUP3 AND SWAP6 SWAP1 SWAP5 SWAP2 AND SWAP3 SWAP1 SWAP2 SWAP1 DUP15 SWAP1 PUSH2 0x1D4C JUMP JUMPDEST PUSH1 0x40 MLOAD DUP1 SWAP2 SUB SWAP1 LOG1 POP POP PUSH1 0x6 SLOAD SWAP5 SWAP4 POP POP POP POP JUMP JUMPDEST DUP1 PUSH1 0x5 SLOAD DUP2 GT ISZERO DUP1 ISZERO PUSH2 0x1354 JUMPI POP PUSH1 0x0 DUP2 GT JUMPDEST PUSH2 0x1396 JUMPI PUSH1 0x40 MLOAD PUSH3 0x461BCD PUSH1 0xE5 SHL DUP2 MSTORE PUSH1 0x20 PUSH1 0x4 DUP3 ADD MSTORE PUSH1 0x13 PUSH1 0x24 DUP3 ADD MSTORE PUSH19 0x1C995C5D595CDD1259081B9BDD081D985B1A59 PUSH1 0x6A SHL PUSH1 0x44 DUP3 ADD MSTORE PUSH1 0x64 ADD PUSH2 0x66D JUMP JUMPDEST PUSH1 0x0 DUP3 DUP2 MSTORE PUSH1 0x8 PUSH1 0x20 MSTORE PUSH1 0x40 SWAP1 KECCAK256 PUSH1 0x6 DUP2 ADD SLOAD PUSH1 0x1 PUSH1 0x1 PUSH1 0xA0 SHL SUB AND ISZERO PUSH2 0x13FB JUMPI PUSH1 0x40 MLOAD PUSH3 0x461BCD PUSH1 0xE5 SHL DUP2 MSTORE PUSH1 0x20 PUSH1 0x4 DUP3 ADD MSTORE PUSH1 0x19 PUSH1 0x24 DUP3 ADD MSTORE PUSH25 0x2232B837B9B4BA1030B63932B0B23C903BB4BA34323930BBB7 PUSH1 0x39 SHL PUSH1 0x44 DUP3 ADD MSTORE PUSH1 0x64 ADD PUSH2 0x66D JUMP JUMPDEST DUP1 PUSH1 0x8 ADD SLOAD TIMESTAMP LT ISZERO PUSH2 0x144F JUMPI PUSH1 0x40 MLOAD PUSH3 0x461BCD PUSH1 0xE5 SHL DUP2 MSTORE PUSH1 0x20 PUSH1 0x4 DUP3 ADD MSTORE PUSH1 0x17 PUSH1 0x24 DUP3 ADD MSTORE PUSH32 0x52657175657374206E6F74206578706972656420796574000000000000000000 PUSH1 0x44 DUP3 ADD MSTORE PUSH1 0x64 ADD PUSH2 0x66D JUMP JUMPDEST PUSH1 0x7 DUP2 ADD SLOAD PUSH1 0x1 PUSH1 0x1 PUSH1 0xC0 SHL SUB AND ISZERO PUSH2 0x14A2 JUMPI PUSH1 0x40 MLOAD PUSH3 0x461BCD PUSH1 0xE5 SHL DUP2 MSTORE PUSH1 0x20 PUSH1 0x4 DUP3 ADD MSTORE PUSH1 0x15 PUSH1 0x24 DUP3 ADD MSTORE PUSH21 0x41637469766520636C61696D732072756E6E696E67 PUSH1 0x58 SHL PUSH1 0x44 DUP3 ADD MSTORE PUSH1 0x64 ADD PUSH2 0x66D JUMP JUMPDEST DUP1 SLOAD PUSH1 0x6 DUP3 ADD DUP1 SLOAD PUSH1 0x1 PUSH1 0x1 PUSH1 0xA0 SHL SUB NOT AND PUSH1 0x1 PUSH1 0x1 PUSH1 0xA0 SHL SUB SWAP1 SWAP3 AND SWAP2 DUP3 OR SWAP1 SSTORE PUSH1 0x40 DUP1 MLOAD DUP6 DUP2 MSTORE PUSH1 0x20 DUP2 ADD SWAP3 SWAP1 SWAP3 MSTORE PUSH32 0xA7B86597910AAE75F7D99FEB2F37420CC80D457465FFBA0F8136D722A9F7095A SWAP2 ADD PUSH1 0x40 MLOAD DUP1 SWAP2 SUB SWAP1 LOG1 PUSH1 0x1 DUP2 ADD SLOAD DUP2 SLOAD PUSH1 0x5 DUP4 ADD SLOAD PUSH1 0x1 PUSH1 0x1 PUSH1 0xA0 SHL SUB SWAP3 DUP4 AND SWAP3 PUSH2 0x1524 SWAP3 DUP5 SWAP3 SWAP2 AND SWAP1 PUSH2 0x18C4 JUMP JUMPDEST DUP2 SLOAD PUSH1 0xA DUP4 ADD SLOAD PUSH1 0x9 DUP5 ADD SLOAD PUSH1 0x0 SWAP3 PUSH1 0x1 PUSH1 0x1 PUSH1 0xA0 SHL SUB AND SWAP2 PUSH2 0x1546 SWAP2 PUSH2 0x1C75 JUMP JUMPDEST PUSH1 0x40 MLOAD JUMPDEST PUSH1 0x0 PUSH1 0x40 MLOAD DUP1 DUP4 SUB DUP2 DUP6 DUP8 GAS CALL SWAP3 POP POP POP RETURNDATASIZE DUP1 PUSH1 0x0 DUP2 EQ PUSH2 0x1587 JUMPI PUSH1 0x40 MLOAD SWAP2 POP PUSH1 0x1F NOT PUSH1 0x3F RETURNDATASIZE ADD AND DUP3 ADD PUSH1 0x40 MSTORE RETURNDATASIZE DUP3 MSTORE RETURNDATASIZE PUSH1 0x0 PUSH1 0x20 DUP5 ADD RETURNDATACOPY PUSH2 0x158C JUMP JUMPDEST PUSH1 0x60 SWAP2 POP JUMPDEST POP POP SWAP1 POP DUP1 PUSH2 0x15AD JUMPI PUSH1 0x40 MLOAD PUSH3 0x461BCD PUSH1 0xE5 SHL DUP2 MSTORE PUSH1 0x4 ADD PUSH2 0x66D SWAP1 PUSH2 0x1CD2 JUMP JUMPDEST POP POP POP POP POP JUMP JUMPDEST PUSH1 0x0 SLOAD PUSH1 0x1 PUSH1 0x1 PUSH1 0xA0 SHL SUB AND CALLER EQ PUSH2 0x15DE JUMPI PUSH1 0x40 MLOAD PUSH3 0x461BCD PUSH1 0xE5 SHL DUP2 MSTORE PUSH1 0x4 ADD PUSH2 0x66D SWAP1 PUSH2 0x1D00 JUMP JUMPDEST PUSH1 0x0 PUSH1 0xC SLOAD GT PUSH2 0x1626 JUMPI PUSH1 0x40 MLOAD PUSH3 0x461BCD PUSH1 0xE5 SHL DUP2 MSTORE PUSH1 0x20 PUSH1 0x4 DUP3 ADD MSTORE PUSH1 0x13 PUSH1 0x24 DUP3 ADD MSTORE PUSH19 0x5A65726F206665657320617661696C61626C65 PUSH1 0x68 SHL PUSH1 0x44 DUP3 ADD MSTORE PUSH1 0x64 ADD PUSH2 0x66D JUMP JUMPDEST PUSH1 0xC DUP1 SLOAD PUSH1 0x0 SWAP2 DUP3 SWAP1 SSTORE PUSH1 0x40 MLOAD SWAP1 SWAP2 SWAP1 CALLER SWAP1 DUP4 SWAP1 DUP4 DUP2 DUP2 DUP2 DUP6 DUP8 GAS CALL SWAP3 POP POP POP RETURNDATASIZE DUP1 PUSH1 0x0 DUP2 EQ PUSH2 0x1672 JUMPI PUSH1 0x40 MLOAD SWAP2 POP PUSH1 0x1F NOT PUSH1 0x3F RETURNDATASIZE ADD AND DUP3 ADD PUSH1 0x40 MSTORE RETURNDATASIZE DUP3 MSTORE RETURNDATASIZE PUSH1 0x0 PUSH1 0x20 DUP5 ADD RETURNDATACOPY PUSH2 0x1677 JUMP JUMPDEST PUSH1 0x60 SWAP2 POP JUMPDEST POP POP SWAP1 POP DUP1 PUSH2 0x1698 JUMPI PUSH1 0x40 MLOAD PUSH3 0x461BCD PUSH1 0xE5 SHL DUP2 MSTORE PUSH1 0x4 ADD PUSH2 0x66D SWAP1 PUSH2 0x1CD2 JUMP JUMPDEST POP POP JUMP JUMPDEST PUSH1 0x0 SLOAD PUSH1 0x1 PUSH1 0x1 PUSH1 0xA0 SHL SUB AND CALLER EQ PUSH2 0x16C6 JUMPI PUSH1 0x40 MLOAD PUSH3 0x461BCD PUSH1 0xE5 SHL DUP2 MSTORE PUSH1 0x4 ADD PUSH2 0x66D SWAP1 PUSH2 0x1D00 JUMP JUMPDEST PUSH1 0x1 PUSH1 0x1 PUSH1 0xA0 SHL SUB DUP2 AND PUSH2 0x172B JUMPI PUSH1 0x40 MLOAD PUSH3 0x461BCD PUSH1 0xE5 SHL DUP2 MSTORE PUSH1 0x20 PUSH1 0x4 DUP3 ADD MSTORE PUSH1 0x26 PUSH1 0x24 DUP3 ADD MSTORE PUSH32 0x4F776E61626C653A206E6577206F776E657220697320746865207A65726F2061 PUSH1 0x44 DUP3 ADD MSTORE PUSH6 0x646472657373 PUSH1 0xD0 SHL PUSH1 0x64 DUP3 ADD MSTORE PUSH1 0x84 ADD PUSH2 0x66D JUMP JUMPDEST PUSH2 0x1734 DUP2 PUSH2 0x185B JUMP JUMPDEST POP JUMP JUMPDEST DUP3 PUSH1 0xA ADD SLOAD PUSH1 0xC PUSH1 0x0 DUP3 DUP3 SLOAD PUSH2 0x174D SWAP2 SWAP1 PUSH2 0x1C75 JUMP JUMPDEST SWAP1 SWAP2 SSTORE POP POP DUP2 SLOAD PUSH1 0x40 DUP1 MLOAD SWAP2 DUP3 MSTORE PUSH1 0x1 PUSH1 0x1 PUSH1 0xA0 SHL SUB DUP4 AND PUSH1 0x20 DUP4 ADD MSTORE PUSH32 0xA7B86597910AAE75F7D99FEB2F37420CC80D457465FFBA0F8136D722A9F7095A SWAP2 ADD PUSH1 0x40 MLOAD DUP1 SWAP2 SUB SWAP1 LOG1 PUSH1 0x1 DUP4 ADD SLOAD PUSH1 0x5 DUP5 ADD SLOAD PUSH1 0x1 PUSH1 0x1 PUSH1 0xA0 SHL SUB SWAP1 SWAP2 AND SWAP1 PUSH2 0x17B8 SWAP1 DUP3 SWAP1 DUP5 SWAP1 PUSH2 0x18C4 JUMP JUMPDEST PUSH1 0x6 DUP5 ADD DUP1 SLOAD PUSH1 0x1 PUSH1 0x1 PUSH1 0xA0 SHL SUB NOT AND PUSH1 0x1 PUSH1 0x1 PUSH1 0xA0 SHL SUB DUP5 AND SWAP1 DUP2 OR SWAP1 SWAP2 SSTORE PUSH1 0x9 DUP6 ADD SLOAD PUSH1 0x40 MLOAD PUSH1 0x0 SWAP3 SWAP2 SWAP1 PUSH2 0x154A JUMP JUMPDEST PUSH1 0x40 MLOAD PUSH1 0x1 PUSH1 0x1 PUSH1 0xA0 SHL SUB DUP1 DUP6 AND PUSH1 0x24 DUP4 ADD MSTORE DUP4 AND PUSH1 0x44 DUP3 ADD MSTORE PUSH1 0x64 DUP2 ADD DUP3 SWAP1 MSTORE PUSH2 0x1855 SWAP1 DUP6 SWAP1 PUSH4 0x23B872DD PUSH1 0xE0 SHL SWAP1 PUSH1 0x84 ADD JUMPDEST PUSH1 0x40 DUP1 MLOAD PUSH1 0x1F NOT DUP2 DUP5 SUB ADD DUP2 MSTORE SWAP2 SWAP1 MSTORE PUSH1 0x20 DUP2 ADD DUP1 MLOAD PUSH1 0x1 PUSH1 0x1 PUSH1 0xE0 SHL SUB AND PUSH1 0x1 PUSH1 0x1 PUSH1 0xE0 SHL SUB NOT SWAP1 SWAP4 AND SWAP3 SWAP1 SWAP3 OR SWAP1 SWAP2 MSTORE PUSH2 0x18F9 JUMP JUMPDEST POP POP POP POP JUMP JUMPDEST PUSH1 0x0 DUP1 SLOAD PUSH1 0x1 PUSH1 0x1 PUSH1 0xA0 SHL SUB DUP4 DUP2 AND PUSH1 0x1 PUSH1 0x1 PUSH1 0xA0 SHL SUB NOT DUP4 AND DUP2 OR DUP5 SSTORE PUSH1 0x40 MLOAD SWAP2 SWAP1 SWAP3 AND SWAP3 DUP4 SWAP2 PUSH32 0x8BE0079C531659141344CD1FD0A4F28419497F9722A3DAAFE3B4186F6B6457E0 SWAP2 SWAP1 LOG3 POP POP JUMP JUMPDEST PUSH1 0x0 DUP2 DUP4 LT ISZERO PUSH2 0x18BB JUMPI DUP2 PUSH2 0x18BD JUMP JUMPDEST DUP3 JUMPDEST SWAP4 SWAP3 POP POP POP JUMP JUMPDEST PUSH1 0x40 MLOAD PUSH1 0x1 PUSH1 0x1 PUSH1 0xA0 SHL SUB DUP4 AND PUSH1 0x24 DUP3 ADD MSTORE PUSH1 0x44 DUP2 ADD DUP3 SWAP1 MSTORE PUSH2 0x18F4 SWAP1 DUP5 SWAP1 PUSH4 0xA9059CBB PUSH1 0xE0 SHL SWAP1 PUSH1 0x64 ADD PUSH2 0x181E JUMP JUMPDEST POP POP POP JUMP JUMPDEST PUSH1 0x0 PUSH2 0x194E DUP3 PUSH1 0x40 MLOAD DUP1 PUSH1 0x40 ADD PUSH1 0x40 MSTORE DUP1 PUSH1 0x20 DUP2 MSTORE PUSH1 0x20 ADD PUSH32 0x5361666545524332303A206C6F772D6C6576656C2063616C6C206661696C6564 DUP2 MSTORE POP DUP6 PUSH1 0x1 PUSH1 0x1 PUSH1 0xA0 SHL SUB AND PUSH2 0x19CB SWAP1 SWAP3 SWAP2 SWAP1 PUSH4 0xFFFFFFFF AND JUMP JUMPDEST DUP1 MLOAD SWAP1 SWAP2 POP ISZERO PUSH2 0x18F4 JUMPI DUP1 DUP1 PUSH1 0x20 ADD SWAP1 MLOAD DUP2 ADD SWAP1 PUSH2 0x196C SWAP2 SWAP1 PUSH2 0x1DBA JUMP JUMPDEST PUSH2 0x18F4 JUMPI PUSH1 0x40 MLOAD PUSH3 0x461BCD PUSH1 0xE5 SHL DUP2 MSTORE PUSH1 0x20 PUSH1 0x4 DUP3 ADD MSTORE PUSH1 0x2A PUSH1 0x24 DUP3 ADD MSTORE PUSH32 0x5361666545524332303A204552433230206F7065726174696F6E20646964206E PUSH1 0x44 DUP3 ADD MSTORE PUSH10 0x1BDD081CDD58D8D95959 PUSH1 0xB2 SHL PUSH1 0x64 DUP3 ADD MSTORE PUSH1 0x84 ADD PUSH2 0x66D JUMP JUMPDEST PUSH1 0x60 PUSH2 0x19DA DUP5 DUP5 PUSH1 0x0 DUP6 PUSH2 0x19E2 JUMP JUMPDEST SWAP5 SWAP4 POP POP POP POP JUMP JUMPDEST PUSH1 0x60 DUP3 SELFBALANCE LT ISZERO PUSH2 0x1A43 JUMPI PUSH1 0x40 MLOAD PUSH3 0x461BCD PUSH1 0xE5 SHL DUP2 MSTORE PUSH1 0x20 PUSH1 0x4 DUP3 ADD MSTORE PUSH1 0x26 PUSH1 0x24 DUP3 ADD MSTORE PUSH32 0x416464726573733A20696E73756666696369656E742062616C616E636520666F PUSH1 0x44 DUP3 ADD MSTORE PUSH6 0x1C8818D85B1B PUSH1 0xD2 SHL PUSH1 0x64 DUP3 ADD MSTORE PUSH1 0x84 ADD PUSH2 0x66D JUMP JUMPDEST PUSH1 0x1 PUSH1 0x1 PUSH1 0xA0 SHL SUB DUP6 AND EXTCODESIZE PUSH2 0x1A9A JUMPI PUSH1 0x40 MLOAD PUSH3 0x461BCD PUSH1 0xE5 SHL DUP2 MSTORE PUSH1 0x20 PUSH1 0x4 DUP3 ADD MSTORE PUSH1 0x1D PUSH1 0x24 DUP3 ADD MSTORE PUSH32 0x416464726573733A2063616C6C20746F206E6F6E2D636F6E7472616374000000 PUSH1 0x44 DUP3 ADD MSTORE PUSH1 0x64 ADD PUSH2 0x66D JUMP JUMPDEST PUSH1 0x0 DUP1 DUP7 PUSH1 0x1 PUSH1 0x1 PUSH1 0xA0 SHL SUB AND DUP6 DUP8 PUSH1 0x40 MLOAD PUSH2 0x1AB6 SWAP2 SWAP1 PUSH2 0x1E08 JUMP JUMPDEST PUSH1 0x0 PUSH1 0x40 MLOAD DUP1 DUP4 SUB DUP2 DUP6 DUP8 GAS CALL SWAP3 POP POP POP RETURNDATASIZE DUP1 PUSH1 0x0 DUP2 EQ PUSH2 0x1AF3 JUMPI PUSH1 0x40 MLOAD SWAP2 POP PUSH1 0x1F NOT PUSH1 0x3F RETURNDATASIZE ADD AND DUP3 ADD PUSH1 0x40 MSTORE RETURNDATASIZE DUP3 MSTORE RETURNDATASIZE PUSH1 0x0 PUSH1 0x20 DUP5 ADD RETURNDATACOPY PUSH2 0x1AF8 JUMP JUMPDEST PUSH1 0x60 SWAP2 POP JUMPDEST POP SWAP2 POP SWAP2 POP PUSH2 0x1B08 DUP3 DUP3 DUP7 PUSH2 0x1B13 JUMP JUMPDEST SWAP8 SWAP7 POP POP POP POP POP POP POP JUMP JUMPDEST PUSH1 0x60 DUP4 ISZERO PUSH2 0x1B22 JUMPI POP DUP2 PUSH2 0x18BD JUMP JUMPDEST DUP3 MLOAD ISZERO PUSH2 0x1B32 JUMPI DUP3 MLOAD DUP1 DUP5 PUSH1 0x20 ADD REVERT JUMPDEST DUP2 PUSH1 0x40 MLOAD PUSH3 0x461BCD PUSH1 0xE5 SHL DUP2 MSTORE PUSH1 0x4 ADD PUSH2 0x66D SWAP2 SWAP1 PUSH2 0x1E24 JUMP JUMPDEST PUSH1 0x0 PUSH1 0x20 DUP3 DUP5 SUB SLT ISZERO PUSH2 0x1B5E JUMPI PUSH1 0x0 DUP1 REVERT JUMPDEST POP CALLDATALOAD SWAP2 SWAP1 POP JUMP JUMPDEST PUSH1 0x1 PUSH1 0x1 PUSH1 0xA0 SHL SUB DUP2 AND DUP2 EQ PUSH2 0x1734 JUMPI PUSH1 0x0 DUP1 REVERT JUMPDEST PUSH1 0x0 DUP1 PUSH1 0x0 DUP1 PUSH1 0x0 DUP1 PUSH1 0xC0 DUP8 DUP10 SUB SLT ISZERO PUSH2 0x1B93 JUMPI PUSH1 0x0 DUP1 REVERT JUMPDEST DUP7 CALLDATALOAD SWAP6 POP PUSH1 0x20 DUP8 ADD CALLDATALOAD PUSH2 0x1BA5 DUP2 PUSH2 0x1B65 JUMP JUMPDEST SWAP5 POP PUSH1 0x40 DUP8 ADD CALLDATALOAD PUSH2 0x1BB5 DUP2 PUSH2 0x1B65 JUMP JUMPDEST SWAP4 POP PUSH1 0x60 DUP8 ADD CALLDATALOAD PUSH2 0x1BC5 DUP2 PUSH2 0x1B65 JUMP JUMPDEST SWAP6 SWAP9 SWAP5 SWAP8 POP SWAP3 SWAP6 PUSH1 0x80 DUP2 ADD CALLDATALOAD SWAP5 PUSH1 0xA0 SWAP1 SWAP2 ADD CALLDATALOAD SWAP4 POP SWAP2 POP POP JUMP JUMPDEST PUSH1 0x0 DUP1 PUSH1 0x40 DUP4 DUP6 SUB SLT ISZERO PUSH2 0x1BF2 JUMPI PUSH1 0x0 DUP1 REVERT JUMPDEST POP POP DUP1 CALLDATALOAD SWAP3 PUSH1 0x20 SWAP1 SWAP2 ADD CALLDATALOAD SWAP2 POP JUMP JUMPDEST PUSH1 0x0 PUSH1 0x20 DUP3 DUP5 SUB SLT ISZERO PUSH2 0x1C13 JUMPI PUSH1 0x0 DUP1 REVERT JUMPDEST DUP2 CALLDATALOAD PUSH2 0x18BD DUP2 PUSH2 0x1B65 JUMP JUMPDEST PUSH4 0x4E487B71 PUSH1 0xE0 SHL PUSH1 0x0 MSTORE PUSH1 0x11 PUSH1 0x4 MSTORE PUSH1 0x24 PUSH1 0x0 REVERT JUMPDEST PUSH1 0x0 DUP2 PUSH1 0x0 NOT DIV DUP4 GT DUP3 ISZERO ISZERO AND ISZERO PUSH2 0x1C4E JUMPI PUSH2 0x1C4E PUSH2 0x1C1E JUMP JUMPDEST POP MUL SWAP1 JUMP JUMPDEST PUSH1 0x0 DUP3 PUSH2 0x1C70 JUMPI PUSH4 0x4E487B71 PUSH1 0xE0 SHL PUSH1 0x0 MSTORE PUSH1 0x12 PUSH1 0x4 MSTORE PUSH1 0x24 PUSH1 0x0 REVERT JUMPDEST POP DIV SWAP1 JUMP JUMPDEST PUSH1 0x0 DUP3 NOT DUP3 GT ISZERO PUSH2 0x1C88 JUMPI PUSH2 0x1C88 PUSH2 0x1C1E JUMP JUMPDEST POP ADD SWAP1 JUMP JUMPDEST PUSH1 0x0 PUSH1 0x20 DUP3 DUP5 SUB SLT ISZERO PUSH2 0x1C9F JUMPI PUSH1 0x0 DUP1 REVERT JUMPDEST DUP2 MLOAD PUSH2 0x18BD DUP2 PUSH2 0x1B65 JUMP JUMPDEST PUSH1 0x0 PUSH1 0x1 PUSH1 0x1 PUSH1 0xC0 SHL SUB DUP4 DUP2 AND SWAP1 DUP4 AND DUP2 DUP2 LT ISZERO PUSH2 0x1CCA JUMPI PUSH2 0x1CCA PUSH2 0x1C1E JUMP JUMPDEST SUB SWAP4 SWAP3 POP POP POP JUMP JUMPDEST PUSH1 0x20 DUP1 DUP3 MSTORE PUSH1 0x14 SWAP1 DUP3 ADD MSTORE PUSH20 0x2330B4B632B2103A379039B2B7321022BA3432B9 PUSH1 0x61 SHL PUSH1 0x40 DUP3 ADD MSTORE PUSH1 0x60 ADD SWAP1 JUMP JUMPDEST PUSH1 0x20 DUP1 DUP3 MSTORE DUP2 DUP2 ADD MSTORE PUSH32 0x4F776E61626C653A2063616C6C6572206973206E6F7420746865206F776E6572 PUSH1 0x40 DUP3 ADD MSTORE PUSH1 0x60 ADD SWAP1 JUMP JUMPDEST PUSH1 0x0 DUP3 DUP3 LT ISZERO PUSH2 0x1D47 JUMPI PUSH2 0x1D47 PUSH2 0x1C1E JUMP JUMPDEST POP SUB SWAP1 JUMP JUMPDEST SWAP8 DUP9 MSTORE PUSH1 0x20 DUP9 ADD SWAP7 SWAP1 SWAP7 MSTORE PUSH1 0x1 PUSH1 0x1 PUSH1 0xA0 SHL SUB SWAP5 DUP6 AND PUSH1 0x40 DUP9 ADD MSTORE PUSH1 0x60 DUP8 ADD SWAP4 SWAP1 SWAP4 MSTORE SWAP3 AND PUSH1 0x80 DUP6 ADD MSTORE PUSH1 0xA0 DUP5 ADD SWAP2 SWAP1 SWAP2 MSTORE PUSH1 0xC0 DUP4 ADD MSTORE PUSH1 0xE0 DUP3 ADD MSTORE PUSH2 0x100 ADD SWAP1 JUMP JUMPDEST PUSH1 0x0 PUSH1 0x1 PUSH1 0x1 PUSH1 0xC0 SHL SUB DUP3 DUP2 AND DUP5 DUP3 AND DUP1 DUP4 SUB DUP3 GT ISZERO PUSH2 0x1DB1 JUMPI PUSH2 0x1DB1 PUSH2 0x1C1E JUMP JUMPDEST ADD SWAP5 SWAP4 POP POP POP POP JUMP JUMPDEST PUSH1 0x0 PUSH1 0x20 DUP3 DUP5 SUB SLT ISZERO PUSH2 0x1DCC JUMPI PUSH1 0x0 DUP1 REVERT JUMPDEST DUP2 MLOAD DUP1 ISZERO ISZERO DUP2 EQ PUSH2 0x18BD JUMPI PUSH1 0x0 DUP1 REVERT JUMPDEST PUSH1 0x0 JUMPDEST DUP4 DUP2 LT ISZERO PUSH2 0x1DF7 JUMPI DUP2 DUP2 ADD MLOAD DUP4 DUP3 ADD MSTORE PUSH1 0x20 ADD PUSH2 0x1DDF JUMP JUMPDEST DUP4 DUP2 GT ISZERO PUSH2 0x1855 JUMPI POP POP PUSH1 0x0 SWAP2 ADD MSTORE JUMP JUMPDEST PUSH1 0x0 DUP3 MLOAD PUSH2 0x1E1A DUP2 DUP5 PUSH1 0x20 DUP8 ADD PUSH2 0x1DDC JUMP JUMPDEST SWAP2 SWAP1 SWAP2 ADD SWAP3 SWAP2 POP POP JUMP JUMPDEST PUSH1 0x20 DUP2 MSTORE PUSH1 0x0 DUP3 MLOAD DUP1 PUSH1 0x20 DUP5 ADD MSTORE PUSH2 0x1E43 DUP2 PUSH1 0x40 DUP6 ADD PUSH1 0x20 DUP8 ADD PUSH2 0x1DDC JUMP JUMPDEST PUSH1 0x1F ADD PUSH1 0x1F NOT AND SWAP2 SWAP1 SWAP2 ADD PUSH1 0x40 ADD SWAP3 SWAP2 POP POP JUMP INVALID LOG2 PUSH5 0x6970667358 0x22 SLT KECCAK256 0x26 0xC5 DUP9 JUMPDEST PUSH29 0x38C8C3A9274C0FDE75C7C14F0546FCA6E8CD9F49D19C8F5220F066473 PUSH16 0x6C634300080C00330000000000000000 ",
  "sha1": "9857bc926a4dbb893cd455ade95b2bfa9367db1d",
  "source": "// SPDX-License-Identifier: MIT\npragma solidity ^0.8.12;\n\nimport \"OpenZeppelin/openzeppelin-contracts@4.5.0/contracts/token/ERC20/IERC20.sol\";\nimport \"OpenZeppelin/openzeppelin-contracts@4.5.0/contracts/token/ERC20/utils/SafeERC20.sol\";\nimport \"OpenZeppelin/openzeppelin-contracts@4.5.0/contracts/utils/math/Math.sol\";\nimport \"OpenZeppelin/openzeppelin-contracts@4.5.0/contracts/access/Ownable.sol\";\n\nimport \"./BeamerUtils.sol\";\nimport \"./ResolutionRegistry.sol\";\n\ncontract RequestManager is Ownable {\n    using Math for uint256;\n    using SafeERC20 for IERC20;\n\n    // Structs\n    // TODO: check if we can use a smaller type for `targetChainId`, so that the\n    // fields can be packed into one storage slot\n    struct Request {\n        address sender;\n        address sourceTokenAddress;\n        uint256 targetChainId;\n        address targetTokenAddress;\n        address targetAddress;\n        uint256 amount;\n        address depositReceiver;\n        uint192 activeClaims;\n        uint256 validUntil;\n        uint256 lpFee;\n        uint256 beamerFee;\n    }\n\n    struct Claim {\n        uint256 requestId;\n        address claimer;\n        uint256 claimerStake;\n        address challenger;\n        uint256 challengerStake;\n        bool withdrawn;\n        uint256 termination;\n        bytes32 fillId;\n    }\n\n    // Events\n    event RequestCreated(\n        uint256 requestId,\n        uint256 targetChainId,\n        address sourceTokenAddress,\n        address targetTokenAddress,\n        address targetAddress,\n        uint256 amount\n    );\n\n    event DepositWithdrawn(\n        uint256 requestId,\n        address receiver\n    );\n\n    event ClaimMade(\n        uint256 requestId,\n        uint256 claimId,\n        address claimer,\n        uint256 claimerStake,\n        address challenger,\n        uint256 challengerStake,\n        uint256 termination,\n        bytes32 fillId\n    );\n\n    event ClaimWithdrawn(\n        uint256 claimId,\n        uint256 requestId,\n        address claimReceiver\n    );\n\n    // Constants\n    uint256 public claimStake;\n    uint256 public claimPeriod;\n    uint256 public challengePeriod;\n    uint256 public challengePeriodExtension;\n\n    uint256 public constant MIN_VALIDITY_PERIOD = 5 minutes;\n    uint256 public constant MAX_VALIDITY_PERIOD = 52 weeks;\n\n    // Variables\n    uint256 public requestCounter;\n    uint256 public claimCounter;\n    ResolutionRegistry public resolutionRegistry;\n\n    mapping (uint256 => Request) public requests;\n    mapping (uint256 => Claim) public claims;\n\n    uint256 public gasPrice = 5e9;\n    uint256 private serviceFeePPM = 45_000;  //4.5%\n\n    // beamer fee tracking\n    uint256 public collectedBeamerFees = 0;\n\n    // The optimizer should take care of eval'ing this\n    function gasReimbursementFee() public view returns (uint256) {\n        uint256 fillGas = 67105;\n        uint256 claimGas = 154634;\n        uint256 withdrawGas = 64081;\n\n        return (fillGas + claimGas + withdrawGas) * gasPrice;\n    }\n\n    function lpServiceFee() public view returns (uint256) {\n        return gasReimbursementFee() * serviceFeePPM / 1_000_000;\n    }\n\n    function beamerServiceFee() public view returns (uint256) {\n        return gasReimbursementFee() * serviceFeePPM / 1_000_000;\n    }\n\n    function totalFee() public view returns (uint256) {\n        return gasReimbursementFee() + lpServiceFee() + beamerServiceFee();\n    }\n\n\n    // Modifiers\n    modifier validRequestId(uint256 requestId) {\n        require(requestId <= requestCounter && requestId > 0, \"requestId not valid\");\n        _;\n    }\n\n    modifier validClaimId(uint256 claimId) {\n        require(claimId <= claimCounter && claimId > 0, \"claimId not valid\");\n        _;\n    }\n\n    constructor(\n        uint256 _claimStake,\n        uint256 _claimPeriod,\n        uint256 _challengePeriod,\n        uint256 _challengePeriodExtension,\n        address _resolutionRegistry\n    ) {\n        claimStake = _claimStake;\n        claimPeriod = _claimPeriod;\n        challengePeriod = _challengePeriod;\n        challengePeriodExtension = _challengePeriodExtension;\n        resolutionRegistry = ResolutionRegistry(_resolutionRegistry);\n    }\n\n    function createRequest(\n        uint256 targetChainId,\n        address sourceTokenAddress,\n        address targetTokenAddress,\n        address targetAddress,\n        uint256 amount,\n        uint256 validityPeriod\n    )\n    external payable returns (uint256)\n    {\n        uint256 lpFee = gasReimbursementFee() + lpServiceFee();\n        uint256 beamerFee = beamerServiceFee();\n        require(lpFee + beamerFee == msg.value, \"Wrong amount of fees sent\");\n        require(validityPeriod >= MIN_VALIDITY_PERIOD, \"Validity period too short\");\n        require(validityPeriod <= MAX_VALIDITY_PERIOD, \"Validity period too long\");\n\n        requestCounter += 1;\n        Request storage newRequest = requests[requestCounter];\n        newRequest.sender = msg.sender;\n        newRequest.sourceTokenAddress = sourceTokenAddress;\n        newRequest.targetChainId = targetChainId;\n        newRequest.targetTokenAddress = targetTokenAddress;\n        newRequest.targetAddress = targetAddress;\n        newRequest.amount = amount;\n        newRequest.depositReceiver = address(0);\n        newRequest.validUntil = block.timestamp + validityPeriod;\n        newRequest.lpFee = lpFee;\n        newRequest.beamerFee = beamerFee;\n\n        emit RequestCreated(\n            requestCounter,\n            targetChainId,\n            sourceTokenAddress,\n            targetTokenAddress,\n            targetAddress,\n            amount\n        );\n\n        IERC20 token = IERC20(sourceTokenAddress);\n        token.safeTransferFrom(msg.sender, address(this), amount);\n\n        return requestCounter;\n    }\n\n    function withdrawExpiredRequest(uint256 requestId) external validRequestId(requestId) {\n        Request storage request = requests[requestId];\n\n        require(request.depositReceiver == address(0), \"Deposit already withdrawn\");\n        require(block.timestamp >= request.validUntil, \"Request not expired yet\");\n        require(request.activeClaims == 0, \"Active claims running\");\n\n        request.depositReceiver = request.sender;\n\n        emit DepositWithdrawn(requestId, request.sender);\n\n        IERC20 token = IERC20(request.sourceTokenAddress);\n        token.safeTransfer(request.sender, request.amount);\n\n        (bool sent,) = request.sender.call{value: request.lpFee + request.beamerFee}(\"\");\n        require(sent, \"Failed to send Ether\");\n    }\n\n    function claimRequest(uint256 requestId, bytes32 fillId)\n        external validRequestId(requestId) payable returns (uint256)\n    {\n        Request storage request = requests[requestId];\n\n        require(block.timestamp < request.validUntil, \"Request expired\");\n        require(request.depositReceiver == address(0), \"Deposit already withdrawn\");\n        require(msg.value == claimStake, \"Invalid stake amount\");\n\n        request.activeClaims += 1;\n        claimCounter += 1;\n\n        Claim storage claim = claims[claimCounter];\n        claim.requestId = requestId;\n        claim.claimer = msg.sender;\n        claim.claimerStake = claimStake;\n        claim.challenger = address(0);\n        claim.challengerStake = 0;\n        claim.withdrawn = false;\n        claim.termination = block.timestamp + claimPeriod;\n        claim.fillId = fillId;\n\n        emit ClaimMade(\n            requestId,\n            claimCounter,\n            claim.claimer,\n            claim.claimerStake,\n            claim.challenger,\n            claim.challengerStake,\n            claim.termination,\n            fillId\n        );\n\n        return claimCounter;\n    }\n\n    function challengeClaim(uint256 claimId) external validClaimId(claimId) payable {\n        Claim storage claim = claims[claimId];\n        require(block.timestamp < claim.termination, \"Claim expired\");\n\n        address nextActor;\n        uint256 minValue;\n        uint256 periodExtension;\n\n        if (claim.claimerStake > claim.challengerStake) {\n            if (claim.challenger == address(0)) {\n                require(claim.claimer != msg.sender, \"Cannot challenge own claim\");\n                claim.challenger = msg.sender;\n                periodExtension = challengePeriod;\n            } else {\n                periodExtension = challengePeriodExtension;\n            }\n            nextActor = claim.challenger;\n            minValue = claim.claimerStake - claim.challengerStake;\n        } else {\n            nextActor = claim.claimer;\n            minValue = claim.challengerStake - claim.claimerStake;\n        }\n\n        require(msg.sender == nextActor, \"Not eligible to outbid\");\n        require(msg.value > minValue, \"Not enough stake provided\");\n\n        if (nextActor == claim.claimer) {\n            claim.claimerStake += msg.value;\n        } else {\n            claim.challengerStake += msg.value;\n        }\n\n        claim.termination = Math.max(claim.termination, block.timestamp + periodExtension);\n\n        emit ClaimMade(\n            claim.requestId,\n            claimId,\n            claim.claimer,\n            claim.claimerStake,\n            claim.challenger,\n            claim.challengerStake,\n            claim.termination,\n            claim.fillId\n        );\n    }\n\n    function withdraw(uint256 claimId) external validClaimId(claimId) returns (address) {\n        Claim storage claim = claims[claimId];\n        Request storage request = requests[claim.requestId];\n        require(!claim.withdrawn, \"Claim already withdrawn\");\n\n        bytes32 fillHash = BeamerUtils.createFillHash(\n                claim.requestId,\n                block.chainid,\n                request.targetChainId,\n                request.targetTokenAddress,\n                request.targetAddress,\n                request.amount,\n                claim.fillId\n            );\n\n        address claimReceiver;\n        address depositReceiver = request.depositReceiver;\n\n        // Priority list for claim settlement, settlement according to\n        // 1) resolutionRegistry entry, the filler\n        // 2) depositReceiver, the address that withdrew the deposit with a valid claim\n        // 3) claim properties\n        address filler = resolutionRegistry.fillers(fillHash);\n        if(filler == address(0)) {\n            filler = depositReceiver;\n        }\n\n        if (filler == address(0)) {\n            // Claim resolution via claim properties\n            require(block.timestamp >= claim.termination, \"Claim period not finished\");\n            claimReceiver = claim.claimerStake > claim.challengerStake ? claim.claimer : claim.challenger;\n        } else if (filler != claim.claimer) {\n            // Claim resolution via 1) or 2) but claim is invalid (challenger wins challenge)\n            claimReceiver = claim.challenger;\n        } else {\n            // Claim resolution via 1) or 2) and claim is valid (claimer wins challenge)\n            claimReceiver = claim.claimer;\n        }\n\n        claim.withdrawn = true;\n        request.activeClaims -= 1;\n\n        if (depositReceiver == address(0) && claimReceiver == claim.claimer) {\n            withdrawDeposit(request, claim, claimReceiver);\n        }\n\n        // The claim is set the `withdrawn` state above, so the following effects\n        // needs to happen afterwards to avoid reentrency problems\n        uint256 ethToTransfer = claim.claimerStake + claim.challengerStake;\n\n        // The unlikely event is possible that a false claim has no challenger\n        // If it is known that the claim is false then the claim stake goes to the platform\n        if(claimReceiver != address(0)) {\n            (bool sent,) = claimReceiver.call{value: ethToTransfer}(\"\");\n            require(sent, \"Failed to send Ether\");\n        }\n        else {\n            collectedBeamerFees += ethToTransfer;\n            claimReceiver = address(this);\n        }\n\n        emit ClaimWithdrawn(\n            claimId,\n            claim.requestId,\n            claimReceiver\n        );\n\n        return claimReceiver;\n    }\n\n    function withdrawDeposit(\n        Request storage request,\n        Claim storage claim,\n        address depositReceiver\n    ) private {\n        collectedBeamerFees += request.beamerFee;\n\n        emit DepositWithdrawn(\n            claim.requestId,\n            depositReceiver\n        );\n\n        IERC20 token = IERC20(request.sourceTokenAddress);\n        token.safeTransfer(depositReceiver, request.amount);\n        request.depositReceiver = depositReceiver;\n\n        (bool sent,) = depositReceiver.call{value: request.lpFee}(\"\");\n        require(sent, \"Failed to send Ether\");\n    }\n\n    function withdrawbeamerFees() external onlyOwner {\n        require(collectedBeamerFees > 0, \"Zero fees available\");\n\n        uint256 feeAmount = collectedBeamerFees;\n        collectedBeamerFees = 0;\n\n        (bool sent,) = msg.sender.call{value: feeAmount}(\"\");\n        require(sent, \"Failed to send Ether\");\n    }\n\n    function updateFeeData(uint256 newGasPrice, uint256 newServiceFeePPM) external onlyOwner {\n        gasPrice = newGasPrice;\n        serviceFeePPM = newServiceFeePPM;\n    }\n}\n",
  "sourcePath": "contracts/contracts/RequestManager.sol",
  "type": "contract"
}