{
  "abi": [
    {
      "inputs": [
        {
          "internalType": "uint256",
          "name": "_claimStake",
          "type": "uint256"
        },
        {
          "internalType": "uint256",
          "name": "_claimPeriod",
          "type": "uint256"
        },
        {
          "internalType": "uint256",
          "name": "_challengePeriodExtension",
          "type": "uint256"
        }
      ],
      "stateMutability": "nonpayable",
      "type": "constructor"
    },
    {
      "anonymous": false,
      "inputs": [
        {
          "indexed": true,
          "internalType": "bytes32",
          "name": "requestId",
          "type": "bytes32"
        },
        {
          "indexed": false,
          "internalType": "uint256",
          "name": "claimId",
          "type": "uint256"
        },
        {
          "indexed": false,
          "internalType": "address",
          "name": "claimer",
          "type": "address"
        },
        {
          "indexed": false,
          "internalType": "uint256",
          "name": "claimerStake",
          "type": "uint256"
        },
        {
          "indexed": false,
          "internalType": "address",
          "name": "lastChallenger",
          "type": "address"
        },
        {
          "indexed": false,
          "internalType": "uint256",
          "name": "challengerStakeTotal",
          "type": "uint256"
        },
        {
          "indexed": false,
          "internalType": "uint256",
          "name": "termination",
          "type": "uint256"
        },
        {
          "indexed": false,
          "internalType": "bytes32",
          "name": "fillId",
          "type": "bytes32"
        }
      ],
      "name": "ClaimMade",
      "type": "event"
    },
    {
      "anonymous": false,
      "inputs": [
        {
          "indexed": false,
          "internalType": "uint256",
          "name": "claimId",
          "type": "uint256"
        },
        {
          "indexed": true,
          "internalType": "bytes32",
          "name": "requestId",
          "type": "bytes32"
        },
        {
          "indexed": false,
          "internalType": "address",
          "name": "claimReceiver",
          "type": "address"
        }
      ],
      "name": "ClaimStakeWithdrawn",
      "type": "event"
    },
    {
      "anonymous": false,
      "inputs": [
        {
          "indexed": false,
          "internalType": "bytes32",
          "name": "requestId",
          "type": "bytes32"
        },
        {
          "indexed": false,
          "internalType": "address",
          "name": "receiver",
          "type": "address"
        }
      ],
      "name": "DepositWithdrawn",
      "type": "event"
    },
    {
      "anonymous": false,
      "inputs": [
        {
          "indexed": false,
          "internalType": "bytes32",
          "name": "requestId",
          "type": "bytes32"
        },
        {
          "indexed": false,
          "internalType": "bytes32",
          "name": "fillId",
          "type": "bytes32"
        }
      ],
      "name": "FillInvalidatedResolved",
      "type": "event"
    },
    {
      "anonymous": false,
      "inputs": [
        {
          "indexed": false,
          "internalType": "uint256",
          "name": "targetChainId",
          "type": "uint256"
        },
        {
          "indexed": false,
          "internalType": "uint256",
          "name": "finalityPeriod",
          "type": "uint256"
        }
      ],
      "name": "FinalityPeriodUpdated",
      "type": "event"
    },
    {
      "anonymous": false,
      "inputs": [
        {
          "indexed": false,
          "internalType": "address",
          "name": "lp",
          "type": "address"
        }
      ],
      "name": "LpAdded",
      "type": "event"
    },
    {
      "anonymous": false,
      "inputs": [
        {
          "indexed": false,
          "internalType": "address",
          "name": "lp",
          "type": "address"
        }
      ],
      "name": "LpRemoved",
      "type": "event"
    },
    {
      "anonymous": false,
      "inputs": [
        {
          "indexed": true,
          "internalType": "address",
          "name": "previousOwner",
          "type": "address"
        },
        {
          "indexed": true,
          "internalType": "address",
          "name": "newOwner",
          "type": "address"
        }
      ],
      "name": "OwnershipTransferred",
      "type": "event"
    },
    {
      "anonymous": false,
      "inputs": [
        {
          "indexed": true,
          "internalType": "bytes32",
          "name": "requestId",
          "type": "bytes32"
        },
        {
          "indexed": false,
          "internalType": "uint256",
          "name": "targetChainId",
          "type": "uint256"
        },
        {
          "indexed": false,
          "internalType": "address",
          "name": "sourceTokenAddress",
          "type": "address"
        },
        {
          "indexed": false,
          "internalType": "address",
          "name": "targetTokenAddress",
          "type": "address"
        },
        {
          "indexed": false,
          "internalType": "address",
          "name": "targetAddress",
          "type": "address"
        },
        {
          "indexed": false,
          "internalType": "uint256",
          "name": "amount",
          "type": "uint256"
        },
        {
          "indexed": false,
          "internalType": "uint256",
          "name": "nonce",
          "type": "uint256"
        },
        {
          "indexed": false,
          "internalType": "uint256",
          "name": "validUntil",
          "type": "uint256"
        }
      ],
      "name": "RequestCreated",
      "type": "event"
    },
    {
      "anonymous": false,
      "inputs": [
        {
          "indexed": false,
          "internalType": "bytes32",
          "name": "requestId",
          "type": "bytes32"
        },
        {
          "indexed": false,
          "internalType": "address",
          "name": "filler",
          "type": "address"
        },
        {
          "indexed": false,
          "internalType": "bytes32",
          "name": "fillId",
          "type": "bytes32"
        }
      ],
      "name": "RequestResolved",
      "type": "event"
    },
    {
      "inputs": [],
      "name": "CLAIM_ID_WITHDRAWN_EXPIRED",
      "outputs": [
        {
          "internalType": "uint256",
          "name": "",
          "type": "uint256"
        }
      ],
      "stateMutability": "view",
      "type": "function"
    },
    {
      "inputs": [],
      "name": "MAX_VALIDITY_PERIOD",
      "outputs": [
        {
          "internalType": "uint256",
          "name": "",
          "type": "uint256"
        }
      ],
      "stateMutability": "view",
      "type": "function"
    },
    {
      "inputs": [],
      "name": "MIN_VALIDITY_PERIOD",
      "outputs": [
        {
          "internalType": "uint256",
          "name": "",
          "type": "uint256"
        }
      ],
      "stateMutability": "view",
      "type": "function"
    },
    {
      "inputs": [
        {
          "internalType": "address",
          "name": "newLp",
          "type": "address"
        }
      ],
      "name": "addAllowedLp",
      "outputs": [],
      "stateMutability": "nonpayable",
      "type": "function"
    },
    {
      "inputs": [
        {
          "internalType": "uint256",
          "name": "callerChainId",
          "type": "uint256"
        },
        {
          "internalType": "address",
          "name": "caller",
          "type": "address"
        },
        {
          "internalType": "address",
          "name": "messenger",
          "type": "address"
        }
      ],
      "name": "addCaller",
      "outputs": [],
      "stateMutability": "nonpayable",
      "type": "function"
    },
    {
      "inputs": [
        {
          "internalType": "address",
          "name": "caller",
          "type": "address"
        }
      ],
      "name": "addCaller",
      "outputs": [],
      "stateMutability": "nonpayable",
      "type": "function"
    },
    {
      "inputs": [
        {
          "internalType": "address",
          "name": "",
          "type": "address"
        }
      ],
      "name": "allowedLps",
      "outputs": [
        {
          "internalType": "bool",
          "name": "",
          "type": "bool"
        }
      ],
      "stateMutability": "view",
      "type": "function"
    },
    {
      "inputs": [
        {
          "internalType": "uint256",
          "name": "",
          "type": "uint256"
        },
        {
          "internalType": "uint256",
          "name": "",
          "type": "uint256"
        }
      ],
      "name": "callers",
      "outputs": [
        {
          "internalType": "address",
          "name": "",
          "type": "address"
        }
      ],
      "stateMutability": "view",
      "type": "function"
    },
    {
      "inputs": [
        {
          "internalType": "uint256",
          "name": "claimId",
          "type": "uint256"
        }
      ],
      "name": "challengeClaim",
      "outputs": [],
      "stateMutability": "payable",
      "type": "function"
    },
    {
      "inputs": [],
      "name": "challengePeriodExtension",
      "outputs": [
        {
          "internalType": "uint256",
          "name": "",
          "type": "uint256"
        }
      ],
      "stateMutability": "view",
      "type": "function"
    },
    {
      "inputs": [],
      "name": "claimPeriod",
      "outputs": [
        {
          "internalType": "uint256",
          "name": "",
          "type": "uint256"
        }
      ],
      "stateMutability": "view",
      "type": "function"
    },
    {
      "inputs": [
        {
          "internalType": "bytes32",
          "name": "requestId",
          "type": "bytes32"
        },
        {
          "internalType": "bytes32",
          "name": "fillId",
          "type": "bytes32"
        }
      ],
      "name": "claimRequest",
      "outputs": [
        {
          "internalType": "uint256",
          "name": "",
          "type": "uint256"
        }
      ],
      "stateMutability": "payable",
      "type": "function"
    },
    {
      "inputs": [],
      "name": "claimStake",
      "outputs": [
        {
          "internalType": "uint256",
          "name": "",
          "type": "uint256"
        }
      ],
      "stateMutability": "view",
      "type": "function"
    },
    {
      "inputs": [
        {
          "internalType": "uint256",
          "name": "",
          "type": "uint256"
        }
      ],
      "name": "claims",
      "outputs": [
        {
          "internalType": "bytes32",
          "name": "requestId",
          "type": "bytes32"
        },
        {
          "internalType": "address",
          "name": "claimer",
          "type": "address"
        },
        {
          "internalType": "uint256",
          "name": "claimerStake",
          "type": "uint256"
        },
        {
          "internalType": "address",
          "name": "lastChallenger",
          "type": "address"
        },
        {
          "internalType": "uint256",
          "name": "challengerStakeTotal",
          "type": "uint256"
        },
        {
          "internalType": "uint256",
          "name": "withdrawnAmount",
          "type": "uint256"
        },
        {
          "internalType": "uint256",
          "name": "termination",
          "type": "uint256"
        },
        {
          "internalType": "bytes32",
          "name": "fillId",
          "type": "bytes32"
        }
      ],
      "stateMutability": "view",
      "type": "function"
    },
    {
      "inputs": [
        {
          "internalType": "address",
          "name": "",
          "type": "address"
        }
      ],
      "name": "collectedProtocolFees",
      "outputs": [
        {
          "internalType": "uint256",
          "name": "",
          "type": "uint256"
        }
      ],
      "stateMutability": "view",
      "type": "function"
    },
    {
      "inputs": [
        {
          "internalType": "uint256",
          "name": "targetChainId",
          "type": "uint256"
        },
        {
          "internalType": "address",
          "name": "sourceTokenAddress",
          "type": "address"
        },
        {
          "internalType": "address",
          "name": "targetTokenAddress",
          "type": "address"
        },
        {
          "internalType": "address",
          "name": "targetAddress",
          "type": "address"
        },
        {
          "internalType": "uint256",
          "name": "amount",
          "type": "uint256"
        },
        {
          "internalType": "uint256",
          "name": "validityPeriod",
          "type": "uint256"
        }
      ],
      "name": "createRequest",
      "outputs": [
        {
          "internalType": "bytes32",
          "name": "",
          "type": "bytes32"
        }
      ],
      "stateMutability": "nonpayable",
      "type": "function"
    },
    {
      "inputs": [],
      "name": "currentNonce",
      "outputs": [
        {
          "internalType": "uint256",
          "name": "",
          "type": "uint256"
        }
      ],
      "stateMutability": "view",
      "type": "function"
    },
    {
      "inputs": [],
      "name": "deprecateContract",
      "outputs": [],
      "stateMutability": "nonpayable",
      "type": "function"
    },
    {
      "inputs": [],
      "name": "deprecated",
      "outputs": [
        {
          "internalType": "bool",
          "name": "",
          "type": "bool"
        }
      ],
      "stateMutability": "view",
      "type": "function"
    },
    {
      "inputs": [
        {
          "internalType": "uint256",
          "name": "",
          "type": "uint256"
        }
      ],
      "name": "finalityPeriods",
      "outputs": [
        {
          "internalType": "uint256",
          "name": "",
          "type": "uint256"
        }
      ],
      "stateMutability": "view",
      "type": "function"
    },
    {
      "inputs": [
        {
          "internalType": "bytes32",
          "name": "requestId",
          "type": "bytes32"
        },
        {
          "internalType": "bytes32",
          "name": "fillId",
          "type": "bytes32"
        },
        {
          "internalType": "uint256",
          "name": "resolutionChainId",
          "type": "uint256"
        }
      ],
      "name": "invalidateFill",
      "outputs": [],
      "stateMutability": "nonpayable",
      "type": "function"
    },
    {
      "inputs": [
        {
          "internalType": "bytes32",
          "name": "requestId",
          "type": "bytes32"
        },
        {
          "internalType": "bytes32",
          "name": "fillId",
          "type": "bytes32"
        }
      ],
      "name": "isInvalidFill",
      "outputs": [
        {
          "internalType": "bool",
          "name": "",
          "type": "bool"
        }
      ],
      "stateMutability": "view",
      "type": "function"
    },
    {
      "inputs": [
        {
          "internalType": "uint256",
          "name": "amount",
          "type": "uint256"
        }
      ],
      "name": "lpFee",
      "outputs": [
        {
          "internalType": "uint256",
          "name": "",
          "type": "uint256"
        }
      ],
      "stateMutability": "view",
      "type": "function"
    },
    {
      "inputs": [],
      "name": "lpFeePPM",
      "outputs": [
        {
          "internalType": "uint256",
          "name": "",
          "type": "uint256"
        }
      ],
      "stateMutability": "view",
      "type": "function"
    },
    {
      "inputs": [],
      "name": "minLpFee",
      "outputs": [
        {
          "internalType": "uint256",
          "name": "",
          "type": "uint256"
        }
      ],
      "stateMutability": "view",
      "type": "function"
    },
    {
      "inputs": [],
      "name": "owner",
      "outputs": [
        {
          "internalType": "address",
          "name": "",
          "type": "address"
        }
      ],
      "stateMutability": "view",
      "type": "function"
    },
    {
      "inputs": [
        {
          "internalType": "uint256",
          "name": "amount",
          "type": "uint256"
        }
      ],
      "name": "protocolFee",
      "outputs": [
        {
          "internalType": "uint256",
          "name": "",
          "type": "uint256"
        }
      ],
      "stateMutability": "view",
      "type": "function"
    },
    {
      "inputs": [],
      "name": "protocolFeePPM",
      "outputs": [
        {
          "internalType": "uint256",
          "name": "",
          "type": "uint256"
        }
      ],
      "stateMutability": "view",
      "type": "function"
    },
    {
      "inputs": [
        {
          "internalType": "address",
          "name": "oldLp",
          "type": "address"
        }
      ],
      "name": "removeAllowedLp",
      "outputs": [],
      "stateMutability": "nonpayable",
      "type": "function"
    },
    {
      "inputs": [],
      "name": "renounceOwnership",
      "outputs": [],
      "stateMutability": "nonpayable",
      "type": "function"
    },
    {
      "inputs": [
        {
          "internalType": "bytes32",
          "name": "",
          "type": "bytes32"
        }
      ],
      "name": "requests",
      "outputs": [
        {
          "internalType": "address",
          "name": "sender",
          "type": "address"
        },
        {
          "internalType": "address",
          "name": "sourceTokenAddress",
          "type": "address"
        },
        {
          "internalType": "uint256",
          "name": "targetChainId",
          "type": "uint256"
        },
        {
          "internalType": "uint256",
          "name": "amount",
          "type": "uint256"
        },
        {
          "internalType": "uint256",
          "name": "validUntil",
          "type": "uint256"
        },
        {
          "internalType": "uint256",
          "name": "lpFee",
          "type": "uint256"
        },
        {
          "internalType": "uint256",
          "name": "protocolFee",
          "type": "uint256"
        },
        {
          "internalType": "uint192",
          "name": "activeClaims",
          "type": "uint192"
        },
        {
          "internalType": "uint256",
          "name": "withdrawClaimId",
          "type": "uint256"
        },
        {
          "internalType": "address",
          "name": "filler",
          "type": "address"
        },
        {
          "internalType": "bytes32",
          "name": "fillId",
          "type": "bytes32"
        }
      ],
      "stateMutability": "view",
      "type": "function"
    },
    {
      "inputs": [
        {
          "internalType": "bytes32",
          "name": "requestId",
          "type": "bytes32"
        },
        {
          "internalType": "bytes32",
          "name": "fillId",
          "type": "bytes32"
        },
        {
          "internalType": "uint256",
          "name": "resolutionChainId",
          "type": "uint256"
        },
        {
          "internalType": "address",
          "name": "filler",
          "type": "address"
        }
      ],
      "name": "resolveRequest",
      "outputs": [],
      "stateMutability": "nonpayable",
      "type": "function"
    },
    {
      "inputs": [
        {
          "internalType": "uint256",
          "name": "targetChainId",
          "type": "uint256"
        },
        {
          "internalType": "uint256",
          "name": "finalityPeriod",
          "type": "uint256"
        }
      ],
      "name": "setFinalityPeriod",
      "outputs": [],
      "stateMutability": "nonpayable",
      "type": "function"
    },
    {
      "inputs": [
        {
          "internalType": "uint256",
          "name": "amount",
          "type": "uint256"
        }
      ],
      "name": "totalFee",
      "outputs": [
        {
          "internalType": "uint256",
          "name": "",
          "type": "uint256"
        }
      ],
      "stateMutability": "view",
      "type": "function"
    },
    {
      "inputs": [],
      "name": "transferLimit",
      "outputs": [
        {
          "internalType": "uint256",
          "name": "",
          "type": "uint256"
        }
      ],
      "stateMutability": "view",
      "type": "function"
    },
    {
      "inputs": [
        {
          "internalType": "address",
          "name": "newOwner",
          "type": "address"
        }
      ],
      "name": "transferOwnership",
      "outputs": [],
      "stateMutability": "nonpayable",
      "type": "function"
    },
    {
      "inputs": [
        {
          "internalType": "uint256",
          "name": "newProtocolFeePPM",
          "type": "uint256"
        },
        {
          "internalType": "uint256",
          "name": "newLpFeePPM",
          "type": "uint256"
        },
        {
          "internalType": "uint256",
          "name": "newMinLpFee",
          "type": "uint256"
        }
      ],
      "name": "updateFeeData",
      "outputs": [],
      "stateMutability": "nonpayable",
      "type": "function"
    },
    {
      "inputs": [
        {
          "internalType": "uint256",
          "name": "newTransferLimit",
          "type": "uint256"
        }
      ],
      "name": "updateTransferLimit",
      "outputs": [],
      "stateMutability": "nonpayable",
      "type": "function"
    },
    {
      "inputs": [
        {
          "internalType": "uint256",
          "name": "claimId",
          "type": "uint256"
        }
      ],
      "name": "withdraw",
      "outputs": [
        {
          "internalType": "address",
          "name": "",
          "type": "address"
        }
      ],
      "stateMutability": "nonpayable",
      "type": "function"
    },
    {
      "inputs": [
        {
          "internalType": "bytes32",
          "name": "requestId",
          "type": "bytes32"
        }
      ],
      "name": "withdrawExpiredRequest",
      "outputs": [],
      "stateMutability": "nonpayable",
      "type": "function"
    },
    {
      "inputs": [
        {
          "internalType": "address",
          "name": "tokenAddress",
          "type": "address"
        },
        {
          "internalType": "address",
          "name": "recipient",
          "type": "address"
        }
      ],
      "name": "withdrawProtocolFees",
      "outputs": [],
      "stateMutability": "nonpayable",
      "type": "function"
    }
  ],
  "bytecode": "6080604052674563918244f40000600b556103e8600c556000600d5569021e19e0c9bab2400000600e553480156200003657600080fd5b5060405162002e5938038062002e598339810160408190526200005991620000c6565b620000643362000076565b600392909255600455600555620000f5565b600080546001600160a01b038381166001600160a01b0319831681178455604051919092169283917f8be0079c531659141344cd1fd0a4f28419497f9722a3daafe3b4186f6b6457e09190a35050565b600080600060608486031215620000dc57600080fd5b8351925060208401519150604084015190509250925092565b612d5480620001056000396000f3fe6080604052600436106102465760003560e01c80637dc2cd9811610139578063cf7b287f116100b6578063ea6288981161007a578063ea6288981461081e578063ea656f7d14610834578063eb32117314610849578063f2fde38b1461085f578063f7d64cec1461087f578063f94325171461089f57600080fd5b8063cf7b287f14610792578063d137920b146107b2578063d762a37b146107d2578063e2653eeb146107f2578063e7aad5c41461080857600080fd5b80639e375226116100fd5780639e3752261461065c578063a032b5f41461068c578063a888c2cd146106ac578063adb610a31461075c578063cea74edf1461077257600080fd5b80637dc2cd98146105055780638da5cb5b1461051b57806392c824d81461053957806396171d051461054c5780639d8669851461056257600080fd5b80633993b6ed116101c75780637203ae3b1161018b5780637203ae3b14610472578063743c151a14610492578063747293fb146104a557806378da194b146104c557806379650559146104e557600080fd5b80633993b6ed146103da5780635b3a6ef2146103fa5780635d5aa11b1461041a5780636bc6c8d114610430578063715018a61461045d57600080fd5b80632e1a7d4d1161020e5780632e1a7d4d1461030e5780632f4212b81461032e5780632f92f0091461034e57806330a08cbc1461037b57806331e08f7a146103ba57600080fd5b806303fc4c371461024b5780630e136b191461026d5780630e19a1c61461029c5780631489f8d2146102d45780631d18adc5146102f8575b600080fd5b34801561025757600080fd5b5061026b61026636600461292e565b6108b5565b005b34801561027957600080fd5b506006546102879060ff1681565b60405190151581526020015b60405180910390f35b3480156102a857600080fd5b506102bc6102b736600461295a565b610b04565b6040516001600160a01b039091168152602001610293565b3480156102e057600080fd5b506102ea61012c81565b604051908152602001610293565b34801561030457600080fd5b506102ea60055481565b34801561031a57600080fd5b506102bc61032936600461297c565b610b32565b34801561033a57600080fd5b506102ea6103493660046129b1565b610de3565b34801561035a57600080fd5b506102ea61036936600461297c565b60086020526000908152604090205481565b34801561038757600080fd5b5061028761039636600461295a565b6000918252600960209081526040808420928452600b909201905290205460ff1690565b3480156103c657600080fd5b5061026b6103d5366004612a10565b6111fb565b3480156103e657600080fd5b5061026b6103f5366004612a10565b61125f565b34801561040657600080fd5b5061026b610415366004612a2b565b6112b8565b34801561042657600080fd5b506102ea600b5481565b34801561043c57600080fd5b506102ea61044b366004612a10565b600f6020526000908152604090205481565b34801561046957600080fd5b5061026b611461565b34801561047e57600080fd5b5061026b61048d366004612a6a565b611475565b6102ea6104a036600461295a565b61148d565b3480156104b157600080fd5b5061026b6104c0366004612a10565b6117a9565b3480156104d157600080fd5b5061026b6104e036600461292e565b6117c0565b3480156104f157600080fd5b5061026b61050036600461297c565b6117d6565b34801561051157600080fd5b506102ea60045481565b34801561052757600080fd5b506000546001600160a01b03166102bc565b61026b61054736600461297c565b6119d4565b34801561055857600080fd5b506102ea61070881565b34801561056e57600080fd5b506105f161057d36600461297c565b600960208190526000918252604090912080546001820154600283015460038401546004850154600586015460068701546007880154600889015499890154600a909901546001600160a01b039889169a97891699969895979496939592946001600160c01b03909216939192909116908b565b604080516001600160a01b039c8d1681529a8c1660208c01528a01989098526060890196909652608088019490945260a087019290925260c08601526001600160c01b031660e085015261010084015290921661012082015261014081019190915261016001610293565b34801561066857600080fd5b50610287610677366004612a10565b60016020526000908152604090205460ff1681565b34801561069857600080fd5b506102ea6106a736600461297c565b611dd5565b3480156106b857600080fd5b506107166106c736600461297c565b600a602052600090815260409020805460018201546002830154600484015460058501546006860154600787015460089097015495966001600160a01b03958616969495909316939192909188565b604080519889526001600160a01b0397881660208a0152880195909552949092166060860152608085015260a084015260c083019190915260e082015261010001610293565b34801561076857600080fd5b506102ea60075481565b34801561077e57600080fd5b506102ea61078d36600461297c565b611df9565b34801561079e57600080fd5b5061026b6107ad366004612aa6565b611e17565b3480156107be57600080fd5b5061026b6107cd36600461295a565b611ea2565b3480156107de57600080fd5b5061026b6107ed36600461297c565b611f58565b3480156107fe57600080fd5b506102ea600c5481565b34801561081457600080fd5b506102ea600d5481565b34801561082a57600080fd5b506102ea60001981565b34801561084057600080fd5b5061026b611f65565b34801561085557600080fd5b506102ea60035481565b34801561086b57600080fd5b5061026b61087a366004612a10565b611fcf565b34801561088b57600080fd5b506102ea61089a36600461297c565b612045565b3480156108ab57600080fd5b506102ea600e5481565b60008181526002602052604090205481906001600160a01b031646820361090c57336001600160a01b038216146109075760405162461bcd60e51b81526004016108fe90612ad9565b60405180910390fd5b6109d2565b6000828152600260205260409020600101546001600160a01b0316806109445760405162461bcd60e51b81526004016108fe90612b0e565b60405163845c544360e01b81526001600160a01b03838116600483015233602483015282169063845c544390604401602060405180830381865afa158015610990573d6000803e3d6000fd5b505050506040513d601f19601f820116820180604052508101906109b49190612b50565b6109d05760405162461bcd60e51b81526004016108fe90612ad9565b505b6000858152600960208190526040909120908101546001600160a01b031615610a3d5760405162461bcd60e51b815260206004820181905260248201527f43616e6e6f7420696e76616c6964617465207265736f6c7665642066696c6c7360448201526064016108fe565b6000858152600b8201602052604090205460ff1615610a9e5760405162461bcd60e51b815260206004820152601860248201527f46696c6c20616c726561647920696e76616c696461746564000000000000000060448201526064016108fe565b6000858152600b8201602052604090819020805460ff19166001179055517f5571b83c623961fb42d39ce6d6d2092153ace66c008e2dc2472ec6d2e8fad04590610af49088908890918252602082015260400190565b60405180910390a1505050505050565b60026020528160005260406000208160028110610b2057600080fd5b01546001600160a01b03169150829050565b6000818152600a602052604081206001015482906001600160a01b0316610b8f5760405162461bcd60e51b815260206004820152601160248201527018db185a5b5259081b9bdd081d985b1a59607a1b60448201526064016108fe565b6000838152600a602090815260408083208054845260099092528220909180610bb787612069565b6001600160a01b0382166000908152600387016020526040902054919350915015610bf8576001600160a01b03821660009081526003850160205260408120555b8360060154600003610c4a5760078301805460019190600090610c259084906001600160c01b0316612b88565b92506101000a8154816001600160c01b0302191690836001600160c01b031602179055505b80846006016000828254610c5e9190612bb0565b909155505060058401546002850154610c779190612bb0565b84600601541115610cca5760405162461bcd60e51b815260206004820152601c60248201527f416d6f756e7420746f20776974686472617720746f6f206c617267650000000060448201526064016108fe565b6000826001600160a01b03168260405160006040518083038185875af1925050503d8060008114610d17576040519150601f19603f3d011682016040523d82523d6000602084013e610d1c565b606091505b5050905080610d645760405162461bcd60e51b81526020600482015260146024820152732330b4b632b2103a379039b2b7321022ba3432b960611b60448201526064016108fe565b8454604080518a81526001600160a01b03861660208201527fa5d98efe63b5c32fd1a0e4d189473a6e9538a04f05da85b3cd50c5915087decf910160405180910390a26008840154158015610dc8575060018501546001600160a01b038481169116145b15610dd757610dd78489612333565b50909695505050505050565b60065460009060ff1615610e325760405162461bcd60e51b815260206004820152601660248201527510dbdb9d1c9858dd081a5cc819195c1c9958d85d195960521b60448201526064016108fe565b6000878152600860205260408120549003610e8f5760405162461bcd60e51b815260206004820152601b60248201527f54617267657420726f6c6c7570206e6f7420737570706f72746564000000000060448201526064016108fe565b61012c821015610ee15760405162461bcd60e51b815260206004820152601960248201527f56616c696469747920706572696f6420746f6f2073686f72740000000000000060448201526064016108fe565b610708821115610f335760405162461bcd60e51b815260206004820152601860248201527f56616c696469747920706572696f6420746f6f206c6f6e67000000000000000060448201526064016108fe565b600e54831115610f855760405162461bcd60e51b815260206004820152601d60248201527f416d6f756e742065786365656473207472616e73666572206c696d697400000060448201526064016108fe565b856000610f9185612045565b90506000610f9e86611dd5565b9050600081610fad8489612bb0565b610fb79190612bb0565b604051636eb1769f60e11b815233600482015230602482015290915081906001600160a01b0386169063dd62ed3e90604401602060405180830381865afa158015611006573d6000803e3d6000fd5b505050506040513d601f19601f8201168201806040525081019061102a9190612bc8565b10156110715760405162461bcd60e51b8152602060048201526016602482015275496e73756666696369656e7420616c6c6f77616e636560501b60448201526064016108fe565b6001600760008282546110849190612bb0565b909155505060075460408051466020808301919091528183018f90526bffffffffffffffffffffffff1960608e811b8216818501528d901b166074830152608882018b905260a8808301949094528251808303909401845260c890910182528251928101929092206000818152600990935291208054336001600160a01b03199182161782556001820180549091166001600160a01b038e16179055600281018d9055600381018990556111388842612bb0565b8160040181905550848160050181905550838160060181905550817ff852fa5288e6bd150237cec1f415e191d8232b72067c0520011180d7ea00ba8c8e8e8e8e8e60075488600401546040516111ce97969594939291909687526001600160a01b0395861660208801529385166040870152919093166060850152608084019290925260a083019190915260c082015260e00190565b60405180910390a26111eb6001600160a01b0387163330866123fe565b509b9a5050505050505050505050565b611203612469565b6001600160a01b038116600081815260016020818152604092839020805460ff191690921790915590519182527f371fc559c30f70424413fed6bf7e57dc939651331abad5c970a8ea0921c80b2e91015b60405180910390a150565b611267612469565b6001600160a01b038116600081815260016020908152604091829020805460ff1916905590519182527f4e774c97f73f4bea034579e4224498d7d9b3a4109eaa70ed3d85c97a5855f1989101611254565b60008281526002602052604090205482906001600160a01b031646820361130657336001600160a01b038216146113015760405162461bcd60e51b81526004016108fe90612ad9565b6113cc565b6000828152600260205260409020600101546001600160a01b03168061133e5760405162461bcd60e51b81526004016108fe90612b0e565b60405163845c544360e01b81526001600160a01b03838116600483015233602483015282169063845c544390604401602060405180830381865afa15801561138a573d6000803e3d6000fd5b505050506040513d601f19601f820116820180604052508101906113ae9190612b50565b6113ca5760405162461bcd60e51b81526004016108fe90612ad9565b505b600086815260096020818152604080842092830180546001600160a01b0319166001600160a01b038916908117909155600a84018a9055898552600b8401835293819020805460ff1916905580518a815291820193909352918201879052907fb32d3c8b5539b0cc3050d5b75e9dad8eca8744a0892259bda27fdb51b99567369060600160405180910390a150505050505050565b611469612469565b61147360006124c3565b565b61147d612469565b611488838383612513565b505050565b60008281526009602052604081205483906001600160a01b03166114e95760405162461bcd60e51b81526020600482015260136024820152721c995c5d595cdd1259081b9bdd081d985b1a59606a1b60448201526064016108fe565b3360009081526001602052604090205460ff166115415760405162461bcd60e51b815260206004820152601660248201527514d95b99195c881b9bdd081dda1a5d195b1a5cdd195960521b60448201526064016108fe565b6000848152600960205260409020600481015442106115945760405162461bcd60e51b815260206004820152600f60248201526e14995c5d595cdd08195e1c1a5c9959608a1b60448201526064016108fe565b6008810154156115e25760405162461bcd60e51b81526020600482015260196024820152782232b837b9b4ba1030b63932b0b23c903bb4ba34323930bbb760391b60448201526064016108fe565b600354341461162a5760405162461bcd60e51b8152602060048201526014602482015273125b9d985b1a59081cdd185ad948185b5bdd5b9d60621b60448201526064016108fe565b836116705760405162461bcd60e51b8152602060048201526016602482015275046696c6c4964206d757374206e6f74206265203078360541b60448201526064016108fe565b600781018054600191906000906116919084906001600160c01b0316612be1565b92506101000a8154816001600160c01b0302191690836001600160c01b031602179055506001600760008282546116c89190612bb0565b90915550506007546000908152600a602052604081208681556001810180546001600160a01b0319908116331790915560035460028301556004808301805490921690915560058201839055600682019290925590546117289042612bb0565b6007808301829055600883018790555460018301546002840154600485015460058601546040518c967fa317459aaaff5501ec6d0dcfc26440565beaf33dc2ba0f68b7273a50322c215d966117949690956001600160a01b039182169590949116929091908e90612c0c565b60405180910390a25050600754949350505050565b6117b1612469565b6117bd46826000612513565b50565b6117c8612469565b600d92909255600c55600b55565b60008181526009602052604090205481906001600160a01b03166118325760405162461bcd60e51b81526020600482015260136024820152721c995c5d595cdd1259081b9bdd081d985b1a59606a1b60448201526064016108fe565b600082815260096020526040902060088101541561188e5760405162461bcd60e51b81526020600482015260196024820152782232b837b9b4ba1030b63932b0b23c903bb4ba34323930bbb760391b60448201526064016108fe565b80600401544210156118e25760405162461bcd60e51b815260206004820152601760248201527f52657175657374206e6f7420657870697265642079657400000000000000000060448201526064016108fe565b60078101546001600160c01b0316156119355760405162461bcd60e51b815260206004820152601560248201527441637469766520636c61696d732072756e6e696e6760581b60448201526064016108fe565b60001960088201558054604080518581526001600160a01b0390921660208301527fab63a14c4aaba38366fd39116091672bb44520328ee870be35a51e573296e565910160405180910390a1600181015481546006830154600584015460038501546001600160a01b03948516946119ce941692916119b391612bb0565b6119bd9190612bb0565b6001600160a01b0384169190612625565b50505050565b6000818152600a602052604090206001015481906001600160a01b0316611a315760405162461bcd60e51b815260206004820152601160248201527018db185a5b5259081b9bdd081d985b1a59607a1b60448201526064016108fe565b6000828152600a6020908152604080832080548452600990925290912060078201544210611a915760405162461bcd60e51b815260206004820152600d60248201526c10db185a5b48195e1c1a5c9959609a1b60448201526064016108fe565b6005805460028401549184015460009283929180821115611b525780600003611ad5576002860154600090815260086020526040902054611ad29084612bb0565b92505b6001870154336001600160a01b0390911603611b335760405162461bcd60e51b815260206004820152601a60248201527f43616e6e6f74206368616c6c656e6765206f776e20636c61696d00000000000060448201526064016108fe565b339450611b408183612c4b565b611b4b906001612bb0565b9350611b7e565b60018701546003546001600160a01b039091169550611b718383612c4b565b611b7b9190612bb0565b93505b336001600160a01b03861614611bcf5760405162461bcd60e51b8152602060048201526016602482015275139bdd08195b1a59da589b19481d1bc81bdd5d189a5960521b60448201526064016108fe565b83341015611c1f5760405162461bcd60e51b815260206004820152601960248201527f4e6f7420656e6f756768207374616b652070726f76696465640000000000000060448201526064016108fe565b60018701546001600160a01b0390811690861603611c565734876002016000828254611c4b9190612bb0565b90915550611cae9050565b6004870180546001600160a01b03191633908117909155600090815260038801602052604081208054349290611c8d908490612bb0565b9250508190555034876005016000828254611ca89190612bb0565b90915550505b6007870154611cc690611cc18542612bb0565b612655565b6007880155600554600090611cdb9042612bb0565b90508088600701541015611d435760405162461bcd60e51b815260206004820152602960248201527f436c61696d207465726d696e6174696f6e20646964206e6f7420696e637265616044820152680e6ca40cadcdeeaced60bb1b60648201526084016108fe565b87600001547fa317459aaaff5501ec6d0dcfc26440565beaf33dc2ba0f68b7273a50322c215d8b8a60010160009054906101000a90046001600160a01b03168b600201548c60040160009054906101000a90046001600160a01b03168d600501548e600701548f60080154604051611dc19796959493929190612c0c565b60405180910390a250505050505050505050565b6000620f4240600d5483611de99190612c62565b611df39190612c81565b92915050565b6000611e0482611dd5565b611e0d83612045565b611df39190612bb0565b611e1f612469565b6001600160a01b0382166000908152600f602052604090205480611e7c5760405162461bcd60e51b815260206004820152601460248201527350726f746f636f6c20666565206973207a65726f60601b60448201526064016108fe565b6001600160a01b0383166000818152600f602052604081205583906119ce908484612625565b611eaa612469565b60008111611f095760405162461bcd60e51b815260206004820152602660248201527f46696e616c69747920706572696f64206d75737420626520677265617465722060448201526507468616e20360d41b60648201526084016108fe565b60008281526008602090815260409182902083905581518481529081018390527faba57b48b9f1dfd5747a52ed348a6ab6aa7bafb0575363a5cb7b62659f727b65910160405180910390a15050565b611f60612469565b600e55565b611f6d612469565b60065460ff1615611fc05760405162461bcd60e51b815260206004820152601b60248201527f436f6e747261637420616c72656164792064657072656361746564000000000060448201526064016108fe565b6006805460ff19166001179055565b611fd7612469565b6001600160a01b03811661203c5760405162461bcd60e51b815260206004820152602660248201527f4f776e61626c653a206e6577206f776e657220697320746865207a65726f206160448201526564647265737360d01b60648201526084016108fe565b6117bd816124c3565b6000611df3600b54620f4240600c548561205f9190612c62565b611cc19190612c81565b6000818152600a60209081526040808320805484526009909252822060028201546005830154849392919061209e8183612bb0565b8460060154106120f05760405162461bcd60e51b815260206004820152601760248201527f436c61696d20616c72656164792077697468647261776e00000000000000000060448201526064016108fe565b6009830154600a8401546000916001600160a01b03169081156121365760018701546001600160a01b03838116911614801561212f5750866008015481145b9250612211565b6000818152600b8701602052604090205460ff16156121585760009250612211565b6008860154156121b75760088601546000908152600a60205260409020600190810154908801546001600160a01b03908116911614801561212f57506008808701546000908152600a6020526040902081015490880154149250612211565b866007015442101561220b5760405162461bcd60e51b815260206004820152601960248201527f436c61696d20706572696f64206e6f742066696e69736865640000000000000060448201526064016108fe565b83851192505b600080841561223c576122248688612bb0565b60018a01549092506001600160a01b031690506122d5565b85156122c45733600090815260038a01602052604090205461225f906002612c62565b9150339050600082116122bf5760405162461bcd60e51b815260206004820152602260248201527f4368616c6c656e67657220686173206e6f7468696e6720746f20776974686472604482015261617760f01b60648201526084016108fe565b6122d5565b505060005485906001600160a01b03165b60048901546001600160a01b03163303612323578587111561230c576122fb8688612c4b565b6123059083612bb0565b9150612323565b6123168787612c4b565b6123209083612c4b565b91505b9b909a5098505050505050505050565b6000818152600a60209081526040918290206001810154815484519081526001600160a01b0390911692810183905290927fab63a14c4aaba38366fd39116091672bb44520328ee870be35a51e573296e565910160405180910390a160088401839055600684015460018501546001600160a01b03166000908152600f6020526040812080549091906123c7908490612bb0565b90915550506001840154600585015460038601546001600160a01b03909216916123f79184916119bd9190612bb0565b5050505050565b6040516001600160a01b03808516602483015283166044820152606481018290526119ce9085906323b872dd60e01b906084015b60408051601f198184030181529190526020810180516001600160e01b03166001600160e01b03199093169290921790915261266e565b6000546001600160a01b031633146114735760405162461bcd60e51b815260206004820181905260248201527f4f776e61626c653a2063616c6c6572206973206e6f7420746865206f776e657260448201526064016108fe565b600080546001600160a01b038381166001600160a01b0319831681178455604051919092169283917f8be0079c531659141344cd1fd0a4f28419497f9722a3daafe3b4186f6b6457e09190a35050565b6001600160a01b0382166125755760405162461bcd60e51b815260206004820152602360248201527f5265737472696374656443616c6c733a2063616c6c65722063616e6e6f74206260448201526206520360ec1b60648201526084016108fe565b6000838152600260205260409020546001600160a01b0316156125e95760405162461bcd60e51b815260206004820152602660248201527f5265737472696374656443616c6c733a2063616c6c657220616c72656164792060448201526565786973747360d01b60648201526084016108fe565b6040805180820182526001600160a01b03808516825283166020808301919091526000868152600291829052929092206119ce929091906128c1565b6040516001600160a01b03831660248201526044810182905261148890849063a9059cbb60e01b90606401612432565b6000818310156126655781612667565b825b9392505050565b60006126c3826040518060400160405280602081526020017f5361666545524332303a206c6f772d6c6576656c2063616c6c206661696c6564815250856001600160a01b03166127409092919063ffffffff16565b80519091501561148857808060200190518101906126e19190612b50565b6114885760405162461bcd60e51b815260206004820152602a60248201527f5361666545524332303a204552433230206f7065726174696f6e20646964206e6044820152691bdd081cdd58d8d9595960b21b60648201526084016108fe565b606061274f8484600085612757565b949350505050565b6060824710156127b85760405162461bcd60e51b815260206004820152602660248201527f416464726573733a20696e73756666696369656e742062616c616e636520666f6044820152651c8818d85b1b60d21b60648201526084016108fe565b6001600160a01b0385163b61280f5760405162461bcd60e51b815260206004820152601d60248201527f416464726573733a2063616c6c20746f206e6f6e2d636f6e747261637400000060448201526064016108fe565b600080866001600160a01b0316858760405161282b9190612ccf565b60006040518083038185875af1925050503d8060008114612868576040519150601f19603f3d011682016040523d82523d6000602084013e61286d565b606091505b509150915061287d828286612888565b979650505050505050565b60608315612897575081612667565b8251156128a75782518084602001fd5b8160405162461bcd60e51b81526004016108fe9190612ceb565b8260028101928215612909579160200282015b8281111561290957825182546001600160a01b0319166001600160a01b039091161782556020909201916001909101906128d4565b50612915929150612919565b5090565b5b80821115612915576000815560010161291a565b60008060006060848603121561294357600080fd5b505081359360208301359350604090920135919050565b6000806040838503121561296d57600080fd5b50508035926020909101359150565b60006020828403121561298e57600080fd5b5035919050565b80356001600160a01b03811681146129ac57600080fd5b919050565b60008060008060008060c087890312156129ca57600080fd5b863595506129da60208801612995565b94506129e860408801612995565b93506129f660608801612995565b92506080870135915060a087013590509295509295509295565b600060208284031215612a2257600080fd5b61266782612995565b60008060008060808587031215612a4157600080fd5b843593506020850135925060408501359150612a5f60608601612995565b905092959194509250565b600080600060608486031215612a7f57600080fd5b83359250612a8f60208501612995565b9150612a9d60408501612995565b90509250925092565b60008060408385031215612ab957600080fd5b612ac283612995565b9150612ad060208401612995565b90509250929050565b6020808252818101527f5265737472696374656443616c6c733a2063616c6c20646973616c6c6f776564604082015260600190565b60208082526022908201527f5265737472696374656443616c6c733a206d657373656e676572206e6f742073604082015261195d60f21b606082015260800190565b600060208284031215612b6257600080fd5b8151801515811461266757600080fd5b634e487b7160e01b600052601160045260246000fd5b60006001600160c01b0383811690831681811015612ba857612ba8612b72565b039392505050565b60008219821115612bc357612bc3612b72565b500190565b600060208284031215612bda57600080fd5b5051919050565b60006001600160c01b03828116848216808303821115612c0357612c03612b72565b01949350505050565b9687526001600160a01b0395861660208801526040870194909452919093166060850152608084019290925260a083019190915260c082015260e00190565b600082821015612c5d57612c5d612b72565b500390565b6000816000190483118215151615612c7c57612c7c612b72565b500290565b600082612c9e57634e487b7160e01b600052601260045260246000fd5b500490565b60005b83811015612cbe578181015183820152602001612ca6565b838111156119ce5750506000910152565b60008251612ce1818460208701612ca3565b9190910192915050565b6020815260008251806020840152612d0a816040850160208701612ca3565b601f01601f1916919091016040019291505056fea2646970667358221220585aa0a9ae5672d450f600cefba3e6417fa4ab113d49b67ccbbfe0221ec1b1c864736f6c634300080d0033",
  "bytecodeSha1": "554e583ab59de8df1592193301664d471c15709a",
  "compiler": {
    "evm_version": "london",
    "optimizer": {
      "enabled": true,
      "runs": 200
    },
    "version": "0.8.13+commit.abaa5c0e"
  },
  "contractName": "RequestManager",
  "language": "Solidity",
  "natspec": {
    "kind": "dev",
    "methods": {
      "CLAIM_ID_WITHDRAWN_EXPIRED()": {
        "notice": "withdrawClaimId is set to this value when an expired request gets withdrawn by the sender"
      },
      "MAX_VALIDITY_PERIOD()": {
        "notice": "The maximum validity period of a request."
      },
      "MIN_VALIDITY_PERIOD()": {
        "notice": "The minimum validity period of a request."
      },
      "addAllowedLp(address)": {
        "notice": "Add a liquidity provider to the set of allowed liquidity providers. .. note:: This function can only be called by the contract owner.",
        "params": {
          "newLp": "The liquidity provider."
        }
      },
      "addCaller(address)": {
        "notice": "Allow calls from an address on the same chain.",
        "params": {
          "caller": "The caller."
        }
      },
      "addCaller(uint256,address,address)": {
        "notice": "Allow calls from an address on another chain.",
        "params": {
          "caller": "The caller.",
          "callerChainId": "The caller's chain ID.",
          "messenger": "The messenger."
        }
      },
      "allowedLps(address)": {
        "notice": "The set of liquidity providers that are added to the whitelist."
      },
      "callers(uint256,uint256)": {
        "notice": "Maps caller chain IDs to tuples [caller, messenger]. For same-chain calls, the messenger address is 0x0."
      },
      "challengeClaim(uint256)": {
        "notice": "Challenge an existing claim. The claim must still be valid at call time. This function implements one round of the challenge game. The original claimer is allowed to call this function only after someone else made a challenge, i.e. every second round. However, once the original claimer counter-challenges, anyone can join the game and make another challenge. The caller must provide enough native tokens as their stake. For the original claimer, the minimum stake is ``challengerStakeTotal - claimerStake + claimStake``. For challengers, the minimum stake is ``claimerStake - challengerStakeTotal + 1``. An example (time flows downwards, claimStake = 10)::   claimRequest() by Max [stakes 10]   challengeClaim() by Alice [stakes 11]   challengeClaim() by Max [stakes 11]   challengeClaim() by Bob [stakes 16] In this example, if Max didn't want to lose the challenge game to Alice and Bob, he would have to challenge with a stake of at least 16.",
        "params": {
          "claimId": "The claim ID."
        }
      },
      "challengePeriodExtension()": {
        "notice": "The period by which the termination time of a claim is extended after each round of the challenge game. This period should allow enough time for the other parties to counter-challenge. .. note::    The claim's termination time is extended only if it is less than the    extension time. Note that in the first challenge round, i.e. the round initiated by the first challenger, the termination time is extended additionally by the finality period of the target chain. This is done to allow for L1 resolution."
      },
      "claimPeriod()": {
        "notice": "The period for which the claim is valid."
      },
      "claimRequest(bytes32,bytes32)": {
        "notice": "Claim that a request was filled by the caller. The request must still be valid at call time. The caller must provide the ``claimStake`` amount of source rollup's native token.",
        "params": {
          "fillId": "The fill ID.",
          "requestId": "ID of the request."
        },
        "returns": {
          "_0": "The claim ID."
        }
      },
      "claimStake()": {
        "notice": "The minimum amount of source chain's native token that the claimer needs to provide when making a claim, as well in each round of the challenge game."
      },
      "claims(uint256)": {
        "notice": "Maps claim IDs to claims."
      },
      "collectedProtocolFees(address)": {
        "notice": "Maps ERC20 token addresses to related token amounts that belong to the protocol."
      },
      "constructor": {
        "notice": "Constructor.",
        "params": {
          "_challengePeriodExtension": "Challenge period extension, in seconds.",
          "_claimPeriod": "Claim period, in seconds.",
          "_claimStake": "Claim stake amount."
        }
      },
      "createRequest(uint256,address,address,address,uint256,uint256)": {
        "notice": "Create a new transfer request.",
        "params": {
          "amount": "Amount of tokens to transfer. Does not include fees.",
          "sourceTokenAddress": "Address of the token contract on the source chain.",
          "targetAddress": "Recipient address on the target chain.",
          "targetChainId": "ID of the target chain.",
          "targetTokenAddress": "Address of the token contract on the target chain.",
          "validityPeriod": "The number of seconds the request is to be considered valid.                       Once its validity period has elapsed, the request cannot be claimed                       anymore and will eventually expire, allowing the request submitter                       to withdraw the deposited tokens if there are no active claims."
        },
        "returns": {
          "_0": "ID of the newly created request."
        }
      },
      "currentNonce()": {
        "notice": "A counter used to generate request and claim IDs. The variable holds the most recently used nonce and must be incremented to get the next nonce"
      },
      "deprecateContract()": {
        "notice": "Mark the contract as deprecated. Once the contract is deprecated, it cannot be used to create new requests anymore. Withdrawing deposited funds and claim stakes still works, though. .. note:: This function can only be called by the contract owner."
      },
      "deprecated()": {
        "notice": "Indicates whether the contract is deprecated. A deprecated contract cannot be used to create new requests."
      },
      "finalityPeriods(uint256)": {
        "notice": "Maps target rollup chain IDs to finality periods. Finality periods are in seconds."
      },
      "invalidateFill(bytes32,bytes32,uint256)": {
        "notice": "Mark the fill identified by ``requestId`` and ``fillId`` as invalid. .. note::     This function is a restricted call function. Only callable by the added caller.",
        "params": {
          "fillId": "The fill ID.",
          "requestId": "The request ID.",
          "resolutionChainId": "The resolution (L1) chain ID."
        }
      },
      "isInvalidFill(bytes32,bytes32)": {
        "notice": "Returns whether a fill is invalidated or not Calling invalidateFill() will set this boolean to true, marking that the ``fillId`` for the corresponding ``requestId`` was invalidated. Calling resolveRequest will validate it again, setting request.invalidatedFills[fillId] to false. .. seealso:: :sol:func:`invalidateFill` .. seealso:: :sol:func:`resolveRequest`",
        "params": {
          "fillId": "The fill ID",
          "requestId": "The request ID"
        },
        "returns": {
          "_0": "Whether the fill ID is invalid for the given request ID"
        }
      },
      "lpFee(uint256)": {
        "notice": "Compute the liquidy provider fee that needs to be paid for a given transfer amount."
      },
      "lpFeePPM()": {
        "notice": "Liquidity provider fee percentage, expressed in ppm (parts per million)."
      },
      "minLpFee()": {
        "notice": "The minimum fee, denominated in transfer token, paid to the liquidity provider."
      },
      "owner()": {
        "details": "Returns the address of the current owner."
      },
      "protocolFee(uint256)": {
        "notice": "Compute the protocol fee that needs to be paid for a given transfer amount."
      },
      "protocolFeePPM()": {
        "notice": "Protocol fee percentage, expressed in ppm (parts per million)."
      },
      "removeAllowedLp(address)": {
        "notice": "Remove a liquidity provider from the set of allowed liquidity providers. .. note:: This function can only be called by the contract owner.",
        "params": {
          "oldLp": "The liquidity provider."
        }
      },
      "renounceOwnership()": {
        "details": "Leaves the contract without owner. It will not be possible to call `onlyOwner` functions anymore. Can only be called by the current owner. NOTE: Renouncing ownership will leave the contract without an owner, thereby removing any functionality that is only available to the owner."
      },
      "requests(bytes32)": {
        "notice": "Maps request IDs to requests."
      },
      "resolveRequest(bytes32,bytes32,uint256,address)": {
        "notice": "Mark the request identified by ``requestId`` as filled by ``filler``. .. note::     This function is a restricted call function. Only callable by the added caller.",
        "params": {
          "fillId": "The fill ID.",
          "filler": "The address that filled the request.",
          "requestId": "The request ID.",
          "resolutionChainId": "The resolution (L1) chain ID."
        }
      },
      "setFinalityPeriod(uint256,uint256)": {
        "notice": "Set the finality period for the given target chain. .. note:: This function can only be called by the contract owner.",
        "params": {
          "finalityPeriod": "Finality period in seconds.",
          "targetChainId": "The target chain ID."
        }
      },
      "totalFee(uint256)": {
        "notice": "Compute the total fee that needs to be paid for a given transfer amount. The total fee is the sum of the liquidity provider fee and the protocol fee."
      },
      "transferLimit()": {
        "notice": "The maximum amount of tokens that can be transferred in a single request."
      },
      "transferOwnership(address)": {
        "details": "Transfers ownership of the contract to a new account (`newOwner`). Can only be called by the current owner."
      },
      "updateFeeData(uint256,uint256,uint256)": {
        "notice": "Update fee parameters. .. note:: This function can only be called by the contract owner.",
        "params": {
          "newLpFeePPM": "The new value for ``lpFeePPM``.",
          "newMinLpFee": "The new value for ``minLpFee``.",
          "newProtocolFeePPM": "The new value for ``protocolFeePPM``."
        }
      },
      "updateTransferLimit(uint256)": {
        "notice": "Update the transfer amount limit. .. note:: This function can only be called by the contract owner.",
        "params": {
          "newTransferLimit": "The new value for ``transferLimit``."
        }
      },
      "withdraw(uint256)": {
        "notice": "Withdraw the deposit that the request submitter left with the contract, as well as the staked native tokens associated with the claim. In case the caller of this function is a challenger that won the game, they will only get their staked native tokens plus the reward in the form of full (sole challenger) or partial (multiple challengers) amount of native tokens staked by the dishonest claimer.",
        "params": {
          "claimId": "The claim ID."
        },
        "returns": {
          "_0": "The address of the deposit receiver."
        }
      },
      "withdrawExpiredRequest(bytes32)": {
        "notice": "Withdraw funds deposited with an expired request. No claims must be active for the request.",
        "params": {
          "requestId": "ID of the expired request."
        }
      },
      "withdrawProtocolFees(address,address)": {
        "notice": "Withdraw protocol fees collected by the contract. Protocol fees are paid in token transferred. .. note:: This function can only be called by the contract owner.",
        "params": {
          "recipient": "The address the fees should be sent to.",
          "tokenAddress": "The address of the token contract."
        }
      }
    },
    "notice": "The request manager. This contract is responsible for keeping track of transfer requests, implementing the rules of the challenge game and holding deposited tokens until they are withdrawn. The information passed by L1 resolution will be stored with the respective requests. It is the only contract that agents need to interact with on the source chain. .. note::   The functions resolveRequest and invalidateFill can only be called by   the :sol:contract:`Resolver` contract, via a chain-dependent messenger contract.",
    "version": 1
  },
  "opcodes": "PUSH1 0x80 PUSH1 0x40 MSTORE PUSH1 0x4 CALLDATASIZE LT PUSH2 0x246 JUMPI PUSH1 0x0 CALLDATALOAD PUSH1 0xE0 SHR DUP1 PUSH4 0x7DC2CD98 GT PUSH2 0x139 JUMPI DUP1 PUSH4 0xCF7B287F GT PUSH2 0xB6 JUMPI DUP1 PUSH4 0xEA628898 GT PUSH2 0x7A JUMPI DUP1 PUSH4 0xEA628898 EQ PUSH2 0x81E JUMPI DUP1 PUSH4 0xEA656F7D EQ PUSH2 0x834 JUMPI DUP1 PUSH4 0xEB321173 EQ PUSH2 0x849 JUMPI DUP1 PUSH4 0xF2FDE38B EQ PUSH2 0x85F JUMPI DUP1 PUSH4 0xF7D64CEC EQ PUSH2 0x87F JUMPI DUP1 PUSH4 0xF9432517 EQ PUSH2 0x89F JUMPI PUSH1 0x0 DUP1 REVERT JUMPDEST DUP1 PUSH4 0xCF7B287F EQ PUSH2 0x792 JUMPI DUP1 PUSH4 0xD137920B EQ PUSH2 0x7B2 JUMPI DUP1 PUSH4 0xD762A37B EQ PUSH2 0x7D2 JUMPI DUP1 PUSH4 0xE2653EEB EQ PUSH2 0x7F2 JUMPI DUP1 PUSH4 0xE7AAD5C4 EQ PUSH2 0x808 JUMPI PUSH1 0x0 DUP1 REVERT JUMPDEST DUP1 PUSH4 0x9E375226 GT PUSH2 0xFD JUMPI DUP1 PUSH4 0x9E375226 EQ PUSH2 0x65C JUMPI DUP1 PUSH4 0xA032B5F4 EQ PUSH2 0x68C JUMPI DUP1 PUSH4 0xA888C2CD EQ PUSH2 0x6AC JUMPI DUP1 PUSH4 0xADB610A3 EQ PUSH2 0x75C JUMPI DUP1 PUSH4 0xCEA74EDF EQ PUSH2 0x772 JUMPI PUSH1 0x0 DUP1 REVERT JUMPDEST DUP1 PUSH4 0x7DC2CD98 EQ PUSH2 0x505 JUMPI DUP1 PUSH4 0x8DA5CB5B EQ PUSH2 0x51B JUMPI DUP1 PUSH4 0x92C824D8 EQ PUSH2 0x539 JUMPI DUP1 PUSH4 0x96171D05 EQ PUSH2 0x54C JUMPI DUP1 PUSH4 0x9D866985 EQ PUSH2 0x562 JUMPI PUSH1 0x0 DUP1 REVERT JUMPDEST DUP1 PUSH4 0x3993B6ED GT PUSH2 0x1C7 JUMPI DUP1 PUSH4 0x7203AE3B GT PUSH2 0x18B JUMPI DUP1 PUSH4 0x7203AE3B EQ PUSH2 0x472 JUMPI DUP1 PUSH4 0x743C151A EQ PUSH2 0x492 JUMPI DUP1 PUSH4 0x747293FB EQ PUSH2 0x4A5 JUMPI DUP1 PUSH4 0x78DA194B EQ PUSH2 0x4C5 JUMPI DUP1 PUSH4 0x79650559 EQ PUSH2 0x4E5 JUMPI PUSH1 0x0 DUP1 REVERT JUMPDEST DUP1 PUSH4 0x3993B6ED EQ PUSH2 0x3DA JUMPI DUP1 PUSH4 0x5B3A6EF2 EQ PUSH2 0x3FA JUMPI DUP1 PUSH4 0x5D5AA11B EQ PUSH2 0x41A JUMPI DUP1 PUSH4 0x6BC6C8D1 EQ PUSH2 0x430 JUMPI DUP1 PUSH4 0x715018A6 EQ PUSH2 0x45D JUMPI PUSH1 0x0 DUP1 REVERT JUMPDEST DUP1 PUSH4 0x2E1A7D4D GT PUSH2 0x20E JUMPI DUP1 PUSH4 0x2E1A7D4D EQ PUSH2 0x30E JUMPI DUP1 PUSH4 0x2F4212B8 EQ PUSH2 0x32E JUMPI DUP1 PUSH4 0x2F92F009 EQ PUSH2 0x34E JUMPI DUP1 PUSH4 0x30A08CBC EQ PUSH2 0x37B JUMPI DUP1 PUSH4 0x31E08F7A EQ PUSH2 0x3BA JUMPI PUSH1 0x0 DUP1 REVERT JUMPDEST DUP1 PUSH4 0x3FC4C37 EQ PUSH2 0x24B JUMPI DUP1 PUSH4 0xE136B19 EQ PUSH2 0x26D JUMPI DUP1 PUSH4 0xE19A1C6 EQ PUSH2 0x29C JUMPI DUP1 PUSH4 0x1489F8D2 EQ PUSH2 0x2D4 JUMPI DUP1 PUSH4 0x1D18ADC5 EQ PUSH2 0x2F8 JUMPI JUMPDEST PUSH1 0x0 DUP1 REVERT JUMPDEST CALLVALUE DUP1 ISZERO PUSH2 0x257 JUMPI PUSH1 0x0 DUP1 REVERT JUMPDEST POP PUSH2 0x26B PUSH2 0x266 CALLDATASIZE PUSH1 0x4 PUSH2 0x292E JUMP JUMPDEST PUSH2 0x8B5 JUMP JUMPDEST STOP JUMPDEST CALLVALUE DUP1 ISZERO PUSH2 0x279 JUMPI PUSH1 0x0 DUP1 REVERT JUMPDEST POP PUSH1 0x6 SLOAD PUSH2 0x287 SWAP1 PUSH1 0xFF AND DUP2 JUMP JUMPDEST PUSH1 0x40 MLOAD SWAP1 ISZERO ISZERO DUP2 MSTORE PUSH1 0x20 ADD JUMPDEST PUSH1 0x40 MLOAD DUP1 SWAP2 SUB SWAP1 RETURN JUMPDEST CALLVALUE DUP1 ISZERO PUSH2 0x2A8 JUMPI PUSH1 0x0 DUP1 REVERT JUMPDEST POP PUSH2 0x2BC PUSH2 0x2B7 CALLDATASIZE PUSH1 0x4 PUSH2 0x295A JUMP JUMPDEST PUSH2 0xB04 JUMP JUMPDEST PUSH1 0x40 MLOAD PUSH1 0x1 PUSH1 0x1 PUSH1 0xA0 SHL SUB SWAP1 SWAP2 AND DUP2 MSTORE PUSH1 0x20 ADD PUSH2 0x293 JUMP JUMPDEST CALLVALUE DUP1 ISZERO PUSH2 0x2E0 JUMPI PUSH1 0x0 DUP1 REVERT JUMPDEST POP PUSH2 0x2EA PUSH2 0x12C DUP2 JUMP JUMPDEST PUSH1 0x40 MLOAD SWAP1 DUP2 MSTORE PUSH1 0x20 ADD PUSH2 0x293 JUMP JUMPDEST CALLVALUE DUP1 ISZERO PUSH2 0x304 JUMPI PUSH1 0x0 DUP1 REVERT JUMPDEST POP PUSH2 0x2EA PUSH1 0x5 SLOAD DUP2 JUMP JUMPDEST CALLVALUE DUP1 ISZERO PUSH2 0x31A JUMPI PUSH1 0x0 DUP1 REVERT JUMPDEST POP PUSH2 0x2BC PUSH2 0x329 CALLDATASIZE PUSH1 0x4 PUSH2 0x297C JUMP JUMPDEST PUSH2 0xB32 JUMP JUMPDEST CALLVALUE DUP1 ISZERO PUSH2 0x33A JUMPI PUSH1 0x0 DUP1 REVERT JUMPDEST POP PUSH2 0x2EA PUSH2 0x349 CALLDATASIZE PUSH1 0x4 PUSH2 0x29B1 JUMP JUMPDEST PUSH2 0xDE3 JUMP JUMPDEST CALLVALUE DUP1 ISZERO PUSH2 0x35A JUMPI PUSH1 0x0 DUP1 REVERT JUMPDEST POP PUSH2 0x2EA PUSH2 0x369 CALLDATASIZE PUSH1 0x4 PUSH2 0x297C JUMP JUMPDEST PUSH1 0x8 PUSH1 0x20 MSTORE PUSH1 0x0 SWAP1 DUP2 MSTORE PUSH1 0x40 SWAP1 KECCAK256 SLOAD DUP2 JUMP JUMPDEST CALLVALUE DUP1 ISZERO PUSH2 0x387 JUMPI PUSH1 0x0 DUP1 REVERT JUMPDEST POP PUSH2 0x287 PUSH2 0x396 CALLDATASIZE PUSH1 0x4 PUSH2 0x295A JUMP JUMPDEST PUSH1 0x0 SWAP2 DUP3 MSTORE PUSH1 0x9 PUSH1 0x20 SWAP1 DUP2 MSTORE PUSH1 0x40 DUP1 DUP5 KECCAK256 SWAP3 DUP5 MSTORE PUSH1 0xB SWAP1 SWAP3 ADD SWAP1 MSTORE SWAP1 KECCAK256 SLOAD PUSH1 0xFF AND SWAP1 JUMP JUMPDEST CALLVALUE DUP1 ISZERO PUSH2 0x3C6 JUMPI PUSH1 0x0 DUP1 REVERT JUMPDEST POP PUSH2 0x26B PUSH2 0x3D5 CALLDATASIZE PUSH1 0x4 PUSH2 0x2A10 JUMP JUMPDEST PUSH2 0x11FB JUMP JUMPDEST CALLVALUE DUP1 ISZERO PUSH2 0x3E6 JUMPI PUSH1 0x0 DUP1 REVERT JUMPDEST POP PUSH2 0x26B PUSH2 0x3F5 CALLDATASIZE PUSH1 0x4 PUSH2 0x2A10 JUMP JUMPDEST PUSH2 0x125F JUMP JUMPDEST CALLVALUE DUP1 ISZERO PUSH2 0x406 JUMPI PUSH1 0x0 DUP1 REVERT JUMPDEST POP PUSH2 0x26B PUSH2 0x415 CALLDATASIZE PUSH1 0x4 PUSH2 0x2A2B JUMP JUMPDEST PUSH2 0x12B8 JUMP JUMPDEST CALLVALUE DUP1 ISZERO PUSH2 0x426 JUMPI PUSH1 0x0 DUP1 REVERT JUMPDEST POP PUSH2 0x2EA PUSH1 0xB SLOAD DUP2 JUMP JUMPDEST CALLVALUE DUP1 ISZERO PUSH2 0x43C JUMPI PUSH1 0x0 DUP1 REVERT JUMPDEST POP PUSH2 0x2EA PUSH2 0x44B CALLDATASIZE PUSH1 0x4 PUSH2 0x2A10 JUMP JUMPDEST PUSH1 0xF PUSH1 0x20 MSTORE PUSH1 0x0 SWAP1 DUP2 MSTORE PUSH1 0x40 SWAP1 KECCAK256 SLOAD DUP2 JUMP JUMPDEST CALLVALUE DUP1 ISZERO PUSH2 0x469 JUMPI PUSH1 0x0 DUP1 REVERT JUMPDEST POP PUSH2 0x26B PUSH2 0x1461 JUMP JUMPDEST CALLVALUE DUP1 ISZERO PUSH2 0x47E JUMPI PUSH1 0x0 DUP1 REVERT JUMPDEST POP PUSH2 0x26B PUSH2 0x48D CALLDATASIZE PUSH1 0x4 PUSH2 0x2A6A JUMP JUMPDEST PUSH2 0x1475 JUMP JUMPDEST PUSH2 0x2EA PUSH2 0x4A0 CALLDATASIZE PUSH1 0x4 PUSH2 0x295A JUMP JUMPDEST PUSH2 0x148D JUMP JUMPDEST CALLVALUE DUP1 ISZERO PUSH2 0x4B1 JUMPI PUSH1 0x0 DUP1 REVERT JUMPDEST POP PUSH2 0x26B PUSH2 0x4C0 CALLDATASIZE PUSH1 0x4 PUSH2 0x2A10 JUMP JUMPDEST PUSH2 0x17A9 JUMP JUMPDEST CALLVALUE DUP1 ISZERO PUSH2 0x4D1 JUMPI PUSH1 0x0 DUP1 REVERT JUMPDEST POP PUSH2 0x26B PUSH2 0x4E0 CALLDATASIZE PUSH1 0x4 PUSH2 0x292E JUMP JUMPDEST PUSH2 0x17C0 JUMP JUMPDEST CALLVALUE DUP1 ISZERO PUSH2 0x4F1 JUMPI PUSH1 0x0 DUP1 REVERT JUMPDEST POP PUSH2 0x26B PUSH2 0x500 CALLDATASIZE PUSH1 0x4 PUSH2 0x297C JUMP JUMPDEST PUSH2 0x17D6 JUMP JUMPDEST CALLVALUE DUP1 ISZERO PUSH2 0x511 JUMPI PUSH1 0x0 DUP1 REVERT JUMPDEST POP PUSH2 0x2EA PUSH1 0x4 SLOAD DUP2 JUMP JUMPDEST CALLVALUE DUP1 ISZERO PUSH2 0x527 JUMPI PUSH1 0x0 DUP1 REVERT JUMPDEST POP PUSH1 0x0 SLOAD PUSH1 0x1 PUSH1 0x1 PUSH1 0xA0 SHL SUB AND PUSH2 0x2BC JUMP JUMPDEST PUSH2 0x26B PUSH2 0x547 CALLDATASIZE PUSH1 0x4 PUSH2 0x297C JUMP JUMPDEST PUSH2 0x19D4 JUMP JUMPDEST CALLVALUE DUP1 ISZERO PUSH2 0x558 JUMPI PUSH1 0x0 DUP1 REVERT JUMPDEST POP PUSH2 0x2EA PUSH2 0x708 DUP2 JUMP JUMPDEST CALLVALUE DUP1 ISZERO PUSH2 0x56E JUMPI PUSH1 0x0 DUP1 REVERT JUMPDEST POP PUSH2 0x5F1 PUSH2 0x57D CALLDATASIZE PUSH1 0x4 PUSH2 0x297C JUMP JUMPDEST PUSH1 0x9 PUSH1 0x20 DUP2 SWAP1 MSTORE PUSH1 0x0 SWAP2 DUP3 MSTORE PUSH1 0x40 SWAP1 SWAP2 KECCAK256 DUP1 SLOAD PUSH1 0x1 DUP3 ADD SLOAD PUSH1 0x2 DUP4 ADD SLOAD PUSH1 0x3 DUP5 ADD SLOAD PUSH1 0x4 DUP6 ADD SLOAD PUSH1 0x5 DUP7 ADD SLOAD PUSH1 0x6 DUP8 ADD SLOAD PUSH1 0x7 DUP9 ADD SLOAD PUSH1 0x8 DUP10 ADD SLOAD SWAP10 DUP10 ADD SLOAD PUSH1 0xA SWAP1 SWAP10 ADD SLOAD PUSH1 0x1 PUSH1 0x1 PUSH1 0xA0 SHL SUB SWAP9 DUP10 AND SWAP11 SWAP8 DUP10 AND SWAP10 SWAP7 SWAP9 SWAP6 SWAP8 SWAP5 SWAP7 SWAP4 SWAP6 SWAP3 SWAP5 PUSH1 0x1 PUSH1 0x1 PUSH1 0xC0 SHL SUB SWAP1 SWAP3 AND SWAP4 SWAP2 SWAP3 SWAP1 SWAP2 AND SWAP1 DUP12 JUMP JUMPDEST PUSH1 0x40 DUP1 MLOAD PUSH1 0x1 PUSH1 0x1 PUSH1 0xA0 SHL SUB SWAP13 DUP14 AND DUP2 MSTORE SWAP11 DUP13 AND PUSH1 0x20 DUP13 ADD MSTORE DUP11 ADD SWAP9 SWAP1 SWAP9 MSTORE PUSH1 0x60 DUP10 ADD SWAP7 SWAP1 SWAP7 MSTORE PUSH1 0x80 DUP9 ADD SWAP5 SWAP1 SWAP5 MSTORE PUSH1 0xA0 DUP8 ADD SWAP3 SWAP1 SWAP3 MSTORE PUSH1 0xC0 DUP7 ADD MSTORE PUSH1 0x1 PUSH1 0x1 PUSH1 0xC0 SHL SUB AND PUSH1 0xE0 DUP6 ADD MSTORE PUSH2 0x100 DUP5 ADD MSTORE SWAP1 SWAP3 AND PUSH2 0x120 DUP3 ADD MSTORE PUSH2 0x140 DUP2 ADD SWAP2 SWAP1 SWAP2 MSTORE PUSH2 0x160 ADD PUSH2 0x293 JUMP JUMPDEST CALLVALUE DUP1 ISZERO PUSH2 0x668 JUMPI PUSH1 0x0 DUP1 REVERT JUMPDEST POP PUSH2 0x287 PUSH2 0x677 CALLDATASIZE PUSH1 0x4 PUSH2 0x2A10 JUMP JUMPDEST PUSH1 0x1 PUSH1 0x20 MSTORE PUSH1 0x0 SWAP1 DUP2 MSTORE PUSH1 0x40 SWAP1 KECCAK256 SLOAD PUSH1 0xFF AND DUP2 JUMP JUMPDEST CALLVALUE DUP1 ISZERO PUSH2 0x698 JUMPI PUSH1 0x0 DUP1 REVERT JUMPDEST POP PUSH2 0x2EA PUSH2 0x6A7 CALLDATASIZE PUSH1 0x4 PUSH2 0x297C JUMP JUMPDEST PUSH2 0x1DD5 JUMP JUMPDEST CALLVALUE DUP1 ISZERO PUSH2 0x6B8 JUMPI PUSH1 0x0 DUP1 REVERT JUMPDEST POP PUSH2 0x716 PUSH2 0x6C7 CALLDATASIZE PUSH1 0x4 PUSH2 0x297C JUMP JUMPDEST PUSH1 0xA PUSH1 0x20 MSTORE PUSH1 0x0 SWAP1 DUP2 MSTORE PUSH1 0x40 SWAP1 KECCAK256 DUP1 SLOAD PUSH1 0x1 DUP3 ADD SLOAD PUSH1 0x2 DUP4 ADD SLOAD PUSH1 0x4 DUP5 ADD SLOAD PUSH1 0x5 DUP6 ADD SLOAD PUSH1 0x6 DUP7 ADD SLOAD PUSH1 0x7 DUP8 ADD SLOAD PUSH1 0x8 SWAP1 SWAP8 ADD SLOAD SWAP6 SWAP7 PUSH1 0x1 PUSH1 0x1 PUSH1 0xA0 SHL SUB SWAP6 DUP7 AND SWAP7 SWAP5 SWAP6 SWAP1 SWAP4 AND SWAP4 SWAP2 SWAP3 SWAP1 SWAP2 DUP9 JUMP JUMPDEST PUSH1 0x40 DUP1 MLOAD SWAP9 DUP10 MSTORE PUSH1 0x1 PUSH1 0x1 PUSH1 0xA0 SHL SUB SWAP8 DUP9 AND PUSH1 0x20 DUP11 ADD MSTORE DUP9 ADD SWAP6 SWAP1 SWAP6 MSTORE SWAP5 SWAP1 SWAP3 AND PUSH1 0x60 DUP7 ADD MSTORE PUSH1 0x80 DUP6 ADD MSTORE PUSH1 0xA0 DUP5 ADD MSTORE PUSH1 0xC0 DUP4 ADD SWAP2 SWAP1 SWAP2 MSTORE PUSH1 0xE0 DUP3 ADD MSTORE PUSH2 0x100 ADD PUSH2 0x293 JUMP JUMPDEST CALLVALUE DUP1 ISZERO PUSH2 0x768 JUMPI PUSH1 0x0 DUP1 REVERT JUMPDEST POP PUSH2 0x2EA PUSH1 0x7 SLOAD DUP2 JUMP JUMPDEST CALLVALUE DUP1 ISZERO PUSH2 0x77E JUMPI PUSH1 0x0 DUP1 REVERT JUMPDEST POP PUSH2 0x2EA PUSH2 0x78D CALLDATASIZE PUSH1 0x4 PUSH2 0x297C JUMP JUMPDEST PUSH2 0x1DF9 JUMP JUMPDEST CALLVALUE DUP1 ISZERO PUSH2 0x79E JUMPI PUSH1 0x0 DUP1 REVERT JUMPDEST POP PUSH2 0x26B PUSH2 0x7AD CALLDATASIZE PUSH1 0x4 PUSH2 0x2AA6 JUMP JUMPDEST PUSH2 0x1E17 JUMP JUMPDEST CALLVALUE DUP1 ISZERO PUSH2 0x7BE JUMPI PUSH1 0x0 DUP1 REVERT JUMPDEST POP PUSH2 0x26B PUSH2 0x7CD CALLDATASIZE PUSH1 0x4 PUSH2 0x295A JUMP JUMPDEST PUSH2 0x1EA2 JUMP JUMPDEST CALLVALUE DUP1 ISZERO PUSH2 0x7DE JUMPI PUSH1 0x0 DUP1 REVERT JUMPDEST POP PUSH2 0x26B PUSH2 0x7ED CALLDATASIZE PUSH1 0x4 PUSH2 0x297C JUMP JUMPDEST PUSH2 0x1F58 JUMP JUMPDEST CALLVALUE DUP1 ISZERO PUSH2 0x7FE JUMPI PUSH1 0x0 DUP1 REVERT JUMPDEST POP PUSH2 0x2EA PUSH1 0xC SLOAD DUP2 JUMP JUMPDEST CALLVALUE DUP1 ISZERO PUSH2 0x814 JUMPI PUSH1 0x0 DUP1 REVERT JUMPDEST POP PUSH2 0x2EA PUSH1 0xD SLOAD DUP2 JUMP JUMPDEST CALLVALUE DUP1 ISZERO PUSH2 0x82A JUMPI PUSH1 0x0 DUP1 REVERT JUMPDEST POP PUSH2 0x2EA PUSH1 0x0 NOT DUP2 JUMP JUMPDEST CALLVALUE DUP1 ISZERO PUSH2 0x840 JUMPI PUSH1 0x0 DUP1 REVERT JUMPDEST POP PUSH2 0x26B PUSH2 0x1F65 JUMP JUMPDEST CALLVALUE DUP1 ISZERO PUSH2 0x855 JUMPI PUSH1 0x0 DUP1 REVERT JUMPDEST POP PUSH2 0x2EA PUSH1 0x3 SLOAD DUP2 JUMP JUMPDEST CALLVALUE DUP1 ISZERO PUSH2 0x86B JUMPI PUSH1 0x0 DUP1 REVERT JUMPDEST POP PUSH2 0x26B PUSH2 0x87A CALLDATASIZE PUSH1 0x4 PUSH2 0x2A10 JUMP JUMPDEST PUSH2 0x1FCF JUMP JUMPDEST CALLVALUE DUP1 ISZERO PUSH2 0x88B JUMPI PUSH1 0x0 DUP1 REVERT JUMPDEST POP PUSH2 0x2EA PUSH2 0x89A CALLDATASIZE PUSH1 0x4 PUSH2 0x297C JUMP JUMPDEST PUSH2 0x2045 JUMP JUMPDEST CALLVALUE DUP1 ISZERO PUSH2 0x8AB JUMPI PUSH1 0x0 DUP1 REVERT JUMPDEST POP PUSH2 0x2EA PUSH1 0xE SLOAD DUP2 JUMP JUMPDEST PUSH1 0x0 DUP2 DUP2 MSTORE PUSH1 0x2 PUSH1 0x20 MSTORE PUSH1 0x40 SWAP1 KECCAK256 SLOAD DUP2 SWAP1 PUSH1 0x1 PUSH1 0x1 PUSH1 0xA0 SHL SUB AND CHAINID DUP3 SUB PUSH2 0x90C JUMPI CALLER PUSH1 0x1 PUSH1 0x1 PUSH1 0xA0 SHL SUB DUP3 AND EQ PUSH2 0x907 JUMPI PUSH1 0x40 MLOAD PUSH3 0x461BCD PUSH1 0xE5 SHL DUP2 MSTORE PUSH1 0x4 ADD PUSH2 0x8FE SWAP1 PUSH2 0x2AD9 JUMP JUMPDEST PUSH1 0x40 MLOAD DUP1 SWAP2 SUB SWAP1 REVERT JUMPDEST PUSH2 0x9D2 JUMP JUMPDEST PUSH1 0x0 DUP3 DUP2 MSTORE PUSH1 0x2 PUSH1 0x20 MSTORE PUSH1 0x40 SWAP1 KECCAK256 PUSH1 0x1 ADD SLOAD PUSH1 0x1 PUSH1 0x1 PUSH1 0xA0 SHL SUB AND DUP1 PUSH2 0x944 JUMPI PUSH1 0x40 MLOAD PUSH3 0x461BCD PUSH1 0xE5 SHL DUP2 MSTORE PUSH1 0x4 ADD PUSH2 0x8FE SWAP1 PUSH2 0x2B0E JUMP JUMPDEST PUSH1 0x40 MLOAD PUSH4 0x845C5443 PUSH1 0xE0 SHL DUP2 MSTORE PUSH1 0x1 PUSH1 0x1 PUSH1 0xA0 SHL SUB DUP4 DUP2 AND PUSH1 0x4 DUP4 ADD MSTORE CALLER PUSH1 0x24 DUP4 ADD MSTORE DUP3 AND SWAP1 PUSH4 0x845C5443 SWAP1 PUSH1 0x44 ADD PUSH1 0x20 PUSH1 0x40 MLOAD DUP1 DUP4 SUB DUP2 DUP7 GAS STATICCALL ISZERO DUP1 ISZERO PUSH2 0x990 JUMPI RETURNDATASIZE PUSH1 0x0 DUP1 RETURNDATACOPY RETURNDATASIZE PUSH1 0x0 REVERT JUMPDEST POP POP POP POP PUSH1 0x40 MLOAD RETURNDATASIZE PUSH1 0x1F NOT PUSH1 0x1F DUP3 ADD AND DUP3 ADD DUP1 PUSH1 0x40 MSTORE POP DUP2 ADD SWAP1 PUSH2 0x9B4 SWAP2 SWAP1 PUSH2 0x2B50 JUMP JUMPDEST PUSH2 0x9D0 JUMPI PUSH1 0x40 MLOAD PUSH3 0x461BCD PUSH1 0xE5 SHL DUP2 MSTORE PUSH1 0x4 ADD PUSH2 0x8FE SWAP1 PUSH2 0x2AD9 JUMP JUMPDEST POP JUMPDEST PUSH1 0x0 DUP6 DUP2 MSTORE PUSH1 0x9 PUSH1 0x20 DUP2 SWAP1 MSTORE PUSH1 0x40 SWAP1 SWAP2 KECCAK256 SWAP1 DUP2 ADD SLOAD PUSH1 0x1 PUSH1 0x1 PUSH1 0xA0 SHL SUB AND ISZERO PUSH2 0xA3D JUMPI PUSH1 0x40 MLOAD PUSH3 0x461BCD PUSH1 0xE5 SHL DUP2 MSTORE PUSH1 0x20 PUSH1 0x4 DUP3 ADD DUP2 SWAP1 MSTORE PUSH1 0x24 DUP3 ADD MSTORE PUSH32 0x43616E6E6F7420696E76616C6964617465207265736F6C7665642066696C6C73 PUSH1 0x44 DUP3 ADD MSTORE PUSH1 0x64 ADD PUSH2 0x8FE JUMP JUMPDEST PUSH1 0x0 DUP6 DUP2 MSTORE PUSH1 0xB DUP3 ADD PUSH1 0x20 MSTORE PUSH1 0x40 SWAP1 KECCAK256 SLOAD PUSH1 0xFF AND ISZERO PUSH2 0xA9E JUMPI PUSH1 0x40 MLOAD PUSH3 0x461BCD PUSH1 0xE5 SHL DUP2 MSTORE PUSH1 0x20 PUSH1 0x4 DUP3 ADD MSTORE PUSH1 0x18 PUSH1 0x24 DUP3 ADD MSTORE PUSH32 0x46696C6C20616C726561647920696E76616C6964617465640000000000000000 PUSH1 0x44 DUP3 ADD MSTORE PUSH1 0x64 ADD PUSH2 0x8FE JUMP JUMPDEST PUSH1 0x0 DUP6 DUP2 MSTORE PUSH1 0xB DUP3 ADD PUSH1 0x20 MSTORE PUSH1 0x40 SWAP1 DUP2 SWAP1 KECCAK256 DUP1 SLOAD PUSH1 0xFF NOT AND PUSH1 0x1 OR SWAP1 SSTORE MLOAD PUSH32 0x5571B83C623961FB42D39CE6D6D2092153ACE66C008E2DC2472EC6D2E8FAD045 SWAP1 PUSH2 0xAF4 SWAP1 DUP9 SWAP1 DUP9 SWAP1 SWAP2 DUP3 MSTORE PUSH1 0x20 DUP3 ADD MSTORE PUSH1 0x40 ADD SWAP1 JUMP JUMPDEST PUSH1 0x40 MLOAD DUP1 SWAP2 SUB SWAP1 LOG1 POP POP POP POP POP POP JUMP JUMPDEST PUSH1 0x2 PUSH1 0x20 MSTORE DUP2 PUSH1 0x0 MSTORE PUSH1 0x40 PUSH1 0x0 KECCAK256 DUP2 PUSH1 0x2 DUP2 LT PUSH2 0xB20 JUMPI PUSH1 0x0 DUP1 REVERT JUMPDEST ADD SLOAD PUSH1 0x1 PUSH1 0x1 PUSH1 0xA0 SHL SUB AND SWAP2 POP DUP3 SWAP1 POP JUMP JUMPDEST PUSH1 0x0 DUP2 DUP2 MSTORE PUSH1 0xA PUSH1 0x20 MSTORE PUSH1 0x40 DUP2 KECCAK256 PUSH1 0x1 ADD SLOAD DUP3 SWAP1 PUSH1 0x1 PUSH1 0x1 PUSH1 0xA0 SHL SUB AND PUSH2 0xB8F JUMPI PUSH1 0x40 MLOAD PUSH3 0x461BCD PUSH1 0xE5 SHL DUP2 MSTORE PUSH1 0x20 PUSH1 0x4 DUP3 ADD MSTORE PUSH1 0x11 PUSH1 0x24 DUP3 ADD MSTORE PUSH17 0x18DB185A5B5259081B9BDD081D985B1A59 PUSH1 0x7A SHL PUSH1 0x44 DUP3 ADD MSTORE PUSH1 0x64 ADD PUSH2 0x8FE JUMP JUMPDEST PUSH1 0x0 DUP4 DUP2 MSTORE PUSH1 0xA PUSH1 0x20 SWAP1 DUP2 MSTORE PUSH1 0x40 DUP1 DUP4 KECCAK256 DUP1 SLOAD DUP5 MSTORE PUSH1 0x9 SWAP1 SWAP3 MSTORE DUP3 KECCAK256 SWAP1 SWAP2 DUP1 PUSH2 0xBB7 DUP8 PUSH2 0x2069 JUMP JUMPDEST PUSH1 0x1 PUSH1 0x1 PUSH1 0xA0 SHL SUB DUP3 AND PUSH1 0x0 SWAP1 DUP2 MSTORE PUSH1 0x3 DUP8 ADD PUSH1 0x20 MSTORE PUSH1 0x40 SWAP1 KECCAK256 SLOAD SWAP2 SWAP4 POP SWAP2 POP ISZERO PUSH2 0xBF8 JUMPI PUSH1 0x1 PUSH1 0x1 PUSH1 0xA0 SHL SUB DUP3 AND PUSH1 0x0 SWAP1 DUP2 MSTORE PUSH1 0x3 DUP6 ADD PUSH1 0x20 MSTORE PUSH1 0x40 DUP2 KECCAK256 SSTORE JUMPDEST DUP4 PUSH1 0x6 ADD SLOAD PUSH1 0x0 SUB PUSH2 0xC4A JUMPI PUSH1 0x7 DUP4 ADD DUP1 SLOAD PUSH1 0x1 SWAP2 SWAP1 PUSH1 0x0 SWAP1 PUSH2 0xC25 SWAP1 DUP5 SWAP1 PUSH1 0x1 PUSH1 0x1 PUSH1 0xC0 SHL SUB AND PUSH2 0x2B88 JUMP JUMPDEST SWAP3 POP PUSH2 0x100 EXP DUP2 SLOAD DUP2 PUSH1 0x1 PUSH1 0x1 PUSH1 0xC0 SHL SUB MUL NOT AND SWAP1 DUP4 PUSH1 0x1 PUSH1 0x1 PUSH1 0xC0 SHL SUB AND MUL OR SWAP1 SSTORE POP JUMPDEST DUP1 DUP5 PUSH1 0x6 ADD PUSH1 0x0 DUP3 DUP3 SLOAD PUSH2 0xC5E SWAP2 SWAP1 PUSH2 0x2BB0 JUMP JUMPDEST SWAP1 SWAP2 SSTORE POP POP PUSH1 0x5 DUP5 ADD SLOAD PUSH1 0x2 DUP6 ADD SLOAD PUSH2 0xC77 SWAP2 SWAP1 PUSH2 0x2BB0 JUMP JUMPDEST DUP5 PUSH1 0x6 ADD SLOAD GT ISZERO PUSH2 0xCCA JUMPI PUSH1 0x40 MLOAD PUSH3 0x461BCD PUSH1 0xE5 SHL DUP2 MSTORE PUSH1 0x20 PUSH1 0x4 DUP3 ADD MSTORE PUSH1 0x1C PUSH1 0x24 DUP3 ADD MSTORE PUSH32 0x416D6F756E7420746F20776974686472617720746F6F206C6172676500000000 PUSH1 0x44 DUP3 ADD MSTORE PUSH1 0x64 ADD PUSH2 0x8FE JUMP JUMPDEST PUSH1 0x0 DUP3 PUSH1 0x1 PUSH1 0x1 PUSH1 0xA0 SHL SUB AND DUP3 PUSH1 0x40 MLOAD PUSH1 0x0 PUSH1 0x40 MLOAD DUP1 DUP4 SUB DUP2 DUP6 DUP8 GAS CALL SWAP3 POP POP POP RETURNDATASIZE DUP1 PUSH1 0x0 DUP2 EQ PUSH2 0xD17 JUMPI PUSH1 0x40 MLOAD SWAP2 POP PUSH1 0x1F NOT PUSH1 0x3F RETURNDATASIZE ADD AND DUP3 ADD PUSH1 0x40 MSTORE RETURNDATASIZE DUP3 MSTORE RETURNDATASIZE PUSH1 0x0 PUSH1 0x20 DUP5 ADD RETURNDATACOPY PUSH2 0xD1C JUMP JUMPDEST PUSH1 0x60 SWAP2 POP JUMPDEST POP POP SWAP1 POP DUP1 PUSH2 0xD64 JUMPI PUSH1 0x40 MLOAD PUSH3 0x461BCD PUSH1 0xE5 SHL DUP2 MSTORE PUSH1 0x20 PUSH1 0x4 DUP3 ADD MSTORE PUSH1 0x14 PUSH1 0x24 DUP3 ADD MSTORE PUSH20 0x2330B4B632B2103A379039B2B7321022BA3432B9 PUSH1 0x61 SHL PUSH1 0x44 DUP3 ADD MSTORE PUSH1 0x64 ADD PUSH2 0x8FE JUMP JUMPDEST DUP5 SLOAD PUSH1 0x40 DUP1 MLOAD DUP11 DUP2 MSTORE PUSH1 0x1 PUSH1 0x1 PUSH1 0xA0 SHL SUB DUP7 AND PUSH1 0x20 DUP3 ADD MSTORE PUSH32 0xA5D98EFE63B5C32FD1A0E4D189473A6E9538A04F05DA85B3CD50C5915087DECF SWAP2 ADD PUSH1 0x40 MLOAD DUP1 SWAP2 SUB SWAP1 LOG2 PUSH1 0x8 DUP5 ADD SLOAD ISZERO DUP1 ISZERO PUSH2 0xDC8 JUMPI POP PUSH1 0x1 DUP6 ADD SLOAD PUSH1 0x1 PUSH1 0x1 PUSH1 0xA0 SHL SUB DUP5 DUP2 AND SWAP2 AND EQ JUMPDEST ISZERO PUSH2 0xDD7 JUMPI PUSH2 0xDD7 DUP5 DUP10 PUSH2 0x2333 JUMP JUMPDEST POP SWAP1 SWAP7 SWAP6 POP POP POP POP POP POP JUMP JUMPDEST PUSH1 0x6 SLOAD PUSH1 0x0 SWAP1 PUSH1 0xFF AND ISZERO PUSH2 0xE32 JUMPI PUSH1 0x40 MLOAD PUSH3 0x461BCD PUSH1 0xE5 SHL DUP2 MSTORE PUSH1 0x20 PUSH1 0x4 DUP3 ADD MSTORE PUSH1 0x16 PUSH1 0x24 DUP3 ADD MSTORE PUSH22 0x10DBDB9D1C9858DD081A5CC819195C1C9958D85D1959 PUSH1 0x52 SHL PUSH1 0x44 DUP3 ADD MSTORE PUSH1 0x64 ADD PUSH2 0x8FE JUMP JUMPDEST PUSH1 0x0 DUP8 DUP2 MSTORE PUSH1 0x8 PUSH1 0x20 MSTORE PUSH1 0x40 DUP2 KECCAK256 SLOAD SWAP1 SUB PUSH2 0xE8F JUMPI PUSH1 0x40 MLOAD PUSH3 0x461BCD PUSH1 0xE5 SHL DUP2 MSTORE PUSH1 0x20 PUSH1 0x4 DUP3 ADD MSTORE PUSH1 0x1B PUSH1 0x24 DUP3 ADD MSTORE PUSH32 0x54617267657420726F6C6C7570206E6F7420737570706F727465640000000000 PUSH1 0x44 DUP3 ADD MSTORE PUSH1 0x64 ADD PUSH2 0x8FE JUMP JUMPDEST PUSH2 0x12C DUP3 LT ISZERO PUSH2 0xEE1 JUMPI PUSH1 0x40 MLOAD PUSH3 0x461BCD PUSH1 0xE5 SHL DUP2 MSTORE PUSH1 0x20 PUSH1 0x4 DUP3 ADD MSTORE PUSH1 0x19 PUSH1 0x24 DUP3 ADD MSTORE PUSH32 0x56616C696469747920706572696F6420746F6F2073686F727400000000000000 PUSH1 0x44 DUP3 ADD MSTORE PUSH1 0x64 ADD PUSH2 0x8FE JUMP JUMPDEST PUSH2 0x708 DUP3 GT ISZERO PUSH2 0xF33 JUMPI PUSH1 0x40 MLOAD PUSH3 0x461BCD PUSH1 0xE5 SHL DUP2 MSTORE PUSH1 0x20 PUSH1 0x4 DUP3 ADD MSTORE PUSH1 0x18 PUSH1 0x24 DUP3 ADD MSTORE PUSH32 0x56616C696469747920706572696F6420746F6F206C6F6E670000000000000000 PUSH1 0x44 DUP3 ADD MSTORE PUSH1 0x64 ADD PUSH2 0x8FE JUMP JUMPDEST PUSH1 0xE SLOAD DUP4 GT ISZERO PUSH2 0xF85 JUMPI PUSH1 0x40 MLOAD PUSH3 0x461BCD PUSH1 0xE5 SHL DUP2 MSTORE PUSH1 0x20 PUSH1 0x4 DUP3 ADD MSTORE PUSH1 0x1D PUSH1 0x24 DUP3 ADD MSTORE PUSH32 0x416D6F756E742065786365656473207472616E73666572206C696D6974000000 PUSH1 0x44 DUP3 ADD MSTORE PUSH1 0x64 ADD PUSH2 0x8FE JUMP JUMPDEST DUP6 PUSH1 0x0 PUSH2 0xF91 DUP6 PUSH2 0x2045 JUMP JUMPDEST SWAP1 POP PUSH1 0x0 PUSH2 0xF9E DUP7 PUSH2 0x1DD5 JUMP JUMPDEST SWAP1 POP PUSH1 0x0 DUP2 PUSH2 0xFAD DUP5 DUP10 PUSH2 0x2BB0 JUMP JUMPDEST PUSH2 0xFB7 SWAP2 SWAP1 PUSH2 0x2BB0 JUMP JUMPDEST PUSH1 0x40 MLOAD PUSH4 0x6EB1769F PUSH1 0xE1 SHL DUP2 MSTORE CALLER PUSH1 0x4 DUP3 ADD MSTORE ADDRESS PUSH1 0x24 DUP3 ADD MSTORE SWAP1 SWAP2 POP DUP2 SWAP1 PUSH1 0x1 PUSH1 0x1 PUSH1 0xA0 SHL SUB DUP7 AND SWAP1 PUSH4 0xDD62ED3E SWAP1 PUSH1 0x44 ADD PUSH1 0x20 PUSH1 0x40 MLOAD DUP1 DUP4 SUB DUP2 DUP7 GAS STATICCALL ISZERO DUP1 ISZERO PUSH2 0x1006 JUMPI RETURNDATASIZE PUSH1 0x0 DUP1 RETURNDATACOPY RETURNDATASIZE PUSH1 0x0 REVERT JUMPDEST POP POP POP POP PUSH1 0x40 MLOAD RETURNDATASIZE PUSH1 0x1F NOT PUSH1 0x1F DUP3 ADD AND DUP3 ADD DUP1 PUSH1 0x40 MSTORE POP DUP2 ADD SWAP1 PUSH2 0x102A SWAP2 SWAP1 PUSH2 0x2BC8 JUMP JUMPDEST LT ISZERO PUSH2 0x1071 JUMPI PUSH1 0x40 MLOAD PUSH3 0x461BCD PUSH1 0xE5 SHL DUP2 MSTORE PUSH1 0x20 PUSH1 0x4 DUP3 ADD MSTORE PUSH1 0x16 PUSH1 0x24 DUP3 ADD MSTORE PUSH22 0x496E73756666696369656E7420616C6C6F77616E6365 PUSH1 0x50 SHL PUSH1 0x44 DUP3 ADD MSTORE PUSH1 0x64 ADD PUSH2 0x8FE JUMP JUMPDEST PUSH1 0x1 PUSH1 0x7 PUSH1 0x0 DUP3 DUP3 SLOAD PUSH2 0x1084 SWAP2 SWAP1 PUSH2 0x2BB0 JUMP JUMPDEST SWAP1 SWAP2 SSTORE POP POP PUSH1 0x7 SLOAD PUSH1 0x40 DUP1 MLOAD CHAINID PUSH1 0x20 DUP1 DUP4 ADD SWAP2 SWAP1 SWAP2 MSTORE DUP2 DUP4 ADD DUP16 SWAP1 MSTORE PUSH12 0xFFFFFFFFFFFFFFFFFFFFFFFF NOT PUSH1 0x60 DUP15 DUP2 SHL DUP3 AND DUP2 DUP6 ADD MSTORE DUP14 SWAP1 SHL AND PUSH1 0x74 DUP4 ADD MSTORE PUSH1 0x88 DUP3 ADD DUP12 SWAP1 MSTORE PUSH1 0xA8 DUP1 DUP4 ADD SWAP5 SWAP1 SWAP5 MSTORE DUP3 MLOAD DUP1 DUP4 SUB SWAP1 SWAP5 ADD DUP5 MSTORE PUSH1 0xC8 SWAP1 SWAP2 ADD DUP3 MSTORE DUP3 MLOAD SWAP3 DUP2 ADD SWAP3 SWAP1 SWAP3 KECCAK256 PUSH1 0x0 DUP2 DUP2 MSTORE PUSH1 0x9 SWAP1 SWAP4 MSTORE SWAP2 KECCAK256 DUP1 SLOAD CALLER PUSH1 0x1 PUSH1 0x1 PUSH1 0xA0 SHL SUB NOT SWAP2 DUP3 AND OR DUP3 SSTORE PUSH1 0x1 DUP3 ADD DUP1 SLOAD SWAP1 SWAP2 AND PUSH1 0x1 PUSH1 0x1 PUSH1 0xA0 SHL SUB DUP15 AND OR SWAP1 SSTORE PUSH1 0x2 DUP2 ADD DUP14 SWAP1 SSTORE PUSH1 0x3 DUP2 ADD DUP10 SWAP1 SSTORE PUSH2 0x1138 DUP9 TIMESTAMP PUSH2 0x2BB0 JUMP JUMPDEST DUP2 PUSH1 0x4 ADD DUP2 SWAP1 SSTORE POP DUP5 DUP2 PUSH1 0x5 ADD DUP2 SWAP1 SSTORE POP DUP4 DUP2 PUSH1 0x6 ADD DUP2 SWAP1 SSTORE POP DUP2 PUSH32 0xF852FA5288E6BD150237CEC1F415E191D8232B72067C0520011180D7EA00BA8C DUP15 DUP15 DUP15 DUP15 DUP15 PUSH1 0x7 SLOAD DUP9 PUSH1 0x4 ADD SLOAD PUSH1 0x40 MLOAD PUSH2 0x11CE SWAP8 SWAP7 SWAP6 SWAP5 SWAP4 SWAP3 SWAP2 SWAP1 SWAP7 DUP8 MSTORE PUSH1 0x1 PUSH1 0x1 PUSH1 0xA0 SHL SUB SWAP6 DUP7 AND PUSH1 0x20 DUP9 ADD MSTORE SWAP4 DUP6 AND PUSH1 0x40 DUP8 ADD MSTORE SWAP2 SWAP1 SWAP4 AND PUSH1 0x60 DUP6 ADD MSTORE PUSH1 0x80 DUP5 ADD SWAP3 SWAP1 SWAP3 MSTORE PUSH1 0xA0 DUP4 ADD SWAP2 SWAP1 SWAP2 MSTORE PUSH1 0xC0 DUP3 ADD MSTORE PUSH1 0xE0 ADD SWAP1 JUMP JUMPDEST PUSH1 0x40 MLOAD DUP1 SWAP2 SUB SWAP1 LOG2 PUSH2 0x11EB PUSH1 0x1 PUSH1 0x1 PUSH1 0xA0 SHL SUB DUP8 AND CALLER ADDRESS DUP7 PUSH2 0x23FE JUMP JUMPDEST POP SWAP12 SWAP11 POP POP POP POP POP POP POP POP POP POP POP JUMP JUMPDEST PUSH2 0x1203 PUSH2 0x2469 JUMP JUMPDEST PUSH1 0x1 PUSH1 0x1 PUSH1 0xA0 SHL SUB DUP2 AND PUSH1 0x0 DUP2 DUP2 MSTORE PUSH1 0x1 PUSH1 0x20 DUP2 DUP2 MSTORE PUSH1 0x40 SWAP3 DUP4 SWAP1 KECCAK256 DUP1 SLOAD PUSH1 0xFF NOT AND SWAP1 SWAP3 OR SWAP1 SWAP2 SSTORE SWAP1 MLOAD SWAP2 DUP3 MSTORE PUSH32 0x371FC559C30F70424413FED6BF7E57DC939651331ABAD5C970A8EA0921C80B2E SWAP2 ADD JUMPDEST PUSH1 0x40 MLOAD DUP1 SWAP2 SUB SWAP1 LOG1 POP JUMP JUMPDEST PUSH2 0x1267 PUSH2 0x2469 JUMP JUMPDEST PUSH1 0x1 PUSH1 0x1 PUSH1 0xA0 SHL SUB DUP2 AND PUSH1 0x0 DUP2 DUP2 MSTORE PUSH1 0x1 PUSH1 0x20 SWAP1 DUP2 MSTORE PUSH1 0x40 SWAP2 DUP3 SWAP1 KECCAK256 DUP1 SLOAD PUSH1 0xFF NOT AND SWAP1 SSTORE SWAP1 MLOAD SWAP2 DUP3 MSTORE PUSH32 0x4E774C97F73F4BEA034579E4224498D7D9B3A4109EAA70ED3D85C97A5855F198 SWAP2 ADD PUSH2 0x1254 JUMP JUMPDEST PUSH1 0x0 DUP3 DUP2 MSTORE PUSH1 0x2 PUSH1 0x20 MSTORE PUSH1 0x40 SWAP1 KECCAK256 SLOAD DUP3 SWAP1 PUSH1 0x1 PUSH1 0x1 PUSH1 0xA0 SHL SUB AND CHAINID DUP3 SUB PUSH2 0x1306 JUMPI CALLER PUSH1 0x1 PUSH1 0x1 PUSH1 0xA0 SHL SUB DUP3 AND EQ PUSH2 0x1301 JUMPI PUSH1 0x40 MLOAD PUSH3 0x461BCD PUSH1 0xE5 SHL DUP2 MSTORE PUSH1 0x4 ADD PUSH2 0x8FE SWAP1 PUSH2 0x2AD9 JUMP JUMPDEST PUSH2 0x13CC JUMP JUMPDEST PUSH1 0x0 DUP3 DUP2 MSTORE PUSH1 0x2 PUSH1 0x20 MSTORE PUSH1 0x40 SWAP1 KECCAK256 PUSH1 0x1 ADD SLOAD PUSH1 0x1 PUSH1 0x1 PUSH1 0xA0 SHL SUB AND DUP1 PUSH2 0x133E JUMPI PUSH1 0x40 MLOAD PUSH3 0x461BCD PUSH1 0xE5 SHL DUP2 MSTORE PUSH1 0x4 ADD PUSH2 0x8FE SWAP1 PUSH2 0x2B0E JUMP JUMPDEST PUSH1 0x40 MLOAD PUSH4 0x845C5443 PUSH1 0xE0 SHL DUP2 MSTORE PUSH1 0x1 PUSH1 0x1 PUSH1 0xA0 SHL SUB DUP4 DUP2 AND PUSH1 0x4 DUP4 ADD MSTORE CALLER PUSH1 0x24 DUP4 ADD MSTORE DUP3 AND SWAP1 PUSH4 0x845C5443 SWAP1 PUSH1 0x44 ADD PUSH1 0x20 PUSH1 0x40 MLOAD DUP1 DUP4 SUB DUP2 DUP7 GAS STATICCALL ISZERO DUP1 ISZERO PUSH2 0x138A JUMPI RETURNDATASIZE PUSH1 0x0 DUP1 RETURNDATACOPY RETURNDATASIZE PUSH1 0x0 REVERT JUMPDEST POP POP POP POP PUSH1 0x40 MLOAD RETURNDATASIZE PUSH1 0x1F NOT PUSH1 0x1F DUP3 ADD AND DUP3 ADD DUP1 PUSH1 0x40 MSTORE POP DUP2 ADD SWAP1 PUSH2 0x13AE SWAP2 SWAP1 PUSH2 0x2B50 JUMP JUMPDEST PUSH2 0x13CA JUMPI PUSH1 0x40 MLOAD PUSH3 0x461BCD PUSH1 0xE5 SHL DUP2 MSTORE PUSH1 0x4 ADD PUSH2 0x8FE SWAP1 PUSH2 0x2AD9 JUMP JUMPDEST POP JUMPDEST PUSH1 0x0 DUP7 DUP2 MSTORE PUSH1 0x9 PUSH1 0x20 DUP2 DUP2 MSTORE PUSH1 0x40 DUP1 DUP5 KECCAK256 SWAP3 DUP4 ADD DUP1 SLOAD PUSH1 0x1 PUSH1 0x1 PUSH1 0xA0 SHL SUB NOT AND PUSH1 0x1 PUSH1 0x1 PUSH1 0xA0 SHL SUB DUP10 AND SWAP1 DUP2 OR SWAP1 SWAP2 SSTORE PUSH1 0xA DUP5 ADD DUP11 SWAP1 SSTORE DUP10 DUP6 MSTORE PUSH1 0xB DUP5 ADD DUP4 MSTORE SWAP4 DUP2 SWAP1 KECCAK256 DUP1 SLOAD PUSH1 0xFF NOT AND SWAP1 SSTORE DUP1 MLOAD DUP11 DUP2 MSTORE SWAP2 DUP3 ADD SWAP4 SWAP1 SWAP4 MSTORE SWAP2 DUP3 ADD DUP8 SWAP1 MSTORE SWAP1 PUSH32 0xB32D3C8B5539B0CC3050D5B75E9DAD8ECA8744A0892259BDA27FDB51B9956736 SWAP1 PUSH1 0x60 ADD PUSH1 0x40 MLOAD DUP1 SWAP2 SUB SWAP1 LOG1 POP POP POP POP POP POP POP JUMP JUMPDEST PUSH2 0x1469 PUSH2 0x2469 JUMP JUMPDEST PUSH2 0x1473 PUSH1 0x0 PUSH2 0x24C3 JUMP JUMPDEST JUMP JUMPDEST PUSH2 0x147D PUSH2 0x2469 JUMP JUMPDEST PUSH2 0x1488 DUP4 DUP4 DUP4 PUSH2 0x2513 JUMP JUMPDEST POP POP POP JUMP JUMPDEST PUSH1 0x0 DUP3 DUP2 MSTORE PUSH1 0x9 PUSH1 0x20 MSTORE PUSH1 0x40 DUP2 KECCAK256 SLOAD DUP4 SWAP1 PUSH1 0x1 PUSH1 0x1 PUSH1 0xA0 SHL SUB AND PUSH2 0x14E9 JUMPI PUSH1 0x40 MLOAD PUSH3 0x461BCD PUSH1 0xE5 SHL DUP2 MSTORE PUSH1 0x20 PUSH1 0x4 DUP3 ADD MSTORE PUSH1 0x13 PUSH1 0x24 DUP3 ADD MSTORE PUSH19 0x1C995C5D595CDD1259081B9BDD081D985B1A59 PUSH1 0x6A SHL PUSH1 0x44 DUP3 ADD MSTORE PUSH1 0x64 ADD PUSH2 0x8FE JUMP JUMPDEST CALLER PUSH1 0x0 SWAP1 DUP2 MSTORE PUSH1 0x1 PUSH1 0x20 MSTORE PUSH1 0x40 SWAP1 KECCAK256 SLOAD PUSH1 0xFF AND PUSH2 0x1541 JUMPI PUSH1 0x40 MLOAD PUSH3 0x461BCD PUSH1 0xE5 SHL DUP2 MSTORE PUSH1 0x20 PUSH1 0x4 DUP3 ADD MSTORE PUSH1 0x16 PUSH1 0x24 DUP3 ADD MSTORE PUSH22 0x14D95B99195C881B9BDD081DDA1A5D195B1A5CDD1959 PUSH1 0x52 SHL PUSH1 0x44 DUP3 ADD MSTORE PUSH1 0x64 ADD PUSH2 0x8FE JUMP JUMPDEST PUSH1 0x0 DUP5 DUP2 MSTORE PUSH1 0x9 PUSH1 0x20 MSTORE PUSH1 0x40 SWAP1 KECCAK256 PUSH1 0x4 DUP2 ADD SLOAD TIMESTAMP LT PUSH2 0x1594 JUMPI PUSH1 0x40 MLOAD PUSH3 0x461BCD PUSH1 0xE5 SHL DUP2 MSTORE PUSH1 0x20 PUSH1 0x4 DUP3 ADD MSTORE PUSH1 0xF PUSH1 0x24 DUP3 ADD MSTORE PUSH15 0x14995C5D595CDD08195E1C1A5C9959 PUSH1 0x8A SHL PUSH1 0x44 DUP3 ADD MSTORE PUSH1 0x64 ADD PUSH2 0x8FE JUMP JUMPDEST PUSH1 0x8 DUP2 ADD SLOAD ISZERO PUSH2 0x15E2 JUMPI PUSH1 0x40 MLOAD PUSH3 0x461BCD PUSH1 0xE5 SHL DUP2 MSTORE PUSH1 0x20 PUSH1 0x4 DUP3 ADD MSTORE PUSH1 0x19 PUSH1 0x24 DUP3 ADD MSTORE PUSH25 0x2232B837B9B4BA1030B63932B0B23C903BB4BA34323930BBB7 PUSH1 0x39 SHL PUSH1 0x44 DUP3 ADD MSTORE PUSH1 0x64 ADD PUSH2 0x8FE JUMP JUMPDEST PUSH1 0x3 SLOAD CALLVALUE EQ PUSH2 0x162A JUMPI PUSH1 0x40 MLOAD PUSH3 0x461BCD PUSH1 0xE5 SHL DUP2 MSTORE PUSH1 0x20 PUSH1 0x4 DUP3 ADD MSTORE PUSH1 0x14 PUSH1 0x24 DUP3 ADD MSTORE PUSH20 0x125B9D985B1A59081CDD185AD948185B5BDD5B9D PUSH1 0x62 SHL PUSH1 0x44 DUP3 ADD MSTORE PUSH1 0x64 ADD PUSH2 0x8FE JUMP JUMPDEST DUP4 PUSH2 0x1670 JUMPI PUSH1 0x40 MLOAD PUSH3 0x461BCD PUSH1 0xE5 SHL DUP2 MSTORE PUSH1 0x20 PUSH1 0x4 DUP3 ADD MSTORE PUSH1 0x16 PUSH1 0x24 DUP3 ADD MSTORE PUSH22 0x46696C6C4964206D757374206E6F742062652030783 PUSH1 0x54 SHL PUSH1 0x44 DUP3 ADD MSTORE PUSH1 0x64 ADD PUSH2 0x8FE JUMP JUMPDEST PUSH1 0x7 DUP2 ADD DUP1 SLOAD PUSH1 0x1 SWAP2 SWAP1 PUSH1 0x0 SWAP1 PUSH2 0x1691 SWAP1 DUP5 SWAP1 PUSH1 0x1 PUSH1 0x1 PUSH1 0xC0 SHL SUB AND PUSH2 0x2BE1 JUMP JUMPDEST SWAP3 POP PUSH2 0x100 EXP DUP2 SLOAD DUP2 PUSH1 0x1 PUSH1 0x1 PUSH1 0xC0 SHL SUB MUL NOT AND SWAP1 DUP4 PUSH1 0x1 PUSH1 0x1 PUSH1 0xC0 SHL SUB AND MUL OR SWAP1 SSTORE POP PUSH1 0x1 PUSH1 0x7 PUSH1 0x0 DUP3 DUP3 SLOAD PUSH2 0x16C8 SWAP2 SWAP1 PUSH2 0x2BB0 JUMP JUMPDEST SWAP1 SWAP2 SSTORE POP POP PUSH1 0x7 SLOAD PUSH1 0x0 SWAP1 DUP2 MSTORE PUSH1 0xA PUSH1 0x20 MSTORE PUSH1 0x40 DUP2 KECCAK256 DUP7 DUP2 SSTORE PUSH1 0x1 DUP2 ADD DUP1 SLOAD PUSH1 0x1 PUSH1 0x1 PUSH1 0xA0 SHL SUB NOT SWAP1 DUP2 AND CALLER OR SWAP1 SWAP2 SSTORE PUSH1 0x3 SLOAD PUSH1 0x2 DUP4 ADD SSTORE PUSH1 0x4 DUP1 DUP4 ADD DUP1 SLOAD SWAP1 SWAP3 AND SWAP1 SWAP2 SSTORE PUSH1 0x5 DUP3 ADD DUP4 SWAP1 SSTORE PUSH1 0x6 DUP3 ADD SWAP3 SWAP1 SWAP3 SSTORE SWAP1 SLOAD PUSH2 0x1728 SWAP1 TIMESTAMP PUSH2 0x2BB0 JUMP JUMPDEST PUSH1 0x7 DUP1 DUP4 ADD DUP3 SWAP1 SSTORE PUSH1 0x8 DUP4 ADD DUP8 SWAP1 SSTORE SLOAD PUSH1 0x1 DUP4 ADD SLOAD PUSH1 0x2 DUP5 ADD SLOAD PUSH1 0x4 DUP6 ADD SLOAD PUSH1 0x5 DUP7 ADD SLOAD PUSH1 0x40 MLOAD DUP13 SWAP7 PUSH32 0xA317459AAAFF5501EC6D0DCFC26440565BEAF33DC2BA0F68B7273A50322C215D SWAP7 PUSH2 0x1794 SWAP7 SWAP1 SWAP6 PUSH1 0x1 PUSH1 0x1 PUSH1 0xA0 SHL SUB SWAP2 DUP3 AND SWAP6 SWAP1 SWAP5 SWAP2 AND SWAP3 SWAP1 SWAP2 SWAP1 DUP15 SWAP1 PUSH2 0x2C0C JUMP JUMPDEST PUSH1 0x40 MLOAD DUP1 SWAP2 SUB SWAP1 LOG2 POP POP PUSH1 0x7 SLOAD SWAP5 SWAP4 POP POP POP POP JUMP JUMPDEST PUSH2 0x17B1 PUSH2 0x2469 JUMP JUMPDEST PUSH2 0x17BD CHAINID DUP3 PUSH1 0x0 PUSH2 0x2513 JUMP JUMPDEST POP JUMP JUMPDEST PUSH2 0x17C8 PUSH2 0x2469 JUMP JUMPDEST PUSH1 0xD SWAP3 SWAP1 SWAP3 SSTORE PUSH1 0xC SSTORE PUSH1 0xB SSTORE JUMP JUMPDEST PUSH1 0x0 DUP2 DUP2 MSTORE PUSH1 0x9 PUSH1 0x20 MSTORE PUSH1 0x40 SWAP1 KECCAK256 SLOAD DUP2 SWAP1 PUSH1 0x1 PUSH1 0x1 PUSH1 0xA0 SHL SUB AND PUSH2 0x1832 JUMPI PUSH1 0x40 MLOAD PUSH3 0x461BCD PUSH1 0xE5 SHL DUP2 MSTORE PUSH1 0x20 PUSH1 0x4 DUP3 ADD MSTORE PUSH1 0x13 PUSH1 0x24 DUP3 ADD MSTORE PUSH19 0x1C995C5D595CDD1259081B9BDD081D985B1A59 PUSH1 0x6A SHL PUSH1 0x44 DUP3 ADD MSTORE PUSH1 0x64 ADD PUSH2 0x8FE JUMP JUMPDEST PUSH1 0x0 DUP3 DUP2 MSTORE PUSH1 0x9 PUSH1 0x20 MSTORE PUSH1 0x40 SWAP1 KECCAK256 PUSH1 0x8 DUP2 ADD SLOAD ISZERO PUSH2 0x188E JUMPI PUSH1 0x40 MLOAD PUSH3 0x461BCD PUSH1 0xE5 SHL DUP2 MSTORE PUSH1 0x20 PUSH1 0x4 DUP3 ADD MSTORE PUSH1 0x19 PUSH1 0x24 DUP3 ADD MSTORE PUSH25 0x2232B837B9B4BA1030B63932B0B23C903BB4BA34323930BBB7 PUSH1 0x39 SHL PUSH1 0x44 DUP3 ADD MSTORE PUSH1 0x64 ADD PUSH2 0x8FE JUMP JUMPDEST DUP1 PUSH1 0x4 ADD SLOAD TIMESTAMP LT ISZERO PUSH2 0x18E2 JUMPI PUSH1 0x40 MLOAD PUSH3 0x461BCD PUSH1 0xE5 SHL DUP2 MSTORE PUSH1 0x20 PUSH1 0x4 DUP3 ADD MSTORE PUSH1 0x17 PUSH1 0x24 DUP3 ADD MSTORE PUSH32 0x52657175657374206E6F74206578706972656420796574000000000000000000 PUSH1 0x44 DUP3 ADD MSTORE PUSH1 0x64 ADD PUSH2 0x8FE JUMP JUMPDEST PUSH1 0x7 DUP2 ADD SLOAD PUSH1 0x1 PUSH1 0x1 PUSH1 0xC0 SHL SUB AND ISZERO PUSH2 0x1935 JUMPI PUSH1 0x40 MLOAD PUSH3 0x461BCD PUSH1 0xE5 SHL DUP2 MSTORE PUSH1 0x20 PUSH1 0x4 DUP3 ADD MSTORE PUSH1 0x15 PUSH1 0x24 DUP3 ADD MSTORE PUSH21 0x41637469766520636C61696D732072756E6E696E67 PUSH1 0x58 SHL PUSH1 0x44 DUP3 ADD MSTORE PUSH1 0x64 ADD PUSH2 0x8FE JUMP JUMPDEST PUSH1 0x0 NOT PUSH1 0x8 DUP3 ADD SSTORE DUP1 SLOAD PUSH1 0x40 DUP1 MLOAD DUP6 DUP2 MSTORE PUSH1 0x1 PUSH1 0x1 PUSH1 0xA0 SHL SUB SWAP1 SWAP3 AND PUSH1 0x20 DUP4 ADD MSTORE PUSH32 0xAB63A14C4AABA38366FD39116091672BB44520328EE870BE35A51E573296E565 SWAP2 ADD PUSH1 0x40 MLOAD DUP1 SWAP2 SUB SWAP1 LOG1 PUSH1 0x1 DUP2 ADD SLOAD DUP2 SLOAD PUSH1 0x6 DUP4 ADD SLOAD PUSH1 0x5 DUP5 ADD SLOAD PUSH1 0x3 DUP6 ADD SLOAD PUSH1 0x1 PUSH1 0x1 PUSH1 0xA0 SHL SUB SWAP5 DUP6 AND SWAP5 PUSH2 0x19CE SWAP5 AND SWAP3 SWAP2 PUSH2 0x19B3 SWAP2 PUSH2 0x2BB0 JUMP JUMPDEST PUSH2 0x19BD SWAP2 SWAP1 PUSH2 0x2BB0 JUMP JUMPDEST PUSH1 0x1 PUSH1 0x1 PUSH1 0xA0 SHL SUB DUP5 AND SWAP2 SWAP1 PUSH2 0x2625 JUMP JUMPDEST POP POP POP POP JUMP JUMPDEST PUSH1 0x0 DUP2 DUP2 MSTORE PUSH1 0xA PUSH1 0x20 MSTORE PUSH1 0x40 SWAP1 KECCAK256 PUSH1 0x1 ADD SLOAD DUP2 SWAP1 PUSH1 0x1 PUSH1 0x1 PUSH1 0xA0 SHL SUB AND PUSH2 0x1A31 JUMPI PUSH1 0x40 MLOAD PUSH3 0x461BCD PUSH1 0xE5 SHL DUP2 MSTORE PUSH1 0x20 PUSH1 0x4 DUP3 ADD MSTORE PUSH1 0x11 PUSH1 0x24 DUP3 ADD MSTORE PUSH17 0x18DB185A5B5259081B9BDD081D985B1A59 PUSH1 0x7A SHL PUSH1 0x44 DUP3 ADD MSTORE PUSH1 0x64 ADD PUSH2 0x8FE JUMP JUMPDEST PUSH1 0x0 DUP3 DUP2 MSTORE PUSH1 0xA PUSH1 0x20 SWAP1 DUP2 MSTORE PUSH1 0x40 DUP1 DUP4 KECCAK256 DUP1 SLOAD DUP5 MSTORE PUSH1 0x9 SWAP1 SWAP3 MSTORE SWAP1 SWAP2 KECCAK256 PUSH1 0x7 DUP3 ADD SLOAD TIMESTAMP LT PUSH2 0x1A91 JUMPI PUSH1 0x40 MLOAD PUSH3 0x461BCD PUSH1 0xE5 SHL DUP2 MSTORE PUSH1 0x20 PUSH1 0x4 DUP3 ADD MSTORE PUSH1 0xD PUSH1 0x24 DUP3 ADD MSTORE PUSH13 0x10DB185A5B48195E1C1A5C9959 PUSH1 0x9A SHL PUSH1 0x44 DUP3 ADD MSTORE PUSH1 0x64 ADD PUSH2 0x8FE JUMP JUMPDEST PUSH1 0x5 DUP1 SLOAD PUSH1 0x2 DUP5 ADD SLOAD SWAP2 DUP5 ADD SLOAD PUSH1 0x0 SWAP3 DUP4 SWAP3 SWAP2 DUP1 DUP3 GT ISZERO PUSH2 0x1B52 JUMPI DUP1 PUSH1 0x0 SUB PUSH2 0x1AD5 JUMPI PUSH1 0x2 DUP7 ADD SLOAD PUSH1 0x0 SWAP1 DUP2 MSTORE PUSH1 0x8 PUSH1 0x20 MSTORE PUSH1 0x40 SWAP1 KECCAK256 SLOAD PUSH2 0x1AD2 SWAP1 DUP5 PUSH2 0x2BB0 JUMP JUMPDEST SWAP3 POP JUMPDEST PUSH1 0x1 DUP8 ADD SLOAD CALLER PUSH1 0x1 PUSH1 0x1 PUSH1 0xA0 SHL SUB SWAP1 SWAP2 AND SUB PUSH2 0x1B33 JUMPI PUSH1 0x40 MLOAD PUSH3 0x461BCD PUSH1 0xE5 SHL DUP2 MSTORE PUSH1 0x20 PUSH1 0x4 DUP3 ADD MSTORE PUSH1 0x1A PUSH1 0x24 DUP3 ADD MSTORE PUSH32 0x43616E6E6F74206368616C6C656E6765206F776E20636C61696D000000000000 PUSH1 0x44 DUP3 ADD MSTORE PUSH1 0x64 ADD PUSH2 0x8FE JUMP JUMPDEST CALLER SWAP5 POP PUSH2 0x1B40 DUP2 DUP4 PUSH2 0x2C4B JUMP JUMPDEST PUSH2 0x1B4B SWAP1 PUSH1 0x1 PUSH2 0x2BB0 JUMP JUMPDEST SWAP4 POP PUSH2 0x1B7E JUMP JUMPDEST PUSH1 0x1 DUP8 ADD SLOAD PUSH1 0x3 SLOAD PUSH1 0x1 PUSH1 0x1 PUSH1 0xA0 SHL SUB SWAP1 SWAP2 AND SWAP6 POP PUSH2 0x1B71 DUP4 DUP4 PUSH2 0x2C4B JUMP JUMPDEST PUSH2 0x1B7B SWAP2 SWAP1 PUSH2 0x2BB0 JUMP JUMPDEST SWAP4 POP JUMPDEST CALLER PUSH1 0x1 PUSH1 0x1 PUSH1 0xA0 SHL SUB DUP7 AND EQ PUSH2 0x1BCF JUMPI PUSH1 0x40 MLOAD PUSH3 0x461BCD PUSH1 0xE5 SHL DUP2 MSTORE PUSH1 0x20 PUSH1 0x4 DUP3 ADD MSTORE PUSH1 0x16 PUSH1 0x24 DUP3 ADD MSTORE PUSH22 0x139BDD08195B1A59DA589B19481D1BC81BDD5D189A59 PUSH1 0x52 SHL PUSH1 0x44 DUP3 ADD MSTORE PUSH1 0x64 ADD PUSH2 0x8FE JUMP JUMPDEST DUP4 CALLVALUE LT ISZERO PUSH2 0x1C1F JUMPI PUSH1 0x40 MLOAD PUSH3 0x461BCD PUSH1 0xE5 SHL DUP2 MSTORE PUSH1 0x20 PUSH1 0x4 DUP3 ADD MSTORE PUSH1 0x19 PUSH1 0x24 DUP3 ADD MSTORE PUSH32 0x4E6F7420656E6F756768207374616B652070726F766964656400000000000000 PUSH1 0x44 DUP3 ADD MSTORE PUSH1 0x64 ADD PUSH2 0x8FE JUMP JUMPDEST PUSH1 0x1 DUP8 ADD SLOAD PUSH1 0x1 PUSH1 0x1 PUSH1 0xA0 SHL SUB SWAP1 DUP2 AND SWAP1 DUP7 AND SUB PUSH2 0x1C56 JUMPI CALLVALUE DUP8 PUSH1 0x2 ADD PUSH1 0x0 DUP3 DUP3 SLOAD PUSH2 0x1C4B SWAP2 SWAP1 PUSH2 0x2BB0 JUMP JUMPDEST SWAP1 SWAP2 SSTORE POP PUSH2 0x1CAE SWAP1 POP JUMP JUMPDEST PUSH1 0x4 DUP8 ADD DUP1 SLOAD PUSH1 0x1 PUSH1 0x1 PUSH1 0xA0 SHL SUB NOT AND CALLER SWAP1 DUP2 OR SWAP1 SWAP2 SSTORE PUSH1 0x0 SWAP1 DUP2 MSTORE PUSH1 0x3 DUP9 ADD PUSH1 0x20 MSTORE PUSH1 0x40 DUP2 KECCAK256 DUP1 SLOAD CALLVALUE SWAP3 SWAP1 PUSH2 0x1C8D SWAP1 DUP5 SWAP1 PUSH2 0x2BB0 JUMP JUMPDEST SWAP3 POP POP DUP2 SWAP1 SSTORE POP CALLVALUE DUP8 PUSH1 0x5 ADD PUSH1 0x0 DUP3 DUP3 SLOAD PUSH2 0x1CA8 SWAP2 SWAP1 PUSH2 0x2BB0 JUMP JUMPDEST SWAP1 SWAP2 SSTORE POP POP JUMPDEST PUSH1 0x7 DUP8 ADD SLOAD PUSH2 0x1CC6 SWAP1 PUSH2 0x1CC1 DUP6 TIMESTAMP PUSH2 0x2BB0 JUMP JUMPDEST PUSH2 0x2655 JUMP JUMPDEST PUSH1 0x7 DUP9 ADD SSTORE PUSH1 0x5 SLOAD PUSH1 0x0 SWAP1 PUSH2 0x1CDB SWAP1 TIMESTAMP PUSH2 0x2BB0 JUMP JUMPDEST SWAP1 POP DUP1 DUP9 PUSH1 0x7 ADD SLOAD LT ISZERO PUSH2 0x1D43 JUMPI PUSH1 0x40 MLOAD PUSH3 0x461BCD PUSH1 0xE5 SHL DUP2 MSTORE PUSH1 0x20 PUSH1 0x4 DUP3 ADD MSTORE PUSH1 0x29 PUSH1 0x24 DUP3 ADD MSTORE PUSH32 0x436C61696D207465726D696E6174696F6E20646964206E6F7420696E63726561 PUSH1 0x44 DUP3 ADD MSTORE PUSH9 0xE6CA40CADCDEEACED PUSH1 0xBB SHL PUSH1 0x64 DUP3 ADD MSTORE PUSH1 0x84 ADD PUSH2 0x8FE JUMP JUMPDEST DUP8 PUSH1 0x0 ADD SLOAD PUSH32 0xA317459AAAFF5501EC6D0DCFC26440565BEAF33DC2BA0F68B7273A50322C215D DUP12 DUP11 PUSH1 0x1 ADD PUSH1 0x0 SWAP1 SLOAD SWAP1 PUSH2 0x100 EXP SWAP1 DIV PUSH1 0x1 PUSH1 0x1 PUSH1 0xA0 SHL SUB AND DUP12 PUSH1 0x2 ADD SLOAD DUP13 PUSH1 0x4 ADD PUSH1 0x0 SWAP1 SLOAD SWAP1 PUSH2 0x100 EXP SWAP1 DIV PUSH1 0x1 PUSH1 0x1 PUSH1 0xA0 SHL SUB AND DUP14 PUSH1 0x5 ADD SLOAD DUP15 PUSH1 0x7 ADD SLOAD DUP16 PUSH1 0x8 ADD SLOAD PUSH1 0x40 MLOAD PUSH2 0x1DC1 SWAP8 SWAP7 SWAP6 SWAP5 SWAP4 SWAP3 SWAP2 SWAP1 PUSH2 0x2C0C JUMP JUMPDEST PUSH1 0x40 MLOAD DUP1 SWAP2 SUB SWAP1 LOG2 POP POP POP POP POP POP POP POP POP POP JUMP JUMPDEST PUSH1 0x0 PUSH3 0xF4240 PUSH1 0xD SLOAD DUP4 PUSH2 0x1DE9 SWAP2 SWAP1 PUSH2 0x2C62 JUMP JUMPDEST PUSH2 0x1DF3 SWAP2 SWAP1 PUSH2 0x2C81 JUMP JUMPDEST SWAP3 SWAP2 POP POP JUMP JUMPDEST PUSH1 0x0 PUSH2 0x1E04 DUP3 PUSH2 0x1DD5 JUMP JUMPDEST PUSH2 0x1E0D DUP4 PUSH2 0x2045 JUMP JUMPDEST PUSH2 0x1DF3 SWAP2 SWAP1 PUSH2 0x2BB0 JUMP JUMPDEST PUSH2 0x1E1F PUSH2 0x2469 JUMP JUMPDEST PUSH1 0x1 PUSH1 0x1 PUSH1 0xA0 SHL SUB DUP3 AND PUSH1 0x0 SWAP1 DUP2 MSTORE PUSH1 0xF PUSH1 0x20 MSTORE PUSH1 0x40 SWAP1 KECCAK256 SLOAD DUP1 PUSH2 0x1E7C JUMPI PUSH1 0x40 MLOAD PUSH3 0x461BCD PUSH1 0xE5 SHL DUP2 MSTORE PUSH1 0x20 PUSH1 0x4 DUP3 ADD MSTORE PUSH1 0x14 PUSH1 0x24 DUP3 ADD MSTORE PUSH20 0x50726F746F636F6C20666565206973207A65726F PUSH1 0x60 SHL PUSH1 0x44 DUP3 ADD MSTORE PUSH1 0x64 ADD PUSH2 0x8FE JUMP JUMPDEST PUSH1 0x1 PUSH1 0x1 PUSH1 0xA0 SHL SUB DUP4 AND PUSH1 0x0 DUP2 DUP2 MSTORE PUSH1 0xF PUSH1 0x20 MSTORE PUSH1 0x40 DUP2 KECCAK256 SSTORE DUP4 SWAP1 PUSH2 0x19CE SWAP1 DUP5 DUP5 PUSH2 0x2625 JUMP JUMPDEST PUSH2 0x1EAA PUSH2 0x2469 JUMP JUMPDEST PUSH1 0x0 DUP2 GT PUSH2 0x1F09 JUMPI PUSH1 0x40 MLOAD PUSH3 0x461BCD PUSH1 0xE5 SHL DUP2 MSTORE PUSH1 0x20 PUSH1 0x4 DUP3 ADD MSTORE PUSH1 0x26 PUSH1 0x24 DUP3 ADD MSTORE PUSH32 0x46696E616C69747920706572696F64206D757374206265206772656174657220 PUSH1 0x44 DUP3 ADD MSTORE PUSH6 0x7468616E203 PUSH1 0xD4 SHL PUSH1 0x64 DUP3 ADD MSTORE PUSH1 0x84 ADD PUSH2 0x8FE JUMP JUMPDEST PUSH1 0x0 DUP3 DUP2 MSTORE PUSH1 0x8 PUSH1 0x20 SWAP1 DUP2 MSTORE PUSH1 0x40 SWAP2 DUP3 SWAP1 KECCAK256 DUP4 SWAP1 SSTORE DUP2 MLOAD DUP5 DUP2 MSTORE SWAP1 DUP2 ADD DUP4 SWAP1 MSTORE PUSH32 0xABA57B48B9F1DFD5747A52ED348A6AB6AA7BAFB0575363A5CB7B62659F727B65 SWAP2 ADD PUSH1 0x40 MLOAD DUP1 SWAP2 SUB SWAP1 LOG1 POP POP JUMP JUMPDEST PUSH2 0x1F60 PUSH2 0x2469 JUMP JUMPDEST PUSH1 0xE SSTORE JUMP JUMPDEST PUSH2 0x1F6D PUSH2 0x2469 JUMP JUMPDEST PUSH1 0x6 SLOAD PUSH1 0xFF AND ISZERO PUSH2 0x1FC0 JUMPI PUSH1 0x40 MLOAD PUSH3 0x461BCD PUSH1 0xE5 SHL DUP2 MSTORE PUSH1 0x20 PUSH1 0x4 DUP3 ADD MSTORE PUSH1 0x1B PUSH1 0x24 DUP3 ADD MSTORE PUSH32 0x436F6E747261637420616C726561647920646570726563617465640000000000 PUSH1 0x44 DUP3 ADD MSTORE PUSH1 0x64 ADD PUSH2 0x8FE JUMP JUMPDEST PUSH1 0x6 DUP1 SLOAD PUSH1 0xFF NOT AND PUSH1 0x1 OR SWAP1 SSTORE JUMP JUMPDEST PUSH2 0x1FD7 PUSH2 0x2469 JUMP JUMPDEST PUSH1 0x1 PUSH1 0x1 PUSH1 0xA0 SHL SUB DUP2 AND PUSH2 0x203C JUMPI PUSH1 0x40 MLOAD PUSH3 0x461BCD PUSH1 0xE5 SHL DUP2 MSTORE PUSH1 0x20 PUSH1 0x4 DUP3 ADD MSTORE PUSH1 0x26 PUSH1 0x24 DUP3 ADD MSTORE PUSH32 0x4F776E61626C653A206E6577206F776E657220697320746865207A65726F2061 PUSH1 0x44 DUP3 ADD MSTORE PUSH6 0x646472657373 PUSH1 0xD0 SHL PUSH1 0x64 DUP3 ADD MSTORE PUSH1 0x84 ADD PUSH2 0x8FE JUMP JUMPDEST PUSH2 0x17BD DUP2 PUSH2 0x24C3 JUMP JUMPDEST PUSH1 0x0 PUSH2 0x1DF3 PUSH1 0xB SLOAD PUSH3 0xF4240 PUSH1 0xC SLOAD DUP6 PUSH2 0x205F SWAP2 SWAP1 PUSH2 0x2C62 JUMP JUMPDEST PUSH2 0x1CC1 SWAP2 SWAP1 PUSH2 0x2C81 JUMP JUMPDEST PUSH1 0x0 DUP2 DUP2 MSTORE PUSH1 0xA PUSH1 0x20 SWAP1 DUP2 MSTORE PUSH1 0x40 DUP1 DUP4 KECCAK256 DUP1 SLOAD DUP5 MSTORE PUSH1 0x9 SWAP1 SWAP3 MSTORE DUP3 KECCAK256 PUSH1 0x2 DUP3 ADD SLOAD PUSH1 0x5 DUP4 ADD SLOAD DUP5 SWAP4 SWAP3 SWAP2 SWAP1 PUSH2 0x209E DUP2 DUP4 PUSH2 0x2BB0 JUMP JUMPDEST DUP5 PUSH1 0x6 ADD SLOAD LT PUSH2 0x20F0 JUMPI PUSH1 0x40 MLOAD PUSH3 0x461BCD PUSH1 0xE5 SHL DUP2 MSTORE PUSH1 0x20 PUSH1 0x4 DUP3 ADD MSTORE PUSH1 0x17 PUSH1 0x24 DUP3 ADD MSTORE PUSH32 0x436C61696D20616C72656164792077697468647261776E000000000000000000 PUSH1 0x44 DUP3 ADD MSTORE PUSH1 0x64 ADD PUSH2 0x8FE JUMP JUMPDEST PUSH1 0x9 DUP4 ADD SLOAD PUSH1 0xA DUP5 ADD SLOAD PUSH1 0x0 SWAP2 PUSH1 0x1 PUSH1 0x1 PUSH1 0xA0 SHL SUB AND SWAP1 DUP2 ISZERO PUSH2 0x2136 JUMPI PUSH1 0x1 DUP8 ADD SLOAD PUSH1 0x1 PUSH1 0x1 PUSH1 0xA0 SHL SUB DUP4 DUP2 AND SWAP2 AND EQ DUP1 ISZERO PUSH2 0x212F JUMPI POP DUP7 PUSH1 0x8 ADD SLOAD DUP2 EQ JUMPDEST SWAP3 POP PUSH2 0x2211 JUMP JUMPDEST PUSH1 0x0 DUP2 DUP2 MSTORE PUSH1 0xB DUP8 ADD PUSH1 0x20 MSTORE PUSH1 0x40 SWAP1 KECCAK256 SLOAD PUSH1 0xFF AND ISZERO PUSH2 0x2158 JUMPI PUSH1 0x0 SWAP3 POP PUSH2 0x2211 JUMP JUMPDEST PUSH1 0x8 DUP7 ADD SLOAD ISZERO PUSH2 0x21B7 JUMPI PUSH1 0x8 DUP7 ADD SLOAD PUSH1 0x0 SWAP1 DUP2 MSTORE PUSH1 0xA PUSH1 0x20 MSTORE PUSH1 0x40 SWAP1 KECCAK256 PUSH1 0x1 SWAP1 DUP2 ADD SLOAD SWAP1 DUP9 ADD SLOAD PUSH1 0x1 PUSH1 0x1 PUSH1 0xA0 SHL SUB SWAP1 DUP2 AND SWAP2 AND EQ DUP1 ISZERO PUSH2 0x212F JUMPI POP PUSH1 0x8 DUP1 DUP8 ADD SLOAD PUSH1 0x0 SWAP1 DUP2 MSTORE PUSH1 0xA PUSH1 0x20 MSTORE PUSH1 0x40 SWAP1 KECCAK256 DUP2 ADD SLOAD SWAP1 DUP9 ADD SLOAD EQ SWAP3 POP PUSH2 0x2211 JUMP JUMPDEST DUP7 PUSH1 0x7 ADD SLOAD TIMESTAMP LT ISZERO PUSH2 0x220B JUMPI PUSH1 0x40 MLOAD PUSH3 0x461BCD PUSH1 0xE5 SHL DUP2 MSTORE PUSH1 0x20 PUSH1 0x4 DUP3 ADD MSTORE PUSH1 0x19 PUSH1 0x24 DUP3 ADD MSTORE PUSH32 0x436C61696D20706572696F64206E6F742066696E697368656400000000000000 PUSH1 0x44 DUP3 ADD MSTORE PUSH1 0x64 ADD PUSH2 0x8FE JUMP JUMPDEST DUP4 DUP6 GT SWAP3 POP JUMPDEST PUSH1 0x0 DUP1 DUP5 ISZERO PUSH2 0x223C JUMPI PUSH2 0x2224 DUP7 DUP9 PUSH2 0x2BB0 JUMP JUMPDEST PUSH1 0x1 DUP11 ADD SLOAD SWAP1 SWAP3 POP PUSH1 0x1 PUSH1 0x1 PUSH1 0xA0 SHL SUB AND SWAP1 POP PUSH2 0x22D5 JUMP JUMPDEST DUP6 ISZERO PUSH2 0x22C4 JUMPI CALLER PUSH1 0x0 SWAP1 DUP2 MSTORE PUSH1 0x3 DUP11 ADD PUSH1 0x20 MSTORE PUSH1 0x40 SWAP1 KECCAK256 SLOAD PUSH2 0x225F SWAP1 PUSH1 0x2 PUSH2 0x2C62 JUMP JUMPDEST SWAP2 POP CALLER SWAP1 POP PUSH1 0x0 DUP3 GT PUSH2 0x22BF JUMPI PUSH1 0x40 MLOAD PUSH3 0x461BCD PUSH1 0xE5 SHL DUP2 MSTORE PUSH1 0x20 PUSH1 0x4 DUP3 ADD MSTORE PUSH1 0x22 PUSH1 0x24 DUP3 ADD MSTORE PUSH32 0x4368616C6C656E67657220686173206E6F7468696E6720746F20776974686472 PUSH1 0x44 DUP3 ADD MSTORE PUSH2 0x6177 PUSH1 0xF0 SHL PUSH1 0x64 DUP3 ADD MSTORE PUSH1 0x84 ADD PUSH2 0x8FE JUMP JUMPDEST PUSH2 0x22D5 JUMP JUMPDEST POP POP PUSH1 0x0 SLOAD DUP6 SWAP1 PUSH1 0x1 PUSH1 0x1 PUSH1 0xA0 SHL SUB AND JUMPDEST PUSH1 0x4 DUP10 ADD SLOAD PUSH1 0x1 PUSH1 0x1 PUSH1 0xA0 SHL SUB AND CALLER SUB PUSH2 0x2323 JUMPI DUP6 DUP8 GT ISZERO PUSH2 0x230C JUMPI PUSH2 0x22FB DUP7 DUP9 PUSH2 0x2C4B JUMP JUMPDEST PUSH2 0x2305 SWAP1 DUP4 PUSH2 0x2BB0 JUMP JUMPDEST SWAP2 POP PUSH2 0x2323 JUMP JUMPDEST PUSH2 0x2316 DUP8 DUP8 PUSH2 0x2C4B JUMP JUMPDEST PUSH2 0x2320 SWAP1 DUP4 PUSH2 0x2C4B JUMP JUMPDEST SWAP2 POP JUMPDEST SWAP12 SWAP1 SWAP11 POP SWAP9 POP POP POP POP POP POP POP POP POP JUMP JUMPDEST PUSH1 0x0 DUP2 DUP2 MSTORE PUSH1 0xA PUSH1 0x20 SWAP1 DUP2 MSTORE PUSH1 0x40 SWAP2 DUP3 SWAP1 KECCAK256 PUSH1 0x1 DUP2 ADD SLOAD DUP2 SLOAD DUP5 MLOAD SWAP1 DUP2 MSTORE PUSH1 0x1 PUSH1 0x1 PUSH1 0xA0 SHL SUB SWAP1 SWAP2 AND SWAP3 DUP2 ADD DUP4 SWAP1 MSTORE SWAP1 SWAP3 PUSH32 0xAB63A14C4AABA38366FD39116091672BB44520328EE870BE35A51E573296E565 SWAP2 ADD PUSH1 0x40 MLOAD DUP1 SWAP2 SUB SWAP1 LOG1 PUSH1 0x8 DUP5 ADD DUP4 SWAP1 SSTORE PUSH1 0x6 DUP5 ADD SLOAD PUSH1 0x1 DUP6 ADD SLOAD PUSH1 0x1 PUSH1 0x1 PUSH1 0xA0 SHL SUB AND PUSH1 0x0 SWAP1 DUP2 MSTORE PUSH1 0xF PUSH1 0x20 MSTORE PUSH1 0x40 DUP2 KECCAK256 DUP1 SLOAD SWAP1 SWAP2 SWAP1 PUSH2 0x23C7 SWAP1 DUP5 SWAP1 PUSH2 0x2BB0 JUMP JUMPDEST SWAP1 SWAP2 SSTORE POP POP PUSH1 0x1 DUP5 ADD SLOAD PUSH1 0x5 DUP6 ADD SLOAD PUSH1 0x3 DUP7 ADD SLOAD PUSH1 0x1 PUSH1 0x1 PUSH1 0xA0 SHL SUB SWAP1 SWAP3 AND SWAP2 PUSH2 0x23F7 SWAP2 DUP5 SWAP2 PUSH2 0x19BD SWAP2 SWAP1 PUSH2 0x2BB0 JUMP JUMPDEST POP POP POP POP POP JUMP JUMPDEST PUSH1 0x40 MLOAD PUSH1 0x1 PUSH1 0x1 PUSH1 0xA0 SHL SUB DUP1 DUP6 AND PUSH1 0x24 DUP4 ADD MSTORE DUP4 AND PUSH1 0x44 DUP3 ADD MSTORE PUSH1 0x64 DUP2 ADD DUP3 SWAP1 MSTORE PUSH2 0x19CE SWAP1 DUP6 SWAP1 PUSH4 0x23B872DD PUSH1 0xE0 SHL SWAP1 PUSH1 0x84 ADD JUMPDEST PUSH1 0x40 DUP1 MLOAD PUSH1 0x1F NOT DUP2 DUP5 SUB ADD DUP2 MSTORE SWAP2 SWAP1 MSTORE PUSH1 0x20 DUP2 ADD DUP1 MLOAD PUSH1 0x1 PUSH1 0x1 PUSH1 0xE0 SHL SUB AND PUSH1 0x1 PUSH1 0x1 PUSH1 0xE0 SHL SUB NOT SWAP1 SWAP4 AND SWAP3 SWAP1 SWAP3 OR SWAP1 SWAP2 MSTORE PUSH2 0x266E JUMP JUMPDEST PUSH1 0x0 SLOAD PUSH1 0x1 PUSH1 0x1 PUSH1 0xA0 SHL SUB AND CALLER EQ PUSH2 0x1473 JUMPI PUSH1 0x40 MLOAD PUSH3 0x461BCD PUSH1 0xE5 SHL DUP2 MSTORE PUSH1 0x20 PUSH1 0x4 DUP3 ADD DUP2 SWAP1 MSTORE PUSH1 0x24 DUP3 ADD MSTORE PUSH32 0x4F776E61626C653A2063616C6C6572206973206E6F7420746865206F776E6572 PUSH1 0x44 DUP3 ADD MSTORE PUSH1 0x64 ADD PUSH2 0x8FE JUMP JUMPDEST PUSH1 0x0 DUP1 SLOAD PUSH1 0x1 PUSH1 0x1 PUSH1 0xA0 SHL SUB DUP4 DUP2 AND PUSH1 0x1 PUSH1 0x1 PUSH1 0xA0 SHL SUB NOT DUP4 AND DUP2 OR DUP5 SSTORE PUSH1 0x40 MLOAD SWAP2 SWAP1 SWAP3 AND SWAP3 DUP4 SWAP2 PUSH32 0x8BE0079C531659141344CD1FD0A4F28419497F9722A3DAAFE3B4186F6B6457E0 SWAP2 SWAP1 LOG3 POP POP JUMP JUMPDEST PUSH1 0x1 PUSH1 0x1 PUSH1 0xA0 SHL SUB DUP3 AND PUSH2 0x2575 JUMPI PUSH1 0x40 MLOAD PUSH3 0x461BCD PUSH1 0xE5 SHL DUP2 MSTORE PUSH1 0x20 PUSH1 0x4 DUP3 ADD MSTORE PUSH1 0x23 PUSH1 0x24 DUP3 ADD MSTORE PUSH32 0x5265737472696374656443616C6C733A2063616C6C65722063616E6E6F742062 PUSH1 0x44 DUP3 ADD MSTORE PUSH3 0x65203 PUSH1 0xEC SHL PUSH1 0x64 DUP3 ADD MSTORE PUSH1 0x84 ADD PUSH2 0x8FE JUMP JUMPDEST PUSH1 0x0 DUP4 DUP2 MSTORE PUSH1 0x2 PUSH1 0x20 MSTORE PUSH1 0x40 SWAP1 KECCAK256 SLOAD PUSH1 0x1 PUSH1 0x1 PUSH1 0xA0 SHL SUB AND ISZERO PUSH2 0x25E9 JUMPI PUSH1 0x40 MLOAD PUSH3 0x461BCD PUSH1 0xE5 SHL DUP2 MSTORE PUSH1 0x20 PUSH1 0x4 DUP3 ADD MSTORE PUSH1 0x26 PUSH1 0x24 DUP3 ADD MSTORE PUSH32 0x5265737472696374656443616C6C733A2063616C6C657220616C726561647920 PUSH1 0x44 DUP3 ADD MSTORE PUSH6 0x657869737473 PUSH1 0xD0 SHL PUSH1 0x64 DUP3 ADD MSTORE PUSH1 0x84 ADD PUSH2 0x8FE JUMP JUMPDEST PUSH1 0x40 DUP1 MLOAD DUP1 DUP3 ADD DUP3 MSTORE PUSH1 0x1 PUSH1 0x1 PUSH1 0xA0 SHL SUB DUP1 DUP6 AND DUP3 MSTORE DUP4 AND PUSH1 0x20 DUP1 DUP4 ADD SWAP2 SWAP1 SWAP2 MSTORE PUSH1 0x0 DUP7 DUP2 MSTORE PUSH1 0x2 SWAP2 DUP3 SWAP1 MSTORE SWAP3 SWAP1 SWAP3 KECCAK256 PUSH2 0x19CE SWAP3 SWAP1 SWAP2 SWAP1 PUSH2 0x28C1 JUMP JUMPDEST PUSH1 0x40 MLOAD PUSH1 0x1 PUSH1 0x1 PUSH1 0xA0 SHL SUB DUP4 AND PUSH1 0x24 DUP3 ADD MSTORE PUSH1 0x44 DUP2 ADD DUP3 SWAP1 MSTORE PUSH2 0x1488 SWAP1 DUP5 SWAP1 PUSH4 0xA9059CBB PUSH1 0xE0 SHL SWAP1 PUSH1 0x64 ADD PUSH2 0x2432 JUMP JUMPDEST PUSH1 0x0 DUP2 DUP4 LT ISZERO PUSH2 0x2665 JUMPI DUP2 PUSH2 0x2667 JUMP JUMPDEST DUP3 JUMPDEST SWAP4 SWAP3 POP POP POP JUMP JUMPDEST PUSH1 0x0 PUSH2 0x26C3 DUP3 PUSH1 0x40 MLOAD DUP1 PUSH1 0x40 ADD PUSH1 0x40 MSTORE DUP1 PUSH1 0x20 DUP2 MSTORE PUSH1 0x20 ADD PUSH32 0x5361666545524332303A206C6F772D6C6576656C2063616C6C206661696C6564 DUP2 MSTORE POP DUP6 PUSH1 0x1 PUSH1 0x1 PUSH1 0xA0 SHL SUB AND PUSH2 0x2740 SWAP1 SWAP3 SWAP2 SWAP1 PUSH4 0xFFFFFFFF AND JUMP JUMPDEST DUP1 MLOAD SWAP1 SWAP2 POP ISZERO PUSH2 0x1488 JUMPI DUP1 DUP1 PUSH1 0x20 ADD SWAP1 MLOAD DUP2 ADD SWAP1 PUSH2 0x26E1 SWAP2 SWAP1 PUSH2 0x2B50 JUMP JUMPDEST PUSH2 0x1488 JUMPI PUSH1 0x40 MLOAD PUSH3 0x461BCD PUSH1 0xE5 SHL DUP2 MSTORE PUSH1 0x20 PUSH1 0x4 DUP3 ADD MSTORE PUSH1 0x2A PUSH1 0x24 DUP3 ADD MSTORE PUSH32 0x5361666545524332303A204552433230206F7065726174696F6E20646964206E PUSH1 0x44 DUP3 ADD MSTORE PUSH10 0x1BDD081CDD58D8D95959 PUSH1 0xB2 SHL PUSH1 0x64 DUP3 ADD MSTORE PUSH1 0x84 ADD PUSH2 0x8FE JUMP JUMPDEST PUSH1 0x60 PUSH2 0x274F DUP5 DUP5 PUSH1 0x0 DUP6 PUSH2 0x2757 JUMP JUMPDEST SWAP5 SWAP4 POP POP POP POP JUMP JUMPDEST PUSH1 0x60 DUP3 SELFBALANCE LT ISZERO PUSH2 0x27B8 JUMPI PUSH1 0x40 MLOAD PUSH3 0x461BCD PUSH1 0xE5 SHL DUP2 MSTORE PUSH1 0x20 PUSH1 0x4 DUP3 ADD MSTORE PUSH1 0x26 PUSH1 0x24 DUP3 ADD MSTORE PUSH32 0x416464726573733A20696E73756666696369656E742062616C616E636520666F PUSH1 0x44 DUP3 ADD MSTORE PUSH6 0x1C8818D85B1B PUSH1 0xD2 SHL PUSH1 0x64 DUP3 ADD MSTORE PUSH1 0x84 ADD PUSH2 0x8FE JUMP JUMPDEST PUSH1 0x1 PUSH1 0x1 PUSH1 0xA0 SHL SUB DUP6 AND EXTCODESIZE PUSH2 0x280F JUMPI PUSH1 0x40 MLOAD PUSH3 0x461BCD PUSH1 0xE5 SHL DUP2 MSTORE PUSH1 0x20 PUSH1 0x4 DUP3 ADD MSTORE PUSH1 0x1D PUSH1 0x24 DUP3 ADD MSTORE PUSH32 0x416464726573733A2063616C6C20746F206E6F6E2D636F6E7472616374000000 PUSH1 0x44 DUP3 ADD MSTORE PUSH1 0x64 ADD PUSH2 0x8FE JUMP JUMPDEST PUSH1 0x0 DUP1 DUP7 PUSH1 0x1 PUSH1 0x1 PUSH1 0xA0 SHL SUB AND DUP6 DUP8 PUSH1 0x40 MLOAD PUSH2 0x282B SWAP2 SWAP1 PUSH2 0x2CCF JUMP JUMPDEST PUSH1 0x0 PUSH1 0x40 MLOAD DUP1 DUP4 SUB DUP2 DUP6 DUP8 GAS CALL SWAP3 POP POP POP RETURNDATASIZE DUP1 PUSH1 0x0 DUP2 EQ PUSH2 0x2868 JUMPI PUSH1 0x40 MLOAD SWAP2 POP PUSH1 0x1F NOT PUSH1 0x3F RETURNDATASIZE ADD AND DUP3 ADD PUSH1 0x40 MSTORE RETURNDATASIZE DUP3 MSTORE RETURNDATASIZE PUSH1 0x0 PUSH1 0x20 DUP5 ADD RETURNDATACOPY PUSH2 0x286D JUMP JUMPDEST PUSH1 0x60 SWAP2 POP JUMPDEST POP SWAP2 POP SWAP2 POP PUSH2 0x287D DUP3 DUP3 DUP7 PUSH2 0x2888 JUMP JUMPDEST SWAP8 SWAP7 POP POP POP POP POP POP POP JUMP JUMPDEST PUSH1 0x60 DUP4 ISZERO PUSH2 0x2897 JUMPI POP DUP2 PUSH2 0x2667 JUMP JUMPDEST DUP3 MLOAD ISZERO PUSH2 0x28A7 JUMPI DUP3 MLOAD DUP1 DUP5 PUSH1 0x20 ADD REVERT JUMPDEST DUP2 PUSH1 0x40 MLOAD PUSH3 0x461BCD PUSH1 0xE5 SHL DUP2 MSTORE PUSH1 0x4 ADD PUSH2 0x8FE SWAP2 SWAP1 PUSH2 0x2CEB JUMP JUMPDEST DUP3 PUSH1 0x2 DUP2 ADD SWAP3 DUP3 ISZERO PUSH2 0x2909 JUMPI SWAP2 PUSH1 0x20 MUL DUP3 ADD JUMPDEST DUP3 DUP2 GT ISZERO PUSH2 0x2909 JUMPI DUP3 MLOAD DUP3 SLOAD PUSH1 0x1 PUSH1 0x1 PUSH1 0xA0 SHL SUB NOT AND PUSH1 0x1 PUSH1 0x1 PUSH1 0xA0 SHL SUB SWAP1 SWAP2 AND OR DUP3 SSTORE PUSH1 0x20 SWAP1 SWAP3 ADD SWAP2 PUSH1 0x1 SWAP1 SWAP2 ADD SWAP1 PUSH2 0x28D4 JUMP JUMPDEST POP PUSH2 0x2915 SWAP3 SWAP2 POP PUSH2 0x2919 JUMP JUMPDEST POP SWAP1 JUMP JUMPDEST JUMPDEST DUP1 DUP3 GT ISZERO PUSH2 0x2915 JUMPI PUSH1 0x0 DUP2 SSTORE PUSH1 0x1 ADD PUSH2 0x291A JUMP JUMPDEST PUSH1 0x0 DUP1 PUSH1 0x0 PUSH1 0x60 DUP5 DUP7 SUB SLT ISZERO PUSH2 0x2943 JUMPI PUSH1 0x0 DUP1 REVERT JUMPDEST POP POP DUP2 CALLDATALOAD SWAP4 PUSH1 0x20 DUP4 ADD CALLDATALOAD SWAP4 POP PUSH1 0x40 SWAP1 SWAP3 ADD CALLDATALOAD SWAP2 SWAP1 POP JUMP JUMPDEST PUSH1 0x0 DUP1 PUSH1 0x40 DUP4 DUP6 SUB SLT ISZERO PUSH2 0x296D JUMPI PUSH1 0x0 DUP1 REVERT JUMPDEST POP POP DUP1 CALLDATALOAD SWAP3 PUSH1 0x20 SWAP1 SWAP2 ADD CALLDATALOAD SWAP2 POP JUMP JUMPDEST PUSH1 0x0 PUSH1 0x20 DUP3 DUP5 SUB SLT ISZERO PUSH2 0x298E JUMPI PUSH1 0x0 DUP1 REVERT JUMPDEST POP CALLDATALOAD SWAP2 SWAP1 POP JUMP JUMPDEST DUP1 CALLDATALOAD PUSH1 0x1 PUSH1 0x1 PUSH1 0xA0 SHL SUB DUP2 AND DUP2 EQ PUSH2 0x29AC JUMPI PUSH1 0x0 DUP1 REVERT JUMPDEST SWAP2 SWAP1 POP JUMP JUMPDEST PUSH1 0x0 DUP1 PUSH1 0x0 DUP1 PUSH1 0x0 DUP1 PUSH1 0xC0 DUP8 DUP10 SUB SLT ISZERO PUSH2 0x29CA JUMPI PUSH1 0x0 DUP1 REVERT JUMPDEST DUP7 CALLDATALOAD SWAP6 POP PUSH2 0x29DA PUSH1 0x20 DUP9 ADD PUSH2 0x2995 JUMP JUMPDEST SWAP5 POP PUSH2 0x29E8 PUSH1 0x40 DUP9 ADD PUSH2 0x2995 JUMP JUMPDEST SWAP4 POP PUSH2 0x29F6 PUSH1 0x60 DUP9 ADD PUSH2 0x2995 JUMP JUMPDEST SWAP3 POP PUSH1 0x80 DUP8 ADD CALLDATALOAD SWAP2 POP PUSH1 0xA0 DUP8 ADD CALLDATALOAD SWAP1 POP SWAP3 SWAP6 POP SWAP3 SWAP6 POP SWAP3 SWAP6 JUMP JUMPDEST PUSH1 0x0 PUSH1 0x20 DUP3 DUP5 SUB SLT ISZERO PUSH2 0x2A22 JUMPI PUSH1 0x0 DUP1 REVERT JUMPDEST PUSH2 0x2667 DUP3 PUSH2 0x2995 JUMP JUMPDEST PUSH1 0x0 DUP1 PUSH1 0x0 DUP1 PUSH1 0x80 DUP6 DUP8 SUB SLT ISZERO PUSH2 0x2A41 JUMPI PUSH1 0x0 DUP1 REVERT JUMPDEST DUP5 CALLDATALOAD SWAP4 POP PUSH1 0x20 DUP6 ADD CALLDATALOAD SWAP3 POP PUSH1 0x40 DUP6 ADD CALLDATALOAD SWAP2 POP PUSH2 0x2A5F PUSH1 0x60 DUP7 ADD PUSH2 0x2995 JUMP JUMPDEST SWAP1 POP SWAP3 SWAP6 SWAP2 SWAP5 POP SWAP3 POP JUMP JUMPDEST PUSH1 0x0 DUP1 PUSH1 0x0 PUSH1 0x60 DUP5 DUP7 SUB SLT ISZERO PUSH2 0x2A7F JUMPI PUSH1 0x0 DUP1 REVERT JUMPDEST DUP4 CALLDATALOAD SWAP3 POP PUSH2 0x2A8F PUSH1 0x20 DUP6 ADD PUSH2 0x2995 JUMP JUMPDEST SWAP2 POP PUSH2 0x2A9D PUSH1 0x40 DUP6 ADD PUSH2 0x2995 JUMP JUMPDEST SWAP1 POP SWAP3 POP SWAP3 POP SWAP3 JUMP JUMPDEST PUSH1 0x0 DUP1 PUSH1 0x40 DUP4 DUP6 SUB SLT ISZERO PUSH2 0x2AB9 JUMPI PUSH1 0x0 DUP1 REVERT JUMPDEST PUSH2 0x2AC2 DUP4 PUSH2 0x2995 JUMP JUMPDEST SWAP2 POP PUSH2 0x2AD0 PUSH1 0x20 DUP5 ADD PUSH2 0x2995 JUMP JUMPDEST SWAP1 POP SWAP3 POP SWAP3 SWAP1 POP JUMP JUMPDEST PUSH1 0x20 DUP1 DUP3 MSTORE DUP2 DUP2 ADD MSTORE PUSH32 0x5265737472696374656443616C6C733A2063616C6C20646973616C6C6F776564 PUSH1 0x40 DUP3 ADD MSTORE PUSH1 0x60 ADD SWAP1 JUMP JUMPDEST PUSH1 0x20 DUP1 DUP3 MSTORE PUSH1 0x22 SWAP1 DUP3 ADD MSTORE PUSH32 0x5265737472696374656443616C6C733A206D657373656E676572206E6F742073 PUSH1 0x40 DUP3 ADD MSTORE PUSH2 0x195D PUSH1 0xF2 SHL PUSH1 0x60 DUP3 ADD MSTORE PUSH1 0x80 ADD SWAP1 JUMP JUMPDEST PUSH1 0x0 PUSH1 0x20 DUP3 DUP5 SUB SLT ISZERO PUSH2 0x2B62 JUMPI PUSH1 0x0 DUP1 REVERT JUMPDEST DUP2 MLOAD DUP1 ISZERO ISZERO DUP2 EQ PUSH2 0x2667 JUMPI PUSH1 0x0 DUP1 REVERT JUMPDEST PUSH4 0x4E487B71 PUSH1 0xE0 SHL PUSH1 0x0 MSTORE PUSH1 0x11 PUSH1 0x4 MSTORE PUSH1 0x24 PUSH1 0x0 REVERT JUMPDEST PUSH1 0x0 PUSH1 0x1 PUSH1 0x1 PUSH1 0xC0 SHL SUB DUP4 DUP2 AND SWAP1 DUP4 AND DUP2 DUP2 LT ISZERO PUSH2 0x2BA8 JUMPI PUSH2 0x2BA8 PUSH2 0x2B72 JUMP JUMPDEST SUB SWAP4 SWAP3 POP POP POP JUMP JUMPDEST PUSH1 0x0 DUP3 NOT DUP3 GT ISZERO PUSH2 0x2BC3 JUMPI PUSH2 0x2BC3 PUSH2 0x2B72 JUMP JUMPDEST POP ADD SWAP1 JUMP JUMPDEST PUSH1 0x0 PUSH1 0x20 DUP3 DUP5 SUB SLT ISZERO PUSH2 0x2BDA JUMPI PUSH1 0x0 DUP1 REVERT JUMPDEST POP MLOAD SWAP2 SWAP1 POP JUMP JUMPDEST PUSH1 0x0 PUSH1 0x1 PUSH1 0x1 PUSH1 0xC0 SHL SUB DUP3 DUP2 AND DUP5 DUP3 AND DUP1 DUP4 SUB DUP3 GT ISZERO PUSH2 0x2C03 JUMPI PUSH2 0x2C03 PUSH2 0x2B72 JUMP JUMPDEST ADD SWAP5 SWAP4 POP POP POP POP JUMP JUMPDEST SWAP7 DUP8 MSTORE PUSH1 0x1 PUSH1 0x1 PUSH1 0xA0 SHL SUB SWAP6 DUP7 AND PUSH1 0x20 DUP9 ADD MSTORE PUSH1 0x40 DUP8 ADD SWAP5 SWAP1 SWAP5 MSTORE SWAP2 SWAP1 SWAP4 AND PUSH1 0x60 DUP6 ADD MSTORE PUSH1 0x80 DUP5 ADD SWAP3 SWAP1 SWAP3 MSTORE PUSH1 0xA0 DUP4 ADD SWAP2 SWAP1 SWAP2 MSTORE PUSH1 0xC0 DUP3 ADD MSTORE PUSH1 0xE0 ADD SWAP1 JUMP JUMPDEST PUSH1 0x0 DUP3 DUP3 LT ISZERO PUSH2 0x2C5D JUMPI PUSH2 0x2C5D PUSH2 0x2B72 JUMP JUMPDEST POP SUB SWAP1 JUMP JUMPDEST PUSH1 0x0 DUP2 PUSH1 0x0 NOT DIV DUP4 GT DUP3 ISZERO ISZERO AND ISZERO PUSH2 0x2C7C JUMPI PUSH2 0x2C7C PUSH2 0x2B72 JUMP JUMPDEST POP MUL SWAP1 JUMP JUMPDEST PUSH1 0x0 DUP3 PUSH2 0x2C9E JUMPI PUSH4 0x4E487B71 PUSH1 0xE0 SHL PUSH1 0x0 MSTORE PUSH1 0x12 PUSH1 0x4 MSTORE PUSH1 0x24 PUSH1 0x0 REVERT JUMPDEST POP DIV SWAP1 JUMP JUMPDEST PUSH1 0x0 JUMPDEST DUP4 DUP2 LT ISZERO PUSH2 0x2CBE JUMPI DUP2 DUP2 ADD MLOAD DUP4 DUP3 ADD MSTORE PUSH1 0x20 ADD PUSH2 0x2CA6 JUMP JUMPDEST DUP4 DUP2 GT ISZERO PUSH2 0x19CE JUMPI POP POP PUSH1 0x0 SWAP2 ADD MSTORE JUMP JUMPDEST PUSH1 0x0 DUP3 MLOAD PUSH2 0x2CE1 DUP2 DUP5 PUSH1 0x20 DUP8 ADD PUSH2 0x2CA3 JUMP JUMPDEST SWAP2 SWAP1 SWAP2 ADD SWAP3 SWAP2 POP POP JUMP JUMPDEST PUSH1 0x20 DUP2 MSTORE PUSH1 0x0 DUP3 MLOAD DUP1 PUSH1 0x20 DUP5 ADD MSTORE PUSH2 0x2D0A DUP2 PUSH1 0x40 DUP6 ADD PUSH1 0x20 DUP8 ADD PUSH2 0x2CA3 JUMP JUMPDEST PUSH1 0x1F ADD PUSH1 0x1F NOT AND SWAP2 SWAP1 SWAP2 ADD PUSH1 0x40 ADD SWAP3 SWAP2 POP POP JUMP INVALID LOG2 PUSH5 0x6970667358 0x22 SLT KECCAK256 PC GAS LOG0 0xA9 0xAE JUMP PUSH19 0xD450F600CEFBA3E6417FA4AB113D49B67CCBBF 0xE0 0x22 0x1E 0xC1 0xB1 0xC8 PUSH5 0x736F6C6343 STOP ADDMOD 0xD STOP CALLER ",
  "sha1": "f748d56e55e6465e17ecfc0b9375cc37eacb5b5b",
  "source": "// SPDX-License-Identifier: MIT\npragma solidity ^0.8.12;\n\nimport \"OpenZeppelin/openzeppelin-contracts@4.7.3/contracts/token/ERC20/IERC20.sol\";\nimport \"OpenZeppelin/openzeppelin-contracts@4.7.3/contracts/token/ERC20/utils/SafeERC20.sol\";\nimport \"OpenZeppelin/openzeppelin-contracts@4.7.3/contracts/utils/math/Math.sol\";\nimport \"OpenZeppelin/openzeppelin-contracts@4.7.3/contracts/access/Ownable.sol\";\n\nimport \"./BeamerUtils.sol\";\nimport \"./RestrictedCalls.sol\";\nimport \"./LpWhitelist.sol\";\n\n/// The request manager.\n///\n/// This contract is responsible for keeping track of transfer requests,\n/// implementing the rules of the challenge game and holding deposited\n/// tokens until they are withdrawn.\n/// The information passed by L1 resolution will be stored with the respective requests.\n///\n/// It is the only contract that agents need to interact with on the source chain.\n/// .. note::\n///\n///   The functions resolveRequest and invalidateFill can only be called by\n///   the :sol:contract:`Resolver` contract, via a chain-dependent messenger contract.\ncontract RequestManager is Ownable, LpWhitelist, RestrictedCalls {\n    using Math for uint256;\n    using SafeERC20 for IERC20;\n\n    // Structs\n    // TODO: check if we can use a smaller type for `targetChainId`, so that the\n    // fields can be packed into one storage slot\n    struct Request {\n        address sender;\n        address sourceTokenAddress;\n        uint256 targetChainId;\n        uint256 amount;\n        uint256 validUntil;\n        uint256 lpFee;\n        uint256 protocolFee;\n        uint192 activeClaims;\n        uint256 withdrawClaimId;\n        address filler;\n        bytes32 fillId;\n        mapping(bytes32 => bool) invalidFillIds;\n    }\n\n    struct Claim {\n        bytes32 requestId;\n        address claimer;\n        uint256 claimerStake;\n        mapping(address => uint256) challengersStakes;\n        address lastChallenger;\n        uint256 challengerStakeTotal;\n        uint256 withdrawnAmount;\n        uint256 termination;\n        bytes32 fillId;\n    }\n\n    // Events\n\n    /// Emitted when a new request has been created.\n    ///\n    /// .. seealso:: :sol:func:`createRequest`\n    event RequestCreated(\n        bytes32 indexed requestId,\n        uint256 targetChainId,\n        address sourceTokenAddress,\n        address targetTokenAddress,\n        address targetAddress,\n        uint256 amount,\n        uint256 nonce,\n        uint256 validUntil\n    );\n\n    /// Emitted when the token deposit for request ``requestId`` has been\n    /// transferred to the ``receiver``.\n    ///\n    /// This can happen in two cases:\n    ///\n    ///  * the request expired and the request submitter called :sol:func:`withdrawExpiredRequest`\n    ///  * a claim related to the request has been resolved successfully in favor of the claimer\n    ///\n    /// .. seealso:: :sol:func:`withdraw` :sol:func:`withdrawExpiredRequest`\n    event DepositWithdrawn(bytes32 requestId, address receiver);\n\n    /// Emitted when a claim or a counter-claim (challenge) has been made.\n    ///\n    /// .. seealso:: :sol:func:`claimRequest` :sol:func:`challengeClaim`\n    event ClaimMade(\n        bytes32 indexed requestId,\n        uint256 claimId,\n        address claimer,\n        uint256 claimerStake,\n        address lastChallenger,\n        uint256 challengerStakeTotal,\n        uint256 termination,\n        bytes32 fillId\n    );\n\n    /// Emitted when staked native tokens tied to a claim have been withdrawn.\n    ///\n    /// This can only happen when the claim has been resolved and the caller\n    /// of :sol:func:`withdraw` is allowed to withdraw their stake.\n    ///\n    /// .. seealso:: :sol:func:`withdraw`\n    event ClaimStakeWithdrawn(\n        uint256 claimId,\n        bytes32 indexed requestId,\n        address claimReceiver\n    );\n\n    event FinalityPeriodUpdated(uint256 targetChainId, uint256 finalityPeriod);\n\n    /// Emitted when a request has been resolved via L1 resolution.\n    ///\n    /// .. seealso:: :sol:func:`resolveRequest`\n    event RequestResolved(bytes32 requestId, address filler, bytes32 fillId);\n\n    /// Emitted when an invalidated fill has been resolved.\n    ///\n    /// .. seealso:: :sol:func:`invalidateFill`\n    event FillInvalidatedResolved(bytes32 requestId, bytes32 fillId);\n\n    // Constants\n\n    /// The minimum amount of source chain's native token that the claimer needs to\n    /// provide when making a claim, as well in each round of the challenge game.\n    uint256 public claimStake;\n\n    /// The period for which the claim is valid.\n    uint256 public claimPeriod;\n\n    /// The period by which the termination time of a claim is extended after each\n    /// round of the challenge game. This period should allow enough time for the\n    /// other parties to counter-challenge.\n    ///\n    /// .. note::\n    ///\n    ///    The claim's termination time is extended only if it is less than the\n    ///    extension time.\n    ///\n    /// Note that in the first challenge round, i.e. the round initiated by the first\n    /// challenger, the termination time is extended additionally by the finality\n    /// period of the target chain. This is done to allow for L1 resolution.\n    uint256 public challengePeriodExtension;\n\n    /// The minimum validity period of a request.\n    uint256 public constant MIN_VALIDITY_PERIOD = 5 minutes;\n\n    /// The maximum validity period of a request.\n    uint256 public constant MAX_VALIDITY_PERIOD = 30 minutes;\n\n    /// withdrawClaimId is set to this value when an expired request gets withdrawn by the sender\n    uint256 public constant CLAIM_ID_WITHDRAWN_EXPIRED = type(uint256).max;\n\n    // Variables\n\n    /// Indicates whether the contract is deprecated. A deprecated contract\n    /// cannot be used to create new requests.\n    bool public deprecated;\n\n    /// A counter used to generate request and claim IDs.\n    /// The variable holds the most recently used nonce and must\n    /// be incremented to get the next nonce\n    uint256 public currentNonce;\n\n    /// Maps target rollup chain IDs to finality periods.\n    /// Finality periods are in seconds.\n    mapping(uint256 => uint256) public finalityPeriods;\n\n    /// Maps request IDs to requests.\n    mapping(bytes32 => Request) public requests;\n\n    /// Maps claim IDs to claims.\n    mapping(uint256 => Claim) public claims;\n\n    /// The minimum fee, denominated in transfer token, paid to the liquidity provider.\n    uint256 public minLpFee = 5 ether; // 5e18\n\n    /// Liquidity provider fee percentage, expressed in ppm (parts per million).\n    uint256 public lpFeePPM = 1_000; // 0.1% of the token amount being transferred\n\n    /// Protocol fee percentage, expressed in ppm (parts per million).\n    uint256 public protocolFeePPM = 0; // 0% of the token amount being transferred\n\n    /// The maximum amount of tokens that can be transferred in a single request.\n    uint256 public transferLimit = 10000 ether; // 10000e18\n\n    /// Maps ERC20 token addresses to related token amounts that belong to the protocol.\n    mapping(address => uint256) public collectedProtocolFees;\n\n    /// Compute the liquidy provider fee that needs to be paid for a given transfer amount.\n    function lpFee(uint256 amount) public view returns (uint256) {\n        return Math.max(minLpFee, (amount * lpFeePPM) / 1_000_000);\n    }\n\n    /// Compute the protocol fee that needs to be paid for a given transfer amount.\n    function protocolFee(uint256 amount) public view returns (uint256) {\n        return (amount * protocolFeePPM) / 1_000_000;\n    }\n\n    /// Compute the total fee that needs to be paid for a given transfer amount.\n    /// The total fee is the sum of the liquidity provider fee and the protocol fee.\n    function totalFee(uint256 amount) public view returns (uint256) {\n        return lpFee(amount) + protocolFee(amount);\n    }\n\n    // Modifiers\n\n    /// Check whether a given request ID is valid.\n    modifier validRequestId(bytes32 requestId) {\n        require(\n            requests[requestId].sender != address(0),\n            \"requestId not valid\"\n        );\n        _;\n    }\n\n    /// Check whether a given claim ID is valid.\n    modifier validClaimId(uint256 claimId) {\n        require(claims[claimId].claimer != address(0), \"claimId not valid\");\n        _;\n    }\n\n    /// Constructor.\n    ///\n    /// @param _claimStake Claim stake amount.\n    /// @param _claimPeriod Claim period, in seconds.\n    /// @param _challengePeriodExtension Challenge period extension, in seconds.\n    constructor(\n        uint256 _claimStake,\n        uint256 _claimPeriod,\n        uint256 _challengePeriodExtension\n    ) {\n        claimStake = _claimStake;\n        claimPeriod = _claimPeriod;\n        challengePeriodExtension = _challengePeriodExtension;\n    }\n\n    /// Create a new transfer request.\n    ///\n    /// @param targetChainId ID of the target chain.\n    /// @param sourceTokenAddress Address of the token contract on the source chain.\n    /// @param targetTokenAddress Address of the token contract on the target chain.\n    /// @param targetAddress Recipient address on the target chain.\n    /// @param amount Amount of tokens to transfer. Does not include fees.\n    /// @param validityPeriod The number of seconds the request is to be considered valid.\n    ///                       Once its validity period has elapsed, the request cannot be claimed\n    ///                       anymore and will eventually expire, allowing the request submitter\n    ///                       to withdraw the deposited tokens if there are no active claims.\n    /// @return ID of the newly created request.\n    function createRequest(\n        uint256 targetChainId,\n        address sourceTokenAddress,\n        address targetTokenAddress,\n        address targetAddress,\n        uint256 amount,\n        uint256 validityPeriod\n    ) external returns (bytes32) {\n        require(deprecated == false, \"Contract is deprecated\");\n        require(\n            finalityPeriods[targetChainId] != 0,\n            \"Target rollup not supported\"\n        );\n        require(\n            validityPeriod >= MIN_VALIDITY_PERIOD,\n            \"Validity period too short\"\n        );\n        require(\n            validityPeriod <= MAX_VALIDITY_PERIOD,\n            \"Validity period too long\"\n        );\n        require(amount <= transferLimit, \"Amount exceeds transfer limit\");\n\n        IERC20 token = IERC20(sourceTokenAddress);\n\n        uint256 lpFeeTokenAmount = lpFee(amount);\n        uint256 protocolFeeTokenAmount = protocolFee(amount);\n        uint256 totalTokenAmount = amount +\n            lpFeeTokenAmount +\n            protocolFeeTokenAmount;\n\n        require(\n            token.allowance(msg.sender, address(this)) >= totalTokenAmount,\n            \"Insufficient allowance\"\n        );\n\n        currentNonce += 1;\n        bytes32 requestId = BeamerUtils.createRequestId(\n            block.chainid,\n            targetChainId,\n            targetTokenAddress,\n            targetAddress,\n            amount,\n            currentNonce\n        );\n\n        Request storage newRequest = requests[requestId];\n        newRequest.sender = msg.sender;\n        newRequest.sourceTokenAddress = sourceTokenAddress;\n        newRequest.targetChainId = targetChainId;\n        newRequest.amount = amount;\n        newRequest.validUntil = block.timestamp + validityPeriod;\n        newRequest.lpFee = lpFeeTokenAmount;\n        newRequest.protocolFee = protocolFeeTokenAmount;\n\n        emit RequestCreated(\n            requestId,\n            targetChainId,\n            sourceTokenAddress,\n            targetTokenAddress,\n            targetAddress,\n            amount,\n            currentNonce,\n            newRequest.validUntil\n        );\n\n        token.safeTransferFrom(msg.sender, address(this), totalTokenAmount);\n\n        return requestId;\n    }\n\n    /// Withdraw funds deposited with an expired request.\n    ///\n    /// No claims must be active for the request.\n    ///\n    /// @param requestId ID of the expired request.\n    function withdrawExpiredRequest(bytes32 requestId)\n        external\n        validRequestId(requestId)\n    {\n        Request storage request = requests[requestId];\n\n        require(request.withdrawClaimId == 0, \"Deposit already withdrawn\");\n        require(\n            block.timestamp >= request.validUntil,\n            \"Request not expired yet\"\n        );\n        require(request.activeClaims == 0, \"Active claims running\");\n\n        request.withdrawClaimId = CLAIM_ID_WITHDRAWN_EXPIRED;\n\n        emit DepositWithdrawn(requestId, request.sender);\n\n        IERC20 token = IERC20(request.sourceTokenAddress);\n        token.safeTransfer(\n            request.sender,\n            request.amount + request.lpFee + request.protocolFee\n        );\n    }\n\n    /// Claim that a request was filled by the caller.\n    ///\n    /// The request must still be valid at call time.\n    /// The caller must provide the ``claimStake`` amount of source rollup's native\n    /// token.\n    ///\n    /// @param requestId ID of the request.\n    /// @param fillId The fill ID.\n    /// @return The claim ID.\n    function claimRequest(bytes32 requestId, bytes32 fillId)\n        external\n        payable\n        validRequestId(requestId)\n        onlyWhitelist\n        returns (uint256)\n    {\n        Request storage request = requests[requestId];\n\n        require(block.timestamp < request.validUntil, \"Request expired\");\n        require(request.withdrawClaimId == 0, \"Deposit already withdrawn\");\n        require(msg.value == claimStake, \"Invalid stake amount\");\n        require(fillId != bytes32(0), \"FillId must not be 0x0\");\n\n        request.activeClaims += 1;\n        currentNonce += 1;\n\n        Claim storage claim = claims[currentNonce];\n        claim.requestId = requestId;\n        claim.claimer = msg.sender;\n        claim.claimerStake = claimStake;\n        claim.lastChallenger = address(0);\n        claim.challengerStakeTotal = 0;\n        claim.withdrawnAmount = 0;\n        claim.termination = block.timestamp + claimPeriod;\n        claim.fillId = fillId;\n\n        emit ClaimMade(\n            requestId,\n            currentNonce,\n            claim.claimer,\n            claim.claimerStake,\n            claim.lastChallenger,\n            claim.challengerStakeTotal,\n            claim.termination,\n            fillId\n        );\n\n        return currentNonce;\n    }\n\n    /// Challenge an existing claim.\n    ///\n    /// The claim must still be valid at call time.\n    /// This function implements one round of the challenge game.\n    /// The original claimer is allowed to call this function only\n    /// after someone else made a challenge, i.e. every second round.\n    /// However, once the original claimer counter-challenges, anyone\n    /// can join the game and make another challenge.\n    ///\n    /// The caller must provide enough native tokens as their stake.\n    /// For the original claimer, the minimum stake is\n    /// ``challengerStakeTotal - claimerStake + claimStake``.\n    ///\n    /// For challengers, the minimum stake is\n    /// ``claimerStake - challengerStakeTotal + 1``.\n    ///\n    /// An example (time flows downwards, claimStake = 10)::\n    ///\n    ///   claimRequest() by Max [stakes 10]\n    ///   challengeClaim() by Alice [stakes 11]\n    ///   challengeClaim() by Max [stakes 11]\n    ///   challengeClaim() by Bob [stakes 16]\n    ///\n    /// In this example, if Max didn't want to lose the challenge game to\n    /// Alice and Bob, he would have to challenge with a stake of at least 16.\n    ///\n    /// @param claimId The claim ID.\n    function challengeClaim(uint256 claimId)\n        external\n        payable\n        validClaimId(claimId)\n    {\n        Claim storage claim = claims[claimId];\n        Request storage request = requests[claim.requestId];\n        require(block.timestamp < claim.termination, \"Claim expired\");\n\n        address nextActor;\n        uint256 minValue;\n        uint256 periodExtension = challengePeriodExtension;\n        uint256 claimerStake = claim.claimerStake;\n        uint256 challengerStakeTotal = claim.challengerStakeTotal;\n\n        if (claimerStake > challengerStakeTotal) {\n            if (challengerStakeTotal == 0) {\n                periodExtension += finalityPeriods[request.targetChainId];\n            }\n            require(claim.claimer != msg.sender, \"Cannot challenge own claim\");\n            nextActor = msg.sender;\n            minValue = claimerStake - challengerStakeTotal + 1;\n        } else {\n            nextActor = claim.claimer;\n            minValue = challengerStakeTotal - claimerStake + claimStake;\n        }\n\n        require(msg.sender == nextActor, \"Not eligible to outbid\");\n        require(msg.value >= minValue, \"Not enough stake provided\");\n\n        if (nextActor == claim.claimer) {\n            claim.claimerStake += msg.value;\n        } else {\n            claim.lastChallenger = msg.sender;\n            claim.challengersStakes[msg.sender] += msg.value;\n            claim.challengerStakeTotal += msg.value;\n        }\n\n        claim.termination = Math.max(\n            claim.termination,\n            block.timestamp + periodExtension\n        );\n        uint256 minimumTermination = block.timestamp + challengePeriodExtension;\n        require(\n            claim.termination >= minimumTermination,\n            \"Claim termination did not increase enough\"\n        );\n\n        emit ClaimMade(\n            claim.requestId,\n            claimId,\n            claim.claimer,\n            claim.claimerStake,\n            claim.lastChallenger,\n            claim.challengerStakeTotal,\n            claim.termination,\n            claim.fillId\n        );\n    }\n\n    /// Withdraw the deposit that the request submitter left with the contract,\n    /// as well as the staked native tokens associated with the claim.\n    ///\n    /// In case the caller of this function is a challenger that won the game,\n    /// they will only get their staked native tokens plus the reward in the form\n    /// of full (sole challenger) or partial (multiple challengers) amount\n    /// of native tokens staked by the dishonest claimer.\n    ///\n    /// @param claimId The claim ID.\n    /// @return The address of the deposit receiver.\n    function withdraw(uint256 claimId)\n        external\n        validClaimId(claimId)\n        returns (address)\n    {\n        Claim storage claim = claims[claimId];\n        Request storage request = requests[claim.requestId];\n\n        (address claimReceiver, uint256 ethToTransfer) = resolveClaim(claimId);\n\n        if (claim.challengersStakes[claimReceiver] > 0) {\n            //Re-entrancy protection\n            claim.challengersStakes[claimReceiver] = 0;\n        }\n\n        // First time withdraw is called, remove it from active claims\n        if (claim.withdrawnAmount == 0) {\n            request.activeClaims -= 1;\n        }\n        claim.withdrawnAmount += ethToTransfer;\n        require(\n            claim.withdrawnAmount <=\n                claim.claimerStake + claim.challengerStakeTotal,\n            \"Amount to withdraw too large\"\n        );\n\n        (bool sent, ) = claimReceiver.call{value: ethToTransfer}(\"\");\n        require(sent, \"Failed to send Ether\");\n\n        emit ClaimStakeWithdrawn(claimId, claim.requestId, claimReceiver);\n\n        if (request.withdrawClaimId == 0 && claimReceiver == claim.claimer) {\n            withdrawDeposit(request, claimId);\n        }\n\n        return claimReceiver;\n    }\n\n    function resolveClaim(uint256 claimId)\n        private\n        view\n        returns (address, uint256)\n    {\n        Claim storage claim = claims[claimId];\n        Request storage request = requests[claim.requestId];\n        uint256 claimerStake = claim.claimerStake;\n        uint256 challengerStakeTotal = claim.challengerStakeTotal;\n        require(\n            claim.withdrawnAmount < claimerStake + challengerStakeTotal,\n            \"Claim already withdrawn\"\n        );\n\n        bool claimValid = false;\n\n        // The claim is resolved with the following priority:\n        // 1) The l1 resolved filler is the claimer and l1 resolved fillId matches, claim is valid\n        // 2) FillId is true in request's invalidFillIds, claim is invalid\n        // 3) The withdrawer's claim matches exactly this claim (same claimer address, same fillId)\n        // 4) Claim properties, claim terminated and claimer has the highest stake\n        address filler = request.filler;\n        bytes32 fillId = request.fillId;\n\n        if (filler != address(0)) {\n            // Claim resolution via 1)\n            claimValid = filler == claim.claimer && fillId == claim.fillId;\n        } else if (request.invalidFillIds[fillId]) {\n            // Claim resolution via 2)\n            claimValid = false;\n        } else if (request.withdrawClaimId != 0) {\n            // Claim resolution via 3)\n            claimValid =\n                claim.claimer == claims[request.withdrawClaimId].claimer &&\n                claim.fillId == claims[request.withdrawClaimId].fillId;\n        } else {\n            // Claim resolution via 4)\n            require(\n                block.timestamp >= claim.termination,\n                \"Claim period not finished\"\n            );\n            claimValid = claimerStake > challengerStakeTotal;\n        }\n\n        // Calculate withdraw scheme for claim stakes\n        uint256 ethToTransfer;\n        address claimReceiver;\n\n        if (claimValid) {\n            // If claim is valid, all stakes go to the claimer\n            ethToTransfer = claimerStake + challengerStakeTotal;\n            claimReceiver = claim.claimer;\n        } else if (challengerStakeTotal > 0) {\n            // If claim is invalid, partial withdrawal by the sender\n            ethToTransfer = 2 * claim.challengersStakes[msg.sender];\n            claimReceiver = msg.sender;\n\n            require(ethToTransfer > 0, \"Challenger has nothing to withdraw\");\n        } else {\n            // The unlikely event is possible that a false claim has no challenger\n            // If it is known that the claim is false then the claim stake goes to the platform\n            ethToTransfer = claimerStake;\n            claimReceiver = owner();\n        }\n\n        // If the challenger wins and is the last challenger, he gets either\n        // twice his stake plus the excess stake (if the claimer was winning), or\n        // twice his stake minus the difference between the claimer and challenger stakes (if the claimer was losing)\n        if (msg.sender == claim.lastChallenger) {\n            if (claimerStake > challengerStakeTotal) {\n                ethToTransfer += (claimerStake - challengerStakeTotal);\n            } else {\n                ethToTransfer -= (challengerStakeTotal - claimerStake);\n            }\n        }\n\n        return (claimReceiver, ethToTransfer);\n    }\n\n    function withdrawDeposit(Request storage request, uint256 claimId) private {\n        Claim storage claim = claims[claimId];\n        address claimer = claim.claimer;\n        emit DepositWithdrawn(claim.requestId, claimer);\n\n        request.withdrawClaimId = claimId;\n\n        collectedProtocolFees[request.sourceTokenAddress] += request\n            .protocolFee;\n\n        IERC20 token = IERC20(request.sourceTokenAddress);\n        token.safeTransfer(claimer, request.amount + request.lpFee);\n    }\n\n    /// Withdraw protocol fees collected by the contract.\n    ///\n    /// Protocol fees are paid in token transferred.\n    ///\n    /// .. note:: This function can only be called by the contract owner.\n    ///\n    /// @param tokenAddress The address of the token contract.\n    /// @param recipient The address the fees should be sent to.\n    function withdrawProtocolFees(address tokenAddress, address recipient)\n        external\n        onlyOwner\n    {\n        uint256 amount = collectedProtocolFees[tokenAddress];\n        require(amount > 0, \"Protocol fee is zero\");\n        collectedProtocolFees[tokenAddress] = 0;\n\n        IERC20 token = IERC20(tokenAddress);\n        token.safeTransfer(recipient, amount);\n    }\n\n    /// Update fee parameters.\n    ///\n    /// .. note:: This function can only be called by the contract owner.\n    ///\n    /// @param newProtocolFeePPM The new value for ``protocolFeePPM``.\n    /// @param newLpFeePPM The new value for ``lpFeePPM``.\n    /// @param newMinLpFee The new value for ``minLpFee``.\n    function updateFeeData(\n        uint256 newProtocolFeePPM,\n        uint256 newLpFeePPM,\n        uint256 newMinLpFee\n    ) external onlyOwner {\n        protocolFeePPM = newProtocolFeePPM;\n        lpFeePPM = newLpFeePPM;\n        minLpFee = newMinLpFee;\n    }\n\n    /// Update the transfer amount limit.\n    ///\n    /// .. note:: This function can only be called by the contract owner.\n    ///\n    /// @param newTransferLimit The new value for ``transferLimit``.\n    function updateTransferLimit(uint256 newTransferLimit) external onlyOwner {\n        transferLimit = newTransferLimit;\n    }\n\n    /// Set the finality period for the given target chain.\n    ///\n    /// .. note:: This function can only be called by the contract owner.\n    ///\n    /// @param targetChainId The target chain ID.\n    /// @param finalityPeriod Finality period in seconds.\n    function setFinalityPeriod(uint256 targetChainId, uint256 finalityPeriod)\n        external\n        onlyOwner\n    {\n        require(finalityPeriod > 0, \"Finality period must be greater than 0\");\n        finalityPeriods[targetChainId] = finalityPeriod;\n\n        emit FinalityPeriodUpdated(targetChainId, finalityPeriod);\n    }\n\n    /// Mark the contract as deprecated.\n    ///\n    /// Once the contract is deprecated, it cannot be used to create new\n    /// requests anymore. Withdrawing deposited funds and claim stakes\n    /// still works, though.\n    ///\n    /// .. note:: This function can only be called by the contract owner.\n    function deprecateContract() external onlyOwner {\n        require(deprecated == false, \"Contract already deprecated\");\n        deprecated = true;\n    }\n\n    /// Returns whether a fill is invalidated or not\n    ///\n    /// Calling invalidateFill() will set this boolean to true,\n    /// marking that the ``fillId`` for the corresponding ``requestId`` was\n    /// invalidated.\n    /// Calling resolveRequest will validate it again, setting request.invalidatedFills[fillId]\n    /// to false.\n    /// .. seealso:: :sol:func:`invalidateFill`\n    /// .. seealso:: :sol:func:`resolveRequest`\n    ///\n    /// @param requestId The request ID\n    /// @param fillId The fill ID\n    /// @return Whether the fill ID is invalid for the given request ID\n    function isInvalidFill(bytes32 requestId, bytes32 fillId)\n        public\n        view\n        returns (bool)\n    {\n        return requests[requestId].invalidFillIds[fillId];\n    }\n\n    /// Mark the request identified by ``requestId`` as filled by ``filler``.\n    ///\n    /// .. note::\n    ///\n    ///     This function is a restricted call function. Only callable by the added caller.\n    ///\n    /// @param requestId The request ID.\n    /// @param fillId The fill ID.\n    /// @param resolutionChainId The resolution (L1) chain ID.\n    /// @param filler The address that filled the request.\n    function resolveRequest(\n        bytes32 requestId,\n        bytes32 fillId,\n        uint256 resolutionChainId,\n        address filler\n    ) external restricted(resolutionChainId) {\n        Request storage request = requests[requestId];\n        request.filler = filler;\n        request.fillId = fillId;\n\n        request.invalidFillIds[fillId] = false;\n\n        emit RequestResolved(requestId, filler, fillId);\n    }\n\n    /// Mark the fill identified by ``requestId`` and ``fillId`` as invalid.\n    ///\n    /// .. note::\n    ///\n    ///     This function is a restricted call function. Only callable by the added caller.\n    ///\n    /// @param requestId The request ID.\n    /// @param fillId The fill ID.\n    /// @param resolutionChainId The resolution (L1) chain ID.\n    function invalidateFill(\n        bytes32 requestId,\n        bytes32 fillId,\n        uint256 resolutionChainId\n    ) external restricted(resolutionChainId) {\n        Request storage request = requests[requestId];\n        require(\n            request.filler == address(0),\n            \"Cannot invalidate resolved fills\"\n        );\n        require(\n            request.invalidFillIds[fillId] == false,\n            \"Fill already invalidated\"\n        );\n\n        request.invalidFillIds[fillId] = true;\n\n        emit FillInvalidatedResolved(requestId, fillId);\n    }\n}\n",
  "sourcePath": "contracts/contracts/RequestManager.sol",
  "type": "contract"
}