{
  "abi": [
    {
      "inputs": [
        {
          "internalType": "uint256",
          "name": "_claimStake",
          "type": "uint256"
        },
        {
          "internalType": "uint256",
          "name": "_claimPeriod",
          "type": "uint256"
        },
        {
          "internalType": "uint256",
          "name": "_challengePeriod",
          "type": "uint256"
        },
        {
          "internalType": "uint256",
          "name": "_challengePeriodExtension",
          "type": "uint256"
        }
      ],
      "stateMutability": "nonpayable",
      "type": "constructor"
    },
    {
      "anonymous": false,
      "inputs": [
        {
          "indexed": true,
          "internalType": "uint256",
          "name": "claimId",
          "type": "uint256"
        },
        {
          "indexed": false,
          "internalType": "address",
          "name": "leader",
          "type": "address"
        },
        {
          "indexed": false,
          "internalType": "uint256",
          "name": "highestBid",
          "type": "uint256"
        }
      ],
      "name": "ChallengeCountered",
      "type": "event"
    },
    {
      "anonymous": false,
      "inputs": [
        {
          "indexed": true,
          "internalType": "uint256",
          "name": "claimId",
          "type": "uint256"
        },
        {
          "indexed": false,
          "internalType": "address",
          "name": "challenger",
          "type": "address"
        }
      ],
      "name": "ClaimChallenged",
      "type": "event"
    },
    {
      "anonymous": false,
      "inputs": [
        {
          "indexed": true,
          "internalType": "uint256",
          "name": "claimId",
          "type": "uint256"
        },
        {
          "indexed": false,
          "internalType": "uint256",
          "name": "requestId",
          "type": "uint256"
        },
        {
          "indexed": false,
          "internalType": "address",
          "name": "claimer",
          "type": "address"
        },
        {
          "indexed": false,
          "internalType": "uint256",
          "name": "termination",
          "type": "uint256"
        }
      ],
      "name": "ClaimCreated",
      "type": "event"
    },
    {
      "anonymous": false,
      "inputs": [
        {
          "indexed": true,
          "internalType": "uint256",
          "name": "claimId",
          "type": "uint256"
        },
        {
          "indexed": false,
          "internalType": "uint256",
          "name": "requestId",
          "type": "uint256"
        },
        {
          "indexed": false,
          "internalType": "address",
          "name": "claimer",
          "type": "address"
        }
      ],
      "name": "ClaimWithdrawn",
      "type": "event"
    },
    {
      "anonymous": false,
      "inputs": [
        {
          "indexed": true,
          "internalType": "address",
          "name": "previousOwner",
          "type": "address"
        },
        {
          "indexed": true,
          "internalType": "address",
          "name": "newOwner",
          "type": "address"
        }
      ],
      "name": "OwnershipTransferred",
      "type": "event"
    },
    {
      "anonymous": false,
      "inputs": [
        {
          "indexed": true,
          "internalType": "uint256",
          "name": "requestId",
          "type": "uint256"
        },
        {
          "indexed": true,
          "internalType": "uint256",
          "name": "targetChainId",
          "type": "uint256"
        },
        {
          "indexed": true,
          "internalType": "address",
          "name": "targetTokenAddress",
          "type": "address"
        },
        {
          "indexed": false,
          "internalType": "uint256",
          "name": "amount",
          "type": "uint256"
        }
      ],
      "name": "RequestCreated",
      "type": "event"
    },
    {
      "inputs": [
        {
          "internalType": "uint256",
          "name": "claimId",
          "type": "uint256"
        }
      ],
      "name": "challengeClaim",
      "outputs": [],
      "stateMutability": "payable",
      "type": "function"
    },
    {
      "inputs": [],
      "name": "challengePeriod",
      "outputs": [
        {
          "internalType": "uint256",
          "name": "",
          "type": "uint256"
        }
      ],
      "stateMutability": "view",
      "type": "function"
    },
    {
      "inputs": [],
      "name": "challengePeriodExtension",
      "outputs": [
        {
          "internalType": "uint256",
          "name": "",
          "type": "uint256"
        }
      ],
      "stateMutability": "view",
      "type": "function"
    },
    {
      "inputs": [
        {
          "internalType": "uint256",
          "name": "",
          "type": "uint256"
        }
      ],
      "name": "challenges",
      "outputs": [
        {
          "internalType": "address",
          "name": "challenger",
          "type": "address"
        },
        {
          "internalType": "uint256",
          "name": "challengerStake",
          "type": "uint256"
        },
        {
          "internalType": "uint256",
          "name": "claimerStake",
          "type": "uint256"
        },
        {
          "internalType": "uint256",
          "name": "termination",
          "type": "uint256"
        }
      ],
      "stateMutability": "view",
      "type": "function"
    },
    {
      "inputs": [],
      "name": "claimCounter",
      "outputs": [
        {
          "internalType": "uint256",
          "name": "",
          "type": "uint256"
        }
      ],
      "stateMutability": "view",
      "type": "function"
    },
    {
      "inputs": [],
      "name": "claimPeriod",
      "outputs": [
        {
          "internalType": "uint256",
          "name": "",
          "type": "uint256"
        }
      ],
      "stateMutability": "view",
      "type": "function"
    },
    {
      "inputs": [
        {
          "internalType": "uint256",
          "name": "requestId",
          "type": "uint256"
        }
      ],
      "name": "claimRequest",
      "outputs": [
        {
          "internalType": "uint256",
          "name": "",
          "type": "uint256"
        }
      ],
      "stateMutability": "payable",
      "type": "function"
    },
    {
      "inputs": [],
      "name": "claimStake",
      "outputs": [
        {
          "internalType": "uint256",
          "name": "",
          "type": "uint256"
        }
      ],
      "stateMutability": "view",
      "type": "function"
    },
    {
      "inputs": [
        {
          "internalType": "uint256",
          "name": "claimId",
          "type": "uint256"
        }
      ],
      "name": "claimSuccessful",
      "outputs": [
        {
          "internalType": "bool",
          "name": "",
          "type": "bool"
        }
      ],
      "stateMutability": "view",
      "type": "function"
    },
    {
      "inputs": [
        {
          "internalType": "uint256",
          "name": "",
          "type": "uint256"
        }
      ],
      "name": "claims",
      "outputs": [
        {
          "internalType": "uint256",
          "name": "requestId",
          "type": "uint256"
        },
        {
          "internalType": "address",
          "name": "claimer",
          "type": "address"
        },
        {
          "internalType": "bool",
          "name": "withdrawn",
          "type": "bool"
        },
        {
          "internalType": "uint256",
          "name": "termination",
          "type": "uint256"
        }
      ],
      "stateMutability": "view",
      "type": "function"
    },
    {
      "inputs": [
        {
          "internalType": "uint256",
          "name": "claimId",
          "type": "uint256"
        }
      ],
      "name": "counterChallenge",
      "outputs": [],
      "stateMutability": "payable",
      "type": "function"
    },
    {
      "inputs": [],
      "name": "owner",
      "outputs": [
        {
          "internalType": "address",
          "name": "",
          "type": "address"
        }
      ],
      "stateMutability": "view",
      "type": "function"
    },
    {
      "inputs": [],
      "name": "renounceOwnership",
      "outputs": [],
      "stateMutability": "nonpayable",
      "type": "function"
    },
    {
      "inputs": [
        {
          "internalType": "uint256",
          "name": "targetChainId",
          "type": "uint256"
        },
        {
          "internalType": "address",
          "name": "sourceTokenAddress",
          "type": "address"
        },
        {
          "internalType": "address",
          "name": "targetTokenAddress",
          "type": "address"
        },
        {
          "internalType": "address",
          "name": "targetAddress",
          "type": "address"
        },
        {
          "internalType": "uint256",
          "name": "amount",
          "type": "uint256"
        }
      ],
      "name": "request",
      "outputs": [
        {
          "internalType": "uint256",
          "name": "",
          "type": "uint256"
        }
      ],
      "stateMutability": "nonpayable",
      "type": "function"
    },
    {
      "inputs": [],
      "name": "requestCounter",
      "outputs": [
        {
          "internalType": "uint256",
          "name": "",
          "type": "uint256"
        }
      ],
      "stateMutability": "view",
      "type": "function"
    },
    {
      "inputs": [
        {
          "internalType": "uint256",
          "name": "",
          "type": "uint256"
        }
      ],
      "name": "requests",
      "outputs": [
        {
          "internalType": "address",
          "name": "sourceTokenAddress",
          "type": "address"
        },
        {
          "internalType": "uint256",
          "name": "targetChainId",
          "type": "uint256"
        },
        {
          "internalType": "address",
          "name": "targetTokenAddress",
          "type": "address"
        },
        {
          "internalType": "address",
          "name": "targetAddress",
          "type": "address"
        },
        {
          "internalType": "uint256",
          "name": "amount",
          "type": "uint256"
        }
      ],
      "stateMutability": "view",
      "type": "function"
    },
    {
      "inputs": [
        {
          "internalType": "address",
          "name": "newOwner",
          "type": "address"
        }
      ],
      "name": "transferOwnership",
      "outputs": [],
      "stateMutability": "nonpayable",
      "type": "function"
    },
    {
      "inputs": [
        {
          "internalType": "uint256",
          "name": "claimId",
          "type": "uint256"
        }
      ],
      "name": "withdraw",
      "outputs": [],
      "stateMutability": "nonpayable",
      "type": "function"
    }
  ],
  "bytecode": "608060405234801561001057600080fd5b5060405161140e38038061140e83398101604081905261002f9161009f565b6100383361004f565b6001939093556002919091556003556004556100d5565b600080546001600160a01b038381166001600160a01b0319831681178455604051919092169283917f8be0079c531659141344cd1fd0a4f28419497f9722a3daafe3b4186f6b6457e09190a35050565b600080600080608085870312156100b557600080fd5b505082516020840151604085015160609095015191969095509092509050565b61132a806100e46000396000f3fe6080604052600436106101095760003560e01c80638da5cb5b11610095578063a3d6299d11610064578063a3d6299d14610358578063a888c2cd1461036b578063eb321173146103eb578063f2fde38b14610401578063f3f480d91461042157600080fd5b80638da5cb5b146102915780638f1d3776146102b957806392c824d81461032f578063973a814e1461034257600080fd5b80632e1a7d4d116100dc5780632e1a7d4d1461019c5780634efa8f17146101bc578063715018a6146101d25780637dc2cd98146101e757806381d12c58146101fd57600080fd5b80630e0fe0eb1461010e5780631215fce41461014157806319a4e062146101715780631d18adc514610186575b600080fd5b34801561011a57600080fd5b5061012e61012936600461122f565b610437565b6040519081526020015b60405180910390f35b34801561014d57600080fd5b5061016161015c366004611216565b6105cb565b6040519015158152602001610138565b61018461017f366004611216565b61066c565b005b34801561019257600080fd5b5061012e60045481565b3480156101a857600080fd5b506101846101b7366004611216565b6109b2565b3480156101c857600080fd5b5061012e60065481565b3480156101de57600080fd5b50610184610b43565b3480156101f357600080fd5b5061012e60025481565b34801561020957600080fd5b50610256610218366004611216565b600760205260009081526040902080546001820154600283015460038401546004909401546001600160a01b03938416949293918216929091169085565b604080516001600160a01b0396871681526020810195909552928516928401929092529092166060820152608081019190915260a001610138565b34801561029d57600080fd5b506000546040516001600160a01b039091168152602001610138565b3480156102c557600080fd5b506103056102d4366004611216565b60096020526000908152604090208054600182015460028301546003909301546001600160a01b0390921692909184565b604080516001600160a01b0390951685526020850193909352918301526060820152608001610138565b61018461033d366004611216565b610ba9565b34801561034e57600080fd5b5061012e60055481565b61012e610366366004611216565b610d4c565b34801561037757600080fd5b506103bd610386366004611216565b60086020526000908152604090208054600182015460029092015490916001600160a01b03811691600160a01b90910460ff169084565b604080519485526001600160a01b039093166020850152901515918301919091526060820152608001610138565b3480156103f757600080fd5b5061012e60015481565b34801561040d57600080fd5b5061018461041c3660046111d9565b610e56565b34801561042d57600080fd5b5061012e60035481565b600060016005600082825461044c91906112af565b90915550506005546000818152600760205260409081902080546001600160a01b03808a166001600160a01b0319928316178355600183018b90556002830180548a83169084168117909155600384018054928a169290931691909117909155600482018690559151909190899084907f84d53118259dd61386d5f2d40ea401e6f35d831e04ec37f7d424660886bfb11d906104eb9089815260200190565b60405180910390a46040516323b872dd60e01b81523360048201523060248201526044810185905287906001600160a01b038216906323b872dd90606401602060405180830381600087803b15801561054357600080fd5b505af1158015610557573d6000803e3d6000fd5b505050506040513d601f19601f8201168201806040525081019061057b91906111f4565b6105be5760405162461bcd60e51b815260206004820152600f60248201526e151c985b9cd9995c8819985a5b1959608a1b60448201526064015b60405180910390fd5b5090979650505050505050565b60008160065481111580156105e05750600081115b6105fc5760405162461bcd60e51b81526004016105b590611284565b600083815260096020526040902060030154156106525760405162461bcd60e51b815260206004820152601460248201527310db185a5b481dd85cc818da185b1b195b99d95960621b60448201526064016105b5565b505060009081526008602052604090206002015442101590565b80600654811115801561067f5750600081115b61069b5760405162461bcd60e51b81526004016105b590611284565b6000828152600860209081526040808320600990925290912080546001600160a01b031661070b5760405162461bcd60e51b815260206004820152601860248201527f436c61696d206e6f7420796574206368616c6c656e676564000000000000000060448201526064016105b5565b60018201546001600160a01b031633148061072f575080546001600160a01b031633145b6107895760405162461bcd60e51b815260206004820152602560248201527f416c7265616479206368616c6c656e67656420627920616e6f74686572206164604482015264647265737360d81b60648201526084016105b5565b806003015442106107dc5760405162461bcd60e51b815260206004820152601960248201527f4368616c6c656e676520706572696f642066696e69736865640000000000000060448201526064016105b5565b60018101546002820154116000816108015760018401546001600160a01b031661080d565b82546001600160a01b03165b9050336001600160a01b038216146108605760405162461bcd60e51b8152602060048201526016602482015275139bdd08195b1a59da589b19481d1bc81bdd5d189a5960521b60448201526064016105b5565b600082610880578360020154846001015461087b91906112c7565b610894565b8360010154846002015461089491906112c7565b90508034116108e15760405162461bcd60e51b8152602060048201526019602482015278139bdd08195b9bdd59da08199d5b991cc81c1c9bdd9a591959603a1b60448201526064016105b5565b60018501546001600160a01b0316331415610915573484600201600082825461090a91906112af565b9091555061092f9050565b3484600101600082825461092991906112af565b90915550505b61094a84600301546004544261094591906112af565b610f21565b8460030181905550867f4626e30dc12b4c7f8133abb51a00dd8828ca7a90ef06e23db76298bb6091016a3361098787600101548860020154610f21565b604080516001600160a01b03909316835260208301919091520160405180910390a250505050505050565b8060065481111580156109c55750600081115b6109e15760405162461bcd60e51b81526004016105b590611284565b60008281526008602090815260408083208054845260079092529091206001820154600160a01b900460ff1615610a4e5760405162461bcd60e51b815260206004820152601160248201527020b63932b0b23c903bb4ba34323930bbb760791b60448201526064016105b5565b600084815260096020526040902060030154151580610ac0578260020154421015610abb5760405162461bcd60e51b815260206004820152601960248201527f436c61696d20706572696f64206e6f742066696e69736865640000000000000060448201526064016105b5565b610b21565b600085815260096020526040902060030154421015610b215760405162461bcd60e51b815260206004820152601d60248201527f4368616c6c656e676520706572696f64206e6f742066696e697368656400000060448201526064016105b5565b610b2c858385610f3a565b8015610b3c57610b3c858461106c565b5050505050565b6000546001600160a01b03163314610b9d5760405162461bcd60e51b815260206004820181905260248201527f4f776e61626c653a2063616c6c6572206973206e6f7420746865206f776e657260448201526064016105b5565b610ba7600061116d565b565b806006548111158015610bbc5750600081115b610bd85760405162461bcd60e51b81526004016105b590611284565b600082815260096020526040902080546001600160a01b031615610c335760405162461bcd60e51b8152602060048201526012602482015271105b1c9958591e4818da185b1b195b99d95960721b60448201526064016105b5565b6000838152600860205260409020600201544210610c935760405162461bcd60e51b815260206004820152601c60248201527f416c726561647920636c61696d6564207375636365737366756c6c790000000060448201526064016105b5565b6001543411610ce05760405162461bcd60e51b8152602060048201526019602482015278139bdd08195b9bdd59da08199d5b991cc81c1c9bdd9a591959603a1b60448201526064016105b5565b80546001600160a01b0319163317815534600180830191909155546002820155600354610d0d90426112af565b600382015560405133815283907f829b4d84d4743d197a9b0fad05abef9f517535e06d50e0b85b1e77089b8afa9d9060200160405180910390a2505050565b60006001543414610d9f5760405162461bcd60e51b815260206004820152601a60248201527f5374616b652070726f7669646564206e6f7420636f727265637400000000000060448201526064016105b5565b600160066000828254610db291906112af565b909155505060065460008181526008602052604090208381556001810180546001600160a81b0319163360ff60a01b1916179055600254610df390426112af565b600282018190556001820154604080518781526001600160a01b03909216602083015281019190915282907fd970dabcc5f2873d6eb169e62fdf8a4691be874148ab73513c8c939e446630999060600160405180910390a2505060065492915050565b6000546001600160a01b03163314610eb05760405162461bcd60e51b815260206004820181905260248201527f4f776e61626c653a2063616c6c6572206973206e6f7420746865206f776e657260448201526064016105b5565b6001600160a01b038116610f155760405162461bcd60e51b815260206004820152602660248201527f4f776e61626c653a206e6577206f776e657220697320746865207a65726f206160448201526564647265737360d01b60648201526084016105b5565b610f1e8161116d565b50565b600081831015610f315781610f33565b825b9392505050565b600181018054600160a01b60ff60a01b198216179091558154604080519182526001600160a01b03909216602082015284917fc494c0d9b07fae9d937a92117991d3017ad9408a7d344caa86c184c47f7bd183910160405180910390a28154600182015460048085015460405163a9059cbb60e01b81526001600160a01b03938416928101929092526024820152911690819063a9059cbb90604401602060405180830381600087803b158015610ff057600080fd5b505af1158015611004573d6000803e3d6000fd5b505050506040513d601f19601f8201168201806040525081019061102891906111f4565b6110665760405162461bcd60e51b815260206004820152600f60248201526e151c985b9cd9995c8819985a5b1959608a1b60448201526064016105b5565b50505050565b6000828152600960205260408120600181015460028201549192911190816110a15760018401546001600160a01b03166110ad565b82546001600160a01b03165b90506000836001015484600201546110c591906112af565b9050600080836001600160a01b03168360405160006040518083038185875af1925050503d8060008114611115576040519150601f19603f3d011682016040523d82523d6000602084013e61111a565b606091505b5091509150816111635760405162461bcd60e51b81526020600482015260146024820152732330b4b632b2103a379039b2b7321022ba3432b960611b60448201526064016105b5565b5050505050505050565b600080546001600160a01b038381166001600160a01b0319831681178455604051919092169283917f8be0079c531659141344cd1fd0a4f28419497f9722a3daafe3b4186f6b6457e09190a35050565b80356001600160a01b03811681146111d457600080fd5b919050565b6000602082840312156111eb57600080fd5b610f33826111bd565b60006020828403121561120657600080fd5b81518015158114610f3357600080fd5b60006020828403121561122857600080fd5b5035919050565b600080600080600060a0868803121561124757600080fd5b85359450611257602087016111bd565b9350611265604087016111bd565b9250611273606087016111bd565b949793965091946080013592915050565b60208082526011908201527018db185a5b5259081b9bdd081d985b1a59607a1b604082015260600190565b600082198211156112c2576112c26112de565b500190565b6000828210156112d9576112d96112de565b500390565b634e487b7160e01b600052601160045260246000fdfea264697066735822122028f8cbc20d802b807705e8cd3e5497da6593c1fc445ed527474b3e1559864bbd64736f6c63430008070033",
  "bytecodeSha1": "65cea93dc413d80755b552510346550b84065916",
  "compiler": {
    "evm_version": "istanbul",
    "optimizer": {
      "enabled": true,
      "runs": 200
    },
    "version": "0.8.7+commit.e28d00a7"
  },
  "contractName": "RequestManager",
  "language": "Solidity",
  "natspec": {
    "kind": "dev",
    "methods": {
      "owner()": {
        "details": "Returns the address of the current owner."
      },
      "renounceOwnership()": {
        "details": "Leaves the contract without owner. It will not be possible to call `onlyOwner` functions anymore. Can only be called by the current owner. NOTE: Renouncing ownership will leave the contract without an owner, thereby removing any functionality that is only available to the owner."
      },
      "transferOwnership(address)": {
        "details": "Transfers ownership of the contract to a new account (`newOwner`). Can only be called by the current owner."
      }
    },
    "version": 1
  },
  "opcodes": "PUSH1 0x80 PUSH1 0x40 MSTORE PUSH1 0x4 CALLDATASIZE LT PUSH2 0x109 JUMPI PUSH1 0x0 CALLDATALOAD PUSH1 0xE0 SHR DUP1 PUSH4 0x8DA5CB5B GT PUSH2 0x95 JUMPI DUP1 PUSH4 0xA3D6299D GT PUSH2 0x64 JUMPI DUP1 PUSH4 0xA3D6299D EQ PUSH2 0x358 JUMPI DUP1 PUSH4 0xA888C2CD EQ PUSH2 0x36B JUMPI DUP1 PUSH4 0xEB321173 EQ PUSH2 0x3EB JUMPI DUP1 PUSH4 0xF2FDE38B EQ PUSH2 0x401 JUMPI DUP1 PUSH4 0xF3F480D9 EQ PUSH2 0x421 JUMPI PUSH1 0x0 DUP1 REVERT JUMPDEST DUP1 PUSH4 0x8DA5CB5B EQ PUSH2 0x291 JUMPI DUP1 PUSH4 0x8F1D3776 EQ PUSH2 0x2B9 JUMPI DUP1 PUSH4 0x92C824D8 EQ PUSH2 0x32F JUMPI DUP1 PUSH4 0x973A814E EQ PUSH2 0x342 JUMPI PUSH1 0x0 DUP1 REVERT JUMPDEST DUP1 PUSH4 0x2E1A7D4D GT PUSH2 0xDC JUMPI DUP1 PUSH4 0x2E1A7D4D EQ PUSH2 0x19C JUMPI DUP1 PUSH4 0x4EFA8F17 EQ PUSH2 0x1BC JUMPI DUP1 PUSH4 0x715018A6 EQ PUSH2 0x1D2 JUMPI DUP1 PUSH4 0x7DC2CD98 EQ PUSH2 0x1E7 JUMPI DUP1 PUSH4 0x81D12C58 EQ PUSH2 0x1FD JUMPI PUSH1 0x0 DUP1 REVERT JUMPDEST DUP1 PUSH4 0xE0FE0EB EQ PUSH2 0x10E JUMPI DUP1 PUSH4 0x1215FCE4 EQ PUSH2 0x141 JUMPI DUP1 PUSH4 0x19A4E062 EQ PUSH2 0x171 JUMPI DUP1 PUSH4 0x1D18ADC5 EQ PUSH2 0x186 JUMPI JUMPDEST PUSH1 0x0 DUP1 REVERT JUMPDEST CALLVALUE DUP1 ISZERO PUSH2 0x11A JUMPI PUSH1 0x0 DUP1 REVERT JUMPDEST POP PUSH2 0x12E PUSH2 0x129 CALLDATASIZE PUSH1 0x4 PUSH2 0x122F JUMP JUMPDEST PUSH2 0x437 JUMP JUMPDEST PUSH1 0x40 MLOAD SWAP1 DUP2 MSTORE PUSH1 0x20 ADD JUMPDEST PUSH1 0x40 MLOAD DUP1 SWAP2 SUB SWAP1 RETURN JUMPDEST CALLVALUE DUP1 ISZERO PUSH2 0x14D JUMPI PUSH1 0x0 DUP1 REVERT JUMPDEST POP PUSH2 0x161 PUSH2 0x15C CALLDATASIZE PUSH1 0x4 PUSH2 0x1216 JUMP JUMPDEST PUSH2 0x5CB JUMP JUMPDEST PUSH1 0x40 MLOAD SWAP1 ISZERO ISZERO DUP2 MSTORE PUSH1 0x20 ADD PUSH2 0x138 JUMP JUMPDEST PUSH2 0x184 PUSH2 0x17F CALLDATASIZE PUSH1 0x4 PUSH2 0x1216 JUMP JUMPDEST PUSH2 0x66C JUMP JUMPDEST STOP JUMPDEST CALLVALUE DUP1 ISZERO PUSH2 0x192 JUMPI PUSH1 0x0 DUP1 REVERT JUMPDEST POP PUSH2 0x12E PUSH1 0x4 SLOAD DUP2 JUMP JUMPDEST CALLVALUE DUP1 ISZERO PUSH2 0x1A8 JUMPI PUSH1 0x0 DUP1 REVERT JUMPDEST POP PUSH2 0x184 PUSH2 0x1B7 CALLDATASIZE PUSH1 0x4 PUSH2 0x1216 JUMP JUMPDEST PUSH2 0x9B2 JUMP JUMPDEST CALLVALUE DUP1 ISZERO PUSH2 0x1C8 JUMPI PUSH1 0x0 DUP1 REVERT JUMPDEST POP PUSH2 0x12E PUSH1 0x6 SLOAD DUP2 JUMP JUMPDEST CALLVALUE DUP1 ISZERO PUSH2 0x1DE JUMPI PUSH1 0x0 DUP1 REVERT JUMPDEST POP PUSH2 0x184 PUSH2 0xB43 JUMP JUMPDEST CALLVALUE DUP1 ISZERO PUSH2 0x1F3 JUMPI PUSH1 0x0 DUP1 REVERT JUMPDEST POP PUSH2 0x12E PUSH1 0x2 SLOAD DUP2 JUMP JUMPDEST CALLVALUE DUP1 ISZERO PUSH2 0x209 JUMPI PUSH1 0x0 DUP1 REVERT JUMPDEST POP PUSH2 0x256 PUSH2 0x218 CALLDATASIZE PUSH1 0x4 PUSH2 0x1216 JUMP JUMPDEST PUSH1 0x7 PUSH1 0x20 MSTORE PUSH1 0x0 SWAP1 DUP2 MSTORE PUSH1 0x40 SWAP1 KECCAK256 DUP1 SLOAD PUSH1 0x1 DUP3 ADD SLOAD PUSH1 0x2 DUP4 ADD SLOAD PUSH1 0x3 DUP5 ADD SLOAD PUSH1 0x4 SWAP1 SWAP5 ADD SLOAD PUSH1 0x1 PUSH1 0x1 PUSH1 0xA0 SHL SUB SWAP4 DUP5 AND SWAP5 SWAP3 SWAP4 SWAP2 DUP3 AND SWAP3 SWAP1 SWAP2 AND SWAP1 DUP6 JUMP JUMPDEST PUSH1 0x40 DUP1 MLOAD PUSH1 0x1 PUSH1 0x1 PUSH1 0xA0 SHL SUB SWAP7 DUP8 AND DUP2 MSTORE PUSH1 0x20 DUP2 ADD SWAP6 SWAP1 SWAP6 MSTORE SWAP3 DUP6 AND SWAP3 DUP5 ADD SWAP3 SWAP1 SWAP3 MSTORE SWAP1 SWAP3 AND PUSH1 0x60 DUP3 ADD MSTORE PUSH1 0x80 DUP2 ADD SWAP2 SWAP1 SWAP2 MSTORE PUSH1 0xA0 ADD PUSH2 0x138 JUMP JUMPDEST CALLVALUE DUP1 ISZERO PUSH2 0x29D JUMPI PUSH1 0x0 DUP1 REVERT JUMPDEST POP PUSH1 0x0 SLOAD PUSH1 0x40 MLOAD PUSH1 0x1 PUSH1 0x1 PUSH1 0xA0 SHL SUB SWAP1 SWAP2 AND DUP2 MSTORE PUSH1 0x20 ADD PUSH2 0x138 JUMP JUMPDEST CALLVALUE DUP1 ISZERO PUSH2 0x2C5 JUMPI PUSH1 0x0 DUP1 REVERT JUMPDEST POP PUSH2 0x305 PUSH2 0x2D4 CALLDATASIZE PUSH1 0x4 PUSH2 0x1216 JUMP JUMPDEST PUSH1 0x9 PUSH1 0x20 MSTORE PUSH1 0x0 SWAP1 DUP2 MSTORE PUSH1 0x40 SWAP1 KECCAK256 DUP1 SLOAD PUSH1 0x1 DUP3 ADD SLOAD PUSH1 0x2 DUP4 ADD SLOAD PUSH1 0x3 SWAP1 SWAP4 ADD SLOAD PUSH1 0x1 PUSH1 0x1 PUSH1 0xA0 SHL SUB SWAP1 SWAP3 AND SWAP3 SWAP1 SWAP2 DUP5 JUMP JUMPDEST PUSH1 0x40 DUP1 MLOAD PUSH1 0x1 PUSH1 0x1 PUSH1 0xA0 SHL SUB SWAP1 SWAP6 AND DUP6 MSTORE PUSH1 0x20 DUP6 ADD SWAP4 SWAP1 SWAP4 MSTORE SWAP2 DUP4 ADD MSTORE PUSH1 0x60 DUP3 ADD MSTORE PUSH1 0x80 ADD PUSH2 0x138 JUMP JUMPDEST PUSH2 0x184 PUSH2 0x33D CALLDATASIZE PUSH1 0x4 PUSH2 0x1216 JUMP JUMPDEST PUSH2 0xBA9 JUMP JUMPDEST CALLVALUE DUP1 ISZERO PUSH2 0x34E JUMPI PUSH1 0x0 DUP1 REVERT JUMPDEST POP PUSH2 0x12E PUSH1 0x5 SLOAD DUP2 JUMP JUMPDEST PUSH2 0x12E PUSH2 0x366 CALLDATASIZE PUSH1 0x4 PUSH2 0x1216 JUMP JUMPDEST PUSH2 0xD4C JUMP JUMPDEST CALLVALUE DUP1 ISZERO PUSH2 0x377 JUMPI PUSH1 0x0 DUP1 REVERT JUMPDEST POP PUSH2 0x3BD PUSH2 0x386 CALLDATASIZE PUSH1 0x4 PUSH2 0x1216 JUMP JUMPDEST PUSH1 0x8 PUSH1 0x20 MSTORE PUSH1 0x0 SWAP1 DUP2 MSTORE PUSH1 0x40 SWAP1 KECCAK256 DUP1 SLOAD PUSH1 0x1 DUP3 ADD SLOAD PUSH1 0x2 SWAP1 SWAP3 ADD SLOAD SWAP1 SWAP2 PUSH1 0x1 PUSH1 0x1 PUSH1 0xA0 SHL SUB DUP2 AND SWAP2 PUSH1 0x1 PUSH1 0xA0 SHL SWAP1 SWAP2 DIV PUSH1 0xFF AND SWAP1 DUP5 JUMP JUMPDEST PUSH1 0x40 DUP1 MLOAD SWAP5 DUP6 MSTORE PUSH1 0x1 PUSH1 0x1 PUSH1 0xA0 SHL SUB SWAP1 SWAP4 AND PUSH1 0x20 DUP6 ADD MSTORE SWAP1 ISZERO ISZERO SWAP2 DUP4 ADD SWAP2 SWAP1 SWAP2 MSTORE PUSH1 0x60 DUP3 ADD MSTORE PUSH1 0x80 ADD PUSH2 0x138 JUMP JUMPDEST CALLVALUE DUP1 ISZERO PUSH2 0x3F7 JUMPI PUSH1 0x0 DUP1 REVERT JUMPDEST POP PUSH2 0x12E PUSH1 0x1 SLOAD DUP2 JUMP JUMPDEST CALLVALUE DUP1 ISZERO PUSH2 0x40D JUMPI PUSH1 0x0 DUP1 REVERT JUMPDEST POP PUSH2 0x184 PUSH2 0x41C CALLDATASIZE PUSH1 0x4 PUSH2 0x11D9 JUMP JUMPDEST PUSH2 0xE56 JUMP JUMPDEST CALLVALUE DUP1 ISZERO PUSH2 0x42D JUMPI PUSH1 0x0 DUP1 REVERT JUMPDEST POP PUSH2 0x12E PUSH1 0x3 SLOAD DUP2 JUMP JUMPDEST PUSH1 0x0 PUSH1 0x1 PUSH1 0x5 PUSH1 0x0 DUP3 DUP3 SLOAD PUSH2 0x44C SWAP2 SWAP1 PUSH2 0x12AF JUMP JUMPDEST SWAP1 SWAP2 SSTORE POP POP PUSH1 0x5 SLOAD PUSH1 0x0 DUP2 DUP2 MSTORE PUSH1 0x7 PUSH1 0x20 MSTORE PUSH1 0x40 SWAP1 DUP2 SWAP1 KECCAK256 DUP1 SLOAD PUSH1 0x1 PUSH1 0x1 PUSH1 0xA0 SHL SUB DUP1 DUP11 AND PUSH1 0x1 PUSH1 0x1 PUSH1 0xA0 SHL SUB NOT SWAP3 DUP4 AND OR DUP4 SSTORE PUSH1 0x1 DUP4 ADD DUP12 SWAP1 SSTORE PUSH1 0x2 DUP4 ADD DUP1 SLOAD DUP11 DUP4 AND SWAP1 DUP5 AND DUP2 OR SWAP1 SWAP2 SSTORE PUSH1 0x3 DUP5 ADD DUP1 SLOAD SWAP3 DUP11 AND SWAP3 SWAP1 SWAP4 AND SWAP2 SWAP1 SWAP2 OR SWAP1 SWAP2 SSTORE PUSH1 0x4 DUP3 ADD DUP7 SWAP1 SSTORE SWAP2 MLOAD SWAP1 SWAP2 SWAP1 DUP10 SWAP1 DUP5 SWAP1 PUSH32 0x84D53118259DD61386D5F2D40EA401E6F35D831E04EC37F7D424660886BFB11D SWAP1 PUSH2 0x4EB SWAP1 DUP10 DUP2 MSTORE PUSH1 0x20 ADD SWAP1 JUMP JUMPDEST PUSH1 0x40 MLOAD DUP1 SWAP2 SUB SWAP1 LOG4 PUSH1 0x40 MLOAD PUSH4 0x23B872DD PUSH1 0xE0 SHL DUP2 MSTORE CALLER PUSH1 0x4 DUP3 ADD MSTORE ADDRESS PUSH1 0x24 DUP3 ADD MSTORE PUSH1 0x44 DUP2 ADD DUP6 SWAP1 MSTORE DUP8 SWAP1 PUSH1 0x1 PUSH1 0x1 PUSH1 0xA0 SHL SUB DUP3 AND SWAP1 PUSH4 0x23B872DD SWAP1 PUSH1 0x64 ADD PUSH1 0x20 PUSH1 0x40 MLOAD DUP1 DUP4 SUB DUP2 PUSH1 0x0 DUP8 DUP1 EXTCODESIZE ISZERO DUP1 ISZERO PUSH2 0x543 JUMPI PUSH1 0x0 DUP1 REVERT JUMPDEST POP GAS CALL ISZERO DUP1 ISZERO PUSH2 0x557 JUMPI RETURNDATASIZE PUSH1 0x0 DUP1 RETURNDATACOPY RETURNDATASIZE PUSH1 0x0 REVERT JUMPDEST POP POP POP POP PUSH1 0x40 MLOAD RETURNDATASIZE PUSH1 0x1F NOT PUSH1 0x1F DUP3 ADD AND DUP3 ADD DUP1 PUSH1 0x40 MSTORE POP DUP2 ADD SWAP1 PUSH2 0x57B SWAP2 SWAP1 PUSH2 0x11F4 JUMP JUMPDEST PUSH2 0x5BE JUMPI PUSH1 0x40 MLOAD PUSH3 0x461BCD PUSH1 0xE5 SHL DUP2 MSTORE PUSH1 0x20 PUSH1 0x4 DUP3 ADD MSTORE PUSH1 0xF PUSH1 0x24 DUP3 ADD MSTORE PUSH15 0x151C985B9CD9995C8819985A5B1959 PUSH1 0x8A SHL PUSH1 0x44 DUP3 ADD MSTORE PUSH1 0x64 ADD JUMPDEST PUSH1 0x40 MLOAD DUP1 SWAP2 SUB SWAP1 REVERT JUMPDEST POP SWAP1 SWAP8 SWAP7 POP POP POP POP POP POP POP JUMP JUMPDEST PUSH1 0x0 DUP2 PUSH1 0x6 SLOAD DUP2 GT ISZERO DUP1 ISZERO PUSH2 0x5E0 JUMPI POP PUSH1 0x0 DUP2 GT JUMPDEST PUSH2 0x5FC JUMPI PUSH1 0x40 MLOAD PUSH3 0x461BCD PUSH1 0xE5 SHL DUP2 MSTORE PUSH1 0x4 ADD PUSH2 0x5B5 SWAP1 PUSH2 0x1284 JUMP JUMPDEST PUSH1 0x0 DUP4 DUP2 MSTORE PUSH1 0x9 PUSH1 0x20 MSTORE PUSH1 0x40 SWAP1 KECCAK256 PUSH1 0x3 ADD SLOAD ISZERO PUSH2 0x652 JUMPI PUSH1 0x40 MLOAD PUSH3 0x461BCD PUSH1 0xE5 SHL DUP2 MSTORE PUSH1 0x20 PUSH1 0x4 DUP3 ADD MSTORE PUSH1 0x14 PUSH1 0x24 DUP3 ADD MSTORE PUSH20 0x10DB185A5B481DD85CC818DA185B1B195B99D959 PUSH1 0x62 SHL PUSH1 0x44 DUP3 ADD MSTORE PUSH1 0x64 ADD PUSH2 0x5B5 JUMP JUMPDEST POP POP PUSH1 0x0 SWAP1 DUP2 MSTORE PUSH1 0x8 PUSH1 0x20 MSTORE PUSH1 0x40 SWAP1 KECCAK256 PUSH1 0x2 ADD SLOAD TIMESTAMP LT ISZERO SWAP1 JUMP JUMPDEST DUP1 PUSH1 0x6 SLOAD DUP2 GT ISZERO DUP1 ISZERO PUSH2 0x67F JUMPI POP PUSH1 0x0 DUP2 GT JUMPDEST PUSH2 0x69B JUMPI PUSH1 0x40 MLOAD PUSH3 0x461BCD PUSH1 0xE5 SHL DUP2 MSTORE PUSH1 0x4 ADD PUSH2 0x5B5 SWAP1 PUSH2 0x1284 JUMP JUMPDEST PUSH1 0x0 DUP3 DUP2 MSTORE PUSH1 0x8 PUSH1 0x20 SWAP1 DUP2 MSTORE PUSH1 0x40 DUP1 DUP4 KECCAK256 PUSH1 0x9 SWAP1 SWAP3 MSTORE SWAP1 SWAP2 KECCAK256 DUP1 SLOAD PUSH1 0x1 PUSH1 0x1 PUSH1 0xA0 SHL SUB AND PUSH2 0x70B JUMPI PUSH1 0x40 MLOAD PUSH3 0x461BCD PUSH1 0xE5 SHL DUP2 MSTORE PUSH1 0x20 PUSH1 0x4 DUP3 ADD MSTORE PUSH1 0x18 PUSH1 0x24 DUP3 ADD MSTORE PUSH32 0x436C61696D206E6F7420796574206368616C6C656E6765640000000000000000 PUSH1 0x44 DUP3 ADD MSTORE PUSH1 0x64 ADD PUSH2 0x5B5 JUMP JUMPDEST PUSH1 0x1 DUP3 ADD SLOAD PUSH1 0x1 PUSH1 0x1 PUSH1 0xA0 SHL SUB AND CALLER EQ DUP1 PUSH2 0x72F JUMPI POP DUP1 SLOAD PUSH1 0x1 PUSH1 0x1 PUSH1 0xA0 SHL SUB AND CALLER EQ JUMPDEST PUSH2 0x789 JUMPI PUSH1 0x40 MLOAD PUSH3 0x461BCD PUSH1 0xE5 SHL DUP2 MSTORE PUSH1 0x20 PUSH1 0x4 DUP3 ADD MSTORE PUSH1 0x25 PUSH1 0x24 DUP3 ADD MSTORE PUSH32 0x416C7265616479206368616C6C656E67656420627920616E6F74686572206164 PUSH1 0x44 DUP3 ADD MSTORE PUSH5 0x6472657373 PUSH1 0xD8 SHL PUSH1 0x64 DUP3 ADD MSTORE PUSH1 0x84 ADD PUSH2 0x5B5 JUMP JUMPDEST DUP1 PUSH1 0x3 ADD SLOAD TIMESTAMP LT PUSH2 0x7DC JUMPI PUSH1 0x40 MLOAD PUSH3 0x461BCD PUSH1 0xE5 SHL DUP2 MSTORE PUSH1 0x20 PUSH1 0x4 DUP3 ADD MSTORE PUSH1 0x19 PUSH1 0x24 DUP3 ADD MSTORE PUSH32 0x4368616C6C656E676520706572696F642066696E697368656400000000000000 PUSH1 0x44 DUP3 ADD MSTORE PUSH1 0x64 ADD PUSH2 0x5B5 JUMP JUMPDEST PUSH1 0x1 DUP2 ADD SLOAD PUSH1 0x2 DUP3 ADD SLOAD GT PUSH1 0x0 DUP2 PUSH2 0x801 JUMPI PUSH1 0x1 DUP5 ADD SLOAD PUSH1 0x1 PUSH1 0x1 PUSH1 0xA0 SHL SUB AND PUSH2 0x80D JUMP JUMPDEST DUP3 SLOAD PUSH1 0x1 PUSH1 0x1 PUSH1 0xA0 SHL SUB AND JUMPDEST SWAP1 POP CALLER PUSH1 0x1 PUSH1 0x1 PUSH1 0xA0 SHL SUB DUP3 AND EQ PUSH2 0x860 JUMPI PUSH1 0x40 MLOAD PUSH3 0x461BCD PUSH1 0xE5 SHL DUP2 MSTORE PUSH1 0x20 PUSH1 0x4 DUP3 ADD MSTORE PUSH1 0x16 PUSH1 0x24 DUP3 ADD MSTORE PUSH22 0x139BDD08195B1A59DA589B19481D1BC81BDD5D189A59 PUSH1 0x52 SHL PUSH1 0x44 DUP3 ADD MSTORE PUSH1 0x64 ADD PUSH2 0x5B5 JUMP JUMPDEST PUSH1 0x0 DUP3 PUSH2 0x880 JUMPI DUP4 PUSH1 0x2 ADD SLOAD DUP5 PUSH1 0x1 ADD SLOAD PUSH2 0x87B SWAP2 SWAP1 PUSH2 0x12C7 JUMP JUMPDEST PUSH2 0x894 JUMP JUMPDEST DUP4 PUSH1 0x1 ADD SLOAD DUP5 PUSH1 0x2 ADD SLOAD PUSH2 0x894 SWAP2 SWAP1 PUSH2 0x12C7 JUMP JUMPDEST SWAP1 POP DUP1 CALLVALUE GT PUSH2 0x8E1 JUMPI PUSH1 0x40 MLOAD PUSH3 0x461BCD PUSH1 0xE5 SHL DUP2 MSTORE PUSH1 0x20 PUSH1 0x4 DUP3 ADD MSTORE PUSH1 0x19 PUSH1 0x24 DUP3 ADD MSTORE PUSH25 0x139BDD08195B9BDD59DA08199D5B991CC81C1C9BDD9A591959 PUSH1 0x3A SHL PUSH1 0x44 DUP3 ADD MSTORE PUSH1 0x64 ADD PUSH2 0x5B5 JUMP JUMPDEST PUSH1 0x1 DUP6 ADD SLOAD PUSH1 0x1 PUSH1 0x1 PUSH1 0xA0 SHL SUB AND CALLER EQ ISZERO PUSH2 0x915 JUMPI CALLVALUE DUP5 PUSH1 0x2 ADD PUSH1 0x0 DUP3 DUP3 SLOAD PUSH2 0x90A SWAP2 SWAP1 PUSH2 0x12AF JUMP JUMPDEST SWAP1 SWAP2 SSTORE POP PUSH2 0x92F SWAP1 POP JUMP JUMPDEST CALLVALUE DUP5 PUSH1 0x1 ADD PUSH1 0x0 DUP3 DUP3 SLOAD PUSH2 0x929 SWAP2 SWAP1 PUSH2 0x12AF JUMP JUMPDEST SWAP1 SWAP2 SSTORE POP POP JUMPDEST PUSH2 0x94A DUP5 PUSH1 0x3 ADD SLOAD PUSH1 0x4 SLOAD TIMESTAMP PUSH2 0x945 SWAP2 SWAP1 PUSH2 0x12AF JUMP JUMPDEST PUSH2 0xF21 JUMP JUMPDEST DUP5 PUSH1 0x3 ADD DUP2 SWAP1 SSTORE POP DUP7 PUSH32 0x4626E30DC12B4C7F8133ABB51A00DD8828CA7A90EF06E23DB76298BB6091016A CALLER PUSH2 0x987 DUP8 PUSH1 0x1 ADD SLOAD DUP9 PUSH1 0x2 ADD SLOAD PUSH2 0xF21 JUMP JUMPDEST PUSH1 0x40 DUP1 MLOAD PUSH1 0x1 PUSH1 0x1 PUSH1 0xA0 SHL SUB SWAP1 SWAP4 AND DUP4 MSTORE PUSH1 0x20 DUP4 ADD SWAP2 SWAP1 SWAP2 MSTORE ADD PUSH1 0x40 MLOAD DUP1 SWAP2 SUB SWAP1 LOG2 POP POP POP POP POP POP POP JUMP JUMPDEST DUP1 PUSH1 0x6 SLOAD DUP2 GT ISZERO DUP1 ISZERO PUSH2 0x9C5 JUMPI POP PUSH1 0x0 DUP2 GT JUMPDEST PUSH2 0x9E1 JUMPI PUSH1 0x40 MLOAD PUSH3 0x461BCD PUSH1 0xE5 SHL DUP2 MSTORE PUSH1 0x4 ADD PUSH2 0x5B5 SWAP1 PUSH2 0x1284 JUMP JUMPDEST PUSH1 0x0 DUP3 DUP2 MSTORE PUSH1 0x8 PUSH1 0x20 SWAP1 DUP2 MSTORE PUSH1 0x40 DUP1 DUP4 KECCAK256 DUP1 SLOAD DUP5 MSTORE PUSH1 0x7 SWAP1 SWAP3 MSTORE SWAP1 SWAP2 KECCAK256 PUSH1 0x1 DUP3 ADD SLOAD PUSH1 0x1 PUSH1 0xA0 SHL SWAP1 DIV PUSH1 0xFF AND ISZERO PUSH2 0xA4E JUMPI PUSH1 0x40 MLOAD PUSH3 0x461BCD PUSH1 0xE5 SHL DUP2 MSTORE PUSH1 0x20 PUSH1 0x4 DUP3 ADD MSTORE PUSH1 0x11 PUSH1 0x24 DUP3 ADD MSTORE PUSH17 0x20B63932B0B23C903BB4BA34323930BBB7 PUSH1 0x79 SHL PUSH1 0x44 DUP3 ADD MSTORE PUSH1 0x64 ADD PUSH2 0x5B5 JUMP JUMPDEST PUSH1 0x0 DUP5 DUP2 MSTORE PUSH1 0x9 PUSH1 0x20 MSTORE PUSH1 0x40 SWAP1 KECCAK256 PUSH1 0x3 ADD SLOAD ISZERO ISZERO DUP1 PUSH2 0xAC0 JUMPI DUP3 PUSH1 0x2 ADD SLOAD TIMESTAMP LT ISZERO PUSH2 0xABB JUMPI PUSH1 0x40 MLOAD PUSH3 0x461BCD PUSH1 0xE5 SHL DUP2 MSTORE PUSH1 0x20 PUSH1 0x4 DUP3 ADD MSTORE PUSH1 0x19 PUSH1 0x24 DUP3 ADD MSTORE PUSH32 0x436C61696D20706572696F64206E6F742066696E697368656400000000000000 PUSH1 0x44 DUP3 ADD MSTORE PUSH1 0x64 ADD PUSH2 0x5B5 JUMP JUMPDEST PUSH2 0xB21 JUMP JUMPDEST PUSH1 0x0 DUP6 DUP2 MSTORE PUSH1 0x9 PUSH1 0x20 MSTORE PUSH1 0x40 SWAP1 KECCAK256 PUSH1 0x3 ADD SLOAD TIMESTAMP LT ISZERO PUSH2 0xB21 JUMPI PUSH1 0x40 MLOAD PUSH3 0x461BCD PUSH1 0xE5 SHL DUP2 MSTORE PUSH1 0x20 PUSH1 0x4 DUP3 ADD MSTORE PUSH1 0x1D PUSH1 0x24 DUP3 ADD MSTORE PUSH32 0x4368616C6C656E676520706572696F64206E6F742066696E6973686564000000 PUSH1 0x44 DUP3 ADD MSTORE PUSH1 0x64 ADD PUSH2 0x5B5 JUMP JUMPDEST PUSH2 0xB2C DUP6 DUP4 DUP6 PUSH2 0xF3A JUMP JUMPDEST DUP1 ISZERO PUSH2 0xB3C JUMPI PUSH2 0xB3C DUP6 DUP5 PUSH2 0x106C JUMP JUMPDEST POP POP POP POP POP JUMP JUMPDEST PUSH1 0x0 SLOAD PUSH1 0x1 PUSH1 0x1 PUSH1 0xA0 SHL SUB AND CALLER EQ PUSH2 0xB9D JUMPI PUSH1 0x40 MLOAD PUSH3 0x461BCD PUSH1 0xE5 SHL DUP2 MSTORE PUSH1 0x20 PUSH1 0x4 DUP3 ADD DUP2 SWAP1 MSTORE PUSH1 0x24 DUP3 ADD MSTORE PUSH32 0x4F776E61626C653A2063616C6C6572206973206E6F7420746865206F776E6572 PUSH1 0x44 DUP3 ADD MSTORE PUSH1 0x64 ADD PUSH2 0x5B5 JUMP JUMPDEST PUSH2 0xBA7 PUSH1 0x0 PUSH2 0x116D JUMP JUMPDEST JUMP JUMPDEST DUP1 PUSH1 0x6 SLOAD DUP2 GT ISZERO DUP1 ISZERO PUSH2 0xBBC JUMPI POP PUSH1 0x0 DUP2 GT JUMPDEST PUSH2 0xBD8 JUMPI PUSH1 0x40 MLOAD PUSH3 0x461BCD PUSH1 0xE5 SHL DUP2 MSTORE PUSH1 0x4 ADD PUSH2 0x5B5 SWAP1 PUSH2 0x1284 JUMP JUMPDEST PUSH1 0x0 DUP3 DUP2 MSTORE PUSH1 0x9 PUSH1 0x20 MSTORE PUSH1 0x40 SWAP1 KECCAK256 DUP1 SLOAD PUSH1 0x1 PUSH1 0x1 PUSH1 0xA0 SHL SUB AND ISZERO PUSH2 0xC33 JUMPI PUSH1 0x40 MLOAD PUSH3 0x461BCD PUSH1 0xE5 SHL DUP2 MSTORE PUSH1 0x20 PUSH1 0x4 DUP3 ADD MSTORE PUSH1 0x12 PUSH1 0x24 DUP3 ADD MSTORE PUSH18 0x105B1C9958591E4818DA185B1B195B99D959 PUSH1 0x72 SHL PUSH1 0x44 DUP3 ADD MSTORE PUSH1 0x64 ADD PUSH2 0x5B5 JUMP JUMPDEST PUSH1 0x0 DUP4 DUP2 MSTORE PUSH1 0x8 PUSH1 0x20 MSTORE PUSH1 0x40 SWAP1 KECCAK256 PUSH1 0x2 ADD SLOAD TIMESTAMP LT PUSH2 0xC93 JUMPI PUSH1 0x40 MLOAD PUSH3 0x461BCD PUSH1 0xE5 SHL DUP2 MSTORE PUSH1 0x20 PUSH1 0x4 DUP3 ADD MSTORE PUSH1 0x1C PUSH1 0x24 DUP3 ADD MSTORE PUSH32 0x416C726561647920636C61696D6564207375636365737366756C6C7900000000 PUSH1 0x44 DUP3 ADD MSTORE PUSH1 0x64 ADD PUSH2 0x5B5 JUMP JUMPDEST PUSH1 0x1 SLOAD CALLVALUE GT PUSH2 0xCE0 JUMPI PUSH1 0x40 MLOAD PUSH3 0x461BCD PUSH1 0xE5 SHL DUP2 MSTORE PUSH1 0x20 PUSH1 0x4 DUP3 ADD MSTORE PUSH1 0x19 PUSH1 0x24 DUP3 ADD MSTORE PUSH25 0x139BDD08195B9BDD59DA08199D5B991CC81C1C9BDD9A591959 PUSH1 0x3A SHL PUSH1 0x44 DUP3 ADD MSTORE PUSH1 0x64 ADD PUSH2 0x5B5 JUMP JUMPDEST DUP1 SLOAD PUSH1 0x1 PUSH1 0x1 PUSH1 0xA0 SHL SUB NOT AND CALLER OR DUP2 SSTORE CALLVALUE PUSH1 0x1 DUP1 DUP4 ADD SWAP2 SWAP1 SWAP2 SSTORE SLOAD PUSH1 0x2 DUP3 ADD SSTORE PUSH1 0x3 SLOAD PUSH2 0xD0D SWAP1 TIMESTAMP PUSH2 0x12AF JUMP JUMPDEST PUSH1 0x3 DUP3 ADD SSTORE PUSH1 0x40 MLOAD CALLER DUP2 MSTORE DUP4 SWAP1 PUSH32 0x829B4D84D4743D197A9B0FAD05ABEF9F517535E06D50E0B85B1E77089B8AFA9D SWAP1 PUSH1 0x20 ADD PUSH1 0x40 MLOAD DUP1 SWAP2 SUB SWAP1 LOG2 POP POP POP JUMP JUMPDEST PUSH1 0x0 PUSH1 0x1 SLOAD CALLVALUE EQ PUSH2 0xD9F JUMPI PUSH1 0x40 MLOAD PUSH3 0x461BCD PUSH1 0xE5 SHL DUP2 MSTORE PUSH1 0x20 PUSH1 0x4 DUP3 ADD MSTORE PUSH1 0x1A PUSH1 0x24 DUP3 ADD MSTORE PUSH32 0x5374616B652070726F7669646564206E6F7420636F7272656374000000000000 PUSH1 0x44 DUP3 ADD MSTORE PUSH1 0x64 ADD PUSH2 0x5B5 JUMP JUMPDEST PUSH1 0x1 PUSH1 0x6 PUSH1 0x0 DUP3 DUP3 SLOAD PUSH2 0xDB2 SWAP2 SWAP1 PUSH2 0x12AF JUMP JUMPDEST SWAP1 SWAP2 SSTORE POP POP PUSH1 0x6 SLOAD PUSH1 0x0 DUP2 DUP2 MSTORE PUSH1 0x8 PUSH1 0x20 MSTORE PUSH1 0x40 SWAP1 KECCAK256 DUP4 DUP2 SSTORE PUSH1 0x1 DUP2 ADD DUP1 SLOAD PUSH1 0x1 PUSH1 0x1 PUSH1 0xA8 SHL SUB NOT AND CALLER PUSH1 0xFF PUSH1 0xA0 SHL NOT AND OR SWAP1 SSTORE PUSH1 0x2 SLOAD PUSH2 0xDF3 SWAP1 TIMESTAMP PUSH2 0x12AF JUMP JUMPDEST PUSH1 0x2 DUP3 ADD DUP2 SWAP1 SSTORE PUSH1 0x1 DUP3 ADD SLOAD PUSH1 0x40 DUP1 MLOAD DUP8 DUP2 MSTORE PUSH1 0x1 PUSH1 0x1 PUSH1 0xA0 SHL SUB SWAP1 SWAP3 AND PUSH1 0x20 DUP4 ADD MSTORE DUP2 ADD SWAP2 SWAP1 SWAP2 MSTORE DUP3 SWAP1 PUSH32 0xD970DABCC5F2873D6EB169E62FDF8A4691BE874148AB73513C8C939E44663099 SWAP1 PUSH1 0x60 ADD PUSH1 0x40 MLOAD DUP1 SWAP2 SUB SWAP1 LOG2 POP POP PUSH1 0x6 SLOAD SWAP3 SWAP2 POP POP JUMP JUMPDEST PUSH1 0x0 SLOAD PUSH1 0x1 PUSH1 0x1 PUSH1 0xA0 SHL SUB AND CALLER EQ PUSH2 0xEB0 JUMPI PUSH1 0x40 MLOAD PUSH3 0x461BCD PUSH1 0xE5 SHL DUP2 MSTORE PUSH1 0x20 PUSH1 0x4 DUP3 ADD DUP2 SWAP1 MSTORE PUSH1 0x24 DUP3 ADD MSTORE PUSH32 0x4F776E61626C653A2063616C6C6572206973206E6F7420746865206F776E6572 PUSH1 0x44 DUP3 ADD MSTORE PUSH1 0x64 ADD PUSH2 0x5B5 JUMP JUMPDEST PUSH1 0x1 PUSH1 0x1 PUSH1 0xA0 SHL SUB DUP2 AND PUSH2 0xF15 JUMPI PUSH1 0x40 MLOAD PUSH3 0x461BCD PUSH1 0xE5 SHL DUP2 MSTORE PUSH1 0x20 PUSH1 0x4 DUP3 ADD MSTORE PUSH1 0x26 PUSH1 0x24 DUP3 ADD MSTORE PUSH32 0x4F776E61626C653A206E6577206F776E657220697320746865207A65726F2061 PUSH1 0x44 DUP3 ADD MSTORE PUSH6 0x646472657373 PUSH1 0xD0 SHL PUSH1 0x64 DUP3 ADD MSTORE PUSH1 0x84 ADD PUSH2 0x5B5 JUMP JUMPDEST PUSH2 0xF1E DUP2 PUSH2 0x116D JUMP JUMPDEST POP JUMP JUMPDEST PUSH1 0x0 DUP2 DUP4 LT ISZERO PUSH2 0xF31 JUMPI DUP2 PUSH2 0xF33 JUMP JUMPDEST DUP3 JUMPDEST SWAP4 SWAP3 POP POP POP JUMP JUMPDEST PUSH1 0x1 DUP2 ADD DUP1 SLOAD PUSH1 0x1 PUSH1 0xA0 SHL PUSH1 0xFF PUSH1 0xA0 SHL NOT DUP3 AND OR SWAP1 SWAP2 SSTORE DUP2 SLOAD PUSH1 0x40 DUP1 MLOAD SWAP2 DUP3 MSTORE PUSH1 0x1 PUSH1 0x1 PUSH1 0xA0 SHL SUB SWAP1 SWAP3 AND PUSH1 0x20 DUP3 ADD MSTORE DUP5 SWAP2 PUSH32 0xC494C0D9B07FAE9D937A92117991D3017AD9408A7D344CAA86C184C47F7BD183 SWAP2 ADD PUSH1 0x40 MLOAD DUP1 SWAP2 SUB SWAP1 LOG2 DUP2 SLOAD PUSH1 0x1 DUP3 ADD SLOAD PUSH1 0x4 DUP1 DUP6 ADD SLOAD PUSH1 0x40 MLOAD PUSH4 0xA9059CBB PUSH1 0xE0 SHL DUP2 MSTORE PUSH1 0x1 PUSH1 0x1 PUSH1 0xA0 SHL SUB SWAP4 DUP5 AND SWAP3 DUP2 ADD SWAP3 SWAP1 SWAP3 MSTORE PUSH1 0x24 DUP3 ADD MSTORE SWAP2 AND SWAP1 DUP2 SWAP1 PUSH4 0xA9059CBB SWAP1 PUSH1 0x44 ADD PUSH1 0x20 PUSH1 0x40 MLOAD DUP1 DUP4 SUB DUP2 PUSH1 0x0 DUP8 DUP1 EXTCODESIZE ISZERO DUP1 ISZERO PUSH2 0xFF0 JUMPI PUSH1 0x0 DUP1 REVERT JUMPDEST POP GAS CALL ISZERO DUP1 ISZERO PUSH2 0x1004 JUMPI RETURNDATASIZE PUSH1 0x0 DUP1 RETURNDATACOPY RETURNDATASIZE PUSH1 0x0 REVERT JUMPDEST POP POP POP POP PUSH1 0x40 MLOAD RETURNDATASIZE PUSH1 0x1F NOT PUSH1 0x1F DUP3 ADD AND DUP3 ADD DUP1 PUSH1 0x40 MSTORE POP DUP2 ADD SWAP1 PUSH2 0x1028 SWAP2 SWAP1 PUSH2 0x11F4 JUMP JUMPDEST PUSH2 0x1066 JUMPI PUSH1 0x40 MLOAD PUSH3 0x461BCD PUSH1 0xE5 SHL DUP2 MSTORE PUSH1 0x20 PUSH1 0x4 DUP3 ADD MSTORE PUSH1 0xF PUSH1 0x24 DUP3 ADD MSTORE PUSH15 0x151C985B9CD9995C8819985A5B1959 PUSH1 0x8A SHL PUSH1 0x44 DUP3 ADD MSTORE PUSH1 0x64 ADD PUSH2 0x5B5 JUMP JUMPDEST POP POP POP POP JUMP JUMPDEST PUSH1 0x0 DUP3 DUP2 MSTORE PUSH1 0x9 PUSH1 0x20 MSTORE PUSH1 0x40 DUP2 KECCAK256 PUSH1 0x1 DUP2 ADD SLOAD PUSH1 0x2 DUP3 ADD SLOAD SWAP2 SWAP3 SWAP2 GT SWAP1 DUP2 PUSH2 0x10A1 JUMPI PUSH1 0x1 DUP5 ADD SLOAD PUSH1 0x1 PUSH1 0x1 PUSH1 0xA0 SHL SUB AND PUSH2 0x10AD JUMP JUMPDEST DUP3 SLOAD PUSH1 0x1 PUSH1 0x1 PUSH1 0xA0 SHL SUB AND JUMPDEST SWAP1 POP PUSH1 0x0 DUP4 PUSH1 0x1 ADD SLOAD DUP5 PUSH1 0x2 ADD SLOAD PUSH2 0x10C5 SWAP2 SWAP1 PUSH2 0x12AF JUMP JUMPDEST SWAP1 POP PUSH1 0x0 DUP1 DUP4 PUSH1 0x1 PUSH1 0x1 PUSH1 0xA0 SHL SUB AND DUP4 PUSH1 0x40 MLOAD PUSH1 0x0 PUSH1 0x40 MLOAD DUP1 DUP4 SUB DUP2 DUP6 DUP8 GAS CALL SWAP3 POP POP POP RETURNDATASIZE DUP1 PUSH1 0x0 DUP2 EQ PUSH2 0x1115 JUMPI PUSH1 0x40 MLOAD SWAP2 POP PUSH1 0x1F NOT PUSH1 0x3F RETURNDATASIZE ADD AND DUP3 ADD PUSH1 0x40 MSTORE RETURNDATASIZE DUP3 MSTORE RETURNDATASIZE PUSH1 0x0 PUSH1 0x20 DUP5 ADD RETURNDATACOPY PUSH2 0x111A JUMP JUMPDEST PUSH1 0x60 SWAP2 POP JUMPDEST POP SWAP2 POP SWAP2 POP DUP2 PUSH2 0x1163 JUMPI PUSH1 0x40 MLOAD PUSH3 0x461BCD PUSH1 0xE5 SHL DUP2 MSTORE PUSH1 0x20 PUSH1 0x4 DUP3 ADD MSTORE PUSH1 0x14 PUSH1 0x24 DUP3 ADD MSTORE PUSH20 0x2330B4B632B2103A379039B2B7321022BA3432B9 PUSH1 0x61 SHL PUSH1 0x44 DUP3 ADD MSTORE PUSH1 0x64 ADD PUSH2 0x5B5 JUMP JUMPDEST POP POP POP POP POP POP POP POP JUMP JUMPDEST PUSH1 0x0 DUP1 SLOAD PUSH1 0x1 PUSH1 0x1 PUSH1 0xA0 SHL SUB DUP4 DUP2 AND PUSH1 0x1 PUSH1 0x1 PUSH1 0xA0 SHL SUB NOT DUP4 AND DUP2 OR DUP5 SSTORE PUSH1 0x40 MLOAD SWAP2 SWAP1 SWAP3 AND SWAP3 DUP4 SWAP2 PUSH32 0x8BE0079C531659141344CD1FD0A4F28419497F9722A3DAAFE3B4186F6B6457E0 SWAP2 SWAP1 LOG3 POP POP JUMP JUMPDEST DUP1 CALLDATALOAD PUSH1 0x1 PUSH1 0x1 PUSH1 0xA0 SHL SUB DUP2 AND DUP2 EQ PUSH2 0x11D4 JUMPI PUSH1 0x0 DUP1 REVERT JUMPDEST SWAP2 SWAP1 POP JUMP JUMPDEST PUSH1 0x0 PUSH1 0x20 DUP3 DUP5 SUB SLT ISZERO PUSH2 0x11EB JUMPI PUSH1 0x0 DUP1 REVERT JUMPDEST PUSH2 0xF33 DUP3 PUSH2 0x11BD JUMP JUMPDEST PUSH1 0x0 PUSH1 0x20 DUP3 DUP5 SUB SLT ISZERO PUSH2 0x1206 JUMPI PUSH1 0x0 DUP1 REVERT JUMPDEST DUP2 MLOAD DUP1 ISZERO ISZERO DUP2 EQ PUSH2 0xF33 JUMPI PUSH1 0x0 DUP1 REVERT JUMPDEST PUSH1 0x0 PUSH1 0x20 DUP3 DUP5 SUB SLT ISZERO PUSH2 0x1228 JUMPI PUSH1 0x0 DUP1 REVERT JUMPDEST POP CALLDATALOAD SWAP2 SWAP1 POP JUMP JUMPDEST PUSH1 0x0 DUP1 PUSH1 0x0 DUP1 PUSH1 0x0 PUSH1 0xA0 DUP7 DUP9 SUB SLT ISZERO PUSH2 0x1247 JUMPI PUSH1 0x0 DUP1 REVERT JUMPDEST DUP6 CALLDATALOAD SWAP5 POP PUSH2 0x1257 PUSH1 0x20 DUP8 ADD PUSH2 0x11BD JUMP JUMPDEST SWAP4 POP PUSH2 0x1265 PUSH1 0x40 DUP8 ADD PUSH2 0x11BD JUMP JUMPDEST SWAP3 POP PUSH2 0x1273 PUSH1 0x60 DUP8 ADD PUSH2 0x11BD JUMP JUMPDEST SWAP5 SWAP8 SWAP4 SWAP7 POP SWAP2 SWAP5 PUSH1 0x80 ADD CALLDATALOAD SWAP3 SWAP2 POP POP JUMP JUMPDEST PUSH1 0x20 DUP1 DUP3 MSTORE PUSH1 0x11 SWAP1 DUP3 ADD MSTORE PUSH17 0x18DB185A5B5259081B9BDD081D985B1A59 PUSH1 0x7A SHL PUSH1 0x40 DUP3 ADD MSTORE PUSH1 0x60 ADD SWAP1 JUMP JUMPDEST PUSH1 0x0 DUP3 NOT DUP3 GT ISZERO PUSH2 0x12C2 JUMPI PUSH2 0x12C2 PUSH2 0x12DE JUMP JUMPDEST POP ADD SWAP1 JUMP JUMPDEST PUSH1 0x0 DUP3 DUP3 LT ISZERO PUSH2 0x12D9 JUMPI PUSH2 0x12D9 PUSH2 0x12DE JUMP JUMPDEST POP SUB SWAP1 JUMP JUMPDEST PUSH4 0x4E487B71 PUSH1 0xE0 SHL PUSH1 0x0 MSTORE PUSH1 0x11 PUSH1 0x4 MSTORE PUSH1 0x24 PUSH1 0x0 REVERT INVALID LOG2 PUSH5 0x6970667358 0x22 SLT KECCAK256 0x28 0xF8 0xCB 0xC2 0xD DUP1 0x2B DUP1 PUSH24 0x5E8CD3E5497DA6593C1FC445ED527474B3E1559864BBD64 PUSH20 0x6F6C634300080700330000000000000000000000 ",
  "sha1": "1681ddd49f7e779d248be688e1f0977c32b82fae",
  "source": "// SPDX-License-Identifier: MIT\npragma solidity ^0.8.7;\n\nimport \"OpenZeppelin/openzeppelin-contracts@4.3.2/contracts/token/ERC20/IERC20.sol\";\nimport \"OpenZeppelin/openzeppelin-contracts@4.3.2/contracts/access/Ownable.sol\";\nimport \"OpenZeppelin/openzeppelin-contracts@4.3.2/contracts/utils/math/SafeMath.sol\";\nimport \"OpenZeppelin/openzeppelin-contracts@4.3.2/contracts/utils/math/Math.sol\";\n\ncontract RequestManager is Ownable {\n    using SafeMath for uint256;\n    using Math for uint256;\n\n    // Structs\n    struct Request {\n        address sourceTokenAddress;\n        uint256 targetChainId;\n        address targetTokenAddress;\n        address targetAddress;\n        uint256 amount;\n    }\n\n    struct Claim {\n        uint256 requestId;\n        address claimer;\n        bool withdrawn;\n        uint256 termination;\n    }\n\n    struct Challenge {\n        address challenger;\n        uint256 challengerStake;\n        uint256 claimerStake;\n        uint256 termination;\n    }\n\n    // Events\n    event RequestCreated(\n        uint256 indexed requestId,\n        uint256 indexed targetChainId,\n        address indexed targetTokenAddress,\n        uint256 amount\n    );\n\n    event ClaimCreated(\n        uint256 indexed claimId,\n        uint256 requestId,\n        address claimer,\n        uint256 termination\n    );\n\n    event ClaimWithdrawn(\n        uint256 indexed claimId,\n        uint256 requestId,\n        address claimer\n    );\n\n    event ClaimChallenged(\n        uint256 indexed claimId,\n        address challenger\n    );\n\n    event ChallengeCountered(\n        uint256 indexed claimId,\n        address leader,\n        uint256 highestBid\n    );\n\n    // Constants\n    uint256 public claimStake;\n    uint256 public claimPeriod;\n    uint256 public challengePeriod;\n    uint256 public challengePeriodExtension;\n\n    // Variables\n    uint256 public requestCounter;\n    uint256 public claimCounter;\n    mapping (uint256 => Request) public requests;\n    mapping (uint256 => Claim) public claims;\n    mapping (uint256 => Challenge) public challenges;\n\n    // Modifiers\n    modifier validClaimId(uint256 claimId) {\n        require(claimId <= claimCounter && claimId > 0, \"claimId not valid\");\n        _;\n    }\n\n    constructor(\n        uint256 _claimStake,\n        uint256 _claimPeriod,\n        uint256 _challengePeriod,\n        uint256 _challengePeriodExtension\n    ) {\n        claimStake = _claimStake;\n        claimPeriod = _claimPeriod;\n        challengePeriod = _challengePeriod;\n        challengePeriodExtension = _challengePeriodExtension;\n    }\n\n    function request(\n        uint256 targetChainId,\n        address sourceTokenAddress,\n        address targetTokenAddress,\n        address targetAddress,\n        uint256 amount\n    )\n    external returns (uint256)\n    {\n        requestCounter += 1;\n        uint256 requestId = requestCounter;\n\n        Request storage newRequest = requests[requestId];\n        newRequest.sourceTokenAddress = sourceTokenAddress;\n        newRequest.targetChainId = targetChainId;\n        newRequest.targetTokenAddress = targetTokenAddress;\n        newRequest.targetAddress = targetAddress;\n        newRequest.amount = amount;\n\n        emit RequestCreated(\n            requestId,\n            targetChainId,\n            targetTokenAddress,\n            amount\n        );\n\n        IERC20 token = IERC20(sourceTokenAddress);\n        require(token.transferFrom(msg.sender, address(this), amount), \"Transfer failed\");\n\n        return requestId;\n    }\n\n    function claimRequest(uint256 requestId) external payable returns (uint256) {\n        require(msg.value == claimStake, \"Stake provided not correct\");\n\n        claimCounter += 1;\n        uint256 newClaimId = claimCounter;\n\n        Claim storage newClaim = claims[claimCounter];\n        newClaim.requestId = requestId;\n        newClaim.claimer = msg.sender;\n        newClaim.withdrawn = false;\n        newClaim.termination = block.timestamp + claimPeriod;\n\n        emit ClaimCreated(\n            newClaimId,\n            requestId,\n            newClaim.claimer,\n            newClaim.termination\n        );\n\n        return claimCounter;\n    }\n\n    function challengeClaim(uint256 claimId) external validClaimId(claimId) payable{\n        Challenge storage challenge = challenges[claimId];\n\n        require(challenge.challenger == address(0), \"Already challenged\");\n        require(block.timestamp < claims[claimId].termination, \"Already claimed successfully\");\n        require(msg.value > claimStake, \"Not enough funds provided\");\n\n        challenge.challenger = msg.sender;\n        challenge.challengerStake = msg.value;\n        challenge.claimerStake = claimStake;\n        challenge.termination = block.timestamp + challengePeriod;\n\n        emit ClaimChallenged(\n            claimId,\n            msg.sender\n        );\n    }\n\n    function counterChallenge(uint256 claimId) external validClaimId(claimId) payable {\n        Claim storage claim = claims[claimId];\n        Challenge storage challenge = challenges[claimId];\n        require(challenge.challenger != address(0), \"Claim not yet challenged\");\n        require(msg.sender == claim.claimer || msg.sender == challenge.challenger, \"Already challenged by another address\");\n        require(block.timestamp < challenge.termination, \"Challenge period finished\");\n\n        bool claimerStakeBigger = challenge.claimerStake > challenge.challengerStake;\n        address nextActor = claimerStakeBigger ? challenge.challenger : claim.claimer;\n        require(msg.sender == nextActor, \"Not eligible to outbid\");\n\n        uint256 minStake = claimerStakeBigger ? challenge.claimerStake - challenge.challengerStake : challenge.challengerStake - challenge.claimerStake;\n        require(msg.value > minStake, \"Not enough funds provided\");\n\n        if (msg.sender == claim.claimer) {\n            challenge.claimerStake += msg.value;\n        } else {\n            challenge.challengerStake += msg.value;\n        }\n\n        challenge.termination = Math.max(challenge.termination, block.timestamp + challengePeriodExtension);\n\n        emit ChallengeCountered(\n            claimId,\n            msg.sender,\n            Math.max(challenge.challengerStake, challenge.claimerStake)\n        );\n    }\n\n    function claimSuccessful(uint256 claimId) public view validClaimId(claimId) returns (bool) {\n        require(challenges[claimId].termination == 0 , \"Claim was challenged\");\n\n        return block.timestamp >= claims[claimId].termination;\n    }\n\n    function withdraw(uint256 claimId) external validClaimId(claimId) {\n        Claim storage claim = claims[claimId];\n        Request storage request = requests[claim.requestId];\n        require(!claim.withdrawn, \"Already withdrawn\");\n\n        bool claimChallenged = challenges[claimId].termination != 0;\n        if (!claimChallenged) {\n            require(block.timestamp >= claim.termination, \"Claim period not finished\");\n        } else {\n            require(block.timestamp >= challenges[claimId].termination, \"Challenge period not finished\");\n            // check if l1 resolved\n        }\n\n        withdraw_claim(claimId, request, claim);\n        // The claim is set the `withdrawn` state above, so the following effects\n        // needs to happen afterwards to avoid reentrency problems\n        if (claimChallenged) {\n            withdraw_challenge(claimId, claim);\n        }\n    }\n\n    function withdraw_claim(uint256 claimId, Request storage request, Claim storage claim) private {\n        claim.withdrawn = true;\n\n        emit ClaimWithdrawn(\n            claimId,\n            claim.requestId,\n            claim.claimer\n        );\n\n        IERC20 token = IERC20(request.sourceTokenAddress);\n        require(token.transfer(claim.claimer, request.amount), \"Transfer failed\");\n    }\n\n    function withdraw_challenge(uint256 claimId, Claim storage claim) private {\n        Challenge storage challenge = challenges[claimId];\n\n        bool claimerStakeBigger = challenge.claimerStake > challenge.challengerStake;\n        address challengeWinner = claimerStakeBigger ? challenge.challenger : claim.claimer;\n        uint256 challengeStake = challenge.claimerStake + challenge.challengerStake;\n\n        (bool sent, bytes memory data) = challengeWinner.call{value: challengeStake}(\"\");\n        require(sent, \"Failed to send Ether\");\n\n        // TODO: can we remove the challenge here?\n    }\n}\n",
  "sourcePath": "contracts/RequestManager.sol",
  "type": "contract"
}