{
  "abi": [
    {
      "inputs": [
        {
          "internalType": "uint256",
          "name": "_claimStake",
          "type": "uint256"
        },
        {
          "internalType": "uint256",
          "name": "_claimPeriod",
          "type": "uint256"
        },
        {
          "internalType": "uint256",
          "name": "_challengePeriodExtension",
          "type": "uint256"
        },
        {
          "internalType": "address",
          "name": "_resolutionRegistry",
          "type": "address"
        }
      ],
      "stateMutability": "nonpayable",
      "type": "constructor"
    },
    {
      "anonymous": false,
      "inputs": [
        {
          "indexed": true,
          "internalType": "uint256",
          "name": "requestId",
          "type": "uint256"
        },
        {
          "indexed": false,
          "internalType": "uint256",
          "name": "claimId",
          "type": "uint256"
        },
        {
          "indexed": false,
          "internalType": "address",
          "name": "claimer",
          "type": "address"
        },
        {
          "indexed": false,
          "internalType": "uint256",
          "name": "claimerStake",
          "type": "uint256"
        },
        {
          "indexed": false,
          "internalType": "address",
          "name": "lastChallenger",
          "type": "address"
        },
        {
          "indexed": false,
          "internalType": "uint256",
          "name": "challengerStakeTotal",
          "type": "uint256"
        },
        {
          "indexed": false,
          "internalType": "uint256",
          "name": "termination",
          "type": "uint256"
        },
        {
          "indexed": false,
          "internalType": "bytes32",
          "name": "fillId",
          "type": "bytes32"
        }
      ],
      "name": "ClaimMade",
      "type": "event"
    },
    {
      "anonymous": false,
      "inputs": [
        {
          "indexed": false,
          "internalType": "uint256",
          "name": "claimId",
          "type": "uint256"
        },
        {
          "indexed": true,
          "internalType": "uint256",
          "name": "requestId",
          "type": "uint256"
        },
        {
          "indexed": false,
          "internalType": "address",
          "name": "claimReceiver",
          "type": "address"
        }
      ],
      "name": "ClaimWithdrawn",
      "type": "event"
    },
    {
      "anonymous": false,
      "inputs": [
        {
          "indexed": false,
          "internalType": "uint256",
          "name": "requestId",
          "type": "uint256"
        },
        {
          "indexed": false,
          "internalType": "address",
          "name": "receiver",
          "type": "address"
        }
      ],
      "name": "DepositWithdrawn",
      "type": "event"
    },
    {
      "anonymous": false,
      "inputs": [
        {
          "indexed": true,
          "internalType": "address",
          "name": "previousOwner",
          "type": "address"
        },
        {
          "indexed": true,
          "internalType": "address",
          "name": "newOwner",
          "type": "address"
        }
      ],
      "name": "OwnershipTransferred",
      "type": "event"
    },
    {
      "anonymous": false,
      "inputs": [
        {
          "indexed": false,
          "internalType": "uint256",
          "name": "requestId",
          "type": "uint256"
        },
        {
          "indexed": false,
          "internalType": "uint256",
          "name": "targetChainId",
          "type": "uint256"
        },
        {
          "indexed": false,
          "internalType": "address",
          "name": "sourceTokenAddress",
          "type": "address"
        },
        {
          "indexed": false,
          "internalType": "address",
          "name": "targetTokenAddress",
          "type": "address"
        },
        {
          "indexed": false,
          "internalType": "address",
          "name": "targetAddress",
          "type": "address"
        },
        {
          "indexed": false,
          "internalType": "uint256",
          "name": "amount",
          "type": "uint256"
        },
        {
          "indexed": false,
          "internalType": "uint256",
          "name": "validUntil",
          "type": "uint256"
        }
      ],
      "name": "RequestCreated",
      "type": "event"
    },
    {
      "inputs": [],
      "name": "MAX_VALIDITY_PERIOD",
      "outputs": [
        {
          "internalType": "uint256",
          "name": "",
          "type": "uint256"
        }
      ],
      "stateMutability": "view",
      "type": "function"
    },
    {
      "inputs": [],
      "name": "MIN_VALIDITY_PERIOD",
      "outputs": [
        {
          "internalType": "uint256",
          "name": "",
          "type": "uint256"
        }
      ],
      "stateMutability": "view",
      "type": "function"
    },
    {
      "inputs": [
        {
          "internalType": "uint256",
          "name": "claimId",
          "type": "uint256"
        }
      ],
      "name": "challengeClaim",
      "outputs": [],
      "stateMutability": "payable",
      "type": "function"
    },
    {
      "inputs": [],
      "name": "challengePeriodExtension",
      "outputs": [
        {
          "internalType": "uint256",
          "name": "",
          "type": "uint256"
        }
      ],
      "stateMutability": "view",
      "type": "function"
    },
    {
      "inputs": [],
      "name": "claimCounter",
      "outputs": [
        {
          "internalType": "uint256",
          "name": "",
          "type": "uint256"
        }
      ],
      "stateMutability": "view",
      "type": "function"
    },
    {
      "inputs": [],
      "name": "claimPeriod",
      "outputs": [
        {
          "internalType": "uint256",
          "name": "",
          "type": "uint256"
        }
      ],
      "stateMutability": "view",
      "type": "function"
    },
    {
      "inputs": [
        {
          "internalType": "uint256",
          "name": "requestId",
          "type": "uint256"
        },
        {
          "internalType": "bytes32",
          "name": "fillId",
          "type": "bytes32"
        }
      ],
      "name": "claimRequest",
      "outputs": [
        {
          "internalType": "uint256",
          "name": "",
          "type": "uint256"
        }
      ],
      "stateMutability": "payable",
      "type": "function"
    },
    {
      "inputs": [],
      "name": "claimStake",
      "outputs": [
        {
          "internalType": "uint256",
          "name": "",
          "type": "uint256"
        }
      ],
      "stateMutability": "view",
      "type": "function"
    },
    {
      "inputs": [
        {
          "internalType": "uint256",
          "name": "",
          "type": "uint256"
        }
      ],
      "name": "claims",
      "outputs": [
        {
          "internalType": "uint256",
          "name": "requestId",
          "type": "uint256"
        },
        {
          "internalType": "address",
          "name": "claimer",
          "type": "address"
        },
        {
          "internalType": "uint256",
          "name": "claimerStake",
          "type": "uint256"
        },
        {
          "internalType": "address",
          "name": "lastChallenger",
          "type": "address"
        },
        {
          "internalType": "uint256",
          "name": "challengerStakeTotal",
          "type": "uint256"
        },
        {
          "internalType": "uint256",
          "name": "withdrawnAmount",
          "type": "uint256"
        },
        {
          "internalType": "uint256",
          "name": "termination",
          "type": "uint256"
        },
        {
          "internalType": "bytes32",
          "name": "fillId",
          "type": "bytes32"
        }
      ],
      "stateMutability": "view",
      "type": "function"
    },
    {
      "inputs": [
        {
          "internalType": "address",
          "name": "",
          "type": "address"
        }
      ],
      "name": "collectedProtocolFees",
      "outputs": [
        {
          "internalType": "uint256",
          "name": "",
          "type": "uint256"
        }
      ],
      "stateMutability": "view",
      "type": "function"
    },
    {
      "inputs": [
        {
          "internalType": "uint256",
          "name": "targetChainId",
          "type": "uint256"
        },
        {
          "internalType": "address",
          "name": "sourceTokenAddress",
          "type": "address"
        },
        {
          "internalType": "address",
          "name": "targetTokenAddress",
          "type": "address"
        },
        {
          "internalType": "address",
          "name": "targetAddress",
          "type": "address"
        },
        {
          "internalType": "uint256",
          "name": "amount",
          "type": "uint256"
        },
        {
          "internalType": "uint256",
          "name": "validityPeriod",
          "type": "uint256"
        }
      ],
      "name": "createRequest",
      "outputs": [
        {
          "internalType": "uint256",
          "name": "",
          "type": "uint256"
        }
      ],
      "stateMutability": "payable",
      "type": "function"
    },
    {
      "inputs": [
        {
          "internalType": "uint256",
          "name": "",
          "type": "uint256"
        }
      ],
      "name": "finalizationTimes",
      "outputs": [
        {
          "internalType": "uint256",
          "name": "",
          "type": "uint256"
        }
      ],
      "stateMutability": "view",
      "type": "function"
    },
    {
      "inputs": [
        {
          "internalType": "uint256",
          "name": "amount",
          "type": "uint256"
        }
      ],
      "name": "lpFee",
      "outputs": [
        {
          "internalType": "uint256",
          "name": "",
          "type": "uint256"
        }
      ],
      "stateMutability": "view",
      "type": "function"
    },
    {
      "inputs": [],
      "name": "lpFeePPM",
      "outputs": [
        {
          "internalType": "uint256",
          "name": "",
          "type": "uint256"
        }
      ],
      "stateMutability": "view",
      "type": "function"
    },
    {
      "inputs": [],
      "name": "minLpFee",
      "outputs": [
        {
          "internalType": "uint256",
          "name": "",
          "type": "uint256"
        }
      ],
      "stateMutability": "view",
      "type": "function"
    },
    {
      "inputs": [],
      "name": "owner",
      "outputs": [
        {
          "internalType": "address",
          "name": "",
          "type": "address"
        }
      ],
      "stateMutability": "view",
      "type": "function"
    },
    {
      "inputs": [
        {
          "internalType": "uint256",
          "name": "amount",
          "type": "uint256"
        }
      ],
      "name": "protocolFee",
      "outputs": [
        {
          "internalType": "uint256",
          "name": "",
          "type": "uint256"
        }
      ],
      "stateMutability": "view",
      "type": "function"
    },
    {
      "inputs": [],
      "name": "protocolFeePPM",
      "outputs": [
        {
          "internalType": "uint256",
          "name": "",
          "type": "uint256"
        }
      ],
      "stateMutability": "view",
      "type": "function"
    },
    {
      "inputs": [],
      "name": "renounceOwnership",
      "outputs": [],
      "stateMutability": "nonpayable",
      "type": "function"
    },
    {
      "inputs": [],
      "name": "requestCounter",
      "outputs": [
        {
          "internalType": "uint256",
          "name": "",
          "type": "uint256"
        }
      ],
      "stateMutability": "view",
      "type": "function"
    },
    {
      "inputs": [
        {
          "internalType": "uint256",
          "name": "",
          "type": "uint256"
        }
      ],
      "name": "requests",
      "outputs": [
        {
          "internalType": "address",
          "name": "sender",
          "type": "address"
        },
        {
          "internalType": "address",
          "name": "sourceTokenAddress",
          "type": "address"
        },
        {
          "internalType": "uint256",
          "name": "targetChainId",
          "type": "uint256"
        },
        {
          "internalType": "address",
          "name": "targetTokenAddress",
          "type": "address"
        },
        {
          "internalType": "address",
          "name": "targetAddress",
          "type": "address"
        },
        {
          "internalType": "uint256",
          "name": "amount",
          "type": "uint256"
        },
        {
          "internalType": "address",
          "name": "depositReceiver",
          "type": "address"
        },
        {
          "internalType": "uint192",
          "name": "activeClaims",
          "type": "uint192"
        },
        {
          "internalType": "uint256",
          "name": "validUntil",
          "type": "uint256"
        },
        {
          "internalType": "uint256",
          "name": "lpFee",
          "type": "uint256"
        },
        {
          "internalType": "uint256",
          "name": "protocolFee",
          "type": "uint256"
        }
      ],
      "stateMutability": "view",
      "type": "function"
    },
    {
      "inputs": [],
      "name": "resolutionRegistry",
      "outputs": [
        {
          "internalType": "contract ResolutionRegistry",
          "name": "",
          "type": "address"
        }
      ],
      "stateMutability": "view",
      "type": "function"
    },
    {
      "inputs": [
        {
          "internalType": "uint256",
          "name": "targetChainId",
          "type": "uint256"
        },
        {
          "internalType": "uint256",
          "name": "finalizationTime",
          "type": "uint256"
        }
      ],
      "name": "setFinalizationTime",
      "outputs": [],
      "stateMutability": "nonpayable",
      "type": "function"
    },
    {
      "inputs": [
        {
          "internalType": "uint256",
          "name": "amount",
          "type": "uint256"
        }
      ],
      "name": "totalFee",
      "outputs": [
        {
          "internalType": "uint256",
          "name": "",
          "type": "uint256"
        }
      ],
      "stateMutability": "view",
      "type": "function"
    },
    {
      "inputs": [
        {
          "internalType": "address",
          "name": "newOwner",
          "type": "address"
        }
      ],
      "name": "transferOwnership",
      "outputs": [],
      "stateMutability": "nonpayable",
      "type": "function"
    },
    {
      "inputs": [
        {
          "internalType": "uint256",
          "name": "newProtocolFeePPM",
          "type": "uint256"
        },
        {
          "internalType": "uint256",
          "name": "newLpFeePPM",
          "type": "uint256"
        },
        {
          "internalType": "uint256",
          "name": "newMinLpFee",
          "type": "uint256"
        }
      ],
      "name": "updateFeeData",
      "outputs": [],
      "stateMutability": "nonpayable",
      "type": "function"
    },
    {
      "inputs": [
        {
          "internalType": "uint256",
          "name": "claimId",
          "type": "uint256"
        }
      ],
      "name": "withdraw",
      "outputs": [
        {
          "internalType": "address",
          "name": "",
          "type": "address"
        }
      ],
      "stateMutability": "nonpayable",
      "type": "function"
    },
    {
      "inputs": [
        {
          "internalType": "uint256",
          "name": "requestId",
          "type": "uint256"
        }
      ],
      "name": "withdrawExpiredRequest",
      "outputs": [],
      "stateMutability": "nonpayable",
      "type": "function"
    },
    {
      "inputs": [
        {
          "internalType": "address",
          "name": "tokenAddress",
          "type": "address"
        },
        {
          "internalType": "address",
          "name": "recipient",
          "type": "address"
        }
      ],
      "name": "withdrawProtocolFees",
      "outputs": [],
      "stateMutability": "nonpayable",
      "type": "function"
    }
  ],
  "bytecode": "6080604052674563918244f40000600a556103e8600b556000600c553480156200002857600080fd5b5060405162002480380380620024808339810160408190526200004b91620000da565b62000056336200008a565b600193909355600291909155600355600680546001600160a01b0319166001600160a01b039092169190911790556200012b565b600080546001600160a01b038381166001600160a01b0319831681178455604051919092169283917f8be0079c531659141344cd1fd0a4f28419497f9722a3daafe3b4186f6b6457e09190a35050565b60008060008060808587031215620000f157600080fd5b845160208601516040870151606088015192965090945092506001600160a01b03811681146200012057600080fd5b939692955090935050565b612345806200013b6000396000f3fe6080604052600436106101c25760003560e01c806396171d05116100f7578063cea74edf11610095578063e7aad5c411610064578063e7aad5c41461061e578063eb32117314610634578063f2fde38b1461064a578063f7d64cec1461066a57600080fd5b8063cea74edf146105a8578063cf7b287f146105c8578063d3868348146105e8578063e2653eeb1461060857600080fd5b8063a888c2cd116100d1578063a888c2cd146104a5578063ab9634ee14610555578063b1743c5b14610575578063b5ef82941461058857600080fd5b806396171d0514610457578063973a814e1461046f578063a032b5f41461048557600080fd5b80636bc6c8d1116101645780637dc2cd981161013e5780637dc2cd981461030e57806381d12c58146103245780638da5cb5b1461042657806392c824d81461044457600080fd5b80636bc6c8d1146102aa578063715018a6146102d757806378da194b146102ee57600080fd5b80632e1a7d4d116101a05780632e1a7d4d146102335780632f4212b81461026b5780634efa8f171461027e5780635d5aa11b1461029457600080fd5b80631489f8d2146101c75780631d18adc5146101f057806323f0e7b914610206575b600080fd5b3480156101d357600080fd5b506101dd61012c81565b6040519081526020015b60405180910390f35b3480156101fc57600080fd5b506101dd60035481565b34801561021257600080fd5b506101dd610221366004611fb8565b60076020526000908152604090205481565b34801561023f57600080fd5b5061025361024e366004611fb8565b61068a565b6040516001600160a01b0390911681526020016101e7565b6101dd610279366004611fe6565b610942565b34801561028a57600080fd5b506101dd60055481565b3480156102a057600080fd5b506101dd600a5481565b3480156102b657600080fd5b506101dd6102c536600461204b565b600d6020526000908152604090205481565b3480156102e357600080fd5b506102ec610c71565b005b3480156102fa57600080fd5b506102ec610309366004612068565b610ca7565b34801561031a57600080fd5b506101dd60025481565b34801561033057600080fd5b506103b361033f366004611fb8565b600860208190526000918252604090912080546001820154600283015460038401546004850154600586015460068701546007880154988801546009890154600a909901546001600160a01b039889169a97891699969895861697948616969395909216936001600160c01b03169290918b565b604080516001600160a01b039c8d1681529a8c1660208c01528a01989098529589166060890152938816608088015260a087019290925290951660c08501526001600160c01b0390941660e0840152610100830193909352610120820192909252610140810191909152610160016101e7565b34801561043257600080fd5b506000546001600160a01b0316610253565b6102ec610452366004611fb8565b610cdf565b34801561046357600080fd5b506101dd6301dfe20081565b34801561047b57600080fd5b506101dd60045481565b34801561049157600080fd5b506101dd6104a0366004611fb8565b6110d7565b3480156104b157600080fd5b5061050f6104c0366004611fb8565b6009602052600090815260409020805460018201546002830154600484015460058501546006860154600787015460089097015495966001600160a01b03958616969495909316939192909188565b604080519889526001600160a01b0397881660208a0152880195909552949092166060860152608085015260a084015260c083019190915260e0820152610100016101e7565b34801561056157600080fd5b50600654610253906001600160a01b031681565b6101dd610583366004612094565b6110fb565b34801561059457600080fd5b506102ec6105a3366004612094565b611381565b3480156105b457600080fd5b506101dd6105c3366004611fb8565b61141e565b3480156105d457600080fd5b506102ec6105e33660046120b6565b61143c565b3480156105f457600080fd5b506102ec610603366004611fb8565b6114ef565b34801561061457600080fd5b506101dd600b5481565b34801561062a57600080fd5b506101dd600c5481565b34801561064057600080fd5b506101dd60015481565b34801561065657600080fd5b506102ec61066536600461204b565b6116f9565b34801561067657600080fd5b506101dd610685366004611fb8565b611794565b600081600554811115801561069f5750600081115b6106e45760405162461bcd60e51b815260206004820152601160248201527018db185a5b5259081b9bdd081d985b1a59607a1b60448201526064015b60405180910390fd5b6000838152600960209081526040808320805484526008909252822090918061070c876117b8565b6001600160a01b038216600090815260038701602052604090205491935091501561074d576001600160a01b03821660009081526003850160205260408120555b836006015460000361079f576007830180546001919060009061077a9084906001600160c01b0316612105565b92506101000a8154816001600160c01b0302191690836001600160c01b031602179055505b808460060160008282546107b3919061212d565b9091555050600584015460028501546107cc919061212d565b8460060154111561081f5760405162461bcd60e51b815260206004820152601c60248201527f416d6f756e7420746f20776974686472617720746f6f206c617267650000000060448201526064016106db565b6000826001600160a01b03168260405160006040518083038185875af1925050503d806000811461086c576040519150601f19603f3d011682016040523d82523d6000602084013e610871565b606091505b50509050806108b95760405162461bcd60e51b81526020600482015260146024820152732330b4b632b2103a379039b2b7321022ba3432b960611b60448201526064016106db565b8454604080518a81526001600160a01b03861660208201527fc494c0d9b07fae9d937a92117991d3017ad9408a7d344caa86c184c47f7bd183910160405180910390a260068401546001600160a01b0316158015610926575060018501546001600160a01b038481169116145b1561093657610936848685611b90565b50909695505050505050565b600086815260076020526040812054810361099f5760405162461bcd60e51b815260206004820152601b60248201527f54617267657420726f6c6c7570206e6f7420737570706f72746564000000000060448201526064016106db565b61012c8210156109f15760405162461bcd60e51b815260206004820152601960248201527f56616c696469747920706572696f6420746f6f2073686f72740000000000000060448201526064016106db565b6301dfe200821115610a455760405162461bcd60e51b815260206004820152601860248201527f56616c696469747920706572696f6420746f6f206c6f6e67000000000000000060448201526064016106db565b856000610a5185611794565b90506000610a5e866110d7565b9050600081610a6d848961212d565b610a77919061212d565b604051636eb1769f60e11b815233600482015230602482015290915081906001600160a01b0386169063dd62ed3e90604401602060405180830381865afa158015610ac6573d6000803e3d6000fd5b505050506040513d601f19601f82011682018060405250810190610aea9190612145565b1015610b315760405162461bcd60e51b8152602060048201526016602482015275496e73756666696369656e7420616c6c6f77616e636560501b60448201526064016106db565b600160046000828254610b44919061212d565b90915550506004805460009081526008602052604090208054336001600160a01b031991821617825560018201805482166001600160a01b038f811691909117909155600283018f905560038301805483168e831617905592820180548216938c169390931790925560058101899055600681018054909216909155610bca874261212d565b6008820181905560098201859055600a820184905560045460408051918252602082018f90526001600160a01b038e8116838301528d811660608401528c16608083015260a082018b905260c082019290925290517f18a412d0656b9a5c9263a134f66a34da33cad7c3690971601f9963ade588e7019181900360e00190a1610c5e6001600160a01b038616333085611c5c565b50506004549a9950505050505050505050565b6000546001600160a01b03163314610c9b5760405162461bcd60e51b81526004016106db9061215e565b610ca56000611cc7565b565b6000546001600160a01b03163314610cd15760405162461bcd60e51b81526004016106db9061215e565b600c92909255600b55600a55565b806005548111158015610cf25750600081115b610d325760405162461bcd60e51b815260206004820152601160248201527018db185a5b5259081b9bdd081d985b1a59607a1b60448201526064016106db565b600082815260096020908152604080832080548452600890925290912060078201544210610d925760405162461bcd60e51b815260206004820152600d60248201526c10db185a5b48195e1c1a5c9959609a1b60448201526064016106db565b600354600283015460058401546000928392909180821115610e545780600003610dd7576002860154600090815260076020526040902054610dd4908461212d565b92505b6001870154336001600160a01b0390911603610e355760405162461bcd60e51b815260206004820152601a60248201527f43616e6e6f74206368616c6c656e6765206f776e20636c61696d00000000000060448201526064016106db565b339450610e428183612193565b610e4d90600161212d565b9350610e80565b60018088015490546001600160a01b039091169550610e738383612193565b610e7d919061212d565b93505b336001600160a01b03861614610ed15760405162461bcd60e51b8152602060048201526016602482015275139bdd08195b1a59da589b19481d1bc81bdd5d189a5960521b60448201526064016106db565b83341015610f215760405162461bcd60e51b815260206004820152601960248201527f4e6f7420656e6f756768207374616b652070726f76696465640000000000000060448201526064016106db565b60018701546001600160a01b0390811690861603610f585734876002016000828254610f4d919061212d565b90915550610fb09050565b6004870180546001600160a01b03191633908117909155600090815260038801602052604081208054349290610f8f90849061212d565b9250508190555034876005016000828254610faa919061212d565b90915550505b6007870154610fc890610fc3854261212d565b611d17565b6007880155600354600090610fdd904261212d565b905080886007015410156110455760405162461bcd60e51b815260206004820152602960248201527f436c61696d207465726d696e6174696f6e20646964206e6f7420696e637265616044820152680e6ca40cadcdeeaced60bb1b60648201526084016106db565b87600001547f29fd2df293ba511e44ca47212c915137020231ed3ac0ee7bd02a7a655275ad378b8a60010160009054906101000a90046001600160a01b03168b600201548c60040160009054906101000a90046001600160a01b03168d600501548e600701548f600801546040516110c397969594939291906121aa565b60405180910390a250505050505050505050565b6000620f4240600c54836110eb91906121e9565b6110f59190612208565b92915050565b60008260045481111580156111105750600081115b6111525760405162461bcd60e51b81526020600482015260136024820152721c995c5d595cdd1259081b9bdd081d985b1a59606a1b60448201526064016106db565b60008481526008602081905260409091209081015442106111a75760405162461bcd60e51b815260206004820152600f60248201526e14995c5d595cdd08195e1c1a5c9959608a1b60448201526064016106db565b60068101546001600160a01b0316156111fe5760405162461bcd60e51b81526020600482015260196024820152782232b837b9b4ba1030b63932b0b23c903bb4ba34323930bbb760391b60448201526064016106db565b60015434146112465760405162461bcd60e51b8152602060048201526014602482015273125b9d985b1a59081cdd185ad948185b5bdd5b9d60621b60448201526064016106db565b600781018054600191906000906112679084906001600160c01b031661222a565b92506101000a8154816001600160c01b0302191690836001600160c01b0316021790555060016005600082825461129e919061212d565b9091555050600580546000908152600960205260408120878155600180820180546001600160a01b03199081163317909155905460028084019190915560048301805490921690915592810182905560068101919091559054611301904261212d565b600782018190556008820186905560058054600184015460028501546004860154938601546040518c967f29fd2df293ba511e44ca47212c915137020231ed3ac0ee7bd02a7a655275ad379661136c96956001600160a01b0390811695949116929091908e906121aa565b60405180910390a25050600554949350505050565b6000546001600160a01b031633146113ab5760405162461bcd60e51b81526004016106db9061215e565b6000811161140c5760405162461bcd60e51b815260206004820152602860248201527f46696e616c697a6174696f6e2074696d65206d75737420626520677265617465604482015267072207468616e20360c41b60648201526084016106db565b60009182526007602052604090912055565b6000611429826110d7565b61143283611794565b6110f5919061212d565b6000546001600160a01b031633146114665760405162461bcd60e51b81526004016106db9061215e565b6001600160a01b0382166000908152600d6020526040902054806114c35760405162461bcd60e51b815260206004820152601460248201527350726f746f636f6c20666565206973207a65726f60601b60448201526064016106db565b6001600160a01b0383166000818152600d602052604081205583906114e9908484611d30565b50505050565b8060045481111580156115025750600081115b6115445760405162461bcd60e51b81526020600482015260136024820152721c995c5d595cdd1259081b9bdd081d985b1a59606a1b60448201526064016106db565b600082815260086020526040902060068101546001600160a01b0316156115a95760405162461bcd60e51b81526020600482015260196024820152782232b837b9b4ba1030b63932b0b23c903bb4ba34323930bbb760391b60448201526064016106db565b80600801544210156115fd5760405162461bcd60e51b815260206004820152601760248201527f52657175657374206e6f7420657870697265642079657400000000000000000060448201526064016106db565b60078101546001600160c01b0316156116505760405162461bcd60e51b815260206004820152601560248201527441637469766520636c61696d732072756e6e696e6760581b60448201526064016106db565b80546006820180546001600160a01b0319166001600160a01b0390921691821790556040805185815260208101929092527fa7b86597910aae75f7d99feb2f37420cc80d457465ffba0f8136d722a9f7095a910160405180910390a160018101548154600a830154600984015460058501546001600160a01b03948516946114e9941692916116de9161212d565b6116e8919061212d565b6001600160a01b0384169190611d30565b6000546001600160a01b031633146117235760405162461bcd60e51b81526004016106db9061215e565b6001600160a01b0381166117885760405162461bcd60e51b815260206004820152602660248201527f4f776e61626c653a206e6577206f776e657220697320746865207a65726f206160448201526564647265737360d01b60648201526084016106db565b61179181611cc7565b50565b60006110f5600a54620f4240600b54856117ae91906121e9565b610fc39190612208565b600081815260096020908152604080832080548452600890925282206002820154600583015484939291906117ed818361212d565b84600601541061183f5760405162461bcd60e51b815260206004820152601760248201527f436c61696d20616c72656164792077697468647261776e00000000000000000060448201526064016106db565b8354600284015460038501546004860154600587015460088901546040805160208082019890985246818301526060808201979097526bffffffffffffffffffffffff1995871b861660808201529390951b909316609483015260a8808301919091528351808303909101815260c88201845280519085012060e88201526101088082019290925282518082039092018252610128019091528051910120600090600685810154905460405163a64a227160e01b8152600481018490529293506000926001600160a01b03928316928492169063a64a227190602401602060405180830381865afa158015611938573d6000803e3d6000fd5b505050506040513d601f19601f8201168201806040525081019061195c9190612255565b90506001600160a01b03811661196f5750805b60065460405163a751732f60e01b8152600481018690526001600160a01b039091169063a751732f90602401602060405180830381865afa1580156119b8573d6000803e3d6000fd5b505050506040513d601f19601f820116820180604052508101906119dc9190612272565b156119ea5760009250611a6d565b6001600160a01b03811615611a135760018801546001600160a01b038281169116149250611a6d565b8760070154421015611a675760405162461bcd60e51b815260206004820152601960248201527f436c61696d20706572696f64206e6f742066696e69736865640000000000000060448201526064016106db565b84861192505b6000808415611a9857611a80878961212d565b60018b01549092506001600160a01b03169050611b31565b8615611b205733600090815260038b016020526040902054611abb9060026121e9565b915033905060008211611b1b5760405162461bcd60e51b815260206004820152602260248201527f4368616c6c656e67657220686173206e6f7468696e6720746f20776974686472604482015261617760f01b60648201526084016106db565b611b31565b505060005486906001600160a01b03165b60048a01546001600160a01b03163303611b7f5786881115611b6857611b578789612193565b611b61908361212d565b9150611b7f565b611b728888612193565b611b7c9083612193565b91505b9c909b509950505050505050505050565b8154604080519182526001600160a01b03831660208301527fa7b86597910aae75f7d99feb2f37420cc80d457465ffba0f8136d722a9f7095a910160405180910390a1600a83015460018401546001600160a01b03166000908152600d602052604081208054909190611c0490849061212d565b90915550506001830154600984015460058501546001600160a01b0390921691611c349184916116e8919061212d565b5060069290920180546001600160a01b0319166001600160a01b039093169290921790915550565b6040516001600160a01b03808516602483015283166044820152606481018290526114e99085906323b872dd60e01b906084015b60408051601f198184030181529190526020810180516001600160e01b03166001600160e01b031990931692909217909152611d65565b600080546001600160a01b038381166001600160a01b0319831681178455604051919092169283917f8be0079c531659141344cd1fd0a4f28419497f9722a3daafe3b4186f6b6457e09190a35050565b600081831015611d275781611d29565b825b9392505050565b6040516001600160a01b038316602482015260448101829052611d6090849063a9059cbb60e01b90606401611c90565b505050565b6000611dba826040518060400160405280602081526020017f5361666545524332303a206c6f772d6c6576656c2063616c6c206661696c6564815250856001600160a01b0316611e379092919063ffffffff16565b805190915015611d605780806020019051810190611dd89190612272565b611d605760405162461bcd60e51b815260206004820152602a60248201527f5361666545524332303a204552433230206f7065726174696f6e20646964206e6044820152691bdd081cdd58d8d9595960b21b60648201526084016106db565b6060611e468484600085611e4e565b949350505050565b606082471015611eaf5760405162461bcd60e51b815260206004820152602660248201527f416464726573733a20696e73756666696369656e742062616c616e636520666f6044820152651c8818d85b1b60d21b60648201526084016106db565b6001600160a01b0385163b611f065760405162461bcd60e51b815260206004820152601d60248201527f416464726573733a2063616c6c20746f206e6f6e2d636f6e747261637400000060448201526064016106db565b600080866001600160a01b03168587604051611f2291906122c0565b60006040518083038185875af1925050503d8060008114611f5f576040519150601f19603f3d011682016040523d82523d6000602084013e611f64565b606091505b5091509150611f74828286611f7f565b979650505050505050565b60608315611f8e575081611d29565b825115611f9e5782518084602001fd5b8160405162461bcd60e51b81526004016106db91906122dc565b600060208284031215611fca57600080fd5b5035919050565b6001600160a01b038116811461179157600080fd5b60008060008060008060c08789031215611fff57600080fd5b86359550602087013561201181611fd1565b9450604087013561202181611fd1565b9350606087013561203181611fd1565b9598949750929560808101359460a0909101359350915050565b60006020828403121561205d57600080fd5b8135611d2981611fd1565b60008060006060848603121561207d57600080fd5b505081359360208301359350604090920135919050565b600080604083850312156120a757600080fd5b50508035926020909101359150565b600080604083850312156120c957600080fd5b82356120d481611fd1565b915060208301356120e481611fd1565b809150509250929050565b634e487b7160e01b600052601160045260246000fd5b60006001600160c01b0383811690831681811015612125576121256120ef565b039392505050565b60008219821115612140576121406120ef565b500190565b60006020828403121561215757600080fd5b5051919050565b6020808252818101527f4f776e61626c653a2063616c6c6572206973206e6f7420746865206f776e6572604082015260600190565b6000828210156121a5576121a56120ef565b500390565b9687526001600160a01b0395861660208801526040870194909452919093166060850152608084019290925260a083019190915260c082015260e00190565b6000816000190483118215151615612203576122036120ef565b500290565b60008261222557634e487b7160e01b600052601260045260246000fd5b500490565b60006001600160c01b0382811684821680830382111561224c5761224c6120ef565b01949350505050565b60006020828403121561226757600080fd5b8151611d2981611fd1565b60006020828403121561228457600080fd5b81518015158114611d2957600080fd5b60005b838110156122af578181015183820152602001612297565b838111156114e95750506000910152565b600082516122d2818460208701612294565b9190910192915050565b60208152600082518060208401526122fb816040850160208701612294565b601f01601f1916919091016040019291505056fea2646970667358221220ced4ee18eb5c3c74440897b6013e5a5856a0b20bc78ff8f3c6705a99a61ebd0a64736f6c634300080e0033",
  "bytecodeSha1": "4d765a961e20ab7bc76839b45e7fa192cb614656",
  "compiler": {
    "evm_version": "istanbul",
    "optimizer": {
      "enabled": true,
      "runs": 200
    },
    "version": "0.8.14+commit.80d49f37"
  },
  "contractName": "RequestManager",
  "language": "Solidity",
  "natspec": {
    "kind": "dev",
    "methods": {
      "owner()": {
        "details": "Returns the address of the current owner."
      },
      "renounceOwnership()": {
        "details": "Leaves the contract without owner. It will not be possible to call `onlyOwner` functions anymore. Can only be called by the current owner. NOTE: Renouncing ownership will leave the contract without an owner, thereby removing any functionality that is only available to the owner."
      },
      "transferOwnership(address)": {
        "details": "Transfers ownership of the contract to a new account (`newOwner`). Can only be called by the current owner."
      }
    },
    "version": 1
  },
  "opcodes": "PUSH1 0x80 PUSH1 0x40 MSTORE PUSH1 0x4 CALLDATASIZE LT PUSH2 0x1C2 JUMPI PUSH1 0x0 CALLDATALOAD PUSH1 0xE0 SHR DUP1 PUSH4 0x96171D05 GT PUSH2 0xF7 JUMPI DUP1 PUSH4 0xCEA74EDF GT PUSH2 0x95 JUMPI DUP1 PUSH4 0xE7AAD5C4 GT PUSH2 0x64 JUMPI DUP1 PUSH4 0xE7AAD5C4 EQ PUSH2 0x61E JUMPI DUP1 PUSH4 0xEB321173 EQ PUSH2 0x634 JUMPI DUP1 PUSH4 0xF2FDE38B EQ PUSH2 0x64A JUMPI DUP1 PUSH4 0xF7D64CEC EQ PUSH2 0x66A JUMPI PUSH1 0x0 DUP1 REVERT JUMPDEST DUP1 PUSH4 0xCEA74EDF EQ PUSH2 0x5A8 JUMPI DUP1 PUSH4 0xCF7B287F EQ PUSH2 0x5C8 JUMPI DUP1 PUSH4 0xD3868348 EQ PUSH2 0x5E8 JUMPI DUP1 PUSH4 0xE2653EEB EQ PUSH2 0x608 JUMPI PUSH1 0x0 DUP1 REVERT JUMPDEST DUP1 PUSH4 0xA888C2CD GT PUSH2 0xD1 JUMPI DUP1 PUSH4 0xA888C2CD EQ PUSH2 0x4A5 JUMPI DUP1 PUSH4 0xAB9634EE EQ PUSH2 0x555 JUMPI DUP1 PUSH4 0xB1743C5B EQ PUSH2 0x575 JUMPI DUP1 PUSH4 0xB5EF8294 EQ PUSH2 0x588 JUMPI PUSH1 0x0 DUP1 REVERT JUMPDEST DUP1 PUSH4 0x96171D05 EQ PUSH2 0x457 JUMPI DUP1 PUSH4 0x973A814E EQ PUSH2 0x46F JUMPI DUP1 PUSH4 0xA032B5F4 EQ PUSH2 0x485 JUMPI PUSH1 0x0 DUP1 REVERT JUMPDEST DUP1 PUSH4 0x6BC6C8D1 GT PUSH2 0x164 JUMPI DUP1 PUSH4 0x7DC2CD98 GT PUSH2 0x13E JUMPI DUP1 PUSH4 0x7DC2CD98 EQ PUSH2 0x30E JUMPI DUP1 PUSH4 0x81D12C58 EQ PUSH2 0x324 JUMPI DUP1 PUSH4 0x8DA5CB5B EQ PUSH2 0x426 JUMPI DUP1 PUSH4 0x92C824D8 EQ PUSH2 0x444 JUMPI PUSH1 0x0 DUP1 REVERT JUMPDEST DUP1 PUSH4 0x6BC6C8D1 EQ PUSH2 0x2AA JUMPI DUP1 PUSH4 0x715018A6 EQ PUSH2 0x2D7 JUMPI DUP1 PUSH4 0x78DA194B EQ PUSH2 0x2EE JUMPI PUSH1 0x0 DUP1 REVERT JUMPDEST DUP1 PUSH4 0x2E1A7D4D GT PUSH2 0x1A0 JUMPI DUP1 PUSH4 0x2E1A7D4D EQ PUSH2 0x233 JUMPI DUP1 PUSH4 0x2F4212B8 EQ PUSH2 0x26B JUMPI DUP1 PUSH4 0x4EFA8F17 EQ PUSH2 0x27E JUMPI DUP1 PUSH4 0x5D5AA11B EQ PUSH2 0x294 JUMPI PUSH1 0x0 DUP1 REVERT JUMPDEST DUP1 PUSH4 0x1489F8D2 EQ PUSH2 0x1C7 JUMPI DUP1 PUSH4 0x1D18ADC5 EQ PUSH2 0x1F0 JUMPI DUP1 PUSH4 0x23F0E7B9 EQ PUSH2 0x206 JUMPI JUMPDEST PUSH1 0x0 DUP1 REVERT JUMPDEST CALLVALUE DUP1 ISZERO PUSH2 0x1D3 JUMPI PUSH1 0x0 DUP1 REVERT JUMPDEST POP PUSH2 0x1DD PUSH2 0x12C DUP2 JUMP JUMPDEST PUSH1 0x40 MLOAD SWAP1 DUP2 MSTORE PUSH1 0x20 ADD JUMPDEST PUSH1 0x40 MLOAD DUP1 SWAP2 SUB SWAP1 RETURN JUMPDEST CALLVALUE DUP1 ISZERO PUSH2 0x1FC JUMPI PUSH1 0x0 DUP1 REVERT JUMPDEST POP PUSH2 0x1DD PUSH1 0x3 SLOAD DUP2 JUMP JUMPDEST CALLVALUE DUP1 ISZERO PUSH2 0x212 JUMPI PUSH1 0x0 DUP1 REVERT JUMPDEST POP PUSH2 0x1DD PUSH2 0x221 CALLDATASIZE PUSH1 0x4 PUSH2 0x1FB8 JUMP JUMPDEST PUSH1 0x7 PUSH1 0x20 MSTORE PUSH1 0x0 SWAP1 DUP2 MSTORE PUSH1 0x40 SWAP1 KECCAK256 SLOAD DUP2 JUMP JUMPDEST CALLVALUE DUP1 ISZERO PUSH2 0x23F JUMPI PUSH1 0x0 DUP1 REVERT JUMPDEST POP PUSH2 0x253 PUSH2 0x24E CALLDATASIZE PUSH1 0x4 PUSH2 0x1FB8 JUMP JUMPDEST PUSH2 0x68A JUMP JUMPDEST PUSH1 0x40 MLOAD PUSH1 0x1 PUSH1 0x1 PUSH1 0xA0 SHL SUB SWAP1 SWAP2 AND DUP2 MSTORE PUSH1 0x20 ADD PUSH2 0x1E7 JUMP JUMPDEST PUSH2 0x1DD PUSH2 0x279 CALLDATASIZE PUSH1 0x4 PUSH2 0x1FE6 JUMP JUMPDEST PUSH2 0x942 JUMP JUMPDEST CALLVALUE DUP1 ISZERO PUSH2 0x28A JUMPI PUSH1 0x0 DUP1 REVERT JUMPDEST POP PUSH2 0x1DD PUSH1 0x5 SLOAD DUP2 JUMP JUMPDEST CALLVALUE DUP1 ISZERO PUSH2 0x2A0 JUMPI PUSH1 0x0 DUP1 REVERT JUMPDEST POP PUSH2 0x1DD PUSH1 0xA SLOAD DUP2 JUMP JUMPDEST CALLVALUE DUP1 ISZERO PUSH2 0x2B6 JUMPI PUSH1 0x0 DUP1 REVERT JUMPDEST POP PUSH2 0x1DD PUSH2 0x2C5 CALLDATASIZE PUSH1 0x4 PUSH2 0x204B JUMP JUMPDEST PUSH1 0xD PUSH1 0x20 MSTORE PUSH1 0x0 SWAP1 DUP2 MSTORE PUSH1 0x40 SWAP1 KECCAK256 SLOAD DUP2 JUMP JUMPDEST CALLVALUE DUP1 ISZERO PUSH2 0x2E3 JUMPI PUSH1 0x0 DUP1 REVERT JUMPDEST POP PUSH2 0x2EC PUSH2 0xC71 JUMP JUMPDEST STOP JUMPDEST CALLVALUE DUP1 ISZERO PUSH2 0x2FA JUMPI PUSH1 0x0 DUP1 REVERT JUMPDEST POP PUSH2 0x2EC PUSH2 0x309 CALLDATASIZE PUSH1 0x4 PUSH2 0x2068 JUMP JUMPDEST PUSH2 0xCA7 JUMP JUMPDEST CALLVALUE DUP1 ISZERO PUSH2 0x31A JUMPI PUSH1 0x0 DUP1 REVERT JUMPDEST POP PUSH2 0x1DD PUSH1 0x2 SLOAD DUP2 JUMP JUMPDEST CALLVALUE DUP1 ISZERO PUSH2 0x330 JUMPI PUSH1 0x0 DUP1 REVERT JUMPDEST POP PUSH2 0x3B3 PUSH2 0x33F CALLDATASIZE PUSH1 0x4 PUSH2 0x1FB8 JUMP JUMPDEST PUSH1 0x8 PUSH1 0x20 DUP2 SWAP1 MSTORE PUSH1 0x0 SWAP2 DUP3 MSTORE PUSH1 0x40 SWAP1 SWAP2 KECCAK256 DUP1 SLOAD PUSH1 0x1 DUP3 ADD SLOAD PUSH1 0x2 DUP4 ADD SLOAD PUSH1 0x3 DUP5 ADD SLOAD PUSH1 0x4 DUP6 ADD SLOAD PUSH1 0x5 DUP7 ADD SLOAD PUSH1 0x6 DUP8 ADD SLOAD PUSH1 0x7 DUP9 ADD SLOAD SWAP9 DUP9 ADD SLOAD PUSH1 0x9 DUP10 ADD SLOAD PUSH1 0xA SWAP1 SWAP10 ADD SLOAD PUSH1 0x1 PUSH1 0x1 PUSH1 0xA0 SHL SUB SWAP9 DUP10 AND SWAP11 SWAP8 DUP10 AND SWAP10 SWAP7 SWAP9 SWAP6 DUP7 AND SWAP8 SWAP5 DUP7 AND SWAP7 SWAP4 SWAP6 SWAP1 SWAP3 AND SWAP4 PUSH1 0x1 PUSH1 0x1 PUSH1 0xC0 SHL SUB AND SWAP3 SWAP1 SWAP2 DUP12 JUMP JUMPDEST PUSH1 0x40 DUP1 MLOAD PUSH1 0x1 PUSH1 0x1 PUSH1 0xA0 SHL SUB SWAP13 DUP14 AND DUP2 MSTORE SWAP11 DUP13 AND PUSH1 0x20 DUP13 ADD MSTORE DUP11 ADD SWAP9 SWAP1 SWAP9 MSTORE SWAP6 DUP10 AND PUSH1 0x60 DUP10 ADD MSTORE SWAP4 DUP9 AND PUSH1 0x80 DUP9 ADD MSTORE PUSH1 0xA0 DUP8 ADD SWAP3 SWAP1 SWAP3 MSTORE SWAP1 SWAP6 AND PUSH1 0xC0 DUP6 ADD MSTORE PUSH1 0x1 PUSH1 0x1 PUSH1 0xC0 SHL SUB SWAP1 SWAP5 AND PUSH1 0xE0 DUP5 ADD MSTORE PUSH2 0x100 DUP4 ADD SWAP4 SWAP1 SWAP4 MSTORE PUSH2 0x120 DUP3 ADD SWAP3 SWAP1 SWAP3 MSTORE PUSH2 0x140 DUP2 ADD SWAP2 SWAP1 SWAP2 MSTORE PUSH2 0x160 ADD PUSH2 0x1E7 JUMP JUMPDEST CALLVALUE DUP1 ISZERO PUSH2 0x432 JUMPI PUSH1 0x0 DUP1 REVERT JUMPDEST POP PUSH1 0x0 SLOAD PUSH1 0x1 PUSH1 0x1 PUSH1 0xA0 SHL SUB AND PUSH2 0x253 JUMP JUMPDEST PUSH2 0x2EC PUSH2 0x452 CALLDATASIZE PUSH1 0x4 PUSH2 0x1FB8 JUMP JUMPDEST PUSH2 0xCDF JUMP JUMPDEST CALLVALUE DUP1 ISZERO PUSH2 0x463 JUMPI PUSH1 0x0 DUP1 REVERT JUMPDEST POP PUSH2 0x1DD PUSH4 0x1DFE200 DUP2 JUMP JUMPDEST CALLVALUE DUP1 ISZERO PUSH2 0x47B JUMPI PUSH1 0x0 DUP1 REVERT JUMPDEST POP PUSH2 0x1DD PUSH1 0x4 SLOAD DUP2 JUMP JUMPDEST CALLVALUE DUP1 ISZERO PUSH2 0x491 JUMPI PUSH1 0x0 DUP1 REVERT JUMPDEST POP PUSH2 0x1DD PUSH2 0x4A0 CALLDATASIZE PUSH1 0x4 PUSH2 0x1FB8 JUMP JUMPDEST PUSH2 0x10D7 JUMP JUMPDEST CALLVALUE DUP1 ISZERO PUSH2 0x4B1 JUMPI PUSH1 0x0 DUP1 REVERT JUMPDEST POP PUSH2 0x50F PUSH2 0x4C0 CALLDATASIZE PUSH1 0x4 PUSH2 0x1FB8 JUMP JUMPDEST PUSH1 0x9 PUSH1 0x20 MSTORE PUSH1 0x0 SWAP1 DUP2 MSTORE PUSH1 0x40 SWAP1 KECCAK256 DUP1 SLOAD PUSH1 0x1 DUP3 ADD SLOAD PUSH1 0x2 DUP4 ADD SLOAD PUSH1 0x4 DUP5 ADD SLOAD PUSH1 0x5 DUP6 ADD SLOAD PUSH1 0x6 DUP7 ADD SLOAD PUSH1 0x7 DUP8 ADD SLOAD PUSH1 0x8 SWAP1 SWAP8 ADD SLOAD SWAP6 SWAP7 PUSH1 0x1 PUSH1 0x1 PUSH1 0xA0 SHL SUB SWAP6 DUP7 AND SWAP7 SWAP5 SWAP6 SWAP1 SWAP4 AND SWAP4 SWAP2 SWAP3 SWAP1 SWAP2 DUP9 JUMP JUMPDEST PUSH1 0x40 DUP1 MLOAD SWAP9 DUP10 MSTORE PUSH1 0x1 PUSH1 0x1 PUSH1 0xA0 SHL SUB SWAP8 DUP9 AND PUSH1 0x20 DUP11 ADD MSTORE DUP9 ADD SWAP6 SWAP1 SWAP6 MSTORE SWAP5 SWAP1 SWAP3 AND PUSH1 0x60 DUP7 ADD MSTORE PUSH1 0x80 DUP6 ADD MSTORE PUSH1 0xA0 DUP5 ADD MSTORE PUSH1 0xC0 DUP4 ADD SWAP2 SWAP1 SWAP2 MSTORE PUSH1 0xE0 DUP3 ADD MSTORE PUSH2 0x100 ADD PUSH2 0x1E7 JUMP JUMPDEST CALLVALUE DUP1 ISZERO PUSH2 0x561 JUMPI PUSH1 0x0 DUP1 REVERT JUMPDEST POP PUSH1 0x6 SLOAD PUSH2 0x253 SWAP1 PUSH1 0x1 PUSH1 0x1 PUSH1 0xA0 SHL SUB AND DUP2 JUMP JUMPDEST PUSH2 0x1DD PUSH2 0x583 CALLDATASIZE PUSH1 0x4 PUSH2 0x2094 JUMP JUMPDEST PUSH2 0x10FB JUMP JUMPDEST CALLVALUE DUP1 ISZERO PUSH2 0x594 JUMPI PUSH1 0x0 DUP1 REVERT JUMPDEST POP PUSH2 0x2EC PUSH2 0x5A3 CALLDATASIZE PUSH1 0x4 PUSH2 0x2094 JUMP JUMPDEST PUSH2 0x1381 JUMP JUMPDEST CALLVALUE DUP1 ISZERO PUSH2 0x5B4 JUMPI PUSH1 0x0 DUP1 REVERT JUMPDEST POP PUSH2 0x1DD PUSH2 0x5C3 CALLDATASIZE PUSH1 0x4 PUSH2 0x1FB8 JUMP JUMPDEST PUSH2 0x141E JUMP JUMPDEST CALLVALUE DUP1 ISZERO PUSH2 0x5D4 JUMPI PUSH1 0x0 DUP1 REVERT JUMPDEST POP PUSH2 0x2EC PUSH2 0x5E3 CALLDATASIZE PUSH1 0x4 PUSH2 0x20B6 JUMP JUMPDEST PUSH2 0x143C JUMP JUMPDEST CALLVALUE DUP1 ISZERO PUSH2 0x5F4 JUMPI PUSH1 0x0 DUP1 REVERT JUMPDEST POP PUSH2 0x2EC PUSH2 0x603 CALLDATASIZE PUSH1 0x4 PUSH2 0x1FB8 JUMP JUMPDEST PUSH2 0x14EF JUMP JUMPDEST CALLVALUE DUP1 ISZERO PUSH2 0x614 JUMPI PUSH1 0x0 DUP1 REVERT JUMPDEST POP PUSH2 0x1DD PUSH1 0xB SLOAD DUP2 JUMP JUMPDEST CALLVALUE DUP1 ISZERO PUSH2 0x62A JUMPI PUSH1 0x0 DUP1 REVERT JUMPDEST POP PUSH2 0x1DD PUSH1 0xC SLOAD DUP2 JUMP JUMPDEST CALLVALUE DUP1 ISZERO PUSH2 0x640 JUMPI PUSH1 0x0 DUP1 REVERT JUMPDEST POP PUSH2 0x1DD PUSH1 0x1 SLOAD DUP2 JUMP JUMPDEST CALLVALUE DUP1 ISZERO PUSH2 0x656 JUMPI PUSH1 0x0 DUP1 REVERT JUMPDEST POP PUSH2 0x2EC PUSH2 0x665 CALLDATASIZE PUSH1 0x4 PUSH2 0x204B JUMP JUMPDEST PUSH2 0x16F9 JUMP JUMPDEST CALLVALUE DUP1 ISZERO PUSH2 0x676 JUMPI PUSH1 0x0 DUP1 REVERT JUMPDEST POP PUSH2 0x1DD PUSH2 0x685 CALLDATASIZE PUSH1 0x4 PUSH2 0x1FB8 JUMP JUMPDEST PUSH2 0x1794 JUMP JUMPDEST PUSH1 0x0 DUP2 PUSH1 0x5 SLOAD DUP2 GT ISZERO DUP1 ISZERO PUSH2 0x69F JUMPI POP PUSH1 0x0 DUP2 GT JUMPDEST PUSH2 0x6E4 JUMPI PUSH1 0x40 MLOAD PUSH3 0x461BCD PUSH1 0xE5 SHL DUP2 MSTORE PUSH1 0x20 PUSH1 0x4 DUP3 ADD MSTORE PUSH1 0x11 PUSH1 0x24 DUP3 ADD MSTORE PUSH17 0x18DB185A5B5259081B9BDD081D985B1A59 PUSH1 0x7A SHL PUSH1 0x44 DUP3 ADD MSTORE PUSH1 0x64 ADD JUMPDEST PUSH1 0x40 MLOAD DUP1 SWAP2 SUB SWAP1 REVERT JUMPDEST PUSH1 0x0 DUP4 DUP2 MSTORE PUSH1 0x9 PUSH1 0x20 SWAP1 DUP2 MSTORE PUSH1 0x40 DUP1 DUP4 KECCAK256 DUP1 SLOAD DUP5 MSTORE PUSH1 0x8 SWAP1 SWAP3 MSTORE DUP3 KECCAK256 SWAP1 SWAP2 DUP1 PUSH2 0x70C DUP8 PUSH2 0x17B8 JUMP JUMPDEST PUSH1 0x1 PUSH1 0x1 PUSH1 0xA0 SHL SUB DUP3 AND PUSH1 0x0 SWAP1 DUP2 MSTORE PUSH1 0x3 DUP8 ADD PUSH1 0x20 MSTORE PUSH1 0x40 SWAP1 KECCAK256 SLOAD SWAP2 SWAP4 POP SWAP2 POP ISZERO PUSH2 0x74D JUMPI PUSH1 0x1 PUSH1 0x1 PUSH1 0xA0 SHL SUB DUP3 AND PUSH1 0x0 SWAP1 DUP2 MSTORE PUSH1 0x3 DUP6 ADD PUSH1 0x20 MSTORE PUSH1 0x40 DUP2 KECCAK256 SSTORE JUMPDEST DUP4 PUSH1 0x6 ADD SLOAD PUSH1 0x0 SUB PUSH2 0x79F JUMPI PUSH1 0x7 DUP4 ADD DUP1 SLOAD PUSH1 0x1 SWAP2 SWAP1 PUSH1 0x0 SWAP1 PUSH2 0x77A SWAP1 DUP5 SWAP1 PUSH1 0x1 PUSH1 0x1 PUSH1 0xC0 SHL SUB AND PUSH2 0x2105 JUMP JUMPDEST SWAP3 POP PUSH2 0x100 EXP DUP2 SLOAD DUP2 PUSH1 0x1 PUSH1 0x1 PUSH1 0xC0 SHL SUB MUL NOT AND SWAP1 DUP4 PUSH1 0x1 PUSH1 0x1 PUSH1 0xC0 SHL SUB AND MUL OR SWAP1 SSTORE POP JUMPDEST DUP1 DUP5 PUSH1 0x6 ADD PUSH1 0x0 DUP3 DUP3 SLOAD PUSH2 0x7B3 SWAP2 SWAP1 PUSH2 0x212D JUMP JUMPDEST SWAP1 SWAP2 SSTORE POP POP PUSH1 0x5 DUP5 ADD SLOAD PUSH1 0x2 DUP6 ADD SLOAD PUSH2 0x7CC SWAP2 SWAP1 PUSH2 0x212D JUMP JUMPDEST DUP5 PUSH1 0x6 ADD SLOAD GT ISZERO PUSH2 0x81F JUMPI PUSH1 0x40 MLOAD PUSH3 0x461BCD PUSH1 0xE5 SHL DUP2 MSTORE PUSH1 0x20 PUSH1 0x4 DUP3 ADD MSTORE PUSH1 0x1C PUSH1 0x24 DUP3 ADD MSTORE PUSH32 0x416D6F756E7420746F20776974686472617720746F6F206C6172676500000000 PUSH1 0x44 DUP3 ADD MSTORE PUSH1 0x64 ADD PUSH2 0x6DB JUMP JUMPDEST PUSH1 0x0 DUP3 PUSH1 0x1 PUSH1 0x1 PUSH1 0xA0 SHL SUB AND DUP3 PUSH1 0x40 MLOAD PUSH1 0x0 PUSH1 0x40 MLOAD DUP1 DUP4 SUB DUP2 DUP6 DUP8 GAS CALL SWAP3 POP POP POP RETURNDATASIZE DUP1 PUSH1 0x0 DUP2 EQ PUSH2 0x86C JUMPI PUSH1 0x40 MLOAD SWAP2 POP PUSH1 0x1F NOT PUSH1 0x3F RETURNDATASIZE ADD AND DUP3 ADD PUSH1 0x40 MSTORE RETURNDATASIZE DUP3 MSTORE RETURNDATASIZE PUSH1 0x0 PUSH1 0x20 DUP5 ADD RETURNDATACOPY PUSH2 0x871 JUMP JUMPDEST PUSH1 0x60 SWAP2 POP JUMPDEST POP POP SWAP1 POP DUP1 PUSH2 0x8B9 JUMPI PUSH1 0x40 MLOAD PUSH3 0x461BCD PUSH1 0xE5 SHL DUP2 MSTORE PUSH1 0x20 PUSH1 0x4 DUP3 ADD MSTORE PUSH1 0x14 PUSH1 0x24 DUP3 ADD MSTORE PUSH20 0x2330B4B632B2103A379039B2B7321022BA3432B9 PUSH1 0x61 SHL PUSH1 0x44 DUP3 ADD MSTORE PUSH1 0x64 ADD PUSH2 0x6DB JUMP JUMPDEST DUP5 SLOAD PUSH1 0x40 DUP1 MLOAD DUP11 DUP2 MSTORE PUSH1 0x1 PUSH1 0x1 PUSH1 0xA0 SHL SUB DUP7 AND PUSH1 0x20 DUP3 ADD MSTORE PUSH32 0xC494C0D9B07FAE9D937A92117991D3017AD9408A7D344CAA86C184C47F7BD183 SWAP2 ADD PUSH1 0x40 MLOAD DUP1 SWAP2 SUB SWAP1 LOG2 PUSH1 0x6 DUP5 ADD SLOAD PUSH1 0x1 PUSH1 0x1 PUSH1 0xA0 SHL SUB AND ISZERO DUP1 ISZERO PUSH2 0x926 JUMPI POP PUSH1 0x1 DUP6 ADD SLOAD PUSH1 0x1 PUSH1 0x1 PUSH1 0xA0 SHL SUB DUP5 DUP2 AND SWAP2 AND EQ JUMPDEST ISZERO PUSH2 0x936 JUMPI PUSH2 0x936 DUP5 DUP7 DUP6 PUSH2 0x1B90 JUMP JUMPDEST POP SWAP1 SWAP7 SWAP6 POP POP POP POP POP POP JUMP JUMPDEST PUSH1 0x0 DUP7 DUP2 MSTORE PUSH1 0x7 PUSH1 0x20 MSTORE PUSH1 0x40 DUP2 KECCAK256 SLOAD DUP2 SUB PUSH2 0x99F JUMPI PUSH1 0x40 MLOAD PUSH3 0x461BCD PUSH1 0xE5 SHL DUP2 MSTORE PUSH1 0x20 PUSH1 0x4 DUP3 ADD MSTORE PUSH1 0x1B PUSH1 0x24 DUP3 ADD MSTORE PUSH32 0x54617267657420726F6C6C7570206E6F7420737570706F727465640000000000 PUSH1 0x44 DUP3 ADD MSTORE PUSH1 0x64 ADD PUSH2 0x6DB JUMP JUMPDEST PUSH2 0x12C DUP3 LT ISZERO PUSH2 0x9F1 JUMPI PUSH1 0x40 MLOAD PUSH3 0x461BCD PUSH1 0xE5 SHL DUP2 MSTORE PUSH1 0x20 PUSH1 0x4 DUP3 ADD MSTORE PUSH1 0x19 PUSH1 0x24 DUP3 ADD MSTORE PUSH32 0x56616C696469747920706572696F6420746F6F2073686F727400000000000000 PUSH1 0x44 DUP3 ADD MSTORE PUSH1 0x64 ADD PUSH2 0x6DB JUMP JUMPDEST PUSH4 0x1DFE200 DUP3 GT ISZERO PUSH2 0xA45 JUMPI PUSH1 0x40 MLOAD PUSH3 0x461BCD PUSH1 0xE5 SHL DUP2 MSTORE PUSH1 0x20 PUSH1 0x4 DUP3 ADD MSTORE PUSH1 0x18 PUSH1 0x24 DUP3 ADD MSTORE PUSH32 0x56616C696469747920706572696F6420746F6F206C6F6E670000000000000000 PUSH1 0x44 DUP3 ADD MSTORE PUSH1 0x64 ADD PUSH2 0x6DB JUMP JUMPDEST DUP6 PUSH1 0x0 PUSH2 0xA51 DUP6 PUSH2 0x1794 JUMP JUMPDEST SWAP1 POP PUSH1 0x0 PUSH2 0xA5E DUP7 PUSH2 0x10D7 JUMP JUMPDEST SWAP1 POP PUSH1 0x0 DUP2 PUSH2 0xA6D DUP5 DUP10 PUSH2 0x212D JUMP JUMPDEST PUSH2 0xA77 SWAP2 SWAP1 PUSH2 0x212D JUMP JUMPDEST PUSH1 0x40 MLOAD PUSH4 0x6EB1769F PUSH1 0xE1 SHL DUP2 MSTORE CALLER PUSH1 0x4 DUP3 ADD MSTORE ADDRESS PUSH1 0x24 DUP3 ADD MSTORE SWAP1 SWAP2 POP DUP2 SWAP1 PUSH1 0x1 PUSH1 0x1 PUSH1 0xA0 SHL SUB DUP7 AND SWAP1 PUSH4 0xDD62ED3E SWAP1 PUSH1 0x44 ADD PUSH1 0x20 PUSH1 0x40 MLOAD DUP1 DUP4 SUB DUP2 DUP7 GAS STATICCALL ISZERO DUP1 ISZERO PUSH2 0xAC6 JUMPI RETURNDATASIZE PUSH1 0x0 DUP1 RETURNDATACOPY RETURNDATASIZE PUSH1 0x0 REVERT JUMPDEST POP POP POP POP PUSH1 0x40 MLOAD RETURNDATASIZE PUSH1 0x1F NOT PUSH1 0x1F DUP3 ADD AND DUP3 ADD DUP1 PUSH1 0x40 MSTORE POP DUP2 ADD SWAP1 PUSH2 0xAEA SWAP2 SWAP1 PUSH2 0x2145 JUMP JUMPDEST LT ISZERO PUSH2 0xB31 JUMPI PUSH1 0x40 MLOAD PUSH3 0x461BCD PUSH1 0xE5 SHL DUP2 MSTORE PUSH1 0x20 PUSH1 0x4 DUP3 ADD MSTORE PUSH1 0x16 PUSH1 0x24 DUP3 ADD MSTORE PUSH22 0x496E73756666696369656E7420616C6C6F77616E6365 PUSH1 0x50 SHL PUSH1 0x44 DUP3 ADD MSTORE PUSH1 0x64 ADD PUSH2 0x6DB JUMP JUMPDEST PUSH1 0x1 PUSH1 0x4 PUSH1 0x0 DUP3 DUP3 SLOAD PUSH2 0xB44 SWAP2 SWAP1 PUSH2 0x212D JUMP JUMPDEST SWAP1 SWAP2 SSTORE POP POP PUSH1 0x4 DUP1 SLOAD PUSH1 0x0 SWAP1 DUP2 MSTORE PUSH1 0x8 PUSH1 0x20 MSTORE PUSH1 0x40 SWAP1 KECCAK256 DUP1 SLOAD CALLER PUSH1 0x1 PUSH1 0x1 PUSH1 0xA0 SHL SUB NOT SWAP2 DUP3 AND OR DUP3 SSTORE PUSH1 0x1 DUP3 ADD DUP1 SLOAD DUP3 AND PUSH1 0x1 PUSH1 0x1 PUSH1 0xA0 SHL SUB DUP16 DUP2 AND SWAP2 SWAP1 SWAP2 OR SWAP1 SWAP2 SSTORE PUSH1 0x2 DUP4 ADD DUP16 SWAP1 SSTORE PUSH1 0x3 DUP4 ADD DUP1 SLOAD DUP4 AND DUP15 DUP4 AND OR SWAP1 SSTORE SWAP3 DUP3 ADD DUP1 SLOAD DUP3 AND SWAP4 DUP13 AND SWAP4 SWAP1 SWAP4 OR SWAP1 SWAP3 SSTORE PUSH1 0x5 DUP2 ADD DUP10 SWAP1 SSTORE PUSH1 0x6 DUP2 ADD DUP1 SLOAD SWAP1 SWAP3 AND SWAP1 SWAP2 SSTORE PUSH2 0xBCA DUP8 TIMESTAMP PUSH2 0x212D JUMP JUMPDEST PUSH1 0x8 DUP3 ADD DUP2 SWAP1 SSTORE PUSH1 0x9 DUP3 ADD DUP6 SWAP1 SSTORE PUSH1 0xA DUP3 ADD DUP5 SWAP1 SSTORE PUSH1 0x4 SLOAD PUSH1 0x40 DUP1 MLOAD SWAP2 DUP3 MSTORE PUSH1 0x20 DUP3 ADD DUP16 SWAP1 MSTORE PUSH1 0x1 PUSH1 0x1 PUSH1 0xA0 SHL SUB DUP15 DUP2 AND DUP4 DUP4 ADD MSTORE DUP14 DUP2 AND PUSH1 0x60 DUP5 ADD MSTORE DUP13 AND PUSH1 0x80 DUP4 ADD MSTORE PUSH1 0xA0 DUP3 ADD DUP12 SWAP1 MSTORE PUSH1 0xC0 DUP3 ADD SWAP3 SWAP1 SWAP3 MSTORE SWAP1 MLOAD PUSH32 0x18A412D0656B9A5C9263A134F66A34DA33CAD7C3690971601F9963ADE588E701 SWAP2 DUP2 SWAP1 SUB PUSH1 0xE0 ADD SWAP1 LOG1 PUSH2 0xC5E PUSH1 0x1 PUSH1 0x1 PUSH1 0xA0 SHL SUB DUP7 AND CALLER ADDRESS DUP6 PUSH2 0x1C5C JUMP JUMPDEST POP POP PUSH1 0x4 SLOAD SWAP11 SWAP10 POP POP POP POP POP POP POP POP POP POP JUMP JUMPDEST PUSH1 0x0 SLOAD PUSH1 0x1 PUSH1 0x1 PUSH1 0xA0 SHL SUB AND CALLER EQ PUSH2 0xC9B JUMPI PUSH1 0x40 MLOAD PUSH3 0x461BCD PUSH1 0xE5 SHL DUP2 MSTORE PUSH1 0x4 ADD PUSH2 0x6DB SWAP1 PUSH2 0x215E JUMP JUMPDEST PUSH2 0xCA5 PUSH1 0x0 PUSH2 0x1CC7 JUMP JUMPDEST JUMP JUMPDEST PUSH1 0x0 SLOAD PUSH1 0x1 PUSH1 0x1 PUSH1 0xA0 SHL SUB AND CALLER EQ PUSH2 0xCD1 JUMPI PUSH1 0x40 MLOAD PUSH3 0x461BCD PUSH1 0xE5 SHL DUP2 MSTORE PUSH1 0x4 ADD PUSH2 0x6DB SWAP1 PUSH2 0x215E JUMP JUMPDEST PUSH1 0xC SWAP3 SWAP1 SWAP3 SSTORE PUSH1 0xB SSTORE PUSH1 0xA SSTORE JUMP JUMPDEST DUP1 PUSH1 0x5 SLOAD DUP2 GT ISZERO DUP1 ISZERO PUSH2 0xCF2 JUMPI POP PUSH1 0x0 DUP2 GT JUMPDEST PUSH2 0xD32 JUMPI PUSH1 0x40 MLOAD PUSH3 0x461BCD PUSH1 0xE5 SHL DUP2 MSTORE PUSH1 0x20 PUSH1 0x4 DUP3 ADD MSTORE PUSH1 0x11 PUSH1 0x24 DUP3 ADD MSTORE PUSH17 0x18DB185A5B5259081B9BDD081D985B1A59 PUSH1 0x7A SHL PUSH1 0x44 DUP3 ADD MSTORE PUSH1 0x64 ADD PUSH2 0x6DB JUMP JUMPDEST PUSH1 0x0 DUP3 DUP2 MSTORE PUSH1 0x9 PUSH1 0x20 SWAP1 DUP2 MSTORE PUSH1 0x40 DUP1 DUP4 KECCAK256 DUP1 SLOAD DUP5 MSTORE PUSH1 0x8 SWAP1 SWAP3 MSTORE SWAP1 SWAP2 KECCAK256 PUSH1 0x7 DUP3 ADD SLOAD TIMESTAMP LT PUSH2 0xD92 JUMPI PUSH1 0x40 MLOAD PUSH3 0x461BCD PUSH1 0xE5 SHL DUP2 MSTORE PUSH1 0x20 PUSH1 0x4 DUP3 ADD MSTORE PUSH1 0xD PUSH1 0x24 DUP3 ADD MSTORE PUSH13 0x10DB185A5B48195E1C1A5C9959 PUSH1 0x9A SHL PUSH1 0x44 DUP3 ADD MSTORE PUSH1 0x64 ADD PUSH2 0x6DB JUMP JUMPDEST PUSH1 0x3 SLOAD PUSH1 0x2 DUP4 ADD SLOAD PUSH1 0x5 DUP5 ADD SLOAD PUSH1 0x0 SWAP3 DUP4 SWAP3 SWAP1 SWAP2 DUP1 DUP3 GT ISZERO PUSH2 0xE54 JUMPI DUP1 PUSH1 0x0 SUB PUSH2 0xDD7 JUMPI PUSH1 0x2 DUP7 ADD SLOAD PUSH1 0x0 SWAP1 DUP2 MSTORE PUSH1 0x7 PUSH1 0x20 MSTORE PUSH1 0x40 SWAP1 KECCAK256 SLOAD PUSH2 0xDD4 SWAP1 DUP5 PUSH2 0x212D JUMP JUMPDEST SWAP3 POP JUMPDEST PUSH1 0x1 DUP8 ADD SLOAD CALLER PUSH1 0x1 PUSH1 0x1 PUSH1 0xA0 SHL SUB SWAP1 SWAP2 AND SUB PUSH2 0xE35 JUMPI PUSH1 0x40 MLOAD PUSH3 0x461BCD PUSH1 0xE5 SHL DUP2 MSTORE PUSH1 0x20 PUSH1 0x4 DUP3 ADD MSTORE PUSH1 0x1A PUSH1 0x24 DUP3 ADD MSTORE PUSH32 0x43616E6E6F74206368616C6C656E6765206F776E20636C61696D000000000000 PUSH1 0x44 DUP3 ADD MSTORE PUSH1 0x64 ADD PUSH2 0x6DB JUMP JUMPDEST CALLER SWAP5 POP PUSH2 0xE42 DUP2 DUP4 PUSH2 0x2193 JUMP JUMPDEST PUSH2 0xE4D SWAP1 PUSH1 0x1 PUSH2 0x212D JUMP JUMPDEST SWAP4 POP PUSH2 0xE80 JUMP JUMPDEST PUSH1 0x1 DUP1 DUP9 ADD SLOAD SWAP1 SLOAD PUSH1 0x1 PUSH1 0x1 PUSH1 0xA0 SHL SUB SWAP1 SWAP2 AND SWAP6 POP PUSH2 0xE73 DUP4 DUP4 PUSH2 0x2193 JUMP JUMPDEST PUSH2 0xE7D SWAP2 SWAP1 PUSH2 0x212D JUMP JUMPDEST SWAP4 POP JUMPDEST CALLER PUSH1 0x1 PUSH1 0x1 PUSH1 0xA0 SHL SUB DUP7 AND EQ PUSH2 0xED1 JUMPI PUSH1 0x40 MLOAD PUSH3 0x461BCD PUSH1 0xE5 SHL DUP2 MSTORE PUSH1 0x20 PUSH1 0x4 DUP3 ADD MSTORE PUSH1 0x16 PUSH1 0x24 DUP3 ADD MSTORE PUSH22 0x139BDD08195B1A59DA589B19481D1BC81BDD5D189A59 PUSH1 0x52 SHL PUSH1 0x44 DUP3 ADD MSTORE PUSH1 0x64 ADD PUSH2 0x6DB JUMP JUMPDEST DUP4 CALLVALUE LT ISZERO PUSH2 0xF21 JUMPI PUSH1 0x40 MLOAD PUSH3 0x461BCD PUSH1 0xE5 SHL DUP2 MSTORE PUSH1 0x20 PUSH1 0x4 DUP3 ADD MSTORE PUSH1 0x19 PUSH1 0x24 DUP3 ADD MSTORE PUSH32 0x4E6F7420656E6F756768207374616B652070726F766964656400000000000000 PUSH1 0x44 DUP3 ADD MSTORE PUSH1 0x64 ADD PUSH2 0x6DB JUMP JUMPDEST PUSH1 0x1 DUP8 ADD SLOAD PUSH1 0x1 PUSH1 0x1 PUSH1 0xA0 SHL SUB SWAP1 DUP2 AND SWAP1 DUP7 AND SUB PUSH2 0xF58 JUMPI CALLVALUE DUP8 PUSH1 0x2 ADD PUSH1 0x0 DUP3 DUP3 SLOAD PUSH2 0xF4D SWAP2 SWAP1 PUSH2 0x212D JUMP JUMPDEST SWAP1 SWAP2 SSTORE POP PUSH2 0xFB0 SWAP1 POP JUMP JUMPDEST PUSH1 0x4 DUP8 ADD DUP1 SLOAD PUSH1 0x1 PUSH1 0x1 PUSH1 0xA0 SHL SUB NOT AND CALLER SWAP1 DUP2 OR SWAP1 SWAP2 SSTORE PUSH1 0x0 SWAP1 DUP2 MSTORE PUSH1 0x3 DUP9 ADD PUSH1 0x20 MSTORE PUSH1 0x40 DUP2 KECCAK256 DUP1 SLOAD CALLVALUE SWAP3 SWAP1 PUSH2 0xF8F SWAP1 DUP5 SWAP1 PUSH2 0x212D JUMP JUMPDEST SWAP3 POP POP DUP2 SWAP1 SSTORE POP CALLVALUE DUP8 PUSH1 0x5 ADD PUSH1 0x0 DUP3 DUP3 SLOAD PUSH2 0xFAA SWAP2 SWAP1 PUSH2 0x212D JUMP JUMPDEST SWAP1 SWAP2 SSTORE POP POP JUMPDEST PUSH1 0x7 DUP8 ADD SLOAD PUSH2 0xFC8 SWAP1 PUSH2 0xFC3 DUP6 TIMESTAMP PUSH2 0x212D JUMP JUMPDEST PUSH2 0x1D17 JUMP JUMPDEST PUSH1 0x7 DUP9 ADD SSTORE PUSH1 0x3 SLOAD PUSH1 0x0 SWAP1 PUSH2 0xFDD SWAP1 TIMESTAMP PUSH2 0x212D JUMP JUMPDEST SWAP1 POP DUP1 DUP9 PUSH1 0x7 ADD SLOAD LT ISZERO PUSH2 0x1045 JUMPI PUSH1 0x40 MLOAD PUSH3 0x461BCD PUSH1 0xE5 SHL DUP2 MSTORE PUSH1 0x20 PUSH1 0x4 DUP3 ADD MSTORE PUSH1 0x29 PUSH1 0x24 DUP3 ADD MSTORE PUSH32 0x436C61696D207465726D696E6174696F6E20646964206E6F7420696E63726561 PUSH1 0x44 DUP3 ADD MSTORE PUSH9 0xE6CA40CADCDEEACED PUSH1 0xBB SHL PUSH1 0x64 DUP3 ADD MSTORE PUSH1 0x84 ADD PUSH2 0x6DB JUMP JUMPDEST DUP8 PUSH1 0x0 ADD SLOAD PUSH32 0x29FD2DF293BA511E44CA47212C915137020231ED3AC0EE7BD02A7A655275AD37 DUP12 DUP11 PUSH1 0x1 ADD PUSH1 0x0 SWAP1 SLOAD SWAP1 PUSH2 0x100 EXP SWAP1 DIV PUSH1 0x1 PUSH1 0x1 PUSH1 0xA0 SHL SUB AND DUP12 PUSH1 0x2 ADD SLOAD DUP13 PUSH1 0x4 ADD PUSH1 0x0 SWAP1 SLOAD SWAP1 PUSH2 0x100 EXP SWAP1 DIV PUSH1 0x1 PUSH1 0x1 PUSH1 0xA0 SHL SUB AND DUP14 PUSH1 0x5 ADD SLOAD DUP15 PUSH1 0x7 ADD SLOAD DUP16 PUSH1 0x8 ADD SLOAD PUSH1 0x40 MLOAD PUSH2 0x10C3 SWAP8 SWAP7 SWAP6 SWAP5 SWAP4 SWAP3 SWAP2 SWAP1 PUSH2 0x21AA JUMP JUMPDEST PUSH1 0x40 MLOAD DUP1 SWAP2 SUB SWAP1 LOG2 POP POP POP POP POP POP POP POP POP POP JUMP JUMPDEST PUSH1 0x0 PUSH3 0xF4240 PUSH1 0xC SLOAD DUP4 PUSH2 0x10EB SWAP2 SWAP1 PUSH2 0x21E9 JUMP JUMPDEST PUSH2 0x10F5 SWAP2 SWAP1 PUSH2 0x2208 JUMP JUMPDEST SWAP3 SWAP2 POP POP JUMP JUMPDEST PUSH1 0x0 DUP3 PUSH1 0x4 SLOAD DUP2 GT ISZERO DUP1 ISZERO PUSH2 0x1110 JUMPI POP PUSH1 0x0 DUP2 GT JUMPDEST PUSH2 0x1152 JUMPI PUSH1 0x40 MLOAD PUSH3 0x461BCD PUSH1 0xE5 SHL DUP2 MSTORE PUSH1 0x20 PUSH1 0x4 DUP3 ADD MSTORE PUSH1 0x13 PUSH1 0x24 DUP3 ADD MSTORE PUSH19 0x1C995C5D595CDD1259081B9BDD081D985B1A59 PUSH1 0x6A SHL PUSH1 0x44 DUP3 ADD MSTORE PUSH1 0x64 ADD PUSH2 0x6DB JUMP JUMPDEST PUSH1 0x0 DUP5 DUP2 MSTORE PUSH1 0x8 PUSH1 0x20 DUP2 SWAP1 MSTORE PUSH1 0x40 SWAP1 SWAP2 KECCAK256 SWAP1 DUP2 ADD SLOAD TIMESTAMP LT PUSH2 0x11A7 JUMPI PUSH1 0x40 MLOAD PUSH3 0x461BCD PUSH1 0xE5 SHL DUP2 MSTORE PUSH1 0x20 PUSH1 0x4 DUP3 ADD MSTORE PUSH1 0xF PUSH1 0x24 DUP3 ADD MSTORE PUSH15 0x14995C5D595CDD08195E1C1A5C9959 PUSH1 0x8A SHL PUSH1 0x44 DUP3 ADD MSTORE PUSH1 0x64 ADD PUSH2 0x6DB JUMP JUMPDEST PUSH1 0x6 DUP2 ADD SLOAD PUSH1 0x1 PUSH1 0x1 PUSH1 0xA0 SHL SUB AND ISZERO PUSH2 0x11FE JUMPI PUSH1 0x40 MLOAD PUSH3 0x461BCD PUSH1 0xE5 SHL DUP2 MSTORE PUSH1 0x20 PUSH1 0x4 DUP3 ADD MSTORE PUSH1 0x19 PUSH1 0x24 DUP3 ADD MSTORE PUSH25 0x2232B837B9B4BA1030B63932B0B23C903BB4BA34323930BBB7 PUSH1 0x39 SHL PUSH1 0x44 DUP3 ADD MSTORE PUSH1 0x64 ADD PUSH2 0x6DB JUMP JUMPDEST PUSH1 0x1 SLOAD CALLVALUE EQ PUSH2 0x1246 JUMPI PUSH1 0x40 MLOAD PUSH3 0x461BCD PUSH1 0xE5 SHL DUP2 MSTORE PUSH1 0x20 PUSH1 0x4 DUP3 ADD MSTORE PUSH1 0x14 PUSH1 0x24 DUP3 ADD MSTORE PUSH20 0x125B9D985B1A59081CDD185AD948185B5BDD5B9D PUSH1 0x62 SHL PUSH1 0x44 DUP3 ADD MSTORE PUSH1 0x64 ADD PUSH2 0x6DB JUMP JUMPDEST PUSH1 0x7 DUP2 ADD DUP1 SLOAD PUSH1 0x1 SWAP2 SWAP1 PUSH1 0x0 SWAP1 PUSH2 0x1267 SWAP1 DUP5 SWAP1 PUSH1 0x1 PUSH1 0x1 PUSH1 0xC0 SHL SUB AND PUSH2 0x222A JUMP JUMPDEST SWAP3 POP PUSH2 0x100 EXP DUP2 SLOAD DUP2 PUSH1 0x1 PUSH1 0x1 PUSH1 0xC0 SHL SUB MUL NOT AND SWAP1 DUP4 PUSH1 0x1 PUSH1 0x1 PUSH1 0xC0 SHL SUB AND MUL OR SWAP1 SSTORE POP PUSH1 0x1 PUSH1 0x5 PUSH1 0x0 DUP3 DUP3 SLOAD PUSH2 0x129E SWAP2 SWAP1 PUSH2 0x212D JUMP JUMPDEST SWAP1 SWAP2 SSTORE POP POP PUSH1 0x5 DUP1 SLOAD PUSH1 0x0 SWAP1 DUP2 MSTORE PUSH1 0x9 PUSH1 0x20 MSTORE PUSH1 0x40 DUP2 KECCAK256 DUP8 DUP2 SSTORE PUSH1 0x1 DUP1 DUP3 ADD DUP1 SLOAD PUSH1 0x1 PUSH1 0x1 PUSH1 0xA0 SHL SUB NOT SWAP1 DUP2 AND CALLER OR SWAP1 SWAP2 SSTORE SWAP1 SLOAD PUSH1 0x2 DUP1 DUP5 ADD SWAP2 SWAP1 SWAP2 SSTORE PUSH1 0x4 DUP4 ADD DUP1 SLOAD SWAP1 SWAP3 AND SWAP1 SWAP2 SSTORE SWAP3 DUP2 ADD DUP3 SWAP1 SSTORE PUSH1 0x6 DUP2 ADD SWAP2 SWAP1 SWAP2 SSTORE SWAP1 SLOAD PUSH2 0x1301 SWAP1 TIMESTAMP PUSH2 0x212D JUMP JUMPDEST PUSH1 0x7 DUP3 ADD DUP2 SWAP1 SSTORE PUSH1 0x8 DUP3 ADD DUP7 SWAP1 SSTORE PUSH1 0x5 DUP1 SLOAD PUSH1 0x1 DUP5 ADD SLOAD PUSH1 0x2 DUP6 ADD SLOAD PUSH1 0x4 DUP7 ADD SLOAD SWAP4 DUP7 ADD SLOAD PUSH1 0x40 MLOAD DUP13 SWAP7 PUSH32 0x29FD2DF293BA511E44CA47212C915137020231ED3AC0EE7BD02A7A655275AD37 SWAP7 PUSH2 0x136C SWAP7 SWAP6 PUSH1 0x1 PUSH1 0x1 PUSH1 0xA0 SHL SUB SWAP1 DUP2 AND SWAP6 SWAP5 SWAP2 AND SWAP3 SWAP1 SWAP2 SWAP1 DUP15 SWAP1 PUSH2 0x21AA JUMP JUMPDEST PUSH1 0x40 MLOAD DUP1 SWAP2 SUB SWAP1 LOG2 POP POP PUSH1 0x5 SLOAD SWAP5 SWAP4 POP POP POP POP JUMP JUMPDEST PUSH1 0x0 SLOAD PUSH1 0x1 PUSH1 0x1 PUSH1 0xA0 SHL SUB AND CALLER EQ PUSH2 0x13AB JUMPI PUSH1 0x40 MLOAD PUSH3 0x461BCD PUSH1 0xE5 SHL DUP2 MSTORE PUSH1 0x4 ADD PUSH2 0x6DB SWAP1 PUSH2 0x215E JUMP JUMPDEST PUSH1 0x0 DUP2 GT PUSH2 0x140C JUMPI PUSH1 0x40 MLOAD PUSH3 0x461BCD PUSH1 0xE5 SHL DUP2 MSTORE PUSH1 0x20 PUSH1 0x4 DUP3 ADD MSTORE PUSH1 0x28 PUSH1 0x24 DUP3 ADD MSTORE PUSH32 0x46696E616C697A6174696F6E2074696D65206D75737420626520677265617465 PUSH1 0x44 DUP3 ADD MSTORE PUSH8 0x72207468616E203 PUSH1 0xC4 SHL PUSH1 0x64 DUP3 ADD MSTORE PUSH1 0x84 ADD PUSH2 0x6DB JUMP JUMPDEST PUSH1 0x0 SWAP2 DUP3 MSTORE PUSH1 0x7 PUSH1 0x20 MSTORE PUSH1 0x40 SWAP1 SWAP2 KECCAK256 SSTORE JUMP JUMPDEST PUSH1 0x0 PUSH2 0x1429 DUP3 PUSH2 0x10D7 JUMP JUMPDEST PUSH2 0x1432 DUP4 PUSH2 0x1794 JUMP JUMPDEST PUSH2 0x10F5 SWAP2 SWAP1 PUSH2 0x212D JUMP JUMPDEST PUSH1 0x0 SLOAD PUSH1 0x1 PUSH1 0x1 PUSH1 0xA0 SHL SUB AND CALLER EQ PUSH2 0x1466 JUMPI PUSH1 0x40 MLOAD PUSH3 0x461BCD PUSH1 0xE5 SHL DUP2 MSTORE PUSH1 0x4 ADD PUSH2 0x6DB SWAP1 PUSH2 0x215E JUMP JUMPDEST PUSH1 0x1 PUSH1 0x1 PUSH1 0xA0 SHL SUB DUP3 AND PUSH1 0x0 SWAP1 DUP2 MSTORE PUSH1 0xD PUSH1 0x20 MSTORE PUSH1 0x40 SWAP1 KECCAK256 SLOAD DUP1 PUSH2 0x14C3 JUMPI PUSH1 0x40 MLOAD PUSH3 0x461BCD PUSH1 0xE5 SHL DUP2 MSTORE PUSH1 0x20 PUSH1 0x4 DUP3 ADD MSTORE PUSH1 0x14 PUSH1 0x24 DUP3 ADD MSTORE PUSH20 0x50726F746F636F6C20666565206973207A65726F PUSH1 0x60 SHL PUSH1 0x44 DUP3 ADD MSTORE PUSH1 0x64 ADD PUSH2 0x6DB JUMP JUMPDEST PUSH1 0x1 PUSH1 0x1 PUSH1 0xA0 SHL SUB DUP4 AND PUSH1 0x0 DUP2 DUP2 MSTORE PUSH1 0xD PUSH1 0x20 MSTORE PUSH1 0x40 DUP2 KECCAK256 SSTORE DUP4 SWAP1 PUSH2 0x14E9 SWAP1 DUP5 DUP5 PUSH2 0x1D30 JUMP JUMPDEST POP POP POP POP JUMP JUMPDEST DUP1 PUSH1 0x4 SLOAD DUP2 GT ISZERO DUP1 ISZERO PUSH2 0x1502 JUMPI POP PUSH1 0x0 DUP2 GT JUMPDEST PUSH2 0x1544 JUMPI PUSH1 0x40 MLOAD PUSH3 0x461BCD PUSH1 0xE5 SHL DUP2 MSTORE PUSH1 0x20 PUSH1 0x4 DUP3 ADD MSTORE PUSH1 0x13 PUSH1 0x24 DUP3 ADD MSTORE PUSH19 0x1C995C5D595CDD1259081B9BDD081D985B1A59 PUSH1 0x6A SHL PUSH1 0x44 DUP3 ADD MSTORE PUSH1 0x64 ADD PUSH2 0x6DB JUMP JUMPDEST PUSH1 0x0 DUP3 DUP2 MSTORE PUSH1 0x8 PUSH1 0x20 MSTORE PUSH1 0x40 SWAP1 KECCAK256 PUSH1 0x6 DUP2 ADD SLOAD PUSH1 0x1 PUSH1 0x1 PUSH1 0xA0 SHL SUB AND ISZERO PUSH2 0x15A9 JUMPI PUSH1 0x40 MLOAD PUSH3 0x461BCD PUSH1 0xE5 SHL DUP2 MSTORE PUSH1 0x20 PUSH1 0x4 DUP3 ADD MSTORE PUSH1 0x19 PUSH1 0x24 DUP3 ADD MSTORE PUSH25 0x2232B837B9B4BA1030B63932B0B23C903BB4BA34323930BBB7 PUSH1 0x39 SHL PUSH1 0x44 DUP3 ADD MSTORE PUSH1 0x64 ADD PUSH2 0x6DB JUMP JUMPDEST DUP1 PUSH1 0x8 ADD SLOAD TIMESTAMP LT ISZERO PUSH2 0x15FD JUMPI PUSH1 0x40 MLOAD PUSH3 0x461BCD PUSH1 0xE5 SHL DUP2 MSTORE PUSH1 0x20 PUSH1 0x4 DUP3 ADD MSTORE PUSH1 0x17 PUSH1 0x24 DUP3 ADD MSTORE PUSH32 0x52657175657374206E6F74206578706972656420796574000000000000000000 PUSH1 0x44 DUP3 ADD MSTORE PUSH1 0x64 ADD PUSH2 0x6DB JUMP JUMPDEST PUSH1 0x7 DUP2 ADD SLOAD PUSH1 0x1 PUSH1 0x1 PUSH1 0xC0 SHL SUB AND ISZERO PUSH2 0x1650 JUMPI PUSH1 0x40 MLOAD PUSH3 0x461BCD PUSH1 0xE5 SHL DUP2 MSTORE PUSH1 0x20 PUSH1 0x4 DUP3 ADD MSTORE PUSH1 0x15 PUSH1 0x24 DUP3 ADD MSTORE PUSH21 0x41637469766520636C61696D732072756E6E696E67 PUSH1 0x58 SHL PUSH1 0x44 DUP3 ADD MSTORE PUSH1 0x64 ADD PUSH2 0x6DB JUMP JUMPDEST DUP1 SLOAD PUSH1 0x6 DUP3 ADD DUP1 SLOAD PUSH1 0x1 PUSH1 0x1 PUSH1 0xA0 SHL SUB NOT AND PUSH1 0x1 PUSH1 0x1 PUSH1 0xA0 SHL SUB SWAP1 SWAP3 AND SWAP2 DUP3 OR SWAP1 SSTORE PUSH1 0x40 DUP1 MLOAD DUP6 DUP2 MSTORE PUSH1 0x20 DUP2 ADD SWAP3 SWAP1 SWAP3 MSTORE PUSH32 0xA7B86597910AAE75F7D99FEB2F37420CC80D457465FFBA0F8136D722A9F7095A SWAP2 ADD PUSH1 0x40 MLOAD DUP1 SWAP2 SUB SWAP1 LOG1 PUSH1 0x1 DUP2 ADD SLOAD DUP2 SLOAD PUSH1 0xA DUP4 ADD SLOAD PUSH1 0x9 DUP5 ADD SLOAD PUSH1 0x5 DUP6 ADD SLOAD PUSH1 0x1 PUSH1 0x1 PUSH1 0xA0 SHL SUB SWAP5 DUP6 AND SWAP5 PUSH2 0x14E9 SWAP5 AND SWAP3 SWAP2 PUSH2 0x16DE SWAP2 PUSH2 0x212D JUMP JUMPDEST PUSH2 0x16E8 SWAP2 SWAP1 PUSH2 0x212D JUMP JUMPDEST PUSH1 0x1 PUSH1 0x1 PUSH1 0xA0 SHL SUB DUP5 AND SWAP2 SWAP1 PUSH2 0x1D30 JUMP JUMPDEST PUSH1 0x0 SLOAD PUSH1 0x1 PUSH1 0x1 PUSH1 0xA0 SHL SUB AND CALLER EQ PUSH2 0x1723 JUMPI PUSH1 0x40 MLOAD PUSH3 0x461BCD PUSH1 0xE5 SHL DUP2 MSTORE PUSH1 0x4 ADD PUSH2 0x6DB SWAP1 PUSH2 0x215E JUMP JUMPDEST PUSH1 0x1 PUSH1 0x1 PUSH1 0xA0 SHL SUB DUP2 AND PUSH2 0x1788 JUMPI PUSH1 0x40 MLOAD PUSH3 0x461BCD PUSH1 0xE5 SHL DUP2 MSTORE PUSH1 0x20 PUSH1 0x4 DUP3 ADD MSTORE PUSH1 0x26 PUSH1 0x24 DUP3 ADD MSTORE PUSH32 0x4F776E61626C653A206E6577206F776E657220697320746865207A65726F2061 PUSH1 0x44 DUP3 ADD MSTORE PUSH6 0x646472657373 PUSH1 0xD0 SHL PUSH1 0x64 DUP3 ADD MSTORE PUSH1 0x84 ADD PUSH2 0x6DB JUMP JUMPDEST PUSH2 0x1791 DUP2 PUSH2 0x1CC7 JUMP JUMPDEST POP JUMP JUMPDEST PUSH1 0x0 PUSH2 0x10F5 PUSH1 0xA SLOAD PUSH3 0xF4240 PUSH1 0xB SLOAD DUP6 PUSH2 0x17AE SWAP2 SWAP1 PUSH2 0x21E9 JUMP JUMPDEST PUSH2 0xFC3 SWAP2 SWAP1 PUSH2 0x2208 JUMP JUMPDEST PUSH1 0x0 DUP2 DUP2 MSTORE PUSH1 0x9 PUSH1 0x20 SWAP1 DUP2 MSTORE PUSH1 0x40 DUP1 DUP4 KECCAK256 DUP1 SLOAD DUP5 MSTORE PUSH1 0x8 SWAP1 SWAP3 MSTORE DUP3 KECCAK256 PUSH1 0x2 DUP3 ADD SLOAD PUSH1 0x5 DUP4 ADD SLOAD DUP5 SWAP4 SWAP3 SWAP2 SWAP1 PUSH2 0x17ED DUP2 DUP4 PUSH2 0x212D JUMP JUMPDEST DUP5 PUSH1 0x6 ADD SLOAD LT PUSH2 0x183F JUMPI PUSH1 0x40 MLOAD PUSH3 0x461BCD PUSH1 0xE5 SHL DUP2 MSTORE PUSH1 0x20 PUSH1 0x4 DUP3 ADD MSTORE PUSH1 0x17 PUSH1 0x24 DUP3 ADD MSTORE PUSH32 0x436C61696D20616C72656164792077697468647261776E000000000000000000 PUSH1 0x44 DUP3 ADD MSTORE PUSH1 0x64 ADD PUSH2 0x6DB JUMP JUMPDEST DUP4 SLOAD PUSH1 0x2 DUP5 ADD SLOAD PUSH1 0x3 DUP6 ADD SLOAD PUSH1 0x4 DUP7 ADD SLOAD PUSH1 0x5 DUP8 ADD SLOAD PUSH1 0x8 DUP10 ADD SLOAD PUSH1 0x40 DUP1 MLOAD PUSH1 0x20 DUP1 DUP3 ADD SWAP9 SWAP1 SWAP9 MSTORE CHAINID DUP2 DUP4 ADD MSTORE PUSH1 0x60 DUP1 DUP3 ADD SWAP8 SWAP1 SWAP8 MSTORE PUSH12 0xFFFFFFFFFFFFFFFFFFFFFFFF NOT SWAP6 DUP8 SHL DUP7 AND PUSH1 0x80 DUP3 ADD MSTORE SWAP4 SWAP1 SWAP6 SHL SWAP1 SWAP4 AND PUSH1 0x94 DUP4 ADD MSTORE PUSH1 0xA8 DUP1 DUP4 ADD SWAP2 SWAP1 SWAP2 MSTORE DUP4 MLOAD DUP1 DUP4 SUB SWAP1 SWAP2 ADD DUP2 MSTORE PUSH1 0xC8 DUP3 ADD DUP5 MSTORE DUP1 MLOAD SWAP1 DUP6 ADD KECCAK256 PUSH1 0xE8 DUP3 ADD MSTORE PUSH2 0x108 DUP1 DUP3 ADD SWAP3 SWAP1 SWAP3 MSTORE DUP3 MLOAD DUP1 DUP3 SUB SWAP1 SWAP3 ADD DUP3 MSTORE PUSH2 0x128 ADD SWAP1 SWAP2 MSTORE DUP1 MLOAD SWAP2 ADD KECCAK256 PUSH1 0x0 SWAP1 PUSH1 0x6 DUP6 DUP2 ADD SLOAD SWAP1 SLOAD PUSH1 0x40 MLOAD PUSH4 0xA64A2271 PUSH1 0xE0 SHL DUP2 MSTORE PUSH1 0x4 DUP2 ADD DUP5 SWAP1 MSTORE SWAP3 SWAP4 POP PUSH1 0x0 SWAP3 PUSH1 0x1 PUSH1 0x1 PUSH1 0xA0 SHL SUB SWAP3 DUP4 AND SWAP3 DUP5 SWAP3 AND SWAP1 PUSH4 0xA64A2271 SWAP1 PUSH1 0x24 ADD PUSH1 0x20 PUSH1 0x40 MLOAD DUP1 DUP4 SUB DUP2 DUP7 GAS STATICCALL ISZERO DUP1 ISZERO PUSH2 0x1938 JUMPI RETURNDATASIZE PUSH1 0x0 DUP1 RETURNDATACOPY RETURNDATASIZE PUSH1 0x0 REVERT JUMPDEST POP POP POP POP PUSH1 0x40 MLOAD RETURNDATASIZE PUSH1 0x1F NOT PUSH1 0x1F DUP3 ADD AND DUP3 ADD DUP1 PUSH1 0x40 MSTORE POP DUP2 ADD SWAP1 PUSH2 0x195C SWAP2 SWAP1 PUSH2 0x2255 JUMP JUMPDEST SWAP1 POP PUSH1 0x1 PUSH1 0x1 PUSH1 0xA0 SHL SUB DUP2 AND PUSH2 0x196F JUMPI POP DUP1 JUMPDEST PUSH1 0x6 SLOAD PUSH1 0x40 MLOAD PUSH4 0xA751732F PUSH1 0xE0 SHL DUP2 MSTORE PUSH1 0x4 DUP2 ADD DUP7 SWAP1 MSTORE PUSH1 0x1 PUSH1 0x1 PUSH1 0xA0 SHL SUB SWAP1 SWAP2 AND SWAP1 PUSH4 0xA751732F SWAP1 PUSH1 0x24 ADD PUSH1 0x20 PUSH1 0x40 MLOAD DUP1 DUP4 SUB DUP2 DUP7 GAS STATICCALL ISZERO DUP1 ISZERO PUSH2 0x19B8 JUMPI RETURNDATASIZE PUSH1 0x0 DUP1 RETURNDATACOPY RETURNDATASIZE PUSH1 0x0 REVERT JUMPDEST POP POP POP POP PUSH1 0x40 MLOAD RETURNDATASIZE PUSH1 0x1F NOT PUSH1 0x1F DUP3 ADD AND DUP3 ADD DUP1 PUSH1 0x40 MSTORE POP DUP2 ADD SWAP1 PUSH2 0x19DC SWAP2 SWAP1 PUSH2 0x2272 JUMP JUMPDEST ISZERO PUSH2 0x19EA JUMPI PUSH1 0x0 SWAP3 POP PUSH2 0x1A6D JUMP JUMPDEST PUSH1 0x1 PUSH1 0x1 PUSH1 0xA0 SHL SUB DUP2 AND ISZERO PUSH2 0x1A13 JUMPI PUSH1 0x1 DUP9 ADD SLOAD PUSH1 0x1 PUSH1 0x1 PUSH1 0xA0 SHL SUB DUP3 DUP2 AND SWAP2 AND EQ SWAP3 POP PUSH2 0x1A6D JUMP JUMPDEST DUP8 PUSH1 0x7 ADD SLOAD TIMESTAMP LT ISZERO PUSH2 0x1A67 JUMPI PUSH1 0x40 MLOAD PUSH3 0x461BCD PUSH1 0xE5 SHL DUP2 MSTORE PUSH1 0x20 PUSH1 0x4 DUP3 ADD MSTORE PUSH1 0x19 PUSH1 0x24 DUP3 ADD MSTORE PUSH32 0x436C61696D20706572696F64206E6F742066696E697368656400000000000000 PUSH1 0x44 DUP3 ADD MSTORE PUSH1 0x64 ADD PUSH2 0x6DB JUMP JUMPDEST DUP5 DUP7 GT SWAP3 POP JUMPDEST PUSH1 0x0 DUP1 DUP5 ISZERO PUSH2 0x1A98 JUMPI PUSH2 0x1A80 DUP8 DUP10 PUSH2 0x212D JUMP JUMPDEST PUSH1 0x1 DUP12 ADD SLOAD SWAP1 SWAP3 POP PUSH1 0x1 PUSH1 0x1 PUSH1 0xA0 SHL SUB AND SWAP1 POP PUSH2 0x1B31 JUMP JUMPDEST DUP7 ISZERO PUSH2 0x1B20 JUMPI CALLER PUSH1 0x0 SWAP1 DUP2 MSTORE PUSH1 0x3 DUP12 ADD PUSH1 0x20 MSTORE PUSH1 0x40 SWAP1 KECCAK256 SLOAD PUSH2 0x1ABB SWAP1 PUSH1 0x2 PUSH2 0x21E9 JUMP JUMPDEST SWAP2 POP CALLER SWAP1 POP PUSH1 0x0 DUP3 GT PUSH2 0x1B1B JUMPI PUSH1 0x40 MLOAD PUSH3 0x461BCD PUSH1 0xE5 SHL DUP2 MSTORE PUSH1 0x20 PUSH1 0x4 DUP3 ADD MSTORE PUSH1 0x22 PUSH1 0x24 DUP3 ADD MSTORE PUSH32 0x4368616C6C656E67657220686173206E6F7468696E6720746F20776974686472 PUSH1 0x44 DUP3 ADD MSTORE PUSH2 0x6177 PUSH1 0xF0 SHL PUSH1 0x64 DUP3 ADD MSTORE PUSH1 0x84 ADD PUSH2 0x6DB JUMP JUMPDEST PUSH2 0x1B31 JUMP JUMPDEST POP POP PUSH1 0x0 SLOAD DUP7 SWAP1 PUSH1 0x1 PUSH1 0x1 PUSH1 0xA0 SHL SUB AND JUMPDEST PUSH1 0x4 DUP11 ADD SLOAD PUSH1 0x1 PUSH1 0x1 PUSH1 0xA0 SHL SUB AND CALLER SUB PUSH2 0x1B7F JUMPI DUP7 DUP9 GT ISZERO PUSH2 0x1B68 JUMPI PUSH2 0x1B57 DUP8 DUP10 PUSH2 0x2193 JUMP JUMPDEST PUSH2 0x1B61 SWAP1 DUP4 PUSH2 0x212D JUMP JUMPDEST SWAP2 POP PUSH2 0x1B7F JUMP JUMPDEST PUSH2 0x1B72 DUP9 DUP9 PUSH2 0x2193 JUMP JUMPDEST PUSH2 0x1B7C SWAP1 DUP4 PUSH2 0x2193 JUMP JUMPDEST SWAP2 POP JUMPDEST SWAP13 SWAP1 SWAP12 POP SWAP10 POP POP POP POP POP POP POP POP POP POP JUMP JUMPDEST DUP2 SLOAD PUSH1 0x40 DUP1 MLOAD SWAP2 DUP3 MSTORE PUSH1 0x1 PUSH1 0x1 PUSH1 0xA0 SHL SUB DUP4 AND PUSH1 0x20 DUP4 ADD MSTORE PUSH32 0xA7B86597910AAE75F7D99FEB2F37420CC80D457465FFBA0F8136D722A9F7095A SWAP2 ADD PUSH1 0x40 MLOAD DUP1 SWAP2 SUB SWAP1 LOG1 PUSH1 0xA DUP4 ADD SLOAD PUSH1 0x1 DUP5 ADD SLOAD PUSH1 0x1 PUSH1 0x1 PUSH1 0xA0 SHL SUB AND PUSH1 0x0 SWAP1 DUP2 MSTORE PUSH1 0xD PUSH1 0x20 MSTORE PUSH1 0x40 DUP2 KECCAK256 DUP1 SLOAD SWAP1 SWAP2 SWAP1 PUSH2 0x1C04 SWAP1 DUP5 SWAP1 PUSH2 0x212D JUMP JUMPDEST SWAP1 SWAP2 SSTORE POP POP PUSH1 0x1 DUP4 ADD SLOAD PUSH1 0x9 DUP5 ADD SLOAD PUSH1 0x5 DUP6 ADD SLOAD PUSH1 0x1 PUSH1 0x1 PUSH1 0xA0 SHL SUB SWAP1 SWAP3 AND SWAP2 PUSH2 0x1C34 SWAP2 DUP5 SWAP2 PUSH2 0x16E8 SWAP2 SWAP1 PUSH2 0x212D JUMP JUMPDEST POP PUSH1 0x6 SWAP3 SWAP1 SWAP3 ADD DUP1 SLOAD PUSH1 0x1 PUSH1 0x1 PUSH1 0xA0 SHL SUB NOT AND PUSH1 0x1 PUSH1 0x1 PUSH1 0xA0 SHL SUB SWAP1 SWAP4 AND SWAP3 SWAP1 SWAP3 OR SWAP1 SWAP2 SSTORE POP JUMP JUMPDEST PUSH1 0x40 MLOAD PUSH1 0x1 PUSH1 0x1 PUSH1 0xA0 SHL SUB DUP1 DUP6 AND PUSH1 0x24 DUP4 ADD MSTORE DUP4 AND PUSH1 0x44 DUP3 ADD MSTORE PUSH1 0x64 DUP2 ADD DUP3 SWAP1 MSTORE PUSH2 0x14E9 SWAP1 DUP6 SWAP1 PUSH4 0x23B872DD PUSH1 0xE0 SHL SWAP1 PUSH1 0x84 ADD JUMPDEST PUSH1 0x40 DUP1 MLOAD PUSH1 0x1F NOT DUP2 DUP5 SUB ADD DUP2 MSTORE SWAP2 SWAP1 MSTORE PUSH1 0x20 DUP2 ADD DUP1 MLOAD PUSH1 0x1 PUSH1 0x1 PUSH1 0xE0 SHL SUB AND PUSH1 0x1 PUSH1 0x1 PUSH1 0xE0 SHL SUB NOT SWAP1 SWAP4 AND SWAP3 SWAP1 SWAP3 OR SWAP1 SWAP2 MSTORE PUSH2 0x1D65 JUMP JUMPDEST PUSH1 0x0 DUP1 SLOAD PUSH1 0x1 PUSH1 0x1 PUSH1 0xA0 SHL SUB DUP4 DUP2 AND PUSH1 0x1 PUSH1 0x1 PUSH1 0xA0 SHL SUB NOT DUP4 AND DUP2 OR DUP5 SSTORE PUSH1 0x40 MLOAD SWAP2 SWAP1 SWAP3 AND SWAP3 DUP4 SWAP2 PUSH32 0x8BE0079C531659141344CD1FD0A4F28419497F9722A3DAAFE3B4186F6B6457E0 SWAP2 SWAP1 LOG3 POP POP JUMP JUMPDEST PUSH1 0x0 DUP2 DUP4 LT ISZERO PUSH2 0x1D27 JUMPI DUP2 PUSH2 0x1D29 JUMP JUMPDEST DUP3 JUMPDEST SWAP4 SWAP3 POP POP POP JUMP JUMPDEST PUSH1 0x40 MLOAD PUSH1 0x1 PUSH1 0x1 PUSH1 0xA0 SHL SUB DUP4 AND PUSH1 0x24 DUP3 ADD MSTORE PUSH1 0x44 DUP2 ADD DUP3 SWAP1 MSTORE PUSH2 0x1D60 SWAP1 DUP5 SWAP1 PUSH4 0xA9059CBB PUSH1 0xE0 SHL SWAP1 PUSH1 0x64 ADD PUSH2 0x1C90 JUMP JUMPDEST POP POP POP JUMP JUMPDEST PUSH1 0x0 PUSH2 0x1DBA DUP3 PUSH1 0x40 MLOAD DUP1 PUSH1 0x40 ADD PUSH1 0x40 MSTORE DUP1 PUSH1 0x20 DUP2 MSTORE PUSH1 0x20 ADD PUSH32 0x5361666545524332303A206C6F772D6C6576656C2063616C6C206661696C6564 DUP2 MSTORE POP DUP6 PUSH1 0x1 PUSH1 0x1 PUSH1 0xA0 SHL SUB AND PUSH2 0x1E37 SWAP1 SWAP3 SWAP2 SWAP1 PUSH4 0xFFFFFFFF AND JUMP JUMPDEST DUP1 MLOAD SWAP1 SWAP2 POP ISZERO PUSH2 0x1D60 JUMPI DUP1 DUP1 PUSH1 0x20 ADD SWAP1 MLOAD DUP2 ADD SWAP1 PUSH2 0x1DD8 SWAP2 SWAP1 PUSH2 0x2272 JUMP JUMPDEST PUSH2 0x1D60 JUMPI PUSH1 0x40 MLOAD PUSH3 0x461BCD PUSH1 0xE5 SHL DUP2 MSTORE PUSH1 0x20 PUSH1 0x4 DUP3 ADD MSTORE PUSH1 0x2A PUSH1 0x24 DUP3 ADD MSTORE PUSH32 0x5361666545524332303A204552433230206F7065726174696F6E20646964206E PUSH1 0x44 DUP3 ADD MSTORE PUSH10 0x1BDD081CDD58D8D95959 PUSH1 0xB2 SHL PUSH1 0x64 DUP3 ADD MSTORE PUSH1 0x84 ADD PUSH2 0x6DB JUMP JUMPDEST PUSH1 0x60 PUSH2 0x1E46 DUP5 DUP5 PUSH1 0x0 DUP6 PUSH2 0x1E4E JUMP JUMPDEST SWAP5 SWAP4 POP POP POP POP JUMP JUMPDEST PUSH1 0x60 DUP3 SELFBALANCE LT ISZERO PUSH2 0x1EAF JUMPI PUSH1 0x40 MLOAD PUSH3 0x461BCD PUSH1 0xE5 SHL DUP2 MSTORE PUSH1 0x20 PUSH1 0x4 DUP3 ADD MSTORE PUSH1 0x26 PUSH1 0x24 DUP3 ADD MSTORE PUSH32 0x416464726573733A20696E73756666696369656E742062616C616E636520666F PUSH1 0x44 DUP3 ADD MSTORE PUSH6 0x1C8818D85B1B PUSH1 0xD2 SHL PUSH1 0x64 DUP3 ADD MSTORE PUSH1 0x84 ADD PUSH2 0x6DB JUMP JUMPDEST PUSH1 0x1 PUSH1 0x1 PUSH1 0xA0 SHL SUB DUP6 AND EXTCODESIZE PUSH2 0x1F06 JUMPI PUSH1 0x40 MLOAD PUSH3 0x461BCD PUSH1 0xE5 SHL DUP2 MSTORE PUSH1 0x20 PUSH1 0x4 DUP3 ADD MSTORE PUSH1 0x1D PUSH1 0x24 DUP3 ADD MSTORE PUSH32 0x416464726573733A2063616C6C20746F206E6F6E2D636F6E7472616374000000 PUSH1 0x44 DUP3 ADD MSTORE PUSH1 0x64 ADD PUSH2 0x6DB JUMP JUMPDEST PUSH1 0x0 DUP1 DUP7 PUSH1 0x1 PUSH1 0x1 PUSH1 0xA0 SHL SUB AND DUP6 DUP8 PUSH1 0x40 MLOAD PUSH2 0x1F22 SWAP2 SWAP1 PUSH2 0x22C0 JUMP JUMPDEST PUSH1 0x0 PUSH1 0x40 MLOAD DUP1 DUP4 SUB DUP2 DUP6 DUP8 GAS CALL SWAP3 POP POP POP RETURNDATASIZE DUP1 PUSH1 0x0 DUP2 EQ PUSH2 0x1F5F JUMPI PUSH1 0x40 MLOAD SWAP2 POP PUSH1 0x1F NOT PUSH1 0x3F RETURNDATASIZE ADD AND DUP3 ADD PUSH1 0x40 MSTORE RETURNDATASIZE DUP3 MSTORE RETURNDATASIZE PUSH1 0x0 PUSH1 0x20 DUP5 ADD RETURNDATACOPY PUSH2 0x1F64 JUMP JUMPDEST PUSH1 0x60 SWAP2 POP JUMPDEST POP SWAP2 POP SWAP2 POP PUSH2 0x1F74 DUP3 DUP3 DUP7 PUSH2 0x1F7F JUMP JUMPDEST SWAP8 SWAP7 POP POP POP POP POP POP POP JUMP JUMPDEST PUSH1 0x60 DUP4 ISZERO PUSH2 0x1F8E JUMPI POP DUP2 PUSH2 0x1D29 JUMP JUMPDEST DUP3 MLOAD ISZERO PUSH2 0x1F9E JUMPI DUP3 MLOAD DUP1 DUP5 PUSH1 0x20 ADD REVERT JUMPDEST DUP2 PUSH1 0x40 MLOAD PUSH3 0x461BCD PUSH1 0xE5 SHL DUP2 MSTORE PUSH1 0x4 ADD PUSH2 0x6DB SWAP2 SWAP1 PUSH2 0x22DC JUMP JUMPDEST PUSH1 0x0 PUSH1 0x20 DUP3 DUP5 SUB SLT ISZERO PUSH2 0x1FCA JUMPI PUSH1 0x0 DUP1 REVERT JUMPDEST POP CALLDATALOAD SWAP2 SWAP1 POP JUMP JUMPDEST PUSH1 0x1 PUSH1 0x1 PUSH1 0xA0 SHL SUB DUP2 AND DUP2 EQ PUSH2 0x1791 JUMPI PUSH1 0x0 DUP1 REVERT JUMPDEST PUSH1 0x0 DUP1 PUSH1 0x0 DUP1 PUSH1 0x0 DUP1 PUSH1 0xC0 DUP8 DUP10 SUB SLT ISZERO PUSH2 0x1FFF JUMPI PUSH1 0x0 DUP1 REVERT JUMPDEST DUP7 CALLDATALOAD SWAP6 POP PUSH1 0x20 DUP8 ADD CALLDATALOAD PUSH2 0x2011 DUP2 PUSH2 0x1FD1 JUMP JUMPDEST SWAP5 POP PUSH1 0x40 DUP8 ADD CALLDATALOAD PUSH2 0x2021 DUP2 PUSH2 0x1FD1 JUMP JUMPDEST SWAP4 POP PUSH1 0x60 DUP8 ADD CALLDATALOAD PUSH2 0x2031 DUP2 PUSH2 0x1FD1 JUMP JUMPDEST SWAP6 SWAP9 SWAP5 SWAP8 POP SWAP3 SWAP6 PUSH1 0x80 DUP2 ADD CALLDATALOAD SWAP5 PUSH1 0xA0 SWAP1 SWAP2 ADD CALLDATALOAD SWAP4 POP SWAP2 POP POP JUMP JUMPDEST PUSH1 0x0 PUSH1 0x20 DUP3 DUP5 SUB SLT ISZERO PUSH2 0x205D JUMPI PUSH1 0x0 DUP1 REVERT JUMPDEST DUP2 CALLDATALOAD PUSH2 0x1D29 DUP2 PUSH2 0x1FD1 JUMP JUMPDEST PUSH1 0x0 DUP1 PUSH1 0x0 PUSH1 0x60 DUP5 DUP7 SUB SLT ISZERO PUSH2 0x207D JUMPI PUSH1 0x0 DUP1 REVERT JUMPDEST POP POP DUP2 CALLDATALOAD SWAP4 PUSH1 0x20 DUP4 ADD CALLDATALOAD SWAP4 POP PUSH1 0x40 SWAP1 SWAP3 ADD CALLDATALOAD SWAP2 SWAP1 POP JUMP JUMPDEST PUSH1 0x0 DUP1 PUSH1 0x40 DUP4 DUP6 SUB SLT ISZERO PUSH2 0x20A7 JUMPI PUSH1 0x0 DUP1 REVERT JUMPDEST POP POP DUP1 CALLDATALOAD SWAP3 PUSH1 0x20 SWAP1 SWAP2 ADD CALLDATALOAD SWAP2 POP JUMP JUMPDEST PUSH1 0x0 DUP1 PUSH1 0x40 DUP4 DUP6 SUB SLT ISZERO PUSH2 0x20C9 JUMPI PUSH1 0x0 DUP1 REVERT JUMPDEST DUP3 CALLDATALOAD PUSH2 0x20D4 DUP2 PUSH2 0x1FD1 JUMP JUMPDEST SWAP2 POP PUSH1 0x20 DUP4 ADD CALLDATALOAD PUSH2 0x20E4 DUP2 PUSH2 0x1FD1 JUMP JUMPDEST DUP1 SWAP2 POP POP SWAP3 POP SWAP3 SWAP1 POP JUMP JUMPDEST PUSH4 0x4E487B71 PUSH1 0xE0 SHL PUSH1 0x0 MSTORE PUSH1 0x11 PUSH1 0x4 MSTORE PUSH1 0x24 PUSH1 0x0 REVERT JUMPDEST PUSH1 0x0 PUSH1 0x1 PUSH1 0x1 PUSH1 0xC0 SHL SUB DUP4 DUP2 AND SWAP1 DUP4 AND DUP2 DUP2 LT ISZERO PUSH2 0x2125 JUMPI PUSH2 0x2125 PUSH2 0x20EF JUMP JUMPDEST SUB SWAP4 SWAP3 POP POP POP JUMP JUMPDEST PUSH1 0x0 DUP3 NOT DUP3 GT ISZERO PUSH2 0x2140 JUMPI PUSH2 0x2140 PUSH2 0x20EF JUMP JUMPDEST POP ADD SWAP1 JUMP JUMPDEST PUSH1 0x0 PUSH1 0x20 DUP3 DUP5 SUB SLT ISZERO PUSH2 0x2157 JUMPI PUSH1 0x0 DUP1 REVERT JUMPDEST POP MLOAD SWAP2 SWAP1 POP JUMP JUMPDEST PUSH1 0x20 DUP1 DUP3 MSTORE DUP2 DUP2 ADD MSTORE PUSH32 0x4F776E61626C653A2063616C6C6572206973206E6F7420746865206F776E6572 PUSH1 0x40 DUP3 ADD MSTORE PUSH1 0x60 ADD SWAP1 JUMP JUMPDEST PUSH1 0x0 DUP3 DUP3 LT ISZERO PUSH2 0x21A5 JUMPI PUSH2 0x21A5 PUSH2 0x20EF JUMP JUMPDEST POP SUB SWAP1 JUMP JUMPDEST SWAP7 DUP8 MSTORE PUSH1 0x1 PUSH1 0x1 PUSH1 0xA0 SHL SUB SWAP6 DUP7 AND PUSH1 0x20 DUP9 ADD MSTORE PUSH1 0x40 DUP8 ADD SWAP5 SWAP1 SWAP5 MSTORE SWAP2 SWAP1 SWAP4 AND PUSH1 0x60 DUP6 ADD MSTORE PUSH1 0x80 DUP5 ADD SWAP3 SWAP1 SWAP3 MSTORE PUSH1 0xA0 DUP4 ADD SWAP2 SWAP1 SWAP2 MSTORE PUSH1 0xC0 DUP3 ADD MSTORE PUSH1 0xE0 ADD SWAP1 JUMP JUMPDEST PUSH1 0x0 DUP2 PUSH1 0x0 NOT DIV DUP4 GT DUP3 ISZERO ISZERO AND ISZERO PUSH2 0x2203 JUMPI PUSH2 0x2203 PUSH2 0x20EF JUMP JUMPDEST POP MUL SWAP1 JUMP JUMPDEST PUSH1 0x0 DUP3 PUSH2 0x2225 JUMPI PUSH4 0x4E487B71 PUSH1 0xE0 SHL PUSH1 0x0 MSTORE PUSH1 0x12 PUSH1 0x4 MSTORE PUSH1 0x24 PUSH1 0x0 REVERT JUMPDEST POP DIV SWAP1 JUMP JUMPDEST PUSH1 0x0 PUSH1 0x1 PUSH1 0x1 PUSH1 0xC0 SHL SUB DUP3 DUP2 AND DUP5 DUP3 AND DUP1 DUP4 SUB DUP3 GT ISZERO PUSH2 0x224C JUMPI PUSH2 0x224C PUSH2 0x20EF JUMP JUMPDEST ADD SWAP5 SWAP4 POP POP POP POP JUMP JUMPDEST PUSH1 0x0 PUSH1 0x20 DUP3 DUP5 SUB SLT ISZERO PUSH2 0x2267 JUMPI PUSH1 0x0 DUP1 REVERT JUMPDEST DUP2 MLOAD PUSH2 0x1D29 DUP2 PUSH2 0x1FD1 JUMP JUMPDEST PUSH1 0x0 PUSH1 0x20 DUP3 DUP5 SUB SLT ISZERO PUSH2 0x2284 JUMPI PUSH1 0x0 DUP1 REVERT JUMPDEST DUP2 MLOAD DUP1 ISZERO ISZERO DUP2 EQ PUSH2 0x1D29 JUMPI PUSH1 0x0 DUP1 REVERT JUMPDEST PUSH1 0x0 JUMPDEST DUP4 DUP2 LT ISZERO PUSH2 0x22AF JUMPI DUP2 DUP2 ADD MLOAD DUP4 DUP3 ADD MSTORE PUSH1 0x20 ADD PUSH2 0x2297 JUMP JUMPDEST DUP4 DUP2 GT ISZERO PUSH2 0x14E9 JUMPI POP POP PUSH1 0x0 SWAP2 ADD MSTORE JUMP JUMPDEST PUSH1 0x0 DUP3 MLOAD PUSH2 0x22D2 DUP2 DUP5 PUSH1 0x20 DUP8 ADD PUSH2 0x2294 JUMP JUMPDEST SWAP2 SWAP1 SWAP2 ADD SWAP3 SWAP2 POP POP JUMP JUMPDEST PUSH1 0x20 DUP2 MSTORE PUSH1 0x0 DUP3 MLOAD DUP1 PUSH1 0x20 DUP5 ADD MSTORE PUSH2 0x22FB DUP2 PUSH1 0x40 DUP6 ADD PUSH1 0x20 DUP8 ADD PUSH2 0x2294 JUMP JUMPDEST PUSH1 0x1F ADD PUSH1 0x1F NOT AND SWAP2 SWAP1 SWAP2 ADD PUSH1 0x40 ADD SWAP3 SWAP2 POP POP JUMP INVALID LOG2 PUSH5 0x6970667358 0x22 SLT KECCAK256 0xCE 0xD4 0xEE XOR 0xEB 0x5C EXTCODECOPY PUSH21 0x440897B6013E5A5856A0B20BC78FF8F3C6705A99A6 0x1E 0xBD EXP PUSH5 0x736F6C6343 STOP ADDMOD 0xE STOP CALLER ",
  "sha1": "fbcaa4ab0b1a8eda5d373533c43c3d04d008dd6b",
  "source": "// SPDX-License-Identifier: MIT\npragma solidity ^0.8.12;\n\nimport \"OpenZeppelin/openzeppelin-contracts@4.5.0/contracts/token/ERC20/IERC20.sol\";\nimport \"OpenZeppelin/openzeppelin-contracts@4.5.0/contracts/token/ERC20/utils/SafeERC20.sol\";\nimport \"OpenZeppelin/openzeppelin-contracts@4.5.0/contracts/utils/math/Math.sol\";\nimport \"OpenZeppelin/openzeppelin-contracts@4.5.0/contracts/access/Ownable.sol\";\n\nimport \"./BeamerUtils.sol\";\nimport \"./ResolutionRegistry.sol\";\n\ncontract RequestManager is Ownable {\n    using Math for uint256;\n    using SafeERC20 for IERC20;\n\n    // Structs\n    // TODO: check if we can use a smaller type for `targetChainId`, so that the\n    // fields can be packed into one storage slot\n    struct Request {\n        address sender;\n        address sourceTokenAddress;\n        uint256 targetChainId;\n        address targetTokenAddress;\n        address targetAddress;\n        uint256 amount;\n        address depositReceiver;\n        uint192 activeClaims;\n        uint256 validUntil;\n        uint256 lpFee;\n        uint256 protocolFee;\n    }\n\n    struct Claim {\n        uint256 requestId;\n        address claimer;\n        uint256 claimerStake;\n        mapping(address => uint256) challengersStakes;\n        address lastChallenger;\n        uint256 challengerStakeTotal;\n        uint256 withdrawnAmount;\n        uint256 termination;\n        bytes32 fillId;\n    }\n\n    // Events\n    event RequestCreated(\n        uint256 requestId,\n        uint256 targetChainId,\n        address sourceTokenAddress,\n        address targetTokenAddress,\n        address targetAddress,\n        uint256 amount,\n        uint256 validUntil\n    );\n\n    event DepositWithdrawn(uint256 requestId, address receiver);\n\n    event ClaimMade(\n        uint256 indexed requestId,\n        uint256 claimId,\n        address claimer,\n        uint256 claimerStake,\n        address lastChallenger,\n        uint256 challengerStakeTotal,\n        uint256 termination,\n        bytes32 fillId\n    );\n\n    event ClaimWithdrawn(\n        uint256 claimId,\n        uint256 indexed requestId,\n        address claimReceiver\n    );\n\n    // Constants\n    uint256 public claimStake;\n    uint256 public claimPeriod;\n    uint256 public challengePeriodExtension;\n\n    uint256 public constant MIN_VALIDITY_PERIOD = 5 minutes;\n    uint256 public constant MAX_VALIDITY_PERIOD = 52 weeks;\n\n    // Variables\n    uint256 public requestCounter;\n    uint256 public claimCounter;\n    ResolutionRegistry public resolutionRegistry;\n\n    mapping(uint256 => uint256) public finalizationTimes; // target rollup chain id => finalization time\n\n    mapping(uint256 => Request) public requests;\n    mapping(uint256 => Claim) public claims;\n\n    uint256 public minLpFee = 5 ether; // 5e18\n    uint256 public lpFeePPM = 1_000; // 0.1% of the token amount being transferred\n    uint256 public protocolFeePPM = 0; // 0% of the token amount being transferred\n\n    // Protocol fee tracking: ERC20 token address => amount\n    mapping(address => uint256) public collectedProtocolFees;\n\n    function lpFee(uint256 amount) public view returns (uint256) {\n        return Math.max(minLpFee, (amount * lpFeePPM) / 1_000_000);\n    }\n\n    function protocolFee(uint256 amount) public view returns (uint256) {\n        return (amount * protocolFeePPM) / 1_000_000;\n    }\n\n    function totalFee(uint256 amount) public view returns (uint256) {\n        return lpFee(amount) + protocolFee(amount);\n    }\n\n    // Modifiers\n    modifier validRequestId(uint256 requestId) {\n        require(\n            requestId <= requestCounter && requestId > 0,\n            \"requestId not valid\"\n        );\n        _;\n    }\n\n    modifier validClaimId(uint256 claimId) {\n        require(claimId <= claimCounter && claimId > 0, \"claimId not valid\");\n        _;\n    }\n\n    constructor(\n        uint256 _claimStake,\n        uint256 _claimPeriod,\n        uint256 _challengePeriodExtension,\n        address _resolutionRegistry\n    ) {\n        claimStake = _claimStake;\n        claimPeriod = _claimPeriod;\n        challengePeriodExtension = _challengePeriodExtension;\n        resolutionRegistry = ResolutionRegistry(_resolutionRegistry);\n    }\n\n    function createRequest(\n        uint256 targetChainId,\n        address sourceTokenAddress,\n        address targetTokenAddress,\n        address targetAddress,\n        uint256 amount,\n        uint256 validityPeriod\n    ) external payable returns (uint256) {\n        require(\n            finalizationTimes[targetChainId] != 0,\n            \"Target rollup not supported\"\n        );\n        require(\n            validityPeriod >= MIN_VALIDITY_PERIOD,\n            \"Validity period too short\"\n        );\n        require(\n            validityPeriod <= MAX_VALIDITY_PERIOD,\n            \"Validity period too long\"\n        );\n\n        IERC20 token = IERC20(sourceTokenAddress);\n\n        uint256 lpFee = lpFee(amount);\n        uint256 protocolFee = protocolFee(amount);\n        uint256 totalTokenAmount = amount + lpFee + protocolFee;\n\n        require(\n            token.allowance(msg.sender, address(this)) >= totalTokenAmount,\n            \"Insufficient allowance\"\n        );\n\n        requestCounter += 1;\n        Request storage newRequest = requests[requestCounter];\n        newRequest.sender = msg.sender;\n        newRequest.sourceTokenAddress = sourceTokenAddress;\n        newRequest.targetChainId = targetChainId;\n        newRequest.targetTokenAddress = targetTokenAddress;\n        newRequest.targetAddress = targetAddress;\n        newRequest.amount = amount;\n        newRequest.depositReceiver = address(0);\n        newRequest.validUntil = block.timestamp + validityPeriod;\n        newRequest.lpFee = lpFee;\n        newRequest.protocolFee = protocolFee;\n\n        emit RequestCreated(\n            requestCounter,\n            targetChainId,\n            sourceTokenAddress,\n            targetTokenAddress,\n            targetAddress,\n            amount,\n            newRequest.validUntil\n        );\n\n        token.safeTransferFrom(msg.sender, address(this), totalTokenAmount);\n\n        return requestCounter;\n    }\n\n    function withdrawExpiredRequest(uint256 requestId)\n        external\n        validRequestId(requestId)\n    {\n        Request storage request = requests[requestId];\n\n        require(\n            request.depositReceiver == address(0),\n            \"Deposit already withdrawn\"\n        );\n        require(\n            block.timestamp >= request.validUntil,\n            \"Request not expired yet\"\n        );\n        require(request.activeClaims == 0, \"Active claims running\");\n\n        request.depositReceiver = request.sender;\n\n        emit DepositWithdrawn(requestId, request.sender);\n\n        IERC20 token = IERC20(request.sourceTokenAddress);\n        token.safeTransfer(\n            request.sender,\n            request.amount + request.lpFee + request.protocolFee\n        );\n    }\n\n    function claimRequest(uint256 requestId, bytes32 fillId)\n        external\n        payable\n        validRequestId(requestId)\n        returns (uint256)\n    {\n        Request storage request = requests[requestId];\n\n        require(block.timestamp < request.validUntil, \"Request expired\");\n        require(\n            request.depositReceiver == address(0),\n            \"Deposit already withdrawn\"\n        );\n        require(msg.value == claimStake, \"Invalid stake amount\");\n\n        request.activeClaims += 1;\n        claimCounter += 1;\n\n        Claim storage claim = claims[claimCounter];\n        claim.requestId = requestId;\n        claim.claimer = msg.sender;\n        claim.claimerStake = claimStake;\n        claim.lastChallenger = address(0);\n        claim.challengerStakeTotal = 0;\n        claim.withdrawnAmount = 0;\n        claim.termination = block.timestamp + claimPeriod;\n        claim.fillId = fillId;\n\n        emit ClaimMade(\n            requestId,\n            claimCounter,\n            claim.claimer,\n            claim.claimerStake,\n            claim.lastChallenger,\n            claim.challengerStakeTotal,\n            claim.termination,\n            fillId\n        );\n\n        return claimCounter;\n    }\n\n    function challengeClaim(uint256 claimId)\n        external\n        payable\n        validClaimId(claimId)\n    {\n        Claim storage claim = claims[claimId];\n        Request storage request = requests[claim.requestId];\n        require(block.timestamp < claim.termination, \"Claim expired\");\n\n        address nextActor;\n        uint256 minValue;\n        uint256 periodExtension = challengePeriodExtension;\n        uint256 claimerStake = claim.claimerStake;\n        uint256 challengerStakeTotal = claim.challengerStakeTotal;\n\n        if (claimerStake > challengerStakeTotal) {\n            if (challengerStakeTotal == 0) {\n                periodExtension += finalizationTimes[request.targetChainId];\n            }\n            require(claim.claimer != msg.sender, \"Cannot challenge own claim\");\n            nextActor = msg.sender;\n            minValue = claimerStake - challengerStakeTotal + 1;\n        } else {\n            nextActor = claim.claimer;\n            minValue = challengerStakeTotal - claimerStake + claimStake;\n        }\n\n        require(msg.sender == nextActor, \"Not eligible to outbid\");\n        require(msg.value >= minValue, \"Not enough stake provided\");\n\n        if (nextActor == claim.claimer) {\n            claim.claimerStake += msg.value;\n        } else {\n            claim.lastChallenger = msg.sender;\n            claim.challengersStakes[msg.sender] += msg.value;\n            claim.challengerStakeTotal += msg.value;\n        }\n\n        claim.termination = Math.max(\n            claim.termination,\n            block.timestamp + periodExtension\n        );\n        uint256 minimumTermination = block.timestamp + challengePeriodExtension;\n        require(\n            claim.termination >= minimumTermination,\n            \"Claim termination did not increase enough\"\n        );\n\n        emit ClaimMade(\n            claim.requestId,\n            claimId,\n            claim.claimer,\n            claim.claimerStake,\n            claim.lastChallenger,\n            claim.challengerStakeTotal,\n            claim.termination,\n            claim.fillId\n        );\n    }\n\n    function withdraw(uint256 claimId)\n        external\n        validClaimId(claimId)\n        returns (address)\n    {\n        Claim storage claim = claims[claimId];\n        Request storage request = requests[claim.requestId];\n\n        (address claimReceiver, uint256 ethToTransfer) = resolveClaim(claimId);\n\n        if (claim.challengersStakes[claimReceiver] > 0) {\n            //Re-entrancy protection\n            claim.challengersStakes[claimReceiver] = 0;\n        }\n\n        // First time withdraw is called, remove it from active claims\n        if (claim.withdrawnAmount == 0) {\n            request.activeClaims -= 1;\n        }\n        claim.withdrawnAmount += ethToTransfer;\n        require(\n            claim.withdrawnAmount <=\n                claim.claimerStake + claim.challengerStakeTotal,\n            \"Amount to withdraw too large\"\n        );\n\n        (bool sent, ) = claimReceiver.call{value: ethToTransfer}(\"\");\n        require(sent, \"Failed to send Ether\");\n\n        emit ClaimWithdrawn(claimId, claim.requestId, claimReceiver);\n\n        if (\n            request.depositReceiver == address(0) &&\n            claimReceiver == claim.claimer\n        ) {\n            withdrawDeposit(request, claim, claimReceiver);\n        }\n\n        return claimReceiver;\n    }\n\n    function resolveClaim(uint256 claimId)\n        private\n        view\n        returns (address, uint256)\n    {\n        Claim storage claim = claims[claimId];\n        Request storage request = requests[claim.requestId];\n        uint256 claimerStake = claim.claimerStake;\n        uint256 challengerStakeTotal = claim.challengerStakeTotal;\n        require(\n            claim.withdrawnAmount < claimerStake + challengerStakeTotal,\n            \"Claim already withdrawn\"\n        );\n\n        bytes32 fillHash = BeamerUtils.createFillHash(\n            claim.requestId,\n            block.chainid,\n            request.targetChainId,\n            request.targetTokenAddress,\n            request.targetAddress,\n            request.amount,\n            claim.fillId\n        );\n\n        bool claimValid = false;\n        address depositReceiver = request.depositReceiver;\n\n        // Priority list for validity check of claim\n        // Claim is valid if either\n        // 1) ResolutionRegistry entry in fillers, claimer is the filler\n        // 2) ResolutionRegistry entry in invalidFillHashes, claim is invalid\n        // 3) DepositReceiver, the claimer is the address that withdrew the deposit with another claim\n        // 4) Claim properties, claim terminated and claimer has the highest stake\n        address filler = resolutionRegistry.fillers(fillHash);\n\n        if (filler == address(0)) {\n            filler = depositReceiver;\n        }\n\n        if (resolutionRegistry.invalidFillHashes(fillHash)) {\n            // Claim resolution via 2)\n            claimValid = false;\n        } else if (filler != address(0)) {\n            // Claim resolution via 1) or 3)\n            claimValid = filler == claim.claimer;\n        } else {\n            // Claim resolution via 4)\n            require(\n                block.timestamp >= claim.termination,\n                \"Claim period not finished\"\n            );\n            claimValid = claimerStake > challengerStakeTotal;\n        }\n\n        // Calculate withdraw scheme for claim stakes\n        uint256 ethToTransfer;\n        address claimReceiver;\n\n        if (claimValid) {\n            // If claim is valid, all stakes go to the claimer\n            ethToTransfer = claimerStake + challengerStakeTotal;\n            claimReceiver = claim.claimer;\n        } else if (challengerStakeTotal > 0) {\n            // If claim is invalid, partial withdrawal by the sender\n            ethToTransfer = 2 * claim.challengersStakes[msg.sender];\n            claimReceiver = msg.sender;\n\n            require(ethToTransfer > 0, \"Challenger has nothing to withdraw\");\n        } else {\n            // The unlikely event is possible that a false claim has no challenger\n            // If it is known that the claim is false then the claim stake goes to the platform\n            ethToTransfer = claimerStake;\n            claimReceiver = owner();\n        }\n\n        // If the challenger wins and is the last challenger, he gets either\n        // twice his stake plus the excess stake (if the claimer was winning), or\n        // twice his stake minus the difference between the claimer and challenger stakes (if the claimer was losing)\n        if (msg.sender == claim.lastChallenger) {\n            if (claimerStake > challengerStakeTotal) {\n                ethToTransfer += (claimerStake - challengerStakeTotal);\n            } else {\n                ethToTransfer -= (challengerStakeTotal - claimerStake);\n            }\n        }\n\n        return (claimReceiver, ethToTransfer);\n    }\n\n    function withdrawDeposit(\n        Request storage request,\n        Claim storage claim,\n        address depositReceiver\n    ) private {\n        emit DepositWithdrawn(claim.requestId, depositReceiver);\n\n        collectedProtocolFees[request.sourceTokenAddress] += request\n            .protocolFee;\n\n        IERC20 token = IERC20(request.sourceTokenAddress);\n        token.safeTransfer(depositReceiver, request.amount + request.lpFee);\n        request.depositReceiver = depositReceiver;\n    }\n\n    function withdrawProtocolFees(address tokenAddress, address recipient)\n        external\n        onlyOwner\n    {\n        uint256 amount = collectedProtocolFees[tokenAddress];\n        require(amount > 0, \"Protocol fee is zero\");\n        collectedProtocolFees[tokenAddress] = 0;\n\n        IERC20 token = IERC20(tokenAddress);\n        token.safeTransfer(recipient, amount);\n    }\n\n    function updateFeeData(\n        uint256 newProtocolFeePPM,\n        uint256 newLpFeePPM,\n        uint256 newMinLpFee\n    ) external onlyOwner {\n        protocolFeePPM = newProtocolFeePPM;\n        lpFeePPM = newLpFeePPM;\n        minLpFee = newMinLpFee;\n    }\n\n    function setFinalizationTime(\n        uint256 targetChainId,\n        uint256 finalizationTime\n    ) external onlyOwner {\n        require(\n            finalizationTime > 0,\n            \"Finalization time must be greater than 0\"\n        );\n        finalizationTimes[targetChainId] = finalizationTime;\n    }\n}\n",
  "sourcePath": "contracts/RequestManager.sol",
  "type": "contract"
}