{
  "abi": [
    {
      "anonymous": false,
      "inputs": [
        {
          "indexed": true,
          "internalType": "address",
          "name": "previousOwner",
          "type": "address"
        },
        {
          "indexed": true,
          "internalType": "address",
          "name": "newOwner",
          "type": "address"
        }
      ],
      "name": "OwnershipTransferred",
      "type": "event"
    },
    {
      "anonymous": false,
      "inputs": [
        {
          "indexed": false,
          "internalType": "uint256",
          "name": "sourceChainId",
          "type": "uint256"
        },
        {
          "indexed": false,
          "internalType": "uint256",
          "name": "fillChainId",
          "type": "uint256"
        },
        {
          "indexed": false,
          "internalType": "bytes32",
          "name": "requestHash",
          "type": "bytes32"
        },
        {
          "indexed": false,
          "internalType": "address",
          "name": "filler",
          "type": "address"
        },
        {
          "indexed": false,
          "internalType": "bytes32",
          "name": "fillId",
          "type": "bytes32"
        }
      ],
      "name": "Resolution",
      "type": "event"
    },
    {
      "inputs": [
        {
          "internalType": "uint256",
          "name": "chainId",
          "type": "uint256"
        },
        {
          "internalType": "address",
          "name": "messenger",
          "type": "address"
        },
        {
          "internalType": "address",
          "name": "caller",
          "type": "address"
        }
      ],
      "name": "addCaller",
      "outputs": [],
      "stateMutability": "nonpayable",
      "type": "function"
    },
    {
      "inputs": [
        {
          "internalType": "uint256",
          "name": "chainId",
          "type": "uint256"
        },
        {
          "internalType": "address",
          "name": "resolutionRegistry",
          "type": "address"
        },
        {
          "internalType": "address",
          "name": "messenger",
          "type": "address"
        }
      ],
      "name": "addRegistry",
      "outputs": [],
      "stateMutability": "nonpayable",
      "type": "function"
    },
    {
      "inputs": [
        {
          "internalType": "uint256",
          "name": "",
          "type": "uint256"
        }
      ],
      "name": "messengers",
      "outputs": [
        {
          "internalType": "contract IMessenger",
          "name": "messenger",
          "type": "address"
        },
        {
          "internalType": "address",
          "name": "sender",
          "type": "address"
        }
      ],
      "stateMutability": "view",
      "type": "function"
    },
    {
      "inputs": [],
      "name": "owner",
      "outputs": [
        {
          "internalType": "address",
          "name": "",
          "type": "address"
        }
      ],
      "stateMutability": "view",
      "type": "function"
    },
    {
      "inputs": [],
      "name": "renounceOwnership",
      "outputs": [],
      "stateMutability": "nonpayable",
      "type": "function"
    },
    {
      "inputs": [
        {
          "internalType": "bytes32",
          "name": "requestHash",
          "type": "bytes32"
        },
        {
          "internalType": "bytes32",
          "name": "fillId",
          "type": "bytes32"
        },
        {
          "internalType": "uint256",
          "name": "fillChainId",
          "type": "uint256"
        },
        {
          "internalType": "uint256",
          "name": "sourceChainId",
          "type": "uint256"
        },
        {
          "internalType": "address",
          "name": "filler",
          "type": "address"
        }
      ],
      "name": "resolve",
      "outputs": [],
      "stateMutability": "nonpayable",
      "type": "function"
    },
    {
      "inputs": [
        {
          "internalType": "uint256",
          "name": "",
          "type": "uint256"
        }
      ],
      "name": "sourceChainInfos",
      "outputs": [
        {
          "internalType": "address",
          "name": "resolutionRegistry",
          "type": "address"
        },
        {
          "internalType": "address",
          "name": "messenger",
          "type": "address"
        }
      ],
      "stateMutability": "view",
      "type": "function"
    },
    {
      "inputs": [
        {
          "internalType": "address",
          "name": "newOwner",
          "type": "address"
        }
      ],
      "name": "transferOwnership",
      "outputs": [],
      "stateMutability": "nonpayable",
      "type": "function"
    }
  ],
  "bytecode": "608060405234801561001057600080fd5b5061001a3361001f565b61006f565b600080546001600160a01b038381166001600160a01b0319831681178455604051919092169283917f8be0079c531659141344cd1fd0a4f28419497f9722a3daafe3b4186f6b6457e09190a35050565b610a048061007e6000396000f3fe608060405234801561001057600080fd5b50600436106100885760003560e01c80638da5cb5b1161005b5780638da5cb5b14610137578063a56e3c3814610152578063bfa9dd3a14610165578063f2fde38b1461017857600080fd5b806324ec66b31461008d578063308634a5146100e6578063715018a61461011a5780637203ae3b14610124575b600080fd5b6100c161009b3660046107f3565b600160208190526000918252604090912080549101546001600160a01b03918216911682565b604080516001600160a01b039384168152929091166020830152015b60405180910390f35b6100c16100f43660046107f3565b600260205260009081526040902080546001909101546001600160a01b03918216911682565b61012261018b565b005b610122610132366004610821565b6101ca565b6000546040516001600160a01b0390911681526020016100dd565b610122610160366004610863565b6102af565b610122610173366004610821565b610686565b6101226101863660046108b0565b610708565b6000546001600160a01b031633146101be5760405162461bcd60e51b81526004016101b5906108d4565b60405180910390fd5b6101c860006107a3565b565b6000546001600160a01b031633146101f45760405162461bcd60e51b81526004016101b5906108d4565b6001600160a01b0382166102565760405162461bcd60e51b815260206004820152602360248201527f585265737472696374656443616c6c733a20696e76616c6964206d657373656e60448201526233b2b960e91b60648201526084016101b5565b6040805180820182526001600160a01b0393841681529183166020808401918252600095865260019081905291909420915182546001600160a01b03199081169185169190911783559351910180549093169116179055565b60008381526001602052604090208054849133916001600160a01b03166102e85760405162461bcd60e51b81526004016101b590610909565b805460408051630ef12e4760e31b815290516001600160a01b03909216916377897238916004808201926020929091908290030181865afa158015610331573d6000803e3d6000fd5b505050506040513d601f19601f82011682018060405250810190610355919061093e565b6001600160a01b0316826001600160a01b0316146103855760405162461bcd60e51b81526004016101b590610909565b600181015481546040805163383d6f0760e11b815290516001600160a01b03938416939092169163707ade0e916004808201926020929091908290030181865afa1580156103d7573d6000803e3d6000fd5b505050506040513d601f19601f820116820180604052508101906103fb919061093e565b6001600160a01b0316146104215760405162461bcd60e51b81526004016101b590610909565b600085815260026020526040902080546001600160a01b03166104955760405162461bcd60e51b815260206004820152602660248201527f4e6f20726567697374727920617661696c61626c6520666f7220736f757263656044820152651031b430b4b760d11b60648201526084016101b5565b60018101546001600160a01b03166104ff5760405162461bcd60e51b815260206004820152602760248201527f4e6f206d657373656e67657220617661696c61626c6520666f7220736f757263604482015266329031b430b4b760c91b60648201526084016101b5565b60606001600160a01b03861661055a57604051602481018b9052604481018a905246606482015260840160408051601f198184030181529190526020810180516001600160e01b03166303fc4c3760e01b17905290506105b0565b604051602481018b9052604481018a90524660648201526001600160a01b038716608482015260a40160408051601f198184030181529190526020810180516001600160e01b0316632d9d377960e11b17905290505b60018201548254604051633dbb202b60e01b81526001600160a01b03928316928392633dbb202b926105ef92909116908690620f42409060040161095b565b600060405180830381600087803b15801561060957600080fd5b505af115801561061d573d6000803e3d6000fd5b5050604080518b8152602081018d90529081018e90526001600160a01b038a166060820152608081018d90527f44702e0d5959cc77a7f68b33530b86546d1b157d0d74b27010d5f519adae07cb925060a001905060405180910390a15050505050505050505050565b6000546001600160a01b031633146106b05760405162461bcd60e51b81526004016101b5906108d4565b6040805180820182526001600160a01b03938416815291831660208084019182526000958652600290529320905181546001600160a01b03199081169184169190911782559251600190910180549093169116179055565b6000546001600160a01b031633146107325760405162461bcd60e51b81526004016101b5906108d4565b6001600160a01b0381166107975760405162461bcd60e51b815260206004820152602660248201527f4f776e61626c653a206e6577206f776e657220697320746865207a65726f206160448201526564647265737360d01b60648201526084016101b5565b6107a0816107a3565b50565b600080546001600160a01b038381166001600160a01b0319831681178455604051919092169283917f8be0079c531659141344cd1fd0a4f28419497f9722a3daafe3b4186f6b6457e09190a35050565b60006020828403121561080557600080fd5b5035919050565b6001600160a01b03811681146107a057600080fd5b60008060006060848603121561083657600080fd5b8335925060208401356108488161080c565b915060408401356108588161080c565b809150509250925092565b600080600080600060a0868803121561087b57600080fd5b8535945060208601359350604086013592506060860135915060808601356108a28161080c565b809150509295509295909350565b6000602082840312156108c257600080fd5b81356108cd8161080c565b9392505050565b6020808252818101527f4f776e61626c653a2063616c6c6572206973206e6f7420746865206f776e6572604082015260600190565b6020808252818101527f585265737472696374656443616c6c733a20756e6b6e6f776e2063616c6c6572604082015260600190565b60006020828403121561095057600080fd5b81516108cd8161080c565b60018060a01b038416815260006020606081840152845180606085015260005b818110156109975786810183015185820160800152820161097b565b818111156109a9576000608083870101525b5063ffffffff9490941660408401525050601f91909101601f1916016080019291505056fea2646970667358221220a6c43b197193147db068026f481d9f9cde30459d294a1449b84d6523ff14c18964736f6c634300080d0033",
  "bytecodeSha1": "c63080d1a0337441a73665a627bbbdab4cf3431f",
  "compiler": {
    "evm_version": "london",
    "optimizer": {
      "enabled": true,
      "runs": 200
    },
    "version": "0.8.13+commit.abaa5c0e"
  },
  "contractName": "Resolver",
  "language": "Solidity",
  "natspec": {
    "kind": "dev",
    "methods": {
      "addCaller(uint256,address,address)": {
        "notice": "Add a caller for the given chain ID. .. note:: There can only be one caller per chain.",
        "params": {
          "caller": "The caller.",
          "chainId": "The chain ID.",
          "messenger": "The messenger, an instance of :sol:interface:`IMessenger`."
        }
      },
      "addRegistry(uint256,address,address)": {
        "notice": "Add a resolution registry. In order to be able to send messages to the :sol:contract:`ResolutionRegistry`, the resolver contract needs to know the address of the registry on the source chain, as well as the address of the messenger contract responsible for transferring messages to the L2 chain. .. note:: This function can only be called by the contract owner.",
        "params": {
          "chainId": "The source L2 chain ID.",
          "messenger": "The messenger contract responsible for chain ``chainId``.                  Must implement :sol:interface:`IMessenger`.",
          "resolutionRegistry": "The resolution registry."
        }
      },
      "messengers(uint256)": {
        "notice": "Maps chain IDs to messenger and callers."
      },
      "owner()": {
        "details": "Returns the address of the current owner."
      },
      "renounceOwnership()": {
        "details": "Leaves the contract without owner. It will not be possible to call `onlyOwner` functions anymore. Can only be called by the current owner. NOTE: Renouncing ownership will leave the contract without an owner, thereby removing any functionality that is only available to the owner."
      },
      "resolve(bytes32,bytes32,uint256,uint256,address)": {
        "notice": "Resolve the specified request. This marks the request identified by ``requestHash`` as filled by ``filler``. If the ``filler`` is zero, the fill be marked invalid. Information about the fill will be sent to the source chain's :sol:contract:`ResolutionRegistry`, using the messenger responsible for the source chain. .. note::     This function is callable only by the native L1 messenger contract,     which simply delivers the message sent from the target chain by the     Beamer's L2 :sol:interface:`messenger <IMessenger>` contract.",
        "params": {
          "fillChainId": "The fill (target) chain ID.",
          "fillId": "The fill ID.",
          "filler": "The address that filled the request, or zero to invalidate the fill.",
          "requestHash": "The request hash.",
          "sourceChainId": "The source chain ID."
        }
      },
      "sourceChainInfos(uint256)": {
        "notice": "Maps source chain IDs to source chain infos."
      },
      "transferOwnership(address)": {
        "details": "Transfers ownership of the contract to a new account (`newOwner`). Can only be called by the current owner."
      }
    },
    "notice": "The resolver. This contract resides on the L1 chain and is tasked with receiving the fill or non-fill proofs from the target L2 chain and forwarding them to the :sol:contract:`ResolutionRegistry` on the source L2 chain.",
    "version": 1
  },
  "opcodes": "PUSH1 0x80 PUSH1 0x40 MSTORE CALLVALUE DUP1 ISZERO PUSH2 0x10 JUMPI PUSH1 0x0 DUP1 REVERT JUMPDEST POP PUSH1 0x4 CALLDATASIZE LT PUSH2 0x88 JUMPI PUSH1 0x0 CALLDATALOAD PUSH1 0xE0 SHR DUP1 PUSH4 0x8DA5CB5B GT PUSH2 0x5B JUMPI DUP1 PUSH4 0x8DA5CB5B EQ PUSH2 0x137 JUMPI DUP1 PUSH4 0xA56E3C38 EQ PUSH2 0x152 JUMPI DUP1 PUSH4 0xBFA9DD3A EQ PUSH2 0x165 JUMPI DUP1 PUSH4 0xF2FDE38B EQ PUSH2 0x178 JUMPI PUSH1 0x0 DUP1 REVERT JUMPDEST DUP1 PUSH4 0x24EC66B3 EQ PUSH2 0x8D JUMPI DUP1 PUSH4 0x308634A5 EQ PUSH2 0xE6 JUMPI DUP1 PUSH4 0x715018A6 EQ PUSH2 0x11A JUMPI DUP1 PUSH4 0x7203AE3B EQ PUSH2 0x124 JUMPI JUMPDEST PUSH1 0x0 DUP1 REVERT JUMPDEST PUSH2 0xC1 PUSH2 0x9B CALLDATASIZE PUSH1 0x4 PUSH2 0x7F3 JUMP JUMPDEST PUSH1 0x1 PUSH1 0x20 DUP2 SWAP1 MSTORE PUSH1 0x0 SWAP2 DUP3 MSTORE PUSH1 0x40 SWAP1 SWAP2 KECCAK256 DUP1 SLOAD SWAP2 ADD SLOAD PUSH1 0x1 PUSH1 0x1 PUSH1 0xA0 SHL SUB SWAP2 DUP3 AND SWAP2 AND DUP3 JUMP JUMPDEST PUSH1 0x40 DUP1 MLOAD PUSH1 0x1 PUSH1 0x1 PUSH1 0xA0 SHL SUB SWAP4 DUP5 AND DUP2 MSTORE SWAP3 SWAP1 SWAP2 AND PUSH1 0x20 DUP4 ADD MSTORE ADD JUMPDEST PUSH1 0x40 MLOAD DUP1 SWAP2 SUB SWAP1 RETURN JUMPDEST PUSH2 0xC1 PUSH2 0xF4 CALLDATASIZE PUSH1 0x4 PUSH2 0x7F3 JUMP JUMPDEST PUSH1 0x2 PUSH1 0x20 MSTORE PUSH1 0x0 SWAP1 DUP2 MSTORE PUSH1 0x40 SWAP1 KECCAK256 DUP1 SLOAD PUSH1 0x1 SWAP1 SWAP2 ADD SLOAD PUSH1 0x1 PUSH1 0x1 PUSH1 0xA0 SHL SUB SWAP2 DUP3 AND SWAP2 AND DUP3 JUMP JUMPDEST PUSH2 0x122 PUSH2 0x18B JUMP JUMPDEST STOP JUMPDEST PUSH2 0x122 PUSH2 0x132 CALLDATASIZE PUSH1 0x4 PUSH2 0x821 JUMP JUMPDEST PUSH2 0x1CA JUMP JUMPDEST PUSH1 0x0 SLOAD PUSH1 0x40 MLOAD PUSH1 0x1 PUSH1 0x1 PUSH1 0xA0 SHL SUB SWAP1 SWAP2 AND DUP2 MSTORE PUSH1 0x20 ADD PUSH2 0xDD JUMP JUMPDEST PUSH2 0x122 PUSH2 0x160 CALLDATASIZE PUSH1 0x4 PUSH2 0x863 JUMP JUMPDEST PUSH2 0x2AF JUMP JUMPDEST PUSH2 0x122 PUSH2 0x173 CALLDATASIZE PUSH1 0x4 PUSH2 0x821 JUMP JUMPDEST PUSH2 0x686 JUMP JUMPDEST PUSH2 0x122 PUSH2 0x186 CALLDATASIZE PUSH1 0x4 PUSH2 0x8B0 JUMP JUMPDEST PUSH2 0x708 JUMP JUMPDEST PUSH1 0x0 SLOAD PUSH1 0x1 PUSH1 0x1 PUSH1 0xA0 SHL SUB AND CALLER EQ PUSH2 0x1BE JUMPI PUSH1 0x40 MLOAD PUSH3 0x461BCD PUSH1 0xE5 SHL DUP2 MSTORE PUSH1 0x4 ADD PUSH2 0x1B5 SWAP1 PUSH2 0x8D4 JUMP JUMPDEST PUSH1 0x40 MLOAD DUP1 SWAP2 SUB SWAP1 REVERT JUMPDEST PUSH2 0x1C8 PUSH1 0x0 PUSH2 0x7A3 JUMP JUMPDEST JUMP JUMPDEST PUSH1 0x0 SLOAD PUSH1 0x1 PUSH1 0x1 PUSH1 0xA0 SHL SUB AND CALLER EQ PUSH2 0x1F4 JUMPI PUSH1 0x40 MLOAD PUSH3 0x461BCD PUSH1 0xE5 SHL DUP2 MSTORE PUSH1 0x4 ADD PUSH2 0x1B5 SWAP1 PUSH2 0x8D4 JUMP JUMPDEST PUSH1 0x1 PUSH1 0x1 PUSH1 0xA0 SHL SUB DUP3 AND PUSH2 0x256 JUMPI PUSH1 0x40 MLOAD PUSH3 0x461BCD PUSH1 0xE5 SHL DUP2 MSTORE PUSH1 0x20 PUSH1 0x4 DUP3 ADD MSTORE PUSH1 0x23 PUSH1 0x24 DUP3 ADD MSTORE PUSH32 0x585265737472696374656443616C6C733A20696E76616C6964206D657373656E PUSH1 0x44 DUP3 ADD MSTORE PUSH3 0x33B2B9 PUSH1 0xE9 SHL PUSH1 0x64 DUP3 ADD MSTORE PUSH1 0x84 ADD PUSH2 0x1B5 JUMP JUMPDEST PUSH1 0x40 DUP1 MLOAD DUP1 DUP3 ADD DUP3 MSTORE PUSH1 0x1 PUSH1 0x1 PUSH1 0xA0 SHL SUB SWAP4 DUP5 AND DUP2 MSTORE SWAP2 DUP4 AND PUSH1 0x20 DUP1 DUP5 ADD SWAP2 DUP3 MSTORE PUSH1 0x0 SWAP6 DUP7 MSTORE PUSH1 0x1 SWAP1 DUP2 SWAP1 MSTORE SWAP2 SWAP1 SWAP5 KECCAK256 SWAP2 MLOAD DUP3 SLOAD PUSH1 0x1 PUSH1 0x1 PUSH1 0xA0 SHL SUB NOT SWAP1 DUP2 AND SWAP2 DUP6 AND SWAP2 SWAP1 SWAP2 OR DUP4 SSTORE SWAP4 MLOAD SWAP2 ADD DUP1 SLOAD SWAP1 SWAP4 AND SWAP2 AND OR SWAP1 SSTORE JUMP JUMPDEST PUSH1 0x0 DUP4 DUP2 MSTORE PUSH1 0x1 PUSH1 0x20 MSTORE PUSH1 0x40 SWAP1 KECCAK256 DUP1 SLOAD DUP5 SWAP2 CALLER SWAP2 PUSH1 0x1 PUSH1 0x1 PUSH1 0xA0 SHL SUB AND PUSH2 0x2E8 JUMPI PUSH1 0x40 MLOAD PUSH3 0x461BCD PUSH1 0xE5 SHL DUP2 MSTORE PUSH1 0x4 ADD PUSH2 0x1B5 SWAP1 PUSH2 0x909 JUMP JUMPDEST DUP1 SLOAD PUSH1 0x40 DUP1 MLOAD PUSH4 0xEF12E47 PUSH1 0xE3 SHL DUP2 MSTORE SWAP1 MLOAD PUSH1 0x1 PUSH1 0x1 PUSH1 0xA0 SHL SUB SWAP1 SWAP3 AND SWAP2 PUSH4 0x77897238 SWAP2 PUSH1 0x4 DUP1 DUP3 ADD SWAP3 PUSH1 0x20 SWAP3 SWAP1 SWAP2 SWAP1 DUP3 SWAP1 SUB ADD DUP2 DUP7 GAS STATICCALL ISZERO DUP1 ISZERO PUSH2 0x331 JUMPI RETURNDATASIZE PUSH1 0x0 DUP1 RETURNDATACOPY RETURNDATASIZE PUSH1 0x0 REVERT JUMPDEST POP POP POP POP PUSH1 0x40 MLOAD RETURNDATASIZE PUSH1 0x1F NOT PUSH1 0x1F DUP3 ADD AND DUP3 ADD DUP1 PUSH1 0x40 MSTORE POP DUP2 ADD SWAP1 PUSH2 0x355 SWAP2 SWAP1 PUSH2 0x93E JUMP JUMPDEST PUSH1 0x1 PUSH1 0x1 PUSH1 0xA0 SHL SUB AND DUP3 PUSH1 0x1 PUSH1 0x1 PUSH1 0xA0 SHL SUB AND EQ PUSH2 0x385 JUMPI PUSH1 0x40 MLOAD PUSH3 0x461BCD PUSH1 0xE5 SHL DUP2 MSTORE PUSH1 0x4 ADD PUSH2 0x1B5 SWAP1 PUSH2 0x909 JUMP JUMPDEST PUSH1 0x1 DUP2 ADD SLOAD DUP2 SLOAD PUSH1 0x40 DUP1 MLOAD PUSH4 0x383D6F07 PUSH1 0xE1 SHL DUP2 MSTORE SWAP1 MLOAD PUSH1 0x1 PUSH1 0x1 PUSH1 0xA0 SHL SUB SWAP4 DUP5 AND SWAP4 SWAP1 SWAP3 AND SWAP2 PUSH4 0x707ADE0E SWAP2 PUSH1 0x4 DUP1 DUP3 ADD SWAP3 PUSH1 0x20 SWAP3 SWAP1 SWAP2 SWAP1 DUP3 SWAP1 SUB ADD DUP2 DUP7 GAS STATICCALL ISZERO DUP1 ISZERO PUSH2 0x3D7 JUMPI RETURNDATASIZE PUSH1 0x0 DUP1 RETURNDATACOPY RETURNDATASIZE PUSH1 0x0 REVERT JUMPDEST POP POP POP POP PUSH1 0x40 MLOAD RETURNDATASIZE PUSH1 0x1F NOT PUSH1 0x1F DUP3 ADD AND DUP3 ADD DUP1 PUSH1 0x40 MSTORE POP DUP2 ADD SWAP1 PUSH2 0x3FB SWAP2 SWAP1 PUSH2 0x93E JUMP JUMPDEST PUSH1 0x1 PUSH1 0x1 PUSH1 0xA0 SHL SUB AND EQ PUSH2 0x421 JUMPI PUSH1 0x40 MLOAD PUSH3 0x461BCD PUSH1 0xE5 SHL DUP2 MSTORE PUSH1 0x4 ADD PUSH2 0x1B5 SWAP1 PUSH2 0x909 JUMP JUMPDEST PUSH1 0x0 DUP6 DUP2 MSTORE PUSH1 0x2 PUSH1 0x20 MSTORE PUSH1 0x40 SWAP1 KECCAK256 DUP1 SLOAD PUSH1 0x1 PUSH1 0x1 PUSH1 0xA0 SHL SUB AND PUSH2 0x495 JUMPI PUSH1 0x40 MLOAD PUSH3 0x461BCD PUSH1 0xE5 SHL DUP2 MSTORE PUSH1 0x20 PUSH1 0x4 DUP3 ADD MSTORE PUSH1 0x26 PUSH1 0x24 DUP3 ADD MSTORE PUSH32 0x4E6F20726567697374727920617661696C61626C6520666F7220736F75726365 PUSH1 0x44 DUP3 ADD MSTORE PUSH6 0x1031B430B4B7 PUSH1 0xD1 SHL PUSH1 0x64 DUP3 ADD MSTORE PUSH1 0x84 ADD PUSH2 0x1B5 JUMP JUMPDEST PUSH1 0x1 DUP2 ADD SLOAD PUSH1 0x1 PUSH1 0x1 PUSH1 0xA0 SHL SUB AND PUSH2 0x4FF JUMPI PUSH1 0x40 MLOAD PUSH3 0x461BCD PUSH1 0xE5 SHL DUP2 MSTORE PUSH1 0x20 PUSH1 0x4 DUP3 ADD MSTORE PUSH1 0x27 PUSH1 0x24 DUP3 ADD MSTORE PUSH32 0x4E6F206D657373656E67657220617661696C61626C6520666F7220736F757263 PUSH1 0x44 DUP3 ADD MSTORE PUSH7 0x329031B430B4B7 PUSH1 0xC9 SHL PUSH1 0x64 DUP3 ADD MSTORE PUSH1 0x84 ADD PUSH2 0x1B5 JUMP JUMPDEST PUSH1 0x60 PUSH1 0x1 PUSH1 0x1 PUSH1 0xA0 SHL SUB DUP7 AND PUSH2 0x55A JUMPI PUSH1 0x40 MLOAD PUSH1 0x24 DUP2 ADD DUP12 SWAP1 MSTORE PUSH1 0x44 DUP2 ADD DUP11 SWAP1 MSTORE CHAINID PUSH1 0x64 DUP3 ADD MSTORE PUSH1 0x84 ADD PUSH1 0x40 DUP1 MLOAD PUSH1 0x1F NOT DUP2 DUP5 SUB ADD DUP2 MSTORE SWAP2 SWAP1 MSTORE PUSH1 0x20 DUP2 ADD DUP1 MLOAD PUSH1 0x1 PUSH1 0x1 PUSH1 0xE0 SHL SUB AND PUSH4 0x3FC4C37 PUSH1 0xE0 SHL OR SWAP1 MSTORE SWAP1 POP PUSH2 0x5B0 JUMP JUMPDEST PUSH1 0x40 MLOAD PUSH1 0x24 DUP2 ADD DUP12 SWAP1 MSTORE PUSH1 0x44 DUP2 ADD DUP11 SWAP1 MSTORE CHAINID PUSH1 0x64 DUP3 ADD MSTORE PUSH1 0x1 PUSH1 0x1 PUSH1 0xA0 SHL SUB DUP8 AND PUSH1 0x84 DUP3 ADD MSTORE PUSH1 0xA4 ADD PUSH1 0x40 DUP1 MLOAD PUSH1 0x1F NOT DUP2 DUP5 SUB ADD DUP2 MSTORE SWAP2 SWAP1 MSTORE PUSH1 0x20 DUP2 ADD DUP1 MLOAD PUSH1 0x1 PUSH1 0x1 PUSH1 0xE0 SHL SUB AND PUSH4 0x2D9D3779 PUSH1 0xE1 SHL OR SWAP1 MSTORE SWAP1 POP JUMPDEST PUSH1 0x1 DUP3 ADD SLOAD DUP3 SLOAD PUSH1 0x40 MLOAD PUSH4 0x3DBB202B PUSH1 0xE0 SHL DUP2 MSTORE PUSH1 0x1 PUSH1 0x1 PUSH1 0xA0 SHL SUB SWAP3 DUP4 AND SWAP3 DUP4 SWAP3 PUSH4 0x3DBB202B SWAP3 PUSH2 0x5EF SWAP3 SWAP1 SWAP2 AND SWAP1 DUP7 SWAP1 PUSH3 0xF4240 SWAP1 PUSH1 0x4 ADD PUSH2 0x95B JUMP JUMPDEST PUSH1 0x0 PUSH1 0x40 MLOAD DUP1 DUP4 SUB DUP2 PUSH1 0x0 DUP8 DUP1 EXTCODESIZE ISZERO DUP1 ISZERO PUSH2 0x609 JUMPI PUSH1 0x0 DUP1 REVERT JUMPDEST POP GAS CALL ISZERO DUP1 ISZERO PUSH2 0x61D JUMPI RETURNDATASIZE PUSH1 0x0 DUP1 RETURNDATACOPY RETURNDATASIZE PUSH1 0x0 REVERT JUMPDEST POP POP PUSH1 0x40 DUP1 MLOAD DUP12 DUP2 MSTORE PUSH1 0x20 DUP2 ADD DUP14 SWAP1 MSTORE SWAP1 DUP2 ADD DUP15 SWAP1 MSTORE PUSH1 0x1 PUSH1 0x1 PUSH1 0xA0 SHL SUB DUP11 AND PUSH1 0x60 DUP3 ADD MSTORE PUSH1 0x80 DUP2 ADD DUP14 SWAP1 MSTORE PUSH32 0x44702E0D5959CC77A7F68B33530B86546D1B157D0D74B27010D5F519ADAE07CB SWAP3 POP PUSH1 0xA0 ADD SWAP1 POP PUSH1 0x40 MLOAD DUP1 SWAP2 SUB SWAP1 LOG1 POP POP POP POP POP POP POP POP POP POP POP JUMP JUMPDEST PUSH1 0x0 SLOAD PUSH1 0x1 PUSH1 0x1 PUSH1 0xA0 SHL SUB AND CALLER EQ PUSH2 0x6B0 JUMPI PUSH1 0x40 MLOAD PUSH3 0x461BCD PUSH1 0xE5 SHL DUP2 MSTORE PUSH1 0x4 ADD PUSH2 0x1B5 SWAP1 PUSH2 0x8D4 JUMP JUMPDEST PUSH1 0x40 DUP1 MLOAD DUP1 DUP3 ADD DUP3 MSTORE PUSH1 0x1 PUSH1 0x1 PUSH1 0xA0 SHL SUB SWAP4 DUP5 AND DUP2 MSTORE SWAP2 DUP4 AND PUSH1 0x20 DUP1 DUP5 ADD SWAP2 DUP3 MSTORE PUSH1 0x0 SWAP6 DUP7 MSTORE PUSH1 0x2 SWAP1 MSTORE SWAP4 KECCAK256 SWAP1 MLOAD DUP2 SLOAD PUSH1 0x1 PUSH1 0x1 PUSH1 0xA0 SHL SUB NOT SWAP1 DUP2 AND SWAP2 DUP5 AND SWAP2 SWAP1 SWAP2 OR DUP3 SSTORE SWAP3 MLOAD PUSH1 0x1 SWAP1 SWAP2 ADD DUP1 SLOAD SWAP1 SWAP4 AND SWAP2 AND OR SWAP1 SSTORE JUMP JUMPDEST PUSH1 0x0 SLOAD PUSH1 0x1 PUSH1 0x1 PUSH1 0xA0 SHL SUB AND CALLER EQ PUSH2 0x732 JUMPI PUSH1 0x40 MLOAD PUSH3 0x461BCD PUSH1 0xE5 SHL DUP2 MSTORE PUSH1 0x4 ADD PUSH2 0x1B5 SWAP1 PUSH2 0x8D4 JUMP JUMPDEST PUSH1 0x1 PUSH1 0x1 PUSH1 0xA0 SHL SUB DUP2 AND PUSH2 0x797 JUMPI PUSH1 0x40 MLOAD PUSH3 0x461BCD PUSH1 0xE5 SHL DUP2 MSTORE PUSH1 0x20 PUSH1 0x4 DUP3 ADD MSTORE PUSH1 0x26 PUSH1 0x24 DUP3 ADD MSTORE PUSH32 0x4F776E61626C653A206E6577206F776E657220697320746865207A65726F2061 PUSH1 0x44 DUP3 ADD MSTORE PUSH6 0x646472657373 PUSH1 0xD0 SHL PUSH1 0x64 DUP3 ADD MSTORE PUSH1 0x84 ADD PUSH2 0x1B5 JUMP JUMPDEST PUSH2 0x7A0 DUP2 PUSH2 0x7A3 JUMP JUMPDEST POP JUMP JUMPDEST PUSH1 0x0 DUP1 SLOAD PUSH1 0x1 PUSH1 0x1 PUSH1 0xA0 SHL SUB DUP4 DUP2 AND PUSH1 0x1 PUSH1 0x1 PUSH1 0xA0 SHL SUB NOT DUP4 AND DUP2 OR DUP5 SSTORE PUSH1 0x40 MLOAD SWAP2 SWAP1 SWAP3 AND SWAP3 DUP4 SWAP2 PUSH32 0x8BE0079C531659141344CD1FD0A4F28419497F9722A3DAAFE3B4186F6B6457E0 SWAP2 SWAP1 LOG3 POP POP JUMP JUMPDEST PUSH1 0x0 PUSH1 0x20 DUP3 DUP5 SUB SLT ISZERO PUSH2 0x805 JUMPI PUSH1 0x0 DUP1 REVERT JUMPDEST POP CALLDATALOAD SWAP2 SWAP1 POP JUMP JUMPDEST PUSH1 0x1 PUSH1 0x1 PUSH1 0xA0 SHL SUB DUP2 AND DUP2 EQ PUSH2 0x7A0 JUMPI PUSH1 0x0 DUP1 REVERT JUMPDEST PUSH1 0x0 DUP1 PUSH1 0x0 PUSH1 0x60 DUP5 DUP7 SUB SLT ISZERO PUSH2 0x836 JUMPI PUSH1 0x0 DUP1 REVERT JUMPDEST DUP4 CALLDATALOAD SWAP3 POP PUSH1 0x20 DUP5 ADD CALLDATALOAD PUSH2 0x848 DUP2 PUSH2 0x80C JUMP JUMPDEST SWAP2 POP PUSH1 0x40 DUP5 ADD CALLDATALOAD PUSH2 0x858 DUP2 PUSH2 0x80C JUMP JUMPDEST DUP1 SWAP2 POP POP SWAP3 POP SWAP3 POP SWAP3 JUMP JUMPDEST PUSH1 0x0 DUP1 PUSH1 0x0 DUP1 PUSH1 0x0 PUSH1 0xA0 DUP7 DUP9 SUB SLT ISZERO PUSH2 0x87B JUMPI PUSH1 0x0 DUP1 REVERT JUMPDEST DUP6 CALLDATALOAD SWAP5 POP PUSH1 0x20 DUP7 ADD CALLDATALOAD SWAP4 POP PUSH1 0x40 DUP7 ADD CALLDATALOAD SWAP3 POP PUSH1 0x60 DUP7 ADD CALLDATALOAD SWAP2 POP PUSH1 0x80 DUP7 ADD CALLDATALOAD PUSH2 0x8A2 DUP2 PUSH2 0x80C JUMP JUMPDEST DUP1 SWAP2 POP POP SWAP3 SWAP6 POP SWAP3 SWAP6 SWAP1 SWAP4 POP JUMP JUMPDEST PUSH1 0x0 PUSH1 0x20 DUP3 DUP5 SUB SLT ISZERO PUSH2 0x8C2 JUMPI PUSH1 0x0 DUP1 REVERT JUMPDEST DUP2 CALLDATALOAD PUSH2 0x8CD DUP2 PUSH2 0x80C JUMP JUMPDEST SWAP4 SWAP3 POP POP POP JUMP JUMPDEST PUSH1 0x20 DUP1 DUP3 MSTORE DUP2 DUP2 ADD MSTORE PUSH32 0x4F776E61626C653A2063616C6C6572206973206E6F7420746865206F776E6572 PUSH1 0x40 DUP3 ADD MSTORE PUSH1 0x60 ADD SWAP1 JUMP JUMPDEST PUSH1 0x20 DUP1 DUP3 MSTORE DUP2 DUP2 ADD MSTORE PUSH32 0x585265737472696374656443616C6C733A20756E6B6E6F776E2063616C6C6572 PUSH1 0x40 DUP3 ADD MSTORE PUSH1 0x60 ADD SWAP1 JUMP JUMPDEST PUSH1 0x0 PUSH1 0x20 DUP3 DUP5 SUB SLT ISZERO PUSH2 0x950 JUMPI PUSH1 0x0 DUP1 REVERT JUMPDEST DUP2 MLOAD PUSH2 0x8CD DUP2 PUSH2 0x80C JUMP JUMPDEST PUSH1 0x1 DUP1 PUSH1 0xA0 SHL SUB DUP5 AND DUP2 MSTORE PUSH1 0x0 PUSH1 0x20 PUSH1 0x60 DUP2 DUP5 ADD MSTORE DUP5 MLOAD DUP1 PUSH1 0x60 DUP6 ADD MSTORE PUSH1 0x0 JUMPDEST DUP2 DUP2 LT ISZERO PUSH2 0x997 JUMPI DUP7 DUP2 ADD DUP4 ADD MLOAD DUP6 DUP3 ADD PUSH1 0x80 ADD MSTORE DUP3 ADD PUSH2 0x97B JUMP JUMPDEST DUP2 DUP2 GT ISZERO PUSH2 0x9A9 JUMPI PUSH1 0x0 PUSH1 0x80 DUP4 DUP8 ADD ADD MSTORE JUMPDEST POP PUSH4 0xFFFFFFFF SWAP5 SWAP1 SWAP5 AND PUSH1 0x40 DUP5 ADD MSTORE POP POP PUSH1 0x1F SWAP2 SWAP1 SWAP2 ADD PUSH1 0x1F NOT AND ADD PUSH1 0x80 ADD SWAP3 SWAP2 POP POP JUMP INVALID LOG2 PUSH5 0x6970667358 0x22 SLT KECCAK256 0xA6 0xC4 EXTCODESIZE NOT PUSH18 0x93147DB068026F481D9F9CDE30459D294A14 0x49 0xB8 0x4D PUSH6 0x23FF14C18964 PUSH20 0x6F6C634300080D00330000000000000000000000 ",
  "sha1": "4ea97daf5ae054241e59f42e2503a2045bb456c8",
  "source": "// SPDX-License-Identifier: MIT\npragma solidity ^0.8.12;\n\nimport \"OpenZeppelin/openzeppelin-contracts@4.5.0/contracts/access/Ownable.sol\";\nimport \"../interfaces/IMessenger.sol\";\nimport \"./ResolutionRegistry.sol\";\nimport \"./CrossDomainRestrictedCalls.sol\";\n\n/// The resolver.\n///\n/// This contract resides on the L1 chain and is tasked with receiving the\n/// fill or non-fill proofs from the target L2 chain and forwarding them to\n/// the :sol:contract:`ResolutionRegistry` on the source L2 chain.\ncontract Resolver is Ownable, CrossDomainRestrictedCalls {\n    struct SourceChainInfo {\n        address resolutionRegistry;\n        address messenger;\n    }\n\n    /// Emitted when a fill or a non-fill proof is received and sent to the resolution registry.\n    ///\n    /// .. note:: In case of a non-fill proof, the ``filler`` will be zero.\n    event Resolution(\n        uint256 sourceChainId,\n        uint256 fillChainId,\n        bytes32 requestHash,\n        address filler,\n        bytes32 fillId\n    );\n\n    /// Maps source chain IDs to source chain infos.\n    mapping(uint256 => SourceChainInfo) public sourceChainInfos;\n\n    /// Resolve the specified request.\n    ///\n    /// This marks the request identified by ``requestHash`` as filled by ``filler``.\n    /// If the ``filler`` is zero, the fill be marked invalid.\n    ///\n    /// Information about the fill will be sent to the source chain's :sol:contract:`ResolutionRegistry`,\n    /// using the messenger responsible for the source chain.\n    ///\n    /// .. note::\n    ///\n    ///     This function is callable only by the native L1 messenger contract,\n    ///     which simply delivers the message sent from the target chain by the\n    ///     Beamer's L2 :sol:interface:`messenger <IMessenger>` contract.\n    ///\n    /// @param requestHash The request hash.\n    /// @param fillId The fill ID.\n    /// @param fillChainId The fill (target) chain ID.\n    /// @param sourceChainId The source chain ID.\n    /// @param filler The address that filled the request, or zero to invalidate the fill.\n    function resolve(\n        bytes32 requestHash,\n        bytes32 fillId,\n        uint256 fillChainId,\n        uint256 sourceChainId,\n        address filler\n    ) external restricted(fillChainId, msg.sender) {\n        SourceChainInfo storage info = sourceChainInfos[sourceChainId];\n        require(\n            info.resolutionRegistry != address(0),\n            \"No registry available for source chain\"\n        );\n        require(\n            info.messenger != address(0),\n            \"No messenger available for source chain\"\n        );\n\n        bytes memory message;\n\n        if (filler == address(0)) {\n            message = abi.encodeCall(\n                ResolutionRegistry.invalidateFill,\n                (requestHash, fillId, block.chainid)\n            );\n        } else {\n            message = abi.encodeCall(\n                ResolutionRegistry.resolveRequest,\n                (requestHash, fillId, block.chainid, filler)\n            );\n        }\n\n        IMessenger messenger = IMessenger(info.messenger);\n        messenger.sendMessage(info.resolutionRegistry, message, 1_000_000);\n\n        emit Resolution(\n            sourceChainId,\n            fillChainId,\n            requestHash,\n            filler,\n            fillId\n        );\n    }\n\n    /// Add a resolution registry.\n    ///\n    /// In order to be able to send messages to the :sol:contract:`ResolutionRegistry`,\n    /// the resolver contract needs to know the address of the registry on the source\n    /// chain, as well as the address of the messenger contract responsible for\n    /// transferring messages to the L2 chain.\n    ///\n    /// .. note:: This function can only be called by the contract owner.\n    ///\n    /// @param chainId The source L2 chain ID.\n    /// @param resolutionRegistry The resolution registry.\n    /// @param messenger The messenger contract responsible for chain ``chainId``.\n    ///                  Must implement :sol:interface:`IMessenger`.\n    function addRegistry(\n        uint256 chainId,\n        address resolutionRegistry,\n        address messenger\n    ) external onlyOwner {\n        sourceChainInfos[chainId] = SourceChainInfo(\n            resolutionRegistry,\n            messenger\n        );\n    }\n}\n",
  "sourcePath": "contracts/contracts/Resolver.sol",
  "type": "contract"
}