{
  "abi": [
    {
      "inputs": [
        {
          "internalType": "uint256",
          "name": "_claimStake",
          "type": "uint256"
        },
        {
          "internalType": "uint256",
          "name": "_claimPeriod",
          "type": "uint256"
        },
        {
          "internalType": "uint256",
          "name": "_challengePeriodExtension",
          "type": "uint256"
        },
        {
          "internalType": "address",
          "name": "_resolutionRegistry",
          "type": "address"
        }
      ],
      "stateMutability": "nonpayable",
      "type": "constructor"
    },
    {
      "anonymous": false,
      "inputs": [
        {
          "indexed": true,
          "internalType": "uint256",
          "name": "requestId",
          "type": "uint256"
        },
        {
          "indexed": false,
          "internalType": "uint256",
          "name": "claimId",
          "type": "uint256"
        },
        {
          "indexed": false,
          "internalType": "address",
          "name": "claimer",
          "type": "address"
        },
        {
          "indexed": false,
          "internalType": "uint256",
          "name": "claimerStake",
          "type": "uint256"
        },
        {
          "indexed": false,
          "internalType": "address",
          "name": "lastChallenger",
          "type": "address"
        },
        {
          "indexed": false,
          "internalType": "uint256",
          "name": "challengerStakeTotal",
          "type": "uint256"
        },
        {
          "indexed": false,
          "internalType": "uint256",
          "name": "termination",
          "type": "uint256"
        },
        {
          "indexed": false,
          "internalType": "bytes32",
          "name": "fillId",
          "type": "bytes32"
        }
      ],
      "name": "ClaimMade",
      "type": "event"
    },
    {
      "anonymous": false,
      "inputs": [
        {
          "indexed": false,
          "internalType": "uint256",
          "name": "claimId",
          "type": "uint256"
        },
        {
          "indexed": true,
          "internalType": "uint256",
          "name": "requestId",
          "type": "uint256"
        },
        {
          "indexed": false,
          "internalType": "address",
          "name": "claimReceiver",
          "type": "address"
        }
      ],
      "name": "ClaimStakeWithdrawn",
      "type": "event"
    },
    {
      "anonymous": false,
      "inputs": [
        {
          "indexed": false,
          "internalType": "uint256",
          "name": "requestId",
          "type": "uint256"
        },
        {
          "indexed": false,
          "internalType": "address",
          "name": "receiver",
          "type": "address"
        }
      ],
      "name": "DepositWithdrawn",
      "type": "event"
    },
    {
      "anonymous": false,
      "inputs": [
        {
          "indexed": false,
          "internalType": "uint256",
          "name": "targetChainId",
          "type": "uint256"
        },
        {
          "indexed": false,
          "internalType": "uint256",
          "name": "finalityPeriod",
          "type": "uint256"
        }
      ],
      "name": "FinalityPeriodUpdated",
      "type": "event"
    },
    {
      "anonymous": false,
      "inputs": [
        {
          "indexed": true,
          "internalType": "address",
          "name": "previousOwner",
          "type": "address"
        },
        {
          "indexed": true,
          "internalType": "address",
          "name": "newOwner",
          "type": "address"
        }
      ],
      "name": "OwnershipTransferred",
      "type": "event"
    },
    {
      "anonymous": false,
      "inputs": [
        {
          "indexed": false,
          "internalType": "uint256",
          "name": "requestId",
          "type": "uint256"
        },
        {
          "indexed": false,
          "internalType": "uint256",
          "name": "targetChainId",
          "type": "uint256"
        },
        {
          "indexed": false,
          "internalType": "address",
          "name": "sourceTokenAddress",
          "type": "address"
        },
        {
          "indexed": false,
          "internalType": "address",
          "name": "targetTokenAddress",
          "type": "address"
        },
        {
          "indexed": false,
          "internalType": "address",
          "name": "targetAddress",
          "type": "address"
        },
        {
          "indexed": false,
          "internalType": "uint256",
          "name": "amount",
          "type": "uint256"
        },
        {
          "indexed": false,
          "internalType": "uint256",
          "name": "validUntil",
          "type": "uint256"
        }
      ],
      "name": "RequestCreated",
      "type": "event"
    },
    {
      "inputs": [],
      "name": "MAX_VALIDITY_PERIOD",
      "outputs": [
        {
          "internalType": "uint256",
          "name": "",
          "type": "uint256"
        }
      ],
      "stateMutability": "view",
      "type": "function"
    },
    {
      "inputs": [],
      "name": "MIN_VALIDITY_PERIOD",
      "outputs": [
        {
          "internalType": "uint256",
          "name": "",
          "type": "uint256"
        }
      ],
      "stateMutability": "view",
      "type": "function"
    },
    {
      "inputs": [
        {
          "internalType": "uint256",
          "name": "claimId",
          "type": "uint256"
        }
      ],
      "name": "challengeClaim",
      "outputs": [],
      "stateMutability": "payable",
      "type": "function"
    },
    {
      "inputs": [],
      "name": "challengePeriodExtension",
      "outputs": [
        {
          "internalType": "uint256",
          "name": "",
          "type": "uint256"
        }
      ],
      "stateMutability": "view",
      "type": "function"
    },
    {
      "inputs": [],
      "name": "claimCounter",
      "outputs": [
        {
          "internalType": "uint256",
          "name": "",
          "type": "uint256"
        }
      ],
      "stateMutability": "view",
      "type": "function"
    },
    {
      "inputs": [],
      "name": "claimPeriod",
      "outputs": [
        {
          "internalType": "uint256",
          "name": "",
          "type": "uint256"
        }
      ],
      "stateMutability": "view",
      "type": "function"
    },
    {
      "inputs": [
        {
          "internalType": "uint256",
          "name": "requestId",
          "type": "uint256"
        },
        {
          "internalType": "bytes32",
          "name": "fillId",
          "type": "bytes32"
        }
      ],
      "name": "claimRequest",
      "outputs": [
        {
          "internalType": "uint256",
          "name": "",
          "type": "uint256"
        }
      ],
      "stateMutability": "payable",
      "type": "function"
    },
    {
      "inputs": [],
      "name": "claimStake",
      "outputs": [
        {
          "internalType": "uint256",
          "name": "",
          "type": "uint256"
        }
      ],
      "stateMutability": "view",
      "type": "function"
    },
    {
      "inputs": [
        {
          "internalType": "uint256",
          "name": "",
          "type": "uint256"
        }
      ],
      "name": "claims",
      "outputs": [
        {
          "internalType": "uint256",
          "name": "requestId",
          "type": "uint256"
        },
        {
          "internalType": "address",
          "name": "claimer",
          "type": "address"
        },
        {
          "internalType": "uint256",
          "name": "claimerStake",
          "type": "uint256"
        },
        {
          "internalType": "address",
          "name": "lastChallenger",
          "type": "address"
        },
        {
          "internalType": "uint256",
          "name": "challengerStakeTotal",
          "type": "uint256"
        },
        {
          "internalType": "uint256",
          "name": "withdrawnAmount",
          "type": "uint256"
        },
        {
          "internalType": "uint256",
          "name": "termination",
          "type": "uint256"
        },
        {
          "internalType": "bytes32",
          "name": "fillId",
          "type": "bytes32"
        }
      ],
      "stateMutability": "view",
      "type": "function"
    },
    {
      "inputs": [
        {
          "internalType": "address",
          "name": "",
          "type": "address"
        }
      ],
      "name": "collectedProtocolFees",
      "outputs": [
        {
          "internalType": "uint256",
          "name": "",
          "type": "uint256"
        }
      ],
      "stateMutability": "view",
      "type": "function"
    },
    {
      "inputs": [
        {
          "internalType": "uint256",
          "name": "targetChainId",
          "type": "uint256"
        },
        {
          "internalType": "address",
          "name": "sourceTokenAddress",
          "type": "address"
        },
        {
          "internalType": "address",
          "name": "targetTokenAddress",
          "type": "address"
        },
        {
          "internalType": "address",
          "name": "targetAddress",
          "type": "address"
        },
        {
          "internalType": "uint256",
          "name": "amount",
          "type": "uint256"
        },
        {
          "internalType": "uint256",
          "name": "validityPeriod",
          "type": "uint256"
        }
      ],
      "name": "createRequest",
      "outputs": [
        {
          "internalType": "uint256",
          "name": "",
          "type": "uint256"
        }
      ],
      "stateMutability": "nonpayable",
      "type": "function"
    },
    {
      "inputs": [],
      "name": "deprecateContract",
      "outputs": [],
      "stateMutability": "nonpayable",
      "type": "function"
    },
    {
      "inputs": [],
      "name": "deprecated",
      "outputs": [
        {
          "internalType": "bool",
          "name": "",
          "type": "bool"
        }
      ],
      "stateMutability": "view",
      "type": "function"
    },
    {
      "inputs": [
        {
          "internalType": "uint256",
          "name": "",
          "type": "uint256"
        }
      ],
      "name": "finalityPeriods",
      "outputs": [
        {
          "internalType": "uint256",
          "name": "",
          "type": "uint256"
        }
      ],
      "stateMutability": "view",
      "type": "function"
    },
    {
      "inputs": [
        {
          "internalType": "uint256",
          "name": "amount",
          "type": "uint256"
        }
      ],
      "name": "lpFee",
      "outputs": [
        {
          "internalType": "uint256",
          "name": "",
          "type": "uint256"
        }
      ],
      "stateMutability": "view",
      "type": "function"
    },
    {
      "inputs": [],
      "name": "lpFeePPM",
      "outputs": [
        {
          "internalType": "uint256",
          "name": "",
          "type": "uint256"
        }
      ],
      "stateMutability": "view",
      "type": "function"
    },
    {
      "inputs": [],
      "name": "minLpFee",
      "outputs": [
        {
          "internalType": "uint256",
          "name": "",
          "type": "uint256"
        }
      ],
      "stateMutability": "view",
      "type": "function"
    },
    {
      "inputs": [],
      "name": "owner",
      "outputs": [
        {
          "internalType": "address",
          "name": "",
          "type": "address"
        }
      ],
      "stateMutability": "view",
      "type": "function"
    },
    {
      "inputs": [
        {
          "internalType": "uint256",
          "name": "amount",
          "type": "uint256"
        }
      ],
      "name": "protocolFee",
      "outputs": [
        {
          "internalType": "uint256",
          "name": "",
          "type": "uint256"
        }
      ],
      "stateMutability": "view",
      "type": "function"
    },
    {
      "inputs": [],
      "name": "protocolFeePPM",
      "outputs": [
        {
          "internalType": "uint256",
          "name": "",
          "type": "uint256"
        }
      ],
      "stateMutability": "view",
      "type": "function"
    },
    {
      "inputs": [],
      "name": "renounceOwnership",
      "outputs": [],
      "stateMutability": "nonpayable",
      "type": "function"
    },
    {
      "inputs": [],
      "name": "requestCounter",
      "outputs": [
        {
          "internalType": "uint256",
          "name": "",
          "type": "uint256"
        }
      ],
      "stateMutability": "view",
      "type": "function"
    },
    {
      "inputs": [
        {
          "internalType": "uint256",
          "name": "",
          "type": "uint256"
        }
      ],
      "name": "requests",
      "outputs": [
        {
          "internalType": "address",
          "name": "sender",
          "type": "address"
        },
        {
          "internalType": "address",
          "name": "sourceTokenAddress",
          "type": "address"
        },
        {
          "internalType": "uint256",
          "name": "targetChainId",
          "type": "uint256"
        },
        {
          "internalType": "address",
          "name": "targetTokenAddress",
          "type": "address"
        },
        {
          "internalType": "address",
          "name": "targetAddress",
          "type": "address"
        },
        {
          "internalType": "uint256",
          "name": "amount",
          "type": "uint256"
        },
        {
          "components": [
            {
              "internalType": "address",
              "name": "filler",
              "type": "address"
            },
            {
              "internalType": "bytes32",
              "name": "fillId",
              "type": "bytes32"
            }
          ],
          "internalType": "struct BeamerUtils.FillInfo",
          "name": "withdrawInfo",
          "type": "tuple"
        },
        {
          "internalType": "uint192",
          "name": "activeClaims",
          "type": "uint192"
        },
        {
          "internalType": "uint256",
          "name": "validUntil",
          "type": "uint256"
        },
        {
          "internalType": "uint256",
          "name": "lpFee",
          "type": "uint256"
        },
        {
          "internalType": "uint256",
          "name": "protocolFee",
          "type": "uint256"
        }
      ],
      "stateMutability": "view",
      "type": "function"
    },
    {
      "inputs": [],
      "name": "resolutionRegistry",
      "outputs": [
        {
          "internalType": "contract ResolutionRegistry",
          "name": "",
          "type": "address"
        }
      ],
      "stateMutability": "view",
      "type": "function"
    },
    {
      "inputs": [
        {
          "internalType": "uint256",
          "name": "targetChainId",
          "type": "uint256"
        },
        {
          "internalType": "uint256",
          "name": "finalityPeriod",
          "type": "uint256"
        }
      ],
      "name": "setFinalityPeriod",
      "outputs": [],
      "stateMutability": "nonpayable",
      "type": "function"
    },
    {
      "inputs": [
        {
          "internalType": "uint256",
          "name": "amount",
          "type": "uint256"
        }
      ],
      "name": "totalFee",
      "outputs": [
        {
          "internalType": "uint256",
          "name": "",
          "type": "uint256"
        }
      ],
      "stateMutability": "view",
      "type": "function"
    },
    {
      "inputs": [],
      "name": "transferLimit",
      "outputs": [
        {
          "internalType": "uint256",
          "name": "",
          "type": "uint256"
        }
      ],
      "stateMutability": "view",
      "type": "function"
    },
    {
      "inputs": [
        {
          "internalType": "address",
          "name": "newOwner",
          "type": "address"
        }
      ],
      "name": "transferOwnership",
      "outputs": [],
      "stateMutability": "nonpayable",
      "type": "function"
    },
    {
      "inputs": [
        {
          "internalType": "uint256",
          "name": "newProtocolFeePPM",
          "type": "uint256"
        },
        {
          "internalType": "uint256",
          "name": "newLpFeePPM",
          "type": "uint256"
        },
        {
          "internalType": "uint256",
          "name": "newMinLpFee",
          "type": "uint256"
        }
      ],
      "name": "updateFeeData",
      "outputs": [],
      "stateMutability": "nonpayable",
      "type": "function"
    },
    {
      "inputs": [
        {
          "internalType": "uint256",
          "name": "newTransferLimit",
          "type": "uint256"
        }
      ],
      "name": "updateTransferLimit",
      "outputs": [],
      "stateMutability": "nonpayable",
      "type": "function"
    },
    {
      "inputs": [
        {
          "internalType": "uint256",
          "name": "claimId",
          "type": "uint256"
        }
      ],
      "name": "withdraw",
      "outputs": [
        {
          "internalType": "address",
          "name": "",
          "type": "address"
        }
      ],
      "stateMutability": "nonpayable",
      "type": "function"
    },
    {
      "inputs": [
        {
          "internalType": "uint256",
          "name": "requestId",
          "type": "uint256"
        }
      ],
      "name": "withdrawExpiredRequest",
      "outputs": [],
      "stateMutability": "nonpayable",
      "type": "function"
    },
    {
      "inputs": [
        {
          "internalType": "address",
          "name": "tokenAddress",
          "type": "address"
        },
        {
          "internalType": "address",
          "name": "recipient",
          "type": "address"
        }
      ],
      "name": "withdrawProtocolFees",
      "outputs": [],
      "stateMutability": "nonpayable",
      "type": "function"
    }
  ],
  "bytecode": "6080604052674563918244f40000600b556103e8600c556000600d5569021e19e0c9bab2400000600e553480156200003657600080fd5b5060405162002864380380620028648339810160408190526200005991620000e8565b620000643362000098565b600193909355600291909155600355600780546001600160a01b0319166001600160a01b0390921691909117905562000139565b600080546001600160a01b038381166001600160a01b0319831681178455604051919092169283917f8be0079c531659141344cd1fd0a4f28419497f9722a3daafe3b4186f6b6457e09190a35050565b60008060008060808587031215620000ff57600080fd5b845160208601516040870151606088015192965090945092506001600160a01b03811681146200012e57600080fd5b939692955090935050565b61271b80620001496000396000f3fe6080604052600436106101ee5760003560e01c8063973a814e1161010d578063d3868348116100a0578063ea656f7d1161006f578063ea656f7d146106df578063eb321173146106f4578063f2fde38b1461070a578063f7d64cec1461072a578063f94325171461074a57600080fd5b8063d386834814610673578063d762a37b14610693578063e2653eeb146106b3578063e7aad5c4146106c957600080fd5b8063b1743c5b116100dc578063b1743c5b14610600578063cea74edf14610613578063cf7b287f14610633578063d137920b1461065357600080fd5b8063973a814e146104fa578063a032b5f414610510578063a888c2cd14610530578063ab9634ee146105e057600080fd5b80636bc6c8d11161018557806381d12c581161015457806381d12c58146103875780638da5cb5b146104b157806392c824d8146104cf57806396171d05146104e257600080fd5b80636bc6c8d11461030d578063715018a61461033a57806378da194b146103515780637dc2cd981461037157600080fd5b80632f4212b8116101c15780632f4212b8146102945780632f92f009146102b45780634efa8f17146102e15780635d5aa11b146102f757600080fd5b80630e136b19146101f35780631489f8d2146102225780631d18adc5146102465780632e1a7d4d1461025c575b600080fd5b3480156101ff57600080fd5b5060045461020d9060ff1681565b60405190151581526020015b60405180910390f35b34801561022e57600080fd5b5061023861012c81565b604051908152602001610219565b34801561025257600080fd5b5061023860035481565b34801561026857600080fd5b5061027c61027736600461237d565b610760565b6040516001600160a01b039091168152602001610219565b3480156102a057600080fd5b506102386102af3660046123ab565b610a17565b3480156102c057600080fd5b506102386102cf36600461237d565b60086020526000908152604090205481565b3480156102ed57600080fd5b5061023860065481565b34801561030357600080fd5b50610238600b5481565b34801561031957600080fd5b50610238610328366004612410565b600f6020526000908152604090205481565b34801561034657600080fd5b5061034f610ea3565b005b34801561035d57600080fd5b5061034f61036c36600461242d565b610ed9565b34801561037d57600080fd5b5061023860025481565b34801561039357600080fd5b5061042d6103a236600461237d565b6009602081815260009283526040928390208054600182015460028301546003840154600485015460058601548951808b01909a5260068701546001600160a01b039081168b526007880154988b0198909852600887015498870154600a880154600b909801549689169a9589169994989384169793909216959094936001600160c01b031692908b565b604080516001600160a01b039c8d1681529a8c166020808d0191909152908b0199909952968a1660608a0152948916608089015260a0880193909352815190971660c08701529093015160e08501526001600160c01b0390941661010084015261012083019190915261014082019290925261016081019190915261018001610219565b3480156104bd57600080fd5b506000546001600160a01b031661027c565b61034f6104dd36600461237d565b610f11565b3480156104ee57600080fd5b506102386301dfe20081565b34801561050657600080fd5b5061023860055481565b34801561051c57600080fd5b5061023861052b36600461237d565b611309565b34801561053c57600080fd5b5061059a61054b36600461237d565b600a602052600090815260409020805460018201546002830154600484015460058501546006860154600787015460089097015495966001600160a01b03958616969495909316939192909188565b604080519889526001600160a01b0397881660208a0152880195909552949092166060860152608085015260a084015260c083019190915260e082015261010001610219565b3480156105ec57600080fd5b5060075461027c906001600160a01b031681565b61023861060e366004612459565b61132d565b34801561061f57600080fd5b5061023861062e36600461237d565b6115fb565b34801561063f57600080fd5b5061034f61064e36600461247b565b611619565b34801561065f57600080fd5b5061034f61066e366004612459565b6116cc565b34801561067f57600080fd5b5061034f61068e36600461237d565b6117a4565b34801561069f57600080fd5b5061034f6106ae36600461237d565b6119ae565b3480156106bf57600080fd5b50610238600c5481565b3480156106d557600080fd5b50610238600d5481565b3480156106eb57600080fd5b5061034f6119dd565b34801561070057600080fd5b5061023860015481565b34801561071657600080fd5b5061034f610725366004612410565b611a69565b34801561073657600080fd5b5061023861074536600461237d565b611b04565b34801561075657600080fd5b50610238600e5481565b60008160065481111580156107755750600081115b6107ba5760405162461bcd60e51b815260206004820152601160248201527018db185a5b5259081b9bdd081d985b1a59607a1b60448201526064015b60405180910390fd5b6000838152600a6020908152604080832080548452600990925282209091806107e287611b28565b6001600160a01b0382166000908152600387016020526040902054919350915015610823576001600160a01b03821660009081526003850160205260408120555b836006015460000361087557600883018054600191906000906108509084906001600160c01b03166124ca565b92506101000a8154816001600160c01b0302191690836001600160c01b031602179055505b8084600601600082825461088991906124f2565b9091555050600584015460028501546108a291906124f2565b846006015411156108f55760405162461bcd60e51b815260206004820152601c60248201527f416d6f756e7420746f20776974686472617720746f6f206c617267650000000060448201526064016107b1565b6000826001600160a01b03168260405160006040518083038185875af1925050503d8060008114610942576040519150601f19603f3d011682016040523d82523d6000602084013e610947565b606091505b505090508061098f5760405162461bcd60e51b81526020600482015260146024820152732330b4b632b2103a379039b2b7321022ba3432b960611b60448201526064016107b1565b8454604080518a81526001600160a01b03861660208201527f5b0aec51a74bf236e8fa08bcb2e303068c7ac1aed3ca410d25b8dad27538d73c910160405180910390a260068401546001600160a01b03161580156109fc575060018501546001600160a01b038481169116145b15610a0b57610a0b8486611f3c565b50909695505050505050565b60045460009060ff1615610a665760405162461bcd60e51b815260206004820152601660248201527510dbdb9d1c9858dd081a5cc819195c1c9958d85d195960521b60448201526064016107b1565b6000878152600860205260408120549003610ac35760405162461bcd60e51b815260206004820152601b60248201527f54617267657420726f6c6c7570206e6f7420737570706f72746564000000000060448201526064016107b1565b61012c821015610b155760405162461bcd60e51b815260206004820152601960248201527f56616c696469747920706572696f6420746f6f2073686f72740000000000000060448201526064016107b1565b6301dfe200821115610b695760405162461bcd60e51b815260206004820152601860248201527f56616c696469747920706572696f6420746f6f206c6f6e67000000000000000060448201526064016107b1565b600e54831115610bbb5760405162461bcd60e51b815260206004820152601d60248201527f416d6f756e742065786365656473207472616e73666572206c696d697400000060448201526064016107b1565b856000610bc785611b04565b90506000610bd486611309565b9050600081610be384896124f2565b610bed91906124f2565b604051636eb1769f60e11b815233600482015230602482015290915081906001600160a01b0386169063dd62ed3e90604401602060405180830381865afa158015610c3c573d6000803e3d6000fd5b505050506040513d601f19601f82011682018060405250810190610c60919061250a565b1015610ca75760405162461bcd60e51b8152602060048201526016602482015275496e73756666696369656e7420616c6c6f77616e636560501b60448201526064016107b1565b600160056000828254610cba91906124f2565b9250508190555060006009600060055481526020019081526020016000209050338160000160006101000a8154816001600160a01b0302191690836001600160a01b031602179055508a8160010160006101000a8154816001600160a01b0302191690836001600160a01b031602179055508b8160020181905550898160030160006101000a8154816001600160a01b0302191690836001600160a01b03160217905550888160040160006101000a8154816001600160a01b0302191690836001600160a01b03160217905550878160050181905550604051806040016040528060006001600160a01b031681526020016000801b8152508160060160008201518160000160006101000a8154816001600160a01b0302191690836001600160a01b03160217905550602082015181600101559050508642610dfc91906124f2565b60098201819055600a8201859055600b820184905560055460408051918252602082018f90526001600160a01b038e8116838301528d811660608401528c16608083015260a082018b905260c082019290925290517f18a412d0656b9a5c9263a134f66a34da33cad7c3690971601f9963ade588e7019181900360e00190a1610e906001600160a01b038616333085612021565b50506005549a9950505050505050505050565b6000546001600160a01b03163314610ecd5760405162461bcd60e51b81526004016107b190612523565b610ed7600061208c565b565b6000546001600160a01b03163314610f035760405162461bcd60e51b81526004016107b190612523565b600d92909255600c55600b55565b806006548111158015610f245750600081115b610f645760405162461bcd60e51b815260206004820152601160248201527018db185a5b5259081b9bdd081d985b1a59607a1b60448201526064016107b1565b6000828152600a6020908152604080832080548452600990925290912060078201544210610fc45760405162461bcd60e51b815260206004820152600d60248201526c10db185a5b48195e1c1a5c9959609a1b60448201526064016107b1565b600354600283015460058401546000928392909180821115611086578060000361100957600286015460009081526008602052604090205461100690846124f2565b92505b6001870154336001600160a01b03909116036110675760405162461bcd60e51b815260206004820152601a60248201527f43616e6e6f74206368616c6c656e6765206f776e20636c61696d00000000000060448201526064016107b1565b3394506110748183612558565b61107f9060016124f2565b93506110b2565b60018088015490546001600160a01b0390911695506110a58383612558565b6110af91906124f2565b93505b336001600160a01b038616146111035760405162461bcd60e51b8152602060048201526016602482015275139bdd08195b1a59da589b19481d1bc81bdd5d189a5960521b60448201526064016107b1565b833410156111535760405162461bcd60e51b815260206004820152601960248201527f4e6f7420656e6f756768207374616b652070726f76696465640000000000000060448201526064016107b1565b60018701546001600160a01b039081169086160361118a573487600201600082825461117f91906124f2565b909155506111e29050565b6004870180546001600160a01b031916339081179091556000908152600388016020526040812080543492906111c19084906124f2565b92505081905550348760050160008282546111dc91906124f2565b90915550505b60078701546111fa906111f585426124f2565b6120dc565b600788015560035460009061120f90426124f2565b905080886007015410156112775760405162461bcd60e51b815260206004820152602960248201527f436c61696d207465726d696e6174696f6e20646964206e6f7420696e637265616044820152680e6ca40cadcdeeaced60bb1b60648201526084016107b1565b87600001547f29fd2df293ba511e44ca47212c915137020231ed3ac0ee7bd02a7a655275ad378b8a60010160009054906101000a90046001600160a01b03168b600201548c60040160009054906101000a90046001600160a01b03168d600501548e600701548f600801546040516112f5979695949392919061256f565b60405180910390a250505050505050505050565b6000620f4240600d548361131d91906125ae565b61132791906125cd565b92915050565b60008260055481111580156113425750600081115b6113845760405162461bcd60e51b81526020600482015260136024820152721c995c5d595cdd1259081b9bdd081d985b1a59606a1b60448201526064016107b1565b60008481526009602081905260409091209081015442106113d95760405162461bcd60e51b815260206004820152600f60248201526e14995c5d595cdd08195e1c1a5c9959608a1b60448201526064016107b1565b60068101546001600160a01b0316156114305760405162461bcd60e51b81526020600482015260196024820152782232b837b9b4ba1030b63932b0b23c903bb4ba34323930bbb760391b60448201526064016107b1565b60015434146114785760405162461bcd60e51b8152602060048201526014602482015273125b9d985b1a59081cdd185ad948185b5bdd5b9d60621b60448201526064016107b1565b836114be5760405162461bcd60e51b8152602060048201526016602482015275046696c6c4964206d757374206e6f74206265203078360541b60448201526064016107b1565b600881018054600191906000906114df9084906001600160c01b03166125ef565b92506101000a8154816001600160c01b0302191690836001600160c01b0316021790555060016006600082825461151691906124f2565b9091555050600680546000908152600a60205260408120878155600180820180546001600160a01b0319908116331790915590546002808401919091556004830180549092169091556005820183905592810191909155905461157990426124f2565b600782018190556008820186905560065460018301546002840154600485015460058601546040518c967f29fd2df293ba511e44ca47212c915137020231ed3ac0ee7bd02a7a655275ad37966115e69690956001600160a01b039182169590949116929091908e9061256f565b60405180910390a25050600654949350505050565b600061160682611309565b61160f83611b04565b61132791906124f2565b6000546001600160a01b031633146116435760405162461bcd60e51b81526004016107b190612523565b6001600160a01b0382166000908152600f6020526040902054806116a05760405162461bcd60e51b815260206004820152601460248201527350726f746f636f6c20666565206973207a65726f60601b60448201526064016107b1565b6001600160a01b0383166000818152600f602052604081205583906116c69084846120f5565b50505050565b6000546001600160a01b031633146116f65760405162461bcd60e51b81526004016107b190612523565b600081116117555760405162461bcd60e51b815260206004820152602660248201527f46696e616c69747920706572696f64206d75737420626520677265617465722060448201526507468616e20360d41b60648201526084016107b1565b60008281526008602090815260409182902083905581518481529081018390527faba57b48b9f1dfd5747a52ed348a6ab6aa7bafb0575363a5cb7b62659f727b65910160405180910390a15050565b8060055481111580156117b75750600081115b6117f95760405162461bcd60e51b81526020600482015260136024820152721c995c5d595cdd1259081b9bdd081d985b1a59606a1b60448201526064016107b1565b600082815260096020526040902060068101546001600160a01b03161561185e5760405162461bcd60e51b81526020600482015260196024820152782232b837b9b4ba1030b63932b0b23c903bb4ba34323930bbb760391b60448201526064016107b1565b80600901544210156118b25760405162461bcd60e51b815260206004820152601760248201527f52657175657374206e6f7420657870697265642079657400000000000000000060448201526064016107b1565b60088101546001600160c01b0316156119055760405162461bcd60e51b815260206004820152601560248201527441637469766520636c61696d732072756e6e696e6760581b60448201526064016107b1565b80546006820180546001600160a01b0319166001600160a01b0390921691821790556040805185815260208101929092527fa7b86597910aae75f7d99feb2f37420cc80d457465ffba0f8136d722a9f7095a910160405180910390a160018101548154600b830154600a84015460058501546001600160a01b03948516946116c694169291611993916124f2565b61199d91906124f2565b6001600160a01b03841691906120f5565b6000546001600160a01b031633146119d85760405162461bcd60e51b81526004016107b190612523565b600e55565b6000546001600160a01b03163314611a075760405162461bcd60e51b81526004016107b190612523565b60045460ff1615611a5a5760405162461bcd60e51b815260206004820152601b60248201527f436f6e747261637420616c72656164792064657072656361746564000000000060448201526064016107b1565b6004805460ff19166001179055565b6000546001600160a01b03163314611a935760405162461bcd60e51b81526004016107b190612523565b6001600160a01b038116611af85760405162461bcd60e51b815260206004820152602660248201527f4f776e61626c653a206e6577206f776e657220697320746865207a65726f206160448201526564647265737360d01b60648201526084016107b1565b611b018161208c565b50565b6000611327600b54620f4240600c5485611b1e91906125ae565b6111f591906125cd565b6000818152600a602090815260408083208054845260099092528220600282015460058301548493929190611b5d81836124f2565b846006015410611baf5760405162461bcd60e51b815260206004820152601760248201527f436c61696d20616c72656164792077697468647261776e00000000000000000060448201526064016107b1565b835460028401546003850154600486015460058701546040805160208082019790975246818301526060808201969096526bffffffffffffffffffffffff1994861b851660808201529290941b909216609482015260a8808201929092528251808203909201825260c80190915280519101206000611c59828760080154604080516020808201949094528082019290925280518083038201815260609092019052805191012090565b60408051808201825260068801546001600160a01b0390811682526007808a0154602084015254925163a64a227160e01b815260048101879052939450600093919284928392919091169063a64a2271906024016040805180830381865afa158015611cc9573d6000803e3d6000fd5b505050506040513d601f19601f82011682018060405250810190611ced919061261a565b90925090506001600160a01b038216611d0a575050805160208201515b60075460405163a751732f60e01b8152600481018790526001600160a01b039091169063a751732f90602401602060405180830381865afa158015611d53573d6000803e3d6000fd5b505050506040513d601f19601f82011682018060405250810190611d779190612648565b15611d855760009350611e17565b6001600160a01b03821615611dbd5760018a01546001600160a01b038381169116148015611db65750896008015481145b9350611e17565b8960070154421015611e115760405162461bcd60e51b815260206004820152601960248201527f436c61696d20706572696f64206e6f742066696e69736865640000000000000060448201526064016107b1565b86881193505b6000808515611e4257611e2a898b6124f2565b60018d01549092506001600160a01b03169050611edb565b8815611eca5733600090815260038d016020526040902054611e659060026125ae565b915033905060008211611ec55760405162461bcd60e51b815260206004820152602260248201527f4368616c6c656e67657220686173206e6f7468696e6720746f20776974686472604482015261617760f01b60648201526084016107b1565b611edb565b505060005488906001600160a01b03165b60048c01546001600160a01b03163303611f2957888a1115611f1257611f01898b612558565b611f0b90836124f2565b9150611f29565b611f1c8a8a612558565b611f269083612558565b91505b9e909d509b505050505050505050505050565b60018101548154604080519182526001600160a01b0390921660208201819052917fa7b86597910aae75f7d99feb2f37420cc80d457465ffba0f8136d722a9f7095a910160405180910390a16040805180820182526001600160a01b03808416808352600886015460209384018190526006880180546001600160a01b0319169092179091556007870155600b86015460018701549091166000908152600f9092529181208054909190611ff19084906124f2565b90915550506001830154600a84015460058501546001600160a01b03909216916116c691849161199d91906124f2565b6040516001600160a01b03808516602483015283166044820152606481018290526116c69085906323b872dd60e01b906084015b60408051601f198184030181529190526020810180516001600160e01b03166001600160e01b03199093169290921790915261212a565b600080546001600160a01b038381166001600160a01b0319831681178455604051919092169283917f8be0079c531659141344cd1fd0a4f28419497f9722a3daafe3b4186f6b6457e09190a35050565b6000818310156120ec57816120ee565b825b9392505050565b6040516001600160a01b03831660248201526044810182905261212590849063a9059cbb60e01b90606401612055565b505050565b600061217f826040518060400160405280602081526020017f5361666545524332303a206c6f772d6c6576656c2063616c6c206661696c6564815250856001600160a01b03166121fc9092919063ffffffff16565b805190915015612125578080602001905181019061219d9190612648565b6121255760405162461bcd60e51b815260206004820152602a60248201527f5361666545524332303a204552433230206f7065726174696f6e20646964206e6044820152691bdd081cdd58d8d9595960b21b60648201526084016107b1565b606061220b8484600085612213565b949350505050565b6060824710156122745760405162461bcd60e51b815260206004820152602660248201527f416464726573733a20696e73756666696369656e742062616c616e636520666f6044820152651c8818d85b1b60d21b60648201526084016107b1565b6001600160a01b0385163b6122cb5760405162461bcd60e51b815260206004820152601d60248201527f416464726573733a2063616c6c20746f206e6f6e2d636f6e747261637400000060448201526064016107b1565b600080866001600160a01b031685876040516122e79190612696565b60006040518083038185875af1925050503d8060008114612324576040519150601f19603f3d011682016040523d82523d6000602084013e612329565b606091505b5091509150612339828286612344565b979650505050505050565b606083156123535750816120ee565b8251156123635782518084602001fd5b8160405162461bcd60e51b81526004016107b191906126b2565b60006020828403121561238f57600080fd5b5035919050565b6001600160a01b0381168114611b0157600080fd5b60008060008060008060c087890312156123c457600080fd5b8635955060208701356123d681612396565b945060408701356123e681612396565b935060608701356123f681612396565b9598949750929560808101359460a0909101359350915050565b60006020828403121561242257600080fd5b81356120ee81612396565b60008060006060848603121561244257600080fd5b505081359360208301359350604090920135919050565b6000806040838503121561246c57600080fd5b50508035926020909101359150565b6000806040838503121561248e57600080fd5b823561249981612396565b915060208301356124a981612396565b809150509250929050565b634e487b7160e01b600052601160045260246000fd5b60006001600160c01b03838116908316818110156124ea576124ea6124b4565b039392505050565b60008219821115612505576125056124b4565b500190565b60006020828403121561251c57600080fd5b5051919050565b6020808252818101527f4f776e61626c653a2063616c6c6572206973206e6f7420746865206f776e6572604082015260600190565b60008282101561256a5761256a6124b4565b500390565b9687526001600160a01b0395861660208801526040870194909452919093166060850152608084019290925260a083019190915260c082015260e00190565b60008160001904831182151516156125c8576125c86124b4565b500290565b6000826125ea57634e487b7160e01b600052601260045260246000fd5b500490565b60006001600160c01b03828116848216808303821115612611576126116124b4565b01949350505050565b6000806040838503121561262d57600080fd5b825161263881612396565b6020939093015192949293505050565b60006020828403121561265a57600080fd5b815180151581146120ee57600080fd5b60005b8381101561268557818101518382015260200161266d565b838111156116c65750506000910152565b600082516126a881846020870161266a565b9190910192915050565b60208152600082518060208401526126d181604085016020870161266a565b601f01601f1916919091016040019291505056fea26469706673582212206ce8521a489a72409700b7dcbdf5f4bf64b2573ea76b8ef4e61c8f859cca711364736f6c634300080d0033",
  "bytecodeSha1": "d87f828086e1c9d0616e58e7ea1549a1d65e47a8",
  "compiler": {
    "evm_version": "london",
    "optimizer": {
      "enabled": true,
      "runs": 200
    },
    "version": "0.8.13+commit.abaa5c0e"
  },
  "contractName": "RequestManager",
  "language": "Solidity",
  "natspec": {
    "kind": "dev",
    "methods": {
      "MAX_VALIDITY_PERIOD()": {
        "notice": "The maximum validity period of a request."
      },
      "MIN_VALIDITY_PERIOD()": {
        "notice": "The minimum validity period of a request."
      },
      "challengeClaim(uint256)": {
        "notice": "Challenge an existing claim. The claim must still be valid at call time. This function implements one round of the challenge game. The original claimer is allowed to call this function only after someone else made a challenge, i.e. every second round. However, once the original claimer counter-challenges, anyone can join the game and make another challenge. The caller must provide enough native tokens as their stake. For the original claimer, the minimum stake is ``challengerStakeTotal - claimerStake + claimStake``. For challengers, the minimum stake is ``claimerStake - challengerStakeTotal + 1``. An example (time flows downwards, claimStake = 10)::   claimRequest() by Max [stakes 10]   challengeClaim() by Alice [stakes 11]   challengeClaim() by Max [stakes 11]   challengeClaim() by Bob [stakes 16] In this example, if Max didn't want to lose the challenge game to Alice and Bob, he would have to challenge with a stake of at least 16.",
        "params": {
          "claimId": "The claim ID."
        }
      },
      "challengePeriodExtension()": {
        "notice": "The period by which the termination time of a claim is extended after each round of the challenge game. This period should allow enough time for the other parties to counter-challenge. .. note::    The claim's termination time is extended only if it is less than the    extension time. Note that in the first challenge round, i.e. the round initiated by the first challenger, the termination time is extended additionally by the finality period of the target chain. This is done to allow for L1 resolution."
      },
      "claimCounter()": {
        "notice": "The claim counter, used to generate claim IDs."
      },
      "claimPeriod()": {
        "notice": "The period for which the claim is valid."
      },
      "claimRequest(uint256,bytes32)": {
        "notice": "Claim that a request was filled by the caller. The request must still be valid at call time. The caller must provide the ``claimStake`` amount of source rollup's native token.",
        "params": {
          "fillId": "The fill ID.",
          "requestId": "ID of the request."
        },
        "returns": {
          "_0": "The claim ID."
        }
      },
      "claimStake()": {
        "notice": "The minimum amount of source chain's native token that the claimer needs to provide when making a claim, as well in each round of the challenge game."
      },
      "claims(uint256)": {
        "notice": "Maps claim IDs to claims."
      },
      "collectedProtocolFees(address)": {
        "notice": "Maps ERC20 token addresses to related token amounts that belong to the protocol."
      },
      "constructor": {
        "notice": "Constructor.",
        "params": {
          "_challengePeriodExtension": "Challenge period extension, in seconds.",
          "_claimPeriod": "Claim period, in seconds.",
          "_claimStake": "Claim stake amount.",
          "_resolutionRegistry": "Address of the resolution registry."
        }
      },
      "createRequest(uint256,address,address,address,uint256,uint256)": {
        "notice": "Create a new transfer request.",
        "params": {
          "amount": "Amount of tokens to transfer. Does not include fees.",
          "sourceTokenAddress": "Address of the token contract on the source chain.",
          "targetAddress": "Recipient address on the target chain.",
          "targetChainId": "ID of the target chain.",
          "targetTokenAddress": "Address of the token contract on the target chain.",
          "validityPeriod": "The number of seconds the request is to be considered valid.                       Once its validity period has elapsed, the request cannot be claimed                       anymore and will eventually expire, allowing the request submitter                       to withdraw the deposited tokens if there are no active claims."
        },
        "returns": {
          "_0": "ID of the newly created request."
        }
      },
      "deprecateContract()": {
        "notice": "Mark the contract as deprecated. Once the contract is deprecated, it cannot be used to create new requests anymore. Withdrawing deposited funds and claim stakes still works, though. .. note:: This function can only be called by the contract owner."
      },
      "deprecated()": {
        "notice": "Indicates whether the contract is deprecated. A deprecated contract cannot be used to create new requests."
      },
      "finalityPeriods(uint256)": {
        "notice": "Maps target rollup chain IDs to finality periods. Finality periods are in seconds."
      },
      "lpFee(uint256)": {
        "notice": "Compute the liquidy provider fee that needs to be paid for a given transfer amount."
      },
      "lpFeePPM()": {
        "notice": "Liquidity provider fee percentage, expressed in ppm (parts per million)."
      },
      "minLpFee()": {
        "notice": "The minimum fee, denominated in transfer token, paid to the liquidity provider."
      },
      "owner()": {
        "details": "Returns the address of the current owner."
      },
      "protocolFee(uint256)": {
        "notice": "Compute the protocol fee that needs to be paid for a given transfer amount."
      },
      "protocolFeePPM()": {
        "notice": "Protocol fee percentage, expressed in ppm (parts per million)."
      },
      "renounceOwnership()": {
        "details": "Leaves the contract without owner. It will not be possible to call `onlyOwner` functions anymore. Can only be called by the current owner. NOTE: Renouncing ownership will leave the contract without an owner, thereby removing any functionality that is only available to the owner."
      },
      "requestCounter()": {
        "notice": "The request counter, used to generate request IDs."
      },
      "requests(uint256)": {
        "notice": "Maps request IDs to requests."
      },
      "resolutionRegistry()": {
        "notice": "The resolution registry that is used to query for results of L1 resolution."
      },
      "setFinalityPeriod(uint256,uint256)": {
        "notice": "Set the finality period for the given target chain. .. note:: This function can only be called by the contract owner.",
        "params": {
          "finalityPeriod": "Finality period in seconds.",
          "targetChainId": "The target chain ID."
        }
      },
      "totalFee(uint256)": {
        "notice": "Compute the total fee that needs to be paid for a given transfer amount. The total fee is the sum of the liquidity provider fee and the protocol fee."
      },
      "transferLimit()": {
        "notice": "The maximum amount of tokens that can be transferred in a single request."
      },
      "transferOwnership(address)": {
        "details": "Transfers ownership of the contract to a new account (`newOwner`). Can only be called by the current owner."
      },
      "updateFeeData(uint256,uint256,uint256)": {
        "notice": "Update fee parameters. .. note:: This function can only be called by the contract owner.",
        "params": {
          "newLpFeePPM": "The new value for ``lpFeePPM``.",
          "newMinLpFee": "The new value for ``minLpFee``.",
          "newProtocolFeePPM": "The new value for ``protocolFeePPM``."
        }
      },
      "updateTransferLimit(uint256)": {
        "notice": "Update the transfer amount limit. .. note:: This function can only be called by the contract owner.",
        "params": {
          "newTransferLimit": "The new value for ``transferLimit``."
        }
      },
      "withdraw(uint256)": {
        "notice": "Withdraw the deposit that the request submitter left with the contract, as well as the staked native tokens associated with the claim. In case the caller of this function is a challenger that won the game, they will only get their staked native tokens plus the reward in the form of full (sole challenger) or partial (multiple challengers) amount of native tokens staked by the dishonest claimer.",
        "params": {
          "claimId": "The claim ID."
        },
        "returns": {
          "_0": "The address of the deposit receiver."
        }
      },
      "withdrawExpiredRequest(uint256)": {
        "notice": "Withdraw funds deposited with an expired request. No claims must be active for the request.",
        "params": {
          "requestId": "ID of the expired request."
        }
      },
      "withdrawProtocolFees(address,address)": {
        "notice": "Withdraw protocol fees collected by the contract. Protocol fees are paid in token transferred. .. note:: This function can only be called by the contract owner.",
        "params": {
          "recipient": "The address the fees should be sent to.",
          "tokenAddress": "The address of the token contract."
        }
      }
    },
    "notice": "The request manager. This contract is responsible for keeping track of transfer requests, implementing the rules of the challenge game and holding deposited tokens until they are withdrawn. It is the only contract that agents need to interact with on the source chain.",
    "version": 1
  },
  "opcodes": "PUSH1 0x80 PUSH1 0x40 MSTORE PUSH1 0x4 CALLDATASIZE LT PUSH2 0x1EE JUMPI PUSH1 0x0 CALLDATALOAD PUSH1 0xE0 SHR DUP1 PUSH4 0x973A814E GT PUSH2 0x10D JUMPI DUP1 PUSH4 0xD3868348 GT PUSH2 0xA0 JUMPI DUP1 PUSH4 0xEA656F7D GT PUSH2 0x6F JUMPI DUP1 PUSH4 0xEA656F7D EQ PUSH2 0x6DF JUMPI DUP1 PUSH4 0xEB321173 EQ PUSH2 0x6F4 JUMPI DUP1 PUSH4 0xF2FDE38B EQ PUSH2 0x70A JUMPI DUP1 PUSH4 0xF7D64CEC EQ PUSH2 0x72A JUMPI DUP1 PUSH4 0xF9432517 EQ PUSH2 0x74A JUMPI PUSH1 0x0 DUP1 REVERT JUMPDEST DUP1 PUSH4 0xD3868348 EQ PUSH2 0x673 JUMPI DUP1 PUSH4 0xD762A37B EQ PUSH2 0x693 JUMPI DUP1 PUSH4 0xE2653EEB EQ PUSH2 0x6B3 JUMPI DUP1 PUSH4 0xE7AAD5C4 EQ PUSH2 0x6C9 JUMPI PUSH1 0x0 DUP1 REVERT JUMPDEST DUP1 PUSH4 0xB1743C5B GT PUSH2 0xDC JUMPI DUP1 PUSH4 0xB1743C5B EQ PUSH2 0x600 JUMPI DUP1 PUSH4 0xCEA74EDF EQ PUSH2 0x613 JUMPI DUP1 PUSH4 0xCF7B287F EQ PUSH2 0x633 JUMPI DUP1 PUSH4 0xD137920B EQ PUSH2 0x653 JUMPI PUSH1 0x0 DUP1 REVERT JUMPDEST DUP1 PUSH4 0x973A814E EQ PUSH2 0x4FA JUMPI DUP1 PUSH4 0xA032B5F4 EQ PUSH2 0x510 JUMPI DUP1 PUSH4 0xA888C2CD EQ PUSH2 0x530 JUMPI DUP1 PUSH4 0xAB9634EE EQ PUSH2 0x5E0 JUMPI PUSH1 0x0 DUP1 REVERT JUMPDEST DUP1 PUSH4 0x6BC6C8D1 GT PUSH2 0x185 JUMPI DUP1 PUSH4 0x81D12C58 GT PUSH2 0x154 JUMPI DUP1 PUSH4 0x81D12C58 EQ PUSH2 0x387 JUMPI DUP1 PUSH4 0x8DA5CB5B EQ PUSH2 0x4B1 JUMPI DUP1 PUSH4 0x92C824D8 EQ PUSH2 0x4CF JUMPI DUP1 PUSH4 0x96171D05 EQ PUSH2 0x4E2 JUMPI PUSH1 0x0 DUP1 REVERT JUMPDEST DUP1 PUSH4 0x6BC6C8D1 EQ PUSH2 0x30D JUMPI DUP1 PUSH4 0x715018A6 EQ PUSH2 0x33A JUMPI DUP1 PUSH4 0x78DA194B EQ PUSH2 0x351 JUMPI DUP1 PUSH4 0x7DC2CD98 EQ PUSH2 0x371 JUMPI PUSH1 0x0 DUP1 REVERT JUMPDEST DUP1 PUSH4 0x2F4212B8 GT PUSH2 0x1C1 JUMPI DUP1 PUSH4 0x2F4212B8 EQ PUSH2 0x294 JUMPI DUP1 PUSH4 0x2F92F009 EQ PUSH2 0x2B4 JUMPI DUP1 PUSH4 0x4EFA8F17 EQ PUSH2 0x2E1 JUMPI DUP1 PUSH4 0x5D5AA11B EQ PUSH2 0x2F7 JUMPI PUSH1 0x0 DUP1 REVERT JUMPDEST DUP1 PUSH4 0xE136B19 EQ PUSH2 0x1F3 JUMPI DUP1 PUSH4 0x1489F8D2 EQ PUSH2 0x222 JUMPI DUP1 PUSH4 0x1D18ADC5 EQ PUSH2 0x246 JUMPI DUP1 PUSH4 0x2E1A7D4D EQ PUSH2 0x25C JUMPI JUMPDEST PUSH1 0x0 DUP1 REVERT JUMPDEST CALLVALUE DUP1 ISZERO PUSH2 0x1FF JUMPI PUSH1 0x0 DUP1 REVERT JUMPDEST POP PUSH1 0x4 SLOAD PUSH2 0x20D SWAP1 PUSH1 0xFF AND DUP2 JUMP JUMPDEST PUSH1 0x40 MLOAD SWAP1 ISZERO ISZERO DUP2 MSTORE PUSH1 0x20 ADD JUMPDEST PUSH1 0x40 MLOAD DUP1 SWAP2 SUB SWAP1 RETURN JUMPDEST CALLVALUE DUP1 ISZERO PUSH2 0x22E JUMPI PUSH1 0x0 DUP1 REVERT JUMPDEST POP PUSH2 0x238 PUSH2 0x12C DUP2 JUMP JUMPDEST PUSH1 0x40 MLOAD SWAP1 DUP2 MSTORE PUSH1 0x20 ADD PUSH2 0x219 JUMP JUMPDEST CALLVALUE DUP1 ISZERO PUSH2 0x252 JUMPI PUSH1 0x0 DUP1 REVERT JUMPDEST POP PUSH2 0x238 PUSH1 0x3 SLOAD DUP2 JUMP JUMPDEST CALLVALUE DUP1 ISZERO PUSH2 0x268 JUMPI PUSH1 0x0 DUP1 REVERT JUMPDEST POP PUSH2 0x27C PUSH2 0x277 CALLDATASIZE PUSH1 0x4 PUSH2 0x237D JUMP JUMPDEST PUSH2 0x760 JUMP JUMPDEST PUSH1 0x40 MLOAD PUSH1 0x1 PUSH1 0x1 PUSH1 0xA0 SHL SUB SWAP1 SWAP2 AND DUP2 MSTORE PUSH1 0x20 ADD PUSH2 0x219 JUMP JUMPDEST CALLVALUE DUP1 ISZERO PUSH2 0x2A0 JUMPI PUSH1 0x0 DUP1 REVERT JUMPDEST POP PUSH2 0x238 PUSH2 0x2AF CALLDATASIZE PUSH1 0x4 PUSH2 0x23AB JUMP JUMPDEST PUSH2 0xA17 JUMP JUMPDEST CALLVALUE DUP1 ISZERO PUSH2 0x2C0 JUMPI PUSH1 0x0 DUP1 REVERT JUMPDEST POP PUSH2 0x238 PUSH2 0x2CF CALLDATASIZE PUSH1 0x4 PUSH2 0x237D JUMP JUMPDEST PUSH1 0x8 PUSH1 0x20 MSTORE PUSH1 0x0 SWAP1 DUP2 MSTORE PUSH1 0x40 SWAP1 KECCAK256 SLOAD DUP2 JUMP JUMPDEST CALLVALUE DUP1 ISZERO PUSH2 0x2ED JUMPI PUSH1 0x0 DUP1 REVERT JUMPDEST POP PUSH2 0x238 PUSH1 0x6 SLOAD DUP2 JUMP JUMPDEST CALLVALUE DUP1 ISZERO PUSH2 0x303 JUMPI PUSH1 0x0 DUP1 REVERT JUMPDEST POP PUSH2 0x238 PUSH1 0xB SLOAD DUP2 JUMP JUMPDEST CALLVALUE DUP1 ISZERO PUSH2 0x319 JUMPI PUSH1 0x0 DUP1 REVERT JUMPDEST POP PUSH2 0x238 PUSH2 0x328 CALLDATASIZE PUSH1 0x4 PUSH2 0x2410 JUMP JUMPDEST PUSH1 0xF PUSH1 0x20 MSTORE PUSH1 0x0 SWAP1 DUP2 MSTORE PUSH1 0x40 SWAP1 KECCAK256 SLOAD DUP2 JUMP JUMPDEST CALLVALUE DUP1 ISZERO PUSH2 0x346 JUMPI PUSH1 0x0 DUP1 REVERT JUMPDEST POP PUSH2 0x34F PUSH2 0xEA3 JUMP JUMPDEST STOP JUMPDEST CALLVALUE DUP1 ISZERO PUSH2 0x35D JUMPI PUSH1 0x0 DUP1 REVERT JUMPDEST POP PUSH2 0x34F PUSH2 0x36C CALLDATASIZE PUSH1 0x4 PUSH2 0x242D JUMP JUMPDEST PUSH2 0xED9 JUMP JUMPDEST CALLVALUE DUP1 ISZERO PUSH2 0x37D JUMPI PUSH1 0x0 DUP1 REVERT JUMPDEST POP PUSH2 0x238 PUSH1 0x2 SLOAD DUP2 JUMP JUMPDEST CALLVALUE DUP1 ISZERO PUSH2 0x393 JUMPI PUSH1 0x0 DUP1 REVERT JUMPDEST POP PUSH2 0x42D PUSH2 0x3A2 CALLDATASIZE PUSH1 0x4 PUSH2 0x237D JUMP JUMPDEST PUSH1 0x9 PUSH1 0x20 DUP2 DUP2 MSTORE PUSH1 0x0 SWAP3 DUP4 MSTORE PUSH1 0x40 SWAP3 DUP4 SWAP1 KECCAK256 DUP1 SLOAD PUSH1 0x1 DUP3 ADD SLOAD PUSH1 0x2 DUP4 ADD SLOAD PUSH1 0x3 DUP5 ADD SLOAD PUSH1 0x4 DUP6 ADD SLOAD PUSH1 0x5 DUP7 ADD SLOAD DUP10 MLOAD DUP1 DUP12 ADD SWAP1 SWAP11 MSTORE PUSH1 0x6 DUP8 ADD SLOAD PUSH1 0x1 PUSH1 0x1 PUSH1 0xA0 SHL SUB SWAP1 DUP2 AND DUP12 MSTORE PUSH1 0x7 DUP9 ADD SLOAD SWAP9 DUP12 ADD SWAP9 SWAP1 SWAP9 MSTORE PUSH1 0x8 DUP8 ADD SLOAD SWAP9 DUP8 ADD SLOAD PUSH1 0xA DUP9 ADD SLOAD PUSH1 0xB SWAP1 SWAP9 ADD SLOAD SWAP7 DUP10 AND SWAP11 SWAP6 DUP10 AND SWAP10 SWAP5 SWAP9 SWAP4 DUP5 AND SWAP8 SWAP4 SWAP1 SWAP3 AND SWAP6 SWAP1 SWAP5 SWAP4 PUSH1 0x1 PUSH1 0x1 PUSH1 0xC0 SHL SUB AND SWAP3 SWAP1 DUP12 JUMP JUMPDEST PUSH1 0x40 DUP1 MLOAD PUSH1 0x1 PUSH1 0x1 PUSH1 0xA0 SHL SUB SWAP13 DUP14 AND DUP2 MSTORE SWAP11 DUP13 AND PUSH1 0x20 DUP1 DUP14 ADD SWAP2 SWAP1 SWAP2 MSTORE SWAP1 DUP12 ADD SWAP10 SWAP1 SWAP10 MSTORE SWAP7 DUP11 AND PUSH1 0x60 DUP11 ADD MSTORE SWAP5 DUP10 AND PUSH1 0x80 DUP10 ADD MSTORE PUSH1 0xA0 DUP9 ADD SWAP4 SWAP1 SWAP4 MSTORE DUP2 MLOAD SWAP1 SWAP8 AND PUSH1 0xC0 DUP8 ADD MSTORE SWAP1 SWAP4 ADD MLOAD PUSH1 0xE0 DUP6 ADD MSTORE PUSH1 0x1 PUSH1 0x1 PUSH1 0xC0 SHL SUB SWAP1 SWAP5 AND PUSH2 0x100 DUP5 ADD MSTORE PUSH2 0x120 DUP4 ADD SWAP2 SWAP1 SWAP2 MSTORE PUSH2 0x140 DUP3 ADD SWAP3 SWAP1 SWAP3 MSTORE PUSH2 0x160 DUP2 ADD SWAP2 SWAP1 SWAP2 MSTORE PUSH2 0x180 ADD PUSH2 0x219 JUMP JUMPDEST CALLVALUE DUP1 ISZERO PUSH2 0x4BD JUMPI PUSH1 0x0 DUP1 REVERT JUMPDEST POP PUSH1 0x0 SLOAD PUSH1 0x1 PUSH1 0x1 PUSH1 0xA0 SHL SUB AND PUSH2 0x27C JUMP JUMPDEST PUSH2 0x34F PUSH2 0x4DD CALLDATASIZE PUSH1 0x4 PUSH2 0x237D JUMP JUMPDEST PUSH2 0xF11 JUMP JUMPDEST CALLVALUE DUP1 ISZERO PUSH2 0x4EE JUMPI PUSH1 0x0 DUP1 REVERT JUMPDEST POP PUSH2 0x238 PUSH4 0x1DFE200 DUP2 JUMP JUMPDEST CALLVALUE DUP1 ISZERO PUSH2 0x506 JUMPI PUSH1 0x0 DUP1 REVERT JUMPDEST POP PUSH2 0x238 PUSH1 0x5 SLOAD DUP2 JUMP JUMPDEST CALLVALUE DUP1 ISZERO PUSH2 0x51C JUMPI PUSH1 0x0 DUP1 REVERT JUMPDEST POP PUSH2 0x238 PUSH2 0x52B CALLDATASIZE PUSH1 0x4 PUSH2 0x237D JUMP JUMPDEST PUSH2 0x1309 JUMP JUMPDEST CALLVALUE DUP1 ISZERO PUSH2 0x53C JUMPI PUSH1 0x0 DUP1 REVERT JUMPDEST POP PUSH2 0x59A PUSH2 0x54B CALLDATASIZE PUSH1 0x4 PUSH2 0x237D JUMP JUMPDEST PUSH1 0xA PUSH1 0x20 MSTORE PUSH1 0x0 SWAP1 DUP2 MSTORE PUSH1 0x40 SWAP1 KECCAK256 DUP1 SLOAD PUSH1 0x1 DUP3 ADD SLOAD PUSH1 0x2 DUP4 ADD SLOAD PUSH1 0x4 DUP5 ADD SLOAD PUSH1 0x5 DUP6 ADD SLOAD PUSH1 0x6 DUP7 ADD SLOAD PUSH1 0x7 DUP8 ADD SLOAD PUSH1 0x8 SWAP1 SWAP8 ADD SLOAD SWAP6 SWAP7 PUSH1 0x1 PUSH1 0x1 PUSH1 0xA0 SHL SUB SWAP6 DUP7 AND SWAP7 SWAP5 SWAP6 SWAP1 SWAP4 AND SWAP4 SWAP2 SWAP3 SWAP1 SWAP2 DUP9 JUMP JUMPDEST PUSH1 0x40 DUP1 MLOAD SWAP9 DUP10 MSTORE PUSH1 0x1 PUSH1 0x1 PUSH1 0xA0 SHL SUB SWAP8 DUP9 AND PUSH1 0x20 DUP11 ADD MSTORE DUP9 ADD SWAP6 SWAP1 SWAP6 MSTORE SWAP5 SWAP1 SWAP3 AND PUSH1 0x60 DUP7 ADD MSTORE PUSH1 0x80 DUP6 ADD MSTORE PUSH1 0xA0 DUP5 ADD MSTORE PUSH1 0xC0 DUP4 ADD SWAP2 SWAP1 SWAP2 MSTORE PUSH1 0xE0 DUP3 ADD MSTORE PUSH2 0x100 ADD PUSH2 0x219 JUMP JUMPDEST CALLVALUE DUP1 ISZERO PUSH2 0x5EC JUMPI PUSH1 0x0 DUP1 REVERT JUMPDEST POP PUSH1 0x7 SLOAD PUSH2 0x27C SWAP1 PUSH1 0x1 PUSH1 0x1 PUSH1 0xA0 SHL SUB AND DUP2 JUMP JUMPDEST PUSH2 0x238 PUSH2 0x60E CALLDATASIZE PUSH1 0x4 PUSH2 0x2459 JUMP JUMPDEST PUSH2 0x132D JUMP JUMPDEST CALLVALUE DUP1 ISZERO PUSH2 0x61F JUMPI PUSH1 0x0 DUP1 REVERT JUMPDEST POP PUSH2 0x238 PUSH2 0x62E CALLDATASIZE PUSH1 0x4 PUSH2 0x237D JUMP JUMPDEST PUSH2 0x15FB JUMP JUMPDEST CALLVALUE DUP1 ISZERO PUSH2 0x63F JUMPI PUSH1 0x0 DUP1 REVERT JUMPDEST POP PUSH2 0x34F PUSH2 0x64E CALLDATASIZE PUSH1 0x4 PUSH2 0x247B JUMP JUMPDEST PUSH2 0x1619 JUMP JUMPDEST CALLVALUE DUP1 ISZERO PUSH2 0x65F JUMPI PUSH1 0x0 DUP1 REVERT JUMPDEST POP PUSH2 0x34F PUSH2 0x66E CALLDATASIZE PUSH1 0x4 PUSH2 0x2459 JUMP JUMPDEST PUSH2 0x16CC JUMP JUMPDEST CALLVALUE DUP1 ISZERO PUSH2 0x67F JUMPI PUSH1 0x0 DUP1 REVERT JUMPDEST POP PUSH2 0x34F PUSH2 0x68E CALLDATASIZE PUSH1 0x4 PUSH2 0x237D JUMP JUMPDEST PUSH2 0x17A4 JUMP JUMPDEST CALLVALUE DUP1 ISZERO PUSH2 0x69F JUMPI PUSH1 0x0 DUP1 REVERT JUMPDEST POP PUSH2 0x34F PUSH2 0x6AE CALLDATASIZE PUSH1 0x4 PUSH2 0x237D JUMP JUMPDEST PUSH2 0x19AE JUMP JUMPDEST CALLVALUE DUP1 ISZERO PUSH2 0x6BF JUMPI PUSH1 0x0 DUP1 REVERT JUMPDEST POP PUSH2 0x238 PUSH1 0xC SLOAD DUP2 JUMP JUMPDEST CALLVALUE DUP1 ISZERO PUSH2 0x6D5 JUMPI PUSH1 0x0 DUP1 REVERT JUMPDEST POP PUSH2 0x238 PUSH1 0xD SLOAD DUP2 JUMP JUMPDEST CALLVALUE DUP1 ISZERO PUSH2 0x6EB JUMPI PUSH1 0x0 DUP1 REVERT JUMPDEST POP PUSH2 0x34F PUSH2 0x19DD JUMP JUMPDEST CALLVALUE DUP1 ISZERO PUSH2 0x700 JUMPI PUSH1 0x0 DUP1 REVERT JUMPDEST POP PUSH2 0x238 PUSH1 0x1 SLOAD DUP2 JUMP JUMPDEST CALLVALUE DUP1 ISZERO PUSH2 0x716 JUMPI PUSH1 0x0 DUP1 REVERT JUMPDEST POP PUSH2 0x34F PUSH2 0x725 CALLDATASIZE PUSH1 0x4 PUSH2 0x2410 JUMP JUMPDEST PUSH2 0x1A69 JUMP JUMPDEST CALLVALUE DUP1 ISZERO PUSH2 0x736 JUMPI PUSH1 0x0 DUP1 REVERT JUMPDEST POP PUSH2 0x238 PUSH2 0x745 CALLDATASIZE PUSH1 0x4 PUSH2 0x237D JUMP JUMPDEST PUSH2 0x1B04 JUMP JUMPDEST CALLVALUE DUP1 ISZERO PUSH2 0x756 JUMPI PUSH1 0x0 DUP1 REVERT JUMPDEST POP PUSH2 0x238 PUSH1 0xE SLOAD DUP2 JUMP JUMPDEST PUSH1 0x0 DUP2 PUSH1 0x6 SLOAD DUP2 GT ISZERO DUP1 ISZERO PUSH2 0x775 JUMPI POP PUSH1 0x0 DUP2 GT JUMPDEST PUSH2 0x7BA JUMPI PUSH1 0x40 MLOAD PUSH3 0x461BCD PUSH1 0xE5 SHL DUP2 MSTORE PUSH1 0x20 PUSH1 0x4 DUP3 ADD MSTORE PUSH1 0x11 PUSH1 0x24 DUP3 ADD MSTORE PUSH17 0x18DB185A5B5259081B9BDD081D985B1A59 PUSH1 0x7A SHL PUSH1 0x44 DUP3 ADD MSTORE PUSH1 0x64 ADD JUMPDEST PUSH1 0x40 MLOAD DUP1 SWAP2 SUB SWAP1 REVERT JUMPDEST PUSH1 0x0 DUP4 DUP2 MSTORE PUSH1 0xA PUSH1 0x20 SWAP1 DUP2 MSTORE PUSH1 0x40 DUP1 DUP4 KECCAK256 DUP1 SLOAD DUP5 MSTORE PUSH1 0x9 SWAP1 SWAP3 MSTORE DUP3 KECCAK256 SWAP1 SWAP2 DUP1 PUSH2 0x7E2 DUP8 PUSH2 0x1B28 JUMP JUMPDEST PUSH1 0x1 PUSH1 0x1 PUSH1 0xA0 SHL SUB DUP3 AND PUSH1 0x0 SWAP1 DUP2 MSTORE PUSH1 0x3 DUP8 ADD PUSH1 0x20 MSTORE PUSH1 0x40 SWAP1 KECCAK256 SLOAD SWAP2 SWAP4 POP SWAP2 POP ISZERO PUSH2 0x823 JUMPI PUSH1 0x1 PUSH1 0x1 PUSH1 0xA0 SHL SUB DUP3 AND PUSH1 0x0 SWAP1 DUP2 MSTORE PUSH1 0x3 DUP6 ADD PUSH1 0x20 MSTORE PUSH1 0x40 DUP2 KECCAK256 SSTORE JUMPDEST DUP4 PUSH1 0x6 ADD SLOAD PUSH1 0x0 SUB PUSH2 0x875 JUMPI PUSH1 0x8 DUP4 ADD DUP1 SLOAD PUSH1 0x1 SWAP2 SWAP1 PUSH1 0x0 SWAP1 PUSH2 0x850 SWAP1 DUP5 SWAP1 PUSH1 0x1 PUSH1 0x1 PUSH1 0xC0 SHL SUB AND PUSH2 0x24CA JUMP JUMPDEST SWAP3 POP PUSH2 0x100 EXP DUP2 SLOAD DUP2 PUSH1 0x1 PUSH1 0x1 PUSH1 0xC0 SHL SUB MUL NOT AND SWAP1 DUP4 PUSH1 0x1 PUSH1 0x1 PUSH1 0xC0 SHL SUB AND MUL OR SWAP1 SSTORE POP JUMPDEST DUP1 DUP5 PUSH1 0x6 ADD PUSH1 0x0 DUP3 DUP3 SLOAD PUSH2 0x889 SWAP2 SWAP1 PUSH2 0x24F2 JUMP JUMPDEST SWAP1 SWAP2 SSTORE POP POP PUSH1 0x5 DUP5 ADD SLOAD PUSH1 0x2 DUP6 ADD SLOAD PUSH2 0x8A2 SWAP2 SWAP1 PUSH2 0x24F2 JUMP JUMPDEST DUP5 PUSH1 0x6 ADD SLOAD GT ISZERO PUSH2 0x8F5 JUMPI PUSH1 0x40 MLOAD PUSH3 0x461BCD PUSH1 0xE5 SHL DUP2 MSTORE PUSH1 0x20 PUSH1 0x4 DUP3 ADD MSTORE PUSH1 0x1C PUSH1 0x24 DUP3 ADD MSTORE PUSH32 0x416D6F756E7420746F20776974686472617720746F6F206C6172676500000000 PUSH1 0x44 DUP3 ADD MSTORE PUSH1 0x64 ADD PUSH2 0x7B1 JUMP JUMPDEST PUSH1 0x0 DUP3 PUSH1 0x1 PUSH1 0x1 PUSH1 0xA0 SHL SUB AND DUP3 PUSH1 0x40 MLOAD PUSH1 0x0 PUSH1 0x40 MLOAD DUP1 DUP4 SUB DUP2 DUP6 DUP8 GAS CALL SWAP3 POP POP POP RETURNDATASIZE DUP1 PUSH1 0x0 DUP2 EQ PUSH2 0x942 JUMPI PUSH1 0x40 MLOAD SWAP2 POP PUSH1 0x1F NOT PUSH1 0x3F RETURNDATASIZE ADD AND DUP3 ADD PUSH1 0x40 MSTORE RETURNDATASIZE DUP3 MSTORE RETURNDATASIZE PUSH1 0x0 PUSH1 0x20 DUP5 ADD RETURNDATACOPY PUSH2 0x947 JUMP JUMPDEST PUSH1 0x60 SWAP2 POP JUMPDEST POP POP SWAP1 POP DUP1 PUSH2 0x98F JUMPI PUSH1 0x40 MLOAD PUSH3 0x461BCD PUSH1 0xE5 SHL DUP2 MSTORE PUSH1 0x20 PUSH1 0x4 DUP3 ADD MSTORE PUSH1 0x14 PUSH1 0x24 DUP3 ADD MSTORE PUSH20 0x2330B4B632B2103A379039B2B7321022BA3432B9 PUSH1 0x61 SHL PUSH1 0x44 DUP3 ADD MSTORE PUSH1 0x64 ADD PUSH2 0x7B1 JUMP JUMPDEST DUP5 SLOAD PUSH1 0x40 DUP1 MLOAD DUP11 DUP2 MSTORE PUSH1 0x1 PUSH1 0x1 PUSH1 0xA0 SHL SUB DUP7 AND PUSH1 0x20 DUP3 ADD MSTORE PUSH32 0x5B0AEC51A74BF236E8FA08BCB2E303068C7AC1AED3CA410D25B8DAD27538D73C SWAP2 ADD PUSH1 0x40 MLOAD DUP1 SWAP2 SUB SWAP1 LOG2 PUSH1 0x6 DUP5 ADD SLOAD PUSH1 0x1 PUSH1 0x1 PUSH1 0xA0 SHL SUB AND ISZERO DUP1 ISZERO PUSH2 0x9FC JUMPI POP PUSH1 0x1 DUP6 ADD SLOAD PUSH1 0x1 PUSH1 0x1 PUSH1 0xA0 SHL SUB DUP5 DUP2 AND SWAP2 AND EQ JUMPDEST ISZERO PUSH2 0xA0B JUMPI PUSH2 0xA0B DUP5 DUP7 PUSH2 0x1F3C JUMP JUMPDEST POP SWAP1 SWAP7 SWAP6 POP POP POP POP POP POP JUMP JUMPDEST PUSH1 0x4 SLOAD PUSH1 0x0 SWAP1 PUSH1 0xFF AND ISZERO PUSH2 0xA66 JUMPI PUSH1 0x40 MLOAD PUSH3 0x461BCD PUSH1 0xE5 SHL DUP2 MSTORE PUSH1 0x20 PUSH1 0x4 DUP3 ADD MSTORE PUSH1 0x16 PUSH1 0x24 DUP3 ADD MSTORE PUSH22 0x10DBDB9D1C9858DD081A5CC819195C1C9958D85D1959 PUSH1 0x52 SHL PUSH1 0x44 DUP3 ADD MSTORE PUSH1 0x64 ADD PUSH2 0x7B1 JUMP JUMPDEST PUSH1 0x0 DUP8 DUP2 MSTORE PUSH1 0x8 PUSH1 0x20 MSTORE PUSH1 0x40 DUP2 KECCAK256 SLOAD SWAP1 SUB PUSH2 0xAC3 JUMPI PUSH1 0x40 MLOAD PUSH3 0x461BCD PUSH1 0xE5 SHL DUP2 MSTORE PUSH1 0x20 PUSH1 0x4 DUP3 ADD MSTORE PUSH1 0x1B PUSH1 0x24 DUP3 ADD MSTORE PUSH32 0x54617267657420726F6C6C7570206E6F7420737570706F727465640000000000 PUSH1 0x44 DUP3 ADD MSTORE PUSH1 0x64 ADD PUSH2 0x7B1 JUMP JUMPDEST PUSH2 0x12C DUP3 LT ISZERO PUSH2 0xB15 JUMPI PUSH1 0x40 MLOAD PUSH3 0x461BCD PUSH1 0xE5 SHL DUP2 MSTORE PUSH1 0x20 PUSH1 0x4 DUP3 ADD MSTORE PUSH1 0x19 PUSH1 0x24 DUP3 ADD MSTORE PUSH32 0x56616C696469747920706572696F6420746F6F2073686F727400000000000000 PUSH1 0x44 DUP3 ADD MSTORE PUSH1 0x64 ADD PUSH2 0x7B1 JUMP JUMPDEST PUSH4 0x1DFE200 DUP3 GT ISZERO PUSH2 0xB69 JUMPI PUSH1 0x40 MLOAD PUSH3 0x461BCD PUSH1 0xE5 SHL DUP2 MSTORE PUSH1 0x20 PUSH1 0x4 DUP3 ADD MSTORE PUSH1 0x18 PUSH1 0x24 DUP3 ADD MSTORE PUSH32 0x56616C696469747920706572696F6420746F6F206C6F6E670000000000000000 PUSH1 0x44 DUP3 ADD MSTORE PUSH1 0x64 ADD PUSH2 0x7B1 JUMP JUMPDEST PUSH1 0xE SLOAD DUP4 GT ISZERO PUSH2 0xBBB JUMPI PUSH1 0x40 MLOAD PUSH3 0x461BCD PUSH1 0xE5 SHL DUP2 MSTORE PUSH1 0x20 PUSH1 0x4 DUP3 ADD MSTORE PUSH1 0x1D PUSH1 0x24 DUP3 ADD MSTORE PUSH32 0x416D6F756E742065786365656473207472616E73666572206C696D6974000000 PUSH1 0x44 DUP3 ADD MSTORE PUSH1 0x64 ADD PUSH2 0x7B1 JUMP JUMPDEST DUP6 PUSH1 0x0 PUSH2 0xBC7 DUP6 PUSH2 0x1B04 JUMP JUMPDEST SWAP1 POP PUSH1 0x0 PUSH2 0xBD4 DUP7 PUSH2 0x1309 JUMP JUMPDEST SWAP1 POP PUSH1 0x0 DUP2 PUSH2 0xBE3 DUP5 DUP10 PUSH2 0x24F2 JUMP JUMPDEST PUSH2 0xBED SWAP2 SWAP1 PUSH2 0x24F2 JUMP JUMPDEST PUSH1 0x40 MLOAD PUSH4 0x6EB1769F PUSH1 0xE1 SHL DUP2 MSTORE CALLER PUSH1 0x4 DUP3 ADD MSTORE ADDRESS PUSH1 0x24 DUP3 ADD MSTORE SWAP1 SWAP2 POP DUP2 SWAP1 PUSH1 0x1 PUSH1 0x1 PUSH1 0xA0 SHL SUB DUP7 AND SWAP1 PUSH4 0xDD62ED3E SWAP1 PUSH1 0x44 ADD PUSH1 0x20 PUSH1 0x40 MLOAD DUP1 DUP4 SUB DUP2 DUP7 GAS STATICCALL ISZERO DUP1 ISZERO PUSH2 0xC3C JUMPI RETURNDATASIZE PUSH1 0x0 DUP1 RETURNDATACOPY RETURNDATASIZE PUSH1 0x0 REVERT JUMPDEST POP POP POP POP PUSH1 0x40 MLOAD RETURNDATASIZE PUSH1 0x1F NOT PUSH1 0x1F DUP3 ADD AND DUP3 ADD DUP1 PUSH1 0x40 MSTORE POP DUP2 ADD SWAP1 PUSH2 0xC60 SWAP2 SWAP1 PUSH2 0x250A JUMP JUMPDEST LT ISZERO PUSH2 0xCA7 JUMPI PUSH1 0x40 MLOAD PUSH3 0x461BCD PUSH1 0xE5 SHL DUP2 MSTORE PUSH1 0x20 PUSH1 0x4 DUP3 ADD MSTORE PUSH1 0x16 PUSH1 0x24 DUP3 ADD MSTORE PUSH22 0x496E73756666696369656E7420616C6C6F77616E6365 PUSH1 0x50 SHL PUSH1 0x44 DUP3 ADD MSTORE PUSH1 0x64 ADD PUSH2 0x7B1 JUMP JUMPDEST PUSH1 0x1 PUSH1 0x5 PUSH1 0x0 DUP3 DUP3 SLOAD PUSH2 0xCBA SWAP2 SWAP1 PUSH2 0x24F2 JUMP JUMPDEST SWAP3 POP POP DUP2 SWAP1 SSTORE POP PUSH1 0x0 PUSH1 0x9 PUSH1 0x0 PUSH1 0x5 SLOAD DUP2 MSTORE PUSH1 0x20 ADD SWAP1 DUP2 MSTORE PUSH1 0x20 ADD PUSH1 0x0 KECCAK256 SWAP1 POP CALLER DUP2 PUSH1 0x0 ADD PUSH1 0x0 PUSH2 0x100 EXP DUP2 SLOAD DUP2 PUSH1 0x1 PUSH1 0x1 PUSH1 0xA0 SHL SUB MUL NOT AND SWAP1 DUP4 PUSH1 0x1 PUSH1 0x1 PUSH1 0xA0 SHL SUB AND MUL OR SWAP1 SSTORE POP DUP11 DUP2 PUSH1 0x1 ADD PUSH1 0x0 PUSH2 0x100 EXP DUP2 SLOAD DUP2 PUSH1 0x1 PUSH1 0x1 PUSH1 0xA0 SHL SUB MUL NOT AND SWAP1 DUP4 PUSH1 0x1 PUSH1 0x1 PUSH1 0xA0 SHL SUB AND MUL OR SWAP1 SSTORE POP DUP12 DUP2 PUSH1 0x2 ADD DUP2 SWAP1 SSTORE POP DUP10 DUP2 PUSH1 0x3 ADD PUSH1 0x0 PUSH2 0x100 EXP DUP2 SLOAD DUP2 PUSH1 0x1 PUSH1 0x1 PUSH1 0xA0 SHL SUB MUL NOT AND SWAP1 DUP4 PUSH1 0x1 PUSH1 0x1 PUSH1 0xA0 SHL SUB AND MUL OR SWAP1 SSTORE POP DUP9 DUP2 PUSH1 0x4 ADD PUSH1 0x0 PUSH2 0x100 EXP DUP2 SLOAD DUP2 PUSH1 0x1 PUSH1 0x1 PUSH1 0xA0 SHL SUB MUL NOT AND SWAP1 DUP4 PUSH1 0x1 PUSH1 0x1 PUSH1 0xA0 SHL SUB AND MUL OR SWAP1 SSTORE POP DUP8 DUP2 PUSH1 0x5 ADD DUP2 SWAP1 SSTORE POP PUSH1 0x40 MLOAD DUP1 PUSH1 0x40 ADD PUSH1 0x40 MSTORE DUP1 PUSH1 0x0 PUSH1 0x1 PUSH1 0x1 PUSH1 0xA0 SHL SUB AND DUP2 MSTORE PUSH1 0x20 ADD PUSH1 0x0 DUP1 SHL DUP2 MSTORE POP DUP2 PUSH1 0x6 ADD PUSH1 0x0 DUP3 ADD MLOAD DUP2 PUSH1 0x0 ADD PUSH1 0x0 PUSH2 0x100 EXP DUP2 SLOAD DUP2 PUSH1 0x1 PUSH1 0x1 PUSH1 0xA0 SHL SUB MUL NOT AND SWAP1 DUP4 PUSH1 0x1 PUSH1 0x1 PUSH1 0xA0 SHL SUB AND MUL OR SWAP1 SSTORE POP PUSH1 0x20 DUP3 ADD MLOAD DUP2 PUSH1 0x1 ADD SSTORE SWAP1 POP POP DUP7 TIMESTAMP PUSH2 0xDFC SWAP2 SWAP1 PUSH2 0x24F2 JUMP JUMPDEST PUSH1 0x9 DUP3 ADD DUP2 SWAP1 SSTORE PUSH1 0xA DUP3 ADD DUP6 SWAP1 SSTORE PUSH1 0xB DUP3 ADD DUP5 SWAP1 SSTORE PUSH1 0x5 SLOAD PUSH1 0x40 DUP1 MLOAD SWAP2 DUP3 MSTORE PUSH1 0x20 DUP3 ADD DUP16 SWAP1 MSTORE PUSH1 0x1 PUSH1 0x1 PUSH1 0xA0 SHL SUB DUP15 DUP2 AND DUP4 DUP4 ADD MSTORE DUP14 DUP2 AND PUSH1 0x60 DUP5 ADD MSTORE DUP13 AND PUSH1 0x80 DUP4 ADD MSTORE PUSH1 0xA0 DUP3 ADD DUP12 SWAP1 MSTORE PUSH1 0xC0 DUP3 ADD SWAP3 SWAP1 SWAP3 MSTORE SWAP1 MLOAD PUSH32 0x18A412D0656B9A5C9263A134F66A34DA33CAD7C3690971601F9963ADE588E701 SWAP2 DUP2 SWAP1 SUB PUSH1 0xE0 ADD SWAP1 LOG1 PUSH2 0xE90 PUSH1 0x1 PUSH1 0x1 PUSH1 0xA0 SHL SUB DUP7 AND CALLER ADDRESS DUP6 PUSH2 0x2021 JUMP JUMPDEST POP POP PUSH1 0x5 SLOAD SWAP11 SWAP10 POP POP POP POP POP POP POP POP POP POP JUMP JUMPDEST PUSH1 0x0 SLOAD PUSH1 0x1 PUSH1 0x1 PUSH1 0xA0 SHL SUB AND CALLER EQ PUSH2 0xECD JUMPI PUSH1 0x40 MLOAD PUSH3 0x461BCD PUSH1 0xE5 SHL DUP2 MSTORE PUSH1 0x4 ADD PUSH2 0x7B1 SWAP1 PUSH2 0x2523 JUMP JUMPDEST PUSH2 0xED7 PUSH1 0x0 PUSH2 0x208C JUMP JUMPDEST JUMP JUMPDEST PUSH1 0x0 SLOAD PUSH1 0x1 PUSH1 0x1 PUSH1 0xA0 SHL SUB AND CALLER EQ PUSH2 0xF03 JUMPI PUSH1 0x40 MLOAD PUSH3 0x461BCD PUSH1 0xE5 SHL DUP2 MSTORE PUSH1 0x4 ADD PUSH2 0x7B1 SWAP1 PUSH2 0x2523 JUMP JUMPDEST PUSH1 0xD SWAP3 SWAP1 SWAP3 SSTORE PUSH1 0xC SSTORE PUSH1 0xB SSTORE JUMP JUMPDEST DUP1 PUSH1 0x6 SLOAD DUP2 GT ISZERO DUP1 ISZERO PUSH2 0xF24 JUMPI POP PUSH1 0x0 DUP2 GT JUMPDEST PUSH2 0xF64 JUMPI PUSH1 0x40 MLOAD PUSH3 0x461BCD PUSH1 0xE5 SHL DUP2 MSTORE PUSH1 0x20 PUSH1 0x4 DUP3 ADD MSTORE PUSH1 0x11 PUSH1 0x24 DUP3 ADD MSTORE PUSH17 0x18DB185A5B5259081B9BDD081D985B1A59 PUSH1 0x7A SHL PUSH1 0x44 DUP3 ADD MSTORE PUSH1 0x64 ADD PUSH2 0x7B1 JUMP JUMPDEST PUSH1 0x0 DUP3 DUP2 MSTORE PUSH1 0xA PUSH1 0x20 SWAP1 DUP2 MSTORE PUSH1 0x40 DUP1 DUP4 KECCAK256 DUP1 SLOAD DUP5 MSTORE PUSH1 0x9 SWAP1 SWAP3 MSTORE SWAP1 SWAP2 KECCAK256 PUSH1 0x7 DUP3 ADD SLOAD TIMESTAMP LT PUSH2 0xFC4 JUMPI PUSH1 0x40 MLOAD PUSH3 0x461BCD PUSH1 0xE5 SHL DUP2 MSTORE PUSH1 0x20 PUSH1 0x4 DUP3 ADD MSTORE PUSH1 0xD PUSH1 0x24 DUP3 ADD MSTORE PUSH13 0x10DB185A5B48195E1C1A5C9959 PUSH1 0x9A SHL PUSH1 0x44 DUP3 ADD MSTORE PUSH1 0x64 ADD PUSH2 0x7B1 JUMP JUMPDEST PUSH1 0x3 SLOAD PUSH1 0x2 DUP4 ADD SLOAD PUSH1 0x5 DUP5 ADD SLOAD PUSH1 0x0 SWAP3 DUP4 SWAP3 SWAP1 SWAP2 DUP1 DUP3 GT ISZERO PUSH2 0x1086 JUMPI DUP1 PUSH1 0x0 SUB PUSH2 0x1009 JUMPI PUSH1 0x2 DUP7 ADD SLOAD PUSH1 0x0 SWAP1 DUP2 MSTORE PUSH1 0x8 PUSH1 0x20 MSTORE PUSH1 0x40 SWAP1 KECCAK256 SLOAD PUSH2 0x1006 SWAP1 DUP5 PUSH2 0x24F2 JUMP JUMPDEST SWAP3 POP JUMPDEST PUSH1 0x1 DUP8 ADD SLOAD CALLER PUSH1 0x1 PUSH1 0x1 PUSH1 0xA0 SHL SUB SWAP1 SWAP2 AND SUB PUSH2 0x1067 JUMPI PUSH1 0x40 MLOAD PUSH3 0x461BCD PUSH1 0xE5 SHL DUP2 MSTORE PUSH1 0x20 PUSH1 0x4 DUP3 ADD MSTORE PUSH1 0x1A PUSH1 0x24 DUP3 ADD MSTORE PUSH32 0x43616E6E6F74206368616C6C656E6765206F776E20636C61696D000000000000 PUSH1 0x44 DUP3 ADD MSTORE PUSH1 0x64 ADD PUSH2 0x7B1 JUMP JUMPDEST CALLER SWAP5 POP PUSH2 0x1074 DUP2 DUP4 PUSH2 0x2558 JUMP JUMPDEST PUSH2 0x107F SWAP1 PUSH1 0x1 PUSH2 0x24F2 JUMP JUMPDEST SWAP4 POP PUSH2 0x10B2 JUMP JUMPDEST PUSH1 0x1 DUP1 DUP9 ADD SLOAD SWAP1 SLOAD PUSH1 0x1 PUSH1 0x1 PUSH1 0xA0 SHL SUB SWAP1 SWAP2 AND SWAP6 POP PUSH2 0x10A5 DUP4 DUP4 PUSH2 0x2558 JUMP JUMPDEST PUSH2 0x10AF SWAP2 SWAP1 PUSH2 0x24F2 JUMP JUMPDEST SWAP4 POP JUMPDEST CALLER PUSH1 0x1 PUSH1 0x1 PUSH1 0xA0 SHL SUB DUP7 AND EQ PUSH2 0x1103 JUMPI PUSH1 0x40 MLOAD PUSH3 0x461BCD PUSH1 0xE5 SHL DUP2 MSTORE PUSH1 0x20 PUSH1 0x4 DUP3 ADD MSTORE PUSH1 0x16 PUSH1 0x24 DUP3 ADD MSTORE PUSH22 0x139BDD08195B1A59DA589B19481D1BC81BDD5D189A59 PUSH1 0x52 SHL PUSH1 0x44 DUP3 ADD MSTORE PUSH1 0x64 ADD PUSH2 0x7B1 JUMP JUMPDEST DUP4 CALLVALUE LT ISZERO PUSH2 0x1153 JUMPI PUSH1 0x40 MLOAD PUSH3 0x461BCD PUSH1 0xE5 SHL DUP2 MSTORE PUSH1 0x20 PUSH1 0x4 DUP3 ADD MSTORE PUSH1 0x19 PUSH1 0x24 DUP3 ADD MSTORE PUSH32 0x4E6F7420656E6F756768207374616B652070726F766964656400000000000000 PUSH1 0x44 DUP3 ADD MSTORE PUSH1 0x64 ADD PUSH2 0x7B1 JUMP JUMPDEST PUSH1 0x1 DUP8 ADD SLOAD PUSH1 0x1 PUSH1 0x1 PUSH1 0xA0 SHL SUB SWAP1 DUP2 AND SWAP1 DUP7 AND SUB PUSH2 0x118A JUMPI CALLVALUE DUP8 PUSH1 0x2 ADD PUSH1 0x0 DUP3 DUP3 SLOAD PUSH2 0x117F SWAP2 SWAP1 PUSH2 0x24F2 JUMP JUMPDEST SWAP1 SWAP2 SSTORE POP PUSH2 0x11E2 SWAP1 POP JUMP JUMPDEST PUSH1 0x4 DUP8 ADD DUP1 SLOAD PUSH1 0x1 PUSH1 0x1 PUSH1 0xA0 SHL SUB NOT AND CALLER SWAP1 DUP2 OR SWAP1 SWAP2 SSTORE PUSH1 0x0 SWAP1 DUP2 MSTORE PUSH1 0x3 DUP9 ADD PUSH1 0x20 MSTORE PUSH1 0x40 DUP2 KECCAK256 DUP1 SLOAD CALLVALUE SWAP3 SWAP1 PUSH2 0x11C1 SWAP1 DUP5 SWAP1 PUSH2 0x24F2 JUMP JUMPDEST SWAP3 POP POP DUP2 SWAP1 SSTORE POP CALLVALUE DUP8 PUSH1 0x5 ADD PUSH1 0x0 DUP3 DUP3 SLOAD PUSH2 0x11DC SWAP2 SWAP1 PUSH2 0x24F2 JUMP JUMPDEST SWAP1 SWAP2 SSTORE POP POP JUMPDEST PUSH1 0x7 DUP8 ADD SLOAD PUSH2 0x11FA SWAP1 PUSH2 0x11F5 DUP6 TIMESTAMP PUSH2 0x24F2 JUMP JUMPDEST PUSH2 0x20DC JUMP JUMPDEST PUSH1 0x7 DUP9 ADD SSTORE PUSH1 0x3 SLOAD PUSH1 0x0 SWAP1 PUSH2 0x120F SWAP1 TIMESTAMP PUSH2 0x24F2 JUMP JUMPDEST SWAP1 POP DUP1 DUP9 PUSH1 0x7 ADD SLOAD LT ISZERO PUSH2 0x1277 JUMPI PUSH1 0x40 MLOAD PUSH3 0x461BCD PUSH1 0xE5 SHL DUP2 MSTORE PUSH1 0x20 PUSH1 0x4 DUP3 ADD MSTORE PUSH1 0x29 PUSH1 0x24 DUP3 ADD MSTORE PUSH32 0x436C61696D207465726D696E6174696F6E20646964206E6F7420696E63726561 PUSH1 0x44 DUP3 ADD MSTORE PUSH9 0xE6CA40CADCDEEACED PUSH1 0xBB SHL PUSH1 0x64 DUP3 ADD MSTORE PUSH1 0x84 ADD PUSH2 0x7B1 JUMP JUMPDEST DUP8 PUSH1 0x0 ADD SLOAD PUSH32 0x29FD2DF293BA511E44CA47212C915137020231ED3AC0EE7BD02A7A655275AD37 DUP12 DUP11 PUSH1 0x1 ADD PUSH1 0x0 SWAP1 SLOAD SWAP1 PUSH2 0x100 EXP SWAP1 DIV PUSH1 0x1 PUSH1 0x1 PUSH1 0xA0 SHL SUB AND DUP12 PUSH1 0x2 ADD SLOAD DUP13 PUSH1 0x4 ADD PUSH1 0x0 SWAP1 SLOAD SWAP1 PUSH2 0x100 EXP SWAP1 DIV PUSH1 0x1 PUSH1 0x1 PUSH1 0xA0 SHL SUB AND DUP14 PUSH1 0x5 ADD SLOAD DUP15 PUSH1 0x7 ADD SLOAD DUP16 PUSH1 0x8 ADD SLOAD PUSH1 0x40 MLOAD PUSH2 0x12F5 SWAP8 SWAP7 SWAP6 SWAP5 SWAP4 SWAP3 SWAP2 SWAP1 PUSH2 0x256F JUMP JUMPDEST PUSH1 0x40 MLOAD DUP1 SWAP2 SUB SWAP1 LOG2 POP POP POP POP POP POP POP POP POP POP JUMP JUMPDEST PUSH1 0x0 PUSH3 0xF4240 PUSH1 0xD SLOAD DUP4 PUSH2 0x131D SWAP2 SWAP1 PUSH2 0x25AE JUMP JUMPDEST PUSH2 0x1327 SWAP2 SWAP1 PUSH2 0x25CD JUMP JUMPDEST SWAP3 SWAP2 POP POP JUMP JUMPDEST PUSH1 0x0 DUP3 PUSH1 0x5 SLOAD DUP2 GT ISZERO DUP1 ISZERO PUSH2 0x1342 JUMPI POP PUSH1 0x0 DUP2 GT JUMPDEST PUSH2 0x1384 JUMPI PUSH1 0x40 MLOAD PUSH3 0x461BCD PUSH1 0xE5 SHL DUP2 MSTORE PUSH1 0x20 PUSH1 0x4 DUP3 ADD MSTORE PUSH1 0x13 PUSH1 0x24 DUP3 ADD MSTORE PUSH19 0x1C995C5D595CDD1259081B9BDD081D985B1A59 PUSH1 0x6A SHL PUSH1 0x44 DUP3 ADD MSTORE PUSH1 0x64 ADD PUSH2 0x7B1 JUMP JUMPDEST PUSH1 0x0 DUP5 DUP2 MSTORE PUSH1 0x9 PUSH1 0x20 DUP2 SWAP1 MSTORE PUSH1 0x40 SWAP1 SWAP2 KECCAK256 SWAP1 DUP2 ADD SLOAD TIMESTAMP LT PUSH2 0x13D9 JUMPI PUSH1 0x40 MLOAD PUSH3 0x461BCD PUSH1 0xE5 SHL DUP2 MSTORE PUSH1 0x20 PUSH1 0x4 DUP3 ADD MSTORE PUSH1 0xF PUSH1 0x24 DUP3 ADD MSTORE PUSH15 0x14995C5D595CDD08195E1C1A5C9959 PUSH1 0x8A SHL PUSH1 0x44 DUP3 ADD MSTORE PUSH1 0x64 ADD PUSH2 0x7B1 JUMP JUMPDEST PUSH1 0x6 DUP2 ADD SLOAD PUSH1 0x1 PUSH1 0x1 PUSH1 0xA0 SHL SUB AND ISZERO PUSH2 0x1430 JUMPI PUSH1 0x40 MLOAD PUSH3 0x461BCD PUSH1 0xE5 SHL DUP2 MSTORE PUSH1 0x20 PUSH1 0x4 DUP3 ADD MSTORE PUSH1 0x19 PUSH1 0x24 DUP3 ADD MSTORE PUSH25 0x2232B837B9B4BA1030B63932B0B23C903BB4BA34323930BBB7 PUSH1 0x39 SHL PUSH1 0x44 DUP3 ADD MSTORE PUSH1 0x64 ADD PUSH2 0x7B1 JUMP JUMPDEST PUSH1 0x1 SLOAD CALLVALUE EQ PUSH2 0x1478 JUMPI PUSH1 0x40 MLOAD PUSH3 0x461BCD PUSH1 0xE5 SHL DUP2 MSTORE PUSH1 0x20 PUSH1 0x4 DUP3 ADD MSTORE PUSH1 0x14 PUSH1 0x24 DUP3 ADD MSTORE PUSH20 0x125B9D985B1A59081CDD185AD948185B5BDD5B9D PUSH1 0x62 SHL PUSH1 0x44 DUP3 ADD MSTORE PUSH1 0x64 ADD PUSH2 0x7B1 JUMP JUMPDEST DUP4 PUSH2 0x14BE JUMPI PUSH1 0x40 MLOAD PUSH3 0x461BCD PUSH1 0xE5 SHL DUP2 MSTORE PUSH1 0x20 PUSH1 0x4 DUP3 ADD MSTORE PUSH1 0x16 PUSH1 0x24 DUP3 ADD MSTORE PUSH22 0x46696C6C4964206D757374206E6F742062652030783 PUSH1 0x54 SHL PUSH1 0x44 DUP3 ADD MSTORE PUSH1 0x64 ADD PUSH2 0x7B1 JUMP JUMPDEST PUSH1 0x8 DUP2 ADD DUP1 SLOAD PUSH1 0x1 SWAP2 SWAP1 PUSH1 0x0 SWAP1 PUSH2 0x14DF SWAP1 DUP5 SWAP1 PUSH1 0x1 PUSH1 0x1 PUSH1 0xC0 SHL SUB AND PUSH2 0x25EF JUMP JUMPDEST SWAP3 POP PUSH2 0x100 EXP DUP2 SLOAD DUP2 PUSH1 0x1 PUSH1 0x1 PUSH1 0xC0 SHL SUB MUL NOT AND SWAP1 DUP4 PUSH1 0x1 PUSH1 0x1 PUSH1 0xC0 SHL SUB AND MUL OR SWAP1 SSTORE POP PUSH1 0x1 PUSH1 0x6 PUSH1 0x0 DUP3 DUP3 SLOAD PUSH2 0x1516 SWAP2 SWAP1 PUSH2 0x24F2 JUMP JUMPDEST SWAP1 SWAP2 SSTORE POP POP PUSH1 0x6 DUP1 SLOAD PUSH1 0x0 SWAP1 DUP2 MSTORE PUSH1 0xA PUSH1 0x20 MSTORE PUSH1 0x40 DUP2 KECCAK256 DUP8 DUP2 SSTORE PUSH1 0x1 DUP1 DUP3 ADD DUP1 SLOAD PUSH1 0x1 PUSH1 0x1 PUSH1 0xA0 SHL SUB NOT SWAP1 DUP2 AND CALLER OR SWAP1 SWAP2 SSTORE SWAP1 SLOAD PUSH1 0x2 DUP1 DUP5 ADD SWAP2 SWAP1 SWAP2 SSTORE PUSH1 0x4 DUP4 ADD DUP1 SLOAD SWAP1 SWAP3 AND SWAP1 SWAP2 SSTORE PUSH1 0x5 DUP3 ADD DUP4 SWAP1 SSTORE SWAP3 DUP2 ADD SWAP2 SWAP1 SWAP2 SSTORE SWAP1 SLOAD PUSH2 0x1579 SWAP1 TIMESTAMP PUSH2 0x24F2 JUMP JUMPDEST PUSH1 0x7 DUP3 ADD DUP2 SWAP1 SSTORE PUSH1 0x8 DUP3 ADD DUP7 SWAP1 SSTORE PUSH1 0x6 SLOAD PUSH1 0x1 DUP4 ADD SLOAD PUSH1 0x2 DUP5 ADD SLOAD PUSH1 0x4 DUP6 ADD SLOAD PUSH1 0x5 DUP7 ADD SLOAD PUSH1 0x40 MLOAD DUP13 SWAP7 PUSH32 0x29FD2DF293BA511E44CA47212C915137020231ED3AC0EE7BD02A7A655275AD37 SWAP7 PUSH2 0x15E6 SWAP7 SWAP1 SWAP6 PUSH1 0x1 PUSH1 0x1 PUSH1 0xA0 SHL SUB SWAP2 DUP3 AND SWAP6 SWAP1 SWAP5 SWAP2 AND SWAP3 SWAP1 SWAP2 SWAP1 DUP15 SWAP1 PUSH2 0x256F JUMP JUMPDEST PUSH1 0x40 MLOAD DUP1 SWAP2 SUB SWAP1 LOG2 POP POP PUSH1 0x6 SLOAD SWAP5 SWAP4 POP POP POP POP JUMP JUMPDEST PUSH1 0x0 PUSH2 0x1606 DUP3 PUSH2 0x1309 JUMP JUMPDEST PUSH2 0x160F DUP4 PUSH2 0x1B04 JUMP JUMPDEST PUSH2 0x1327 SWAP2 SWAP1 PUSH2 0x24F2 JUMP JUMPDEST PUSH1 0x0 SLOAD PUSH1 0x1 PUSH1 0x1 PUSH1 0xA0 SHL SUB AND CALLER EQ PUSH2 0x1643 JUMPI PUSH1 0x40 MLOAD PUSH3 0x461BCD PUSH1 0xE5 SHL DUP2 MSTORE PUSH1 0x4 ADD PUSH2 0x7B1 SWAP1 PUSH2 0x2523 JUMP JUMPDEST PUSH1 0x1 PUSH1 0x1 PUSH1 0xA0 SHL SUB DUP3 AND PUSH1 0x0 SWAP1 DUP2 MSTORE PUSH1 0xF PUSH1 0x20 MSTORE PUSH1 0x40 SWAP1 KECCAK256 SLOAD DUP1 PUSH2 0x16A0 JUMPI PUSH1 0x40 MLOAD PUSH3 0x461BCD PUSH1 0xE5 SHL DUP2 MSTORE PUSH1 0x20 PUSH1 0x4 DUP3 ADD MSTORE PUSH1 0x14 PUSH1 0x24 DUP3 ADD MSTORE PUSH20 0x50726F746F636F6C20666565206973207A65726F PUSH1 0x60 SHL PUSH1 0x44 DUP3 ADD MSTORE PUSH1 0x64 ADD PUSH2 0x7B1 JUMP JUMPDEST PUSH1 0x1 PUSH1 0x1 PUSH1 0xA0 SHL SUB DUP4 AND PUSH1 0x0 DUP2 DUP2 MSTORE PUSH1 0xF PUSH1 0x20 MSTORE PUSH1 0x40 DUP2 KECCAK256 SSTORE DUP4 SWAP1 PUSH2 0x16C6 SWAP1 DUP5 DUP5 PUSH2 0x20F5 JUMP JUMPDEST POP POP POP POP JUMP JUMPDEST PUSH1 0x0 SLOAD PUSH1 0x1 PUSH1 0x1 PUSH1 0xA0 SHL SUB AND CALLER EQ PUSH2 0x16F6 JUMPI PUSH1 0x40 MLOAD PUSH3 0x461BCD PUSH1 0xE5 SHL DUP2 MSTORE PUSH1 0x4 ADD PUSH2 0x7B1 SWAP1 PUSH2 0x2523 JUMP JUMPDEST PUSH1 0x0 DUP2 GT PUSH2 0x1755 JUMPI PUSH1 0x40 MLOAD PUSH3 0x461BCD PUSH1 0xE5 SHL DUP2 MSTORE PUSH1 0x20 PUSH1 0x4 DUP3 ADD MSTORE PUSH1 0x26 PUSH1 0x24 DUP3 ADD MSTORE PUSH32 0x46696E616C69747920706572696F64206D757374206265206772656174657220 PUSH1 0x44 DUP3 ADD MSTORE PUSH6 0x7468616E203 PUSH1 0xD4 SHL PUSH1 0x64 DUP3 ADD MSTORE PUSH1 0x84 ADD PUSH2 0x7B1 JUMP JUMPDEST PUSH1 0x0 DUP3 DUP2 MSTORE PUSH1 0x8 PUSH1 0x20 SWAP1 DUP2 MSTORE PUSH1 0x40 SWAP2 DUP3 SWAP1 KECCAK256 DUP4 SWAP1 SSTORE DUP2 MLOAD DUP5 DUP2 MSTORE SWAP1 DUP2 ADD DUP4 SWAP1 MSTORE PUSH32 0xABA57B48B9F1DFD5747A52ED348A6AB6AA7BAFB0575363A5CB7B62659F727B65 SWAP2 ADD PUSH1 0x40 MLOAD DUP1 SWAP2 SUB SWAP1 LOG1 POP POP JUMP JUMPDEST DUP1 PUSH1 0x5 SLOAD DUP2 GT ISZERO DUP1 ISZERO PUSH2 0x17B7 JUMPI POP PUSH1 0x0 DUP2 GT JUMPDEST PUSH2 0x17F9 JUMPI PUSH1 0x40 MLOAD PUSH3 0x461BCD PUSH1 0xE5 SHL DUP2 MSTORE PUSH1 0x20 PUSH1 0x4 DUP3 ADD MSTORE PUSH1 0x13 PUSH1 0x24 DUP3 ADD MSTORE PUSH19 0x1C995C5D595CDD1259081B9BDD081D985B1A59 PUSH1 0x6A SHL PUSH1 0x44 DUP3 ADD MSTORE PUSH1 0x64 ADD PUSH2 0x7B1 JUMP JUMPDEST PUSH1 0x0 DUP3 DUP2 MSTORE PUSH1 0x9 PUSH1 0x20 MSTORE PUSH1 0x40 SWAP1 KECCAK256 PUSH1 0x6 DUP2 ADD SLOAD PUSH1 0x1 PUSH1 0x1 PUSH1 0xA0 SHL SUB AND ISZERO PUSH2 0x185E JUMPI PUSH1 0x40 MLOAD PUSH3 0x461BCD PUSH1 0xE5 SHL DUP2 MSTORE PUSH1 0x20 PUSH1 0x4 DUP3 ADD MSTORE PUSH1 0x19 PUSH1 0x24 DUP3 ADD MSTORE PUSH25 0x2232B837B9B4BA1030B63932B0B23C903BB4BA34323930BBB7 PUSH1 0x39 SHL PUSH1 0x44 DUP3 ADD MSTORE PUSH1 0x64 ADD PUSH2 0x7B1 JUMP JUMPDEST DUP1 PUSH1 0x9 ADD SLOAD TIMESTAMP LT ISZERO PUSH2 0x18B2 JUMPI PUSH1 0x40 MLOAD PUSH3 0x461BCD PUSH1 0xE5 SHL DUP2 MSTORE PUSH1 0x20 PUSH1 0x4 DUP3 ADD MSTORE PUSH1 0x17 PUSH1 0x24 DUP3 ADD MSTORE PUSH32 0x52657175657374206E6F74206578706972656420796574000000000000000000 PUSH1 0x44 DUP3 ADD MSTORE PUSH1 0x64 ADD PUSH2 0x7B1 JUMP JUMPDEST PUSH1 0x8 DUP2 ADD SLOAD PUSH1 0x1 PUSH1 0x1 PUSH1 0xC0 SHL SUB AND ISZERO PUSH2 0x1905 JUMPI PUSH1 0x40 MLOAD PUSH3 0x461BCD PUSH1 0xE5 SHL DUP2 MSTORE PUSH1 0x20 PUSH1 0x4 DUP3 ADD MSTORE PUSH1 0x15 PUSH1 0x24 DUP3 ADD MSTORE PUSH21 0x41637469766520636C61696D732072756E6E696E67 PUSH1 0x58 SHL PUSH1 0x44 DUP3 ADD MSTORE PUSH1 0x64 ADD PUSH2 0x7B1 JUMP JUMPDEST DUP1 SLOAD PUSH1 0x6 DUP3 ADD DUP1 SLOAD PUSH1 0x1 PUSH1 0x1 PUSH1 0xA0 SHL SUB NOT AND PUSH1 0x1 PUSH1 0x1 PUSH1 0xA0 SHL SUB SWAP1 SWAP3 AND SWAP2 DUP3 OR SWAP1 SSTORE PUSH1 0x40 DUP1 MLOAD DUP6 DUP2 MSTORE PUSH1 0x20 DUP2 ADD SWAP3 SWAP1 SWAP3 MSTORE PUSH32 0xA7B86597910AAE75F7D99FEB2F37420CC80D457465FFBA0F8136D722A9F7095A SWAP2 ADD PUSH1 0x40 MLOAD DUP1 SWAP2 SUB SWAP1 LOG1 PUSH1 0x1 DUP2 ADD SLOAD DUP2 SLOAD PUSH1 0xB DUP4 ADD SLOAD PUSH1 0xA DUP5 ADD SLOAD PUSH1 0x5 DUP6 ADD SLOAD PUSH1 0x1 PUSH1 0x1 PUSH1 0xA0 SHL SUB SWAP5 DUP6 AND SWAP5 PUSH2 0x16C6 SWAP5 AND SWAP3 SWAP2 PUSH2 0x1993 SWAP2 PUSH2 0x24F2 JUMP JUMPDEST PUSH2 0x199D SWAP2 SWAP1 PUSH2 0x24F2 JUMP JUMPDEST PUSH1 0x1 PUSH1 0x1 PUSH1 0xA0 SHL SUB DUP5 AND SWAP2 SWAP1 PUSH2 0x20F5 JUMP JUMPDEST PUSH1 0x0 SLOAD PUSH1 0x1 PUSH1 0x1 PUSH1 0xA0 SHL SUB AND CALLER EQ PUSH2 0x19D8 JUMPI PUSH1 0x40 MLOAD PUSH3 0x461BCD PUSH1 0xE5 SHL DUP2 MSTORE PUSH1 0x4 ADD PUSH2 0x7B1 SWAP1 PUSH2 0x2523 JUMP JUMPDEST PUSH1 0xE SSTORE JUMP JUMPDEST PUSH1 0x0 SLOAD PUSH1 0x1 PUSH1 0x1 PUSH1 0xA0 SHL SUB AND CALLER EQ PUSH2 0x1A07 JUMPI PUSH1 0x40 MLOAD PUSH3 0x461BCD PUSH1 0xE5 SHL DUP2 MSTORE PUSH1 0x4 ADD PUSH2 0x7B1 SWAP1 PUSH2 0x2523 JUMP JUMPDEST PUSH1 0x4 SLOAD PUSH1 0xFF AND ISZERO PUSH2 0x1A5A JUMPI PUSH1 0x40 MLOAD PUSH3 0x461BCD PUSH1 0xE5 SHL DUP2 MSTORE PUSH1 0x20 PUSH1 0x4 DUP3 ADD MSTORE PUSH1 0x1B PUSH1 0x24 DUP3 ADD MSTORE PUSH32 0x436F6E747261637420616C726561647920646570726563617465640000000000 PUSH1 0x44 DUP3 ADD MSTORE PUSH1 0x64 ADD PUSH2 0x7B1 JUMP JUMPDEST PUSH1 0x4 DUP1 SLOAD PUSH1 0xFF NOT AND PUSH1 0x1 OR SWAP1 SSTORE JUMP JUMPDEST PUSH1 0x0 SLOAD PUSH1 0x1 PUSH1 0x1 PUSH1 0xA0 SHL SUB AND CALLER EQ PUSH2 0x1A93 JUMPI PUSH1 0x40 MLOAD PUSH3 0x461BCD PUSH1 0xE5 SHL DUP2 MSTORE PUSH1 0x4 ADD PUSH2 0x7B1 SWAP1 PUSH2 0x2523 JUMP JUMPDEST PUSH1 0x1 PUSH1 0x1 PUSH1 0xA0 SHL SUB DUP2 AND PUSH2 0x1AF8 JUMPI PUSH1 0x40 MLOAD PUSH3 0x461BCD PUSH1 0xE5 SHL DUP2 MSTORE PUSH1 0x20 PUSH1 0x4 DUP3 ADD MSTORE PUSH1 0x26 PUSH1 0x24 DUP3 ADD MSTORE PUSH32 0x4F776E61626C653A206E6577206F776E657220697320746865207A65726F2061 PUSH1 0x44 DUP3 ADD MSTORE PUSH6 0x646472657373 PUSH1 0xD0 SHL PUSH1 0x64 DUP3 ADD MSTORE PUSH1 0x84 ADD PUSH2 0x7B1 JUMP JUMPDEST PUSH2 0x1B01 DUP2 PUSH2 0x208C JUMP JUMPDEST POP JUMP JUMPDEST PUSH1 0x0 PUSH2 0x1327 PUSH1 0xB SLOAD PUSH3 0xF4240 PUSH1 0xC SLOAD DUP6 PUSH2 0x1B1E SWAP2 SWAP1 PUSH2 0x25AE JUMP JUMPDEST PUSH2 0x11F5 SWAP2 SWAP1 PUSH2 0x25CD JUMP JUMPDEST PUSH1 0x0 DUP2 DUP2 MSTORE PUSH1 0xA PUSH1 0x20 SWAP1 DUP2 MSTORE PUSH1 0x40 DUP1 DUP4 KECCAK256 DUP1 SLOAD DUP5 MSTORE PUSH1 0x9 SWAP1 SWAP3 MSTORE DUP3 KECCAK256 PUSH1 0x2 DUP3 ADD SLOAD PUSH1 0x5 DUP4 ADD SLOAD DUP5 SWAP4 SWAP3 SWAP2 SWAP1 PUSH2 0x1B5D DUP2 DUP4 PUSH2 0x24F2 JUMP JUMPDEST DUP5 PUSH1 0x6 ADD SLOAD LT PUSH2 0x1BAF JUMPI PUSH1 0x40 MLOAD PUSH3 0x461BCD PUSH1 0xE5 SHL DUP2 MSTORE PUSH1 0x20 PUSH1 0x4 DUP3 ADD MSTORE PUSH1 0x17 PUSH1 0x24 DUP3 ADD MSTORE PUSH32 0x436C61696D20616C72656164792077697468647261776E000000000000000000 PUSH1 0x44 DUP3 ADD MSTORE PUSH1 0x64 ADD PUSH2 0x7B1 JUMP JUMPDEST DUP4 SLOAD PUSH1 0x2 DUP5 ADD SLOAD PUSH1 0x3 DUP6 ADD SLOAD PUSH1 0x4 DUP7 ADD SLOAD PUSH1 0x5 DUP8 ADD SLOAD PUSH1 0x40 DUP1 MLOAD PUSH1 0x20 DUP1 DUP3 ADD SWAP8 SWAP1 SWAP8 MSTORE CHAINID DUP2 DUP4 ADD MSTORE PUSH1 0x60 DUP1 DUP3 ADD SWAP7 SWAP1 SWAP7 MSTORE PUSH12 0xFFFFFFFFFFFFFFFFFFFFFFFF NOT SWAP5 DUP7 SHL DUP6 AND PUSH1 0x80 DUP3 ADD MSTORE SWAP3 SWAP1 SWAP5 SHL SWAP1 SWAP3 AND PUSH1 0x94 DUP3 ADD MSTORE PUSH1 0xA8 DUP1 DUP3 ADD SWAP3 SWAP1 SWAP3 MSTORE DUP3 MLOAD DUP1 DUP3 SUB SWAP1 SWAP3 ADD DUP3 MSTORE PUSH1 0xC8 ADD SWAP1 SWAP2 MSTORE DUP1 MLOAD SWAP2 ADD KECCAK256 PUSH1 0x0 PUSH2 0x1C59 DUP3 DUP8 PUSH1 0x8 ADD SLOAD PUSH1 0x40 DUP1 MLOAD PUSH1 0x20 DUP1 DUP3 ADD SWAP5 SWAP1 SWAP5 MSTORE DUP1 DUP3 ADD SWAP3 SWAP1 SWAP3 MSTORE DUP1 MLOAD DUP1 DUP4 SUB DUP3 ADD DUP2 MSTORE PUSH1 0x60 SWAP1 SWAP3 ADD SWAP1 MSTORE DUP1 MLOAD SWAP2 ADD KECCAK256 SWAP1 JUMP JUMPDEST PUSH1 0x40 DUP1 MLOAD DUP1 DUP3 ADD DUP3 MSTORE PUSH1 0x6 DUP9 ADD SLOAD PUSH1 0x1 PUSH1 0x1 PUSH1 0xA0 SHL SUB SWAP1 DUP2 AND DUP3 MSTORE PUSH1 0x7 DUP1 DUP11 ADD SLOAD PUSH1 0x20 DUP5 ADD MSTORE SLOAD SWAP3 MLOAD PUSH4 0xA64A2271 PUSH1 0xE0 SHL DUP2 MSTORE PUSH1 0x4 DUP2 ADD DUP8 SWAP1 MSTORE SWAP4 SWAP5 POP PUSH1 0x0 SWAP4 SWAP2 SWAP3 DUP5 SWAP3 DUP4 SWAP3 SWAP2 SWAP1 SWAP2 AND SWAP1 PUSH4 0xA64A2271 SWAP1 PUSH1 0x24 ADD PUSH1 0x40 DUP1 MLOAD DUP1 DUP4 SUB DUP2 DUP7 GAS STATICCALL ISZERO DUP1 ISZERO PUSH2 0x1CC9 JUMPI RETURNDATASIZE PUSH1 0x0 DUP1 RETURNDATACOPY RETURNDATASIZE PUSH1 0x0 REVERT JUMPDEST POP POP POP POP PUSH1 0x40 MLOAD RETURNDATASIZE PUSH1 0x1F NOT PUSH1 0x1F DUP3 ADD AND DUP3 ADD DUP1 PUSH1 0x40 MSTORE POP DUP2 ADD SWAP1 PUSH2 0x1CED SWAP2 SWAP1 PUSH2 0x261A JUMP JUMPDEST SWAP1 SWAP3 POP SWAP1 POP PUSH1 0x1 PUSH1 0x1 PUSH1 0xA0 SHL SUB DUP3 AND PUSH2 0x1D0A JUMPI POP POP DUP1 MLOAD PUSH1 0x20 DUP3 ADD MLOAD JUMPDEST PUSH1 0x7 SLOAD PUSH1 0x40 MLOAD PUSH4 0xA751732F PUSH1 0xE0 SHL DUP2 MSTORE PUSH1 0x4 DUP2 ADD DUP8 SWAP1 MSTORE PUSH1 0x1 PUSH1 0x1 PUSH1 0xA0 SHL SUB SWAP1 SWAP2 AND SWAP1 PUSH4 0xA751732F SWAP1 PUSH1 0x24 ADD PUSH1 0x20 PUSH1 0x40 MLOAD DUP1 DUP4 SUB DUP2 DUP7 GAS STATICCALL ISZERO DUP1 ISZERO PUSH2 0x1D53 JUMPI RETURNDATASIZE PUSH1 0x0 DUP1 RETURNDATACOPY RETURNDATASIZE PUSH1 0x0 REVERT JUMPDEST POP POP POP POP PUSH1 0x40 MLOAD RETURNDATASIZE PUSH1 0x1F NOT PUSH1 0x1F DUP3 ADD AND DUP3 ADD DUP1 PUSH1 0x40 MSTORE POP DUP2 ADD SWAP1 PUSH2 0x1D77 SWAP2 SWAP1 PUSH2 0x2648 JUMP JUMPDEST ISZERO PUSH2 0x1D85 JUMPI PUSH1 0x0 SWAP4 POP PUSH2 0x1E17 JUMP JUMPDEST PUSH1 0x1 PUSH1 0x1 PUSH1 0xA0 SHL SUB DUP3 AND ISZERO PUSH2 0x1DBD JUMPI PUSH1 0x1 DUP11 ADD SLOAD PUSH1 0x1 PUSH1 0x1 PUSH1 0xA0 SHL SUB DUP4 DUP2 AND SWAP2 AND EQ DUP1 ISZERO PUSH2 0x1DB6 JUMPI POP DUP10 PUSH1 0x8 ADD SLOAD DUP2 EQ JUMPDEST SWAP4 POP PUSH2 0x1E17 JUMP JUMPDEST DUP10 PUSH1 0x7 ADD SLOAD TIMESTAMP LT ISZERO PUSH2 0x1E11 JUMPI PUSH1 0x40 MLOAD PUSH3 0x461BCD PUSH1 0xE5 SHL DUP2 MSTORE PUSH1 0x20 PUSH1 0x4 DUP3 ADD MSTORE PUSH1 0x19 PUSH1 0x24 DUP3 ADD MSTORE PUSH32 0x436C61696D20706572696F64206E6F742066696E697368656400000000000000 PUSH1 0x44 DUP3 ADD MSTORE PUSH1 0x64 ADD PUSH2 0x7B1 JUMP JUMPDEST DUP7 DUP9 GT SWAP4 POP JUMPDEST PUSH1 0x0 DUP1 DUP6 ISZERO PUSH2 0x1E42 JUMPI PUSH2 0x1E2A DUP10 DUP12 PUSH2 0x24F2 JUMP JUMPDEST PUSH1 0x1 DUP14 ADD SLOAD SWAP1 SWAP3 POP PUSH1 0x1 PUSH1 0x1 PUSH1 0xA0 SHL SUB AND SWAP1 POP PUSH2 0x1EDB JUMP JUMPDEST DUP9 ISZERO PUSH2 0x1ECA JUMPI CALLER PUSH1 0x0 SWAP1 DUP2 MSTORE PUSH1 0x3 DUP14 ADD PUSH1 0x20 MSTORE PUSH1 0x40 SWAP1 KECCAK256 SLOAD PUSH2 0x1E65 SWAP1 PUSH1 0x2 PUSH2 0x25AE JUMP JUMPDEST SWAP2 POP CALLER SWAP1 POP PUSH1 0x0 DUP3 GT PUSH2 0x1EC5 JUMPI PUSH1 0x40 MLOAD PUSH3 0x461BCD PUSH1 0xE5 SHL DUP2 MSTORE PUSH1 0x20 PUSH1 0x4 DUP3 ADD MSTORE PUSH1 0x22 PUSH1 0x24 DUP3 ADD MSTORE PUSH32 0x4368616C6C656E67657220686173206E6F7468696E6720746F20776974686472 PUSH1 0x44 DUP3 ADD MSTORE PUSH2 0x6177 PUSH1 0xF0 SHL PUSH1 0x64 DUP3 ADD MSTORE PUSH1 0x84 ADD PUSH2 0x7B1 JUMP JUMPDEST PUSH2 0x1EDB JUMP JUMPDEST POP POP PUSH1 0x0 SLOAD DUP9 SWAP1 PUSH1 0x1 PUSH1 0x1 PUSH1 0xA0 SHL SUB AND JUMPDEST PUSH1 0x4 DUP13 ADD SLOAD PUSH1 0x1 PUSH1 0x1 PUSH1 0xA0 SHL SUB AND CALLER SUB PUSH2 0x1F29 JUMPI DUP9 DUP11 GT ISZERO PUSH2 0x1F12 JUMPI PUSH2 0x1F01 DUP10 DUP12 PUSH2 0x2558 JUMP JUMPDEST PUSH2 0x1F0B SWAP1 DUP4 PUSH2 0x24F2 JUMP JUMPDEST SWAP2 POP PUSH2 0x1F29 JUMP JUMPDEST PUSH2 0x1F1C DUP11 DUP11 PUSH2 0x2558 JUMP JUMPDEST PUSH2 0x1F26 SWAP1 DUP4 PUSH2 0x2558 JUMP JUMPDEST SWAP2 POP JUMPDEST SWAP15 SWAP1 SWAP14 POP SWAP12 POP POP POP POP POP POP POP POP POP POP POP POP JUMP JUMPDEST PUSH1 0x1 DUP2 ADD SLOAD DUP2 SLOAD PUSH1 0x40 DUP1 MLOAD SWAP2 DUP3 MSTORE PUSH1 0x1 PUSH1 0x1 PUSH1 0xA0 SHL SUB SWAP1 SWAP3 AND PUSH1 0x20 DUP3 ADD DUP2 SWAP1 MSTORE SWAP2 PUSH32 0xA7B86597910AAE75F7D99FEB2F37420CC80D457465FFBA0F8136D722A9F7095A SWAP2 ADD PUSH1 0x40 MLOAD DUP1 SWAP2 SUB SWAP1 LOG1 PUSH1 0x40 DUP1 MLOAD DUP1 DUP3 ADD DUP3 MSTORE PUSH1 0x1 PUSH1 0x1 PUSH1 0xA0 SHL SUB DUP1 DUP5 AND DUP1 DUP4 MSTORE PUSH1 0x8 DUP7 ADD SLOAD PUSH1 0x20 SWAP4 DUP5 ADD DUP2 SWAP1 MSTORE PUSH1 0x6 DUP9 ADD DUP1 SLOAD PUSH1 0x1 PUSH1 0x1 PUSH1 0xA0 SHL SUB NOT AND SWAP1 SWAP3 OR SWAP1 SWAP2 SSTORE PUSH1 0x7 DUP8 ADD SSTORE PUSH1 0xB DUP7 ADD SLOAD PUSH1 0x1 DUP8 ADD SLOAD SWAP1 SWAP2 AND PUSH1 0x0 SWAP1 DUP2 MSTORE PUSH1 0xF SWAP1 SWAP3 MSTORE SWAP2 DUP2 KECCAK256 DUP1 SLOAD SWAP1 SWAP2 SWAP1 PUSH2 0x1FF1 SWAP1 DUP5 SWAP1 PUSH2 0x24F2 JUMP JUMPDEST SWAP1 SWAP2 SSTORE POP POP PUSH1 0x1 DUP4 ADD SLOAD PUSH1 0xA DUP5 ADD SLOAD PUSH1 0x5 DUP6 ADD SLOAD PUSH1 0x1 PUSH1 0x1 PUSH1 0xA0 SHL SUB SWAP1 SWAP3 AND SWAP2 PUSH2 0x16C6 SWAP2 DUP5 SWAP2 PUSH2 0x199D SWAP2 SWAP1 PUSH2 0x24F2 JUMP JUMPDEST PUSH1 0x40 MLOAD PUSH1 0x1 PUSH1 0x1 PUSH1 0xA0 SHL SUB DUP1 DUP6 AND PUSH1 0x24 DUP4 ADD MSTORE DUP4 AND PUSH1 0x44 DUP3 ADD MSTORE PUSH1 0x64 DUP2 ADD DUP3 SWAP1 MSTORE PUSH2 0x16C6 SWAP1 DUP6 SWAP1 PUSH4 0x23B872DD PUSH1 0xE0 SHL SWAP1 PUSH1 0x84 ADD JUMPDEST PUSH1 0x40 DUP1 MLOAD PUSH1 0x1F NOT DUP2 DUP5 SUB ADD DUP2 MSTORE SWAP2 SWAP1 MSTORE PUSH1 0x20 DUP2 ADD DUP1 MLOAD PUSH1 0x1 PUSH1 0x1 PUSH1 0xE0 SHL SUB AND PUSH1 0x1 PUSH1 0x1 PUSH1 0xE0 SHL SUB NOT SWAP1 SWAP4 AND SWAP3 SWAP1 SWAP3 OR SWAP1 SWAP2 MSTORE PUSH2 0x212A JUMP JUMPDEST PUSH1 0x0 DUP1 SLOAD PUSH1 0x1 PUSH1 0x1 PUSH1 0xA0 SHL SUB DUP4 DUP2 AND PUSH1 0x1 PUSH1 0x1 PUSH1 0xA0 SHL SUB NOT DUP4 AND DUP2 OR DUP5 SSTORE PUSH1 0x40 MLOAD SWAP2 SWAP1 SWAP3 AND SWAP3 DUP4 SWAP2 PUSH32 0x8BE0079C531659141344CD1FD0A4F28419497F9722A3DAAFE3B4186F6B6457E0 SWAP2 SWAP1 LOG3 POP POP JUMP JUMPDEST PUSH1 0x0 DUP2 DUP4 LT ISZERO PUSH2 0x20EC JUMPI DUP2 PUSH2 0x20EE JUMP JUMPDEST DUP3 JUMPDEST SWAP4 SWAP3 POP POP POP JUMP JUMPDEST PUSH1 0x40 MLOAD PUSH1 0x1 PUSH1 0x1 PUSH1 0xA0 SHL SUB DUP4 AND PUSH1 0x24 DUP3 ADD MSTORE PUSH1 0x44 DUP2 ADD DUP3 SWAP1 MSTORE PUSH2 0x2125 SWAP1 DUP5 SWAP1 PUSH4 0xA9059CBB PUSH1 0xE0 SHL SWAP1 PUSH1 0x64 ADD PUSH2 0x2055 JUMP JUMPDEST POP POP POP JUMP JUMPDEST PUSH1 0x0 PUSH2 0x217F DUP3 PUSH1 0x40 MLOAD DUP1 PUSH1 0x40 ADD PUSH1 0x40 MSTORE DUP1 PUSH1 0x20 DUP2 MSTORE PUSH1 0x20 ADD PUSH32 0x5361666545524332303A206C6F772D6C6576656C2063616C6C206661696C6564 DUP2 MSTORE POP DUP6 PUSH1 0x1 PUSH1 0x1 PUSH1 0xA0 SHL SUB AND PUSH2 0x21FC SWAP1 SWAP3 SWAP2 SWAP1 PUSH4 0xFFFFFFFF AND JUMP JUMPDEST DUP1 MLOAD SWAP1 SWAP2 POP ISZERO PUSH2 0x2125 JUMPI DUP1 DUP1 PUSH1 0x20 ADD SWAP1 MLOAD DUP2 ADD SWAP1 PUSH2 0x219D SWAP2 SWAP1 PUSH2 0x2648 JUMP JUMPDEST PUSH2 0x2125 JUMPI PUSH1 0x40 MLOAD PUSH3 0x461BCD PUSH1 0xE5 SHL DUP2 MSTORE PUSH1 0x20 PUSH1 0x4 DUP3 ADD MSTORE PUSH1 0x2A PUSH1 0x24 DUP3 ADD MSTORE PUSH32 0x5361666545524332303A204552433230206F7065726174696F6E20646964206E PUSH1 0x44 DUP3 ADD MSTORE PUSH10 0x1BDD081CDD58D8D95959 PUSH1 0xB2 SHL PUSH1 0x64 DUP3 ADD MSTORE PUSH1 0x84 ADD PUSH2 0x7B1 JUMP JUMPDEST PUSH1 0x60 PUSH2 0x220B DUP5 DUP5 PUSH1 0x0 DUP6 PUSH2 0x2213 JUMP JUMPDEST SWAP5 SWAP4 POP POP POP POP JUMP JUMPDEST PUSH1 0x60 DUP3 SELFBALANCE LT ISZERO PUSH2 0x2274 JUMPI PUSH1 0x40 MLOAD PUSH3 0x461BCD PUSH1 0xE5 SHL DUP2 MSTORE PUSH1 0x20 PUSH1 0x4 DUP3 ADD MSTORE PUSH1 0x26 PUSH1 0x24 DUP3 ADD MSTORE PUSH32 0x416464726573733A20696E73756666696369656E742062616C616E636520666F PUSH1 0x44 DUP3 ADD MSTORE PUSH6 0x1C8818D85B1B PUSH1 0xD2 SHL PUSH1 0x64 DUP3 ADD MSTORE PUSH1 0x84 ADD PUSH2 0x7B1 JUMP JUMPDEST PUSH1 0x1 PUSH1 0x1 PUSH1 0xA0 SHL SUB DUP6 AND EXTCODESIZE PUSH2 0x22CB JUMPI PUSH1 0x40 MLOAD PUSH3 0x461BCD PUSH1 0xE5 SHL DUP2 MSTORE PUSH1 0x20 PUSH1 0x4 DUP3 ADD MSTORE PUSH1 0x1D PUSH1 0x24 DUP3 ADD MSTORE PUSH32 0x416464726573733A2063616C6C20746F206E6F6E2D636F6E7472616374000000 PUSH1 0x44 DUP3 ADD MSTORE PUSH1 0x64 ADD PUSH2 0x7B1 JUMP JUMPDEST PUSH1 0x0 DUP1 DUP7 PUSH1 0x1 PUSH1 0x1 PUSH1 0xA0 SHL SUB AND DUP6 DUP8 PUSH1 0x40 MLOAD PUSH2 0x22E7 SWAP2 SWAP1 PUSH2 0x2696 JUMP JUMPDEST PUSH1 0x0 PUSH1 0x40 MLOAD DUP1 DUP4 SUB DUP2 DUP6 DUP8 GAS CALL SWAP3 POP POP POP RETURNDATASIZE DUP1 PUSH1 0x0 DUP2 EQ PUSH2 0x2324 JUMPI PUSH1 0x40 MLOAD SWAP2 POP PUSH1 0x1F NOT PUSH1 0x3F RETURNDATASIZE ADD AND DUP3 ADD PUSH1 0x40 MSTORE RETURNDATASIZE DUP3 MSTORE RETURNDATASIZE PUSH1 0x0 PUSH1 0x20 DUP5 ADD RETURNDATACOPY PUSH2 0x2329 JUMP JUMPDEST PUSH1 0x60 SWAP2 POP JUMPDEST POP SWAP2 POP SWAP2 POP PUSH2 0x2339 DUP3 DUP3 DUP7 PUSH2 0x2344 JUMP JUMPDEST SWAP8 SWAP7 POP POP POP POP POP POP POP JUMP JUMPDEST PUSH1 0x60 DUP4 ISZERO PUSH2 0x2353 JUMPI POP DUP2 PUSH2 0x20EE JUMP JUMPDEST DUP3 MLOAD ISZERO PUSH2 0x2363 JUMPI DUP3 MLOAD DUP1 DUP5 PUSH1 0x20 ADD REVERT JUMPDEST DUP2 PUSH1 0x40 MLOAD PUSH3 0x461BCD PUSH1 0xE5 SHL DUP2 MSTORE PUSH1 0x4 ADD PUSH2 0x7B1 SWAP2 SWAP1 PUSH2 0x26B2 JUMP JUMPDEST PUSH1 0x0 PUSH1 0x20 DUP3 DUP5 SUB SLT ISZERO PUSH2 0x238F JUMPI PUSH1 0x0 DUP1 REVERT JUMPDEST POP CALLDATALOAD SWAP2 SWAP1 POP JUMP JUMPDEST PUSH1 0x1 PUSH1 0x1 PUSH1 0xA0 SHL SUB DUP2 AND DUP2 EQ PUSH2 0x1B01 JUMPI PUSH1 0x0 DUP1 REVERT JUMPDEST PUSH1 0x0 DUP1 PUSH1 0x0 DUP1 PUSH1 0x0 DUP1 PUSH1 0xC0 DUP8 DUP10 SUB SLT ISZERO PUSH2 0x23C4 JUMPI PUSH1 0x0 DUP1 REVERT JUMPDEST DUP7 CALLDATALOAD SWAP6 POP PUSH1 0x20 DUP8 ADD CALLDATALOAD PUSH2 0x23D6 DUP2 PUSH2 0x2396 JUMP JUMPDEST SWAP5 POP PUSH1 0x40 DUP8 ADD CALLDATALOAD PUSH2 0x23E6 DUP2 PUSH2 0x2396 JUMP JUMPDEST SWAP4 POP PUSH1 0x60 DUP8 ADD CALLDATALOAD PUSH2 0x23F6 DUP2 PUSH2 0x2396 JUMP JUMPDEST SWAP6 SWAP9 SWAP5 SWAP8 POP SWAP3 SWAP6 PUSH1 0x80 DUP2 ADD CALLDATALOAD SWAP5 PUSH1 0xA0 SWAP1 SWAP2 ADD CALLDATALOAD SWAP4 POP SWAP2 POP POP JUMP JUMPDEST PUSH1 0x0 PUSH1 0x20 DUP3 DUP5 SUB SLT ISZERO PUSH2 0x2422 JUMPI PUSH1 0x0 DUP1 REVERT JUMPDEST DUP2 CALLDATALOAD PUSH2 0x20EE DUP2 PUSH2 0x2396 JUMP JUMPDEST PUSH1 0x0 DUP1 PUSH1 0x0 PUSH1 0x60 DUP5 DUP7 SUB SLT ISZERO PUSH2 0x2442 JUMPI PUSH1 0x0 DUP1 REVERT JUMPDEST POP POP DUP2 CALLDATALOAD SWAP4 PUSH1 0x20 DUP4 ADD CALLDATALOAD SWAP4 POP PUSH1 0x40 SWAP1 SWAP3 ADD CALLDATALOAD SWAP2 SWAP1 POP JUMP JUMPDEST PUSH1 0x0 DUP1 PUSH1 0x40 DUP4 DUP6 SUB SLT ISZERO PUSH2 0x246C JUMPI PUSH1 0x0 DUP1 REVERT JUMPDEST POP POP DUP1 CALLDATALOAD SWAP3 PUSH1 0x20 SWAP1 SWAP2 ADD CALLDATALOAD SWAP2 POP JUMP JUMPDEST PUSH1 0x0 DUP1 PUSH1 0x40 DUP4 DUP6 SUB SLT ISZERO PUSH2 0x248E JUMPI PUSH1 0x0 DUP1 REVERT JUMPDEST DUP3 CALLDATALOAD PUSH2 0x2499 DUP2 PUSH2 0x2396 JUMP JUMPDEST SWAP2 POP PUSH1 0x20 DUP4 ADD CALLDATALOAD PUSH2 0x24A9 DUP2 PUSH2 0x2396 JUMP JUMPDEST DUP1 SWAP2 POP POP SWAP3 POP SWAP3 SWAP1 POP JUMP JUMPDEST PUSH4 0x4E487B71 PUSH1 0xE0 SHL PUSH1 0x0 MSTORE PUSH1 0x11 PUSH1 0x4 MSTORE PUSH1 0x24 PUSH1 0x0 REVERT JUMPDEST PUSH1 0x0 PUSH1 0x1 PUSH1 0x1 PUSH1 0xC0 SHL SUB DUP4 DUP2 AND SWAP1 DUP4 AND DUP2 DUP2 LT ISZERO PUSH2 0x24EA JUMPI PUSH2 0x24EA PUSH2 0x24B4 JUMP JUMPDEST SUB SWAP4 SWAP3 POP POP POP JUMP JUMPDEST PUSH1 0x0 DUP3 NOT DUP3 GT ISZERO PUSH2 0x2505 JUMPI PUSH2 0x2505 PUSH2 0x24B4 JUMP JUMPDEST POP ADD SWAP1 JUMP JUMPDEST PUSH1 0x0 PUSH1 0x20 DUP3 DUP5 SUB SLT ISZERO PUSH2 0x251C JUMPI PUSH1 0x0 DUP1 REVERT JUMPDEST POP MLOAD SWAP2 SWAP1 POP JUMP JUMPDEST PUSH1 0x20 DUP1 DUP3 MSTORE DUP2 DUP2 ADD MSTORE PUSH32 0x4F776E61626C653A2063616C6C6572206973206E6F7420746865206F776E6572 PUSH1 0x40 DUP3 ADD MSTORE PUSH1 0x60 ADD SWAP1 JUMP JUMPDEST PUSH1 0x0 DUP3 DUP3 LT ISZERO PUSH2 0x256A JUMPI PUSH2 0x256A PUSH2 0x24B4 JUMP JUMPDEST POP SUB SWAP1 JUMP JUMPDEST SWAP7 DUP8 MSTORE PUSH1 0x1 PUSH1 0x1 PUSH1 0xA0 SHL SUB SWAP6 DUP7 AND PUSH1 0x20 DUP9 ADD MSTORE PUSH1 0x40 DUP8 ADD SWAP5 SWAP1 SWAP5 MSTORE SWAP2 SWAP1 SWAP4 AND PUSH1 0x60 DUP6 ADD MSTORE PUSH1 0x80 DUP5 ADD SWAP3 SWAP1 SWAP3 MSTORE PUSH1 0xA0 DUP4 ADD SWAP2 SWAP1 SWAP2 MSTORE PUSH1 0xC0 DUP3 ADD MSTORE PUSH1 0xE0 ADD SWAP1 JUMP JUMPDEST PUSH1 0x0 DUP2 PUSH1 0x0 NOT DIV DUP4 GT DUP3 ISZERO ISZERO AND ISZERO PUSH2 0x25C8 JUMPI PUSH2 0x25C8 PUSH2 0x24B4 JUMP JUMPDEST POP MUL SWAP1 JUMP JUMPDEST PUSH1 0x0 DUP3 PUSH2 0x25EA JUMPI PUSH4 0x4E487B71 PUSH1 0xE0 SHL PUSH1 0x0 MSTORE PUSH1 0x12 PUSH1 0x4 MSTORE PUSH1 0x24 PUSH1 0x0 REVERT JUMPDEST POP DIV SWAP1 JUMP JUMPDEST PUSH1 0x0 PUSH1 0x1 PUSH1 0x1 PUSH1 0xC0 SHL SUB DUP3 DUP2 AND DUP5 DUP3 AND DUP1 DUP4 SUB DUP3 GT ISZERO PUSH2 0x2611 JUMPI PUSH2 0x2611 PUSH2 0x24B4 JUMP JUMPDEST ADD SWAP5 SWAP4 POP POP POP POP JUMP JUMPDEST PUSH1 0x0 DUP1 PUSH1 0x40 DUP4 DUP6 SUB SLT ISZERO PUSH2 0x262D JUMPI PUSH1 0x0 DUP1 REVERT JUMPDEST DUP3 MLOAD PUSH2 0x2638 DUP2 PUSH2 0x2396 JUMP JUMPDEST PUSH1 0x20 SWAP4 SWAP1 SWAP4 ADD MLOAD SWAP3 SWAP5 SWAP3 SWAP4 POP POP POP JUMP JUMPDEST PUSH1 0x0 PUSH1 0x20 DUP3 DUP5 SUB SLT ISZERO PUSH2 0x265A JUMPI PUSH1 0x0 DUP1 REVERT JUMPDEST DUP2 MLOAD DUP1 ISZERO ISZERO DUP2 EQ PUSH2 0x20EE JUMPI PUSH1 0x0 DUP1 REVERT JUMPDEST PUSH1 0x0 JUMPDEST DUP4 DUP2 LT ISZERO PUSH2 0x2685 JUMPI DUP2 DUP2 ADD MLOAD DUP4 DUP3 ADD MSTORE PUSH1 0x20 ADD PUSH2 0x266D JUMP JUMPDEST DUP4 DUP2 GT ISZERO PUSH2 0x16C6 JUMPI POP POP PUSH1 0x0 SWAP2 ADD MSTORE JUMP JUMPDEST PUSH1 0x0 DUP3 MLOAD PUSH2 0x26A8 DUP2 DUP5 PUSH1 0x20 DUP8 ADD PUSH2 0x266A JUMP JUMPDEST SWAP2 SWAP1 SWAP2 ADD SWAP3 SWAP2 POP POP JUMP JUMPDEST PUSH1 0x20 DUP2 MSTORE PUSH1 0x0 DUP3 MLOAD DUP1 PUSH1 0x20 DUP5 ADD MSTORE PUSH2 0x26D1 DUP2 PUSH1 0x40 DUP6 ADD PUSH1 0x20 DUP8 ADD PUSH2 0x266A JUMP JUMPDEST PUSH1 0x1F ADD PUSH1 0x1F NOT AND SWAP2 SWAP1 SWAP2 ADD PUSH1 0x40 ADD SWAP3 SWAP2 POP POP JUMP INVALID LOG2 PUSH5 0x6970667358 0x22 SLT KECCAK256 PUSH13 0xE8521A489A72409700B7DCBDF5 DELEGATECALL 0xBF PUSH5 0xB2573EA76B DUP15 DELEGATECALL 0xE6 SHR DUP16 DUP6 SWAP13 0xCA PUSH18 0x1364736F6C634300080D0033000000000000 ",
  "sha1": "7a84b9ca64901270bf3807feb06ac80717fbf6ee",
  "source": "// SPDX-License-Identifier: MIT\npragma solidity ^0.8.12;\n\nimport \"OpenZeppelin/openzeppelin-contracts@4.5.0/contracts/token/ERC20/IERC20.sol\";\nimport \"OpenZeppelin/openzeppelin-contracts@4.5.0/contracts/token/ERC20/utils/SafeERC20.sol\";\nimport \"OpenZeppelin/openzeppelin-contracts@4.5.0/contracts/utils/math/Math.sol\";\nimport \"OpenZeppelin/openzeppelin-contracts@4.5.0/contracts/access/Ownable.sol\";\n\nimport \"./BeamerUtils.sol\";\nimport \"./ResolutionRegistry.sol\";\n\n/// The request manager.\n///\n/// This contract is responsible for keeping track of transfer requests,\n/// implementing the rules of the challenge game and holding deposited\n/// tokens until they are withdrawn.\n///\n/// It is the only contract that agents need to interact with on the source chain.\ncontract RequestManager is Ownable {\n    using Math for uint256;\n    using SafeERC20 for IERC20;\n\n    // Structs\n    // TODO: check if we can use a smaller type for `targetChainId`, so that the\n    // fields can be packed into one storage slot\n    struct Request {\n        address sender;\n        address sourceTokenAddress;\n        uint256 targetChainId;\n        address targetTokenAddress;\n        address targetAddress;\n        uint256 amount;\n        BeamerUtils.FillInfo withdrawInfo;\n        uint192 activeClaims;\n        uint256 validUntil;\n        uint256 lpFee;\n        uint256 protocolFee;\n    }\n\n    struct Claim {\n        uint256 requestId;\n        address claimer;\n        uint256 claimerStake;\n        mapping(address => uint256) challengersStakes;\n        address lastChallenger;\n        uint256 challengerStakeTotal;\n        uint256 withdrawnAmount;\n        uint256 termination;\n        bytes32 fillId;\n    }\n\n    // Events\n\n    /// Emitted when a new request has been created.\n    ///\n    /// .. seealso:: :sol:func:`createRequest`\n    event RequestCreated(\n        uint256 requestId,\n        uint256 targetChainId,\n        address sourceTokenAddress,\n        address targetTokenAddress,\n        address targetAddress,\n        uint256 amount,\n        uint256 validUntil\n    );\n\n    /// Emitted when the token deposit for request ``requestId`` has been\n    /// transferred to the ``receiver``.\n    ///\n    /// This can happen in two cases:\n    ///\n    ///  * the request expired and the request submitter called :sol:func:`withdrawExpiredRequest`\n    ///  * a claim related to the request has been resolved successfully in favor of the claimer\n    ///\n    /// .. seealso:: :sol:func:`withdraw` :sol:func:`withdrawExpiredRequest`\n    event DepositWithdrawn(uint256 requestId, address receiver);\n\n    /// Emitted when a claim or a counter-claim (challenge) has been made.\n    ///\n    /// .. seealso:: :sol:func:`claimRequest` :sol:func:`challengeClaim`\n    event ClaimMade(\n        uint256 indexed requestId,\n        uint256 claimId,\n        address claimer,\n        uint256 claimerStake,\n        address lastChallenger,\n        uint256 challengerStakeTotal,\n        uint256 termination,\n        bytes32 fillId\n    );\n\n    /// Emitted when staked native tokens tied to a claim have been withdrawn.\n    ///\n    /// This can only happen when the claim has been resolved and the caller\n    /// of :sol:func:`withdraw` is allowed to withdraw their stake.\n    ///\n    /// .. seealso:: :sol:func:`withdraw`\n    event ClaimStakeWithdrawn(\n        uint256 claimId,\n        uint256 indexed requestId,\n        address claimReceiver\n    );\n\n    event FinalityPeriodUpdated(uint256 targetChainId, uint256 finalityPeriod);\n\n    // Constants\n\n    /// The minimum amount of source chain's native token that the claimer needs to\n    /// provide when making a claim, as well in each round of the challenge game.\n    uint256 public claimStake;\n\n    /// The period for which the claim is valid.\n    uint256 public claimPeriod;\n\n    /// The period by which the termination time of a claim is extended after each\n    /// round of the challenge game. This period should allow enough time for the\n    /// other parties to counter-challenge.\n    ///\n    /// .. note::\n    ///\n    ///    The claim's termination time is extended only if it is less than the\n    ///    extension time.\n    ///\n    /// Note that in the first challenge round, i.e. the round initiated by the first\n    /// challenger, the termination time is extended additionally by the finality\n    /// period of the target chain. This is done to allow for L1 resolution.\n    uint256 public challengePeriodExtension;\n\n    /// The minimum validity period of a request.\n    uint256 public constant MIN_VALIDITY_PERIOD = 5 minutes;\n\n    /// The maximum validity period of a request.\n    uint256 public constant MAX_VALIDITY_PERIOD = 52 weeks;\n\n    // Variables\n\n    /// Indicates whether the contract is deprecated. A deprecated contract\n    /// cannot be used to create new requests.\n    bool public deprecated;\n\n    /// The request counter, used to generate request IDs.\n    uint256 public requestCounter;\n\n    /// The claim counter, used to generate claim IDs.\n    uint256 public claimCounter;\n\n    /// The resolution registry that is used to query for results of L1 resolution.\n    ResolutionRegistry public resolutionRegistry;\n\n    /// Maps target rollup chain IDs to finality periods.\n    /// Finality periods are in seconds.\n    mapping(uint256 => uint256) public finalityPeriods;\n\n    /// Maps request IDs to requests.\n    mapping(uint256 => Request) public requests;\n\n    /// Maps claim IDs to claims.\n    mapping(uint256 => Claim) public claims;\n\n    /// The minimum fee, denominated in transfer token, paid to the liquidity provider.\n    uint256 public minLpFee = 5 ether; // 5e18\n\n    /// Liquidity provider fee percentage, expressed in ppm (parts per million).\n    uint256 public lpFeePPM = 1_000; // 0.1% of the token amount being transferred\n\n    /// Protocol fee percentage, expressed in ppm (parts per million).\n    uint256 public protocolFeePPM = 0; // 0% of the token amount being transferred\n\n    /// The maximum amount of tokens that can be transferred in a single request.\n    uint256 public transferLimit = 10000 ether; // 10000e18\n\n    /// Maps ERC20 token addresses to related token amounts that belong to the protocol.\n    mapping(address => uint256) public collectedProtocolFees;\n\n    /// Compute the liquidy provider fee that needs to be paid for a given transfer amount.\n    function lpFee(uint256 amount) public view returns (uint256) {\n        return Math.max(minLpFee, (amount * lpFeePPM) / 1_000_000);\n    }\n\n    /// Compute the protocol fee that needs to be paid for a given transfer amount.\n    function protocolFee(uint256 amount) public view returns (uint256) {\n        return (amount * protocolFeePPM) / 1_000_000;\n    }\n\n    /// Compute the total fee that needs to be paid for a given transfer amount.\n    /// The total fee is the sum of the liquidity provider fee and the protocol fee.\n    function totalFee(uint256 amount) public view returns (uint256) {\n        return lpFee(amount) + protocolFee(amount);\n    }\n\n    // Modifiers\n\n    /// Check whether a given request ID is valid.\n    modifier validRequestId(uint256 requestId) {\n        require(\n            requestId <= requestCounter && requestId > 0,\n            \"requestId not valid\"\n        );\n        _;\n    }\n\n    /// Check whether a given claim ID is valid.\n    modifier validClaimId(uint256 claimId) {\n        require(claimId <= claimCounter && claimId > 0, \"claimId not valid\");\n        _;\n    }\n\n    /// Constructor.\n    ///\n    /// @param _claimStake Claim stake amount.\n    /// @param _claimPeriod Claim period, in seconds.\n    /// @param _challengePeriodExtension Challenge period extension, in seconds.\n    /// @param _resolutionRegistry Address of the resolution registry.\n    constructor(\n        uint256 _claimStake,\n        uint256 _claimPeriod,\n        uint256 _challengePeriodExtension,\n        address _resolutionRegistry\n    ) {\n        claimStake = _claimStake;\n        claimPeriod = _claimPeriod;\n        challengePeriodExtension = _challengePeriodExtension;\n        resolutionRegistry = ResolutionRegistry(_resolutionRegistry);\n    }\n\n    /// Create a new transfer request.\n    ///\n    /// @param targetChainId ID of the target chain.\n    /// @param sourceTokenAddress Address of the token contract on the source chain.\n    /// @param targetTokenAddress Address of the token contract on the target chain.\n    /// @param targetAddress Recipient address on the target chain.\n    /// @param amount Amount of tokens to transfer. Does not include fees.\n    /// @param validityPeriod The number of seconds the request is to be considered valid.\n    ///                       Once its validity period has elapsed, the request cannot be claimed\n    ///                       anymore and will eventually expire, allowing the request submitter\n    ///                       to withdraw the deposited tokens if there are no active claims.\n    /// @return ID of the newly created request.\n    function createRequest(\n        uint256 targetChainId,\n        address sourceTokenAddress,\n        address targetTokenAddress,\n        address targetAddress,\n        uint256 amount,\n        uint256 validityPeriod\n    ) external returns (uint256) {\n        require(deprecated == false, \"Contract is deprecated\");\n        require(\n            finalityPeriods[targetChainId] != 0,\n            \"Target rollup not supported\"\n        );\n        require(\n            validityPeriod >= MIN_VALIDITY_PERIOD,\n            \"Validity period too short\"\n        );\n        require(\n            validityPeriod <= MAX_VALIDITY_PERIOD,\n            \"Validity period too long\"\n        );\n        require(amount <= transferLimit, \"Amount exceeds transfer limit\");\n\n        IERC20 token = IERC20(sourceTokenAddress);\n\n        uint256 lpFee = lpFee(amount);\n        uint256 protocolFee = protocolFee(amount);\n        uint256 totalTokenAmount = amount + lpFee + protocolFee;\n\n        require(\n            token.allowance(msg.sender, address(this)) >= totalTokenAmount,\n            \"Insufficient allowance\"\n        );\n\n        requestCounter += 1;\n        Request storage newRequest = requests[requestCounter];\n        newRequest.sender = msg.sender;\n        newRequest.sourceTokenAddress = sourceTokenAddress;\n        newRequest.targetChainId = targetChainId;\n        newRequest.targetTokenAddress = targetTokenAddress;\n        newRequest.targetAddress = targetAddress;\n        newRequest.amount = amount;\n        newRequest.withdrawInfo = BeamerUtils.FillInfo(address(0), bytes32(0));\n        newRequest.validUntil = block.timestamp + validityPeriod;\n        newRequest.lpFee = lpFee;\n        newRequest.protocolFee = protocolFee;\n\n        emit RequestCreated(\n            requestCounter,\n            targetChainId,\n            sourceTokenAddress,\n            targetTokenAddress,\n            targetAddress,\n            amount,\n            newRequest.validUntil\n        );\n\n        token.safeTransferFrom(msg.sender, address(this), totalTokenAmount);\n\n        return requestCounter;\n    }\n\n    /// Withdraw funds deposited with an expired request.\n    ///\n    /// No claims must be active for the request.\n    ///\n    /// @param requestId ID of the expired request.\n    function withdrawExpiredRequest(uint256 requestId)\n        external\n        validRequestId(requestId)\n    {\n        Request storage request = requests[requestId];\n\n        require(\n            request.withdrawInfo.filler == address(0),\n            \"Deposit already withdrawn\"\n        );\n        require(\n            block.timestamp >= request.validUntil,\n            \"Request not expired yet\"\n        );\n        require(request.activeClaims == 0, \"Active claims running\");\n\n        request.withdrawInfo.filler = request.sender;\n\n        emit DepositWithdrawn(requestId, request.sender);\n\n        IERC20 token = IERC20(request.sourceTokenAddress);\n        token.safeTransfer(\n            request.sender,\n            request.amount + request.lpFee + request.protocolFee\n        );\n    }\n\n    /// Claim that a request was filled by the caller.\n    ///\n    /// The request must still be valid at call time.\n    /// The caller must provide the ``claimStake`` amount of source rollup's native\n    /// token.\n    ///\n    /// @param requestId ID of the request.\n    /// @param fillId The fill ID.\n    /// @return The claim ID.\n    function claimRequest(uint256 requestId, bytes32 fillId)\n        external\n        payable\n        validRequestId(requestId)\n        returns (uint256)\n    {\n        Request storage request = requests[requestId];\n\n        require(block.timestamp < request.validUntil, \"Request expired\");\n        require(\n            request.withdrawInfo.filler == address(0),\n            \"Deposit already withdrawn\"\n        );\n        require(msg.value == claimStake, \"Invalid stake amount\");\n        require(fillId != bytes32(0), \"FillId must not be 0x0\");\n\n        request.activeClaims += 1;\n        claimCounter += 1;\n\n        Claim storage claim = claims[claimCounter];\n        claim.requestId = requestId;\n        claim.claimer = msg.sender;\n        claim.claimerStake = claimStake;\n        claim.lastChallenger = address(0);\n        claim.challengerStakeTotal = 0;\n        claim.withdrawnAmount = 0;\n        claim.termination = block.timestamp + claimPeriod;\n        claim.fillId = fillId;\n\n        emit ClaimMade(\n            requestId,\n            claimCounter,\n            claim.claimer,\n            claim.claimerStake,\n            claim.lastChallenger,\n            claim.challengerStakeTotal,\n            claim.termination,\n            fillId\n        );\n\n        return claimCounter;\n    }\n\n    /// Challenge an existing claim.\n    ///\n    /// The claim must still be valid at call time.\n    /// This function implements one round of the challenge game.\n    /// The original claimer is allowed to call this function only\n    /// after someone else made a challenge, i.e. every second round.\n    /// However, once the original claimer counter-challenges, anyone\n    /// can join the game and make another challenge.\n    ///\n    /// The caller must provide enough native tokens as their stake.\n    /// For the original claimer, the minimum stake is\n    /// ``challengerStakeTotal - claimerStake + claimStake``.\n    ///\n    /// For challengers, the minimum stake is\n    /// ``claimerStake - challengerStakeTotal + 1``.\n    ///\n    /// An example (time flows downwards, claimStake = 10)::\n    ///\n    ///   claimRequest() by Max [stakes 10]\n    ///   challengeClaim() by Alice [stakes 11]\n    ///   challengeClaim() by Max [stakes 11]\n    ///   challengeClaim() by Bob [stakes 16]\n    ///\n    /// In this example, if Max didn't want to lose the challenge game to\n    /// Alice and Bob, he would have to challenge with a stake of at least 16.\n    ///\n    /// @param claimId The claim ID.\n    function challengeClaim(uint256 claimId)\n        external\n        payable\n        validClaimId(claimId)\n    {\n        Claim storage claim = claims[claimId];\n        Request storage request = requests[claim.requestId];\n        require(block.timestamp < claim.termination, \"Claim expired\");\n\n        address nextActor;\n        uint256 minValue;\n        uint256 periodExtension = challengePeriodExtension;\n        uint256 claimerStake = claim.claimerStake;\n        uint256 challengerStakeTotal = claim.challengerStakeTotal;\n\n        if (claimerStake > challengerStakeTotal) {\n            if (challengerStakeTotal == 0) {\n                periodExtension += finalityPeriods[request.targetChainId];\n            }\n            require(claim.claimer != msg.sender, \"Cannot challenge own claim\");\n            nextActor = msg.sender;\n            minValue = claimerStake - challengerStakeTotal + 1;\n        } else {\n            nextActor = claim.claimer;\n            minValue = challengerStakeTotal - claimerStake + claimStake;\n        }\n\n        require(msg.sender == nextActor, \"Not eligible to outbid\");\n        require(msg.value >= minValue, \"Not enough stake provided\");\n\n        if (nextActor == claim.claimer) {\n            claim.claimerStake += msg.value;\n        } else {\n            claim.lastChallenger = msg.sender;\n            claim.challengersStakes[msg.sender] += msg.value;\n            claim.challengerStakeTotal += msg.value;\n        }\n\n        claim.termination = Math.max(\n            claim.termination,\n            block.timestamp + periodExtension\n        );\n        uint256 minimumTermination = block.timestamp + challengePeriodExtension;\n        require(\n            claim.termination >= minimumTermination,\n            \"Claim termination did not increase enough\"\n        );\n\n        emit ClaimMade(\n            claim.requestId,\n            claimId,\n            claim.claimer,\n            claim.claimerStake,\n            claim.lastChallenger,\n            claim.challengerStakeTotal,\n            claim.termination,\n            claim.fillId\n        );\n    }\n\n    /// Withdraw the deposit that the request submitter left with the contract,\n    /// as well as the staked native tokens associated with the claim.\n    ///\n    /// In case the caller of this function is a challenger that won the game,\n    /// they will only get their staked native tokens plus the reward in the form\n    /// of full (sole challenger) or partial (multiple challengers) amount\n    /// of native tokens staked by the dishonest claimer.\n    ///\n    /// @param claimId The claim ID.\n    /// @return The address of the deposit receiver.\n    function withdraw(uint256 claimId)\n        external\n        validClaimId(claimId)\n        returns (address)\n    {\n        Claim storage claim = claims[claimId];\n        Request storage request = requests[claim.requestId];\n\n        (address claimReceiver, uint256 ethToTransfer) = resolveClaim(claimId);\n\n        if (claim.challengersStakes[claimReceiver] > 0) {\n            //Re-entrancy protection\n            claim.challengersStakes[claimReceiver] = 0;\n        }\n\n        // First time withdraw is called, remove it from active claims\n        if (claim.withdrawnAmount == 0) {\n            request.activeClaims -= 1;\n        }\n        claim.withdrawnAmount += ethToTransfer;\n        require(\n            claim.withdrawnAmount <=\n                claim.claimerStake + claim.challengerStakeTotal,\n            \"Amount to withdraw too large\"\n        );\n\n        (bool sent, ) = claimReceiver.call{value: ethToTransfer}(\"\");\n        require(sent, \"Failed to send Ether\");\n\n        emit ClaimStakeWithdrawn(claimId, claim.requestId, claimReceiver);\n\n        if (\n            request.withdrawInfo.filler == address(0) &&\n            claimReceiver == claim.claimer\n        ) {\n            withdrawDeposit(request, claim);\n        }\n\n        return claimReceiver;\n    }\n\n    function resolveClaim(uint256 claimId)\n        private\n        view\n        returns (address, uint256)\n    {\n        Claim storage claim = claims[claimId];\n        Request storage request = requests[claim.requestId];\n        uint256 claimerStake = claim.claimerStake;\n        uint256 challengerStakeTotal = claim.challengerStakeTotal;\n        require(\n            claim.withdrawnAmount < claimerStake + challengerStakeTotal,\n            \"Claim already withdrawn\"\n        );\n\n        bytes32 requestHash = BeamerUtils.createRequestHash(\n            claim.requestId,\n            block.chainid,\n            request.targetChainId,\n            request.targetTokenAddress,\n            request.targetAddress,\n            request.amount\n        );\n\n        bytes32 fillHash = BeamerUtils.createFillHash(\n            requestHash,\n            claim.fillId\n        );\n\n        bool claimValid = false;\n        BeamerUtils.FillInfo memory withdrawInfo = request.withdrawInfo;\n\n        // Priority list for validity check of claim\n        // Claim is valid if either\n        // 1) ResolutionRegistry entry in fillers, claimer is the filler\n        // 2) ResolutionRegistry entry in invalidFillHashes, claim is invalid\n        // 3) Request.withdrawInfo, the claimer withdrew with an identical claim (same fill id)\n        // 4) Claim properties, claim terminated and claimer has the highest stake\n        (address filler, bytes32 fillId) = resolutionRegistry.fillers(\n            requestHash\n        );\n\n        if (filler == address(0)) {\n            (filler, fillId) = (withdrawInfo.filler, withdrawInfo.fillId);\n        }\n\n        if (resolutionRegistry.invalidFillHashes(fillHash)) {\n            // Claim resolution via 2)\n            claimValid = false;\n        } else if (filler != address(0)) {\n            // Claim resolution via 1) or 3)\n            claimValid = filler == claim.claimer && fillId == claim.fillId;\n        } else {\n            // Claim resolution via 4)\n            require(\n                block.timestamp >= claim.termination,\n                \"Claim period not finished\"\n            );\n            claimValid = claimerStake > challengerStakeTotal;\n        }\n\n        // Calculate withdraw scheme for claim stakes\n        uint256 ethToTransfer;\n        address claimReceiver;\n\n        if (claimValid) {\n            // If claim is valid, all stakes go to the claimer\n            ethToTransfer = claimerStake + challengerStakeTotal;\n            claimReceiver = claim.claimer;\n        } else if (challengerStakeTotal > 0) {\n            // If claim is invalid, partial withdrawal by the sender\n            ethToTransfer = 2 * claim.challengersStakes[msg.sender];\n            claimReceiver = msg.sender;\n\n            require(ethToTransfer > 0, \"Challenger has nothing to withdraw\");\n        } else {\n            // The unlikely event is possible that a false claim has no challenger\n            // If it is known that the claim is false then the claim stake goes to the platform\n            ethToTransfer = claimerStake;\n            claimReceiver = owner();\n        }\n\n        // If the challenger wins and is the last challenger, he gets either\n        // twice his stake plus the excess stake (if the claimer was winning), or\n        // twice his stake minus the difference between the claimer and challenger stakes (if the claimer was losing)\n        if (msg.sender == claim.lastChallenger) {\n            if (claimerStake > challengerStakeTotal) {\n                ethToTransfer += (claimerStake - challengerStakeTotal);\n            } else {\n                ethToTransfer -= (challengerStakeTotal - claimerStake);\n            }\n        }\n\n        return (claimReceiver, ethToTransfer);\n    }\n\n    function withdrawDeposit(Request storage request, Claim storage claim)\n        private\n    {\n        address claimer = claim.claimer;\n        emit DepositWithdrawn(claim.requestId, claimer);\n\n        request.withdrawInfo = BeamerUtils.FillInfo(claimer, claim.fillId);\n\n        collectedProtocolFees[request.sourceTokenAddress] += request\n            .protocolFee;\n\n        IERC20 token = IERC20(request.sourceTokenAddress);\n        token.safeTransfer(claimer, request.amount + request.lpFee);\n    }\n\n    /// Withdraw protocol fees collected by the contract.\n    ///\n    /// Protocol fees are paid in token transferred.\n    ///\n    /// .. note:: This function can only be called by the contract owner.\n    ///\n    /// @param tokenAddress The address of the token contract.\n    /// @param recipient The address the fees should be sent to.\n    function withdrawProtocolFees(address tokenAddress, address recipient)\n        external\n        onlyOwner\n    {\n        uint256 amount = collectedProtocolFees[tokenAddress];\n        require(amount > 0, \"Protocol fee is zero\");\n        collectedProtocolFees[tokenAddress] = 0;\n\n        IERC20 token = IERC20(tokenAddress);\n        token.safeTransfer(recipient, amount);\n    }\n\n    /// Update fee parameters.\n    ///\n    /// .. note:: This function can only be called by the contract owner.\n    ///\n    /// @param newProtocolFeePPM The new value for ``protocolFeePPM``.\n    /// @param newLpFeePPM The new value for ``lpFeePPM``.\n    /// @param newMinLpFee The new value for ``minLpFee``.\n    function updateFeeData(\n        uint256 newProtocolFeePPM,\n        uint256 newLpFeePPM,\n        uint256 newMinLpFee\n    ) external onlyOwner {\n        protocolFeePPM = newProtocolFeePPM;\n        lpFeePPM = newLpFeePPM;\n        minLpFee = newMinLpFee;\n    }\n\n    /// Update the transfer amount limit.\n    ///\n    /// .. note:: This function can only be called by the contract owner.\n    ///\n    /// @param newTransferLimit The new value for ``transferLimit``.\n    function updateTransferLimit(uint256 newTransferLimit) external onlyOwner {\n        transferLimit = newTransferLimit;\n    }\n\n    /// Set the finality period for the given target chain.\n    ///\n    /// .. note:: This function can only be called by the contract owner.\n    ///\n    /// @param targetChainId The target chain ID.\n    /// @param finalityPeriod Finality period in seconds.\n    function setFinalityPeriod(uint256 targetChainId, uint256 finalityPeriod)\n        external\n        onlyOwner\n    {\n        require(finalityPeriod > 0, \"Finality period must be greater than 0\");\n        finalityPeriods[targetChainId] = finalityPeriod;\n\n        emit FinalityPeriodUpdated(targetChainId, finalityPeriod);\n    }\n\n    /// Mark the contract as deprecated.\n    ///\n    /// Once the contract is deprecated, it cannot be used to create new\n    /// requests anymore. Withdrawing deposited funds and claim stakes\n    /// still works, though.\n    ///\n    /// .. note:: This function can only be called by the contract owner.\n    function deprecateContract() external onlyOwner {\n        require(deprecated == false, \"Contract already deprecated\");\n        deprecated = true;\n    }\n}\n",
  "sourcePath": "contracts/contracts/RequestManager.sol",
  "type": "contract"
}