{
  "abi": [
    {
      "anonymous": false,
      "inputs": [
        {
          "indexed": true,
          "internalType": "address",
          "name": "previousOwner",
          "type": "address"
        },
        {
          "indexed": true,
          "internalType": "address",
          "name": "newOwner",
          "type": "address"
        }
      ],
      "name": "OwnershipTransferred",
      "type": "event"
    },
    {
      "anonymous": false,
      "inputs": [
        {
          "indexed": false,
          "internalType": "uint256",
          "name": "sourceChainId",
          "type": "uint256"
        },
        {
          "indexed": false,
          "internalType": "uint256",
          "name": "fillChainId",
          "type": "uint256"
        },
        {
          "indexed": false,
          "internalType": "bytes32",
          "name": "requestId",
          "type": "bytes32"
        },
        {
          "indexed": false,
          "internalType": "address",
          "name": "filler",
          "type": "address"
        },
        {
          "indexed": false,
          "internalType": "bytes32",
          "name": "fillId",
          "type": "bytes32"
        }
      ],
      "name": "Resolution",
      "type": "event"
    },
    {
      "inputs": [
        {
          "internalType": "uint256",
          "name": "callerChainId",
          "type": "uint256"
        },
        {
          "internalType": "address",
          "name": "caller",
          "type": "address"
        },
        {
          "internalType": "address",
          "name": "messenger",
          "type": "address"
        }
      ],
      "name": "addCaller",
      "outputs": [],
      "stateMutability": "nonpayable",
      "type": "function"
    },
    {
      "inputs": [
        {
          "internalType": "address",
          "name": "caller",
          "type": "address"
        }
      ],
      "name": "addCaller",
      "outputs": [],
      "stateMutability": "nonpayable",
      "type": "function"
    },
    {
      "inputs": [
        {
          "internalType": "uint256",
          "name": "chainId",
          "type": "uint256"
        },
        {
          "internalType": "address",
          "name": "requestManager",
          "type": "address"
        },
        {
          "internalType": "address",
          "name": "messenger",
          "type": "address"
        }
      ],
      "name": "addRequestManager",
      "outputs": [],
      "stateMutability": "nonpayable",
      "type": "function"
    },
    {
      "inputs": [
        {
          "internalType": "uint256",
          "name": "",
          "type": "uint256"
        },
        {
          "internalType": "uint256",
          "name": "",
          "type": "uint256"
        }
      ],
      "name": "callers",
      "outputs": [
        {
          "internalType": "address",
          "name": "",
          "type": "address"
        }
      ],
      "stateMutability": "view",
      "type": "function"
    },
    {
      "inputs": [],
      "name": "owner",
      "outputs": [
        {
          "internalType": "address",
          "name": "",
          "type": "address"
        }
      ],
      "stateMutability": "view",
      "type": "function"
    },
    {
      "inputs": [],
      "name": "renounceOwnership",
      "outputs": [],
      "stateMutability": "nonpayable",
      "type": "function"
    },
    {
      "inputs": [
        {
          "internalType": "bytes32",
          "name": "requestId",
          "type": "bytes32"
        },
        {
          "internalType": "bytes32",
          "name": "fillId",
          "type": "bytes32"
        },
        {
          "internalType": "uint256",
          "name": "fillChainId",
          "type": "uint256"
        },
        {
          "internalType": "uint256",
          "name": "sourceChainId",
          "type": "uint256"
        },
        {
          "internalType": "address",
          "name": "filler",
          "type": "address"
        }
      ],
      "name": "resolve",
      "outputs": [],
      "stateMutability": "nonpayable",
      "type": "function"
    },
    {
      "inputs": [
        {
          "internalType": "uint256",
          "name": "",
          "type": "uint256"
        }
      ],
      "name": "sourceChainInfos",
      "outputs": [
        {
          "internalType": "address",
          "name": "requestManager",
          "type": "address"
        },
        {
          "internalType": "address",
          "name": "messenger",
          "type": "address"
        }
      ],
      "stateMutability": "view",
      "type": "function"
    },
    {
      "inputs": [
        {
          "internalType": "address",
          "name": "newOwner",
          "type": "address"
        }
      ],
      "name": "transferOwnership",
      "outputs": [],
      "stateMutability": "nonpayable",
      "type": "function"
    }
  ],
  "bytecode": "608060405234801561001057600080fd5b5061001a3361001f565b61006f565b600080546001600160a01b038381166001600160a01b0319831681178455604051919092169283917f8be0079c531659141344cd1fd0a4f28419497f9722a3daafe3b4186f6b6457e09190a35050565b610af98061007e6000396000f3fe608060405234801561001057600080fd5b50600436106100935760003560e01c80637203ae3b116100665780637203ae3b14610139578063747293fb1461014c5780638da5cb5b1461015f578063a56e3c3814610170578063f2fde38b1461018357600080fd5b80630e19a1c614610098578063308634a5146100c857806344596f9b1461011c578063715018a614610131575b600080fd5b6100ab6100a636600461093e565b610196565b6040516001600160a01b0390911681526020015b60405180910390f35b6100fc6100d6366004610960565b600260205260009081526040902080546001909101546001600160a01b03918216911682565b604080516001600160a01b039384168152929091166020830152016100bf565b61012f61012a366004610995565b6101c4565b005b61012f610224565b61012f610147366004610995565b610238565b61012f61015a3660046109d1565b610250565b6000546001600160a01b03166100ab565b61012f61017e3660046109f3565b610267565b61012f6101913660046109d1565b61069b565b600160205281600052604060002081600281106101b257600080fd5b01546001600160a01b03169150829050565b6101cc610711565b6040805180820182526001600160a01b03938416815291831660208084019182526000958652600290529320905181546001600160a01b03199081169184169190911782559251600190910180549093169116179055565b61022c610711565b610236600061076b565b565b610240610711565b61024b8383836107bb565b505050565b610258610711565b610264468260006107bb565b50565b60008381526001602052604090205483906001600160a01b03164682036102ea57336001600160a01b038216146102e55760405162461bcd60e51b815260206004820181905260248201527f5265737472696374656443616c6c733a2063616c6c20646973616c6c6f77656460448201526064015b60405180910390fd5b61041c565b600082815260016020819052604090912001546001600160a01b03168061035e5760405162461bcd60e51b815260206004820152602260248201527f5265737472696374656443616c6c733a206d657373656e676572206e6f742073604482015261195d60f21b60648201526084016102dc565b60405163845c544360e01b81526001600160a01b03838116600483015233602483015282169063845c544390604401602060405180830381865afa1580156103aa573d6000803e3d6000fd5b505050506040513d601f19601f820116820180604052508101906103ce9190610a3c565b61041a5760405162461bcd60e51b815260206004820181905260248201527f5265737472696374656443616c6c733a2063616c6c20646973616c6c6f77656460448201526064016102dc565b505b600084815260026020908152604091829020825180840190935280546001600160a01b0390811680855260019092015416918301919091526104b65760405162461bcd60e51b815260206004820152602d60248201527f4e6f2072657175657374206d616e6167657220617661696c61626c6520666f7260448201526c1039b7bab931b29031b430b4b760991b60648201526084016102dc565b60208101516001600160a01b03166105205760405162461bcd60e51b815260206004820152602760248201527f4e6f206d657373656e67657220617661696c61626c6520666f7220736f757263604482015266329031b430b4b760c91b60648201526084016102dc565b60606001600160a01b03851661057b57604051602481018a90526044810189905246606482015260840160408051601f198184030181529190526020810180516001600160e01b03166303fc4c3760e01b17905290506105d1565b604051602481018a9052604481018990524660648201526001600160a01b038616608482015260a40160408051601f198184030181529190526020810180516001600160e01b0316632d9d377960e11b17905290505b6020820151825160405163bb5ddb0f60e01b81526001600160a01b0383169163bb5ddb0f9161060591908690600401610a5e565b600060405180830381600087803b15801561061f57600080fd5b505af1158015610633573d6000803e3d6000fd5b5050604080518a8152602081018c90529081018d90526001600160a01b0389166060820152608081018c90527f44702e0d5959cc77a7f68b33530b86546d1b157d0d74b27010d5f519adae07cb925060a001905060405180910390a150505050505050505050565b6106a3610711565b6001600160a01b0381166107085760405162461bcd60e51b815260206004820152602660248201527f4f776e61626c653a206e6577206f776e657220697320746865207a65726f206160448201526564647265737360d01b60648201526084016102dc565b6102648161076b565b6000546001600160a01b031633146102365760405162461bcd60e51b815260206004820181905260248201527f4f776e61626c653a2063616c6c6572206973206e6f7420746865206f776e657260448201526064016102dc565b600080546001600160a01b038381166001600160a01b0319831681178455604051919092169283917f8be0079c531659141344cd1fd0a4f28419497f9722a3daafe3b4186f6b6457e09190a35050565b6001600160a01b03821661081d5760405162461bcd60e51b815260206004820152602360248201527f5265737472696374656443616c6c733a2063616c6c65722063616e6e6f74206260448201526206520360ec1b60648201526084016102dc565b6000838152600160205260409020546001600160a01b0316156108915760405162461bcd60e51b815260206004820152602660248201527f5265737472696374656443616c6c733a2063616c6c657220616c72656164792060448201526565786973747360d01b60648201526084016102dc565b6040805180820182526001600160a01b038085168252831660208083019190915260008681526001909152919091206108cb9160026108d1565b50505050565b8260028101928215610919579160200282015b8281111561091957825182546001600160a01b0319166001600160a01b039091161782556020909201916001909101906108e4565b50610925929150610929565b5090565b5b80821115610925576000815560010161092a565b6000806040838503121561095157600080fd5b50508035926020909101359150565b60006020828403121561097257600080fd5b5035919050565b80356001600160a01b038116811461099057600080fd5b919050565b6000806000606084860312156109aa57600080fd5b833592506109ba60208501610979565b91506109c860408501610979565b90509250925092565b6000602082840312156109e357600080fd5b6109ec82610979565b9392505050565b600080600080600060a08688031215610a0b57600080fd5b85359450602086013593506040860135925060608601359150610a3060808701610979565b90509295509295909350565b600060208284031215610a4e57600080fd5b815180151581146109ec57600080fd5b60018060a01b038316815260006020604081840152835180604085015260005b81811015610a9a57858101830151858201606001528201610a7e565b81811115610aac576000606083870101525b50601f01601f19169290920160600194935050505056fea2646970667358221220e4bd8ed94173de87ead036d9108dbe7415b199865cdc6ce1bad41c38c7dcc72064736f6c634300080d0033",
  "bytecodeSha1": "e44586e25dbeae28cfdb950e9261f52e4842ffb1",
  "compiler": {
    "evm_version": "london",
    "optimizer": {
      "enabled": true,
      "runs": 200
    },
    "version": "0.8.13+commit.abaa5c0e"
  },
  "contractName": "Resolver",
  "language": "Solidity",
  "natspec": {
    "kind": "dev",
    "methods": {
      "addCaller(address)": {
        "notice": "Allow calls from an address on the same chain.",
        "params": {
          "caller": "The caller."
        }
      },
      "addCaller(uint256,address,address)": {
        "notice": "Allow calls from an address on another chain.",
        "params": {
          "caller": "The caller.",
          "callerChainId": "The caller's chain ID.",
          "messenger": "The messenger."
        }
      },
      "addRequestManager(uint256,address,address)": {
        "notice": "Add a request manager. In order to be able to send messages to the :sol:contract:`RequestManager`, the resolver contract needs to know the address of the request manager on the source chain, as well as the address of the messenger contract responsible for transferring messages to the L2 chain. .. note:: This function can only be called by the contract owner.",
        "params": {
          "chainId": "The source L2 chain ID.",
          "messenger": "The messenger contract responsible for chain ``chainId``.                  Must implement :sol:interface:`IMessenger`.",
          "requestManager": "The request manager."
        }
      },
      "callers(uint256,uint256)": {
        "notice": "Maps caller chain IDs to tuples [caller, messenger]. For same-chain calls, the messenger address is 0x0."
      },
      "owner()": {
        "details": "Returns the address of the current owner."
      },
      "renounceOwnership()": {
        "details": "Leaves the contract without owner. It will not be possible to call `onlyOwner` functions anymore. Can only be called by the current owner. NOTE: Renouncing ownership will leave the contract without an owner, thereby removing any functionality that is only available to the owner."
      },
      "resolve(bytes32,bytes32,uint256,uint256,address)": {
        "notice": "Resolve the specified request. This marks the request identified by ``requestId`` as filled by ``filler``. If the ``filler`` is zero, the fill will be marked invalid. Information about the fill will be sent to the source chain's :sol:contract:`RequestManager`, using the messenger responsible for the source chain. .. note::     This function is callable only by the native L1 messenger contract,     which simply delivers the message sent from the target chain by the     Beamer's L2 :sol:interface:`messenger <IMessenger>` contract.",
        "params": {
          "fillChainId": "The fill (target) chain ID.",
          "fillId": "The fill ID.",
          "filler": "The address that filled the request, or zero to invalidate the fill.",
          "requestId": "The request ID.",
          "sourceChainId": "The source chain ID."
        }
      },
      "sourceChainInfos(uint256)": {
        "notice": "Maps source chain IDs to source chain infos."
      },
      "transferOwnership(address)": {
        "details": "Transfers ownership of the contract to a new account (`newOwner`). Can only be called by the current owner."
      }
    },
    "notice": "The resolver. This contract resides on the L1 chain and is tasked with receiving the fill or non-fill proofs from the target L2 chain and forwarding them to the :sol:contract:`RequestManager` on the source L2 chain.",
    "version": 1
  },
  "opcodes": "PUSH1 0x80 PUSH1 0x40 MSTORE CALLVALUE DUP1 ISZERO PUSH2 0x10 JUMPI PUSH1 0x0 DUP1 REVERT JUMPDEST POP PUSH1 0x4 CALLDATASIZE LT PUSH2 0x93 JUMPI PUSH1 0x0 CALLDATALOAD PUSH1 0xE0 SHR DUP1 PUSH4 0x7203AE3B GT PUSH2 0x66 JUMPI DUP1 PUSH4 0x7203AE3B EQ PUSH2 0x139 JUMPI DUP1 PUSH4 0x747293FB EQ PUSH2 0x14C JUMPI DUP1 PUSH4 0x8DA5CB5B EQ PUSH2 0x15F JUMPI DUP1 PUSH4 0xA56E3C38 EQ PUSH2 0x170 JUMPI DUP1 PUSH4 0xF2FDE38B EQ PUSH2 0x183 JUMPI PUSH1 0x0 DUP1 REVERT JUMPDEST DUP1 PUSH4 0xE19A1C6 EQ PUSH2 0x98 JUMPI DUP1 PUSH4 0x308634A5 EQ PUSH2 0xC8 JUMPI DUP1 PUSH4 0x44596F9B EQ PUSH2 0x11C JUMPI DUP1 PUSH4 0x715018A6 EQ PUSH2 0x131 JUMPI JUMPDEST PUSH1 0x0 DUP1 REVERT JUMPDEST PUSH2 0xAB PUSH2 0xA6 CALLDATASIZE PUSH1 0x4 PUSH2 0x93E JUMP JUMPDEST PUSH2 0x196 JUMP JUMPDEST PUSH1 0x40 MLOAD PUSH1 0x1 PUSH1 0x1 PUSH1 0xA0 SHL SUB SWAP1 SWAP2 AND DUP2 MSTORE PUSH1 0x20 ADD JUMPDEST PUSH1 0x40 MLOAD DUP1 SWAP2 SUB SWAP1 RETURN JUMPDEST PUSH2 0xFC PUSH2 0xD6 CALLDATASIZE PUSH1 0x4 PUSH2 0x960 JUMP JUMPDEST PUSH1 0x2 PUSH1 0x20 MSTORE PUSH1 0x0 SWAP1 DUP2 MSTORE PUSH1 0x40 SWAP1 KECCAK256 DUP1 SLOAD PUSH1 0x1 SWAP1 SWAP2 ADD SLOAD PUSH1 0x1 PUSH1 0x1 PUSH1 0xA0 SHL SUB SWAP2 DUP3 AND SWAP2 AND DUP3 JUMP JUMPDEST PUSH1 0x40 DUP1 MLOAD PUSH1 0x1 PUSH1 0x1 PUSH1 0xA0 SHL SUB SWAP4 DUP5 AND DUP2 MSTORE SWAP3 SWAP1 SWAP2 AND PUSH1 0x20 DUP4 ADD MSTORE ADD PUSH2 0xBF JUMP JUMPDEST PUSH2 0x12F PUSH2 0x12A CALLDATASIZE PUSH1 0x4 PUSH2 0x995 JUMP JUMPDEST PUSH2 0x1C4 JUMP JUMPDEST STOP JUMPDEST PUSH2 0x12F PUSH2 0x224 JUMP JUMPDEST PUSH2 0x12F PUSH2 0x147 CALLDATASIZE PUSH1 0x4 PUSH2 0x995 JUMP JUMPDEST PUSH2 0x238 JUMP JUMPDEST PUSH2 0x12F PUSH2 0x15A CALLDATASIZE PUSH1 0x4 PUSH2 0x9D1 JUMP JUMPDEST PUSH2 0x250 JUMP JUMPDEST PUSH1 0x0 SLOAD PUSH1 0x1 PUSH1 0x1 PUSH1 0xA0 SHL SUB AND PUSH2 0xAB JUMP JUMPDEST PUSH2 0x12F PUSH2 0x17E CALLDATASIZE PUSH1 0x4 PUSH2 0x9F3 JUMP JUMPDEST PUSH2 0x267 JUMP JUMPDEST PUSH2 0x12F PUSH2 0x191 CALLDATASIZE PUSH1 0x4 PUSH2 0x9D1 JUMP JUMPDEST PUSH2 0x69B JUMP JUMPDEST PUSH1 0x1 PUSH1 0x20 MSTORE DUP2 PUSH1 0x0 MSTORE PUSH1 0x40 PUSH1 0x0 KECCAK256 DUP2 PUSH1 0x2 DUP2 LT PUSH2 0x1B2 JUMPI PUSH1 0x0 DUP1 REVERT JUMPDEST ADD SLOAD PUSH1 0x1 PUSH1 0x1 PUSH1 0xA0 SHL SUB AND SWAP2 POP DUP3 SWAP1 POP JUMP JUMPDEST PUSH2 0x1CC PUSH2 0x711 JUMP JUMPDEST PUSH1 0x40 DUP1 MLOAD DUP1 DUP3 ADD DUP3 MSTORE PUSH1 0x1 PUSH1 0x1 PUSH1 0xA0 SHL SUB SWAP4 DUP5 AND DUP2 MSTORE SWAP2 DUP4 AND PUSH1 0x20 DUP1 DUP5 ADD SWAP2 DUP3 MSTORE PUSH1 0x0 SWAP6 DUP7 MSTORE PUSH1 0x2 SWAP1 MSTORE SWAP4 KECCAK256 SWAP1 MLOAD DUP2 SLOAD PUSH1 0x1 PUSH1 0x1 PUSH1 0xA0 SHL SUB NOT SWAP1 DUP2 AND SWAP2 DUP5 AND SWAP2 SWAP1 SWAP2 OR DUP3 SSTORE SWAP3 MLOAD PUSH1 0x1 SWAP1 SWAP2 ADD DUP1 SLOAD SWAP1 SWAP4 AND SWAP2 AND OR SWAP1 SSTORE JUMP JUMPDEST PUSH2 0x22C PUSH2 0x711 JUMP JUMPDEST PUSH2 0x236 PUSH1 0x0 PUSH2 0x76B JUMP JUMPDEST JUMP JUMPDEST PUSH2 0x240 PUSH2 0x711 JUMP JUMPDEST PUSH2 0x24B DUP4 DUP4 DUP4 PUSH2 0x7BB JUMP JUMPDEST POP POP POP JUMP JUMPDEST PUSH2 0x258 PUSH2 0x711 JUMP JUMPDEST PUSH2 0x264 CHAINID DUP3 PUSH1 0x0 PUSH2 0x7BB JUMP JUMPDEST POP JUMP JUMPDEST PUSH1 0x0 DUP4 DUP2 MSTORE PUSH1 0x1 PUSH1 0x20 MSTORE PUSH1 0x40 SWAP1 KECCAK256 SLOAD DUP4 SWAP1 PUSH1 0x1 PUSH1 0x1 PUSH1 0xA0 SHL SUB AND CHAINID DUP3 SUB PUSH2 0x2EA JUMPI CALLER PUSH1 0x1 PUSH1 0x1 PUSH1 0xA0 SHL SUB DUP3 AND EQ PUSH2 0x2E5 JUMPI PUSH1 0x40 MLOAD PUSH3 0x461BCD PUSH1 0xE5 SHL DUP2 MSTORE PUSH1 0x20 PUSH1 0x4 DUP3 ADD DUP2 SWAP1 MSTORE PUSH1 0x24 DUP3 ADD MSTORE PUSH32 0x5265737472696374656443616C6C733A2063616C6C20646973616C6C6F776564 PUSH1 0x44 DUP3 ADD MSTORE PUSH1 0x64 ADD JUMPDEST PUSH1 0x40 MLOAD DUP1 SWAP2 SUB SWAP1 REVERT JUMPDEST PUSH2 0x41C JUMP JUMPDEST PUSH1 0x0 DUP3 DUP2 MSTORE PUSH1 0x1 PUSH1 0x20 DUP2 SWAP1 MSTORE PUSH1 0x40 SWAP1 SWAP2 KECCAK256 ADD SLOAD PUSH1 0x1 PUSH1 0x1 PUSH1 0xA0 SHL SUB AND DUP1 PUSH2 0x35E JUMPI PUSH1 0x40 MLOAD PUSH3 0x461BCD PUSH1 0xE5 SHL DUP2 MSTORE PUSH1 0x20 PUSH1 0x4 DUP3 ADD MSTORE PUSH1 0x22 PUSH1 0x24 DUP3 ADD MSTORE PUSH32 0x5265737472696374656443616C6C733A206D657373656E676572206E6F742073 PUSH1 0x44 DUP3 ADD MSTORE PUSH2 0x195D PUSH1 0xF2 SHL PUSH1 0x64 DUP3 ADD MSTORE PUSH1 0x84 ADD PUSH2 0x2DC JUMP JUMPDEST PUSH1 0x40 MLOAD PUSH4 0x845C5443 PUSH1 0xE0 SHL DUP2 MSTORE PUSH1 0x1 PUSH1 0x1 PUSH1 0xA0 SHL SUB DUP4 DUP2 AND PUSH1 0x4 DUP4 ADD MSTORE CALLER PUSH1 0x24 DUP4 ADD MSTORE DUP3 AND SWAP1 PUSH4 0x845C5443 SWAP1 PUSH1 0x44 ADD PUSH1 0x20 PUSH1 0x40 MLOAD DUP1 DUP4 SUB DUP2 DUP7 GAS STATICCALL ISZERO DUP1 ISZERO PUSH2 0x3AA JUMPI RETURNDATASIZE PUSH1 0x0 DUP1 RETURNDATACOPY RETURNDATASIZE PUSH1 0x0 REVERT JUMPDEST POP POP POP POP PUSH1 0x40 MLOAD RETURNDATASIZE PUSH1 0x1F NOT PUSH1 0x1F DUP3 ADD AND DUP3 ADD DUP1 PUSH1 0x40 MSTORE POP DUP2 ADD SWAP1 PUSH2 0x3CE SWAP2 SWAP1 PUSH2 0xA3C JUMP JUMPDEST PUSH2 0x41A JUMPI PUSH1 0x40 MLOAD PUSH3 0x461BCD PUSH1 0xE5 SHL DUP2 MSTORE PUSH1 0x20 PUSH1 0x4 DUP3 ADD DUP2 SWAP1 MSTORE PUSH1 0x24 DUP3 ADD MSTORE PUSH32 0x5265737472696374656443616C6C733A2063616C6C20646973616C6C6F776564 PUSH1 0x44 DUP3 ADD MSTORE PUSH1 0x64 ADD PUSH2 0x2DC JUMP JUMPDEST POP JUMPDEST PUSH1 0x0 DUP5 DUP2 MSTORE PUSH1 0x2 PUSH1 0x20 SWAP1 DUP2 MSTORE PUSH1 0x40 SWAP2 DUP3 SWAP1 KECCAK256 DUP3 MLOAD DUP1 DUP5 ADD SWAP1 SWAP4 MSTORE DUP1 SLOAD PUSH1 0x1 PUSH1 0x1 PUSH1 0xA0 SHL SUB SWAP1 DUP2 AND DUP1 DUP6 MSTORE PUSH1 0x1 SWAP1 SWAP3 ADD SLOAD AND SWAP2 DUP4 ADD SWAP2 SWAP1 SWAP2 MSTORE PUSH2 0x4B6 JUMPI PUSH1 0x40 MLOAD PUSH3 0x461BCD PUSH1 0xE5 SHL DUP2 MSTORE PUSH1 0x20 PUSH1 0x4 DUP3 ADD MSTORE PUSH1 0x2D PUSH1 0x24 DUP3 ADD MSTORE PUSH32 0x4E6F2072657175657374206D616E6167657220617661696C61626C6520666F72 PUSH1 0x44 DUP3 ADD MSTORE PUSH13 0x1039B7BAB931B29031B430B4B7 PUSH1 0x99 SHL PUSH1 0x64 DUP3 ADD MSTORE PUSH1 0x84 ADD PUSH2 0x2DC JUMP JUMPDEST PUSH1 0x20 DUP2 ADD MLOAD PUSH1 0x1 PUSH1 0x1 PUSH1 0xA0 SHL SUB AND PUSH2 0x520 JUMPI PUSH1 0x40 MLOAD PUSH3 0x461BCD PUSH1 0xE5 SHL DUP2 MSTORE PUSH1 0x20 PUSH1 0x4 DUP3 ADD MSTORE PUSH1 0x27 PUSH1 0x24 DUP3 ADD MSTORE PUSH32 0x4E6F206D657373656E67657220617661696C61626C6520666F7220736F757263 PUSH1 0x44 DUP3 ADD MSTORE PUSH7 0x329031B430B4B7 PUSH1 0xC9 SHL PUSH1 0x64 DUP3 ADD MSTORE PUSH1 0x84 ADD PUSH2 0x2DC JUMP JUMPDEST PUSH1 0x60 PUSH1 0x1 PUSH1 0x1 PUSH1 0xA0 SHL SUB DUP6 AND PUSH2 0x57B JUMPI PUSH1 0x40 MLOAD PUSH1 0x24 DUP2 ADD DUP11 SWAP1 MSTORE PUSH1 0x44 DUP2 ADD DUP10 SWAP1 MSTORE CHAINID PUSH1 0x64 DUP3 ADD MSTORE PUSH1 0x84 ADD PUSH1 0x40 DUP1 MLOAD PUSH1 0x1F NOT DUP2 DUP5 SUB ADD DUP2 MSTORE SWAP2 SWAP1 MSTORE PUSH1 0x20 DUP2 ADD DUP1 MLOAD PUSH1 0x1 PUSH1 0x1 PUSH1 0xE0 SHL SUB AND PUSH4 0x3FC4C37 PUSH1 0xE0 SHL OR SWAP1 MSTORE SWAP1 POP PUSH2 0x5D1 JUMP JUMPDEST PUSH1 0x40 MLOAD PUSH1 0x24 DUP2 ADD DUP11 SWAP1 MSTORE PUSH1 0x44 DUP2 ADD DUP10 SWAP1 MSTORE CHAINID PUSH1 0x64 DUP3 ADD MSTORE PUSH1 0x1 PUSH1 0x1 PUSH1 0xA0 SHL SUB DUP7 AND PUSH1 0x84 DUP3 ADD MSTORE PUSH1 0xA4 ADD PUSH1 0x40 DUP1 MLOAD PUSH1 0x1F NOT DUP2 DUP5 SUB ADD DUP2 MSTORE SWAP2 SWAP1 MSTORE PUSH1 0x20 DUP2 ADD DUP1 MLOAD PUSH1 0x1 PUSH1 0x1 PUSH1 0xE0 SHL SUB AND PUSH4 0x2D9D3779 PUSH1 0xE1 SHL OR SWAP1 MSTORE SWAP1 POP JUMPDEST PUSH1 0x20 DUP3 ADD MLOAD DUP3 MLOAD PUSH1 0x40 MLOAD PUSH4 0xBB5DDB0F PUSH1 0xE0 SHL DUP2 MSTORE PUSH1 0x1 PUSH1 0x1 PUSH1 0xA0 SHL SUB DUP4 AND SWAP2 PUSH4 0xBB5DDB0F SWAP2 PUSH2 0x605 SWAP2 SWAP1 DUP7 SWAP1 PUSH1 0x4 ADD PUSH2 0xA5E JUMP JUMPDEST PUSH1 0x0 PUSH1 0x40 MLOAD DUP1 DUP4 SUB DUP2 PUSH1 0x0 DUP8 DUP1 EXTCODESIZE ISZERO DUP1 ISZERO PUSH2 0x61F JUMPI PUSH1 0x0 DUP1 REVERT JUMPDEST POP GAS CALL ISZERO DUP1 ISZERO PUSH2 0x633 JUMPI RETURNDATASIZE PUSH1 0x0 DUP1 RETURNDATACOPY RETURNDATASIZE PUSH1 0x0 REVERT JUMPDEST POP POP PUSH1 0x40 DUP1 MLOAD DUP11 DUP2 MSTORE PUSH1 0x20 DUP2 ADD DUP13 SWAP1 MSTORE SWAP1 DUP2 ADD DUP14 SWAP1 MSTORE PUSH1 0x1 PUSH1 0x1 PUSH1 0xA0 SHL SUB DUP10 AND PUSH1 0x60 DUP3 ADD MSTORE PUSH1 0x80 DUP2 ADD DUP13 SWAP1 MSTORE PUSH32 0x44702E0D5959CC77A7F68B33530B86546D1B157D0D74B27010D5F519ADAE07CB SWAP3 POP PUSH1 0xA0 ADD SWAP1 POP PUSH1 0x40 MLOAD DUP1 SWAP2 SUB SWAP1 LOG1 POP POP POP POP POP POP POP POP POP POP JUMP JUMPDEST PUSH2 0x6A3 PUSH2 0x711 JUMP JUMPDEST PUSH1 0x1 PUSH1 0x1 PUSH1 0xA0 SHL SUB DUP2 AND PUSH2 0x708 JUMPI PUSH1 0x40 MLOAD PUSH3 0x461BCD PUSH1 0xE5 SHL DUP2 MSTORE PUSH1 0x20 PUSH1 0x4 DUP3 ADD MSTORE PUSH1 0x26 PUSH1 0x24 DUP3 ADD MSTORE PUSH32 0x4F776E61626C653A206E6577206F776E657220697320746865207A65726F2061 PUSH1 0x44 DUP3 ADD MSTORE PUSH6 0x646472657373 PUSH1 0xD0 SHL PUSH1 0x64 DUP3 ADD MSTORE PUSH1 0x84 ADD PUSH2 0x2DC JUMP JUMPDEST PUSH2 0x264 DUP2 PUSH2 0x76B JUMP JUMPDEST PUSH1 0x0 SLOAD PUSH1 0x1 PUSH1 0x1 PUSH1 0xA0 SHL SUB AND CALLER EQ PUSH2 0x236 JUMPI PUSH1 0x40 MLOAD PUSH3 0x461BCD PUSH1 0xE5 SHL DUP2 MSTORE PUSH1 0x20 PUSH1 0x4 DUP3 ADD DUP2 SWAP1 MSTORE PUSH1 0x24 DUP3 ADD MSTORE PUSH32 0x4F776E61626C653A2063616C6C6572206973206E6F7420746865206F776E6572 PUSH1 0x44 DUP3 ADD MSTORE PUSH1 0x64 ADD PUSH2 0x2DC JUMP JUMPDEST PUSH1 0x0 DUP1 SLOAD PUSH1 0x1 PUSH1 0x1 PUSH1 0xA0 SHL SUB DUP4 DUP2 AND PUSH1 0x1 PUSH1 0x1 PUSH1 0xA0 SHL SUB NOT DUP4 AND DUP2 OR DUP5 SSTORE PUSH1 0x40 MLOAD SWAP2 SWAP1 SWAP3 AND SWAP3 DUP4 SWAP2 PUSH32 0x8BE0079C531659141344CD1FD0A4F28419497F9722A3DAAFE3B4186F6B6457E0 SWAP2 SWAP1 LOG3 POP POP JUMP JUMPDEST PUSH1 0x1 PUSH1 0x1 PUSH1 0xA0 SHL SUB DUP3 AND PUSH2 0x81D JUMPI PUSH1 0x40 MLOAD PUSH3 0x461BCD PUSH1 0xE5 SHL DUP2 MSTORE PUSH1 0x20 PUSH1 0x4 DUP3 ADD MSTORE PUSH1 0x23 PUSH1 0x24 DUP3 ADD MSTORE PUSH32 0x5265737472696374656443616C6C733A2063616C6C65722063616E6E6F742062 PUSH1 0x44 DUP3 ADD MSTORE PUSH3 0x65203 PUSH1 0xEC SHL PUSH1 0x64 DUP3 ADD MSTORE PUSH1 0x84 ADD PUSH2 0x2DC JUMP JUMPDEST PUSH1 0x0 DUP4 DUP2 MSTORE PUSH1 0x1 PUSH1 0x20 MSTORE PUSH1 0x40 SWAP1 KECCAK256 SLOAD PUSH1 0x1 PUSH1 0x1 PUSH1 0xA0 SHL SUB AND ISZERO PUSH2 0x891 JUMPI PUSH1 0x40 MLOAD PUSH3 0x461BCD PUSH1 0xE5 SHL DUP2 MSTORE PUSH1 0x20 PUSH1 0x4 DUP3 ADD MSTORE PUSH1 0x26 PUSH1 0x24 DUP3 ADD MSTORE PUSH32 0x5265737472696374656443616C6C733A2063616C6C657220616C726561647920 PUSH1 0x44 DUP3 ADD MSTORE PUSH6 0x657869737473 PUSH1 0xD0 SHL PUSH1 0x64 DUP3 ADD MSTORE PUSH1 0x84 ADD PUSH2 0x2DC JUMP JUMPDEST PUSH1 0x40 DUP1 MLOAD DUP1 DUP3 ADD DUP3 MSTORE PUSH1 0x1 PUSH1 0x1 PUSH1 0xA0 SHL SUB DUP1 DUP6 AND DUP3 MSTORE DUP4 AND PUSH1 0x20 DUP1 DUP4 ADD SWAP2 SWAP1 SWAP2 MSTORE PUSH1 0x0 DUP7 DUP2 MSTORE PUSH1 0x1 SWAP1 SWAP2 MSTORE SWAP2 SWAP1 SWAP2 KECCAK256 PUSH2 0x8CB SWAP2 PUSH1 0x2 PUSH2 0x8D1 JUMP JUMPDEST POP POP POP POP JUMP JUMPDEST DUP3 PUSH1 0x2 DUP2 ADD SWAP3 DUP3 ISZERO PUSH2 0x919 JUMPI SWAP2 PUSH1 0x20 MUL DUP3 ADD JUMPDEST DUP3 DUP2 GT ISZERO PUSH2 0x919 JUMPI DUP3 MLOAD DUP3 SLOAD PUSH1 0x1 PUSH1 0x1 PUSH1 0xA0 SHL SUB NOT AND PUSH1 0x1 PUSH1 0x1 PUSH1 0xA0 SHL SUB SWAP1 SWAP2 AND OR DUP3 SSTORE PUSH1 0x20 SWAP1 SWAP3 ADD SWAP2 PUSH1 0x1 SWAP1 SWAP2 ADD SWAP1 PUSH2 0x8E4 JUMP JUMPDEST POP PUSH2 0x925 SWAP3 SWAP2 POP PUSH2 0x929 JUMP JUMPDEST POP SWAP1 JUMP JUMPDEST JUMPDEST DUP1 DUP3 GT ISZERO PUSH2 0x925 JUMPI PUSH1 0x0 DUP2 SSTORE PUSH1 0x1 ADD PUSH2 0x92A JUMP JUMPDEST PUSH1 0x0 DUP1 PUSH1 0x40 DUP4 DUP6 SUB SLT ISZERO PUSH2 0x951 JUMPI PUSH1 0x0 DUP1 REVERT JUMPDEST POP POP DUP1 CALLDATALOAD SWAP3 PUSH1 0x20 SWAP1 SWAP2 ADD CALLDATALOAD SWAP2 POP JUMP JUMPDEST PUSH1 0x0 PUSH1 0x20 DUP3 DUP5 SUB SLT ISZERO PUSH2 0x972 JUMPI PUSH1 0x0 DUP1 REVERT JUMPDEST POP CALLDATALOAD SWAP2 SWAP1 POP JUMP JUMPDEST DUP1 CALLDATALOAD PUSH1 0x1 PUSH1 0x1 PUSH1 0xA0 SHL SUB DUP2 AND DUP2 EQ PUSH2 0x990 JUMPI PUSH1 0x0 DUP1 REVERT JUMPDEST SWAP2 SWAP1 POP JUMP JUMPDEST PUSH1 0x0 DUP1 PUSH1 0x0 PUSH1 0x60 DUP5 DUP7 SUB SLT ISZERO PUSH2 0x9AA JUMPI PUSH1 0x0 DUP1 REVERT JUMPDEST DUP4 CALLDATALOAD SWAP3 POP PUSH2 0x9BA PUSH1 0x20 DUP6 ADD PUSH2 0x979 JUMP JUMPDEST SWAP2 POP PUSH2 0x9C8 PUSH1 0x40 DUP6 ADD PUSH2 0x979 JUMP JUMPDEST SWAP1 POP SWAP3 POP SWAP3 POP SWAP3 JUMP JUMPDEST PUSH1 0x0 PUSH1 0x20 DUP3 DUP5 SUB SLT ISZERO PUSH2 0x9E3 JUMPI PUSH1 0x0 DUP1 REVERT JUMPDEST PUSH2 0x9EC DUP3 PUSH2 0x979 JUMP JUMPDEST SWAP4 SWAP3 POP POP POP JUMP JUMPDEST PUSH1 0x0 DUP1 PUSH1 0x0 DUP1 PUSH1 0x0 PUSH1 0xA0 DUP7 DUP9 SUB SLT ISZERO PUSH2 0xA0B JUMPI PUSH1 0x0 DUP1 REVERT JUMPDEST DUP6 CALLDATALOAD SWAP5 POP PUSH1 0x20 DUP7 ADD CALLDATALOAD SWAP4 POP PUSH1 0x40 DUP7 ADD CALLDATALOAD SWAP3 POP PUSH1 0x60 DUP7 ADD CALLDATALOAD SWAP2 POP PUSH2 0xA30 PUSH1 0x80 DUP8 ADD PUSH2 0x979 JUMP JUMPDEST SWAP1 POP SWAP3 SWAP6 POP SWAP3 SWAP6 SWAP1 SWAP4 POP JUMP JUMPDEST PUSH1 0x0 PUSH1 0x20 DUP3 DUP5 SUB SLT ISZERO PUSH2 0xA4E JUMPI PUSH1 0x0 DUP1 REVERT JUMPDEST DUP2 MLOAD DUP1 ISZERO ISZERO DUP2 EQ PUSH2 0x9EC JUMPI PUSH1 0x0 DUP1 REVERT JUMPDEST PUSH1 0x1 DUP1 PUSH1 0xA0 SHL SUB DUP4 AND DUP2 MSTORE PUSH1 0x0 PUSH1 0x20 PUSH1 0x40 DUP2 DUP5 ADD MSTORE DUP4 MLOAD DUP1 PUSH1 0x40 DUP6 ADD MSTORE PUSH1 0x0 JUMPDEST DUP2 DUP2 LT ISZERO PUSH2 0xA9A JUMPI DUP6 DUP2 ADD DUP4 ADD MLOAD DUP6 DUP3 ADD PUSH1 0x60 ADD MSTORE DUP3 ADD PUSH2 0xA7E JUMP JUMPDEST DUP2 DUP2 GT ISZERO PUSH2 0xAAC JUMPI PUSH1 0x0 PUSH1 0x60 DUP4 DUP8 ADD ADD MSTORE JUMPDEST POP PUSH1 0x1F ADD PUSH1 0x1F NOT AND SWAP3 SWAP1 SWAP3 ADD PUSH1 0x60 ADD SWAP5 SWAP4 POP POP POP POP JUMP INVALID LOG2 PUSH5 0x6970667358 0x22 SLT KECCAK256 0xE4 0xBD DUP15 0xD9 COINBASE PUSH20 0xDE87EAD036D9108DBE7415B199865CDC6CE1BAD4 SHR CODESIZE 0xC7 0xDC 0xC7 KECCAK256 PUSH5 0x736F6C6343 STOP ADDMOD 0xD STOP CALLER ",
  "sha1": "1cf13becf5728a9c6ed6ca67e4b20d8163b916e2",
  "source": "// SPDX-License-Identifier: MIT\npragma solidity ^0.8.12;\n\nimport \"OpenZeppelin/openzeppelin-contracts@4.8.0/contracts/access/Ownable.sol\";\nimport \"../interfaces/IMessenger.sol\";\nimport \"./RequestManager.sol\";\nimport \"./RestrictedCalls.sol\";\n\n/// The resolver.\n///\n/// This contract resides on the L1 chain and is tasked with receiving the\n/// fill or non-fill proofs from the target L2 chain and forwarding them to\n/// the :sol:contract:`RequestManager` on the source L2 chain.\ncontract Resolver is Ownable, RestrictedCalls {\n    struct SourceChainInfo {\n        address requestManager;\n        address messenger;\n    }\n\n    /// Emitted when a fill or a non-fill proof is received and sent to the request manager.\n    ///\n    /// .. note:: In case of a non-fill proof, the ``filler`` will be zero.\n    event Resolution(\n        uint256 sourceChainId,\n        uint256 fillChainId,\n        bytes32 requestId,\n        address filler,\n        bytes32 fillId\n    );\n\n    /// Maps source chain IDs to source chain infos.\n    mapping(uint256 => SourceChainInfo) public sourceChainInfos;\n\n    /// Resolve the specified request.\n    ///\n    /// This marks the request identified by ``requestId`` as filled by ``filler``.\n    /// If the ``filler`` is zero, the fill will be marked invalid.\n    ///\n    /// Information about the fill will be sent to the source chain's :sol:contract:`RequestManager`,\n    /// using the messenger responsible for the source chain.\n    ///\n    /// .. note::\n    ///\n    ///     This function is callable only by the native L1 messenger contract,\n    ///     which simply delivers the message sent from the target chain by the\n    ///     Beamer's L2 :sol:interface:`messenger <IMessenger>` contract.\n    ///\n    /// @param requestId The request ID.\n    /// @param fillId The fill ID.\n    /// @param fillChainId The fill (target) chain ID.\n    /// @param sourceChainId The source chain ID.\n    /// @param filler The address that filled the request, or zero to invalidate the fill.\n    function resolve(\n        bytes32 requestId,\n        bytes32 fillId,\n        uint256 fillChainId,\n        uint256 sourceChainId,\n        address filler\n    ) external restricted(fillChainId) {\n        SourceChainInfo memory info = sourceChainInfos[sourceChainId];\n        require(\n            info.requestManager != address(0),\n            \"No request manager available for source chain\"\n        );\n        require(\n            info.messenger != address(0),\n            \"No messenger available for source chain\"\n        );\n\n        bytes memory message;\n\n        if (filler == address(0)) {\n            message = abi.encodeCall(\n                RequestManager.invalidateFill,\n                (requestId, fillId, block.chainid)\n            );\n        } else {\n            message = abi.encodeCall(\n                RequestManager.resolveRequest,\n                (requestId, fillId, block.chainid, filler)\n            );\n        }\n\n        IMessenger messenger = IMessenger(info.messenger);\n        messenger.sendMessage(info.requestManager, message);\n\n        emit Resolution(sourceChainId, fillChainId, requestId, filler, fillId);\n    }\n\n    /// Add a request manager.\n    ///\n    /// In order to be able to send messages to the :sol:contract:`RequestManager`,\n    /// the resolver contract needs to know the address of the request manager on the source\n    /// chain, as well as the address of the messenger contract responsible for\n    /// transferring messages to the L2 chain.\n    ///\n    /// .. note:: This function can only be called by the contract owner.\n    ///\n    /// @param chainId The source L2 chain ID.\n    /// @param requestManager The request manager.\n    /// @param messenger The messenger contract responsible for chain ``chainId``.\n    ///                  Must implement :sol:interface:`IMessenger`.\n    function addRequestManager(\n        uint256 chainId,\n        address requestManager,\n        address messenger\n    ) external onlyOwner {\n        sourceChainInfos[chainId] = SourceChainInfo(requestManager, messenger);\n    }\n}\n",
  "sourcePath": "contracts/contracts/Resolver.sol",
  "type": "contract"
}