{
  "abi": [
    {
      "anonymous": false,
      "inputs": [
        {
          "indexed": true,
          "internalType": "address",
          "name": "previousOwner",
          "type": "address"
        },
        {
          "indexed": true,
          "internalType": "address",
          "name": "newOwner",
          "type": "address"
        }
      ],
      "name": "OwnershipTransferred",
      "type": "event"
    },
    {
      "inputs": [
        {
          "internalType": "uint256",
          "name": "callerChainId",
          "type": "uint256"
        },
        {
          "internalType": "address",
          "name": "caller",
          "type": "address"
        },
        {
          "internalType": "address",
          "name": "messenger",
          "type": "address"
        }
      ],
      "name": "addCaller",
      "outputs": [],
      "stateMutability": "nonpayable",
      "type": "function"
    },
    {
      "inputs": [
        {
          "internalType": "address",
          "name": "caller",
          "type": "address"
        }
      ],
      "name": "addCaller",
      "outputs": [],
      "stateMutability": "nonpayable",
      "type": "function"
    },
    {
      "inputs": [
        {
          "internalType": "address",
          "name": "caller",
          "type": "address"
        },
        {
          "internalType": "address",
          "name": "courier",
          "type": "address"
        }
      ],
      "name": "callAllowed",
      "outputs": [
        {
          "internalType": "bool",
          "name": "",
          "type": "bool"
        }
      ],
      "stateMutability": "view",
      "type": "function"
    },
    {
      "inputs": [
        {
          "internalType": "uint256",
          "name": "",
          "type": "uint256"
        },
        {
          "internalType": "uint256",
          "name": "",
          "type": "uint256"
        }
      ],
      "name": "callers",
      "outputs": [
        {
          "internalType": "address",
          "name": "",
          "type": "address"
        }
      ],
      "stateMutability": "view",
      "type": "function"
    },
    {
      "inputs": [],
      "name": "owner",
      "outputs": [
        {
          "internalType": "address",
          "name": "",
          "type": "address"
        }
      ],
      "stateMutability": "view",
      "type": "function"
    },
    {
      "inputs": [],
      "name": "renounceOwnership",
      "outputs": [],
      "stateMutability": "nonpayable",
      "type": "function"
    },
    {
      "inputs": [
        {
          "internalType": "address",
          "name": "target",
          "type": "address"
        },
        {
          "internalType": "bytes",
          "name": "message",
          "type": "bytes"
        }
      ],
      "name": "sendMessage",
      "outputs": [],
      "stateMutability": "nonpayable",
      "type": "function"
    },
    {
      "inputs": [
        {
          "internalType": "address",
          "name": "newOwner",
          "type": "address"
        }
      ],
      "name": "transferOwnership",
      "outputs": [],
      "stateMutability": "nonpayable",
      "type": "function"
    }
  ],
  "bytecode": "608060405234801561001057600080fd5b5061001a3361001f565b61006f565b600080546001600160a01b038381166001600160a01b0319831681178455604051919092169283917f8be0079c531659141344cd1fd0a4f28419497f9722a3daafe3b4186f6b6457e09190a35050565b6107d78061007e6000396000f3fe608060405234801561001057600080fd5b50600436106100885760003560e01c8063845c54431161005b578063845c5443146100ed5780638da5cb5b14610110578063bb5ddb0f14610121578063f2fde38b1461013457600080fd5b80630e19a1c61461008d578063715018a6146100bd5780637203ae3b146100c7578063747293fb146100da575b600080fd5b6100a061009b3660046105d0565b610147565b6040516001600160a01b0390911681526020015b60405180910390f35b6100c5610175565b005b6100c56100d5366004610607565b610189565b6100c56100e8366004610649565b6101a1565b6101006100fb36600461066d565b6101b8565b60405190151581526020016100b4565b6000546001600160a01b03166100a0565b6100c561012f3660046106a6565b61024a565b6100c5610142366004610649565b61032d565b6001602052816000526040600020816002811061016357600080fd5b01546001600160a01b03169150829050565b61017d6103a3565b61018760006103fd565b565b6101916103a3565b61019c83838361044d565b505050565b6101a96103a3565b6101b54682600061044d565b50565b6040516326ddea8360e11b81526001600160a01b0383166004820152600060248201819052906064908190634dbbd50690604401602060405180830381865afa158015610209573d6000803e3d6000fd5b505050506040513d601f19601f8201168201806040525081019061022d919061072b565b6001600160a01b0316836001600160a01b03161491505092915050565b466000818152600160205260409020546001600160a01b03163381146102b75760405162461bcd60e51b815260206004820181905260248201527f5265737472696374656443616c6c733a2063616c6c20646973616c6c6f77656460448201526064015b60405180910390fd5b6040516349460b4d60e11b8152606490819063928c169a906102e190899089908990600401610748565b6020604051808303816000875af1158015610300573d6000803e3d6000fd5b505050506040513d601f19601f820116820180604052508101906103249190610788565b50505050505050565b6103356103a3565b6001600160a01b03811661039a5760405162461bcd60e51b815260206004820152602660248201527f4f776e61626c653a206e6577206f776e657220697320746865207a65726f206160448201526564647265737360d01b60648201526084016102ae565b6101b5816103fd565b6000546001600160a01b031633146101875760405162461bcd60e51b815260206004820181905260248201527f4f776e61626c653a2063616c6c6572206973206e6f7420746865206f776e657260448201526064016102ae565b600080546001600160a01b038381166001600160a01b0319831681178455604051919092169283917f8be0079c531659141344cd1fd0a4f28419497f9722a3daafe3b4186f6b6457e09190a35050565b6001600160a01b0382166104af5760405162461bcd60e51b815260206004820152602360248201527f5265737472696374656443616c6c733a2063616c6c65722063616e6e6f74206260448201526206520360ec1b60648201526084016102ae565b6000838152600160205260409020546001600160a01b0316156105235760405162461bcd60e51b815260206004820152602660248201527f5265737472696374656443616c6c733a2063616c6c657220616c72656164792060448201526565786973747360d01b60648201526084016102ae565b6040805180820182526001600160a01b0380851682528316602080830191909152600086815260019091529190912061055d916002610563565b50505050565b82600281019282156105ab579160200282015b828111156105ab57825182546001600160a01b0319166001600160a01b03909116178255602090920191600190910190610576565b506105b79291506105bb565b5090565b5b808211156105b757600081556001016105bc565b600080604083850312156105e357600080fd5b50508035926020909101359150565b6001600160a01b03811681146101b557600080fd5b60008060006060848603121561061c57600080fd5b83359250602084013561062e816105f2565b9150604084013561063e816105f2565b809150509250925092565b60006020828403121561065b57600080fd5b8135610666816105f2565b9392505050565b6000806040838503121561068057600080fd5b823561068b816105f2565b9150602083013561069b816105f2565b809150509250929050565b6000806000604084860312156106bb57600080fd5b83356106c6816105f2565b9250602084013567ffffffffffffffff808211156106e357600080fd5b818601915086601f8301126106f757600080fd5b81358181111561070657600080fd5b87602082850101111561071857600080fd5b6020830194508093505050509250925092565b60006020828403121561073d57600080fd5b8151610666816105f2565b6001600160a01b03841681526040602082018190528101829052818360608301376000818301606090810191909152601f909201601f1916010192915050565b60006020828403121561079a57600080fd5b505191905056fea264697066735822122097e9923b8c094787ae842e98cc65718ecca0b39591984508aeb3b027357375c364736f6c634300080d0033",
  "bytecodeSha1": "e17a15290c25096ecf40d5dbb7981f2db67889f2",
  "compiler": {
    "evm_version": "london",
    "optimizer": {
      "enabled": true,
      "runs": 200
    },
    "version": "0.8.13+commit.abaa5c0e"
  },
  "contractName": "ArbitrumL2Messenger",
  "language": "Solidity",
  "natspec": {
    "kind": "dev",
    "methods": {
      "addCaller(address)": {
        "notice": "Allow calls from an address on the same chain.",
        "params": {
          "caller": "The caller."
        }
      },
      "addCaller(uint256,address,address)": {
        "notice": "Allow calls from an address on another chain.",
        "params": {
          "caller": "The caller.",
          "callerChainId": "The caller's chain ID.",
          "messenger": "The messenger."
        }
      },
      "callAllowed(address,address)": {
        "notice": "Return whether the call is allowed or not.",
        "params": {
          "caller": "The caller.",
          "courier": "The contract that is trying to deliver the message."
        }
      },
      "callers(uint256,uint256)": {
        "notice": "Maps caller chain IDs to tuples [caller, messenger]. For same-chain calls, the messenger address is 0x0."
      },
      "owner()": {
        "details": "Returns the address of the current owner."
      },
      "renounceOwnership()": {
        "details": "Leaves the contract without owner. It will not be possible to call `onlyOwner` functions anymore. Can only be called by the current owner. NOTE: Renouncing ownership will leave the contract without an owner, thereby removing any functionality that is only available to the owner."
      },
      "sendMessage(address,bytes)": {
        "notice": "Send a message across the L1 <-> L2 boundary.",
        "params": {
          "message": "The message.",
          "target": "The message recipient."
        }
      },
      "transferOwnership(address)": {
        "details": "Transfers ownership of the contract to a new account (`newOwner`). Can only be called by the current owner."
      }
    },
    "version": 1
  },
  "opcodes": "PUSH1 0x80 PUSH1 0x40 MSTORE CALLVALUE DUP1 ISZERO PUSH2 0x10 JUMPI PUSH1 0x0 DUP1 REVERT JUMPDEST POP PUSH1 0x4 CALLDATASIZE LT PUSH2 0x88 JUMPI PUSH1 0x0 CALLDATALOAD PUSH1 0xE0 SHR DUP1 PUSH4 0x845C5443 GT PUSH2 0x5B JUMPI DUP1 PUSH4 0x845C5443 EQ PUSH2 0xED JUMPI DUP1 PUSH4 0x8DA5CB5B EQ PUSH2 0x110 JUMPI DUP1 PUSH4 0xBB5DDB0F EQ PUSH2 0x121 JUMPI DUP1 PUSH4 0xF2FDE38B EQ PUSH2 0x134 JUMPI PUSH1 0x0 DUP1 REVERT JUMPDEST DUP1 PUSH4 0xE19A1C6 EQ PUSH2 0x8D JUMPI DUP1 PUSH4 0x715018A6 EQ PUSH2 0xBD JUMPI DUP1 PUSH4 0x7203AE3B EQ PUSH2 0xC7 JUMPI DUP1 PUSH4 0x747293FB EQ PUSH2 0xDA JUMPI JUMPDEST PUSH1 0x0 DUP1 REVERT JUMPDEST PUSH2 0xA0 PUSH2 0x9B CALLDATASIZE PUSH1 0x4 PUSH2 0x5D0 JUMP JUMPDEST PUSH2 0x147 JUMP JUMPDEST PUSH1 0x40 MLOAD PUSH1 0x1 PUSH1 0x1 PUSH1 0xA0 SHL SUB SWAP1 SWAP2 AND DUP2 MSTORE PUSH1 0x20 ADD JUMPDEST PUSH1 0x40 MLOAD DUP1 SWAP2 SUB SWAP1 RETURN JUMPDEST PUSH2 0xC5 PUSH2 0x175 JUMP JUMPDEST STOP JUMPDEST PUSH2 0xC5 PUSH2 0xD5 CALLDATASIZE PUSH1 0x4 PUSH2 0x607 JUMP JUMPDEST PUSH2 0x189 JUMP JUMPDEST PUSH2 0xC5 PUSH2 0xE8 CALLDATASIZE PUSH1 0x4 PUSH2 0x649 JUMP JUMPDEST PUSH2 0x1A1 JUMP JUMPDEST PUSH2 0x100 PUSH2 0xFB CALLDATASIZE PUSH1 0x4 PUSH2 0x66D JUMP JUMPDEST PUSH2 0x1B8 JUMP JUMPDEST PUSH1 0x40 MLOAD SWAP1 ISZERO ISZERO DUP2 MSTORE PUSH1 0x20 ADD PUSH2 0xB4 JUMP JUMPDEST PUSH1 0x0 SLOAD PUSH1 0x1 PUSH1 0x1 PUSH1 0xA0 SHL SUB AND PUSH2 0xA0 JUMP JUMPDEST PUSH2 0xC5 PUSH2 0x12F CALLDATASIZE PUSH1 0x4 PUSH2 0x6A6 JUMP JUMPDEST PUSH2 0x24A JUMP JUMPDEST PUSH2 0xC5 PUSH2 0x142 CALLDATASIZE PUSH1 0x4 PUSH2 0x649 JUMP JUMPDEST PUSH2 0x32D JUMP JUMPDEST PUSH1 0x1 PUSH1 0x20 MSTORE DUP2 PUSH1 0x0 MSTORE PUSH1 0x40 PUSH1 0x0 KECCAK256 DUP2 PUSH1 0x2 DUP2 LT PUSH2 0x163 JUMPI PUSH1 0x0 DUP1 REVERT JUMPDEST ADD SLOAD PUSH1 0x1 PUSH1 0x1 PUSH1 0xA0 SHL SUB AND SWAP2 POP DUP3 SWAP1 POP JUMP JUMPDEST PUSH2 0x17D PUSH2 0x3A3 JUMP JUMPDEST PUSH2 0x187 PUSH1 0x0 PUSH2 0x3FD JUMP JUMPDEST JUMP JUMPDEST PUSH2 0x191 PUSH2 0x3A3 JUMP JUMPDEST PUSH2 0x19C DUP4 DUP4 DUP4 PUSH2 0x44D JUMP JUMPDEST POP POP POP JUMP JUMPDEST PUSH2 0x1A9 PUSH2 0x3A3 JUMP JUMPDEST PUSH2 0x1B5 CHAINID DUP3 PUSH1 0x0 PUSH2 0x44D JUMP JUMPDEST POP JUMP JUMPDEST PUSH1 0x40 MLOAD PUSH4 0x26DDEA83 PUSH1 0xE1 SHL DUP2 MSTORE PUSH1 0x1 PUSH1 0x1 PUSH1 0xA0 SHL SUB DUP4 AND PUSH1 0x4 DUP3 ADD MSTORE PUSH1 0x0 PUSH1 0x24 DUP3 ADD DUP2 SWAP1 MSTORE SWAP1 PUSH1 0x64 SWAP1 DUP2 SWAP1 PUSH4 0x4DBBD506 SWAP1 PUSH1 0x44 ADD PUSH1 0x20 PUSH1 0x40 MLOAD DUP1 DUP4 SUB DUP2 DUP7 GAS STATICCALL ISZERO DUP1 ISZERO PUSH2 0x209 JUMPI RETURNDATASIZE PUSH1 0x0 DUP1 RETURNDATACOPY RETURNDATASIZE PUSH1 0x0 REVERT JUMPDEST POP POP POP POP PUSH1 0x40 MLOAD RETURNDATASIZE PUSH1 0x1F NOT PUSH1 0x1F DUP3 ADD AND DUP3 ADD DUP1 PUSH1 0x40 MSTORE POP DUP2 ADD SWAP1 PUSH2 0x22D SWAP2 SWAP1 PUSH2 0x72B JUMP JUMPDEST PUSH1 0x1 PUSH1 0x1 PUSH1 0xA0 SHL SUB AND DUP4 PUSH1 0x1 PUSH1 0x1 PUSH1 0xA0 SHL SUB AND EQ SWAP2 POP POP SWAP3 SWAP2 POP POP JUMP JUMPDEST CHAINID PUSH1 0x0 DUP2 DUP2 MSTORE PUSH1 0x1 PUSH1 0x20 MSTORE PUSH1 0x40 SWAP1 KECCAK256 SLOAD PUSH1 0x1 PUSH1 0x1 PUSH1 0xA0 SHL SUB AND CALLER DUP2 EQ PUSH2 0x2B7 JUMPI PUSH1 0x40 MLOAD PUSH3 0x461BCD PUSH1 0xE5 SHL DUP2 MSTORE PUSH1 0x20 PUSH1 0x4 DUP3 ADD DUP2 SWAP1 MSTORE PUSH1 0x24 DUP3 ADD MSTORE PUSH32 0x5265737472696374656443616C6C733A2063616C6C20646973616C6C6F776564 PUSH1 0x44 DUP3 ADD MSTORE PUSH1 0x64 ADD JUMPDEST PUSH1 0x40 MLOAD DUP1 SWAP2 SUB SWAP1 REVERT JUMPDEST PUSH1 0x40 MLOAD PUSH4 0x49460B4D PUSH1 0xE1 SHL DUP2 MSTORE PUSH1 0x64 SWAP1 DUP2 SWAP1 PUSH4 0x928C169A SWAP1 PUSH2 0x2E1 SWAP1 DUP10 SWAP1 DUP10 SWAP1 DUP10 SWAP1 PUSH1 0x4 ADD PUSH2 0x748 JUMP JUMPDEST PUSH1 0x20 PUSH1 0x40 MLOAD DUP1 DUP4 SUB DUP2 PUSH1 0x0 DUP8 GAS CALL ISZERO DUP1 ISZERO PUSH2 0x300 JUMPI RETURNDATASIZE PUSH1 0x0 DUP1 RETURNDATACOPY RETURNDATASIZE PUSH1 0x0 REVERT JUMPDEST POP POP POP POP PUSH1 0x40 MLOAD RETURNDATASIZE PUSH1 0x1F NOT PUSH1 0x1F DUP3 ADD AND DUP3 ADD DUP1 PUSH1 0x40 MSTORE POP DUP2 ADD SWAP1 PUSH2 0x324 SWAP2 SWAP1 PUSH2 0x788 JUMP JUMPDEST POP POP POP POP POP POP POP JUMP JUMPDEST PUSH2 0x335 PUSH2 0x3A3 JUMP JUMPDEST PUSH1 0x1 PUSH1 0x1 PUSH1 0xA0 SHL SUB DUP2 AND PUSH2 0x39A JUMPI PUSH1 0x40 MLOAD PUSH3 0x461BCD PUSH1 0xE5 SHL DUP2 MSTORE PUSH1 0x20 PUSH1 0x4 DUP3 ADD MSTORE PUSH1 0x26 PUSH1 0x24 DUP3 ADD MSTORE PUSH32 0x4F776E61626C653A206E6577206F776E657220697320746865207A65726F2061 PUSH1 0x44 DUP3 ADD MSTORE PUSH6 0x646472657373 PUSH1 0xD0 SHL PUSH1 0x64 DUP3 ADD MSTORE PUSH1 0x84 ADD PUSH2 0x2AE JUMP JUMPDEST PUSH2 0x1B5 DUP2 PUSH2 0x3FD JUMP JUMPDEST PUSH1 0x0 SLOAD PUSH1 0x1 PUSH1 0x1 PUSH1 0xA0 SHL SUB AND CALLER EQ PUSH2 0x187 JUMPI PUSH1 0x40 MLOAD PUSH3 0x461BCD PUSH1 0xE5 SHL DUP2 MSTORE PUSH1 0x20 PUSH1 0x4 DUP3 ADD DUP2 SWAP1 MSTORE PUSH1 0x24 DUP3 ADD MSTORE PUSH32 0x4F776E61626C653A2063616C6C6572206973206E6F7420746865206F776E6572 PUSH1 0x44 DUP3 ADD MSTORE PUSH1 0x64 ADD PUSH2 0x2AE JUMP JUMPDEST PUSH1 0x0 DUP1 SLOAD PUSH1 0x1 PUSH1 0x1 PUSH1 0xA0 SHL SUB DUP4 DUP2 AND PUSH1 0x1 PUSH1 0x1 PUSH1 0xA0 SHL SUB NOT DUP4 AND DUP2 OR DUP5 SSTORE PUSH1 0x40 MLOAD SWAP2 SWAP1 SWAP3 AND SWAP3 DUP4 SWAP2 PUSH32 0x8BE0079C531659141344CD1FD0A4F28419497F9722A3DAAFE3B4186F6B6457E0 SWAP2 SWAP1 LOG3 POP POP JUMP JUMPDEST PUSH1 0x1 PUSH1 0x1 PUSH1 0xA0 SHL SUB DUP3 AND PUSH2 0x4AF JUMPI PUSH1 0x40 MLOAD PUSH3 0x461BCD PUSH1 0xE5 SHL DUP2 MSTORE PUSH1 0x20 PUSH1 0x4 DUP3 ADD MSTORE PUSH1 0x23 PUSH1 0x24 DUP3 ADD MSTORE PUSH32 0x5265737472696374656443616C6C733A2063616C6C65722063616E6E6F742062 PUSH1 0x44 DUP3 ADD MSTORE PUSH3 0x65203 PUSH1 0xEC SHL PUSH1 0x64 DUP3 ADD MSTORE PUSH1 0x84 ADD PUSH2 0x2AE JUMP JUMPDEST PUSH1 0x0 DUP4 DUP2 MSTORE PUSH1 0x1 PUSH1 0x20 MSTORE PUSH1 0x40 SWAP1 KECCAK256 SLOAD PUSH1 0x1 PUSH1 0x1 PUSH1 0xA0 SHL SUB AND ISZERO PUSH2 0x523 JUMPI PUSH1 0x40 MLOAD PUSH3 0x461BCD PUSH1 0xE5 SHL DUP2 MSTORE PUSH1 0x20 PUSH1 0x4 DUP3 ADD MSTORE PUSH1 0x26 PUSH1 0x24 DUP3 ADD MSTORE PUSH32 0x5265737472696374656443616C6C733A2063616C6C657220616C726561647920 PUSH1 0x44 DUP3 ADD MSTORE PUSH6 0x657869737473 PUSH1 0xD0 SHL PUSH1 0x64 DUP3 ADD MSTORE PUSH1 0x84 ADD PUSH2 0x2AE JUMP JUMPDEST PUSH1 0x40 DUP1 MLOAD DUP1 DUP3 ADD DUP3 MSTORE PUSH1 0x1 PUSH1 0x1 PUSH1 0xA0 SHL SUB DUP1 DUP6 AND DUP3 MSTORE DUP4 AND PUSH1 0x20 DUP1 DUP4 ADD SWAP2 SWAP1 SWAP2 MSTORE PUSH1 0x0 DUP7 DUP2 MSTORE PUSH1 0x1 SWAP1 SWAP2 MSTORE SWAP2 SWAP1 SWAP2 KECCAK256 PUSH2 0x55D SWAP2 PUSH1 0x2 PUSH2 0x563 JUMP JUMPDEST POP POP POP POP JUMP JUMPDEST DUP3 PUSH1 0x2 DUP2 ADD SWAP3 DUP3 ISZERO PUSH2 0x5AB JUMPI SWAP2 PUSH1 0x20 MUL DUP3 ADD JUMPDEST DUP3 DUP2 GT ISZERO PUSH2 0x5AB JUMPI DUP3 MLOAD DUP3 SLOAD PUSH1 0x1 PUSH1 0x1 PUSH1 0xA0 SHL SUB NOT AND PUSH1 0x1 PUSH1 0x1 PUSH1 0xA0 SHL SUB SWAP1 SWAP2 AND OR DUP3 SSTORE PUSH1 0x20 SWAP1 SWAP3 ADD SWAP2 PUSH1 0x1 SWAP1 SWAP2 ADD SWAP1 PUSH2 0x576 JUMP JUMPDEST POP PUSH2 0x5B7 SWAP3 SWAP2 POP PUSH2 0x5BB JUMP JUMPDEST POP SWAP1 JUMP JUMPDEST JUMPDEST DUP1 DUP3 GT ISZERO PUSH2 0x5B7 JUMPI PUSH1 0x0 DUP2 SSTORE PUSH1 0x1 ADD PUSH2 0x5BC JUMP JUMPDEST PUSH1 0x0 DUP1 PUSH1 0x40 DUP4 DUP6 SUB SLT ISZERO PUSH2 0x5E3 JUMPI PUSH1 0x0 DUP1 REVERT JUMPDEST POP POP DUP1 CALLDATALOAD SWAP3 PUSH1 0x20 SWAP1 SWAP2 ADD CALLDATALOAD SWAP2 POP JUMP JUMPDEST PUSH1 0x1 PUSH1 0x1 PUSH1 0xA0 SHL SUB DUP2 AND DUP2 EQ PUSH2 0x1B5 JUMPI PUSH1 0x0 DUP1 REVERT JUMPDEST PUSH1 0x0 DUP1 PUSH1 0x0 PUSH1 0x60 DUP5 DUP7 SUB SLT ISZERO PUSH2 0x61C JUMPI PUSH1 0x0 DUP1 REVERT JUMPDEST DUP4 CALLDATALOAD SWAP3 POP PUSH1 0x20 DUP5 ADD CALLDATALOAD PUSH2 0x62E DUP2 PUSH2 0x5F2 JUMP JUMPDEST SWAP2 POP PUSH1 0x40 DUP5 ADD CALLDATALOAD PUSH2 0x63E DUP2 PUSH2 0x5F2 JUMP JUMPDEST DUP1 SWAP2 POP POP SWAP3 POP SWAP3 POP SWAP3 JUMP JUMPDEST PUSH1 0x0 PUSH1 0x20 DUP3 DUP5 SUB SLT ISZERO PUSH2 0x65B JUMPI PUSH1 0x0 DUP1 REVERT JUMPDEST DUP2 CALLDATALOAD PUSH2 0x666 DUP2 PUSH2 0x5F2 JUMP JUMPDEST SWAP4 SWAP3 POP POP POP JUMP JUMPDEST PUSH1 0x0 DUP1 PUSH1 0x40 DUP4 DUP6 SUB SLT ISZERO PUSH2 0x680 JUMPI PUSH1 0x0 DUP1 REVERT JUMPDEST DUP3 CALLDATALOAD PUSH2 0x68B DUP2 PUSH2 0x5F2 JUMP JUMPDEST SWAP2 POP PUSH1 0x20 DUP4 ADD CALLDATALOAD PUSH2 0x69B DUP2 PUSH2 0x5F2 JUMP JUMPDEST DUP1 SWAP2 POP POP SWAP3 POP SWAP3 SWAP1 POP JUMP JUMPDEST PUSH1 0x0 DUP1 PUSH1 0x0 PUSH1 0x40 DUP5 DUP7 SUB SLT ISZERO PUSH2 0x6BB JUMPI PUSH1 0x0 DUP1 REVERT JUMPDEST DUP4 CALLDATALOAD PUSH2 0x6C6 DUP2 PUSH2 0x5F2 JUMP JUMPDEST SWAP3 POP PUSH1 0x20 DUP5 ADD CALLDATALOAD PUSH8 0xFFFFFFFFFFFFFFFF DUP1 DUP3 GT ISZERO PUSH2 0x6E3 JUMPI PUSH1 0x0 DUP1 REVERT JUMPDEST DUP2 DUP7 ADD SWAP2 POP DUP7 PUSH1 0x1F DUP4 ADD SLT PUSH2 0x6F7 JUMPI PUSH1 0x0 DUP1 REVERT JUMPDEST DUP2 CALLDATALOAD DUP2 DUP2 GT ISZERO PUSH2 0x706 JUMPI PUSH1 0x0 DUP1 REVERT JUMPDEST DUP8 PUSH1 0x20 DUP3 DUP6 ADD ADD GT ISZERO PUSH2 0x718 JUMPI PUSH1 0x0 DUP1 REVERT JUMPDEST PUSH1 0x20 DUP4 ADD SWAP5 POP DUP1 SWAP4 POP POP POP POP SWAP3 POP SWAP3 POP SWAP3 JUMP JUMPDEST PUSH1 0x0 PUSH1 0x20 DUP3 DUP5 SUB SLT ISZERO PUSH2 0x73D JUMPI PUSH1 0x0 DUP1 REVERT JUMPDEST DUP2 MLOAD PUSH2 0x666 DUP2 PUSH2 0x5F2 JUMP JUMPDEST PUSH1 0x1 PUSH1 0x1 PUSH1 0xA0 SHL SUB DUP5 AND DUP2 MSTORE PUSH1 0x40 PUSH1 0x20 DUP3 ADD DUP2 SWAP1 MSTORE DUP2 ADD DUP3 SWAP1 MSTORE DUP2 DUP4 PUSH1 0x60 DUP4 ADD CALLDATACOPY PUSH1 0x0 DUP2 DUP4 ADD PUSH1 0x60 SWAP1 DUP2 ADD SWAP2 SWAP1 SWAP2 MSTORE PUSH1 0x1F SWAP1 SWAP3 ADD PUSH1 0x1F NOT AND ADD ADD SWAP3 SWAP2 POP POP JUMP JUMPDEST PUSH1 0x0 PUSH1 0x20 DUP3 DUP5 SUB SLT ISZERO PUSH2 0x79A JUMPI PUSH1 0x0 DUP1 REVERT JUMPDEST POP MLOAD SWAP2 SWAP1 POP JUMP INVALID LOG2 PUSH5 0x6970667358 0x22 SLT KECCAK256 SWAP8 0xE9 SWAP3 EXTCODESIZE DUP13 MULMOD SELFBALANCE DUP8 0xAE DUP5 0x2E SWAP9 0xCC PUSH6 0x718ECCA0B395 SWAP2 SWAP9 GASLIMIT ADDMOD 0xAE 0xB3 0xB0 0x27 CALLDATALOAD PUSH20 0x75C364736F6C634300080D003300000000000000 ",
  "sha1": "cce0eef4ea8f89e642498b17d6d5753593adc31c",
  "source": "// SPDX-License-Identifier: MIT\npragma solidity ^0.8.12;\n\nimport \"OpenZeppelin/openzeppelin-contracts@4.8.0/contracts/vendor/arbitrum/IArbSys.sol\";\nimport \"OpenZeppelin/openzeppelin-contracts@4.8.0/contracts/vendor/arbitrum/IBridge.sol\";\nimport \"OpenZeppelin/openzeppelin-contracts@4.8.0/contracts/vendor/arbitrum/IInbox.sol\";\nimport \"OpenZeppelin/openzeppelin-contracts@4.8.0/contracts/vendor/arbitrum/IOutbox.sol\";\nimport \"OpenZeppelin/openzeppelin-contracts@4.8.0/contracts/access/Ownable.sol\";\n\nimport \"../../../interfaces/IMessenger.sol\";\nimport \"../../RestrictedCalls.sol\";\n\ncontract ArbitrumL1Messenger is IMessenger, RestrictedCalls {\n    IBridge public immutable bridge;\n    IInbox public immutable inbox;\n\n    /// Maps addresses to ETH deposits to be used for paying the submission fee.\n    mapping(address => uint256) public deposits;\n\n    constructor(address bridge_, address inbox_) {\n        bridge = IBridge(bridge_);\n        inbox = IInbox(inbox_);\n    }\n\n    function callAllowed(address caller, address courier)\n        external\n        view\n        returns (bool)\n    {\n        // The call from L2 must be delivered by the Arbitrum bridge.\n        if (courier != address(bridge)) return false;\n\n        IOutbox outbox = IOutbox(bridge.activeOutbox());\n        address sender = outbox.l2ToL1Sender();\n        return sender == caller;\n    }\n\n    function deposit() external payable {\n        deposits[msg.sender] += msg.value;\n    }\n\n    function withdraw() external {\n        uint256 amount = deposits[msg.sender];\n        require(amount > 0, \"nothing to withdraw\");\n\n        deposits[msg.sender] = 0;\n\n        (bool sent, ) = msg.sender.call{value: amount}(\"\");\n        require(sent, \"failed to send Ether\");\n    }\n\n    /* solhint-disable avoid-tx-origin */\n    function sendMessage(address target, bytes calldata message)\n        external\n        restricted(block.chainid)\n    {\n        uint256 submissionFee = inbox.calculateRetryableSubmissionFee(\n            message.length,\n            0\n        );\n        uint256 depositOrigin = deposits[tx.origin];\n        require(depositOrigin >= submissionFee, \"insufficient deposit\");\n\n        deposits[tx.origin] = depositOrigin - submissionFee;\n\n        // We set maxGas to 100_000. We also set gasPriceBid to 0 because the\n        // relayer will redeem the ticket on L2 and we only want to pay the\n        // submission cost on L1.\n        inbox.createRetryableTicket{value: submissionFee}(\n            target,\n            0,\n            submissionFee,\n            tx.origin,\n            tx.origin,\n            100_000,\n            0,\n            message\n        );\n    }\n    /* solhint-enable avoid-tx-origin */\n}\n\ncontract ArbitrumL2Messenger is IMessenger, Ownable, RestrictedCalls {\n    function callAllowed(address caller, address courier)\n        external\n        view\n        returns (bool)\n    {\n        // Arbitrum sets `msg.sender` on calls coming from L1 to be the aliased\n        // form of the address that sent the message so we need to check\n        // that aliased address here. In our case, that is the L2 alias of our\n        // caller, ArbitrumL1Messenger.\n        IArbSys arbsys = IArbSys(address(100));\n        return\n            courier ==\n            arbsys.mapL1SenderContractAddressToL2Alias(caller, address(0));\n    }\n\n    function sendMessage(address target, bytes calldata message)\n        external\n        restricted(block.chainid)\n    {\n        IArbSys arbsys = IArbSys(address(100));\n        arbsys.sendTxToL1(target, message);\n    }\n}\n",
  "sourcePath": "contracts/contracts/chains/arbitrum/ArbitrumMessengers.sol",
  "type": "contract"
}