{
  "abi": [
    {
      "inputs": [
        {
          "internalType": "address",
          "name": "_messenger",
          "type": "address"
        }
      ],
      "stateMutability": "nonpayable",
      "type": "constructor"
    },
    {
      "anonymous": false,
      "inputs": [
        {
          "indexed": true,
          "internalType": "bytes32",
          "name": "requestId",
          "type": "bytes32"
        },
        {
          "indexed": true,
          "internalType": "bytes32",
          "name": "fillId",
          "type": "bytes32"
        }
      ],
      "name": "FillInvalidated",
      "type": "event"
    },
    {
      "anonymous": false,
      "inputs": [
        {
          "indexed": false,
          "internalType": "address",
          "name": "lp",
          "type": "address"
        }
      ],
      "name": "LpAdded",
      "type": "event"
    },
    {
      "anonymous": false,
      "inputs": [
        {
          "indexed": false,
          "internalType": "address",
          "name": "lp",
          "type": "address"
        }
      ],
      "name": "LpRemoved",
      "type": "event"
    },
    {
      "anonymous": false,
      "inputs": [
        {
          "indexed": true,
          "internalType": "address",
          "name": "previousOwner",
          "type": "address"
        },
        {
          "indexed": true,
          "internalType": "address",
          "name": "newOwner",
          "type": "address"
        }
      ],
      "name": "OwnershipTransferred",
      "type": "event"
    },
    {
      "anonymous": false,
      "inputs": [
        {
          "indexed": true,
          "internalType": "bytes32",
          "name": "requestId",
          "type": "bytes32"
        },
        {
          "indexed": false,
          "internalType": "bytes32",
          "name": "fillId",
          "type": "bytes32"
        },
        {
          "indexed": true,
          "internalType": "uint256",
          "name": "sourceChainId",
          "type": "uint256"
        },
        {
          "indexed": true,
          "internalType": "address",
          "name": "targetTokenAddress",
          "type": "address"
        },
        {
          "indexed": false,
          "internalType": "address",
          "name": "filler",
          "type": "address"
        },
        {
          "indexed": false,
          "internalType": "uint256",
          "name": "amount",
          "type": "uint256"
        }
      ],
      "name": "RequestFilled",
      "type": "event"
    },
    {
      "inputs": [
        {
          "internalType": "address",
          "name": "newLp",
          "type": "address"
        }
      ],
      "name": "addAllowedLp",
      "outputs": [],
      "stateMutability": "nonpayable",
      "type": "function"
    },
    {
      "inputs": [
        {
          "internalType": "address",
          "name": "",
          "type": "address"
        }
      ],
      "name": "allowedLps",
      "outputs": [
        {
          "internalType": "bool",
          "name": "",
          "type": "bool"
        }
      ],
      "stateMutability": "view",
      "type": "function"
    },
    {
      "inputs": [
        {
          "internalType": "uint256",
          "name": "sourceChainId",
          "type": "uint256"
        },
        {
          "internalType": "address",
          "name": "targetTokenAddress",
          "type": "address"
        },
        {
          "internalType": "address",
          "name": "targetReceiverAddress",
          "type": "address"
        },
        {
          "internalType": "uint256",
          "name": "amount",
          "type": "uint256"
        },
        {
          "internalType": "uint96",
          "name": "nonce",
          "type": "uint96"
        }
      ],
      "name": "fillRequest",
      "outputs": [
        {
          "internalType": "bytes32",
          "name": "",
          "type": "bytes32"
        }
      ],
      "stateMutability": "nonpayable",
      "type": "function"
    },
    {
      "inputs": [
        {
          "internalType": "bytes32",
          "name": "",
          "type": "bytes32"
        }
      ],
      "name": "fills",
      "outputs": [
        {
          "internalType": "bytes32",
          "name": "",
          "type": "bytes32"
        }
      ],
      "stateMutability": "view",
      "type": "function"
    },
    {
      "inputs": [
        {
          "internalType": "bytes32",
          "name": "requestId",
          "type": "bytes32"
        },
        {
          "internalType": "bytes32",
          "name": "fillId",
          "type": "bytes32"
        },
        {
          "internalType": "uint256",
          "name": "sourceChainId",
          "type": "uint256"
        }
      ],
      "name": "invalidateFill",
      "outputs": [],
      "stateMutability": "nonpayable",
      "type": "function"
    },
    {
      "inputs": [],
      "name": "l1Resolver",
      "outputs": [
        {
          "internalType": "address",
          "name": "",
          "type": "address"
        }
      ],
      "stateMutability": "view",
      "type": "function"
    },
    {
      "inputs": [],
      "name": "messenger",
      "outputs": [
        {
          "internalType": "contract IMessenger",
          "name": "",
          "type": "address"
        }
      ],
      "stateMutability": "view",
      "type": "function"
    },
    {
      "inputs": [],
      "name": "owner",
      "outputs": [
        {
          "internalType": "address",
          "name": "",
          "type": "address"
        }
      ],
      "stateMutability": "view",
      "type": "function"
    },
    {
      "inputs": [
        {
          "internalType": "address",
          "name": "oldLp",
          "type": "address"
        }
      ],
      "name": "removeAllowedLp",
      "outputs": [],
      "stateMutability": "nonpayable",
      "type": "function"
    },
    {
      "inputs": [],
      "name": "renounceOwnership",
      "outputs": [],
      "stateMutability": "nonpayable",
      "type": "function"
    },
    {
      "inputs": [
        {
          "internalType": "address",
          "name": "_l1Resolver",
          "type": "address"
        }
      ],
      "name": "setResolver",
      "outputs": [],
      "stateMutability": "nonpayable",
      "type": "function"
    },
    {
      "inputs": [
        {
          "internalType": "address",
          "name": "newOwner",
          "type": "address"
        }
      ],
      "name": "transferOwnership",
      "outputs": [],
      "stateMutability": "nonpayable",
      "type": "function"
    }
  ],
  "bytecode": "60a060405234801561001057600080fd5b50604051610f2e380380610f2e83398101604081905261002f91610099565b61003833610049565b6001600160a01b03166080526100c9565b600080546001600160a01b038381166001600160a01b0319831681178455604051919092169283917f8be0079c531659141344cd1fd0a4f28419497f9722a3daafe3b4186f6b6457e09190a35050565b6000602082840312156100ab57600080fd5b81516001600160a01b03811681146100c257600080fd5b9392505050565b608051610e3c6100f26000396000818161012c0152818161033801526107240152610e3c6000f3fe608060405234801561001057600080fd5b50600436106100b45760003560e01c8063715018a611610071578063715018a6146101795780638da5cb5b14610181578063935beb1a146101925780639e375226146101a5578063ac7f380a146101d8578063f2fde38b146101eb57600080fd5b806303fc4c37146100b957806320158c44146100ce57806331e08f7a146101015780633993b6ed146101145780633cb747bf146101275780634e543b2614610166575b600080fd5b6100cc6100c7366004610c25565b6101fe565b005b6100ee6100dc366004610c51565b60036020526000908152604090205481565b6040519081526020015b60405180910390f35b6100cc61010f366004610c86565b610413565b6100cc610122366004610c86565b610477565b61014e7f000000000000000000000000000000000000000000000000000000000000000081565b6040516001600160a01b0390911681526020016100f8565b6100cc610174366004610c86565b6104d0565b6100cc61054a565b6000546001600160a01b031661014e565b60025461014e906001600160a01b031681565b6101c86101b3366004610c86565b60016020526000908152604090205460ff1681565b60405190151581526020016100f8565b6100ee6101e6366004610ca8565b61055e565b6100cc6101f9366004610c86565b610828565b6002546001600160a01b0316806102575760405162461bcd60e51b815260206004820152601860248201527714995cdbdb1d995c881859191c995cdcc81b9bdd081cd95d60421b60448201526064015b60405180910390fd5b6000848152600360205260409020548390036102a25760405162461bcd60e51b815260206004820152600a602482015269119a5b1b081d985b1a5960b21b604482015260640161024e565b6102aa6108a1565b83036103095760405162461bcd60e51b815260206004820152602860248201527f43616e6e6f7420696e76616c69646174652066696c6c73206f662063757272656044820152676e7420626c6f636b60c01b606482015260840161024e565b604051602481018590526044810184905246606482015260848101839052600060a48201526001600160a01b037f0000000000000000000000000000000000000000000000000000000000000000169063bb5ddb0f90839060c40160408051601f198184030181529181526020820180516001600160e01b03166314adc78760e31b179052516001600160e01b031960e085901b1681526103ae929190600401610d6c565b600060405180830381600087803b1580156103c857600080fd5b505af11580156103dc573d6000803e3d6000fd5b50506040518592508691507f931b401cf9baede43dc97f7d9dd4017d44f22bfa0a69668d527d9b5fff42b90a90600090a350505050565b61041b6108b4565b6001600160a01b038116600081815260016020818152604092839020805460ff191690921790915590519182527f371fc559c30f70424413fed6bf7e57dc939651331abad5c970a8ea0921c80b2e91015b60405180910390a150565b61047f6108b4565b6001600160a01b038116600081815260016020908152604091829020805460ff1916905590519182527f4e774c97f73f4bea034579e4224498d7d9b3a4109eaa70ed3d85c97a5855f198910161046c565b6104d86108b4565b6002546001600160a01b0316156105285760405162461bcd60e51b815260206004820152601460248201527314995cdbdb1d995c88185b1c9958591e481cd95d60621b604482015260640161024e565b600280546001600160a01b0319166001600160a01b0392909216919091179055565b6105526108b4565b61055c600061090e565b565b3360009081526001602052604081205460ff166105b65760405162461bcd60e51b815260206004820152601660248201527514d95b99195c881b9bdd081dda1a5d195b1a5cdd195960521b604482015260640161024e565b6002546001600160a01b03168061060a5760405162461bcd60e51b815260206004820152601860248201527714995cdbdb1d995c881859191c995cdcc81b9bdd081cd95d60421b604482015260640161024e565b6040805160208082018a905246828401526bffffffffffffffffffffffff1960608a811b82168185015289901b166074830152608882018790526001600160a01b031960a087901b1660a88301528251808303609401815260b49092019092528051910120600090600081815260036020526040902054909150156106c25760405162461bcd60e51b815260206004820152600e60248201526d105b1c9958591e48199a5b1b195960921b604482015260640161024e565b866106d86001600160a01b03821633898961095e565b60006106e26108a1565b60008481526003602052604090819020829055516024810185905260448101829052466064820152608481018c90523360a48201529091506001600160a01b037f0000000000000000000000000000000000000000000000000000000000000000169063bb5ddb0f90869060c40160408051601f198184030181529181526020820180516001600160e01b03166314adc78760e31b179052516001600160e01b031960e085901b16815261079a929190600401610d6c565b600060405180830381600087803b1580156107b457600080fd5b505af11580156107c8573d6000803e3d6000fd5b5050604080518481523360208201529081018a90526001600160a01b038c1692508c915085907f2995401b199bc45ea8c8b79c27fb204b270cfb74444d546b1a100935e34438879060600160405180910390a49998505050505050505050565b6108306108b4565b6001600160a01b0381166108955760405162461bcd60e51b815260206004820152602660248201527f4f776e61626c653a206e6577206f776e657220697320746865207a65726f206160448201526564647265737360d01b606482015260840161024e565b61089e8161090e565b50565b60006108ae600143610d90565b40905090565b6000546001600160a01b0316331461055c5760405162461bcd60e51b815260206004820181905260248201527f4f776e61626c653a2063616c6c6572206973206e6f7420746865206f776e6572604482015260640161024e565b600080546001600160a01b038381166001600160a01b0319831681178455604051919092169283917f8be0079c531659141344cd1fd0a4f28419497f9722a3daafe3b4186f6b6457e09190a35050565b604080516001600160a01b0385811660248301528416604482015260648082018490528251808303909101815260849091019091526020810180516001600160e01b03166323b872dd60e01b1790526109b89085906109be565b50505050565b6000610a13826040518060400160405280602081526020017f5361666545524332303a206c6f772d6c6576656c2063616c6c206661696c6564815250856001600160a01b0316610a959092919063ffffffff16565b805190915015610a905780806020019051810190610a319190610db5565b610a905760405162461bcd60e51b815260206004820152602a60248201527f5361666545524332303a204552433230206f7065726174696f6e20646964206e6044820152691bdd081cdd58d8d9595960b21b606482015260840161024e565b505050565b6060610aa48484600085610aac565b949350505050565b606082471015610b0d5760405162461bcd60e51b815260206004820152602660248201527f416464726573733a20696e73756666696369656e742062616c616e636520666f6044820152651c8818d85b1b60d21b606482015260840161024e565b600080866001600160a01b03168587604051610b299190610dd7565b60006040518083038185875af1925050503d8060008114610b66576040519150601f19603f3d011682016040523d82523d6000602084013e610b6b565b606091505b5091509150610b7c87838387610b87565b979650505050505050565b60608315610bf6578251600003610bef576001600160a01b0385163b610bef5760405162461bcd60e51b815260206004820152601d60248201527f416464726573733a2063616c6c20746f206e6f6e2d636f6e7472616374000000604482015260640161024e565b5081610aa4565b610aa48383815115610c0b5781518083602001fd5b8060405162461bcd60e51b815260040161024e9190610df3565b600080600060608486031215610c3a57600080fd5b505081359360208301359350604090920135919050565b600060208284031215610c6357600080fd5b5035919050565b80356001600160a01b0381168114610c8157600080fd5b919050565b600060208284031215610c9857600080fd5b610ca182610c6a565b9392505050565b600080600080600060a08688031215610cc057600080fd5b85359450610cd060208701610c6a565b9350610cde60408701610c6a565b92506060860135915060808601356bffffffffffffffffffffffff81168114610d0657600080fd5b809150509295509295909350565b60005b83811015610d2f578181015183820152602001610d17565b838111156109b85750506000910152565b60008151808452610d58816020860160208601610d14565b601f01601f19169290920160200192915050565b6001600160a01b0383168152604060208201819052600090610aa490830184610d40565b600082821015610db057634e487b7160e01b600052601160045260246000fd5b500390565b600060208284031215610dc757600080fd5b81518015158114610ca157600080fd5b60008251610de9818460208701610d14565b9190910192915050565b602081526000610ca16020830184610d4056fea2646970667358221220e4951d06fd029c7b126c13c8086280651e30cc57802c727c5353f2cb3950c2ab64736f6c634300080d0033",
  "bytecodeSha1": "01733fa57b2f91dc93d83a5cfed3c11461e257f4",
  "compiler": {
    "evm_version": "london",
    "optimizer": {
      "enabled": true,
      "runs": 200
    },
    "version": "0.8.13+commit.abaa5c0e"
  },
  "contractName": "FillManager",
  "language": "Solidity",
  "natspec": {
    "kind": "dev",
    "methods": {
      "addAllowedLp(address)": {
        "notice": "Add a liquidity provider to the set of allowed liquidity providers. .. note:: This function can only be called by the contract owner.",
        "params": {
          "newLp": "The liquidity provider."
        }
      },
      "allowedLps(address)": {
        "notice": "The set of liquidity providers that are added to the whitelist."
      },
      "constructor": {
        "notice": "Constructor.",
        "params": {
          "_messenger": "The messenger."
        }
      },
      "fillRequest(uint256,address,address,uint256,uint96)": {
        "notice": "Fill the specified request. The caller must have approved at least ``amount`` tokens for :sol:contract:`FillManager` with the ERC20 token contract at ``targetTokenAddress``. The tokens will be immediately sent to ``targetReceiverAddress`` and a fill proof will be generated, which can later be used to trigger L1 resolution, if needed.",
        "params": {
          "amount": "Amount of tokens to transfer. Does not include fees.",
          "nonce": "The nonce used to create the request ID.",
          "sourceChainId": "The source chain ID.",
          "targetReceiverAddress": "Recipient address on the target chain.",
          "targetTokenAddress": "Address of the token contract on the target chain."
        },
        "returns": {
          "_0": "The fill ID."
        }
      },
      "fills(bytes32)": {
        "notice": "Maps request IDs to fill IDs."
      },
      "invalidateFill(bytes32,bytes32,uint256)": {
        "notice": "Invalidate the specified fill. In cases that a claim has been made on the source chain, but without a corresponding fill actually happening on the target chain, anyone can call this function to mark the fill as invalid. This is typically followed by a challenge game on the source chain, which the dishonest claimer is guaranteed to lose as soon as the information about the invalid fill (so called \"non-fill proof\") is propagated to the source chain via L1 resolution.",
        "params": {
          "fillId": "The fill ID.",
          "requestId": "The request ID.",
          "sourceChainId": "The source chain ID."
        }
      },
      "l1Resolver()": {
        "notice": "The L1 :sol:contract:`Resolver` contract to be used for L1 resolution."
      },
      "owner()": {
        "details": "Returns the address of the current owner."
      },
      "removeAllowedLp(address)": {
        "notice": "Remove a liquidity provider from the set of allowed liquidity providers. .. note:: This function can only be called by the contract owner.",
        "params": {
          "oldLp": "The liquidity provider."
        }
      },
      "renounceOwnership()": {
        "details": "Leaves the contract without owner. It will not be possible to call `onlyOwner` functions anymore. Can only be called by the current owner. NOTE: Renouncing ownership will leave the contract without an owner, thereby removing any functionality that is only available to the owner."
      },
      "setResolver(address)": {
        "notice": "Set the resolver's address Can only ever be set once. Before it is set, no fills or invalidations are possible",
        "params": {
          "_l1Resolver": "The L1 resolver address"
        }
      },
      "transferOwnership(address)": {
        "details": "Transfers ownership of the contract to a new account (`newOwner`). Can only be called by the current owner."
      }
    },
    "notice": "The fill manager. This contract is responsible for keeping track of filled requests. In addition to allowing agents to (eventually) prove that they filled requests, it also allows anyone to invalidate a claim that a request was filled. It is the only contract that agents need to interact with on the target chain.",
    "version": 1
  },
  "opcodes": "PUSH1 0x80 PUSH1 0x40 MSTORE CALLVALUE DUP1 ISZERO PUSH2 0x10 JUMPI PUSH1 0x0 DUP1 REVERT JUMPDEST POP PUSH1 0x4 CALLDATASIZE LT PUSH2 0xB4 JUMPI PUSH1 0x0 CALLDATALOAD PUSH1 0xE0 SHR DUP1 PUSH4 0x715018A6 GT PUSH2 0x71 JUMPI DUP1 PUSH4 0x715018A6 EQ PUSH2 0x179 JUMPI DUP1 PUSH4 0x8DA5CB5B EQ PUSH2 0x181 JUMPI DUP1 PUSH4 0x935BEB1A EQ PUSH2 0x192 JUMPI DUP1 PUSH4 0x9E375226 EQ PUSH2 0x1A5 JUMPI DUP1 PUSH4 0xAC7F380A EQ PUSH2 0x1D8 JUMPI DUP1 PUSH4 0xF2FDE38B EQ PUSH2 0x1EB JUMPI PUSH1 0x0 DUP1 REVERT JUMPDEST DUP1 PUSH4 0x3FC4C37 EQ PUSH2 0xB9 JUMPI DUP1 PUSH4 0x20158C44 EQ PUSH2 0xCE JUMPI DUP1 PUSH4 0x31E08F7A EQ PUSH2 0x101 JUMPI DUP1 PUSH4 0x3993B6ED EQ PUSH2 0x114 JUMPI DUP1 PUSH4 0x3CB747BF EQ PUSH2 0x127 JUMPI DUP1 PUSH4 0x4E543B26 EQ PUSH2 0x166 JUMPI JUMPDEST PUSH1 0x0 DUP1 REVERT JUMPDEST PUSH2 0xCC PUSH2 0xC7 CALLDATASIZE PUSH1 0x4 PUSH2 0xC25 JUMP JUMPDEST PUSH2 0x1FE JUMP JUMPDEST STOP JUMPDEST PUSH2 0xEE PUSH2 0xDC CALLDATASIZE PUSH1 0x4 PUSH2 0xC51 JUMP JUMPDEST PUSH1 0x3 PUSH1 0x20 MSTORE PUSH1 0x0 SWAP1 DUP2 MSTORE PUSH1 0x40 SWAP1 KECCAK256 SLOAD DUP2 JUMP JUMPDEST PUSH1 0x40 MLOAD SWAP1 DUP2 MSTORE PUSH1 0x20 ADD JUMPDEST PUSH1 0x40 MLOAD DUP1 SWAP2 SUB SWAP1 RETURN JUMPDEST PUSH2 0xCC PUSH2 0x10F CALLDATASIZE PUSH1 0x4 PUSH2 0xC86 JUMP JUMPDEST PUSH2 0x413 JUMP JUMPDEST PUSH2 0xCC PUSH2 0x122 CALLDATASIZE PUSH1 0x4 PUSH2 0xC86 JUMP JUMPDEST PUSH2 0x477 JUMP JUMPDEST PUSH2 0x14E PUSH32 0x0 DUP2 JUMP JUMPDEST PUSH1 0x40 MLOAD PUSH1 0x1 PUSH1 0x1 PUSH1 0xA0 SHL SUB SWAP1 SWAP2 AND DUP2 MSTORE PUSH1 0x20 ADD PUSH2 0xF8 JUMP JUMPDEST PUSH2 0xCC PUSH2 0x174 CALLDATASIZE PUSH1 0x4 PUSH2 0xC86 JUMP JUMPDEST PUSH2 0x4D0 JUMP JUMPDEST PUSH2 0xCC PUSH2 0x54A JUMP JUMPDEST PUSH1 0x0 SLOAD PUSH1 0x1 PUSH1 0x1 PUSH1 0xA0 SHL SUB AND PUSH2 0x14E JUMP JUMPDEST PUSH1 0x2 SLOAD PUSH2 0x14E SWAP1 PUSH1 0x1 PUSH1 0x1 PUSH1 0xA0 SHL SUB AND DUP2 JUMP JUMPDEST PUSH2 0x1C8 PUSH2 0x1B3 CALLDATASIZE PUSH1 0x4 PUSH2 0xC86 JUMP JUMPDEST PUSH1 0x1 PUSH1 0x20 MSTORE PUSH1 0x0 SWAP1 DUP2 MSTORE PUSH1 0x40 SWAP1 KECCAK256 SLOAD PUSH1 0xFF AND DUP2 JUMP JUMPDEST PUSH1 0x40 MLOAD SWAP1 ISZERO ISZERO DUP2 MSTORE PUSH1 0x20 ADD PUSH2 0xF8 JUMP JUMPDEST PUSH2 0xEE PUSH2 0x1E6 CALLDATASIZE PUSH1 0x4 PUSH2 0xCA8 JUMP JUMPDEST PUSH2 0x55E JUMP JUMPDEST PUSH2 0xCC PUSH2 0x1F9 CALLDATASIZE PUSH1 0x4 PUSH2 0xC86 JUMP JUMPDEST PUSH2 0x828 JUMP JUMPDEST PUSH1 0x2 SLOAD PUSH1 0x1 PUSH1 0x1 PUSH1 0xA0 SHL SUB AND DUP1 PUSH2 0x257 JUMPI PUSH1 0x40 MLOAD PUSH3 0x461BCD PUSH1 0xE5 SHL DUP2 MSTORE PUSH1 0x20 PUSH1 0x4 DUP3 ADD MSTORE PUSH1 0x18 PUSH1 0x24 DUP3 ADD MSTORE PUSH24 0x14995CDBDB1D995C881859191C995CDCC81B9BDD081CD95D PUSH1 0x42 SHL PUSH1 0x44 DUP3 ADD MSTORE PUSH1 0x64 ADD JUMPDEST PUSH1 0x40 MLOAD DUP1 SWAP2 SUB SWAP1 REVERT JUMPDEST PUSH1 0x0 DUP5 DUP2 MSTORE PUSH1 0x3 PUSH1 0x20 MSTORE PUSH1 0x40 SWAP1 KECCAK256 SLOAD DUP4 SWAP1 SUB PUSH2 0x2A2 JUMPI PUSH1 0x40 MLOAD PUSH3 0x461BCD PUSH1 0xE5 SHL DUP2 MSTORE PUSH1 0x20 PUSH1 0x4 DUP3 ADD MSTORE PUSH1 0xA PUSH1 0x24 DUP3 ADD MSTORE PUSH10 0x119A5B1B081D985B1A59 PUSH1 0xB2 SHL PUSH1 0x44 DUP3 ADD MSTORE PUSH1 0x64 ADD PUSH2 0x24E JUMP JUMPDEST PUSH2 0x2AA PUSH2 0x8A1 JUMP JUMPDEST DUP4 SUB PUSH2 0x309 JUMPI PUSH1 0x40 MLOAD PUSH3 0x461BCD PUSH1 0xE5 SHL DUP2 MSTORE PUSH1 0x20 PUSH1 0x4 DUP3 ADD MSTORE PUSH1 0x28 PUSH1 0x24 DUP3 ADD MSTORE PUSH32 0x43616E6E6F7420696E76616C69646174652066696C6C73206F66206375727265 PUSH1 0x44 DUP3 ADD MSTORE PUSH8 0x6E7420626C6F636B PUSH1 0xC0 SHL PUSH1 0x64 DUP3 ADD MSTORE PUSH1 0x84 ADD PUSH2 0x24E JUMP JUMPDEST PUSH1 0x40 MLOAD PUSH1 0x24 DUP2 ADD DUP6 SWAP1 MSTORE PUSH1 0x44 DUP2 ADD DUP5 SWAP1 MSTORE CHAINID PUSH1 0x64 DUP3 ADD MSTORE PUSH1 0x84 DUP2 ADD DUP4 SWAP1 MSTORE PUSH1 0x0 PUSH1 0xA4 DUP3 ADD MSTORE PUSH1 0x1 PUSH1 0x1 PUSH1 0xA0 SHL SUB PUSH32 0x0 AND SWAP1 PUSH4 0xBB5DDB0F SWAP1 DUP4 SWAP1 PUSH1 0xC4 ADD PUSH1 0x40 DUP1 MLOAD PUSH1 0x1F NOT DUP2 DUP5 SUB ADD DUP2 MSTORE SWAP2 DUP2 MSTORE PUSH1 0x20 DUP3 ADD DUP1 MLOAD PUSH1 0x1 PUSH1 0x1 PUSH1 0xE0 SHL SUB AND PUSH4 0x14ADC787 PUSH1 0xE3 SHL OR SWAP1 MSTORE MLOAD PUSH1 0x1 PUSH1 0x1 PUSH1 0xE0 SHL SUB NOT PUSH1 0xE0 DUP6 SWAP1 SHL AND DUP2 MSTORE PUSH2 0x3AE SWAP3 SWAP2 SWAP1 PUSH1 0x4 ADD PUSH2 0xD6C JUMP JUMPDEST PUSH1 0x0 PUSH1 0x40 MLOAD DUP1 DUP4 SUB DUP2 PUSH1 0x0 DUP8 DUP1 EXTCODESIZE ISZERO DUP1 ISZERO PUSH2 0x3C8 JUMPI PUSH1 0x0 DUP1 REVERT JUMPDEST POP GAS CALL ISZERO DUP1 ISZERO PUSH2 0x3DC JUMPI RETURNDATASIZE PUSH1 0x0 DUP1 RETURNDATACOPY RETURNDATASIZE PUSH1 0x0 REVERT JUMPDEST POP POP PUSH1 0x40 MLOAD DUP6 SWAP3 POP DUP7 SWAP2 POP PUSH32 0x931B401CF9BAEDE43DC97F7D9DD4017D44F22BFA0A69668D527D9B5FFF42B90A SWAP1 PUSH1 0x0 SWAP1 LOG3 POP POP POP POP JUMP JUMPDEST PUSH2 0x41B PUSH2 0x8B4 JUMP JUMPDEST PUSH1 0x1 PUSH1 0x1 PUSH1 0xA0 SHL SUB DUP2 AND PUSH1 0x0 DUP2 DUP2 MSTORE PUSH1 0x1 PUSH1 0x20 DUP2 DUP2 MSTORE PUSH1 0x40 SWAP3 DUP4 SWAP1 KECCAK256 DUP1 SLOAD PUSH1 0xFF NOT AND SWAP1 SWAP3 OR SWAP1 SWAP2 SSTORE SWAP1 MLOAD SWAP2 DUP3 MSTORE PUSH32 0x371FC559C30F70424413FED6BF7E57DC939651331ABAD5C970A8EA0921C80B2E SWAP2 ADD JUMPDEST PUSH1 0x40 MLOAD DUP1 SWAP2 SUB SWAP1 LOG1 POP JUMP JUMPDEST PUSH2 0x47F PUSH2 0x8B4 JUMP JUMPDEST PUSH1 0x1 PUSH1 0x1 PUSH1 0xA0 SHL SUB DUP2 AND PUSH1 0x0 DUP2 DUP2 MSTORE PUSH1 0x1 PUSH1 0x20 SWAP1 DUP2 MSTORE PUSH1 0x40 SWAP2 DUP3 SWAP1 KECCAK256 DUP1 SLOAD PUSH1 0xFF NOT AND SWAP1 SSTORE SWAP1 MLOAD SWAP2 DUP3 MSTORE PUSH32 0x4E774C97F73F4BEA034579E4224498D7D9B3A4109EAA70ED3D85C97A5855F198 SWAP2 ADD PUSH2 0x46C JUMP JUMPDEST PUSH2 0x4D8 PUSH2 0x8B4 JUMP JUMPDEST PUSH1 0x2 SLOAD PUSH1 0x1 PUSH1 0x1 PUSH1 0xA0 SHL SUB AND ISZERO PUSH2 0x528 JUMPI PUSH1 0x40 MLOAD PUSH3 0x461BCD PUSH1 0xE5 SHL DUP2 MSTORE PUSH1 0x20 PUSH1 0x4 DUP3 ADD MSTORE PUSH1 0x14 PUSH1 0x24 DUP3 ADD MSTORE PUSH20 0x14995CDBDB1D995C88185B1C9958591E481CD95D PUSH1 0x62 SHL PUSH1 0x44 DUP3 ADD MSTORE PUSH1 0x64 ADD PUSH2 0x24E JUMP JUMPDEST PUSH1 0x2 DUP1 SLOAD PUSH1 0x1 PUSH1 0x1 PUSH1 0xA0 SHL SUB NOT AND PUSH1 0x1 PUSH1 0x1 PUSH1 0xA0 SHL SUB SWAP3 SWAP1 SWAP3 AND SWAP2 SWAP1 SWAP2 OR SWAP1 SSTORE JUMP JUMPDEST PUSH2 0x552 PUSH2 0x8B4 JUMP JUMPDEST PUSH2 0x55C PUSH1 0x0 PUSH2 0x90E JUMP JUMPDEST JUMP JUMPDEST CALLER PUSH1 0x0 SWAP1 DUP2 MSTORE PUSH1 0x1 PUSH1 0x20 MSTORE PUSH1 0x40 DUP2 KECCAK256 SLOAD PUSH1 0xFF AND PUSH2 0x5B6 JUMPI PUSH1 0x40 MLOAD PUSH3 0x461BCD PUSH1 0xE5 SHL DUP2 MSTORE PUSH1 0x20 PUSH1 0x4 DUP3 ADD MSTORE PUSH1 0x16 PUSH1 0x24 DUP3 ADD MSTORE PUSH22 0x14D95B99195C881B9BDD081DDA1A5D195B1A5CDD1959 PUSH1 0x52 SHL PUSH1 0x44 DUP3 ADD MSTORE PUSH1 0x64 ADD PUSH2 0x24E JUMP JUMPDEST PUSH1 0x2 SLOAD PUSH1 0x1 PUSH1 0x1 PUSH1 0xA0 SHL SUB AND DUP1 PUSH2 0x60A JUMPI PUSH1 0x40 MLOAD PUSH3 0x461BCD PUSH1 0xE5 SHL DUP2 MSTORE PUSH1 0x20 PUSH1 0x4 DUP3 ADD MSTORE PUSH1 0x18 PUSH1 0x24 DUP3 ADD MSTORE PUSH24 0x14995CDBDB1D995C881859191C995CDCC81B9BDD081CD95D PUSH1 0x42 SHL PUSH1 0x44 DUP3 ADD MSTORE PUSH1 0x64 ADD PUSH2 0x24E JUMP JUMPDEST PUSH1 0x40 DUP1 MLOAD PUSH1 0x20 DUP1 DUP3 ADD DUP11 SWAP1 MSTORE CHAINID DUP3 DUP5 ADD MSTORE PUSH12 0xFFFFFFFFFFFFFFFFFFFFFFFF NOT PUSH1 0x60 DUP11 DUP2 SHL DUP3 AND DUP2 DUP6 ADD MSTORE DUP10 SWAP1 SHL AND PUSH1 0x74 DUP4 ADD MSTORE PUSH1 0x88 DUP3 ADD DUP8 SWAP1 MSTORE PUSH1 0x1 PUSH1 0x1 PUSH1 0xA0 SHL SUB NOT PUSH1 0xA0 DUP8 SWAP1 SHL AND PUSH1 0xA8 DUP4 ADD MSTORE DUP3 MLOAD DUP1 DUP4 SUB PUSH1 0x94 ADD DUP2 MSTORE PUSH1 0xB4 SWAP1 SWAP3 ADD SWAP1 SWAP3 MSTORE DUP1 MLOAD SWAP2 ADD KECCAK256 PUSH1 0x0 SWAP1 PUSH1 0x0 DUP2 DUP2 MSTORE PUSH1 0x3 PUSH1 0x20 MSTORE PUSH1 0x40 SWAP1 KECCAK256 SLOAD SWAP1 SWAP2 POP ISZERO PUSH2 0x6C2 JUMPI PUSH1 0x40 MLOAD PUSH3 0x461BCD PUSH1 0xE5 SHL DUP2 MSTORE PUSH1 0x20 PUSH1 0x4 DUP3 ADD MSTORE PUSH1 0xE PUSH1 0x24 DUP3 ADD MSTORE PUSH14 0x105B1C9958591E48199A5B1B1959 PUSH1 0x92 SHL PUSH1 0x44 DUP3 ADD MSTORE PUSH1 0x64 ADD PUSH2 0x24E JUMP JUMPDEST DUP7 PUSH2 0x6D8 PUSH1 0x1 PUSH1 0x1 PUSH1 0xA0 SHL SUB DUP3 AND CALLER DUP10 DUP10 PUSH2 0x95E JUMP JUMPDEST PUSH1 0x0 PUSH2 0x6E2 PUSH2 0x8A1 JUMP JUMPDEST PUSH1 0x0 DUP5 DUP2 MSTORE PUSH1 0x3 PUSH1 0x20 MSTORE PUSH1 0x40 SWAP1 DUP2 SWAP1 KECCAK256 DUP3 SWAP1 SSTORE MLOAD PUSH1 0x24 DUP2 ADD DUP6 SWAP1 MSTORE PUSH1 0x44 DUP2 ADD DUP3 SWAP1 MSTORE CHAINID PUSH1 0x64 DUP3 ADD MSTORE PUSH1 0x84 DUP2 ADD DUP13 SWAP1 MSTORE CALLER PUSH1 0xA4 DUP3 ADD MSTORE SWAP1 SWAP2 POP PUSH1 0x1 PUSH1 0x1 PUSH1 0xA0 SHL SUB PUSH32 0x0 AND SWAP1 PUSH4 0xBB5DDB0F SWAP1 DUP7 SWAP1 PUSH1 0xC4 ADD PUSH1 0x40 DUP1 MLOAD PUSH1 0x1F NOT DUP2 DUP5 SUB ADD DUP2 MSTORE SWAP2 DUP2 MSTORE PUSH1 0x20 DUP3 ADD DUP1 MLOAD PUSH1 0x1 PUSH1 0x1 PUSH1 0xE0 SHL SUB AND PUSH4 0x14ADC787 PUSH1 0xE3 SHL OR SWAP1 MSTORE MLOAD PUSH1 0x1 PUSH1 0x1 PUSH1 0xE0 SHL SUB NOT PUSH1 0xE0 DUP6 SWAP1 SHL AND DUP2 MSTORE PUSH2 0x79A SWAP3 SWAP2 SWAP1 PUSH1 0x4 ADD PUSH2 0xD6C JUMP JUMPDEST PUSH1 0x0 PUSH1 0x40 MLOAD DUP1 DUP4 SUB DUP2 PUSH1 0x0 DUP8 DUP1 EXTCODESIZE ISZERO DUP1 ISZERO PUSH2 0x7B4 JUMPI PUSH1 0x0 DUP1 REVERT JUMPDEST POP GAS CALL ISZERO DUP1 ISZERO PUSH2 0x7C8 JUMPI RETURNDATASIZE PUSH1 0x0 DUP1 RETURNDATACOPY RETURNDATASIZE PUSH1 0x0 REVERT JUMPDEST POP POP PUSH1 0x40 DUP1 MLOAD DUP5 DUP2 MSTORE CALLER PUSH1 0x20 DUP3 ADD MSTORE SWAP1 DUP2 ADD DUP11 SWAP1 MSTORE PUSH1 0x1 PUSH1 0x1 PUSH1 0xA0 SHL SUB DUP13 AND SWAP3 POP DUP13 SWAP2 POP DUP6 SWAP1 PUSH32 0x2995401B199BC45EA8C8B79C27FB204B270CFB74444D546B1A100935E3443887 SWAP1 PUSH1 0x60 ADD PUSH1 0x40 MLOAD DUP1 SWAP2 SUB SWAP1 LOG4 SWAP10 SWAP9 POP POP POP POP POP POP POP POP POP JUMP JUMPDEST PUSH2 0x830 PUSH2 0x8B4 JUMP JUMPDEST PUSH1 0x1 PUSH1 0x1 PUSH1 0xA0 SHL SUB DUP2 AND PUSH2 0x895 JUMPI PUSH1 0x40 MLOAD PUSH3 0x461BCD PUSH1 0xE5 SHL DUP2 MSTORE PUSH1 0x20 PUSH1 0x4 DUP3 ADD MSTORE PUSH1 0x26 PUSH1 0x24 DUP3 ADD MSTORE PUSH32 0x4F776E61626C653A206E6577206F776E657220697320746865207A65726F2061 PUSH1 0x44 DUP3 ADD MSTORE PUSH6 0x646472657373 PUSH1 0xD0 SHL PUSH1 0x64 DUP3 ADD MSTORE PUSH1 0x84 ADD PUSH2 0x24E JUMP JUMPDEST PUSH2 0x89E DUP2 PUSH2 0x90E JUMP JUMPDEST POP JUMP JUMPDEST PUSH1 0x0 PUSH2 0x8AE PUSH1 0x1 NUMBER PUSH2 0xD90 JUMP JUMPDEST BLOCKHASH SWAP1 POP SWAP1 JUMP JUMPDEST PUSH1 0x0 SLOAD PUSH1 0x1 PUSH1 0x1 PUSH1 0xA0 SHL SUB AND CALLER EQ PUSH2 0x55C JUMPI PUSH1 0x40 MLOAD PUSH3 0x461BCD PUSH1 0xE5 SHL DUP2 MSTORE PUSH1 0x20 PUSH1 0x4 DUP3 ADD DUP2 SWAP1 MSTORE PUSH1 0x24 DUP3 ADD MSTORE PUSH32 0x4F776E61626C653A2063616C6C6572206973206E6F7420746865206F776E6572 PUSH1 0x44 DUP3 ADD MSTORE PUSH1 0x64 ADD PUSH2 0x24E JUMP JUMPDEST PUSH1 0x0 DUP1 SLOAD PUSH1 0x1 PUSH1 0x1 PUSH1 0xA0 SHL SUB DUP4 DUP2 AND PUSH1 0x1 PUSH1 0x1 PUSH1 0xA0 SHL SUB NOT DUP4 AND DUP2 OR DUP5 SSTORE PUSH1 0x40 MLOAD SWAP2 SWAP1 SWAP3 AND SWAP3 DUP4 SWAP2 PUSH32 0x8BE0079C531659141344CD1FD0A4F28419497F9722A3DAAFE3B4186F6B6457E0 SWAP2 SWAP1 LOG3 POP POP JUMP JUMPDEST PUSH1 0x40 DUP1 MLOAD PUSH1 0x1 PUSH1 0x1 PUSH1 0xA0 SHL SUB DUP6 DUP2 AND PUSH1 0x24 DUP4 ADD MSTORE DUP5 AND PUSH1 0x44 DUP3 ADD MSTORE PUSH1 0x64 DUP1 DUP3 ADD DUP5 SWAP1 MSTORE DUP3 MLOAD DUP1 DUP4 SUB SWAP1 SWAP2 ADD DUP2 MSTORE PUSH1 0x84 SWAP1 SWAP2 ADD SWAP1 SWAP2 MSTORE PUSH1 0x20 DUP2 ADD DUP1 MLOAD PUSH1 0x1 PUSH1 0x1 PUSH1 0xE0 SHL SUB AND PUSH4 0x23B872DD PUSH1 0xE0 SHL OR SWAP1 MSTORE PUSH2 0x9B8 SWAP1 DUP6 SWAP1 PUSH2 0x9BE JUMP JUMPDEST POP POP POP POP JUMP JUMPDEST PUSH1 0x0 PUSH2 0xA13 DUP3 PUSH1 0x40 MLOAD DUP1 PUSH1 0x40 ADD PUSH1 0x40 MSTORE DUP1 PUSH1 0x20 DUP2 MSTORE PUSH1 0x20 ADD PUSH32 0x5361666545524332303A206C6F772D6C6576656C2063616C6C206661696C6564 DUP2 MSTORE POP DUP6 PUSH1 0x1 PUSH1 0x1 PUSH1 0xA0 SHL SUB AND PUSH2 0xA95 SWAP1 SWAP3 SWAP2 SWAP1 PUSH4 0xFFFFFFFF AND JUMP JUMPDEST DUP1 MLOAD SWAP1 SWAP2 POP ISZERO PUSH2 0xA90 JUMPI DUP1 DUP1 PUSH1 0x20 ADD SWAP1 MLOAD DUP2 ADD SWAP1 PUSH2 0xA31 SWAP2 SWAP1 PUSH2 0xDB5 JUMP JUMPDEST PUSH2 0xA90 JUMPI PUSH1 0x40 MLOAD PUSH3 0x461BCD PUSH1 0xE5 SHL DUP2 MSTORE PUSH1 0x20 PUSH1 0x4 DUP3 ADD MSTORE PUSH1 0x2A PUSH1 0x24 DUP3 ADD MSTORE PUSH32 0x5361666545524332303A204552433230206F7065726174696F6E20646964206E PUSH1 0x44 DUP3 ADD MSTORE PUSH10 0x1BDD081CDD58D8D95959 PUSH1 0xB2 SHL PUSH1 0x64 DUP3 ADD MSTORE PUSH1 0x84 ADD PUSH2 0x24E JUMP JUMPDEST POP POP POP JUMP JUMPDEST PUSH1 0x60 PUSH2 0xAA4 DUP5 DUP5 PUSH1 0x0 DUP6 PUSH2 0xAAC JUMP JUMPDEST SWAP5 SWAP4 POP POP POP POP JUMP JUMPDEST PUSH1 0x60 DUP3 SELFBALANCE LT ISZERO PUSH2 0xB0D JUMPI PUSH1 0x40 MLOAD PUSH3 0x461BCD PUSH1 0xE5 SHL DUP2 MSTORE PUSH1 0x20 PUSH1 0x4 DUP3 ADD MSTORE PUSH1 0x26 PUSH1 0x24 DUP3 ADD MSTORE PUSH32 0x416464726573733A20696E73756666696369656E742062616C616E636520666F PUSH1 0x44 DUP3 ADD MSTORE PUSH6 0x1C8818D85B1B PUSH1 0xD2 SHL PUSH1 0x64 DUP3 ADD MSTORE PUSH1 0x84 ADD PUSH2 0x24E JUMP JUMPDEST PUSH1 0x0 DUP1 DUP7 PUSH1 0x1 PUSH1 0x1 PUSH1 0xA0 SHL SUB AND DUP6 DUP8 PUSH1 0x40 MLOAD PUSH2 0xB29 SWAP2 SWAP1 PUSH2 0xDD7 JUMP JUMPDEST PUSH1 0x0 PUSH1 0x40 MLOAD DUP1 DUP4 SUB DUP2 DUP6 DUP8 GAS CALL SWAP3 POP POP POP RETURNDATASIZE DUP1 PUSH1 0x0 DUP2 EQ PUSH2 0xB66 JUMPI PUSH1 0x40 MLOAD SWAP2 POP PUSH1 0x1F NOT PUSH1 0x3F RETURNDATASIZE ADD AND DUP3 ADD PUSH1 0x40 MSTORE RETURNDATASIZE DUP3 MSTORE RETURNDATASIZE PUSH1 0x0 PUSH1 0x20 DUP5 ADD RETURNDATACOPY PUSH2 0xB6B JUMP JUMPDEST PUSH1 0x60 SWAP2 POP JUMPDEST POP SWAP2 POP SWAP2 POP PUSH2 0xB7C DUP8 DUP4 DUP4 DUP8 PUSH2 0xB87 JUMP JUMPDEST SWAP8 SWAP7 POP POP POP POP POP POP POP JUMP JUMPDEST PUSH1 0x60 DUP4 ISZERO PUSH2 0xBF6 JUMPI DUP3 MLOAD PUSH1 0x0 SUB PUSH2 0xBEF JUMPI PUSH1 0x1 PUSH1 0x1 PUSH1 0xA0 SHL SUB DUP6 AND EXTCODESIZE PUSH2 0xBEF JUMPI PUSH1 0x40 MLOAD PUSH3 0x461BCD PUSH1 0xE5 SHL DUP2 MSTORE PUSH1 0x20 PUSH1 0x4 DUP3 ADD MSTORE PUSH1 0x1D PUSH1 0x24 DUP3 ADD MSTORE PUSH32 0x416464726573733A2063616C6C20746F206E6F6E2D636F6E7472616374000000 PUSH1 0x44 DUP3 ADD MSTORE PUSH1 0x64 ADD PUSH2 0x24E JUMP JUMPDEST POP DUP2 PUSH2 0xAA4 JUMP JUMPDEST PUSH2 0xAA4 DUP4 DUP4 DUP2 MLOAD ISZERO PUSH2 0xC0B JUMPI DUP2 MLOAD DUP1 DUP4 PUSH1 0x20 ADD REVERT JUMPDEST DUP1 PUSH1 0x40 MLOAD PUSH3 0x461BCD PUSH1 0xE5 SHL DUP2 MSTORE PUSH1 0x4 ADD PUSH2 0x24E SWAP2 SWAP1 PUSH2 0xDF3 JUMP JUMPDEST PUSH1 0x0 DUP1 PUSH1 0x0 PUSH1 0x60 DUP5 DUP7 SUB SLT ISZERO PUSH2 0xC3A JUMPI PUSH1 0x0 DUP1 REVERT JUMPDEST POP POP DUP2 CALLDATALOAD SWAP4 PUSH1 0x20 DUP4 ADD CALLDATALOAD SWAP4 POP PUSH1 0x40 SWAP1 SWAP3 ADD CALLDATALOAD SWAP2 SWAP1 POP JUMP JUMPDEST PUSH1 0x0 PUSH1 0x20 DUP3 DUP5 SUB SLT ISZERO PUSH2 0xC63 JUMPI PUSH1 0x0 DUP1 REVERT JUMPDEST POP CALLDATALOAD SWAP2 SWAP1 POP JUMP JUMPDEST DUP1 CALLDATALOAD PUSH1 0x1 PUSH1 0x1 PUSH1 0xA0 SHL SUB DUP2 AND DUP2 EQ PUSH2 0xC81 JUMPI PUSH1 0x0 DUP1 REVERT JUMPDEST SWAP2 SWAP1 POP JUMP JUMPDEST PUSH1 0x0 PUSH1 0x20 DUP3 DUP5 SUB SLT ISZERO PUSH2 0xC98 JUMPI PUSH1 0x0 DUP1 REVERT JUMPDEST PUSH2 0xCA1 DUP3 PUSH2 0xC6A JUMP JUMPDEST SWAP4 SWAP3 POP POP POP JUMP JUMPDEST PUSH1 0x0 DUP1 PUSH1 0x0 DUP1 PUSH1 0x0 PUSH1 0xA0 DUP7 DUP9 SUB SLT ISZERO PUSH2 0xCC0 JUMPI PUSH1 0x0 DUP1 REVERT JUMPDEST DUP6 CALLDATALOAD SWAP5 POP PUSH2 0xCD0 PUSH1 0x20 DUP8 ADD PUSH2 0xC6A JUMP JUMPDEST SWAP4 POP PUSH2 0xCDE PUSH1 0x40 DUP8 ADD PUSH2 0xC6A JUMP JUMPDEST SWAP3 POP PUSH1 0x60 DUP7 ADD CALLDATALOAD SWAP2 POP PUSH1 0x80 DUP7 ADD CALLDATALOAD PUSH12 0xFFFFFFFFFFFFFFFFFFFFFFFF DUP2 AND DUP2 EQ PUSH2 0xD06 JUMPI PUSH1 0x0 DUP1 REVERT JUMPDEST DUP1 SWAP2 POP POP SWAP3 SWAP6 POP SWAP3 SWAP6 SWAP1 SWAP4 POP JUMP JUMPDEST PUSH1 0x0 JUMPDEST DUP4 DUP2 LT ISZERO PUSH2 0xD2F JUMPI DUP2 DUP2 ADD MLOAD DUP4 DUP3 ADD MSTORE PUSH1 0x20 ADD PUSH2 0xD17 JUMP JUMPDEST DUP4 DUP2 GT ISZERO PUSH2 0x9B8 JUMPI POP POP PUSH1 0x0 SWAP2 ADD MSTORE JUMP JUMPDEST PUSH1 0x0 DUP2 MLOAD DUP1 DUP5 MSTORE PUSH2 0xD58 DUP2 PUSH1 0x20 DUP7 ADD PUSH1 0x20 DUP7 ADD PUSH2 0xD14 JUMP JUMPDEST PUSH1 0x1F ADD PUSH1 0x1F NOT AND SWAP3 SWAP1 SWAP3 ADD PUSH1 0x20 ADD SWAP3 SWAP2 POP POP JUMP JUMPDEST PUSH1 0x1 PUSH1 0x1 PUSH1 0xA0 SHL SUB DUP4 AND DUP2 MSTORE PUSH1 0x40 PUSH1 0x20 DUP3 ADD DUP2 SWAP1 MSTORE PUSH1 0x0 SWAP1 PUSH2 0xAA4 SWAP1 DUP4 ADD DUP5 PUSH2 0xD40 JUMP JUMPDEST PUSH1 0x0 DUP3 DUP3 LT ISZERO PUSH2 0xDB0 JUMPI PUSH4 0x4E487B71 PUSH1 0xE0 SHL PUSH1 0x0 MSTORE PUSH1 0x11 PUSH1 0x4 MSTORE PUSH1 0x24 PUSH1 0x0 REVERT JUMPDEST POP SUB SWAP1 JUMP JUMPDEST PUSH1 0x0 PUSH1 0x20 DUP3 DUP5 SUB SLT ISZERO PUSH2 0xDC7 JUMPI PUSH1 0x0 DUP1 REVERT JUMPDEST DUP2 MLOAD DUP1 ISZERO ISZERO DUP2 EQ PUSH2 0xCA1 JUMPI PUSH1 0x0 DUP1 REVERT JUMPDEST PUSH1 0x0 DUP3 MLOAD PUSH2 0xDE9 DUP2 DUP5 PUSH1 0x20 DUP8 ADD PUSH2 0xD14 JUMP JUMPDEST SWAP2 SWAP1 SWAP2 ADD SWAP3 SWAP2 POP POP JUMP JUMPDEST PUSH1 0x20 DUP2 MSTORE PUSH1 0x0 PUSH2 0xCA1 PUSH1 0x20 DUP4 ADD DUP5 PUSH2 0xD40 JUMP INVALID LOG2 PUSH5 0x6970667358 0x22 SLT KECCAK256 0xE4 SWAP6 SAR MOD REVERT MUL SWAP13 PUSH28 0x126C13C8086280651E30CC57802C727C5353F2CB3950C2AB64736F6C PUSH4 0x4300080D STOP CALLER ",
  "sha1": "5e2b9127cb5e416f5b9163432ab032e94e11aea5",
  "source": "// SPDX-License-Identifier: MIT\npragma solidity ^0.8.12;\n\nimport \"OpenZeppelin/openzeppelin-contracts@4.8.0/contracts/token/ERC20/IERC20.sol\";\nimport \"OpenZeppelin/openzeppelin-contracts@4.8.0/contracts/token/ERC20/utils/SafeERC20.sol\";\nimport \"OpenZeppelin/openzeppelin-contracts@4.8.0/contracts/access/Ownable.sol\";\nimport \"./LpWhitelist.sol\";\nimport \"../interfaces/IMessenger.sol\";\nimport \"./BeamerUtils.sol\";\nimport \"./Resolver.sol\";\n\n/// The fill manager.\n///\n/// This contract is responsible for keeping track of filled requests. In addition to allowing\n/// agents to (eventually) prove that they filled requests, it also allows anyone to invalidate\n/// a claim that a request was filled.\n///\n/// It is the only contract that agents need to interact with on the target chain.\ncontract FillManager is Ownable, LpWhitelist {\n    using SafeERC20 for IERC20;\n\n    /// Emitted when a request has been filled.\n    ///\n    /// .. seealso:: :sol:func:`fillRequest`\n    event RequestFilled(\n        bytes32 indexed requestId,\n        bytes32 fillId,\n        uint256 indexed sourceChainId,\n        address indexed targetTokenAddress,\n        address filler,\n        uint256 amount\n    );\n\n    /// Emitted when a fill has been invalidated.\n    ///\n    /// .. seealso:: :sol:func:`invalidateFill`\n    event FillInvalidated(bytes32 indexed requestId, bytes32 indexed fillId);\n\n    // The messenger to send messages to L1\n    //\n    // It is used to send proofs to L1. The specific implementation of the\n    // :sol:interface:`IMessenger` interface is chain-dependent.\n    IMessenger public immutable messenger;\n\n    /// The L1 :sol:contract:`Resolver` contract to be used for L1 resolution.\n    address public l1Resolver;\n\n    /// Maps request IDs to fill IDs.\n    mapping(bytes32 => bytes32) public fills;\n\n    /// Constructor.\n    ///\n    /// @param _messenger The messenger.\n    constructor(address _messenger) {\n        messenger = IMessenger(_messenger);\n    }\n\n    /// Set the resolver's address\n    ///\n    /// Can only ever be set once. Before it is set, no fills or invalidations are possible\n    ///\n    /// @param _l1Resolver The L1 resolver address\n    function setResolver(address _l1Resolver) public onlyOwner {\n        require(l1Resolver == address(0), \"Resolver already set\");\n        l1Resolver = _l1Resolver;\n    }\n\n    /// Fill the specified request.\n    ///\n    /// The caller must have approved at least ``amount`` tokens for :sol:contract:`FillManager`\n    /// with the ERC20 token contract at ``targetTokenAddress``. The tokens will be immediately\n    /// sent to ``targetReceiverAddress`` and a fill proof will be generated, which can later\n    /// be used to trigger L1 resolution, if needed.\n    ///\n    /// @param sourceChainId The source chain ID.\n    /// @param targetTokenAddress Address of the token contract on the target chain.\n    /// @param targetReceiverAddress Recipient address on the target chain.\n    /// @param amount Amount of tokens to transfer. Does not include fees.\n    /// @param nonce The nonce used to create the request ID.\n    /// @return The fill ID.\n    function fillRequest(\n        uint256 sourceChainId,\n        address targetTokenAddress,\n        address targetReceiverAddress,\n        uint256 amount,\n        uint96 nonce\n    ) external onlyWhitelist returns (bytes32) {\n        address _l1Resolver = l1Resolver;\n        require(_l1Resolver != address(0), \"Resolver address not set\");\n        bytes32 requestId = BeamerUtils.createRequestId(\n            sourceChainId,\n            block.chainid,\n            targetTokenAddress,\n            targetReceiverAddress,\n            amount,\n            nonce\n        );\n\n        require(fills[requestId] == bytes32(0), \"Already filled\");\n\n        IERC20 token = IERC20(targetTokenAddress);\n        token.safeTransferFrom(msg.sender, targetReceiverAddress, amount);\n\n        bytes32 fillId = generateFillId();\n        fills[requestId] = fillId;\n\n        messenger.sendMessage(\n            _l1Resolver,\n            abi.encodeCall(\n                Resolver.resolve,\n                (requestId, fillId, block.chainid, sourceChainId, msg.sender)\n            )\n        );\n\n        emit RequestFilled(\n            requestId,\n            fillId,\n            sourceChainId,\n            targetTokenAddress,\n            msg.sender,\n            amount\n        );\n\n        return fillId;\n    }\n\n    /// Invalidate the specified fill.\n    ///\n    /// In cases that a claim has been made on the source chain, but without a corresponding fill\n    /// actually happening on the target chain, anyone can call this function to mark the fill\n    /// as invalid. This is typically followed by a challenge game on the source chain, which\n    /// the dishonest claimer is guaranteed to lose as soon as the information about the invalid\n    /// fill (so called \"non-fill proof\") is propagated to the source chain via L1 resolution.\n    ///\n    /// @param requestId The request ID.\n    /// @param fillId The fill ID.\n    /// @param sourceChainId The source chain ID.\n    function invalidateFill(\n        bytes32 requestId,\n        bytes32 fillId,\n        uint256 sourceChainId\n    ) external {\n        address _l1Resolver = l1Resolver;\n        require(_l1Resolver != address(0), \"Resolver address not set\");\n        require(fills[requestId] != fillId, \"Fill valid\");\n        require(\n            fillId != generateFillId(),\n            \"Cannot invalidate fills of current block\"\n        );\n\n        messenger.sendMessage(\n            _l1Resolver,\n            abi.encodeCall(\n                Resolver.resolve,\n                (requestId, fillId, block.chainid, sourceChainId, address(0))\n            )\n        );\n        emit FillInvalidated(requestId, fillId);\n    }\n\n    /// Generate a fill ID.\n    ///\n    /// The fill ID is defined as the previous block hash.\n    ///\n    /// @return The current fill ID\n    function generateFillId() private view returns (bytes32) {\n        return blockhash(block.number - 1);\n    }\n}\n",
  "sourcePath": "contracts/contracts/FillManager.sol",
  "type": "contract"
}