{
  "abi": [
    {
      "inputs": [
        {
          "internalType": "uint256",
          "name": "_claimStake",
          "type": "uint256"
        },
        {
          "internalType": "uint256",
          "name": "_claimRequestExtension",
          "type": "uint256"
        },
        {
          "internalType": "uint256",
          "name": "_claimPeriod",
          "type": "uint256"
        },
        {
          "internalType": "uint256",
          "name": "_challengePeriodExtension",
          "type": "uint256"
        }
      ],
      "stateMutability": "nonpayable",
      "type": "constructor"
    },
    {
      "anonymous": false,
      "inputs": [
        {
          "indexed": true,
          "internalType": "bytes32",
          "name": "requestId",
          "type": "bytes32"
        },
        {
          "indexed": false,
          "internalType": "uint96",
          "name": "claimId",
          "type": "uint96"
        },
        {
          "indexed": false,
          "internalType": "address",
          "name": "claimer",
          "type": "address"
        },
        {
          "indexed": false,
          "internalType": "uint256",
          "name": "claimerStake",
          "type": "uint256"
        },
        {
          "indexed": false,
          "internalType": "address",
          "name": "lastChallenger",
          "type": "address"
        },
        {
          "indexed": false,
          "internalType": "uint256",
          "name": "challengerStakeTotal",
          "type": "uint256"
        },
        {
          "indexed": false,
          "internalType": "uint256",
          "name": "termination",
          "type": "uint256"
        },
        {
          "indexed": false,
          "internalType": "bytes32",
          "name": "fillId",
          "type": "bytes32"
        }
      ],
      "name": "ClaimMade",
      "type": "event"
    },
    {
      "anonymous": false,
      "inputs": [
        {
          "indexed": false,
          "internalType": "uint96",
          "name": "claimId",
          "type": "uint96"
        },
        {
          "indexed": true,
          "internalType": "bytes32",
          "name": "requestId",
          "type": "bytes32"
        },
        {
          "indexed": false,
          "internalType": "address",
          "name": "claimReceiver",
          "type": "address"
        }
      ],
      "name": "ClaimStakeWithdrawn",
      "type": "event"
    },
    {
      "anonymous": false,
      "inputs": [
        {
          "indexed": false,
          "internalType": "bytes32",
          "name": "requestId",
          "type": "bytes32"
        },
        {
          "indexed": false,
          "internalType": "address",
          "name": "receiver",
          "type": "address"
        }
      ],
      "name": "DepositWithdrawn",
      "type": "event"
    },
    {
      "anonymous": false,
      "inputs": [
        {
          "indexed": false,
          "internalType": "bytes32",
          "name": "requestId",
          "type": "bytes32"
        },
        {
          "indexed": false,
          "internalType": "bytes32",
          "name": "fillId",
          "type": "bytes32"
        }
      ],
      "name": "FillInvalidatedResolved",
      "type": "event"
    },
    {
      "anonymous": false,
      "inputs": [
        {
          "indexed": false,
          "internalType": "uint256",
          "name": "targetChainId",
          "type": "uint256"
        },
        {
          "indexed": false,
          "internalType": "uint256",
          "name": "finalityPeriod",
          "type": "uint256"
        }
      ],
      "name": "FinalityPeriodUpdated",
      "type": "event"
    },
    {
      "anonymous": false,
      "inputs": [
        {
          "indexed": false,
          "internalType": "address",
          "name": "lp",
          "type": "address"
        }
      ],
      "name": "LpAdded",
      "type": "event"
    },
    {
      "anonymous": false,
      "inputs": [
        {
          "indexed": false,
          "internalType": "address",
          "name": "lp",
          "type": "address"
        }
      ],
      "name": "LpRemoved",
      "type": "event"
    },
    {
      "anonymous": false,
      "inputs": [
        {
          "indexed": true,
          "internalType": "address",
          "name": "previousOwner",
          "type": "address"
        },
        {
          "indexed": true,
          "internalType": "address",
          "name": "newOwner",
          "type": "address"
        }
      ],
      "name": "OwnershipTransferred",
      "type": "event"
    },
    {
      "anonymous": false,
      "inputs": [
        {
          "indexed": false,
          "internalType": "address",
          "name": "account",
          "type": "address"
        }
      ],
      "name": "Paused",
      "type": "event"
    },
    {
      "anonymous": false,
      "inputs": [
        {
          "indexed": true,
          "internalType": "bytes32",
          "name": "requestId",
          "type": "bytes32"
        },
        {
          "indexed": false,
          "internalType": "uint256",
          "name": "targetChainId",
          "type": "uint256"
        },
        {
          "indexed": false,
          "internalType": "address",
          "name": "sourceTokenAddress",
          "type": "address"
        },
        {
          "indexed": false,
          "internalType": "address",
          "name": "targetTokenAddress",
          "type": "address"
        },
        {
          "indexed": false,
          "internalType": "address",
          "name": "targetAddress",
          "type": "address"
        },
        {
          "indexed": false,
          "internalType": "uint256",
          "name": "amount",
          "type": "uint256"
        },
        {
          "indexed": false,
          "internalType": "uint96",
          "name": "nonce",
          "type": "uint96"
        },
        {
          "indexed": false,
          "internalType": "uint32",
          "name": "validUntil",
          "type": "uint32"
        }
      ],
      "name": "RequestCreated",
      "type": "event"
    },
    {
      "anonymous": false,
      "inputs": [
        {
          "indexed": false,
          "internalType": "bytes32",
          "name": "requestId",
          "type": "bytes32"
        },
        {
          "indexed": false,
          "internalType": "address",
          "name": "filler",
          "type": "address"
        },
        {
          "indexed": false,
          "internalType": "bytes32",
          "name": "fillId",
          "type": "bytes32"
        }
      ],
      "name": "RequestResolved",
      "type": "event"
    },
    {
      "anonymous": false,
      "inputs": [
        {
          "indexed": false,
          "internalType": "address",
          "name": "account",
          "type": "address"
        }
      ],
      "name": "Unpaused",
      "type": "event"
    },
    {
      "inputs": [],
      "name": "CLAIM_ID_WITHDRAWN_EXPIRED",
      "outputs": [
        {
          "internalType": "uint96",
          "name": "",
          "type": "uint96"
        }
      ],
      "stateMutability": "view",
      "type": "function"
    },
    {
      "inputs": [],
      "name": "MAX_VALIDITY_PERIOD",
      "outputs": [
        {
          "internalType": "uint256",
          "name": "",
          "type": "uint256"
        }
      ],
      "stateMutability": "view",
      "type": "function"
    },
    {
      "inputs": [],
      "name": "MIN_VALIDITY_PERIOD",
      "outputs": [
        {
          "internalType": "uint256",
          "name": "",
          "type": "uint256"
        }
      ],
      "stateMutability": "view",
      "type": "function"
    },
    {
      "inputs": [
        {
          "internalType": "address",
          "name": "newLp",
          "type": "address"
        }
      ],
      "name": "addAllowedLp",
      "outputs": [],
      "stateMutability": "nonpayable",
      "type": "function"
    },
    {
      "inputs": [
        {
          "internalType": "uint256",
          "name": "callerChainId",
          "type": "uint256"
        },
        {
          "internalType": "address",
          "name": "caller",
          "type": "address"
        },
        {
          "internalType": "address",
          "name": "messenger",
          "type": "address"
        }
      ],
      "name": "addCaller",
      "outputs": [],
      "stateMutability": "nonpayable",
      "type": "function"
    },
    {
      "inputs": [
        {
          "internalType": "address",
          "name": "caller",
          "type": "address"
        }
      ],
      "name": "addCaller",
      "outputs": [],
      "stateMutability": "nonpayable",
      "type": "function"
    },
    {
      "inputs": [
        {
          "internalType": "address",
          "name": "",
          "type": "address"
        }
      ],
      "name": "allowedLps",
      "outputs": [
        {
          "internalType": "bool",
          "name": "",
          "type": "bool"
        }
      ],
      "stateMutability": "view",
      "type": "function"
    },
    {
      "inputs": [
        {
          "internalType": "uint256",
          "name": "",
          "type": "uint256"
        },
        {
          "internalType": "uint256",
          "name": "",
          "type": "uint256"
        }
      ],
      "name": "callers",
      "outputs": [
        {
          "internalType": "address",
          "name": "",
          "type": "address"
        }
      ],
      "stateMutability": "view",
      "type": "function"
    },
    {
      "inputs": [
        {
          "internalType": "uint96",
          "name": "claimId",
          "type": "uint96"
        }
      ],
      "name": "challengeClaim",
      "outputs": [],
      "stateMutability": "payable",
      "type": "function"
    },
    {
      "inputs": [],
      "name": "challengePeriodExtension",
      "outputs": [
        {
          "internalType": "uint256",
          "name": "",
          "type": "uint256"
        }
      ],
      "stateMutability": "view",
      "type": "function"
    },
    {
      "inputs": [],
      "name": "claimPeriod",
      "outputs": [
        {
          "internalType": "uint256",
          "name": "",
          "type": "uint256"
        }
      ],
      "stateMutability": "view",
      "type": "function"
    },
    {
      "inputs": [
        {
          "internalType": "bytes32",
          "name": "requestId",
          "type": "bytes32"
        },
        {
          "internalType": "bytes32",
          "name": "fillId",
          "type": "bytes32"
        }
      ],
      "name": "claimRequest",
      "outputs": [
        {
          "internalType": "uint96",
          "name": "",
          "type": "uint96"
        }
      ],
      "stateMutability": "payable",
      "type": "function"
    },
    {
      "inputs": [],
      "name": "claimRequestExtension",
      "outputs": [
        {
          "internalType": "uint256",
          "name": "",
          "type": "uint256"
        }
      ],
      "stateMutability": "view",
      "type": "function"
    },
    {
      "inputs": [],
      "name": "claimStake",
      "outputs": [
        {
          "internalType": "uint256",
          "name": "",
          "type": "uint256"
        }
      ],
      "stateMutability": "view",
      "type": "function"
    },
    {
      "inputs": [
        {
          "internalType": "uint96",
          "name": "",
          "type": "uint96"
        }
      ],
      "name": "claims",
      "outputs": [
        {
          "internalType": "bytes32",
          "name": "requestId",
          "type": "bytes32"
        },
        {
          "internalType": "address",
          "name": "claimer",
          "type": "address"
        },
        {
          "internalType": "uint256",
          "name": "claimerStake",
          "type": "uint256"
        },
        {
          "internalType": "address",
          "name": "lastChallenger",
          "type": "address"
        },
        {
          "internalType": "uint256",
          "name": "challengerStakeTotal",
          "type": "uint256"
        },
        {
          "internalType": "uint256",
          "name": "withdrawnAmount",
          "type": "uint256"
        },
        {
          "internalType": "uint256",
          "name": "termination",
          "type": "uint256"
        },
        {
          "internalType": "bytes32",
          "name": "fillId",
          "type": "bytes32"
        }
      ],
      "stateMutability": "view",
      "type": "function"
    },
    {
      "inputs": [
        {
          "internalType": "address",
          "name": "",
          "type": "address"
        }
      ],
      "name": "collectedProtocolFees",
      "outputs": [
        {
          "internalType": "uint256",
          "name": "",
          "type": "uint256"
        }
      ],
      "stateMutability": "view",
      "type": "function"
    },
    {
      "inputs": [
        {
          "internalType": "uint256",
          "name": "targetChainId",
          "type": "uint256"
        },
        {
          "internalType": "address",
          "name": "sourceTokenAddress",
          "type": "address"
        },
        {
          "internalType": "address",
          "name": "targetTokenAddress",
          "type": "address"
        },
        {
          "internalType": "address",
          "name": "targetAddress",
          "type": "address"
        },
        {
          "internalType": "uint256",
          "name": "amount",
          "type": "uint256"
        },
        {
          "internalType": "uint256",
          "name": "validityPeriod",
          "type": "uint256"
        }
      ],
      "name": "createRequest",
      "outputs": [
        {
          "internalType": "bytes32",
          "name": "",
          "type": "bytes32"
        }
      ],
      "stateMutability": "nonpayable",
      "type": "function"
    },
    {
      "inputs": [],
      "name": "currentNonce",
      "outputs": [
        {
          "internalType": "uint96",
          "name": "",
          "type": "uint96"
        }
      ],
      "stateMutability": "view",
      "type": "function"
    },
    {
      "inputs": [
        {
          "internalType": "uint256",
          "name": "",
          "type": "uint256"
        }
      ],
      "name": "finalityPeriods",
      "outputs": [
        {
          "internalType": "uint256",
          "name": "",
          "type": "uint256"
        }
      ],
      "stateMutability": "view",
      "type": "function"
    },
    {
      "inputs": [
        {
          "internalType": "bytes32",
          "name": "requestId",
          "type": "bytes32"
        },
        {
          "internalType": "bytes32",
          "name": "fillId",
          "type": "bytes32"
        },
        {
          "internalType": "uint256",
          "name": "resolutionChainId",
          "type": "uint256"
        }
      ],
      "name": "invalidateFill",
      "outputs": [],
      "stateMutability": "nonpayable",
      "type": "function"
    },
    {
      "inputs": [
        {
          "internalType": "bytes32",
          "name": "requestId",
          "type": "bytes32"
        },
        {
          "internalType": "bytes32",
          "name": "fillId",
          "type": "bytes32"
        }
      ],
      "name": "isInvalidFill",
      "outputs": [
        {
          "internalType": "bool",
          "name": "",
          "type": "bool"
        }
      ],
      "stateMutability": "view",
      "type": "function"
    },
    {
      "inputs": [
        {
          "internalType": "bytes32",
          "name": "requestId",
          "type": "bytes32"
        }
      ],
      "name": "isWithdrawn",
      "outputs": [
        {
          "internalType": "bool",
          "name": "",
          "type": "bool"
        }
      ],
      "stateMutability": "view",
      "type": "function"
    },
    {
      "inputs": [
        {
          "internalType": "uint256",
          "name": "amount",
          "type": "uint256"
        }
      ],
      "name": "lpFee",
      "outputs": [
        {
          "internalType": "uint256",
          "name": "",
          "type": "uint256"
        }
      ],
      "stateMutability": "view",
      "type": "function"
    },
    {
      "inputs": [],
      "name": "lpFeePPM",
      "outputs": [
        {
          "internalType": "uint256",
          "name": "",
          "type": "uint256"
        }
      ],
      "stateMutability": "view",
      "type": "function"
    },
    {
      "inputs": [],
      "name": "minLpFee",
      "outputs": [
        {
          "internalType": "uint256",
          "name": "",
          "type": "uint256"
        }
      ],
      "stateMutability": "view",
      "type": "function"
    },
    {
      "inputs": [],
      "name": "owner",
      "outputs": [
        {
          "internalType": "address",
          "name": "",
          "type": "address"
        }
      ],
      "stateMutability": "view",
      "type": "function"
    },
    {
      "inputs": [],
      "name": "pause",
      "outputs": [],
      "stateMutability": "nonpayable",
      "type": "function"
    },
    {
      "inputs": [],
      "name": "paused",
      "outputs": [
        {
          "internalType": "bool",
          "name": "",
          "type": "bool"
        }
      ],
      "stateMutability": "view",
      "type": "function"
    },
    {
      "inputs": [
        {
          "internalType": "uint256",
          "name": "amount",
          "type": "uint256"
        }
      ],
      "name": "protocolFee",
      "outputs": [
        {
          "internalType": "uint256",
          "name": "",
          "type": "uint256"
        }
      ],
      "stateMutability": "view",
      "type": "function"
    },
    {
      "inputs": [],
      "name": "protocolFeePPM",
      "outputs": [
        {
          "internalType": "uint256",
          "name": "",
          "type": "uint256"
        }
      ],
      "stateMutability": "view",
      "type": "function"
    },
    {
      "inputs": [
        {
          "internalType": "address",
          "name": "oldLp",
          "type": "address"
        }
      ],
      "name": "removeAllowedLp",
      "outputs": [],
      "stateMutability": "nonpayable",
      "type": "function"
    },
    {
      "inputs": [],
      "name": "renounceOwnership",
      "outputs": [],
      "stateMutability": "nonpayable",
      "type": "function"
    },
    {
      "inputs": [
        {
          "internalType": "bytes32",
          "name": "",
          "type": "bytes32"
        }
      ],
      "name": "requests",
      "outputs": [
        {
          "internalType": "address",
          "name": "sender",
          "type": "address"
        },
        {
          "internalType": "address",
          "name": "sourceTokenAddress",
          "type": "address"
        },
        {
          "internalType": "uint256",
          "name": "targetChainId",
          "type": "uint256"
        },
        {
          "internalType": "uint256",
          "name": "amount",
          "type": "uint256"
        },
        {
          "internalType": "uint32",
          "name": "validUntil",
          "type": "uint32"
        },
        {
          "internalType": "uint96",
          "name": "lpFee",
          "type": "uint96"
        },
        {
          "internalType": "uint96",
          "name": "protocolFee",
          "type": "uint96"
        },
        {
          "internalType": "uint32",
          "name": "activeClaims",
          "type": "uint32"
        },
        {
          "internalType": "uint96",
          "name": "withdrawClaimId",
          "type": "uint96"
        },
        {
          "internalType": "address",
          "name": "filler",
          "type": "address"
        },
        {
          "internalType": "bytes32",
          "name": "fillId",
          "type": "bytes32"
        }
      ],
      "stateMutability": "view",
      "type": "function"
    },
    {
      "inputs": [
        {
          "internalType": "bytes32",
          "name": "requestId",
          "type": "bytes32"
        },
        {
          "internalType": "bytes32",
          "name": "fillId",
          "type": "bytes32"
        },
        {
          "internalType": "uint256",
          "name": "resolutionChainId",
          "type": "uint256"
        },
        {
          "internalType": "address",
          "name": "filler",
          "type": "address"
        }
      ],
      "name": "resolveRequest",
      "outputs": [],
      "stateMutability": "nonpayable",
      "type": "function"
    },
    {
      "inputs": [
        {
          "internalType": "uint256",
          "name": "targetChainId",
          "type": "uint256"
        },
        {
          "internalType": "uint256",
          "name": "finalityPeriod",
          "type": "uint256"
        }
      ],
      "name": "setFinalityPeriod",
      "outputs": [],
      "stateMutability": "nonpayable",
      "type": "function"
    },
    {
      "inputs": [
        {
          "internalType": "uint256",
          "name": "amount",
          "type": "uint256"
        }
      ],
      "name": "totalFee",
      "outputs": [
        {
          "internalType": "uint256",
          "name": "",
          "type": "uint256"
        }
      ],
      "stateMutability": "view",
      "type": "function"
    },
    {
      "inputs": [],
      "name": "transferLimit",
      "outputs": [
        {
          "internalType": "uint256",
          "name": "",
          "type": "uint256"
        }
      ],
      "stateMutability": "view",
      "type": "function"
    },
    {
      "inputs": [
        {
          "internalType": "address",
          "name": "newOwner",
          "type": "address"
        }
      ],
      "name": "transferOwnership",
      "outputs": [],
      "stateMutability": "nonpayable",
      "type": "function"
    },
    {
      "inputs": [],
      "name": "unpause",
      "outputs": [],
      "stateMutability": "nonpayable",
      "type": "function"
    },
    {
      "inputs": [
        {
          "internalType": "uint256",
          "name": "newProtocolFeePPM",
          "type": "uint256"
        },
        {
          "internalType": "uint256",
          "name": "newLpFeePPM",
          "type": "uint256"
        },
        {
          "internalType": "uint256",
          "name": "newMinLpFee",
          "type": "uint256"
        }
      ],
      "name": "updateFeeData",
      "outputs": [],
      "stateMutability": "nonpayable",
      "type": "function"
    },
    {
      "inputs": [
        {
          "internalType": "uint256",
          "name": "newTransferLimit",
          "type": "uint256"
        }
      ],
      "name": "updateTransferLimit",
      "outputs": [],
      "stateMutability": "nonpayable",
      "type": "function"
    },
    {
      "inputs": [
        {
          "internalType": "uint96",
          "name": "claimId",
          "type": "uint96"
        }
      ],
      "name": "withdraw",
      "outputs": [
        {
          "internalType": "address",
          "name": "",
          "type": "address"
        }
      ],
      "stateMutability": "nonpayable",
      "type": "function"
    },
    {
      "inputs": [
        {
          "internalType": "bytes32",
          "name": "requestId",
          "type": "bytes32"
        }
      ],
      "name": "withdrawExpiredRequest",
      "outputs": [],
      "stateMutability": "nonpayable",
      "type": "function"
    },
    {
      "inputs": [
        {
          "internalType": "address",
          "name": "tokenAddress",
          "type": "address"
        },
        {
          "internalType": "address",
          "name": "recipient",
          "type": "address"
        }
      ],
      "name": "withdrawProtocolFees",
      "outputs": [],
      "stateMutability": "nonpayable",
      "type": "function"
    }
  ],
  "bytecode": "610100604052674563918244f400006007556103e8600855600060095569021e19e0c9bab2400000600a553480156200003757600080fd5b5060405162003411380380620034118339810160408190526200005a91620000d7565b620000653362000087565b6003805460ff1916905560809390935260a09190915260c05260e0526200010e565b600080546001600160a01b038381166001600160a01b0319831681178455604051919092169283917f8be0079c531659141344cd1fd0a4f28419497f9722a3daafe3b4186f6b6457e09190a35050565b60008060008060808587031215620000ee57600080fd5b505082516020840151604085015160609095015191969095509092509050565b60805160a05160c05160e0516132a66200016b600039600081816103310152611bdf01526000818161063301526116cd01526000818161066701526114bd01526000818161096f015281816115990152611d4b01526132a66000f3fe6080604052600436106102675760003560e01c80637dc2cd9811610144578063cf7b287f116100b6578063e7aad5c41161007a578063e7aad5c41461092c578063ea62889814610942578063eb3211731461095d578063f2fde38b14610991578063f7d64cec146109b1578063f9432517146109d157600080fd5b8063cf7b287f14610896578063d137920b146108b6578063d762a37b146108d6578063dee4dea0146108f6578063e2653eeb1461091657600080fd5b80639d866985116101085780639d866985146106d35780639e375226146107ee578063a032b5f41461081e578063adb610a31461083e578063b4d1d27a14610863578063cea74edf1461087657600080fd5b80637dc2cd981461062157806383d208c3146106555780638456cb59146106895780638da5cb5b1461069e57806396171d05146106bc57600080fd5b80633f4ba83a116101dd578063715018a6116101a1578063715018a6146105615780637203ae3b14610576578063743c151a14610596578063747293fb146105c157806378da194b146105e1578063796505591461060157600080fd5b80633f4ba83a146104d15780635b3a6ef2146104e65780635c975abb146105065780635d5aa11b1461051e5780636bc6c8d11461053457600080fd5b80632f4212b81161022f5780632f4212b8146103535780632f92f0091461037357806330a08cbc146103a057806331e08f7a146103df5780633993b6ed146103ff5780633b046f091461041f57600080fd5b806303fc4c371461026c5780630e19a1c61461028e5780630e3a918c146102cb5780631489f8d2146102fb5780631d18adc51461031f575b600080fd5b34801561027857600080fd5b5061028c610287366004612e03565b6109e7565b005b34801561029a57600080fd5b506102ae6102a9366004612e2f565b610c38565b6040516001600160a01b0390911681526020015b60405180910390f35b3480156102d757600080fd5b506102eb6102e6366004612e51565b610c66565b60405190151581526020016102c2565b34801561030757600080fd5b5061031161070881565b6040519081526020016102c2565b34801561032b57600080fd5b506103117f000000000000000000000000000000000000000000000000000000000000000081565b34801561035f57600080fd5b5061031161036e366004612e86565b610cbf565b34801561037f57600080fd5b5061031161038e366004612e51565b60046020526000908152604090205481565b3480156103ac57600080fd5b506102eb6103bb366004612e2f565b60009182526005602090815260408084209284526007909201905290205460ff1690565b3480156103eb57600080fd5b5061028c6103fa366004612ee5565b61116c565b34801561040b57600080fd5b5061028c61041a366004612ee5565b6111d0565b34801561042b57600080fd5b5061048b61043a366004612f00565b60066020819052600091825260409091208054600182015460028301546004840154600585015495850154600786015460089096015494966001600160a01b03948516969395929094169392909188565b604080519889526001600160a01b0397881660208a0152880195909552949092166060860152608085015260a084015260c083019190915260e0820152610100016102c2565b3480156104dd57600080fd5b5061028c611229565b3480156104f257600080fd5b5061028c610501366004612f29565b61123b565b34801561051257600080fd5b5060035460ff166102eb565b34801561052a57600080fd5b5061031160075481565b34801561054057600080fd5b5061031161054f366004612ee5565b600b6020526000908152604090205481565b34801561056d57600080fd5b5061028c6113ec565b34801561058257600080fd5b5061028c610591366004612f68565b6113fe565b6105a96105a4366004612e2f565b611416565b6040516001600160601b0390911681526020016102c2565b3480156105cd57600080fd5b5061028c6105dc366004612ee5565b6117bb565b3480156105ed57600080fd5b5061028c6105fc366004612e03565b6117d2565b34801561060d57600080fd5b5061028c61061c366004612e51565b6117e8565b34801561062d57600080fd5b506103117f000000000000000000000000000000000000000000000000000000000000000081565b34801561066157600080fd5b506103117f000000000000000000000000000000000000000000000000000000000000000081565b34801561069557600080fd5b5061028c611a00565b3480156106aa57600080fd5b506000546001600160a01b03166102ae565b3480156106c857600080fd5b506103116202a30081565b3480156106df57600080fd5b506107786106ee366004612e51565b600560208190526000918252604090912080546001820154600283015460038401546004850154958501546006909501546001600160a01b0394851696938516959294919363ffffffff808216946001600160601b036401000000008404811695600160801b8504821695600160e01b9095049093169390821692600160601b909204909116908b565b604080516001600160a01b039c8d1681529a8c1660208c01528a0198909852606089019690965263ffffffff94851660808901526001600160601b0393841660a089015291831660c088015290921660e086015216610100840152909216610120820152610140810191909152610160016102c2565b3480156107fa57600080fd5b506102eb610809366004612ee5565b60016020526000908152604090205460ff1681565b34801561082a57600080fd5b50610311610839366004612e51565b611a10565b34801561084a57600080fd5b506003546105a99061010090046001600160601b031681565b61028c610871366004612f00565b611a34565b34801561088257600080fd5b50610311610891366004612e51565b611ecb565b3480156108a257600080fd5b5061028c6108b1366004612fa4565b611ee9565b3480156108c257600080fd5b5061028c6108d1366004612e2f565b611f74565b3480156108e257600080fd5b5061028c6108f1366004612e51565b61202a565b34801561090257600080fd5b506102ae610911366004612f00565b612037565b34801561092257600080fd5b5061031160085481565b34801561093857600080fd5b5061031160095481565b34801561094e57600080fd5b506105a96001600160601b0381565b34801561096957600080fd5b506103117f000000000000000000000000000000000000000000000000000000000000000081565b34801561099d57600080fd5b5061028c6109ac366004612ee5565b612307565b3480156109bd57600080fd5b506103116109cc366004612e51565b61237d565b3480156109dd57600080fd5b50610311600a5481565b60008181526002602052604090205481906001600160a01b0316468203610a3e57336001600160a01b03821614610a395760405162461bcd60e51b8152600401610a3090612fd7565b60405180910390fd5b610b04565b6000828152600260205260409020600101546001600160a01b031680610a765760405162461bcd60e51b8152600401610a309061300c565b60405163845c544360e01b81526001600160a01b03838116600483015233602483015282169063845c544390604401602060405180830381865afa158015610ac2573d6000803e3d6000fd5b505050506040513d601f19601f82011682018060405250810190610ae6919061304e565b610b025760405162461bcd60e51b8152600401610a3090612fd7565b505b600085815260056020819052604090912090810154600160601b90046001600160a01b031615610b765760405162461bcd60e51b815260206004820181905260248201527f43616e6e6f7420696e76616c6964617465207265736f6c7665642066696c6c736044820152606401610a30565b600085815260078201602052604090205460ff1615610bd25760405162461bcd60e51b8152602060048201526018602482015277119a5b1b08185b1c9958591e481a5b9d985b1a59185d195960421b6044820152606401610a30565b600085815260078201602052604090819020805460ff19166001179055517f5571b83c623961fb42d39ce6d6d2092153ace66c008e2dc2472ec6d2e8fad04590610c289088908890918252602082015260400190565b60405180910390a1505050505050565b60026020528160005260406000208160028110610c5457600080fd5b01546001600160a01b03169150829050565b60008181526005602052604081205482906001600160a01b0316610c9c5760405162461bcd60e51b8152600401610a3090613070565b5050600090815260056020819052604090912001546001600160601b0316151590565b6000610cc96123a6565b6000878152600460205260408120549003610d265760405162461bcd60e51b815260206004820152601b60248201527f54617267657420726f6c6c7570206e6f7420737570706f7274656400000000006044820152606401610a30565b610708821015610d785760405162461bcd60e51b815260206004820152601960248201527f56616c696469747920706572696f6420746f6f2073686f7274000000000000006044820152606401610a30565b6202a300821115610dcb5760405162461bcd60e51b815260206004820152601860248201527f56616c696469747920706572696f6420746f6f206c6f6e6700000000000000006044820152606401610a30565b600a54831115610e1d5760405162461bcd60e51b815260206004820152601d60248201527f416d6f756e742065786365656473207472616e73666572206c696d69740000006044820152606401610a30565b856000610e298561237d565b90506000610e3686611a10565b905080610e4383886130b3565b610e4d91906130b3565b604051636eb1769f60e11b81523360048201523060248201526001600160a01b0385169063dd62ed3e90604401602060405180830381865afa158015610e97573d6000803e3d6000fd5b505050506040513d601f19601f82011682018060405250810190610ebb91906130cb565b1015610f025760405162461bcd60e51b8152602060048201526016602482015275496e73756666696369656e7420616c6c6f77616e636560501b6044820152606401610a30565b600354600090610f219061010090046001600160601b031660016130e4565b600380546001600160601b038316610100026cffffffffffffffffffffffff001990911617905560408051466020808301919091528183018f90526001600160601b031960608e811b8216818501528d901b166074830152608882018b90526001600160a01b031960a085901b1660a88301528251808303609401815260b490920190925280519101209091506000600560008381526020019081526020016000209050338160000160006101000a8154816001600160a01b0302191690836001600160a01b031602179055508b8160010160006101000a8154816001600160a01b0302191690836001600160a01b031602179055508c8160020181905550888160030181905550874261103591906130b3565b8160040160006101000a81548163ffffffff021916908363ffffffff160217905550848160040160046101000a8154816001600160601b0302191690836001600160601b03160217905550838160040160106101000a8154816001600160601b0302191690836001600160601b03160217905550817f5cb181de12515eac47130902b874f42ca463496f8f42ad3b13431e7a223740fe8e8e8e8e8e898f426110dd91906130b3565b604080519788526001600160a01b0396871660208901529486168786015292909416606086015260808501526001600160601b0390921660a084015263ffffffff90911660c0830152519081900360e00190a261115c333086611140898e6130b3565b61114a91906130b3565b6001600160a01b038a169291906123ec565b509b9a5050505050505050505050565b611174612457565b6001600160a01b038116600081815260016020818152604092839020805460ff191690921790915590519182527f371fc559c30f70424413fed6bf7e57dc939651331abad5c970a8ea0921c80b2e91015b60405180910390a150565b6111d8612457565b6001600160a01b038116600081815260016020908152604091829020805460ff1916905590519182527f4e774c97f73f4bea034579e4224498d7d9b3a4109eaa70ed3d85c97a5855f19891016111c5565b611231612457565b6112396124b1565b565b60008281526002602052604090205482906001600160a01b031646820361128957336001600160a01b038216146112845760405162461bcd60e51b8152600401610a3090612fd7565b61134f565b6000828152600260205260409020600101546001600160a01b0316806112c15760405162461bcd60e51b8152600401610a309061300c565b60405163845c544360e01b81526001600160a01b03838116600483015233602483015282169063845c544390604401602060405180830381865afa15801561130d573d6000803e3d6000fd5b505050506040513d601f19601f82011682018060405250810190611331919061304e565b61134d5760405162461bcd60e51b8152600401610a3090612fd7565b505b600086815260056020818152604080842092830180546001600160601b0316600160601b6001600160a01b038a1690810291909117909155600684018a905589855260078401835293819020805460ff1916905580518a815291820193909352918201879052907fb32d3c8b5539b0cc3050d5b75e9dad8eca8744a0892259bda27fdb51b99567369060600160405180910390a150505050505050565b6113f4612457565b6112396000612503565b611406612457565b611411838383612553565b505050565b60008281526005602052604081205483906001600160a01b031661144c5760405162461bcd60e51b8152600401610a3090613070565b3360009081526001602052604090205460ff166114a45760405162461bcd60e51b815260206004820152601660248201527514d95b99195c881b9bdd081dda1a5d195b1a5cdd195960521b6044820152606401610a30565b600084815260056020526040902060048101546114e8907f00000000000000000000000000000000000000000000000000000000000000009063ffffffff166130b3565b42106115405760405162461bcd60e51b815260206004820152602160248201527f526571756573742063616e6e6f7420626520636c61696d656420616e796d6f726044820152606560f81b6064820152608401610a30565b60058101546001600160601b0316156115975760405162461bcd60e51b81526020600482015260196024820152782232b837b9b4ba1030b63932b0b23c903bb4ba34323930bbb760391b6044820152606401610a30565b7f000000000000000000000000000000000000000000000000000000000000000034146115fd5760405162461bcd60e51b8152602060048201526014602482015273125b9d985b1a59081cdd185ad948185b5bdd5b9d60621b6044820152606401610a30565b836116435760405162461bcd60e51b8152602060048201526016602482015275046696c6c4964206d757374206e6f74206265203078360541b6044820152606401610a30565b600181600401601c8282829054906101000a900463ffffffff16611667919061310f565b825463ffffffff91821661010093840a90810292021916179091556003546000925061169f916001600160601b0391041660016130e4565b600380546cffffffffffffffffffffffff0019166101006001600160601b03841602179055905060006116f27f0000000000000000000000000000000000000000000000000000000000000000426130b3565b9050600060066000846001600160601b03166001600160601b031681526020019081526020016000209050878160000181905550338160010160006101000a8154816001600160a01b0302191690836001600160a01b03160217905550348160020181905550818160070181905550868160080181905550877f0763b6170df0264962938e705b5cbb0e18fd60107c02b64e3261fa233458ce7a843334600080888e6040516117a7979695949392919061312e565b60405180910390a250909695505050505050565b6117c3612457565b6117cf46826000612553565b50565b6117da612457565b600992909255600855600755565b60008181526005602052604090205481906001600160a01b031661181e5760405162461bcd60e51b8152600401610a3090613070565b6000828152600560208190526040909120908101546001600160601b0316156118855760405162461bcd60e51b81526020600482015260196024820152782232b837b9b4ba1030b63932b0b23c903bb4ba34323930bbb760391b6044820152606401610a30565b600481015463ffffffff164210156118df5760405162461bcd60e51b815260206004820152601760248201527f52657175657374206e6f742065787069726564207965740000000000000000006044820152606401610a30565b6004810154600160e01b900463ffffffff16156119365760405162461bcd60e51b815260206004820152601560248201527441637469766520636c61696d732072756e6e696e6760581b6044820152606401610a30565b6005810180546001600160601b0319166001600160601b031790558054604080518581526001600160a01b0390921660208301527fab63a14c4aaba38366fd39116091672bb44520328ee870be35a51e573296e565910160405180910390a160018101548154600483015460038401546001600160a01b03938416936119fa9316916001600160601b03600160801b82048116926119df926401000000009004909116906130b3565b6119e991906130b3565b6001600160a01b0384169190612665565b50505050565b611a08612457565b611239612695565b6000620f424060095483611a249190613178565b611a2e9190613197565b92915050565b6001600160601b03811660009081526006602052604090206001015481906001600160a01b0316611a9b5760405162461bcd60e51b815260206004820152601160248201527018db185a5b5259081b9bdd081d985b1a59607a1b6044820152606401610a30565b6001600160601b038216600090815260066020908152604080832080546007820154818652600590945291909320909190428211611b0b5760405162461bcd60e51b815260206004820152600d60248201526c10db185a5b48195e1c1a5c9959609a1b6044820152606401610a30565b6005810154600160601b90046001600160a01b031615611b6d5760405162461bcd60e51b815260206004820152601860248201527f5265717565737420616c7265616479207265736f6c76656400000000000000006044820152606401610a30565b6008840154600090815260078201602052604090205460ff1615611bce5760405162461bcd60e51b8152602060048201526018602482015277119a5b1b08185b1c9958591e481a5b9d985b1a59185d195960421b6044820152606401610a30565b6001840154600285015460058601547f0000000000000000000000000000000000000000000000000000000000000000926001600160a01b0316919080821115611cf85780600003611c3b576002850154600090815260046020526040902054611c3890856130b3565b93505b6001600160a01b0383163303611c935760405162461bcd60e51b815260206004820152601a60248201527f43616e6e6f74206368616c6c656e6765206f776e20636c61696d0000000000006044820152606401610a30565b611c9d81836131b9565b611ca89060016130b3565b341015611cf35760405162461bcd60e51b8152602060048201526019602482015278139bdd08195b9bdd59da081cdd185ad9481c1c9bdd9a591959603a1b6044820152606401610a30565b611dc9565b336001600160a01b03841614611d495760405162461bcd60e51b8152602060048201526016602482015275139bdd08195b1a59da589b19481d1bc81bdd5d189a5960521b6044820152606401610a30565b7f0000000000000000000000000000000000000000000000000000000000000000611d7483836131b9565b611d7e91906130b3565b341015611dc95760405162461bcd60e51b8152602060048201526019602482015278139bdd08195b9bdd59da081cdd185ad9481c1c9bdd9a591959603a1b6044820152606401610a30565b6001600160a01b0383163303611df157611de334836130b3565b600289018190559150611e42565b6004880180546001600160a01b03191633908117909155600090815260038901602052604081208054349290611e289084906130b3565b90915550611e38905034826130b3565b6005890181905590505b85611e4d85426130b3565b1115611e6757611e5d84426130b3565b6007890181905595505b6004880154600889015460405189927f0763b6170df0264962938e705b5cbb0e18fd60107c02b64e3261fa233458ce7a92611eb7928f92899289926001600160a01b039092169189918f9161312e565b60405180910390a250505050505050505050565b6000611ed682611a10565b611edf8361237d565b611a2e91906130b3565b611ef1612457565b6001600160a01b0382166000908152600b602052604090205480611f4e5760405162461bcd60e51b815260206004820152601460248201527350726f746f636f6c20666565206973207a65726f60601b6044820152606401610a30565b6001600160a01b0383166000818152600b602052604081205583906119fa908484612665565b611f7c612457565b60008111611fdb5760405162461bcd60e51b815260206004820152602660248201527f46696e616c69747920706572696f64206d75737420626520677265617465722060448201526507468616e20360d41b6064820152608401610a30565b60008281526004602090815260409182902083905581518481529081018390527faba57b48b9f1dfd5747a52ed348a6ab6aa7bafb0575363a5cb7b62659f727b65910160405180910390a15050565b612032612457565b600a55565b6001600160601b03811660009081526006602052604081206001015482906001600160a01b031661209e5760405162461bcd60e51b815260206004820152601160248201527018db185a5b5259081b9bdd081d985b1a59607a1b6044820152606401610a30565b6001600160601b0383166000908152600660209081526040808320805480855260059093529083209092806120d2886126d2565b6001600160a01b0382166000908152600388016020526040902054919350915015612113576001600160a01b03821660009081526003860160205260408120555b6006850154600081900361216457600184600401601c8282829054906101000a900463ffffffff1661214591906131d0565b92506101000a81548163ffffffff021916908363ffffffff1602179055505b61216e82826130b3565b600687018190556005870154600288015491925061218b916130b3565b8111156121da5760405162461bcd60e51b815260206004820152601c60248201527f416d6f756e7420746f20776974686472617720746f6f206c61726765000000006044820152606401610a30565b6000836001600160a01b03168360405160006040518083038185875af1925050503d8060008114612227576040519150601f19603f3d011682016040523d82523d6000602084013e61222c565b606091505b50509050806122745760405162461bcd60e51b81526020600482015260146024820152732330b4b632b2103a379039b2b7321022ba3432b960611b6044820152606401610a30565b604080516001600160601b038c1681526001600160a01b038616602082015287917fc9e74e0700d0c6488af9c81d70fdd4158aea77687137ff85499509c41a10612b910160405180910390a260058501546001600160601b03161580156122ea575060018701546001600160a01b038581169116145b156122f9576122f9858b6129c8565b509198975050505050505050565b61230f612457565b6001600160a01b0381166123745760405162461bcd60e51b815260206004820152602660248201527f4f776e61626c653a206e6577206f776e657220697320746865207a65726f206160448201526564647265737360d01b6064820152608401610a30565b6117cf81612503565b6000611a2e600754620f4240600854856123979190613178565b6123a19190613197565b612ad3565b60035460ff16156112395760405162461bcd60e51b815260206004820152601060248201526f14185d5cd8589b194e881c185d5cd95960821b6044820152606401610a30565b6040516001600160a01b03808516602483015283166044820152606481018290526119fa9085906323b872dd60e01b906084015b60408051601f198184030181529190526020810180516001600160e01b03166001600160e01b031990931692909217909152612aeb565b6000546001600160a01b031633146112395760405162461bcd60e51b815260206004820181905260248201527f4f776e61626c653a2063616c6c6572206973206e6f7420746865206f776e65726044820152606401610a30565b6124b9612bbd565b6003805460ff191690557f5db9ee0a495bf2e6ff9c91a7834c1ba4fdd244a5e8aa4e537bd38aeae4b073aa335b6040516001600160a01b03909116815260200160405180910390a1565b600080546001600160a01b038381166001600160a01b0319831681178455604051919092169283917f8be0079c531659141344cd1fd0a4f28419497f9722a3daafe3b4186f6b6457e09190a35050565b6001600160a01b0382166125b55760405162461bcd60e51b815260206004820152602360248201527f5265737472696374656443616c6c733a2063616c6c65722063616e6e6f74206260448201526206520360ec1b6064820152608401610a30565b6000838152600260205260409020546001600160a01b0316156126295760405162461bcd60e51b815260206004820152602660248201527f5265737472696374656443616c6c733a2063616c6c657220616c72656164792060448201526565786973747360d01b6064820152608401610a30565b6040805180820182526001600160a01b03808516825283166020808301919091526000868152600291829052929092206119fa92909190612d96565b6040516001600160a01b03831660248201526044810182905261141190849063a9059cbb60e01b90606401612420565b61269d6123a6565b6003805460ff191660011790557f62e78cea01bee320cd4e420270b5ea74000d11b0c9f74754ebdbfc544b05a2586124e63390565b6001600160601b03808216600090815260066020908152604080832080548452600592839052908320808301546001830154600284015494840154600885015496978897959694959316936001600160a01b039092169261273382846130b3565b8760060154106127855760405162461bcd60e51b815260206004820152601760248201527f436c61696d20616c72656164792077697468647261776e0000000000000000006044820152606401610a30565b60058601546006870154600091600160601b90046001600160a01b03169081156127d057866001600160a01b0316826001600160a01b03161480156127c957508381145b92506128b1565b600081815260078a01602052604090205460ff16156127f257600092506128b1565b6001600160601b03881615612857576001600160601b0388166000908152600660205260409020600101546001600160a01b0388811691161480156127c957506001600160601b038816600090815260066020526040902060080154841492506128b1565b89600701544210156128ab5760405162461bcd60e51b815260206004820152601960248201527f436c61696d20706572696f64206e6f742066696e6973686564000000000000006044820152606401610a30565b84861192505b60008084156128ce576128c487896130b3565b9150889050612967565b86156129565733600090815260038d0160205260409020546128f1906002613178565b9150339050600082116129515760405162461bcd60e51b815260206004820152602260248201527f4368616c6c656e67657220686173206e6f7468696e6720746f20776974686472604482015261617760f01b6064820152608401610a30565b612967565b505060005486906001600160a01b03165b60048c01546001600160a01b031633036129b5578688111561299e5761298d87896131b9565b61299790836130b3565b91506129b5565b6129a888886131b9565b6129b290836131b9565b91505b9e909d509b505050505050505050505050565b6001600160601b0381166000908152600660209081526040918290206001810154815484519081526001600160a01b0390911692810183905290927fab63a14c4aaba38366fd39116091672bb44520328ee870be35a51e573296e565910160405180910390a16005840180546001600160601b0319166001600160601b0385811691909117909155600485015460018601546001600160a01b03166000908152600b602052604081208054600160801b9093049093169291612a8b9084906130b3565b90915550506001840154600485015460038601546001600160a01b0390921691612acc9184916119e99164010000000090046001600160601b0316906130b3565b5050505050565b6000818311612ae25781612ae4565b825b9392505050565b6000612b40826040518060400160405280602081526020017f5361666545524332303a206c6f772d6c6576656c2063616c6c206661696c6564815250856001600160a01b0316612c069092919063ffffffff16565b8051909150156114115780806020019051810190612b5e919061304e565b6114115760405162461bcd60e51b815260206004820152602a60248201527f5361666545524332303a204552433230206f7065726174696f6e20646964206e6044820152691bdd081cdd58d8d9595960b21b6064820152608401610a30565b60035460ff166112395760405162461bcd60e51b815260206004820152601460248201527314185d5cd8589b194e881b9bdd081c185d5cd95960621b6044820152606401610a30565b6060612c158484600085612c1d565b949350505050565b606082471015612c7e5760405162461bcd60e51b815260206004820152602660248201527f416464726573733a20696e73756666696369656e742062616c616e636520666f6044820152651c8818d85b1b60d21b6064820152608401610a30565b600080866001600160a01b03168587604051612c9a9190613221565b60006040518083038185875af1925050503d8060008114612cd7576040519150601f19603f3d011682016040523d82523d6000602084013e612cdc565b606091505b5091509150612ced87838387612cf8565b979650505050505050565b60608315612d67578251600003612d60576001600160a01b0385163b612d605760405162461bcd60e51b815260206004820152601d60248201527f416464726573733a2063616c6c20746f206e6f6e2d636f6e74726163740000006044820152606401610a30565b5081612c15565b612c158383815115612d7c5781518083602001fd5b8060405162461bcd60e51b8152600401610a30919061323d565b8260028101928215612dde579160200282015b82811115612dde57825182546001600160a01b0319166001600160a01b03909116178255602090920191600190910190612da9565b50612dea929150612dee565b5090565b5b80821115612dea5760008155600101612def565b600080600060608486031215612e1857600080fd5b505081359360208301359350604090920135919050565b60008060408385031215612e4257600080fd5b50508035926020909101359150565b600060208284031215612e6357600080fd5b5035919050565b80356001600160a01b0381168114612e8157600080fd5b919050565b60008060008060008060c08789031215612e9f57600080fd5b86359550612eaf60208801612e6a565b9450612ebd60408801612e6a565b9350612ecb60608801612e6a565b92506080870135915060a087013590509295509295509295565b600060208284031215612ef757600080fd5b612ae482612e6a565b600060208284031215612f1257600080fd5b81356001600160601b0381168114612ae457600080fd5b60008060008060808587031215612f3f57600080fd5b843593506020850135925060408501359150612f5d60608601612e6a565b905092959194509250565b600080600060608486031215612f7d57600080fd5b83359250612f8d60208501612e6a565b9150612f9b60408501612e6a565b90509250925092565b60008060408385031215612fb757600080fd5b612fc083612e6a565b9150612fce60208401612e6a565b90509250929050565b6020808252818101527f5265737472696374656443616c6c733a2063616c6c20646973616c6c6f776564604082015260600190565b60208082526022908201527f5265737472696374656443616c6c733a206d657373656e676572206e6f742073604082015261195d60f21b606082015260800190565b60006020828403121561306057600080fd5b81518015158114612ae457600080fd5b6020808252601390820152721c995c5d595cdd1259081b9bdd081d985b1a59606a1b604082015260600190565b634e487b7160e01b600052601160045260246000fd5b600082198211156130c6576130c661309d565b500190565b6000602082840312156130dd57600080fd5b5051919050565b60006001600160601b038083168185168083038211156131065761310661309d565b01949350505050565b600063ffffffff8083168185168083038211156131065761310661309d565b6001600160601b039790971687526001600160a01b0395861660208801526040870194909452919093166060850152608084019290925260a083019190915260c082015260e00190565b60008160001904831182151516156131925761319261309d565b500290565b6000826131b457634e487b7160e01b600052601260045260246000fd5b500490565b6000828210156131cb576131cb61309d565b500390565b600063ffffffff838116908316818110156131ed576131ed61309d565b039392505050565b60005b838110156132105781810151838201526020016131f8565b838111156119fa5750506000910152565b600082516132338184602087016131f5565b9190910192915050565b602081526000825180602084015261325c8160408501602087016131f5565b601f01601f1916919091016040019291505056fea26469706673582212205090e7dd9640277a98a8006cf83a67b18add3846c77ef6241f86c7bd74cc102e64736f6c634300080d0033",
  "bytecodeSha1": "4394d77492c19eb3d7f7d55e4938881417e0bc51",
  "compiler": {
    "evm_version": "london",
    "optimizer": {
      "enabled": true,
      "runs": 200
    },
    "version": "0.8.13+commit.abaa5c0e"
  },
  "contractName": "RequestManager",
  "language": "Solidity",
  "natspec": {
    "kind": "dev",
    "methods": {
      "CLAIM_ID_WITHDRAWN_EXPIRED()": {
        "notice": "withdrawClaimId is set to this value when an expired request gets withdrawn by the sender"
      },
      "MAX_VALIDITY_PERIOD()": {
        "notice": "The maximum validity period of a request."
      },
      "MIN_VALIDITY_PERIOD()": {
        "notice": "The minimum validity period of a request."
      },
      "addAllowedLp(address)": {
        "notice": "Add a liquidity provider to the set of allowed liquidity providers. .. note:: This function can only be called by the contract owner.",
        "params": {
          "newLp": "The liquidity provider."
        }
      },
      "addCaller(address)": {
        "notice": "Allow calls from an address on the same chain.",
        "params": {
          "caller": "The caller."
        }
      },
      "addCaller(uint256,address,address)": {
        "notice": "Allow calls from an address on another chain.",
        "params": {
          "caller": "The caller.",
          "callerChainId": "The caller's chain ID.",
          "messenger": "The messenger."
        }
      },
      "allowedLps(address)": {
        "notice": "The set of liquidity providers that are added to the whitelist."
      },
      "callers(uint256,uint256)": {
        "notice": "Maps caller chain IDs to tuples [caller, messenger]. For same-chain calls, the messenger address is 0x0."
      },
      "challengeClaim(uint96)": {
        "notice": "Challenge an existing claim. The claim must still be valid at call time. This function implements one round of the challenge game. The original claimer is allowed to call this function only after someone else made a challenge, i.e. every second round. However, once the original claimer counter-challenges, anyone can join the game and make another challenge. The caller must provide enough native tokens as their stake. For the original claimer, the minimum stake is ``challengerStakeTotal - claimerStake + claimStake``. For challengers, the minimum stake is ``claimerStake - challengerStakeTotal + 1``. An example (time flows downwards, claimStake = 10)::   claimRequest() by Max [stakes 10]   challengeClaim() by Alice [stakes 11]   challengeClaim() by Max [stakes 11]   challengeClaim() by Bob [stakes 16] In this example, if Max didn't want to lose the challenge game to Alice and Bob, he would have to challenge with a stake of at least 16.",
        "params": {
          "claimId": "The claim ID."
        }
      },
      "challengePeriodExtension()": {
        "notice": "The period by which the termination time of a claim is extended after each round of the challenge game. This period should allow enough time for the other parties to counter-challenge. .. note::    The claim's termination time is extended only if it is less than the    extension time. Note that in the first challenge round, i.e. the round initiated by the first challenger, the termination time is extended additionally by the finality period of the target chain. This is done to allow for L1 resolution."
      },
      "claimPeriod()": {
        "notice": "The period for which the claim is valid."
      },
      "claimRequest(bytes32,bytes32)": {
        "notice": "Claim that a request was filled by the caller. The request must still be valid at call time. The caller must provide the ``claimStake`` amount of source rollup's native token.",
        "params": {
          "fillId": "The fill ID.",
          "requestId": "ID of the request."
        },
        "returns": {
          "_0": "The claim ID."
        }
      },
      "claimRequestExtension()": {
        "notice": "The additional time given to claim a request. This value is added to the validity period of a request."
      },
      "claimStake()": {
        "notice": "The minimum amount of source chain's native token that the claimer needs to provide when making a claim, as well in each round of the challenge game."
      },
      "claims(uint96)": {
        "notice": "Maps claim IDs to claims."
      },
      "collectedProtocolFees(address)": {
        "notice": "Maps ERC20 token addresses to related token amounts that belong to the protocol."
      },
      "constructor": {
        "notice": "Constructor.",
        "params": {
          "_challengePeriodExtension": "Challenge period extension, in seconds.",
          "_claimPeriod": "Claim period, in seconds.",
          "_claimRequestExtension": "Extension to claim a request after validity period ends.",
          "_claimStake": "Claim stake amount."
        }
      },
      "createRequest(uint256,address,address,address,uint256,uint256)": {
        "notice": "Create a new transfer request.",
        "params": {
          "amount": "Amount of tokens to transfer. Does not include fees.",
          "sourceTokenAddress": "Address of the token contract on the source chain.",
          "targetAddress": "Recipient address on the target chain.",
          "targetChainId": "ID of the target chain.",
          "targetTokenAddress": "Address of the token contract on the target chain.",
          "validityPeriod": "The number of seconds the request is to be considered valid.                       Once its validity period has elapsed, the request cannot be claimed                       anymore and will eventually expire, allowing the request submitter                       to withdraw the deposited tokens if there are no active claims."
        },
        "returns": {
          "_0": "ID of the newly created request."
        }
      },
      "currentNonce()": {
        "notice": "A counter used to generate request and claim IDs. The variable holds the most recently used nonce and must be incremented to get the next nonce"
      },
      "finalityPeriods(uint256)": {
        "notice": "Maps target rollup chain IDs to finality periods. Finality periods are in seconds."
      },
      "invalidateFill(bytes32,bytes32,uint256)": {
        "notice": "Mark the fill identified by ``requestId`` and ``fillId`` as invalid. .. note::     This function is a restricted call function. Only callable by the added caller.",
        "params": {
          "fillId": "The fill ID.",
          "requestId": "The request ID.",
          "resolutionChainId": "The resolution (L1) chain ID."
        }
      },
      "isInvalidFill(bytes32,bytes32)": {
        "notice": "Returns whether a fill is invalidated or not Calling invalidateFill() will set this boolean to true, marking that the ``fillId`` for the corresponding ``requestId`` was invalidated. Calling resolveRequest will validate it again, setting request.invalidatedFills[fillId] to false. .. seealso:: :sol:func:`invalidateFill` .. seealso:: :sol:func:`resolveRequest`",
        "params": {
          "fillId": "The fill ID",
          "requestId": "The request ID"
        },
        "returns": {
          "_0": "Whether the fill ID is invalid for the given request ID"
        }
      },
      "isWithdrawn(bytes32)": {
        "notice": "Returns whether a request's deposit was withdrawn or not This can be true in two cases: 1. The deposit was withdrawn after the request was claimed and filled. 2. The submitter withdrew the deposit after the request's expiry. .. seealso:: :sol:func:`withdraw` .. seealso:: :sol:func:`withdrawExpiredRequest`",
        "params": {
          "requestId": "The request ID"
        },
        "returns": {
          "_0": "Whether the deposit corresponding to the given request ID was withdrawn"
        }
      },
      "lpFee(uint256)": {
        "notice": "Compute the liquidy provider fee that needs to be paid for a given transfer amount."
      },
      "lpFeePPM()": {
        "notice": "Liquidity provider fee percentage, expressed in ppm (parts per million)."
      },
      "minLpFee()": {
        "notice": "The minimum fee, denominated in transfer token, paid to the liquidity provider."
      },
      "owner()": {
        "details": "Returns the address of the current owner."
      },
      "pause()": {
        "notice": "Pauses the contract. Once the contract is paused, it cannot be used to create new requests anymore. Withdrawing deposited funds and claim stakes still works, though. .. note:: This function can only be called when the contract is not paused. .. note:: This function can only be called by the contract owner."
      },
      "paused()": {
        "details": "Returns true if the contract is paused, and false otherwise."
      },
      "protocolFee(uint256)": {
        "notice": "Compute the protocol fee that needs to be paid for a given transfer amount."
      },
      "protocolFeePPM()": {
        "notice": "Protocol fee percentage, expressed in ppm (parts per million)."
      },
      "removeAllowedLp(address)": {
        "notice": "Remove a liquidity provider from the set of allowed liquidity providers. .. note:: This function can only be called by the contract owner.",
        "params": {
          "oldLp": "The liquidity provider."
        }
      },
      "renounceOwnership()": {
        "details": "Leaves the contract without owner. It will not be possible to call `onlyOwner` functions anymore. Can only be called by the current owner. NOTE: Renouncing ownership will leave the contract without an owner, thereby removing any functionality that is only available to the owner."
      },
      "requests(bytes32)": {
        "notice": "Maps request IDs to requests."
      },
      "resolveRequest(bytes32,bytes32,uint256,address)": {
        "notice": "Mark the request identified by ``requestId`` as filled by ``filler``. .. note::     This function is a restricted call function. Only callable by the added caller.",
        "params": {
          "fillId": "The fill ID.",
          "filler": "The address that filled the request.",
          "requestId": "The request ID.",
          "resolutionChainId": "The resolution (L1) chain ID."
        }
      },
      "setFinalityPeriod(uint256,uint256)": {
        "notice": "Set the finality period for the given target chain. .. note:: This function can only be called by the contract owner.",
        "params": {
          "finalityPeriod": "Finality period in seconds.",
          "targetChainId": "The target chain ID."
        }
      },
      "totalFee(uint256)": {
        "notice": "Compute the total fee that needs to be paid for a given transfer amount. The total fee is the sum of the liquidity provider fee and the protocol fee."
      },
      "transferLimit()": {
        "notice": "The maximum amount of tokens that can be transferred in a single request."
      },
      "transferOwnership(address)": {
        "details": "Transfers ownership of the contract to a new account (`newOwner`). Can only be called by the current owner."
      },
      "unpause()": {
        "notice": "Unpauses the contract. Once the contract is unpaused, it can be used normally. .. note:: This function can only be called when the contract is paused. .. note:: This function can only be called by the contract owner."
      },
      "updateFeeData(uint256,uint256,uint256)": {
        "notice": "Update fee parameters. .. note:: This function can only be called by the contract owner.",
        "params": {
          "newLpFeePPM": "The new value for ``lpFeePPM``.",
          "newMinLpFee": "The new value for ``minLpFee``.",
          "newProtocolFeePPM": "The new value for ``protocolFeePPM``."
        }
      },
      "updateTransferLimit(uint256)": {
        "notice": "Update the transfer amount limit. .. note:: This function can only be called by the contract owner.",
        "params": {
          "newTransferLimit": "The new value for ``transferLimit``."
        }
      },
      "withdraw(uint96)": {
        "notice": "Withdraw the deposit that the request submitter left with the contract, as well as the staked native tokens associated with the claim. In case the caller of this function is a challenger that won the game, they will only get their staked native tokens plus the reward in the form of full (sole challenger) or partial (multiple challengers) amount of native tokens staked by the dishonest claimer.",
        "params": {
          "claimId": "The claim ID."
        },
        "returns": {
          "_0": "The address of the deposit receiver."
        }
      },
      "withdrawExpiredRequest(bytes32)": {
        "notice": "Withdraw funds deposited with an expired request. No claims must be active for the request.",
        "params": {
          "requestId": "ID of the expired request."
        }
      },
      "withdrawProtocolFees(address,address)": {
        "notice": "Withdraw protocol fees collected by the contract. Protocol fees are paid in token transferred. .. note:: This function can only be called by the contract owner.",
        "params": {
          "recipient": "The address the fees should be sent to.",
          "tokenAddress": "The address of the token contract."
        }
      }
    },
    "notice": "The request manager. This contract is responsible for keeping track of transfer requests, implementing the rules of the challenge game and holding deposited tokens until they are withdrawn. The information passed by L1 resolution will be stored with the respective requests. It is the only contract that agents need to interact with on the source chain. .. note::   The functions resolveRequest and invalidateFill can only be called by   the :sol:contract:`Resolver` contract, via a chain-dependent messenger contract.",
    "version": 1
  },
  "opcodes": "PUSH1 0x80 PUSH1 0x40 MSTORE PUSH1 0x4 CALLDATASIZE LT PUSH2 0x267 JUMPI PUSH1 0x0 CALLDATALOAD PUSH1 0xE0 SHR DUP1 PUSH4 0x7DC2CD98 GT PUSH2 0x144 JUMPI DUP1 PUSH4 0xCF7B287F GT PUSH2 0xB6 JUMPI DUP1 PUSH4 0xE7AAD5C4 GT PUSH2 0x7A JUMPI DUP1 PUSH4 0xE7AAD5C4 EQ PUSH2 0x92C JUMPI DUP1 PUSH4 0xEA628898 EQ PUSH2 0x942 JUMPI DUP1 PUSH4 0xEB321173 EQ PUSH2 0x95D JUMPI DUP1 PUSH4 0xF2FDE38B EQ PUSH2 0x991 JUMPI DUP1 PUSH4 0xF7D64CEC EQ PUSH2 0x9B1 JUMPI DUP1 PUSH4 0xF9432517 EQ PUSH2 0x9D1 JUMPI PUSH1 0x0 DUP1 REVERT JUMPDEST DUP1 PUSH4 0xCF7B287F EQ PUSH2 0x896 JUMPI DUP1 PUSH4 0xD137920B EQ PUSH2 0x8B6 JUMPI DUP1 PUSH4 0xD762A37B EQ PUSH2 0x8D6 JUMPI DUP1 PUSH4 0xDEE4DEA0 EQ PUSH2 0x8F6 JUMPI DUP1 PUSH4 0xE2653EEB EQ PUSH2 0x916 JUMPI PUSH1 0x0 DUP1 REVERT JUMPDEST DUP1 PUSH4 0x9D866985 GT PUSH2 0x108 JUMPI DUP1 PUSH4 0x9D866985 EQ PUSH2 0x6D3 JUMPI DUP1 PUSH4 0x9E375226 EQ PUSH2 0x7EE JUMPI DUP1 PUSH4 0xA032B5F4 EQ PUSH2 0x81E JUMPI DUP1 PUSH4 0xADB610A3 EQ PUSH2 0x83E JUMPI DUP1 PUSH4 0xB4D1D27A EQ PUSH2 0x863 JUMPI DUP1 PUSH4 0xCEA74EDF EQ PUSH2 0x876 JUMPI PUSH1 0x0 DUP1 REVERT JUMPDEST DUP1 PUSH4 0x7DC2CD98 EQ PUSH2 0x621 JUMPI DUP1 PUSH4 0x83D208C3 EQ PUSH2 0x655 JUMPI DUP1 PUSH4 0x8456CB59 EQ PUSH2 0x689 JUMPI DUP1 PUSH4 0x8DA5CB5B EQ PUSH2 0x69E JUMPI DUP1 PUSH4 0x96171D05 EQ PUSH2 0x6BC JUMPI PUSH1 0x0 DUP1 REVERT JUMPDEST DUP1 PUSH4 0x3F4BA83A GT PUSH2 0x1DD JUMPI DUP1 PUSH4 0x715018A6 GT PUSH2 0x1A1 JUMPI DUP1 PUSH4 0x715018A6 EQ PUSH2 0x561 JUMPI DUP1 PUSH4 0x7203AE3B EQ PUSH2 0x576 JUMPI DUP1 PUSH4 0x743C151A EQ PUSH2 0x596 JUMPI DUP1 PUSH4 0x747293FB EQ PUSH2 0x5C1 JUMPI DUP1 PUSH4 0x78DA194B EQ PUSH2 0x5E1 JUMPI DUP1 PUSH4 0x79650559 EQ PUSH2 0x601 JUMPI PUSH1 0x0 DUP1 REVERT JUMPDEST DUP1 PUSH4 0x3F4BA83A EQ PUSH2 0x4D1 JUMPI DUP1 PUSH4 0x5B3A6EF2 EQ PUSH2 0x4E6 JUMPI DUP1 PUSH4 0x5C975ABB EQ PUSH2 0x506 JUMPI DUP1 PUSH4 0x5D5AA11B EQ PUSH2 0x51E JUMPI DUP1 PUSH4 0x6BC6C8D1 EQ PUSH2 0x534 JUMPI PUSH1 0x0 DUP1 REVERT JUMPDEST DUP1 PUSH4 0x2F4212B8 GT PUSH2 0x22F JUMPI DUP1 PUSH4 0x2F4212B8 EQ PUSH2 0x353 JUMPI DUP1 PUSH4 0x2F92F009 EQ PUSH2 0x373 JUMPI DUP1 PUSH4 0x30A08CBC EQ PUSH2 0x3A0 JUMPI DUP1 PUSH4 0x31E08F7A EQ PUSH2 0x3DF JUMPI DUP1 PUSH4 0x3993B6ED EQ PUSH2 0x3FF JUMPI DUP1 PUSH4 0x3B046F09 EQ PUSH2 0x41F JUMPI PUSH1 0x0 DUP1 REVERT JUMPDEST DUP1 PUSH4 0x3FC4C37 EQ PUSH2 0x26C JUMPI DUP1 PUSH4 0xE19A1C6 EQ PUSH2 0x28E JUMPI DUP1 PUSH4 0xE3A918C EQ PUSH2 0x2CB JUMPI DUP1 PUSH4 0x1489F8D2 EQ PUSH2 0x2FB JUMPI DUP1 PUSH4 0x1D18ADC5 EQ PUSH2 0x31F JUMPI JUMPDEST PUSH1 0x0 DUP1 REVERT JUMPDEST CALLVALUE DUP1 ISZERO PUSH2 0x278 JUMPI PUSH1 0x0 DUP1 REVERT JUMPDEST POP PUSH2 0x28C PUSH2 0x287 CALLDATASIZE PUSH1 0x4 PUSH2 0x2E03 JUMP JUMPDEST PUSH2 0x9E7 JUMP JUMPDEST STOP JUMPDEST CALLVALUE DUP1 ISZERO PUSH2 0x29A JUMPI PUSH1 0x0 DUP1 REVERT JUMPDEST POP PUSH2 0x2AE PUSH2 0x2A9 CALLDATASIZE PUSH1 0x4 PUSH2 0x2E2F JUMP JUMPDEST PUSH2 0xC38 JUMP JUMPDEST PUSH1 0x40 MLOAD PUSH1 0x1 PUSH1 0x1 PUSH1 0xA0 SHL SUB SWAP1 SWAP2 AND DUP2 MSTORE PUSH1 0x20 ADD JUMPDEST PUSH1 0x40 MLOAD DUP1 SWAP2 SUB SWAP1 RETURN JUMPDEST CALLVALUE DUP1 ISZERO PUSH2 0x2D7 JUMPI PUSH1 0x0 DUP1 REVERT JUMPDEST POP PUSH2 0x2EB PUSH2 0x2E6 CALLDATASIZE PUSH1 0x4 PUSH2 0x2E51 JUMP JUMPDEST PUSH2 0xC66 JUMP JUMPDEST PUSH1 0x40 MLOAD SWAP1 ISZERO ISZERO DUP2 MSTORE PUSH1 0x20 ADD PUSH2 0x2C2 JUMP JUMPDEST CALLVALUE DUP1 ISZERO PUSH2 0x307 JUMPI PUSH1 0x0 DUP1 REVERT JUMPDEST POP PUSH2 0x311 PUSH2 0x708 DUP2 JUMP JUMPDEST PUSH1 0x40 MLOAD SWAP1 DUP2 MSTORE PUSH1 0x20 ADD PUSH2 0x2C2 JUMP JUMPDEST CALLVALUE DUP1 ISZERO PUSH2 0x32B JUMPI PUSH1 0x0 DUP1 REVERT JUMPDEST POP PUSH2 0x311 PUSH32 0x0 DUP2 JUMP JUMPDEST CALLVALUE DUP1 ISZERO PUSH2 0x35F JUMPI PUSH1 0x0 DUP1 REVERT JUMPDEST POP PUSH2 0x311 PUSH2 0x36E CALLDATASIZE PUSH1 0x4 PUSH2 0x2E86 JUMP JUMPDEST PUSH2 0xCBF JUMP JUMPDEST CALLVALUE DUP1 ISZERO PUSH2 0x37F JUMPI PUSH1 0x0 DUP1 REVERT JUMPDEST POP PUSH2 0x311 PUSH2 0x38E CALLDATASIZE PUSH1 0x4 PUSH2 0x2E51 JUMP JUMPDEST PUSH1 0x4 PUSH1 0x20 MSTORE PUSH1 0x0 SWAP1 DUP2 MSTORE PUSH1 0x40 SWAP1 KECCAK256 SLOAD DUP2 JUMP JUMPDEST CALLVALUE DUP1 ISZERO PUSH2 0x3AC JUMPI PUSH1 0x0 DUP1 REVERT JUMPDEST POP PUSH2 0x2EB PUSH2 0x3BB CALLDATASIZE PUSH1 0x4 PUSH2 0x2E2F JUMP JUMPDEST PUSH1 0x0 SWAP2 DUP3 MSTORE PUSH1 0x5 PUSH1 0x20 SWAP1 DUP2 MSTORE PUSH1 0x40 DUP1 DUP5 KECCAK256 SWAP3 DUP5 MSTORE PUSH1 0x7 SWAP1 SWAP3 ADD SWAP1 MSTORE SWAP1 KECCAK256 SLOAD PUSH1 0xFF AND SWAP1 JUMP JUMPDEST CALLVALUE DUP1 ISZERO PUSH2 0x3EB JUMPI PUSH1 0x0 DUP1 REVERT JUMPDEST POP PUSH2 0x28C PUSH2 0x3FA CALLDATASIZE PUSH1 0x4 PUSH2 0x2EE5 JUMP JUMPDEST PUSH2 0x116C JUMP JUMPDEST CALLVALUE DUP1 ISZERO PUSH2 0x40B JUMPI PUSH1 0x0 DUP1 REVERT JUMPDEST POP PUSH2 0x28C PUSH2 0x41A CALLDATASIZE PUSH1 0x4 PUSH2 0x2EE5 JUMP JUMPDEST PUSH2 0x11D0 JUMP JUMPDEST CALLVALUE DUP1 ISZERO PUSH2 0x42B JUMPI PUSH1 0x0 DUP1 REVERT JUMPDEST POP PUSH2 0x48B PUSH2 0x43A CALLDATASIZE PUSH1 0x4 PUSH2 0x2F00 JUMP JUMPDEST PUSH1 0x6 PUSH1 0x20 DUP2 SWAP1 MSTORE PUSH1 0x0 SWAP2 DUP3 MSTORE PUSH1 0x40 SWAP1 SWAP2 KECCAK256 DUP1 SLOAD PUSH1 0x1 DUP3 ADD SLOAD PUSH1 0x2 DUP4 ADD SLOAD PUSH1 0x4 DUP5 ADD SLOAD PUSH1 0x5 DUP6 ADD SLOAD SWAP6 DUP6 ADD SLOAD PUSH1 0x7 DUP7 ADD SLOAD PUSH1 0x8 SWAP1 SWAP7 ADD SLOAD SWAP5 SWAP7 PUSH1 0x1 PUSH1 0x1 PUSH1 0xA0 SHL SUB SWAP5 DUP6 AND SWAP7 SWAP4 SWAP6 SWAP3 SWAP1 SWAP5 AND SWAP4 SWAP3 SWAP1 SWAP2 DUP9 JUMP JUMPDEST PUSH1 0x40 DUP1 MLOAD SWAP9 DUP10 MSTORE PUSH1 0x1 PUSH1 0x1 PUSH1 0xA0 SHL SUB SWAP8 DUP9 AND PUSH1 0x20 DUP11 ADD MSTORE DUP9 ADD SWAP6 SWAP1 SWAP6 MSTORE SWAP5 SWAP1 SWAP3 AND PUSH1 0x60 DUP7 ADD MSTORE PUSH1 0x80 DUP6 ADD MSTORE PUSH1 0xA0 DUP5 ADD MSTORE PUSH1 0xC0 DUP4 ADD SWAP2 SWAP1 SWAP2 MSTORE PUSH1 0xE0 DUP3 ADD MSTORE PUSH2 0x100 ADD PUSH2 0x2C2 JUMP JUMPDEST CALLVALUE DUP1 ISZERO PUSH2 0x4DD JUMPI PUSH1 0x0 DUP1 REVERT JUMPDEST POP PUSH2 0x28C PUSH2 0x1229 JUMP JUMPDEST CALLVALUE DUP1 ISZERO PUSH2 0x4F2 JUMPI PUSH1 0x0 DUP1 REVERT JUMPDEST POP PUSH2 0x28C PUSH2 0x501 CALLDATASIZE PUSH1 0x4 PUSH2 0x2F29 JUMP JUMPDEST PUSH2 0x123B JUMP JUMPDEST CALLVALUE DUP1 ISZERO PUSH2 0x512 JUMPI PUSH1 0x0 DUP1 REVERT JUMPDEST POP PUSH1 0x3 SLOAD PUSH1 0xFF AND PUSH2 0x2EB JUMP JUMPDEST CALLVALUE DUP1 ISZERO PUSH2 0x52A JUMPI PUSH1 0x0 DUP1 REVERT JUMPDEST POP PUSH2 0x311 PUSH1 0x7 SLOAD DUP2 JUMP JUMPDEST CALLVALUE DUP1 ISZERO PUSH2 0x540 JUMPI PUSH1 0x0 DUP1 REVERT JUMPDEST POP PUSH2 0x311 PUSH2 0x54F CALLDATASIZE PUSH1 0x4 PUSH2 0x2EE5 JUMP JUMPDEST PUSH1 0xB PUSH1 0x20 MSTORE PUSH1 0x0 SWAP1 DUP2 MSTORE PUSH1 0x40 SWAP1 KECCAK256 SLOAD DUP2 JUMP JUMPDEST CALLVALUE DUP1 ISZERO PUSH2 0x56D JUMPI PUSH1 0x0 DUP1 REVERT JUMPDEST POP PUSH2 0x28C PUSH2 0x13EC JUMP JUMPDEST CALLVALUE DUP1 ISZERO PUSH2 0x582 JUMPI PUSH1 0x0 DUP1 REVERT JUMPDEST POP PUSH2 0x28C PUSH2 0x591 CALLDATASIZE PUSH1 0x4 PUSH2 0x2F68 JUMP JUMPDEST PUSH2 0x13FE JUMP JUMPDEST PUSH2 0x5A9 PUSH2 0x5A4 CALLDATASIZE PUSH1 0x4 PUSH2 0x2E2F JUMP JUMPDEST PUSH2 0x1416 JUMP JUMPDEST PUSH1 0x40 MLOAD PUSH1 0x1 PUSH1 0x1 PUSH1 0x60 SHL SUB SWAP1 SWAP2 AND DUP2 MSTORE PUSH1 0x20 ADD PUSH2 0x2C2 JUMP JUMPDEST CALLVALUE DUP1 ISZERO PUSH2 0x5CD JUMPI PUSH1 0x0 DUP1 REVERT JUMPDEST POP PUSH2 0x28C PUSH2 0x5DC CALLDATASIZE PUSH1 0x4 PUSH2 0x2EE5 JUMP JUMPDEST PUSH2 0x17BB JUMP JUMPDEST CALLVALUE DUP1 ISZERO PUSH2 0x5ED JUMPI PUSH1 0x0 DUP1 REVERT JUMPDEST POP PUSH2 0x28C PUSH2 0x5FC CALLDATASIZE PUSH1 0x4 PUSH2 0x2E03 JUMP JUMPDEST PUSH2 0x17D2 JUMP JUMPDEST CALLVALUE DUP1 ISZERO PUSH2 0x60D JUMPI PUSH1 0x0 DUP1 REVERT JUMPDEST POP PUSH2 0x28C PUSH2 0x61C CALLDATASIZE PUSH1 0x4 PUSH2 0x2E51 JUMP JUMPDEST PUSH2 0x17E8 JUMP JUMPDEST CALLVALUE DUP1 ISZERO PUSH2 0x62D JUMPI PUSH1 0x0 DUP1 REVERT JUMPDEST POP PUSH2 0x311 PUSH32 0x0 DUP2 JUMP JUMPDEST CALLVALUE DUP1 ISZERO PUSH2 0x661 JUMPI PUSH1 0x0 DUP1 REVERT JUMPDEST POP PUSH2 0x311 PUSH32 0x0 DUP2 JUMP JUMPDEST CALLVALUE DUP1 ISZERO PUSH2 0x695 JUMPI PUSH1 0x0 DUP1 REVERT JUMPDEST POP PUSH2 0x28C PUSH2 0x1A00 JUMP JUMPDEST CALLVALUE DUP1 ISZERO PUSH2 0x6AA JUMPI PUSH1 0x0 DUP1 REVERT JUMPDEST POP PUSH1 0x0 SLOAD PUSH1 0x1 PUSH1 0x1 PUSH1 0xA0 SHL SUB AND PUSH2 0x2AE JUMP JUMPDEST CALLVALUE DUP1 ISZERO PUSH2 0x6C8 JUMPI PUSH1 0x0 DUP1 REVERT JUMPDEST POP PUSH2 0x311 PUSH3 0x2A300 DUP2 JUMP JUMPDEST CALLVALUE DUP1 ISZERO PUSH2 0x6DF JUMPI PUSH1 0x0 DUP1 REVERT JUMPDEST POP PUSH2 0x778 PUSH2 0x6EE CALLDATASIZE PUSH1 0x4 PUSH2 0x2E51 JUMP JUMPDEST PUSH1 0x5 PUSH1 0x20 DUP2 SWAP1 MSTORE PUSH1 0x0 SWAP2 DUP3 MSTORE PUSH1 0x40 SWAP1 SWAP2 KECCAK256 DUP1 SLOAD PUSH1 0x1 DUP3 ADD SLOAD PUSH1 0x2 DUP4 ADD SLOAD PUSH1 0x3 DUP5 ADD SLOAD PUSH1 0x4 DUP6 ADD SLOAD SWAP6 DUP6 ADD SLOAD PUSH1 0x6 SWAP1 SWAP6 ADD SLOAD PUSH1 0x1 PUSH1 0x1 PUSH1 0xA0 SHL SUB SWAP5 DUP6 AND SWAP7 SWAP4 DUP6 AND SWAP6 SWAP3 SWAP5 SWAP2 SWAP4 PUSH4 0xFFFFFFFF DUP1 DUP3 AND SWAP5 PUSH1 0x1 PUSH1 0x1 PUSH1 0x60 SHL SUB PUSH5 0x100000000 DUP5 DIV DUP2 AND SWAP6 PUSH1 0x1 PUSH1 0x80 SHL DUP6 DIV DUP3 AND SWAP6 PUSH1 0x1 PUSH1 0xE0 SHL SWAP1 SWAP6 DIV SWAP1 SWAP4 AND SWAP4 SWAP1 DUP3 AND SWAP3 PUSH1 0x1 PUSH1 0x60 SHL SWAP1 SWAP3 DIV SWAP1 SWAP2 AND SWAP1 DUP12 JUMP JUMPDEST PUSH1 0x40 DUP1 MLOAD PUSH1 0x1 PUSH1 0x1 PUSH1 0xA0 SHL SUB SWAP13 DUP14 AND DUP2 MSTORE SWAP11 DUP13 AND PUSH1 0x20 DUP13 ADD MSTORE DUP11 ADD SWAP9 SWAP1 SWAP9 MSTORE PUSH1 0x60 DUP10 ADD SWAP7 SWAP1 SWAP7 MSTORE PUSH4 0xFFFFFFFF SWAP5 DUP6 AND PUSH1 0x80 DUP10 ADD MSTORE PUSH1 0x1 PUSH1 0x1 PUSH1 0x60 SHL SUB SWAP4 DUP5 AND PUSH1 0xA0 DUP10 ADD MSTORE SWAP2 DUP4 AND PUSH1 0xC0 DUP9 ADD MSTORE SWAP1 SWAP3 AND PUSH1 0xE0 DUP7 ADD MSTORE AND PUSH2 0x100 DUP5 ADD MSTORE SWAP1 SWAP3 AND PUSH2 0x120 DUP3 ADD MSTORE PUSH2 0x140 DUP2 ADD SWAP2 SWAP1 SWAP2 MSTORE PUSH2 0x160 ADD PUSH2 0x2C2 JUMP JUMPDEST CALLVALUE DUP1 ISZERO PUSH2 0x7FA JUMPI PUSH1 0x0 DUP1 REVERT JUMPDEST POP PUSH2 0x2EB PUSH2 0x809 CALLDATASIZE PUSH1 0x4 PUSH2 0x2EE5 JUMP JUMPDEST PUSH1 0x1 PUSH1 0x20 MSTORE PUSH1 0x0 SWAP1 DUP2 MSTORE PUSH1 0x40 SWAP1 KECCAK256 SLOAD PUSH1 0xFF AND DUP2 JUMP JUMPDEST CALLVALUE DUP1 ISZERO PUSH2 0x82A JUMPI PUSH1 0x0 DUP1 REVERT JUMPDEST POP PUSH2 0x311 PUSH2 0x839 CALLDATASIZE PUSH1 0x4 PUSH2 0x2E51 JUMP JUMPDEST PUSH2 0x1A10 JUMP JUMPDEST CALLVALUE DUP1 ISZERO PUSH2 0x84A JUMPI PUSH1 0x0 DUP1 REVERT JUMPDEST POP PUSH1 0x3 SLOAD PUSH2 0x5A9 SWAP1 PUSH2 0x100 SWAP1 DIV PUSH1 0x1 PUSH1 0x1 PUSH1 0x60 SHL SUB AND DUP2 JUMP JUMPDEST PUSH2 0x28C PUSH2 0x871 CALLDATASIZE PUSH1 0x4 PUSH2 0x2F00 JUMP JUMPDEST PUSH2 0x1A34 JUMP JUMPDEST CALLVALUE DUP1 ISZERO PUSH2 0x882 JUMPI PUSH1 0x0 DUP1 REVERT JUMPDEST POP PUSH2 0x311 PUSH2 0x891 CALLDATASIZE PUSH1 0x4 PUSH2 0x2E51 JUMP JUMPDEST PUSH2 0x1ECB JUMP JUMPDEST CALLVALUE DUP1 ISZERO PUSH2 0x8A2 JUMPI PUSH1 0x0 DUP1 REVERT JUMPDEST POP PUSH2 0x28C PUSH2 0x8B1 CALLDATASIZE PUSH1 0x4 PUSH2 0x2FA4 JUMP JUMPDEST PUSH2 0x1EE9 JUMP JUMPDEST CALLVALUE DUP1 ISZERO PUSH2 0x8C2 JUMPI PUSH1 0x0 DUP1 REVERT JUMPDEST POP PUSH2 0x28C PUSH2 0x8D1 CALLDATASIZE PUSH1 0x4 PUSH2 0x2E2F JUMP JUMPDEST PUSH2 0x1F74 JUMP JUMPDEST CALLVALUE DUP1 ISZERO PUSH2 0x8E2 JUMPI PUSH1 0x0 DUP1 REVERT JUMPDEST POP PUSH2 0x28C PUSH2 0x8F1 CALLDATASIZE PUSH1 0x4 PUSH2 0x2E51 JUMP JUMPDEST PUSH2 0x202A JUMP JUMPDEST CALLVALUE DUP1 ISZERO PUSH2 0x902 JUMPI PUSH1 0x0 DUP1 REVERT JUMPDEST POP PUSH2 0x2AE PUSH2 0x911 CALLDATASIZE PUSH1 0x4 PUSH2 0x2F00 JUMP JUMPDEST PUSH2 0x2037 JUMP JUMPDEST CALLVALUE DUP1 ISZERO PUSH2 0x922 JUMPI PUSH1 0x0 DUP1 REVERT JUMPDEST POP PUSH2 0x311 PUSH1 0x8 SLOAD DUP2 JUMP JUMPDEST CALLVALUE DUP1 ISZERO PUSH2 0x938 JUMPI PUSH1 0x0 DUP1 REVERT JUMPDEST POP PUSH2 0x311 PUSH1 0x9 SLOAD DUP2 JUMP JUMPDEST CALLVALUE DUP1 ISZERO PUSH2 0x94E JUMPI PUSH1 0x0 DUP1 REVERT JUMPDEST POP PUSH2 0x5A9 PUSH1 0x1 PUSH1 0x1 PUSH1 0x60 SHL SUB DUP2 JUMP JUMPDEST CALLVALUE DUP1 ISZERO PUSH2 0x969 JUMPI PUSH1 0x0 DUP1 REVERT JUMPDEST POP PUSH2 0x311 PUSH32 0x0 DUP2 JUMP JUMPDEST CALLVALUE DUP1 ISZERO PUSH2 0x99D JUMPI PUSH1 0x0 DUP1 REVERT JUMPDEST POP PUSH2 0x28C PUSH2 0x9AC CALLDATASIZE PUSH1 0x4 PUSH2 0x2EE5 JUMP JUMPDEST PUSH2 0x2307 JUMP JUMPDEST CALLVALUE DUP1 ISZERO PUSH2 0x9BD JUMPI PUSH1 0x0 DUP1 REVERT JUMPDEST POP PUSH2 0x311 PUSH2 0x9CC CALLDATASIZE PUSH1 0x4 PUSH2 0x2E51 JUMP JUMPDEST PUSH2 0x237D JUMP JUMPDEST CALLVALUE DUP1 ISZERO PUSH2 0x9DD JUMPI PUSH1 0x0 DUP1 REVERT JUMPDEST POP PUSH2 0x311 PUSH1 0xA SLOAD DUP2 JUMP JUMPDEST PUSH1 0x0 DUP2 DUP2 MSTORE PUSH1 0x2 PUSH1 0x20 MSTORE PUSH1 0x40 SWAP1 KECCAK256 SLOAD DUP2 SWAP1 PUSH1 0x1 PUSH1 0x1 PUSH1 0xA0 SHL SUB AND CHAINID DUP3 SUB PUSH2 0xA3E JUMPI CALLER PUSH1 0x1 PUSH1 0x1 PUSH1 0xA0 SHL SUB DUP3 AND EQ PUSH2 0xA39 JUMPI PUSH1 0x40 MLOAD PUSH3 0x461BCD PUSH1 0xE5 SHL DUP2 MSTORE PUSH1 0x4 ADD PUSH2 0xA30 SWAP1 PUSH2 0x2FD7 JUMP JUMPDEST PUSH1 0x40 MLOAD DUP1 SWAP2 SUB SWAP1 REVERT JUMPDEST PUSH2 0xB04 JUMP JUMPDEST PUSH1 0x0 DUP3 DUP2 MSTORE PUSH1 0x2 PUSH1 0x20 MSTORE PUSH1 0x40 SWAP1 KECCAK256 PUSH1 0x1 ADD SLOAD PUSH1 0x1 PUSH1 0x1 PUSH1 0xA0 SHL SUB AND DUP1 PUSH2 0xA76 JUMPI PUSH1 0x40 MLOAD PUSH3 0x461BCD PUSH1 0xE5 SHL DUP2 MSTORE PUSH1 0x4 ADD PUSH2 0xA30 SWAP1 PUSH2 0x300C JUMP JUMPDEST PUSH1 0x40 MLOAD PUSH4 0x845C5443 PUSH1 0xE0 SHL DUP2 MSTORE PUSH1 0x1 PUSH1 0x1 PUSH1 0xA0 SHL SUB DUP4 DUP2 AND PUSH1 0x4 DUP4 ADD MSTORE CALLER PUSH1 0x24 DUP4 ADD MSTORE DUP3 AND SWAP1 PUSH4 0x845C5443 SWAP1 PUSH1 0x44 ADD PUSH1 0x20 PUSH1 0x40 MLOAD DUP1 DUP4 SUB DUP2 DUP7 GAS STATICCALL ISZERO DUP1 ISZERO PUSH2 0xAC2 JUMPI RETURNDATASIZE PUSH1 0x0 DUP1 RETURNDATACOPY RETURNDATASIZE PUSH1 0x0 REVERT JUMPDEST POP POP POP POP PUSH1 0x40 MLOAD RETURNDATASIZE PUSH1 0x1F NOT PUSH1 0x1F DUP3 ADD AND DUP3 ADD DUP1 PUSH1 0x40 MSTORE POP DUP2 ADD SWAP1 PUSH2 0xAE6 SWAP2 SWAP1 PUSH2 0x304E JUMP JUMPDEST PUSH2 0xB02 JUMPI PUSH1 0x40 MLOAD PUSH3 0x461BCD PUSH1 0xE5 SHL DUP2 MSTORE PUSH1 0x4 ADD PUSH2 0xA30 SWAP1 PUSH2 0x2FD7 JUMP JUMPDEST POP JUMPDEST PUSH1 0x0 DUP6 DUP2 MSTORE PUSH1 0x5 PUSH1 0x20 DUP2 SWAP1 MSTORE PUSH1 0x40 SWAP1 SWAP2 KECCAK256 SWAP1 DUP2 ADD SLOAD PUSH1 0x1 PUSH1 0x60 SHL SWAP1 DIV PUSH1 0x1 PUSH1 0x1 PUSH1 0xA0 SHL SUB AND ISZERO PUSH2 0xB76 JUMPI PUSH1 0x40 MLOAD PUSH3 0x461BCD PUSH1 0xE5 SHL DUP2 MSTORE PUSH1 0x20 PUSH1 0x4 DUP3 ADD DUP2 SWAP1 MSTORE PUSH1 0x24 DUP3 ADD MSTORE PUSH32 0x43616E6E6F7420696E76616C6964617465207265736F6C7665642066696C6C73 PUSH1 0x44 DUP3 ADD MSTORE PUSH1 0x64 ADD PUSH2 0xA30 JUMP JUMPDEST PUSH1 0x0 DUP6 DUP2 MSTORE PUSH1 0x7 DUP3 ADD PUSH1 0x20 MSTORE PUSH1 0x40 SWAP1 KECCAK256 SLOAD PUSH1 0xFF AND ISZERO PUSH2 0xBD2 JUMPI PUSH1 0x40 MLOAD PUSH3 0x461BCD PUSH1 0xE5 SHL DUP2 MSTORE PUSH1 0x20 PUSH1 0x4 DUP3 ADD MSTORE PUSH1 0x18 PUSH1 0x24 DUP3 ADD MSTORE PUSH24 0x119A5B1B08185B1C9958591E481A5B9D985B1A59185D1959 PUSH1 0x42 SHL PUSH1 0x44 DUP3 ADD MSTORE PUSH1 0x64 ADD PUSH2 0xA30 JUMP JUMPDEST PUSH1 0x0 DUP6 DUP2 MSTORE PUSH1 0x7 DUP3 ADD PUSH1 0x20 MSTORE PUSH1 0x40 SWAP1 DUP2 SWAP1 KECCAK256 DUP1 SLOAD PUSH1 0xFF NOT AND PUSH1 0x1 OR SWAP1 SSTORE MLOAD PUSH32 0x5571B83C623961FB42D39CE6D6D2092153ACE66C008E2DC2472EC6D2E8FAD045 SWAP1 PUSH2 0xC28 SWAP1 DUP9 SWAP1 DUP9 SWAP1 SWAP2 DUP3 MSTORE PUSH1 0x20 DUP3 ADD MSTORE PUSH1 0x40 ADD SWAP1 JUMP JUMPDEST PUSH1 0x40 MLOAD DUP1 SWAP2 SUB SWAP1 LOG1 POP POP POP POP POP POP JUMP JUMPDEST PUSH1 0x2 PUSH1 0x20 MSTORE DUP2 PUSH1 0x0 MSTORE PUSH1 0x40 PUSH1 0x0 KECCAK256 DUP2 PUSH1 0x2 DUP2 LT PUSH2 0xC54 JUMPI PUSH1 0x0 DUP1 REVERT JUMPDEST ADD SLOAD PUSH1 0x1 PUSH1 0x1 PUSH1 0xA0 SHL SUB AND SWAP2 POP DUP3 SWAP1 POP JUMP JUMPDEST PUSH1 0x0 DUP2 DUP2 MSTORE PUSH1 0x5 PUSH1 0x20 MSTORE PUSH1 0x40 DUP2 KECCAK256 SLOAD DUP3 SWAP1 PUSH1 0x1 PUSH1 0x1 PUSH1 0xA0 SHL SUB AND PUSH2 0xC9C JUMPI PUSH1 0x40 MLOAD PUSH3 0x461BCD PUSH1 0xE5 SHL DUP2 MSTORE PUSH1 0x4 ADD PUSH2 0xA30 SWAP1 PUSH2 0x3070 JUMP JUMPDEST POP POP PUSH1 0x0 SWAP1 DUP2 MSTORE PUSH1 0x5 PUSH1 0x20 DUP2 SWAP1 MSTORE PUSH1 0x40 SWAP1 SWAP2 KECCAK256 ADD SLOAD PUSH1 0x1 PUSH1 0x1 PUSH1 0x60 SHL SUB AND ISZERO ISZERO SWAP1 JUMP JUMPDEST PUSH1 0x0 PUSH2 0xCC9 PUSH2 0x23A6 JUMP JUMPDEST PUSH1 0x0 DUP8 DUP2 MSTORE PUSH1 0x4 PUSH1 0x20 MSTORE PUSH1 0x40 DUP2 KECCAK256 SLOAD SWAP1 SUB PUSH2 0xD26 JUMPI PUSH1 0x40 MLOAD PUSH3 0x461BCD PUSH1 0xE5 SHL DUP2 MSTORE PUSH1 0x20 PUSH1 0x4 DUP3 ADD MSTORE PUSH1 0x1B PUSH1 0x24 DUP3 ADD MSTORE PUSH32 0x54617267657420726F6C6C7570206E6F7420737570706F727465640000000000 PUSH1 0x44 DUP3 ADD MSTORE PUSH1 0x64 ADD PUSH2 0xA30 JUMP JUMPDEST PUSH2 0x708 DUP3 LT ISZERO PUSH2 0xD78 JUMPI PUSH1 0x40 MLOAD PUSH3 0x461BCD PUSH1 0xE5 SHL DUP2 MSTORE PUSH1 0x20 PUSH1 0x4 DUP3 ADD MSTORE PUSH1 0x19 PUSH1 0x24 DUP3 ADD MSTORE PUSH32 0x56616C696469747920706572696F6420746F6F2073686F727400000000000000 PUSH1 0x44 DUP3 ADD MSTORE PUSH1 0x64 ADD PUSH2 0xA30 JUMP JUMPDEST PUSH3 0x2A300 DUP3 GT ISZERO PUSH2 0xDCB JUMPI PUSH1 0x40 MLOAD PUSH3 0x461BCD PUSH1 0xE5 SHL DUP2 MSTORE PUSH1 0x20 PUSH1 0x4 DUP3 ADD MSTORE PUSH1 0x18 PUSH1 0x24 DUP3 ADD MSTORE PUSH32 0x56616C696469747920706572696F6420746F6F206C6F6E670000000000000000 PUSH1 0x44 DUP3 ADD MSTORE PUSH1 0x64 ADD PUSH2 0xA30 JUMP JUMPDEST PUSH1 0xA SLOAD DUP4 GT ISZERO PUSH2 0xE1D JUMPI PUSH1 0x40 MLOAD PUSH3 0x461BCD PUSH1 0xE5 SHL DUP2 MSTORE PUSH1 0x20 PUSH1 0x4 DUP3 ADD MSTORE PUSH1 0x1D PUSH1 0x24 DUP3 ADD MSTORE PUSH32 0x416D6F756E742065786365656473207472616E73666572206C696D6974000000 PUSH1 0x44 DUP3 ADD MSTORE PUSH1 0x64 ADD PUSH2 0xA30 JUMP JUMPDEST DUP6 PUSH1 0x0 PUSH2 0xE29 DUP6 PUSH2 0x237D JUMP JUMPDEST SWAP1 POP PUSH1 0x0 PUSH2 0xE36 DUP7 PUSH2 0x1A10 JUMP JUMPDEST SWAP1 POP DUP1 PUSH2 0xE43 DUP4 DUP9 PUSH2 0x30B3 JUMP JUMPDEST PUSH2 0xE4D SWAP2 SWAP1 PUSH2 0x30B3 JUMP JUMPDEST PUSH1 0x40 MLOAD PUSH4 0x6EB1769F PUSH1 0xE1 SHL DUP2 MSTORE CALLER PUSH1 0x4 DUP3 ADD MSTORE ADDRESS PUSH1 0x24 DUP3 ADD MSTORE PUSH1 0x1 PUSH1 0x1 PUSH1 0xA0 SHL SUB DUP6 AND SWAP1 PUSH4 0xDD62ED3E SWAP1 PUSH1 0x44 ADD PUSH1 0x20 PUSH1 0x40 MLOAD DUP1 DUP4 SUB DUP2 DUP7 GAS STATICCALL ISZERO DUP1 ISZERO PUSH2 0xE97 JUMPI RETURNDATASIZE PUSH1 0x0 DUP1 RETURNDATACOPY RETURNDATASIZE PUSH1 0x0 REVERT JUMPDEST POP POP POP POP PUSH1 0x40 MLOAD RETURNDATASIZE PUSH1 0x1F NOT PUSH1 0x1F DUP3 ADD AND DUP3 ADD DUP1 PUSH1 0x40 MSTORE POP DUP2 ADD SWAP1 PUSH2 0xEBB SWAP2 SWAP1 PUSH2 0x30CB JUMP JUMPDEST LT ISZERO PUSH2 0xF02 JUMPI PUSH1 0x40 MLOAD PUSH3 0x461BCD PUSH1 0xE5 SHL DUP2 MSTORE PUSH1 0x20 PUSH1 0x4 DUP3 ADD MSTORE PUSH1 0x16 PUSH1 0x24 DUP3 ADD MSTORE PUSH22 0x496E73756666696369656E7420616C6C6F77616E6365 PUSH1 0x50 SHL PUSH1 0x44 DUP3 ADD MSTORE PUSH1 0x64 ADD PUSH2 0xA30 JUMP JUMPDEST PUSH1 0x3 SLOAD PUSH1 0x0 SWAP1 PUSH2 0xF21 SWAP1 PUSH2 0x100 SWAP1 DIV PUSH1 0x1 PUSH1 0x1 PUSH1 0x60 SHL SUB AND PUSH1 0x1 PUSH2 0x30E4 JUMP JUMPDEST PUSH1 0x3 DUP1 SLOAD PUSH1 0x1 PUSH1 0x1 PUSH1 0x60 SHL SUB DUP4 AND PUSH2 0x100 MUL PUSH13 0xFFFFFFFFFFFFFFFFFFFFFFFF00 NOT SWAP1 SWAP2 AND OR SWAP1 SSTORE PUSH1 0x40 DUP1 MLOAD CHAINID PUSH1 0x20 DUP1 DUP4 ADD SWAP2 SWAP1 SWAP2 MSTORE DUP2 DUP4 ADD DUP16 SWAP1 MSTORE PUSH1 0x1 PUSH1 0x1 PUSH1 0x60 SHL SUB NOT PUSH1 0x60 DUP15 DUP2 SHL DUP3 AND DUP2 DUP6 ADD MSTORE DUP14 SWAP1 SHL AND PUSH1 0x74 DUP4 ADD MSTORE PUSH1 0x88 DUP3 ADD DUP12 SWAP1 MSTORE PUSH1 0x1 PUSH1 0x1 PUSH1 0xA0 SHL SUB NOT PUSH1 0xA0 DUP6 SWAP1 SHL AND PUSH1 0xA8 DUP4 ADD MSTORE DUP3 MLOAD DUP1 DUP4 SUB PUSH1 0x94 ADD DUP2 MSTORE PUSH1 0xB4 SWAP1 SWAP3 ADD SWAP1 SWAP3 MSTORE DUP1 MLOAD SWAP2 ADD KECCAK256 SWAP1 SWAP2 POP PUSH1 0x0 PUSH1 0x5 PUSH1 0x0 DUP4 DUP2 MSTORE PUSH1 0x20 ADD SWAP1 DUP2 MSTORE PUSH1 0x20 ADD PUSH1 0x0 KECCAK256 SWAP1 POP CALLER DUP2 PUSH1 0x0 ADD PUSH1 0x0 PUSH2 0x100 EXP DUP2 SLOAD DUP2 PUSH1 0x1 PUSH1 0x1 PUSH1 0xA0 SHL SUB MUL NOT AND SWAP1 DUP4 PUSH1 0x1 PUSH1 0x1 PUSH1 0xA0 SHL SUB AND MUL OR SWAP1 SSTORE POP DUP12 DUP2 PUSH1 0x1 ADD PUSH1 0x0 PUSH2 0x100 EXP DUP2 SLOAD DUP2 PUSH1 0x1 PUSH1 0x1 PUSH1 0xA0 SHL SUB MUL NOT AND SWAP1 DUP4 PUSH1 0x1 PUSH1 0x1 PUSH1 0xA0 SHL SUB AND MUL OR SWAP1 SSTORE POP DUP13 DUP2 PUSH1 0x2 ADD DUP2 SWAP1 SSTORE POP DUP9 DUP2 PUSH1 0x3 ADD DUP2 SWAP1 SSTORE POP DUP8 TIMESTAMP PUSH2 0x1035 SWAP2 SWAP1 PUSH2 0x30B3 JUMP JUMPDEST DUP2 PUSH1 0x4 ADD PUSH1 0x0 PUSH2 0x100 EXP DUP2 SLOAD DUP2 PUSH4 0xFFFFFFFF MUL NOT AND SWAP1 DUP4 PUSH4 0xFFFFFFFF AND MUL OR SWAP1 SSTORE POP DUP5 DUP2 PUSH1 0x4 ADD PUSH1 0x4 PUSH2 0x100 EXP DUP2 SLOAD DUP2 PUSH1 0x1 PUSH1 0x1 PUSH1 0x60 SHL SUB MUL NOT AND SWAP1 DUP4 PUSH1 0x1 PUSH1 0x1 PUSH1 0x60 SHL SUB AND MUL OR SWAP1 SSTORE POP DUP4 DUP2 PUSH1 0x4 ADD PUSH1 0x10 PUSH2 0x100 EXP DUP2 SLOAD DUP2 PUSH1 0x1 PUSH1 0x1 PUSH1 0x60 SHL SUB MUL NOT AND SWAP1 DUP4 PUSH1 0x1 PUSH1 0x1 PUSH1 0x60 SHL SUB AND MUL OR SWAP1 SSTORE POP DUP2 PUSH32 0x5CB181DE12515EAC47130902B874F42CA463496F8F42AD3B13431E7A223740FE DUP15 DUP15 DUP15 DUP15 DUP15 DUP10 DUP16 TIMESTAMP PUSH2 0x10DD SWAP2 SWAP1 PUSH2 0x30B3 JUMP JUMPDEST PUSH1 0x40 DUP1 MLOAD SWAP8 DUP9 MSTORE PUSH1 0x1 PUSH1 0x1 PUSH1 0xA0 SHL SUB SWAP7 DUP8 AND PUSH1 0x20 DUP10 ADD MSTORE SWAP5 DUP7 AND DUP8 DUP7 ADD MSTORE SWAP3 SWAP1 SWAP5 AND PUSH1 0x60 DUP7 ADD MSTORE PUSH1 0x80 DUP6 ADD MSTORE PUSH1 0x1 PUSH1 0x1 PUSH1 0x60 SHL SUB SWAP1 SWAP3 AND PUSH1 0xA0 DUP5 ADD MSTORE PUSH4 0xFFFFFFFF SWAP1 SWAP2 AND PUSH1 0xC0 DUP4 ADD MSTORE MLOAD SWAP1 DUP2 SWAP1 SUB PUSH1 0xE0 ADD SWAP1 LOG2 PUSH2 0x115C CALLER ADDRESS DUP7 PUSH2 0x1140 DUP10 DUP15 PUSH2 0x30B3 JUMP JUMPDEST PUSH2 0x114A SWAP2 SWAP1 PUSH2 0x30B3 JUMP JUMPDEST PUSH1 0x1 PUSH1 0x1 PUSH1 0xA0 SHL SUB DUP11 AND SWAP3 SWAP2 SWAP1 PUSH2 0x23EC JUMP JUMPDEST POP SWAP12 SWAP11 POP POP POP POP POP POP POP POP POP POP POP JUMP JUMPDEST PUSH2 0x1174 PUSH2 0x2457 JUMP JUMPDEST PUSH1 0x1 PUSH1 0x1 PUSH1 0xA0 SHL SUB DUP2 AND PUSH1 0x0 DUP2 DUP2 MSTORE PUSH1 0x1 PUSH1 0x20 DUP2 DUP2 MSTORE PUSH1 0x40 SWAP3 DUP4 SWAP1 KECCAK256 DUP1 SLOAD PUSH1 0xFF NOT AND SWAP1 SWAP3 OR SWAP1 SWAP2 SSTORE SWAP1 MLOAD SWAP2 DUP3 MSTORE PUSH32 0x371FC559C30F70424413FED6BF7E57DC939651331ABAD5C970A8EA0921C80B2E SWAP2 ADD JUMPDEST PUSH1 0x40 MLOAD DUP1 SWAP2 SUB SWAP1 LOG1 POP JUMP JUMPDEST PUSH2 0x11D8 PUSH2 0x2457 JUMP JUMPDEST PUSH1 0x1 PUSH1 0x1 PUSH1 0xA0 SHL SUB DUP2 AND PUSH1 0x0 DUP2 DUP2 MSTORE PUSH1 0x1 PUSH1 0x20 SWAP1 DUP2 MSTORE PUSH1 0x40 SWAP2 DUP3 SWAP1 KECCAK256 DUP1 SLOAD PUSH1 0xFF NOT AND SWAP1 SSTORE SWAP1 MLOAD SWAP2 DUP3 MSTORE PUSH32 0x4E774C97F73F4BEA034579E4224498D7D9B3A4109EAA70ED3D85C97A5855F198 SWAP2 ADD PUSH2 0x11C5 JUMP JUMPDEST PUSH2 0x1231 PUSH2 0x2457 JUMP JUMPDEST PUSH2 0x1239 PUSH2 0x24B1 JUMP JUMPDEST JUMP JUMPDEST PUSH1 0x0 DUP3 DUP2 MSTORE PUSH1 0x2 PUSH1 0x20 MSTORE PUSH1 0x40 SWAP1 KECCAK256 SLOAD DUP3 SWAP1 PUSH1 0x1 PUSH1 0x1 PUSH1 0xA0 SHL SUB AND CHAINID DUP3 SUB PUSH2 0x1289 JUMPI CALLER PUSH1 0x1 PUSH1 0x1 PUSH1 0xA0 SHL SUB DUP3 AND EQ PUSH2 0x1284 JUMPI PUSH1 0x40 MLOAD PUSH3 0x461BCD PUSH1 0xE5 SHL DUP2 MSTORE PUSH1 0x4 ADD PUSH2 0xA30 SWAP1 PUSH2 0x2FD7 JUMP JUMPDEST PUSH2 0x134F JUMP JUMPDEST PUSH1 0x0 DUP3 DUP2 MSTORE PUSH1 0x2 PUSH1 0x20 MSTORE PUSH1 0x40 SWAP1 KECCAK256 PUSH1 0x1 ADD SLOAD PUSH1 0x1 PUSH1 0x1 PUSH1 0xA0 SHL SUB AND DUP1 PUSH2 0x12C1 JUMPI PUSH1 0x40 MLOAD PUSH3 0x461BCD PUSH1 0xE5 SHL DUP2 MSTORE PUSH1 0x4 ADD PUSH2 0xA30 SWAP1 PUSH2 0x300C JUMP JUMPDEST PUSH1 0x40 MLOAD PUSH4 0x845C5443 PUSH1 0xE0 SHL DUP2 MSTORE PUSH1 0x1 PUSH1 0x1 PUSH1 0xA0 SHL SUB DUP4 DUP2 AND PUSH1 0x4 DUP4 ADD MSTORE CALLER PUSH1 0x24 DUP4 ADD MSTORE DUP3 AND SWAP1 PUSH4 0x845C5443 SWAP1 PUSH1 0x44 ADD PUSH1 0x20 PUSH1 0x40 MLOAD DUP1 DUP4 SUB DUP2 DUP7 GAS STATICCALL ISZERO DUP1 ISZERO PUSH2 0x130D JUMPI RETURNDATASIZE PUSH1 0x0 DUP1 RETURNDATACOPY RETURNDATASIZE PUSH1 0x0 REVERT JUMPDEST POP POP POP POP PUSH1 0x40 MLOAD RETURNDATASIZE PUSH1 0x1F NOT PUSH1 0x1F DUP3 ADD AND DUP3 ADD DUP1 PUSH1 0x40 MSTORE POP DUP2 ADD SWAP1 PUSH2 0x1331 SWAP2 SWAP1 PUSH2 0x304E JUMP JUMPDEST PUSH2 0x134D JUMPI PUSH1 0x40 MLOAD PUSH3 0x461BCD PUSH1 0xE5 SHL DUP2 MSTORE PUSH1 0x4 ADD PUSH2 0xA30 SWAP1 PUSH2 0x2FD7 JUMP JUMPDEST POP JUMPDEST PUSH1 0x0 DUP7 DUP2 MSTORE PUSH1 0x5 PUSH1 0x20 DUP2 DUP2 MSTORE PUSH1 0x40 DUP1 DUP5 KECCAK256 SWAP3 DUP4 ADD DUP1 SLOAD PUSH1 0x1 PUSH1 0x1 PUSH1 0x60 SHL SUB AND PUSH1 0x1 PUSH1 0x60 SHL PUSH1 0x1 PUSH1 0x1 PUSH1 0xA0 SHL SUB DUP11 AND SWAP1 DUP2 MUL SWAP2 SWAP1 SWAP2 OR SWAP1 SWAP2 SSTORE PUSH1 0x6 DUP5 ADD DUP11 SWAP1 SSTORE DUP10 DUP6 MSTORE PUSH1 0x7 DUP5 ADD DUP4 MSTORE SWAP4 DUP2 SWAP1 KECCAK256 DUP1 SLOAD PUSH1 0xFF NOT AND SWAP1 SSTORE DUP1 MLOAD DUP11 DUP2 MSTORE SWAP2 DUP3 ADD SWAP4 SWAP1 SWAP4 MSTORE SWAP2 DUP3 ADD DUP8 SWAP1 MSTORE SWAP1 PUSH32 0xB32D3C8B5539B0CC3050D5B75E9DAD8ECA8744A0892259BDA27FDB51B9956736 SWAP1 PUSH1 0x60 ADD PUSH1 0x40 MLOAD DUP1 SWAP2 SUB SWAP1 LOG1 POP POP POP POP POP POP POP JUMP JUMPDEST PUSH2 0x13F4 PUSH2 0x2457 JUMP JUMPDEST PUSH2 0x1239 PUSH1 0x0 PUSH2 0x2503 JUMP JUMPDEST PUSH2 0x1406 PUSH2 0x2457 JUMP JUMPDEST PUSH2 0x1411 DUP4 DUP4 DUP4 PUSH2 0x2553 JUMP JUMPDEST POP POP POP JUMP JUMPDEST PUSH1 0x0 DUP3 DUP2 MSTORE PUSH1 0x5 PUSH1 0x20 MSTORE PUSH1 0x40 DUP2 KECCAK256 SLOAD DUP4 SWAP1 PUSH1 0x1 PUSH1 0x1 PUSH1 0xA0 SHL SUB AND PUSH2 0x144C JUMPI PUSH1 0x40 MLOAD PUSH3 0x461BCD PUSH1 0xE5 SHL DUP2 MSTORE PUSH1 0x4 ADD PUSH2 0xA30 SWAP1 PUSH2 0x3070 JUMP JUMPDEST CALLER PUSH1 0x0 SWAP1 DUP2 MSTORE PUSH1 0x1 PUSH1 0x20 MSTORE PUSH1 0x40 SWAP1 KECCAK256 SLOAD PUSH1 0xFF AND PUSH2 0x14A4 JUMPI PUSH1 0x40 MLOAD PUSH3 0x461BCD PUSH1 0xE5 SHL DUP2 MSTORE PUSH1 0x20 PUSH1 0x4 DUP3 ADD MSTORE PUSH1 0x16 PUSH1 0x24 DUP3 ADD MSTORE PUSH22 0x14D95B99195C881B9BDD081DDA1A5D195B1A5CDD1959 PUSH1 0x52 SHL PUSH1 0x44 DUP3 ADD MSTORE PUSH1 0x64 ADD PUSH2 0xA30 JUMP JUMPDEST PUSH1 0x0 DUP5 DUP2 MSTORE PUSH1 0x5 PUSH1 0x20 MSTORE PUSH1 0x40 SWAP1 KECCAK256 PUSH1 0x4 DUP2 ADD SLOAD PUSH2 0x14E8 SWAP1 PUSH32 0x0 SWAP1 PUSH4 0xFFFFFFFF AND PUSH2 0x30B3 JUMP JUMPDEST TIMESTAMP LT PUSH2 0x1540 JUMPI PUSH1 0x40 MLOAD PUSH3 0x461BCD PUSH1 0xE5 SHL DUP2 MSTORE PUSH1 0x20 PUSH1 0x4 DUP3 ADD MSTORE PUSH1 0x21 PUSH1 0x24 DUP3 ADD MSTORE PUSH32 0x526571756573742063616E6E6F7420626520636C61696D656420616E796D6F72 PUSH1 0x44 DUP3 ADD MSTORE PUSH1 0x65 PUSH1 0xF8 SHL PUSH1 0x64 DUP3 ADD MSTORE PUSH1 0x84 ADD PUSH2 0xA30 JUMP JUMPDEST PUSH1 0x5 DUP2 ADD SLOAD PUSH1 0x1 PUSH1 0x1 PUSH1 0x60 SHL SUB AND ISZERO PUSH2 0x1597 JUMPI PUSH1 0x40 MLOAD PUSH3 0x461BCD PUSH1 0xE5 SHL DUP2 MSTORE PUSH1 0x20 PUSH1 0x4 DUP3 ADD MSTORE PUSH1 0x19 PUSH1 0x24 DUP3 ADD MSTORE PUSH25 0x2232B837B9B4BA1030B63932B0B23C903BB4BA34323930BBB7 PUSH1 0x39 SHL PUSH1 0x44 DUP3 ADD MSTORE PUSH1 0x64 ADD PUSH2 0xA30 JUMP JUMPDEST PUSH32 0x0 CALLVALUE EQ PUSH2 0x15FD JUMPI PUSH1 0x40 MLOAD PUSH3 0x461BCD PUSH1 0xE5 SHL DUP2 MSTORE PUSH1 0x20 PUSH1 0x4 DUP3 ADD MSTORE PUSH1 0x14 PUSH1 0x24 DUP3 ADD MSTORE PUSH20 0x125B9D985B1A59081CDD185AD948185B5BDD5B9D PUSH1 0x62 SHL PUSH1 0x44 DUP3 ADD MSTORE PUSH1 0x64 ADD PUSH2 0xA30 JUMP JUMPDEST DUP4 PUSH2 0x1643 JUMPI PUSH1 0x40 MLOAD PUSH3 0x461BCD PUSH1 0xE5 SHL DUP2 MSTORE PUSH1 0x20 PUSH1 0x4 DUP3 ADD MSTORE PUSH1 0x16 PUSH1 0x24 DUP3 ADD MSTORE PUSH22 0x46696C6C4964206D757374206E6F742062652030783 PUSH1 0x54 SHL PUSH1 0x44 DUP3 ADD MSTORE PUSH1 0x64 ADD PUSH2 0xA30 JUMP JUMPDEST PUSH1 0x1 DUP2 PUSH1 0x4 ADD PUSH1 0x1C DUP3 DUP3 DUP3 SWAP1 SLOAD SWAP1 PUSH2 0x100 EXP SWAP1 DIV PUSH4 0xFFFFFFFF AND PUSH2 0x1667 SWAP2 SWAP1 PUSH2 0x310F JUMP JUMPDEST DUP3 SLOAD PUSH4 0xFFFFFFFF SWAP2 DUP3 AND PUSH2 0x100 SWAP4 DUP5 EXP SWAP1 DUP2 MUL SWAP3 MUL NOT AND OR SWAP1 SWAP2 SSTORE PUSH1 0x3 SLOAD PUSH1 0x0 SWAP3 POP PUSH2 0x169F SWAP2 PUSH1 0x1 PUSH1 0x1 PUSH1 0x60 SHL SUB SWAP2 DIV AND PUSH1 0x1 PUSH2 0x30E4 JUMP JUMPDEST PUSH1 0x3 DUP1 SLOAD PUSH13 0xFFFFFFFFFFFFFFFFFFFFFFFF00 NOT AND PUSH2 0x100 PUSH1 0x1 PUSH1 0x1 PUSH1 0x60 SHL SUB DUP5 AND MUL OR SWAP1 SSTORE SWAP1 POP PUSH1 0x0 PUSH2 0x16F2 PUSH32 0x0 TIMESTAMP PUSH2 0x30B3 JUMP JUMPDEST SWAP1 POP PUSH1 0x0 PUSH1 0x6 PUSH1 0x0 DUP5 PUSH1 0x1 PUSH1 0x1 PUSH1 0x60 SHL SUB AND PUSH1 0x1 PUSH1 0x1 PUSH1 0x60 SHL SUB AND DUP2 MSTORE PUSH1 0x20 ADD SWAP1 DUP2 MSTORE PUSH1 0x20 ADD PUSH1 0x0 KECCAK256 SWAP1 POP DUP8 DUP2 PUSH1 0x0 ADD DUP2 SWAP1 SSTORE POP CALLER DUP2 PUSH1 0x1 ADD PUSH1 0x0 PUSH2 0x100 EXP DUP2 SLOAD DUP2 PUSH1 0x1 PUSH1 0x1 PUSH1 0xA0 SHL SUB MUL NOT AND SWAP1 DUP4 PUSH1 0x1 PUSH1 0x1 PUSH1 0xA0 SHL SUB AND MUL OR SWAP1 SSTORE POP CALLVALUE DUP2 PUSH1 0x2 ADD DUP2 SWAP1 SSTORE POP DUP2 DUP2 PUSH1 0x7 ADD DUP2 SWAP1 SSTORE POP DUP7 DUP2 PUSH1 0x8 ADD DUP2 SWAP1 SSTORE POP DUP8 PUSH32 0x763B6170DF0264962938E705B5CBB0E18FD60107C02B64E3261FA233458CE7A DUP5 CALLER CALLVALUE PUSH1 0x0 DUP1 DUP9 DUP15 PUSH1 0x40 MLOAD PUSH2 0x17A7 SWAP8 SWAP7 SWAP6 SWAP5 SWAP4 SWAP3 SWAP2 SWAP1 PUSH2 0x312E JUMP JUMPDEST PUSH1 0x40 MLOAD DUP1 SWAP2 SUB SWAP1 LOG2 POP SWAP1 SWAP7 SWAP6 POP POP POP POP POP POP JUMP JUMPDEST PUSH2 0x17C3 PUSH2 0x2457 JUMP JUMPDEST PUSH2 0x17CF CHAINID DUP3 PUSH1 0x0 PUSH2 0x2553 JUMP JUMPDEST POP JUMP JUMPDEST PUSH2 0x17DA PUSH2 0x2457 JUMP JUMPDEST PUSH1 0x9 SWAP3 SWAP1 SWAP3 SSTORE PUSH1 0x8 SSTORE PUSH1 0x7 SSTORE JUMP JUMPDEST PUSH1 0x0 DUP2 DUP2 MSTORE PUSH1 0x5 PUSH1 0x20 MSTORE PUSH1 0x40 SWAP1 KECCAK256 SLOAD DUP2 SWAP1 PUSH1 0x1 PUSH1 0x1 PUSH1 0xA0 SHL SUB AND PUSH2 0x181E JUMPI PUSH1 0x40 MLOAD PUSH3 0x461BCD PUSH1 0xE5 SHL DUP2 MSTORE PUSH1 0x4 ADD PUSH2 0xA30 SWAP1 PUSH2 0x3070 JUMP JUMPDEST PUSH1 0x0 DUP3 DUP2 MSTORE PUSH1 0x5 PUSH1 0x20 DUP2 SWAP1 MSTORE PUSH1 0x40 SWAP1 SWAP2 KECCAK256 SWAP1 DUP2 ADD SLOAD PUSH1 0x1 PUSH1 0x1 PUSH1 0x60 SHL SUB AND ISZERO PUSH2 0x1885 JUMPI PUSH1 0x40 MLOAD PUSH3 0x461BCD PUSH1 0xE5 SHL DUP2 MSTORE PUSH1 0x20 PUSH1 0x4 DUP3 ADD MSTORE PUSH1 0x19 PUSH1 0x24 DUP3 ADD MSTORE PUSH25 0x2232B837B9B4BA1030B63932B0B23C903BB4BA34323930BBB7 PUSH1 0x39 SHL PUSH1 0x44 DUP3 ADD MSTORE PUSH1 0x64 ADD PUSH2 0xA30 JUMP JUMPDEST PUSH1 0x4 DUP2 ADD SLOAD PUSH4 0xFFFFFFFF AND TIMESTAMP LT ISZERO PUSH2 0x18DF JUMPI PUSH1 0x40 MLOAD PUSH3 0x461BCD PUSH1 0xE5 SHL DUP2 MSTORE PUSH1 0x20 PUSH1 0x4 DUP3 ADD MSTORE PUSH1 0x17 PUSH1 0x24 DUP3 ADD MSTORE PUSH32 0x52657175657374206E6F74206578706972656420796574000000000000000000 PUSH1 0x44 DUP3 ADD MSTORE PUSH1 0x64 ADD PUSH2 0xA30 JUMP JUMPDEST PUSH1 0x4 DUP2 ADD SLOAD PUSH1 0x1 PUSH1 0xE0 SHL SWAP1 DIV PUSH4 0xFFFFFFFF AND ISZERO PUSH2 0x1936 JUMPI PUSH1 0x40 MLOAD PUSH3 0x461BCD PUSH1 0xE5 SHL DUP2 MSTORE PUSH1 0x20 PUSH1 0x4 DUP3 ADD MSTORE PUSH1 0x15 PUSH1 0x24 DUP3 ADD MSTORE PUSH21 0x41637469766520636C61696D732072756E6E696E67 PUSH1 0x58 SHL PUSH1 0x44 DUP3 ADD MSTORE PUSH1 0x64 ADD PUSH2 0xA30 JUMP JUMPDEST PUSH1 0x5 DUP2 ADD DUP1 SLOAD PUSH1 0x1 PUSH1 0x1 PUSH1 0x60 SHL SUB NOT AND PUSH1 0x1 PUSH1 0x1 PUSH1 0x60 SHL SUB OR SWAP1 SSTORE DUP1 SLOAD PUSH1 0x40 DUP1 MLOAD DUP6 DUP2 MSTORE PUSH1 0x1 PUSH1 0x1 PUSH1 0xA0 SHL SUB SWAP1 SWAP3 AND PUSH1 0x20 DUP4 ADD MSTORE PUSH32 0xAB63A14C4AABA38366FD39116091672BB44520328EE870BE35A51E573296E565 SWAP2 ADD PUSH1 0x40 MLOAD DUP1 SWAP2 SUB SWAP1 LOG1 PUSH1 0x1 DUP2 ADD SLOAD DUP2 SLOAD PUSH1 0x4 DUP4 ADD SLOAD PUSH1 0x3 DUP5 ADD SLOAD PUSH1 0x1 PUSH1 0x1 PUSH1 0xA0 SHL SUB SWAP4 DUP5 AND SWAP4 PUSH2 0x19FA SWAP4 AND SWAP2 PUSH1 0x1 PUSH1 0x1 PUSH1 0x60 SHL SUB PUSH1 0x1 PUSH1 0x80 SHL DUP3 DIV DUP2 AND SWAP3 PUSH2 0x19DF SWAP3 PUSH5 0x100000000 SWAP1 DIV SWAP1 SWAP2 AND SWAP1 PUSH2 0x30B3 JUMP JUMPDEST PUSH2 0x19E9 SWAP2 SWAP1 PUSH2 0x30B3 JUMP JUMPDEST PUSH1 0x1 PUSH1 0x1 PUSH1 0xA0 SHL SUB DUP5 AND SWAP2 SWAP1 PUSH2 0x2665 JUMP JUMPDEST POP POP POP POP JUMP JUMPDEST PUSH2 0x1A08 PUSH2 0x2457 JUMP JUMPDEST PUSH2 0x1239 PUSH2 0x2695 JUMP JUMPDEST PUSH1 0x0 PUSH3 0xF4240 PUSH1 0x9 SLOAD DUP4 PUSH2 0x1A24 SWAP2 SWAP1 PUSH2 0x3178 JUMP JUMPDEST PUSH2 0x1A2E SWAP2 SWAP1 PUSH2 0x3197 JUMP JUMPDEST SWAP3 SWAP2 POP POP JUMP JUMPDEST PUSH1 0x1 PUSH1 0x1 PUSH1 0x60 SHL SUB DUP2 AND PUSH1 0x0 SWAP1 DUP2 MSTORE PUSH1 0x6 PUSH1 0x20 MSTORE PUSH1 0x40 SWAP1 KECCAK256 PUSH1 0x1 ADD SLOAD DUP2 SWAP1 PUSH1 0x1 PUSH1 0x1 PUSH1 0xA0 SHL SUB AND PUSH2 0x1A9B JUMPI PUSH1 0x40 MLOAD PUSH3 0x461BCD PUSH1 0xE5 SHL DUP2 MSTORE PUSH1 0x20 PUSH1 0x4 DUP3 ADD MSTORE PUSH1 0x11 PUSH1 0x24 DUP3 ADD MSTORE PUSH17 0x18DB185A5B5259081B9BDD081D985B1A59 PUSH1 0x7A SHL PUSH1 0x44 DUP3 ADD MSTORE PUSH1 0x64 ADD PUSH2 0xA30 JUMP JUMPDEST PUSH1 0x1 PUSH1 0x1 PUSH1 0x60 SHL SUB DUP3 AND PUSH1 0x0 SWAP1 DUP2 MSTORE PUSH1 0x6 PUSH1 0x20 SWAP1 DUP2 MSTORE PUSH1 0x40 DUP1 DUP4 KECCAK256 DUP1 SLOAD PUSH1 0x7 DUP3 ADD SLOAD DUP2 DUP7 MSTORE PUSH1 0x5 SWAP1 SWAP5 MSTORE SWAP2 SWAP1 SWAP4 KECCAK256 SWAP1 SWAP2 SWAP1 TIMESTAMP DUP3 GT PUSH2 0x1B0B JUMPI PUSH1 0x40 MLOAD PUSH3 0x461BCD PUSH1 0xE5 SHL DUP2 MSTORE PUSH1 0x20 PUSH1 0x4 DUP3 ADD MSTORE PUSH1 0xD PUSH1 0x24 DUP3 ADD MSTORE PUSH13 0x10DB185A5B48195E1C1A5C9959 PUSH1 0x9A SHL PUSH1 0x44 DUP3 ADD MSTORE PUSH1 0x64 ADD PUSH2 0xA30 JUMP JUMPDEST PUSH1 0x5 DUP2 ADD SLOAD PUSH1 0x1 PUSH1 0x60 SHL SWAP1 DIV PUSH1 0x1 PUSH1 0x1 PUSH1 0xA0 SHL SUB AND ISZERO PUSH2 0x1B6D JUMPI PUSH1 0x40 MLOAD PUSH3 0x461BCD PUSH1 0xE5 SHL DUP2 MSTORE PUSH1 0x20 PUSH1 0x4 DUP3 ADD MSTORE PUSH1 0x18 PUSH1 0x24 DUP3 ADD MSTORE PUSH32 0x5265717565737420616C7265616479207265736F6C7665640000000000000000 PUSH1 0x44 DUP3 ADD MSTORE PUSH1 0x64 ADD PUSH2 0xA30 JUMP JUMPDEST PUSH1 0x8 DUP5 ADD SLOAD PUSH1 0x0 SWAP1 DUP2 MSTORE PUSH1 0x7 DUP3 ADD PUSH1 0x20 MSTORE PUSH1 0x40 SWAP1 KECCAK256 SLOAD PUSH1 0xFF AND ISZERO PUSH2 0x1BCE JUMPI PUSH1 0x40 MLOAD PUSH3 0x461BCD PUSH1 0xE5 SHL DUP2 MSTORE PUSH1 0x20 PUSH1 0x4 DUP3 ADD MSTORE PUSH1 0x18 PUSH1 0x24 DUP3 ADD MSTORE PUSH24 0x119A5B1B08185B1C9958591E481A5B9D985B1A59185D1959 PUSH1 0x42 SHL PUSH1 0x44 DUP3 ADD MSTORE PUSH1 0x64 ADD PUSH2 0xA30 JUMP JUMPDEST PUSH1 0x1 DUP5 ADD SLOAD PUSH1 0x2 DUP6 ADD SLOAD PUSH1 0x5 DUP7 ADD SLOAD PUSH32 0x0 SWAP3 PUSH1 0x1 PUSH1 0x1 PUSH1 0xA0 SHL SUB AND SWAP2 SWAP1 DUP1 DUP3 GT ISZERO PUSH2 0x1CF8 JUMPI DUP1 PUSH1 0x0 SUB PUSH2 0x1C3B JUMPI PUSH1 0x2 DUP6 ADD SLOAD PUSH1 0x0 SWAP1 DUP2 MSTORE PUSH1 0x4 PUSH1 0x20 MSTORE PUSH1 0x40 SWAP1 KECCAK256 SLOAD PUSH2 0x1C38 SWAP1 DUP6 PUSH2 0x30B3 JUMP JUMPDEST SWAP4 POP JUMPDEST PUSH1 0x1 PUSH1 0x1 PUSH1 0xA0 SHL SUB DUP4 AND CALLER SUB PUSH2 0x1C93 JUMPI PUSH1 0x40 MLOAD PUSH3 0x461BCD PUSH1 0xE5 SHL DUP2 MSTORE PUSH1 0x20 PUSH1 0x4 DUP3 ADD MSTORE PUSH1 0x1A PUSH1 0x24 DUP3 ADD MSTORE PUSH32 0x43616E6E6F74206368616C6C656E6765206F776E20636C61696D000000000000 PUSH1 0x44 DUP3 ADD MSTORE PUSH1 0x64 ADD PUSH2 0xA30 JUMP JUMPDEST PUSH2 0x1C9D DUP2 DUP4 PUSH2 0x31B9 JUMP JUMPDEST PUSH2 0x1CA8 SWAP1 PUSH1 0x1 PUSH2 0x30B3 JUMP JUMPDEST CALLVALUE LT ISZERO PUSH2 0x1CF3 JUMPI PUSH1 0x40 MLOAD PUSH3 0x461BCD PUSH1 0xE5 SHL DUP2 MSTORE PUSH1 0x20 PUSH1 0x4 DUP3 ADD MSTORE PUSH1 0x19 PUSH1 0x24 DUP3 ADD MSTORE PUSH25 0x139BDD08195B9BDD59DA081CDD185AD9481C1C9BDD9A591959 PUSH1 0x3A SHL PUSH1 0x44 DUP3 ADD MSTORE PUSH1 0x64 ADD PUSH2 0xA30 JUMP JUMPDEST PUSH2 0x1DC9 JUMP JUMPDEST CALLER PUSH1 0x1 PUSH1 0x1 PUSH1 0xA0 SHL SUB DUP5 AND EQ PUSH2 0x1D49 JUMPI PUSH1 0x40 MLOAD PUSH3 0x461BCD PUSH1 0xE5 SHL DUP2 MSTORE PUSH1 0x20 PUSH1 0x4 DUP3 ADD MSTORE PUSH1 0x16 PUSH1 0x24 DUP3 ADD MSTORE PUSH22 0x139BDD08195B1A59DA589B19481D1BC81BDD5D189A59 PUSH1 0x52 SHL PUSH1 0x44 DUP3 ADD MSTORE PUSH1 0x64 ADD PUSH2 0xA30 JUMP JUMPDEST PUSH32 0x0 PUSH2 0x1D74 DUP4 DUP4 PUSH2 0x31B9 JUMP JUMPDEST PUSH2 0x1D7E SWAP2 SWAP1 PUSH2 0x30B3 JUMP JUMPDEST CALLVALUE LT ISZERO PUSH2 0x1DC9 JUMPI PUSH1 0x40 MLOAD PUSH3 0x461BCD PUSH1 0xE5 SHL DUP2 MSTORE PUSH1 0x20 PUSH1 0x4 DUP3 ADD MSTORE PUSH1 0x19 PUSH1 0x24 DUP3 ADD MSTORE PUSH25 0x139BDD08195B9BDD59DA081CDD185AD9481C1C9BDD9A591959 PUSH1 0x3A SHL PUSH1 0x44 DUP3 ADD MSTORE PUSH1 0x64 ADD PUSH2 0xA30 JUMP JUMPDEST PUSH1 0x1 PUSH1 0x1 PUSH1 0xA0 SHL SUB DUP4 AND CALLER SUB PUSH2 0x1DF1 JUMPI PUSH2 0x1DE3 CALLVALUE DUP4 PUSH2 0x30B3 JUMP JUMPDEST PUSH1 0x2 DUP10 ADD DUP2 SWAP1 SSTORE SWAP2 POP PUSH2 0x1E42 JUMP JUMPDEST PUSH1 0x4 DUP9 ADD DUP1 SLOAD PUSH1 0x1 PUSH1 0x1 PUSH1 0xA0 SHL SUB NOT AND CALLER SWAP1 DUP2 OR SWAP1 SWAP2 SSTORE PUSH1 0x0 SWAP1 DUP2 MSTORE PUSH1 0x3 DUP10 ADD PUSH1 0x20 MSTORE PUSH1 0x40 DUP2 KECCAK256 DUP1 SLOAD CALLVALUE SWAP3 SWAP1 PUSH2 0x1E28 SWAP1 DUP5 SWAP1 PUSH2 0x30B3 JUMP JUMPDEST SWAP1 SWAP2 SSTORE POP PUSH2 0x1E38 SWAP1 POP CALLVALUE DUP3 PUSH2 0x30B3 JUMP JUMPDEST PUSH1 0x5 DUP10 ADD DUP2 SWAP1 SSTORE SWAP1 POP JUMPDEST DUP6 PUSH2 0x1E4D DUP6 TIMESTAMP PUSH2 0x30B3 JUMP JUMPDEST GT ISZERO PUSH2 0x1E67 JUMPI PUSH2 0x1E5D DUP5 TIMESTAMP PUSH2 0x30B3 JUMP JUMPDEST PUSH1 0x7 DUP10 ADD DUP2 SWAP1 SSTORE SWAP6 POP JUMPDEST PUSH1 0x4 DUP9 ADD SLOAD PUSH1 0x8 DUP10 ADD SLOAD PUSH1 0x40 MLOAD DUP10 SWAP3 PUSH32 0x763B6170DF0264962938E705B5CBB0E18FD60107C02B64E3261FA233458CE7A SWAP3 PUSH2 0x1EB7 SWAP3 DUP16 SWAP3 DUP10 SWAP3 DUP10 SWAP3 PUSH1 0x1 PUSH1 0x1 PUSH1 0xA0 SHL SUB SWAP1 SWAP3 AND SWAP2 DUP10 SWAP2 DUP16 SWAP2 PUSH2 0x312E JUMP JUMPDEST PUSH1 0x40 MLOAD DUP1 SWAP2 SUB SWAP1 LOG2 POP POP POP POP POP POP POP POP POP POP JUMP JUMPDEST PUSH1 0x0 PUSH2 0x1ED6 DUP3 PUSH2 0x1A10 JUMP JUMPDEST PUSH2 0x1EDF DUP4 PUSH2 0x237D JUMP JUMPDEST PUSH2 0x1A2E SWAP2 SWAP1 PUSH2 0x30B3 JUMP JUMPDEST PUSH2 0x1EF1 PUSH2 0x2457 JUMP JUMPDEST PUSH1 0x1 PUSH1 0x1 PUSH1 0xA0 SHL SUB DUP3 AND PUSH1 0x0 SWAP1 DUP2 MSTORE PUSH1 0xB PUSH1 0x20 MSTORE PUSH1 0x40 SWAP1 KECCAK256 SLOAD DUP1 PUSH2 0x1F4E JUMPI PUSH1 0x40 MLOAD PUSH3 0x461BCD PUSH1 0xE5 SHL DUP2 MSTORE PUSH1 0x20 PUSH1 0x4 DUP3 ADD MSTORE PUSH1 0x14 PUSH1 0x24 DUP3 ADD MSTORE PUSH20 0x50726F746F636F6C20666565206973207A65726F PUSH1 0x60 SHL PUSH1 0x44 DUP3 ADD MSTORE PUSH1 0x64 ADD PUSH2 0xA30 JUMP JUMPDEST PUSH1 0x1 PUSH1 0x1 PUSH1 0xA0 SHL SUB DUP4 AND PUSH1 0x0 DUP2 DUP2 MSTORE PUSH1 0xB PUSH1 0x20 MSTORE PUSH1 0x40 DUP2 KECCAK256 SSTORE DUP4 SWAP1 PUSH2 0x19FA SWAP1 DUP5 DUP5 PUSH2 0x2665 JUMP JUMPDEST PUSH2 0x1F7C PUSH2 0x2457 JUMP JUMPDEST PUSH1 0x0 DUP2 GT PUSH2 0x1FDB JUMPI PUSH1 0x40 MLOAD PUSH3 0x461BCD PUSH1 0xE5 SHL DUP2 MSTORE PUSH1 0x20 PUSH1 0x4 DUP3 ADD MSTORE PUSH1 0x26 PUSH1 0x24 DUP3 ADD MSTORE PUSH32 0x46696E616C69747920706572696F64206D757374206265206772656174657220 PUSH1 0x44 DUP3 ADD MSTORE PUSH6 0x7468616E203 PUSH1 0xD4 SHL PUSH1 0x64 DUP3 ADD MSTORE PUSH1 0x84 ADD PUSH2 0xA30 JUMP JUMPDEST PUSH1 0x0 DUP3 DUP2 MSTORE PUSH1 0x4 PUSH1 0x20 SWAP1 DUP2 MSTORE PUSH1 0x40 SWAP2 DUP3 SWAP1 KECCAK256 DUP4 SWAP1 SSTORE DUP2 MLOAD DUP5 DUP2 MSTORE SWAP1 DUP2 ADD DUP4 SWAP1 MSTORE PUSH32 0xABA57B48B9F1DFD5747A52ED348A6AB6AA7BAFB0575363A5CB7B62659F727B65 SWAP2 ADD PUSH1 0x40 MLOAD DUP1 SWAP2 SUB SWAP1 LOG1 POP POP JUMP JUMPDEST PUSH2 0x2032 PUSH2 0x2457 JUMP JUMPDEST PUSH1 0xA SSTORE JUMP JUMPDEST PUSH1 0x1 PUSH1 0x1 PUSH1 0x60 SHL SUB DUP2 AND PUSH1 0x0 SWAP1 DUP2 MSTORE PUSH1 0x6 PUSH1 0x20 MSTORE PUSH1 0x40 DUP2 KECCAK256 PUSH1 0x1 ADD SLOAD DUP3 SWAP1 PUSH1 0x1 PUSH1 0x1 PUSH1 0xA0 SHL SUB AND PUSH2 0x209E JUMPI PUSH1 0x40 MLOAD PUSH3 0x461BCD PUSH1 0xE5 SHL DUP2 MSTORE PUSH1 0x20 PUSH1 0x4 DUP3 ADD MSTORE PUSH1 0x11 PUSH1 0x24 DUP3 ADD MSTORE PUSH17 0x18DB185A5B5259081B9BDD081D985B1A59 PUSH1 0x7A SHL PUSH1 0x44 DUP3 ADD MSTORE PUSH1 0x64 ADD PUSH2 0xA30 JUMP JUMPDEST PUSH1 0x1 PUSH1 0x1 PUSH1 0x60 SHL SUB DUP4 AND PUSH1 0x0 SWAP1 DUP2 MSTORE PUSH1 0x6 PUSH1 0x20 SWAP1 DUP2 MSTORE PUSH1 0x40 DUP1 DUP4 KECCAK256 DUP1 SLOAD DUP1 DUP6 MSTORE PUSH1 0x5 SWAP1 SWAP4 MSTORE SWAP1 DUP4 KECCAK256 SWAP1 SWAP3 DUP1 PUSH2 0x20D2 DUP9 PUSH2 0x26D2 JUMP JUMPDEST PUSH1 0x1 PUSH1 0x1 PUSH1 0xA0 SHL SUB DUP3 AND PUSH1 0x0 SWAP1 DUP2 MSTORE PUSH1 0x3 DUP9 ADD PUSH1 0x20 MSTORE PUSH1 0x40 SWAP1 KECCAK256 SLOAD SWAP2 SWAP4 POP SWAP2 POP ISZERO PUSH2 0x2113 JUMPI PUSH1 0x1 PUSH1 0x1 PUSH1 0xA0 SHL SUB DUP3 AND PUSH1 0x0 SWAP1 DUP2 MSTORE PUSH1 0x3 DUP7 ADD PUSH1 0x20 MSTORE PUSH1 0x40 DUP2 KECCAK256 SSTORE JUMPDEST PUSH1 0x6 DUP6 ADD SLOAD PUSH1 0x0 DUP2 SWAP1 SUB PUSH2 0x2164 JUMPI PUSH1 0x1 DUP5 PUSH1 0x4 ADD PUSH1 0x1C DUP3 DUP3 DUP3 SWAP1 SLOAD SWAP1 PUSH2 0x100 EXP SWAP1 DIV PUSH4 0xFFFFFFFF AND PUSH2 0x2145 SWAP2 SWAP1 PUSH2 0x31D0 JUMP JUMPDEST SWAP3 POP PUSH2 0x100 EXP DUP2 SLOAD DUP2 PUSH4 0xFFFFFFFF MUL NOT AND SWAP1 DUP4 PUSH4 0xFFFFFFFF AND MUL OR SWAP1 SSTORE POP JUMPDEST PUSH2 0x216E DUP3 DUP3 PUSH2 0x30B3 JUMP JUMPDEST PUSH1 0x6 DUP8 ADD DUP2 SWAP1 SSTORE PUSH1 0x5 DUP8 ADD SLOAD PUSH1 0x2 DUP9 ADD SLOAD SWAP2 SWAP3 POP PUSH2 0x218B SWAP2 PUSH2 0x30B3 JUMP JUMPDEST DUP2 GT ISZERO PUSH2 0x21DA JUMPI PUSH1 0x40 MLOAD PUSH3 0x461BCD PUSH1 0xE5 SHL DUP2 MSTORE PUSH1 0x20 PUSH1 0x4 DUP3 ADD MSTORE PUSH1 0x1C PUSH1 0x24 DUP3 ADD MSTORE PUSH32 0x416D6F756E7420746F20776974686472617720746F6F206C6172676500000000 PUSH1 0x44 DUP3 ADD MSTORE PUSH1 0x64 ADD PUSH2 0xA30 JUMP JUMPDEST PUSH1 0x0 DUP4 PUSH1 0x1 PUSH1 0x1 PUSH1 0xA0 SHL SUB AND DUP4 PUSH1 0x40 MLOAD PUSH1 0x0 PUSH1 0x40 MLOAD DUP1 DUP4 SUB DUP2 DUP6 DUP8 GAS CALL SWAP3 POP POP POP RETURNDATASIZE DUP1 PUSH1 0x0 DUP2 EQ PUSH2 0x2227 JUMPI PUSH1 0x40 MLOAD SWAP2 POP PUSH1 0x1F NOT PUSH1 0x3F RETURNDATASIZE ADD AND DUP3 ADD PUSH1 0x40 MSTORE RETURNDATASIZE DUP3 MSTORE RETURNDATASIZE PUSH1 0x0 PUSH1 0x20 DUP5 ADD RETURNDATACOPY PUSH2 0x222C JUMP JUMPDEST PUSH1 0x60 SWAP2 POP JUMPDEST POP POP SWAP1 POP DUP1 PUSH2 0x2274 JUMPI PUSH1 0x40 MLOAD PUSH3 0x461BCD PUSH1 0xE5 SHL DUP2 MSTORE PUSH1 0x20 PUSH1 0x4 DUP3 ADD MSTORE PUSH1 0x14 PUSH1 0x24 DUP3 ADD MSTORE PUSH20 0x2330B4B632B2103A379039B2B7321022BA3432B9 PUSH1 0x61 SHL PUSH1 0x44 DUP3 ADD MSTORE PUSH1 0x64 ADD PUSH2 0xA30 JUMP JUMPDEST PUSH1 0x40 DUP1 MLOAD PUSH1 0x1 PUSH1 0x1 PUSH1 0x60 SHL SUB DUP13 AND DUP2 MSTORE PUSH1 0x1 PUSH1 0x1 PUSH1 0xA0 SHL SUB DUP7 AND PUSH1 0x20 DUP3 ADD MSTORE DUP8 SWAP2 PUSH32 0xC9E74E0700D0C6488AF9C81D70FDD4158AEA77687137FF85499509C41A10612B SWAP2 ADD PUSH1 0x40 MLOAD DUP1 SWAP2 SUB SWAP1 LOG2 PUSH1 0x5 DUP6 ADD SLOAD PUSH1 0x1 PUSH1 0x1 PUSH1 0x60 SHL SUB AND ISZERO DUP1 ISZERO PUSH2 0x22EA JUMPI POP PUSH1 0x1 DUP8 ADD SLOAD PUSH1 0x1 PUSH1 0x1 PUSH1 0xA0 SHL SUB DUP6 DUP2 AND SWAP2 AND EQ JUMPDEST ISZERO PUSH2 0x22F9 JUMPI PUSH2 0x22F9 DUP6 DUP12 PUSH2 0x29C8 JUMP JUMPDEST POP SWAP2 SWAP9 SWAP8 POP POP POP POP POP POP POP POP JUMP JUMPDEST PUSH2 0x230F PUSH2 0x2457 JUMP JUMPDEST PUSH1 0x1 PUSH1 0x1 PUSH1 0xA0 SHL SUB DUP2 AND PUSH2 0x2374 JUMPI PUSH1 0x40 MLOAD PUSH3 0x461BCD PUSH1 0xE5 SHL DUP2 MSTORE PUSH1 0x20 PUSH1 0x4 DUP3 ADD MSTORE PUSH1 0x26 PUSH1 0x24 DUP3 ADD MSTORE PUSH32 0x4F776E61626C653A206E6577206F776E657220697320746865207A65726F2061 PUSH1 0x44 DUP3 ADD MSTORE PUSH6 0x646472657373 PUSH1 0xD0 SHL PUSH1 0x64 DUP3 ADD MSTORE PUSH1 0x84 ADD PUSH2 0xA30 JUMP JUMPDEST PUSH2 0x17CF DUP2 PUSH2 0x2503 JUMP JUMPDEST PUSH1 0x0 PUSH2 0x1A2E PUSH1 0x7 SLOAD PUSH3 0xF4240 PUSH1 0x8 SLOAD DUP6 PUSH2 0x2397 SWAP2 SWAP1 PUSH2 0x3178 JUMP JUMPDEST PUSH2 0x23A1 SWAP2 SWAP1 PUSH2 0x3197 JUMP JUMPDEST PUSH2 0x2AD3 JUMP JUMPDEST PUSH1 0x3 SLOAD PUSH1 0xFF AND ISZERO PUSH2 0x1239 JUMPI PUSH1 0x40 MLOAD PUSH3 0x461BCD PUSH1 0xE5 SHL DUP2 MSTORE PUSH1 0x20 PUSH1 0x4 DUP3 ADD MSTORE PUSH1 0x10 PUSH1 0x24 DUP3 ADD MSTORE PUSH16 0x14185D5CD8589B194E881C185D5CD959 PUSH1 0x82 SHL PUSH1 0x44 DUP3 ADD MSTORE PUSH1 0x64 ADD PUSH2 0xA30 JUMP JUMPDEST PUSH1 0x40 MLOAD PUSH1 0x1 PUSH1 0x1 PUSH1 0xA0 SHL SUB DUP1 DUP6 AND PUSH1 0x24 DUP4 ADD MSTORE DUP4 AND PUSH1 0x44 DUP3 ADD MSTORE PUSH1 0x64 DUP2 ADD DUP3 SWAP1 MSTORE PUSH2 0x19FA SWAP1 DUP6 SWAP1 PUSH4 0x23B872DD PUSH1 0xE0 SHL SWAP1 PUSH1 0x84 ADD JUMPDEST PUSH1 0x40 DUP1 MLOAD PUSH1 0x1F NOT DUP2 DUP5 SUB ADD DUP2 MSTORE SWAP2 SWAP1 MSTORE PUSH1 0x20 DUP2 ADD DUP1 MLOAD PUSH1 0x1 PUSH1 0x1 PUSH1 0xE0 SHL SUB AND PUSH1 0x1 PUSH1 0x1 PUSH1 0xE0 SHL SUB NOT SWAP1 SWAP4 AND SWAP3 SWAP1 SWAP3 OR SWAP1 SWAP2 MSTORE PUSH2 0x2AEB JUMP JUMPDEST PUSH1 0x0 SLOAD PUSH1 0x1 PUSH1 0x1 PUSH1 0xA0 SHL SUB AND CALLER EQ PUSH2 0x1239 JUMPI PUSH1 0x40 MLOAD PUSH3 0x461BCD PUSH1 0xE5 SHL DUP2 MSTORE PUSH1 0x20 PUSH1 0x4 DUP3 ADD DUP2 SWAP1 MSTORE PUSH1 0x24 DUP3 ADD MSTORE PUSH32 0x4F776E61626C653A2063616C6C6572206973206E6F7420746865206F776E6572 PUSH1 0x44 DUP3 ADD MSTORE PUSH1 0x64 ADD PUSH2 0xA30 JUMP JUMPDEST PUSH2 0x24B9 PUSH2 0x2BBD JUMP JUMPDEST PUSH1 0x3 DUP1 SLOAD PUSH1 0xFF NOT AND SWAP1 SSTORE PUSH32 0x5DB9EE0A495BF2E6FF9C91A7834C1BA4FDD244A5E8AA4E537BD38AEAE4B073AA CALLER JUMPDEST PUSH1 0x40 MLOAD PUSH1 0x1 PUSH1 0x1 PUSH1 0xA0 SHL SUB SWAP1 SWAP2 AND DUP2 MSTORE PUSH1 0x20 ADD PUSH1 0x40 MLOAD DUP1 SWAP2 SUB SWAP1 LOG1 JUMP JUMPDEST PUSH1 0x0 DUP1 SLOAD PUSH1 0x1 PUSH1 0x1 PUSH1 0xA0 SHL SUB DUP4 DUP2 AND PUSH1 0x1 PUSH1 0x1 PUSH1 0xA0 SHL SUB NOT DUP4 AND DUP2 OR DUP5 SSTORE PUSH1 0x40 MLOAD SWAP2 SWAP1 SWAP3 AND SWAP3 DUP4 SWAP2 PUSH32 0x8BE0079C531659141344CD1FD0A4F28419497F9722A3DAAFE3B4186F6B6457E0 SWAP2 SWAP1 LOG3 POP POP JUMP JUMPDEST PUSH1 0x1 PUSH1 0x1 PUSH1 0xA0 SHL SUB DUP3 AND PUSH2 0x25B5 JUMPI PUSH1 0x40 MLOAD PUSH3 0x461BCD PUSH1 0xE5 SHL DUP2 MSTORE PUSH1 0x20 PUSH1 0x4 DUP3 ADD MSTORE PUSH1 0x23 PUSH1 0x24 DUP3 ADD MSTORE PUSH32 0x5265737472696374656443616C6C733A2063616C6C65722063616E6E6F742062 PUSH1 0x44 DUP3 ADD MSTORE PUSH3 0x65203 PUSH1 0xEC SHL PUSH1 0x64 DUP3 ADD MSTORE PUSH1 0x84 ADD PUSH2 0xA30 JUMP JUMPDEST PUSH1 0x0 DUP4 DUP2 MSTORE PUSH1 0x2 PUSH1 0x20 MSTORE PUSH1 0x40 SWAP1 KECCAK256 SLOAD PUSH1 0x1 PUSH1 0x1 PUSH1 0xA0 SHL SUB AND ISZERO PUSH2 0x2629 JUMPI PUSH1 0x40 MLOAD PUSH3 0x461BCD PUSH1 0xE5 SHL DUP2 MSTORE PUSH1 0x20 PUSH1 0x4 DUP3 ADD MSTORE PUSH1 0x26 PUSH1 0x24 DUP3 ADD MSTORE PUSH32 0x5265737472696374656443616C6C733A2063616C6C657220616C726561647920 PUSH1 0x44 DUP3 ADD MSTORE PUSH6 0x657869737473 PUSH1 0xD0 SHL PUSH1 0x64 DUP3 ADD MSTORE PUSH1 0x84 ADD PUSH2 0xA30 JUMP JUMPDEST PUSH1 0x40 DUP1 MLOAD DUP1 DUP3 ADD DUP3 MSTORE PUSH1 0x1 PUSH1 0x1 PUSH1 0xA0 SHL SUB DUP1 DUP6 AND DUP3 MSTORE DUP4 AND PUSH1 0x20 DUP1 DUP4 ADD SWAP2 SWAP1 SWAP2 MSTORE PUSH1 0x0 DUP7 DUP2 MSTORE PUSH1 0x2 SWAP2 DUP3 SWAP1 MSTORE SWAP3 SWAP1 SWAP3 KECCAK256 PUSH2 0x19FA SWAP3 SWAP1 SWAP2 SWAP1 PUSH2 0x2D96 JUMP JUMPDEST PUSH1 0x40 MLOAD PUSH1 0x1 PUSH1 0x1 PUSH1 0xA0 SHL SUB DUP4 AND PUSH1 0x24 DUP3 ADD MSTORE PUSH1 0x44 DUP2 ADD DUP3 SWAP1 MSTORE PUSH2 0x1411 SWAP1 DUP5 SWAP1 PUSH4 0xA9059CBB PUSH1 0xE0 SHL SWAP1 PUSH1 0x64 ADD PUSH2 0x2420 JUMP JUMPDEST PUSH2 0x269D PUSH2 0x23A6 JUMP JUMPDEST PUSH1 0x3 DUP1 SLOAD PUSH1 0xFF NOT AND PUSH1 0x1 OR SWAP1 SSTORE PUSH32 0x62E78CEA01BEE320CD4E420270B5EA74000D11B0C9F74754EBDBFC544B05A258 PUSH2 0x24E6 CALLER SWAP1 JUMP JUMPDEST PUSH1 0x1 PUSH1 0x1 PUSH1 0x60 SHL SUB DUP1 DUP3 AND PUSH1 0x0 SWAP1 DUP2 MSTORE PUSH1 0x6 PUSH1 0x20 SWAP1 DUP2 MSTORE PUSH1 0x40 DUP1 DUP4 KECCAK256 DUP1 SLOAD DUP5 MSTORE PUSH1 0x5 SWAP3 DUP4 SWAP1 MSTORE SWAP1 DUP4 KECCAK256 DUP1 DUP4 ADD SLOAD PUSH1 0x1 DUP4 ADD SLOAD PUSH1 0x2 DUP5 ADD SLOAD SWAP5 DUP5 ADD SLOAD PUSH1 0x8 DUP6 ADD SLOAD SWAP7 SWAP8 DUP9 SWAP8 SWAP6 SWAP7 SWAP5 SWAP6 SWAP4 AND SWAP4 PUSH1 0x1 PUSH1 0x1 PUSH1 0xA0 SHL SUB SWAP1 SWAP3 AND SWAP3 PUSH2 0x2733 DUP3 DUP5 PUSH2 0x30B3 JUMP JUMPDEST DUP8 PUSH1 0x6 ADD SLOAD LT PUSH2 0x2785 JUMPI PUSH1 0x40 MLOAD PUSH3 0x461BCD PUSH1 0xE5 SHL DUP2 MSTORE PUSH1 0x20 PUSH1 0x4 DUP3 ADD MSTORE PUSH1 0x17 PUSH1 0x24 DUP3 ADD MSTORE PUSH32 0x436C61696D20616C72656164792077697468647261776E000000000000000000 PUSH1 0x44 DUP3 ADD MSTORE PUSH1 0x64 ADD PUSH2 0xA30 JUMP JUMPDEST PUSH1 0x5 DUP7 ADD SLOAD PUSH1 0x6 DUP8 ADD SLOAD PUSH1 0x0 SWAP2 PUSH1 0x1 PUSH1 0x60 SHL SWAP1 DIV PUSH1 0x1 PUSH1 0x1 PUSH1 0xA0 SHL SUB AND SWAP1 DUP2 ISZERO PUSH2 0x27D0 JUMPI DUP7 PUSH1 0x1 PUSH1 0x1 PUSH1 0xA0 SHL SUB AND DUP3 PUSH1 0x1 PUSH1 0x1 PUSH1 0xA0 SHL SUB AND EQ DUP1 ISZERO PUSH2 0x27C9 JUMPI POP DUP4 DUP2 EQ JUMPDEST SWAP3 POP PUSH2 0x28B1 JUMP JUMPDEST PUSH1 0x0 DUP2 DUP2 MSTORE PUSH1 0x7 DUP11 ADD PUSH1 0x20 MSTORE PUSH1 0x40 SWAP1 KECCAK256 SLOAD PUSH1 0xFF AND ISZERO PUSH2 0x27F2 JUMPI PUSH1 0x0 SWAP3 POP PUSH2 0x28B1 JUMP JUMPDEST PUSH1 0x1 PUSH1 0x1 PUSH1 0x60 SHL SUB DUP9 AND ISZERO PUSH2 0x2857 JUMPI PUSH1 0x1 PUSH1 0x1 PUSH1 0x60 SHL SUB DUP9 AND PUSH1 0x0 SWAP1 DUP2 MSTORE PUSH1 0x6 PUSH1 0x20 MSTORE PUSH1 0x40 SWAP1 KECCAK256 PUSH1 0x1 ADD SLOAD PUSH1 0x1 PUSH1 0x1 PUSH1 0xA0 SHL SUB DUP9 DUP2 AND SWAP2 AND EQ DUP1 ISZERO PUSH2 0x27C9 JUMPI POP PUSH1 0x1 PUSH1 0x1 PUSH1 0x60 SHL SUB DUP9 AND PUSH1 0x0 SWAP1 DUP2 MSTORE PUSH1 0x6 PUSH1 0x20 MSTORE PUSH1 0x40 SWAP1 KECCAK256 PUSH1 0x8 ADD SLOAD DUP5 EQ SWAP3 POP PUSH2 0x28B1 JUMP JUMPDEST DUP10 PUSH1 0x7 ADD SLOAD TIMESTAMP LT ISZERO PUSH2 0x28AB JUMPI PUSH1 0x40 MLOAD PUSH3 0x461BCD PUSH1 0xE5 SHL DUP2 MSTORE PUSH1 0x20 PUSH1 0x4 DUP3 ADD MSTORE PUSH1 0x19 PUSH1 0x24 DUP3 ADD MSTORE PUSH32 0x436C61696D20706572696F64206E6F742066696E697368656400000000000000 PUSH1 0x44 DUP3 ADD MSTORE PUSH1 0x64 ADD PUSH2 0xA30 JUMP JUMPDEST DUP5 DUP7 GT SWAP3 POP JUMPDEST PUSH1 0x0 DUP1 DUP5 ISZERO PUSH2 0x28CE JUMPI PUSH2 0x28C4 DUP8 DUP10 PUSH2 0x30B3 JUMP JUMPDEST SWAP2 POP DUP9 SWAP1 POP PUSH2 0x2967 JUMP JUMPDEST DUP7 ISZERO PUSH2 0x2956 JUMPI CALLER PUSH1 0x0 SWAP1 DUP2 MSTORE PUSH1 0x3 DUP14 ADD PUSH1 0x20 MSTORE PUSH1 0x40 SWAP1 KECCAK256 SLOAD PUSH2 0x28F1 SWAP1 PUSH1 0x2 PUSH2 0x3178 JUMP JUMPDEST SWAP2 POP CALLER SWAP1 POP PUSH1 0x0 DUP3 GT PUSH2 0x2951 JUMPI PUSH1 0x40 MLOAD PUSH3 0x461BCD PUSH1 0xE5 SHL DUP2 MSTORE PUSH1 0x20 PUSH1 0x4 DUP3 ADD MSTORE PUSH1 0x22 PUSH1 0x24 DUP3 ADD MSTORE PUSH32 0x4368616C6C656E67657220686173206E6F7468696E6720746F20776974686472 PUSH1 0x44 DUP3 ADD MSTORE PUSH2 0x6177 PUSH1 0xF0 SHL PUSH1 0x64 DUP3 ADD MSTORE PUSH1 0x84 ADD PUSH2 0xA30 JUMP JUMPDEST PUSH2 0x2967 JUMP JUMPDEST POP POP PUSH1 0x0 SLOAD DUP7 SWAP1 PUSH1 0x1 PUSH1 0x1 PUSH1 0xA0 SHL SUB AND JUMPDEST PUSH1 0x4 DUP13 ADD SLOAD PUSH1 0x1 PUSH1 0x1 PUSH1 0xA0 SHL SUB AND CALLER SUB PUSH2 0x29B5 JUMPI DUP7 DUP9 GT ISZERO PUSH2 0x299E JUMPI PUSH2 0x298D DUP8 DUP10 PUSH2 0x31B9 JUMP JUMPDEST PUSH2 0x2997 SWAP1 DUP4 PUSH2 0x30B3 JUMP JUMPDEST SWAP2 POP PUSH2 0x29B5 JUMP JUMPDEST PUSH2 0x29A8 DUP9 DUP9 PUSH2 0x31B9 JUMP JUMPDEST PUSH2 0x29B2 SWAP1 DUP4 PUSH2 0x31B9 JUMP JUMPDEST SWAP2 POP JUMPDEST SWAP15 SWAP1 SWAP14 POP SWAP12 POP POP POP POP POP POP POP POP POP POP POP POP JUMP JUMPDEST PUSH1 0x1 PUSH1 0x1 PUSH1 0x60 SHL SUB DUP2 AND PUSH1 0x0 SWAP1 DUP2 MSTORE PUSH1 0x6 PUSH1 0x20 SWAP1 DUP2 MSTORE PUSH1 0x40 SWAP2 DUP3 SWAP1 KECCAK256 PUSH1 0x1 DUP2 ADD SLOAD DUP2 SLOAD DUP5 MLOAD SWAP1 DUP2 MSTORE PUSH1 0x1 PUSH1 0x1 PUSH1 0xA0 SHL SUB SWAP1 SWAP2 AND SWAP3 DUP2 ADD DUP4 SWAP1 MSTORE SWAP1 SWAP3 PUSH32 0xAB63A14C4AABA38366FD39116091672BB44520328EE870BE35A51E573296E565 SWAP2 ADD PUSH1 0x40 MLOAD DUP1 SWAP2 SUB SWAP1 LOG1 PUSH1 0x5 DUP5 ADD DUP1 SLOAD PUSH1 0x1 PUSH1 0x1 PUSH1 0x60 SHL SUB NOT AND PUSH1 0x1 PUSH1 0x1 PUSH1 0x60 SHL SUB DUP6 DUP2 AND SWAP2 SWAP1 SWAP2 OR SWAP1 SWAP2 SSTORE PUSH1 0x4 DUP6 ADD SLOAD PUSH1 0x1 DUP7 ADD SLOAD PUSH1 0x1 PUSH1 0x1 PUSH1 0xA0 SHL SUB AND PUSH1 0x0 SWAP1 DUP2 MSTORE PUSH1 0xB PUSH1 0x20 MSTORE PUSH1 0x40 DUP2 KECCAK256 DUP1 SLOAD PUSH1 0x1 PUSH1 0x80 SHL SWAP1 SWAP4 DIV SWAP1 SWAP4 AND SWAP3 SWAP2 PUSH2 0x2A8B SWAP1 DUP5 SWAP1 PUSH2 0x30B3 JUMP JUMPDEST SWAP1 SWAP2 SSTORE POP POP PUSH1 0x1 DUP5 ADD SLOAD PUSH1 0x4 DUP6 ADD SLOAD PUSH1 0x3 DUP7 ADD SLOAD PUSH1 0x1 PUSH1 0x1 PUSH1 0xA0 SHL SUB SWAP1 SWAP3 AND SWAP2 PUSH2 0x2ACC SWAP2 DUP5 SWAP2 PUSH2 0x19E9 SWAP2 PUSH5 0x100000000 SWAP1 DIV PUSH1 0x1 PUSH1 0x1 PUSH1 0x60 SHL SUB AND SWAP1 PUSH2 0x30B3 JUMP JUMPDEST POP POP POP POP POP JUMP JUMPDEST PUSH1 0x0 DUP2 DUP4 GT PUSH2 0x2AE2 JUMPI DUP2 PUSH2 0x2AE4 JUMP JUMPDEST DUP3 JUMPDEST SWAP4 SWAP3 POP POP POP JUMP JUMPDEST PUSH1 0x0 PUSH2 0x2B40 DUP3 PUSH1 0x40 MLOAD DUP1 PUSH1 0x40 ADD PUSH1 0x40 MSTORE DUP1 PUSH1 0x20 DUP2 MSTORE PUSH1 0x20 ADD PUSH32 0x5361666545524332303A206C6F772D6C6576656C2063616C6C206661696C6564 DUP2 MSTORE POP DUP6 PUSH1 0x1 PUSH1 0x1 PUSH1 0xA0 SHL SUB AND PUSH2 0x2C06 SWAP1 SWAP3 SWAP2 SWAP1 PUSH4 0xFFFFFFFF AND JUMP JUMPDEST DUP1 MLOAD SWAP1 SWAP2 POP ISZERO PUSH2 0x1411 JUMPI DUP1 DUP1 PUSH1 0x20 ADD SWAP1 MLOAD DUP2 ADD SWAP1 PUSH2 0x2B5E SWAP2 SWAP1 PUSH2 0x304E JUMP JUMPDEST PUSH2 0x1411 JUMPI PUSH1 0x40 MLOAD PUSH3 0x461BCD PUSH1 0xE5 SHL DUP2 MSTORE PUSH1 0x20 PUSH1 0x4 DUP3 ADD MSTORE PUSH1 0x2A PUSH1 0x24 DUP3 ADD MSTORE PUSH32 0x5361666545524332303A204552433230206F7065726174696F6E20646964206E PUSH1 0x44 DUP3 ADD MSTORE PUSH10 0x1BDD081CDD58D8D95959 PUSH1 0xB2 SHL PUSH1 0x64 DUP3 ADD MSTORE PUSH1 0x84 ADD PUSH2 0xA30 JUMP JUMPDEST PUSH1 0x3 SLOAD PUSH1 0xFF AND PUSH2 0x1239 JUMPI PUSH1 0x40 MLOAD PUSH3 0x461BCD PUSH1 0xE5 SHL DUP2 MSTORE PUSH1 0x20 PUSH1 0x4 DUP3 ADD MSTORE PUSH1 0x14 PUSH1 0x24 DUP3 ADD MSTORE PUSH20 0x14185D5CD8589B194E881B9BDD081C185D5CD959 PUSH1 0x62 SHL PUSH1 0x44 DUP3 ADD MSTORE PUSH1 0x64 ADD PUSH2 0xA30 JUMP JUMPDEST PUSH1 0x60 PUSH2 0x2C15 DUP5 DUP5 PUSH1 0x0 DUP6 PUSH2 0x2C1D JUMP JUMPDEST SWAP5 SWAP4 POP POP POP POP JUMP JUMPDEST PUSH1 0x60 DUP3 SELFBALANCE LT ISZERO PUSH2 0x2C7E JUMPI PUSH1 0x40 MLOAD PUSH3 0x461BCD PUSH1 0xE5 SHL DUP2 MSTORE PUSH1 0x20 PUSH1 0x4 DUP3 ADD MSTORE PUSH1 0x26 PUSH1 0x24 DUP3 ADD MSTORE PUSH32 0x416464726573733A20696E73756666696369656E742062616C616E636520666F PUSH1 0x44 DUP3 ADD MSTORE PUSH6 0x1C8818D85B1B PUSH1 0xD2 SHL PUSH1 0x64 DUP3 ADD MSTORE PUSH1 0x84 ADD PUSH2 0xA30 JUMP JUMPDEST PUSH1 0x0 DUP1 DUP7 PUSH1 0x1 PUSH1 0x1 PUSH1 0xA0 SHL SUB AND DUP6 DUP8 PUSH1 0x40 MLOAD PUSH2 0x2C9A SWAP2 SWAP1 PUSH2 0x3221 JUMP JUMPDEST PUSH1 0x0 PUSH1 0x40 MLOAD DUP1 DUP4 SUB DUP2 DUP6 DUP8 GAS CALL SWAP3 POP POP POP RETURNDATASIZE DUP1 PUSH1 0x0 DUP2 EQ PUSH2 0x2CD7 JUMPI PUSH1 0x40 MLOAD SWAP2 POP PUSH1 0x1F NOT PUSH1 0x3F RETURNDATASIZE ADD AND DUP3 ADD PUSH1 0x40 MSTORE RETURNDATASIZE DUP3 MSTORE RETURNDATASIZE PUSH1 0x0 PUSH1 0x20 DUP5 ADD RETURNDATACOPY PUSH2 0x2CDC JUMP JUMPDEST PUSH1 0x60 SWAP2 POP JUMPDEST POP SWAP2 POP SWAP2 POP PUSH2 0x2CED DUP8 DUP4 DUP4 DUP8 PUSH2 0x2CF8 JUMP JUMPDEST SWAP8 SWAP7 POP POP POP POP POP POP POP JUMP JUMPDEST PUSH1 0x60 DUP4 ISZERO PUSH2 0x2D67 JUMPI DUP3 MLOAD PUSH1 0x0 SUB PUSH2 0x2D60 JUMPI PUSH1 0x1 PUSH1 0x1 PUSH1 0xA0 SHL SUB DUP6 AND EXTCODESIZE PUSH2 0x2D60 JUMPI PUSH1 0x40 MLOAD PUSH3 0x461BCD PUSH1 0xE5 SHL DUP2 MSTORE PUSH1 0x20 PUSH1 0x4 DUP3 ADD MSTORE PUSH1 0x1D PUSH1 0x24 DUP3 ADD MSTORE PUSH32 0x416464726573733A2063616C6C20746F206E6F6E2D636F6E7472616374000000 PUSH1 0x44 DUP3 ADD MSTORE PUSH1 0x64 ADD PUSH2 0xA30 JUMP JUMPDEST POP DUP2 PUSH2 0x2C15 JUMP JUMPDEST PUSH2 0x2C15 DUP4 DUP4 DUP2 MLOAD ISZERO PUSH2 0x2D7C JUMPI DUP2 MLOAD DUP1 DUP4 PUSH1 0x20 ADD REVERT JUMPDEST DUP1 PUSH1 0x40 MLOAD PUSH3 0x461BCD PUSH1 0xE5 SHL DUP2 MSTORE PUSH1 0x4 ADD PUSH2 0xA30 SWAP2 SWAP1 PUSH2 0x323D JUMP JUMPDEST DUP3 PUSH1 0x2 DUP2 ADD SWAP3 DUP3 ISZERO PUSH2 0x2DDE JUMPI SWAP2 PUSH1 0x20 MUL DUP3 ADD JUMPDEST DUP3 DUP2 GT ISZERO PUSH2 0x2DDE JUMPI DUP3 MLOAD DUP3 SLOAD PUSH1 0x1 PUSH1 0x1 PUSH1 0xA0 SHL SUB NOT AND PUSH1 0x1 PUSH1 0x1 PUSH1 0xA0 SHL SUB SWAP1 SWAP2 AND OR DUP3 SSTORE PUSH1 0x20 SWAP1 SWAP3 ADD SWAP2 PUSH1 0x1 SWAP1 SWAP2 ADD SWAP1 PUSH2 0x2DA9 JUMP JUMPDEST POP PUSH2 0x2DEA SWAP3 SWAP2 POP PUSH2 0x2DEE JUMP JUMPDEST POP SWAP1 JUMP JUMPDEST JUMPDEST DUP1 DUP3 GT ISZERO PUSH2 0x2DEA JUMPI PUSH1 0x0 DUP2 SSTORE PUSH1 0x1 ADD PUSH2 0x2DEF JUMP JUMPDEST PUSH1 0x0 DUP1 PUSH1 0x0 PUSH1 0x60 DUP5 DUP7 SUB SLT ISZERO PUSH2 0x2E18 JUMPI PUSH1 0x0 DUP1 REVERT JUMPDEST POP POP DUP2 CALLDATALOAD SWAP4 PUSH1 0x20 DUP4 ADD CALLDATALOAD SWAP4 POP PUSH1 0x40 SWAP1 SWAP3 ADD CALLDATALOAD SWAP2 SWAP1 POP JUMP JUMPDEST PUSH1 0x0 DUP1 PUSH1 0x40 DUP4 DUP6 SUB SLT ISZERO PUSH2 0x2E42 JUMPI PUSH1 0x0 DUP1 REVERT JUMPDEST POP POP DUP1 CALLDATALOAD SWAP3 PUSH1 0x20 SWAP1 SWAP2 ADD CALLDATALOAD SWAP2 POP JUMP JUMPDEST PUSH1 0x0 PUSH1 0x20 DUP3 DUP5 SUB SLT ISZERO PUSH2 0x2E63 JUMPI PUSH1 0x0 DUP1 REVERT JUMPDEST POP CALLDATALOAD SWAP2 SWAP1 POP JUMP JUMPDEST DUP1 CALLDATALOAD PUSH1 0x1 PUSH1 0x1 PUSH1 0xA0 SHL SUB DUP2 AND DUP2 EQ PUSH2 0x2E81 JUMPI PUSH1 0x0 DUP1 REVERT JUMPDEST SWAP2 SWAP1 POP JUMP JUMPDEST PUSH1 0x0 DUP1 PUSH1 0x0 DUP1 PUSH1 0x0 DUP1 PUSH1 0xC0 DUP8 DUP10 SUB SLT ISZERO PUSH2 0x2E9F JUMPI PUSH1 0x0 DUP1 REVERT JUMPDEST DUP7 CALLDATALOAD SWAP6 POP PUSH2 0x2EAF PUSH1 0x20 DUP9 ADD PUSH2 0x2E6A JUMP JUMPDEST SWAP5 POP PUSH2 0x2EBD PUSH1 0x40 DUP9 ADD PUSH2 0x2E6A JUMP JUMPDEST SWAP4 POP PUSH2 0x2ECB PUSH1 0x60 DUP9 ADD PUSH2 0x2E6A JUMP JUMPDEST SWAP3 POP PUSH1 0x80 DUP8 ADD CALLDATALOAD SWAP2 POP PUSH1 0xA0 DUP8 ADD CALLDATALOAD SWAP1 POP SWAP3 SWAP6 POP SWAP3 SWAP6 POP SWAP3 SWAP6 JUMP JUMPDEST PUSH1 0x0 PUSH1 0x20 DUP3 DUP5 SUB SLT ISZERO PUSH2 0x2EF7 JUMPI PUSH1 0x0 DUP1 REVERT JUMPDEST PUSH2 0x2AE4 DUP3 PUSH2 0x2E6A JUMP JUMPDEST PUSH1 0x0 PUSH1 0x20 DUP3 DUP5 SUB SLT ISZERO PUSH2 0x2F12 JUMPI PUSH1 0x0 DUP1 REVERT JUMPDEST DUP2 CALLDATALOAD PUSH1 0x1 PUSH1 0x1 PUSH1 0x60 SHL SUB DUP2 AND DUP2 EQ PUSH2 0x2AE4 JUMPI PUSH1 0x0 DUP1 REVERT JUMPDEST PUSH1 0x0 DUP1 PUSH1 0x0 DUP1 PUSH1 0x80 DUP6 DUP8 SUB SLT ISZERO PUSH2 0x2F3F JUMPI PUSH1 0x0 DUP1 REVERT JUMPDEST DUP5 CALLDATALOAD SWAP4 POP PUSH1 0x20 DUP6 ADD CALLDATALOAD SWAP3 POP PUSH1 0x40 DUP6 ADD CALLDATALOAD SWAP2 POP PUSH2 0x2F5D PUSH1 0x60 DUP7 ADD PUSH2 0x2E6A JUMP JUMPDEST SWAP1 POP SWAP3 SWAP6 SWAP2 SWAP5 POP SWAP3 POP JUMP JUMPDEST PUSH1 0x0 DUP1 PUSH1 0x0 PUSH1 0x60 DUP5 DUP7 SUB SLT ISZERO PUSH2 0x2F7D JUMPI PUSH1 0x0 DUP1 REVERT JUMPDEST DUP4 CALLDATALOAD SWAP3 POP PUSH2 0x2F8D PUSH1 0x20 DUP6 ADD PUSH2 0x2E6A JUMP JUMPDEST SWAP2 POP PUSH2 0x2F9B PUSH1 0x40 DUP6 ADD PUSH2 0x2E6A JUMP JUMPDEST SWAP1 POP SWAP3 POP SWAP3 POP SWAP3 JUMP JUMPDEST PUSH1 0x0 DUP1 PUSH1 0x40 DUP4 DUP6 SUB SLT ISZERO PUSH2 0x2FB7 JUMPI PUSH1 0x0 DUP1 REVERT JUMPDEST PUSH2 0x2FC0 DUP4 PUSH2 0x2E6A JUMP JUMPDEST SWAP2 POP PUSH2 0x2FCE PUSH1 0x20 DUP5 ADD PUSH2 0x2E6A JUMP JUMPDEST SWAP1 POP SWAP3 POP SWAP3 SWAP1 POP JUMP JUMPDEST PUSH1 0x20 DUP1 DUP3 MSTORE DUP2 DUP2 ADD MSTORE PUSH32 0x5265737472696374656443616C6C733A2063616C6C20646973616C6C6F776564 PUSH1 0x40 DUP3 ADD MSTORE PUSH1 0x60 ADD SWAP1 JUMP JUMPDEST PUSH1 0x20 DUP1 DUP3 MSTORE PUSH1 0x22 SWAP1 DUP3 ADD MSTORE PUSH32 0x5265737472696374656443616C6C733A206D657373656E676572206E6F742073 PUSH1 0x40 DUP3 ADD MSTORE PUSH2 0x195D PUSH1 0xF2 SHL PUSH1 0x60 DUP3 ADD MSTORE PUSH1 0x80 ADD SWAP1 JUMP JUMPDEST PUSH1 0x0 PUSH1 0x20 DUP3 DUP5 SUB SLT ISZERO PUSH2 0x3060 JUMPI PUSH1 0x0 DUP1 REVERT JUMPDEST DUP2 MLOAD DUP1 ISZERO ISZERO DUP2 EQ PUSH2 0x2AE4 JUMPI PUSH1 0x0 DUP1 REVERT JUMPDEST PUSH1 0x20 DUP1 DUP3 MSTORE PUSH1 0x13 SWAP1 DUP3 ADD MSTORE PUSH19 0x1C995C5D595CDD1259081B9BDD081D985B1A59 PUSH1 0x6A SHL PUSH1 0x40 DUP3 ADD MSTORE PUSH1 0x60 ADD SWAP1 JUMP JUMPDEST PUSH4 0x4E487B71 PUSH1 0xE0 SHL PUSH1 0x0 MSTORE PUSH1 0x11 PUSH1 0x4 MSTORE PUSH1 0x24 PUSH1 0x0 REVERT JUMPDEST PUSH1 0x0 DUP3 NOT DUP3 GT ISZERO PUSH2 0x30C6 JUMPI PUSH2 0x30C6 PUSH2 0x309D JUMP JUMPDEST POP ADD SWAP1 JUMP JUMPDEST PUSH1 0x0 PUSH1 0x20 DUP3 DUP5 SUB SLT ISZERO PUSH2 0x30DD JUMPI PUSH1 0x0 DUP1 REVERT JUMPDEST POP MLOAD SWAP2 SWAP1 POP JUMP JUMPDEST PUSH1 0x0 PUSH1 0x1 PUSH1 0x1 PUSH1 0x60 SHL SUB DUP1 DUP4 AND DUP2 DUP6 AND DUP1 DUP4 SUB DUP3 GT ISZERO PUSH2 0x3106 JUMPI PUSH2 0x3106 PUSH2 0x309D JUMP JUMPDEST ADD SWAP5 SWAP4 POP POP POP POP JUMP JUMPDEST PUSH1 0x0 PUSH4 0xFFFFFFFF DUP1 DUP4 AND DUP2 DUP6 AND DUP1 DUP4 SUB DUP3 GT ISZERO PUSH2 0x3106 JUMPI PUSH2 0x3106 PUSH2 0x309D JUMP JUMPDEST PUSH1 0x1 PUSH1 0x1 PUSH1 0x60 SHL SUB SWAP8 SWAP1 SWAP8 AND DUP8 MSTORE PUSH1 0x1 PUSH1 0x1 PUSH1 0xA0 SHL SUB SWAP6 DUP7 AND PUSH1 0x20 DUP9 ADD MSTORE PUSH1 0x40 DUP8 ADD SWAP5 SWAP1 SWAP5 MSTORE SWAP2 SWAP1 SWAP4 AND PUSH1 0x60 DUP6 ADD MSTORE PUSH1 0x80 DUP5 ADD SWAP3 SWAP1 SWAP3 MSTORE PUSH1 0xA0 DUP4 ADD SWAP2 SWAP1 SWAP2 MSTORE PUSH1 0xC0 DUP3 ADD MSTORE PUSH1 0xE0 ADD SWAP1 JUMP JUMPDEST PUSH1 0x0 DUP2 PUSH1 0x0 NOT DIV DUP4 GT DUP3 ISZERO ISZERO AND ISZERO PUSH2 0x3192 JUMPI PUSH2 0x3192 PUSH2 0x309D JUMP JUMPDEST POP MUL SWAP1 JUMP JUMPDEST PUSH1 0x0 DUP3 PUSH2 0x31B4 JUMPI PUSH4 0x4E487B71 PUSH1 0xE0 SHL PUSH1 0x0 MSTORE PUSH1 0x12 PUSH1 0x4 MSTORE PUSH1 0x24 PUSH1 0x0 REVERT JUMPDEST POP DIV SWAP1 JUMP JUMPDEST PUSH1 0x0 DUP3 DUP3 LT ISZERO PUSH2 0x31CB JUMPI PUSH2 0x31CB PUSH2 0x309D JUMP JUMPDEST POP SUB SWAP1 JUMP JUMPDEST PUSH1 0x0 PUSH4 0xFFFFFFFF DUP4 DUP2 AND SWAP1 DUP4 AND DUP2 DUP2 LT ISZERO PUSH2 0x31ED JUMPI PUSH2 0x31ED PUSH2 0x309D JUMP JUMPDEST SUB SWAP4 SWAP3 POP POP POP JUMP JUMPDEST PUSH1 0x0 JUMPDEST DUP4 DUP2 LT ISZERO PUSH2 0x3210 JUMPI DUP2 DUP2 ADD MLOAD DUP4 DUP3 ADD MSTORE PUSH1 0x20 ADD PUSH2 0x31F8 JUMP JUMPDEST DUP4 DUP2 GT ISZERO PUSH2 0x19FA JUMPI POP POP PUSH1 0x0 SWAP2 ADD MSTORE JUMP JUMPDEST PUSH1 0x0 DUP3 MLOAD PUSH2 0x3233 DUP2 DUP5 PUSH1 0x20 DUP8 ADD PUSH2 0x31F5 JUMP JUMPDEST SWAP2 SWAP1 SWAP2 ADD SWAP3 SWAP2 POP POP JUMP JUMPDEST PUSH1 0x20 DUP2 MSTORE PUSH1 0x0 DUP3 MLOAD DUP1 PUSH1 0x20 DUP5 ADD MSTORE PUSH2 0x325C DUP2 PUSH1 0x40 DUP6 ADD PUSH1 0x20 DUP8 ADD PUSH2 0x31F5 JUMP JUMPDEST PUSH1 0x1F ADD PUSH1 0x1F NOT AND SWAP2 SWAP1 SWAP2 ADD PUSH1 0x40 ADD SWAP3 SWAP2 POP POP JUMP INVALID LOG2 PUSH5 0x6970667358 0x22 SLT KECCAK256 POP SWAP1 0xE7 0xDD SWAP7 BLOCKHASH 0x27 PUSH27 0x98A8006CF83A67B18ADD3846C77EF6241F86C7BD74CC102E64736F PUSH13 0x634300080D0033000000000000 ",
  "sha1": "e3e5ba1d01d8d881fc302186642b523f2438c2e6",
  "source": "// SPDX-License-Identifier: MIT\npragma solidity ^0.8.12;\n\nimport \"OpenZeppelin/openzeppelin-contracts@4.8.0/contracts/token/ERC20/IERC20.sol\";\nimport \"OpenZeppelin/openzeppelin-contracts@4.8.0/contracts/token/ERC20/utils/SafeERC20.sol\";\nimport \"OpenZeppelin/openzeppelin-contracts@4.8.0/contracts/utils/math/Math.sol\";\nimport \"OpenZeppelin/openzeppelin-contracts@4.8.0/contracts/access/Ownable.sol\";\nimport \"OpenZeppelin/openzeppelin-contracts@4.8.0/contracts/security/Pausable.sol\";\n\nimport \"./BeamerUtils.sol\";\nimport \"./RestrictedCalls.sol\";\nimport \"./LpWhitelist.sol\";\n\n/// The request manager.\n///\n/// This contract is responsible for keeping track of transfer requests,\n/// implementing the rules of the challenge game and holding deposited\n/// tokens until they are withdrawn.\n/// The information passed by L1 resolution will be stored with the respective requests.\n///\n/// It is the only contract that agents need to interact with on the source chain.\n/// .. note::\n///\n///   The functions resolveRequest and invalidateFill can only be called by\n///   the :sol:contract:`Resolver` contract, via a chain-dependent messenger contract.\ncontract RequestManager is Ownable, LpWhitelist, RestrictedCalls, Pausable {\n    using Math for uint256;\n    using SafeERC20 for IERC20;\n\n    // Structs\n    // TODO: check if we can use a smaller type for `targetChainId`, so that the\n    // fields can be packed into one storage slot\n    struct Request {\n        address sender;\n        address sourceTokenAddress;\n        uint256 targetChainId;\n        uint256 amount;\n        uint32 validUntil;\n        uint96 lpFee;\n        uint96 protocolFee;\n        uint32 activeClaims;\n        uint96 withdrawClaimId;\n        address filler;\n        bytes32 fillId;\n        mapping(bytes32 => bool) invalidFillIds;\n    }\n\n    struct Claim {\n        bytes32 requestId;\n        address claimer;\n        uint256 claimerStake;\n        mapping(address => uint256) challengersStakes;\n        address lastChallenger;\n        uint256 challengerStakeTotal;\n        uint256 withdrawnAmount;\n        uint256 termination;\n        bytes32 fillId;\n    }\n\n    // Events\n\n    /// Emitted when a new request has been created.\n    ///\n    /// .. seealso:: :sol:func:`createRequest`\n    event RequestCreated(\n        bytes32 indexed requestId,\n        uint256 targetChainId,\n        address sourceTokenAddress,\n        address targetTokenAddress,\n        address targetAddress,\n        uint256 amount,\n        uint96 nonce,\n        uint32 validUntil\n    );\n\n    /// Emitted when the token deposit for request ``requestId`` has been\n    /// transferred to the ``receiver``.\n    ///\n    /// This can happen in two cases:\n    ///\n    ///  * the request expired and the request submitter called :sol:func:`withdrawExpiredRequest`\n    ///  * a claim related to the request has been resolved successfully in favor of the claimer\n    ///\n    /// .. seealso:: :sol:func:`withdraw` :sol:func:`withdrawExpiredRequest`\n    event DepositWithdrawn(bytes32 requestId, address receiver);\n\n    /// Emitted when a claim or a counter-claim (challenge) has been made.\n    ///\n    /// .. seealso:: :sol:func:`claimRequest` :sol:func:`challengeClaim`\n    event ClaimMade(\n        bytes32 indexed requestId,\n        uint96 claimId,\n        address claimer,\n        uint256 claimerStake,\n        address lastChallenger,\n        uint256 challengerStakeTotal,\n        uint256 termination,\n        bytes32 fillId\n    );\n\n    /// Emitted when staked native tokens tied to a claim have been withdrawn.\n    ///\n    /// This can only happen when the claim has been resolved and the caller\n    /// of :sol:func:`withdraw` is allowed to withdraw their stake.\n    ///\n    /// .. seealso:: :sol:func:`withdraw`\n    event ClaimStakeWithdrawn(\n        uint96 claimId,\n        bytes32 indexed requestId,\n        address claimReceiver\n    );\n\n    event FinalityPeriodUpdated(uint256 targetChainId, uint256 finalityPeriod);\n\n    /// Emitted when a request has been resolved via L1 resolution.\n    ///\n    /// .. seealso:: :sol:func:`resolveRequest`\n    event RequestResolved(bytes32 requestId, address filler, bytes32 fillId);\n\n    /// Emitted when an invalidated fill has been resolved.\n    ///\n    /// .. seealso:: :sol:func:`invalidateFill`\n    event FillInvalidatedResolved(bytes32 requestId, bytes32 fillId);\n\n    // Constants\n\n    /// The minimum amount of source chain's native token that the claimer needs to\n    /// provide when making a claim, as well in each round of the challenge game.\n    uint256 public immutable claimStake;\n\n    /// The additional time given to claim a request. This value is added to the\n    /// validity period of a request.\n    uint256 public immutable claimRequestExtension;\n\n    /// The period for which the claim is valid.\n    uint256 public immutable claimPeriod;\n\n    /// The period by which the termination time of a claim is extended after each\n    /// round of the challenge game. This period should allow enough time for the\n    /// other parties to counter-challenge.\n    ///\n    /// .. note::\n    ///\n    ///    The claim's termination time is extended only if it is less than the\n    ///    extension time.\n    ///\n    /// Note that in the first challenge round, i.e. the round initiated by the first\n    /// challenger, the termination time is extended additionally by the finality\n    /// period of the target chain. This is done to allow for L1 resolution.\n    uint256 public immutable challengePeriodExtension;\n\n    /// The minimum validity period of a request.\n    uint256 public constant MIN_VALIDITY_PERIOD = 30 minutes;\n\n    /// The maximum validity period of a request.\n    uint256 public constant MAX_VALIDITY_PERIOD = 48 hours;\n\n    /// withdrawClaimId is set to this value when an expired request gets withdrawn by the sender\n    uint96 public constant CLAIM_ID_WITHDRAWN_EXPIRED = type(uint96).max;\n\n    // Variables\n\n    /// A counter used to generate request and claim IDs.\n    /// The variable holds the most recently used nonce and must\n    /// be incremented to get the next nonce\n    uint96 public currentNonce;\n\n    /// Maps target rollup chain IDs to finality periods.\n    /// Finality periods are in seconds.\n    mapping(uint256 => uint256) public finalityPeriods;\n\n    /// Maps request IDs to requests.\n    mapping(bytes32 => Request) public requests;\n\n    /// Maps claim IDs to claims.\n    mapping(uint96 => Claim) public claims;\n\n    /// The minimum fee, denominated in transfer token, paid to the liquidity provider.\n    uint256 public minLpFee = 5 ether; // 5e18\n\n    /// Liquidity provider fee percentage, expressed in ppm (parts per million).\n    uint256 public lpFeePPM = 1_000; // 0.1% of the token amount being transferred\n\n    /// Protocol fee percentage, expressed in ppm (parts per million).\n    uint256 public protocolFeePPM = 0; // 0% of the token amount being transferred\n\n    /// The maximum amount of tokens that can be transferred in a single request.\n    uint256 public transferLimit = 10000 ether; // 10000e18\n\n    /// Maps ERC20 token addresses to related token amounts that belong to the protocol.\n    mapping(address => uint256) public collectedProtocolFees;\n\n    /// Compute the liquidy provider fee that needs to be paid for a given transfer amount.\n    function lpFee(uint256 amount) public view returns (uint256) {\n        return Math.max(minLpFee, (amount * lpFeePPM) / 1_000_000);\n    }\n\n    /// Compute the protocol fee that needs to be paid for a given transfer amount.\n    function protocolFee(uint256 amount) public view returns (uint256) {\n        return (amount * protocolFeePPM) / 1_000_000;\n    }\n\n    /// Compute the total fee that needs to be paid for a given transfer amount.\n    /// The total fee is the sum of the liquidity provider fee and the protocol fee.\n    function totalFee(uint256 amount) public view returns (uint256) {\n        return lpFee(amount) + protocolFee(amount);\n    }\n\n    // Modifiers\n\n    /// Check whether a given request ID is valid.\n    modifier validRequestId(bytes32 requestId) {\n        require(\n            requests[requestId].sender != address(0),\n            \"requestId not valid\"\n        );\n        _;\n    }\n\n    /// Check whether a given claim ID is valid.\n    modifier validClaimId(uint96 claimId) {\n        require(claims[claimId].claimer != address(0), \"claimId not valid\");\n        _;\n    }\n\n    /// Constructor.\n    ///\n    /// @param _claimStake Claim stake amount.\n    /// @param _claimRequestExtension Extension to claim a request after validity period ends.\n    /// @param _claimPeriod Claim period, in seconds.\n    /// @param _challengePeriodExtension Challenge period extension, in seconds.\n    constructor(\n        uint256 _claimStake,\n        uint256 _claimRequestExtension,\n        uint256 _claimPeriod,\n        uint256 _challengePeriodExtension\n    ) {\n        claimStake = _claimStake;\n        claimRequestExtension = _claimRequestExtension;\n        claimPeriod = _claimPeriod;\n        challengePeriodExtension = _challengePeriodExtension;\n    }\n\n    /// Create a new transfer request.\n    ///\n    /// @param targetChainId ID of the target chain.\n    /// @param sourceTokenAddress Address of the token contract on the source chain.\n    /// @param targetTokenAddress Address of the token contract on the target chain.\n    /// @param targetAddress Recipient address on the target chain.\n    /// @param amount Amount of tokens to transfer. Does not include fees.\n    /// @param validityPeriod The number of seconds the request is to be considered valid.\n    ///                       Once its validity period has elapsed, the request cannot be claimed\n    ///                       anymore and will eventually expire, allowing the request submitter\n    ///                       to withdraw the deposited tokens if there are no active claims.\n    /// @return ID of the newly created request.\n    function createRequest(\n        uint256 targetChainId,\n        address sourceTokenAddress,\n        address targetTokenAddress,\n        address targetAddress,\n        uint256 amount,\n        uint256 validityPeriod\n    ) external whenNotPaused returns (bytes32) {\n        require(\n            finalityPeriods[targetChainId] != 0,\n            \"Target rollup not supported\"\n        );\n        require(\n            validityPeriod >= MIN_VALIDITY_PERIOD,\n            \"Validity period too short\"\n        );\n        require(\n            validityPeriod <= MAX_VALIDITY_PERIOD,\n            \"Validity period too long\"\n        );\n        require(amount <= transferLimit, \"Amount exceeds transfer limit\");\n\n        IERC20 token = IERC20(sourceTokenAddress);\n\n        uint256 lpFeeTokenAmount = lpFee(amount);\n        uint256 protocolFeeTokenAmount = protocolFee(amount);\n\n        require(\n            token.allowance(msg.sender, address(this)) >=\n                amount + lpFeeTokenAmount + protocolFeeTokenAmount,\n            \"Insufficient allowance\"\n        );\n\n        uint96 nonce = currentNonce + 1;\n        currentNonce = nonce;\n\n        bytes32 requestId = BeamerUtils.createRequestId(\n            block.chainid,\n            targetChainId,\n            targetTokenAddress,\n            targetAddress,\n            amount,\n            nonce\n        );\n\n        Request storage newRequest = requests[requestId];\n        newRequest.sender = msg.sender;\n        newRequest.sourceTokenAddress = sourceTokenAddress;\n        newRequest.targetChainId = targetChainId;\n        newRequest.amount = amount;\n        newRequest.validUntil = uint32(block.timestamp + validityPeriod);\n        newRequest.lpFee = uint96(lpFeeTokenAmount);\n        newRequest.protocolFee = uint96(protocolFeeTokenAmount);\n\n        emit RequestCreated(\n            requestId,\n            targetChainId,\n            sourceTokenAddress,\n            targetTokenAddress,\n            targetAddress,\n            amount,\n            nonce,\n            uint32(block.timestamp + validityPeriod)\n        );\n\n        token.safeTransferFrom(\n            msg.sender,\n            address(this),\n            amount + lpFeeTokenAmount + protocolFeeTokenAmount\n        );\n\n        return requestId;\n    }\n\n    /// Withdraw funds deposited with an expired request.\n    ///\n    /// No claims must be active for the request.\n    ///\n    /// @param requestId ID of the expired request.\n    function withdrawExpiredRequest(bytes32 requestId)\n        external\n        validRequestId(requestId)\n    {\n        Request storage request = requests[requestId];\n\n        require(request.withdrawClaimId == 0, \"Deposit already withdrawn\");\n        require(\n            block.timestamp >= request.validUntil,\n            \"Request not expired yet\"\n        );\n        require(request.activeClaims == 0, \"Active claims running\");\n\n        request.withdrawClaimId = CLAIM_ID_WITHDRAWN_EXPIRED;\n\n        emit DepositWithdrawn(requestId, request.sender);\n\n        IERC20 token = IERC20(request.sourceTokenAddress);\n        token.safeTransfer(\n            request.sender,\n            request.amount + request.lpFee + request.protocolFee\n        );\n    }\n\n    /// Claim that a request was filled by the caller.\n    ///\n    /// The request must still be valid at call time.\n    /// The caller must provide the ``claimStake`` amount of source rollup's native\n    /// token.\n    ///\n    /// @param requestId ID of the request.\n    /// @param fillId The fill ID.\n    /// @return The claim ID.\n    function claimRequest(bytes32 requestId, bytes32 fillId)\n        external\n        payable\n        validRequestId(requestId)\n        onlyWhitelist\n        returns (uint96)\n    {\n        Request storage request = requests[requestId];\n\n        require(\n            block.timestamp < request.validUntil + claimRequestExtension,\n            \"Request cannot be claimed anymore\"\n        );\n        require(request.withdrawClaimId == 0, \"Deposit already withdrawn\");\n        require(msg.value == claimStake, \"Invalid stake amount\");\n        require(fillId != bytes32(0), \"FillId must not be 0x0\");\n\n        request.activeClaims += 1;\n\n        uint96 nonce = currentNonce + 1;\n        currentNonce = nonce;\n        uint256 termination = block.timestamp + claimPeriod;\n\n        Claim storage claim = claims[nonce];\n        claim.requestId = requestId;\n        claim.claimer = msg.sender;\n        claim.claimerStake = msg.value;\n        claim.termination = termination;\n        claim.fillId = fillId;\n\n        emit ClaimMade(\n            requestId,\n            nonce,\n            msg.sender,\n            msg.value,\n            address(0),\n            0,\n            termination,\n            fillId\n        );\n\n        return nonce;\n    }\n\n    /// Challenge an existing claim.\n    ///\n    /// The claim must still be valid at call time.\n    /// This function implements one round of the challenge game.\n    /// The original claimer is allowed to call this function only\n    /// after someone else made a challenge, i.e. every second round.\n    /// However, once the original claimer counter-challenges, anyone\n    /// can join the game and make another challenge.\n    ///\n    /// The caller must provide enough native tokens as their stake.\n    /// For the original claimer, the minimum stake is\n    /// ``challengerStakeTotal - claimerStake + claimStake``.\n    ///\n    /// For challengers, the minimum stake is\n    /// ``claimerStake - challengerStakeTotal + 1``.\n    ///\n    /// An example (time flows downwards, claimStake = 10)::\n    ///\n    ///   claimRequest() by Max [stakes 10]\n    ///   challengeClaim() by Alice [stakes 11]\n    ///   challengeClaim() by Max [stakes 11]\n    ///   challengeClaim() by Bob [stakes 16]\n    ///\n    /// In this example, if Max didn't want to lose the challenge game to\n    /// Alice and Bob, he would have to challenge with a stake of at least 16.\n    ///\n    /// @param claimId The claim ID.\n    function challengeClaim(uint96 claimId)\n        external\n        payable\n        validClaimId(claimId)\n    {\n        Claim storage claim = claims[claimId];\n        bytes32 requestId = claim.requestId;\n        uint256 termination = claim.termination;\n        Request storage request = requests[requestId];\n        require(block.timestamp < termination, \"Claim expired\");\n        require(request.filler == address(0), \"Request already resolved\");\n        require(\n            !request.invalidFillIds[claim.fillId],\n            \"Fill already invalidated\"\n        );\n\n        uint256 periodExtension = challengePeriodExtension;\n        address claimer = claim.claimer;\n        uint256 claimerStake = claim.claimerStake;\n        uint256 challengerStakeTotal = claim.challengerStakeTotal;\n\n        if (claimerStake > challengerStakeTotal) {\n            if (challengerStakeTotal == 0) {\n                periodExtension += finalityPeriods[request.targetChainId];\n            }\n            require(msg.sender != claimer, \"Cannot challenge own claim\");\n            require(\n                msg.value >= claimerStake - challengerStakeTotal + 1,\n                \"Not enough stake provided\"\n            );\n        } else {\n            require(msg.sender == claimer, \"Not eligible to outbid\");\n            require(\n                msg.value >= challengerStakeTotal - claimerStake + claimStake,\n                \"Not enough stake provided\"\n            );\n        }\n\n        if (msg.sender == claimer) {\n            claimerStake += msg.value;\n            claim.claimerStake = claimerStake;\n        } else {\n            claim.lastChallenger = msg.sender;\n            claim.challengersStakes[msg.sender] += msg.value;\n            challengerStakeTotal += msg.value;\n            claim.challengerStakeTotal = challengerStakeTotal;\n        }\n\n        if (block.timestamp + periodExtension > termination) {\n            termination = block.timestamp + periodExtension;\n            claim.termination = termination;\n        }\n\n        emit ClaimMade(\n            requestId,\n            claimId,\n            claimer,\n            claimerStake,\n            claim.lastChallenger,\n            challengerStakeTotal,\n            termination,\n            claim.fillId\n        );\n    }\n\n    /// Withdraw the deposit that the request submitter left with the contract,\n    /// as well as the staked native tokens associated with the claim.\n    ///\n    /// In case the caller of this function is a challenger that won the game,\n    /// they will only get their staked native tokens plus the reward in the form\n    /// of full (sole challenger) or partial (multiple challengers) amount\n    /// of native tokens staked by the dishonest claimer.\n    ///\n    /// @param claimId The claim ID.\n    /// @return The address of the deposit receiver.\n    function withdraw(uint96 claimId)\n        external\n        validClaimId(claimId)\n        returns (address)\n    {\n        Claim storage claim = claims[claimId];\n        bytes32 requestId = claim.requestId;\n        Request storage request = requests[requestId];\n\n        (address claimReceiver, uint256 ethToTransfer) = resolveClaim(claimId);\n\n        if (claim.challengersStakes[claimReceiver] > 0) {\n            //Re-entrancy protection\n            claim.challengersStakes[claimReceiver] = 0;\n        }\n\n        uint256 withdrawnAmount = claim.withdrawnAmount;\n\n        // First time withdraw is called, remove it from active claims\n        if (withdrawnAmount == 0) {\n            request.activeClaims -= 1;\n        }\n        withdrawnAmount += ethToTransfer;\n        claim.withdrawnAmount = withdrawnAmount;\n\n        require(\n            withdrawnAmount <= claim.claimerStake + claim.challengerStakeTotal,\n            \"Amount to withdraw too large\"\n        );\n\n        (bool sent, ) = claimReceiver.call{value: ethToTransfer}(\"\");\n        require(sent, \"Failed to send Ether\");\n\n        emit ClaimStakeWithdrawn(claimId, requestId, claimReceiver);\n\n        if (request.withdrawClaimId == 0 && claimReceiver == claim.claimer) {\n            withdrawDeposit(request, claimId);\n        }\n\n        return claimReceiver;\n    }\n\n    function resolveClaim(uint96 claimId)\n        private\n        view\n        returns (address, uint256)\n    {\n        Claim storage claim = claims[claimId];\n        Request storage request = requests[claim.requestId];\n        uint96 withdrawClaimId = request.withdrawClaimId;\n        address claimer = claim.claimer;\n        uint256 claimerStake = claim.claimerStake;\n        uint256 challengerStakeTotal = claim.challengerStakeTotal;\n        bytes32 claimFillId = claim.fillId;\n        require(\n            claim.withdrawnAmount < claimerStake + challengerStakeTotal,\n            \"Claim already withdrawn\"\n        );\n\n        bool claimValid = false;\n\n        // The claim is resolved with the following priority:\n        // 1) The l1 resolved filler is the claimer and l1 resolved fillId matches, claim is valid\n        // 2) FillId is true in request's invalidFillIds, claim is invalid\n        // 3) The withdrawer's claim matches exactly this claim (same claimer address, same fillId)\n        // 4) Claim properties, claim terminated and claimer has the highest stake\n        address filler = request.filler;\n        bytes32 fillId = request.fillId;\n\n        if (filler != address(0)) {\n            // Claim resolution via 1)\n            claimValid = filler == claimer && fillId == claimFillId;\n        } else if (request.invalidFillIds[fillId]) {\n            // Claim resolution via 2)\n            claimValid = false;\n        } else if (withdrawClaimId != 0) {\n            // Claim resolution via 3)\n            claimValid =\n                claimer == claims[withdrawClaimId].claimer &&\n                claimFillId == claims[withdrawClaimId].fillId;\n        } else {\n            // Claim resolution via 4)\n            require(\n                block.timestamp >= claim.termination,\n                \"Claim period not finished\"\n            );\n            claimValid = claimerStake > challengerStakeTotal;\n        }\n\n        // Calculate withdraw scheme for claim stakes\n        uint256 ethToTransfer;\n        address claimReceiver;\n\n        if (claimValid) {\n            // If claim is valid, all stakes go to the claimer\n            ethToTransfer = claimerStake + challengerStakeTotal;\n            claimReceiver = claimer;\n        } else if (challengerStakeTotal > 0) {\n            // If claim is invalid, partial withdrawal by the sender\n            ethToTransfer = 2 * claim.challengersStakes[msg.sender];\n            claimReceiver = msg.sender;\n\n            require(ethToTransfer > 0, \"Challenger has nothing to withdraw\");\n        } else {\n            // The unlikely event is possible that a false claim has no challenger\n            // If it is known that the claim is false then the claim stake goes to the platform\n            ethToTransfer = claimerStake;\n            claimReceiver = owner();\n        }\n\n        // If the challenger wins and is the last challenger, he gets either\n        // twice his stake plus the excess stake (if the claimer was winning), or\n        // twice his stake minus the difference between the claimer and challenger stakes (if the claimer was losing)\n        if (msg.sender == claim.lastChallenger) {\n            if (claimerStake > challengerStakeTotal) {\n                ethToTransfer += (claimerStake - challengerStakeTotal);\n            } else {\n                ethToTransfer -= (challengerStakeTotal - claimerStake);\n            }\n        }\n\n        return (claimReceiver, ethToTransfer);\n    }\n\n    function withdrawDeposit(Request storage request, uint96 claimId) private {\n        Claim storage claim = claims[claimId];\n        address claimer = claim.claimer;\n        emit DepositWithdrawn(claim.requestId, claimer);\n\n        request.withdrawClaimId = claimId;\n\n        collectedProtocolFees[request.sourceTokenAddress] += request\n            .protocolFee;\n\n        IERC20 token = IERC20(request.sourceTokenAddress);\n        token.safeTransfer(claimer, request.amount + request.lpFee);\n    }\n\n    /// Returns whether a request's deposit was withdrawn or not\n    ///\n    /// This can be true in two cases:\n    /// 1. The deposit was withdrawn after the request was claimed and filled.\n    /// 2. The submitter withdrew the deposit after the request's expiry.\n    /// .. seealso:: :sol:func:`withdraw`\n    /// .. seealso:: :sol:func:`withdrawExpiredRequest`\n    ///\n    /// @param requestId The request ID\n    /// @return Whether the deposit corresponding to the given request ID was withdrawn\n    function isWithdrawn(bytes32 requestId)\n        public\n        view\n        validRequestId(requestId)\n        returns (bool)\n    {\n        return requests[requestId].withdrawClaimId != 0;\n    }\n\n    /// Withdraw protocol fees collected by the contract.\n    ///\n    /// Protocol fees are paid in token transferred.\n    ///\n    /// .. note:: This function can only be called by the contract owner.\n    ///\n    /// @param tokenAddress The address of the token contract.\n    /// @param recipient The address the fees should be sent to.\n    function withdrawProtocolFees(address tokenAddress, address recipient)\n        external\n        onlyOwner\n    {\n        uint256 amount = collectedProtocolFees[tokenAddress];\n        require(amount > 0, \"Protocol fee is zero\");\n        collectedProtocolFees[tokenAddress] = 0;\n\n        IERC20 token = IERC20(tokenAddress);\n        token.safeTransfer(recipient, amount);\n    }\n\n    /// Update fee parameters.\n    ///\n    /// .. note:: This function can only be called by the contract owner.\n    ///\n    /// @param newProtocolFeePPM The new value for ``protocolFeePPM``.\n    /// @param newLpFeePPM The new value for ``lpFeePPM``.\n    /// @param newMinLpFee The new value for ``minLpFee``.\n    function updateFeeData(\n        uint256 newProtocolFeePPM,\n        uint256 newLpFeePPM,\n        uint256 newMinLpFee\n    ) external onlyOwner {\n        protocolFeePPM = newProtocolFeePPM;\n        lpFeePPM = newLpFeePPM;\n        minLpFee = newMinLpFee;\n    }\n\n    /// Update the transfer amount limit.\n    ///\n    /// .. note:: This function can only be called by the contract owner.\n    ///\n    /// @param newTransferLimit The new value for ``transferLimit``.\n    function updateTransferLimit(uint256 newTransferLimit) external onlyOwner {\n        transferLimit = newTransferLimit;\n    }\n\n    /// Set the finality period for the given target chain.\n    ///\n    /// .. note:: This function can only be called by the contract owner.\n    ///\n    /// @param targetChainId The target chain ID.\n    /// @param finalityPeriod Finality period in seconds.\n    function setFinalityPeriod(uint256 targetChainId, uint256 finalityPeriod)\n        external\n        onlyOwner\n    {\n        require(finalityPeriod > 0, \"Finality period must be greater than 0\");\n        finalityPeriods[targetChainId] = finalityPeriod;\n\n        emit FinalityPeriodUpdated(targetChainId, finalityPeriod);\n    }\n\n    /// Returns whether a fill is invalidated or not\n    ///\n    /// Calling invalidateFill() will set this boolean to true,\n    /// marking that the ``fillId`` for the corresponding ``requestId`` was\n    /// invalidated.\n    /// Calling resolveRequest will validate it again, setting request.invalidatedFills[fillId]\n    /// to false.\n    /// .. seealso:: :sol:func:`invalidateFill`\n    /// .. seealso:: :sol:func:`resolveRequest`\n    ///\n    /// @param requestId The request ID\n    /// @param fillId The fill ID\n    /// @return Whether the fill ID is invalid for the given request ID\n    function isInvalidFill(bytes32 requestId, bytes32 fillId)\n        public\n        view\n        returns (bool)\n    {\n        return requests[requestId].invalidFillIds[fillId];\n    }\n\n    /// Mark the request identified by ``requestId`` as filled by ``filler``.\n    ///\n    /// .. note::\n    ///\n    ///     This function is a restricted call function. Only callable by the added caller.\n    ///\n    /// @param requestId The request ID.\n    /// @param fillId The fill ID.\n    /// @param resolutionChainId The resolution (L1) chain ID.\n    /// @param filler The address that filled the request.\n    function resolveRequest(\n        bytes32 requestId,\n        bytes32 fillId,\n        uint256 resolutionChainId,\n        address filler\n    ) external restricted(resolutionChainId) {\n        Request storage request = requests[requestId];\n        request.filler = filler;\n        request.fillId = fillId;\n\n        request.invalidFillIds[fillId] = false;\n\n        emit RequestResolved(requestId, filler, fillId);\n    }\n\n    /// Mark the fill identified by ``requestId`` and ``fillId`` as invalid.\n    ///\n    /// .. note::\n    ///\n    ///     This function is a restricted call function. Only callable by the added caller.\n    ///\n    /// @param requestId The request ID.\n    /// @param fillId The fill ID.\n    /// @param resolutionChainId The resolution (L1) chain ID.\n    function invalidateFill(\n        bytes32 requestId,\n        bytes32 fillId,\n        uint256 resolutionChainId\n    ) external restricted(resolutionChainId) {\n        Request storage request = requests[requestId];\n        require(\n            request.filler == address(0),\n            \"Cannot invalidate resolved fills\"\n        );\n        require(\n            request.invalidFillIds[fillId] == false,\n            \"Fill already invalidated\"\n        );\n\n        request.invalidFillIds[fillId] = true;\n\n        emit FillInvalidatedResolved(requestId, fillId);\n    }\n\n    /// Pauses the contract.\n    ///\n    /// Once the contract is paused, it cannot be used to create new\n    /// requests anymore. Withdrawing deposited funds and claim stakes\n    /// still works, though.\n    ///\n    /// .. note:: This function can only be called when the contract is not paused.\n    /// .. note:: This function can only be called by the contract owner.\n    function pause() external onlyOwner {\n        _pause();\n    }\n\n    /// Unpauses the contract.\n    ///\n    /// Once the contract is unpaused, it can be used normally.\n    ///\n    /// .. note:: This function can only be called when the contract is paused.\n    /// .. note:: This function can only be called by the contract owner.\n    function unpause() external onlyOwner {\n        _unpause();\n    }\n}\n",
  "sourcePath": "contracts/contracts/RequestManager.sol",
  "type": "contract"
}